{"contracts/deployment/SolarUtility.sol":{"SolarUtility":{"abi":[{"inputs":[],"stateMutability":"nonpayable","type":"constructor"},{"inputs":[],"name":"EnforcedPause","type":"error"},{"inputs":[],"name":"ExpectedPause","type":"error"},{"inputs":[{"internalType":"address","name":"owner","type":"address"}],"name":"OwnableInvalidOwner","type":"error"},{"inputs":[{"internalType":"address","name":"account","type":"address"}],"name":"OwnableUnauthorizedAccount","type":"error"},{"inputs":[],"name":"ReentrancyGuardReentrantCall","type":"error"},{"anonymous":false,"inputs":[{"indexed":false,"internalType":"uint256","name":"amount","type":"uint256"}],"name":"CompanyTreasuryDeposit","type":"event"},{"anonymous":false,"inputs":[{"indexed":true,"internalType":"bytes32","name":"feature","type":"bytes32"},{"indexed":false,"internalType":"uint256","name":"price","type":"uint256"}],"name":"FeaturePricingSet","type":"event"},{"anonymous":false,"inputs":[{"indexed":true,"internalType":"address","name":"user","type":"address"},{"indexed":true,"internalType":"bytes32","name":"feature","type":"bytes32"},{"indexed":false,"internalType":"uint256","name":"price","type":"uint256"},{"indexed":false,"internalType":"uint256","name":"duration","type":"uint256"}],"name":"FeaturePurchased","type":"event"},{"anonymous":false,"inputs":[{"indexed":true,"internalType":"bytes32","name":"feature","type":"bytes32"},{"indexed":false,"internalType":"uint256","name":"requirement","type":"uint256"}],"name":"FeatureRequirementSet","type":"event"},{"anonymous":false,"inputs":[{"indexed":true,"internalType":"address","name":"user","type":"address"},{"indexed":true,"internalType":"bytes32","name":"feature","type":"bytes32"}],"name":"FeatureUsed","type":"event"},{"anonymous":false,"inputs":[{"indexed":false,"internalType":"uint256","name":"amount","type":"uint256"}],"name":"MorphoTreasuryDeposit","type":"event"},{"anonymous":false,"inputs":[{"indexed":true,"internalType":"address","name":"previousOwner","type":"address"},{"indexed":true,"internalType":"address","name":"newOwner","type":"address"}],"name":"OwnershipTransferred","type":"event"},{"anonymous":false,"inputs":[{"indexed":false,"internalType":"address","name":"account","type":"address"}],"name":"Paused","type":"event"},{"anonymous":false,"inputs":[{"indexed":true,"internalType":"address","name":"user","type":"address"},{"indexed":true,"internalType":"bytes32","name":"feature","type":"bytes32"}],"name":"PermanentAccessGranted","type":"event"},{"anonymous":false,"inputs":[{"indexed":false,"internalType":"uint256","name":"amount","type":"uint256"},{"indexed":false,"internalType":"address","name":"source","type":"address"}],"name":"RevenueAdded","type":"event"},{"anonymous":false,"inputs":[{"indexed":false,"internalType":"uint256","name":"amount","type":"uint256"},{"indexed":false,"internalType":"string","name":"reason","type":"string"},{"indexed":false,"internalType":"address","name":"burner","type":"address"}],"name":"SolarBurned","type":"event"},{"anonymous":false,"inputs":[{"indexed":true,"internalType":"address","name":"user","type":"address"},{"indexed":true,"internalType":"bytes32","name":"feature","type":"bytes32"},{"indexed":false,"internalType":"uint256","name":"duration","type":"uint256"}],"name":"TemporaryAccessGranted","type":"event"},{"anonymous":false,"inputs":[{"indexed":false,"internalType":"string","name":"treasuryType","type":"string"},{"indexed":false,"internalType":"address","name":"newAddress","type":"address"}],"name":"TreasuryContractUpdated","type":"event"},{"anonymous":false,"inputs":[{"indexed":false,"internalType":"address","name":"account","type":"address"}],"name":"Unpaused","type":"event"},{"inputs":[],"name":"BURN_ADDRESS","outputs":[{"internalType":"address","name":"","type":"address"}],"stateMutability":"view","type":"function"},{"inputs":[],"name":"BURN_INTERVAL","outputs":[{"internalType":"uint256","name":"","type":"uint256"}],"stateMutability":"view","type":"function"},{"inputs":[],"name":"BURN_PERCENTAGE","outputs":[{"internalType":"uint256","name":"","type":"uint256"}],"stateMutability":"view","type":"function"},{"inputs":[],"name":"SOLAR_TOKEN","outputs":[{"internalType":"contract IERC20","name":"","type":"address"}],"stateMutability":"view","type":"function"},{"inputs":[],"name":"TREASURY_THRESHOLD","outputs":[{"internalType":"uint256","name":"","type":"uint256"}],"stateMutability":"view","type":"function"},{"inputs":[],"name":"USDC","outputs":[{"internalType":"contract IERC20","name":"","type":"address"}],"stateMutability":"view","type":"function"},{"inputs":[],"name":"burnEvents","outputs":[{"internalType":"uint256","name":"","type":"uint256"}],"stateMutability":"view","type":"function"},{"inputs":[],"name":"calculateBurnAmount","outputs":[{"internalType":"uint256","name":"","type":"uint256"}],"stateMutability":"view","type":"function"},{"inputs":[],"name":"canExecuteQuarterlyBurn","outputs":[{"internalType":"bool","name":"","type":"bool"}],"stateMutability":"view","type":"function"},{"inputs":[{"internalType":"address","name":"user","type":"address"},{"internalType":"bytes32","name":"feature","type":"bytes32"}],"name":"checkAccess","outputs":[{"internalType":"bool","name":"hasAccess","type":"bool"}],"stateMutability":"view","type":"function"},{"inputs":[],"name":"companyAllocatedRevenue","outputs":[{"internalType":"uint256","name":"","type":"uint256"}],"stateMutability":"view","type":"function"},{"inputs":[],"name":"companyTreasuryContract","outputs":[{"internalType":"address","name":"","type":"address"}],"stateMutability":"view","type":"function"},{"inputs":[],"name":"depositToTreasuries","outputs":[],"stateMutability":"nonpayable","type":"function"},{"inputs":[{"internalType":"address","name":"token","type":"address"},{"internalType":"uint256","name":"amount","type":"uint256"}],"name":"emergencyWithdraw","outputs":[],"stateMutability":"nonpayable","type":"function"},{"inputs":[],"name":"executeQuarterlyBurn","outputs":[],"stateMutability":"nonpayable","type":"function"},{"inputs":[{"internalType":"bytes32","name":"","type":"bytes32"}],"name":"featurePricing","outputs":[{"internalType":"uint256","name":"","type":"uint256"}],"stateMutability":"view","type":"function"},{"inputs":[{"internalType":"bytes32","name":"","type":"bytes32"}],"name":"featureRequirements","outputs":[{"internalType":"uint256","name":"","type":"uint256"}],"stateMutability":"view","type":"function"},{"inputs":[{"internalType":"bytes32","name":"","type":"bytes32"}],"name":"featureUsage","outputs":[{"internalType":"uint256","name":"","type":"uint256"}],"stateMutability":"view","type":"function"},{"inputs":[],"name":"getAllFeatureRequirements","outputs":[{"internalType":"bytes32[]","name":"features","type":"bytes32[]"},{"internalType":"uint256[]","name":"requirements","type":"uint256[]"},{"internalType":"uint256[]","name":"prices","type":"uint256[]"}],"stateMutability":"view","type":"function"},{"inputs":[{"internalType":"bytes32","name":"feature","type":"bytes32"}],"name":"getFeaturePricing","outputs":[{"internalType":"uint256","name":"monthly","type":"uint256"},{"internalType":"uint256","name":"quarterly","type":"uint256"},{"internalType":"uint256","name":"annual","type":"uint256"}],"stateMutability":"view","type":"function"},{"inputs":[{"internalType":"bytes32","name":"feature","type":"bytes32"}],"name":"getFeatureRequirement","outputs":[{"internalType":"uint256","name":"requirement","type":"uint256"}],"stateMutability":"view","type":"function"},{"inputs":[],"name":"getRevenueSplit","outputs":[{"internalType":"uint256","name":"totalCollected","type":"uint256"},{"internalType":"uint256","name":"morphoShare","type":"uint256"},{"internalType":"uint256","name":"companyShare","type":"uint256"},{"internalType":"uint256","name":"pendingBalance","type":"uint256"}],"stateMutability":"view","type":"function"},{"inputs":[],"name":"getStats","outputs":[{"internalType":"uint256","name":"totalSupply","type":"uint256"},{"internalType":"uint256","name":"burnedAmount","type":"uint256"},{"internalType":"uint256","name":"burnCount","type":"uint256"},{"internalType":"uint256","name":"revenueForBurns","type":"uint256"},{"internalType":"uint256","name":"nextBurnTime","type":"uint256"},{"internalType":"uint256","name":"usdcBalance","type":"uint256"},{"internalType":"uint256","name":"morphoRevenue","type":"uint256"},{"internalType":"uint256","name":"companyRevenue","type":"uint256"}],"stateMutability":"view","type":"function"},{"inputs":[{"internalType":"address","name":"user","type":"address"},{"internalType":"bytes32","name":"feature","type":"bytes32"}],"name":"getUserFeatureAccess","outputs":[{"internalType":"bool","name":"hasAccess","type":"bool"},{"internalType":"string","name":"accessType","type":"string"},{"internalType":"uint256","name":"expiryTime","type":"uint256"}],"stateMutability":"view","type":"function"},{"inputs":[{"internalType":"address","name":"user","type":"address"}],"name":"getUserStatus","outputs":[{"internalType":"uint256","name":"balance","type":"uint256"},{"internalType":"bytes32[]","name":"accessibleFeatures","type":"bytes32[]"}],"stateMutability":"view","type":"function"},{"inputs":[{"internalType":"address","name":"user","type":"address"},{"internalType":"bytes32","name":"feature","type":"bytes32"}],"name":"grantPermanentAccess","outputs":[],"stateMutability":"nonpayable","type":"function"},{"inputs":[{"internalType":"address","name":"user","type":"address"},{"internalType":"bytes32","name":"feature","type":"bytes32"},{"internalType":"uint256","name":"duration","type":"uint256"}],"name":"grantTemporaryAccess","outputs":[],"stateMutability":"nonpayable","type":"function"},{"inputs":[],"name":"lastBurnTime","outputs":[{"internalType":"uint256","name":"","type":"uint256"}],"stateMutability":"view","type":"function"},{"inputs":[],"name":"morphoAllocatedRevenue","outputs":[{"internalType":"uint256","name":"","type":"uint256"}],"stateMutability":"view","type":"function"},{"inputs":[],"name":"morphoTreasuryContract","outputs":[{"internalType":"address","name":"","type":"address"}],"stateMutability":"view","type":"function"},{"inputs":[],"name":"owner","outputs":[{"internalType":"address","name":"","type":"address"}],"stateMutability":"view","type":"function"},{"inputs":[{"internalType":"address","name":"","type":"address"},{"internalType":"bytes32","name":"","type":"bytes32"}],"name":"paidAccess","outputs":[{"internalType":"uint256","name":"","type":"uint256"}],"stateMutability":"view","type":"function"},{"inputs":[],"name":"pause","outputs":[],"stateMutability":"nonpayable","type":"function"},{"inputs":[],"name":"paused","outputs":[{"internalType":"bool","name":"","type":"bool"}],"stateMutability":"view","type":"function"},{"inputs":[{"internalType":"address","name":"","type":"address"},{"internalType":"bytes32","name":"","type":"bytes32"}],"name":"permanentAccess","outputs":[{"internalType":"bool","name":"","type":"bool"}],"stateMutability":"view","type":"function"},{"inputs":[{"internalType":"bytes32","name":"feature","type":"bytes32"},{"internalType":"uint256","name":"duration","type":"uint256"}],"name":"purchaseFeatureAccess","outputs":[],"stateMutability":"nonpayable","type":"function"},{"inputs":[],"name":"renounceOwnership","outputs":[],"stateMutability":"nonpayable","type":"function"},{"inputs":[{"internalType":"uint256","name":"newPercentage","type":"uint256"}],"name":"setBurnPercentage","outputs":[],"stateMutability":"view","type":"function"},{"inputs":[{"internalType":"address","name":"_companyTreasuryContract","type":"address"}],"name":"setCompanyTreasuryContract","outputs":[],"stateMutability":"nonpayable","type":"function"},{"inputs":[{"internalType":"bytes32","name":"feature","type":"bytes32"},{"internalType":"uint256","name":"price","type":"uint256"}],"name":"setFeaturePricing","outputs":[],"stateMutability":"nonpayable","type":"function"},{"inputs":[{"internalType":"bytes32","name":"feature","type":"bytes32"},{"internalType":"uint256","name":"requirement","type":"uint256"}],"name":"setFeatureRequirement","outputs":[],"stateMutability":"nonpayable","type":"function"},{"inputs":[{"internalType":"address","name":"_morphoTreasuryContract","type":"address"}],"name":"setMorphoTreasuryContract","outputs":[],"stateMutability":"nonpayable","type":"function"},{"inputs":[{"internalType":"uint256","name":"amount","type":"uint256"},{"internalType":"string","name":"reason","type":"string"}],"name":"strategicBurn","outputs":[],"stateMutability":"nonpayable","type":"function"},{"inputs":[{"internalType":"address","name":"","type":"address"},{"internalType":"bytes32","name":"","type":"bytes32"}],"name":"temporaryAccess","outputs":[{"internalType":"uint256","name":"","type":"uint256"}],"stateMutability":"view","type":"function"},{"inputs":[],"name":"timeUntilNextBurn","outputs":[{"internalType":"uint256","name":"","type":"uint256"}],"stateMutability":"view","type":"function"},{"inputs":[],"name":"totalBurned","outputs":[{"internalType":"uint256","name":"","type":"uint256"}],"stateMutability":"view","type":"function"},{"inputs":[],"name":"totalRevenue","outputs":[{"internalType":"uint256","name":"","type":"uint256"}],"stateMutability":"view","type":"function"},{"inputs":[{"internalType":"address","name":"newOwner","type":"address"}],"name":"transferOwnership","outputs":[],"stateMutability":"nonpayable","type":"function"},{"inputs":[],"name":"unpause","outputs":[],"stateMutability":"nonpayable","type":"function"},{"inputs":[{"internalType":"bytes32","name":"feature","type":"bytes32"}],"name":"useFeature","outputs":[],"stateMutability":"nonpayable","type":"function"},{"inputs":[{"internalType":"address","name":"","type":"address"},{"internalType":"bytes32","name":"","type":"bytes32"}],"name":"userFeatureUsage","outputs":[{"internalType":"uint256","name":"","type":"uint256"}],"stateMutability":"view","type":"function"}],"evm":{"bytecode":{"linkReferences":{},"object":"60806040523480156200001157600080fd5b50600160005533806200003e57604051631e4fbdf760e01b81526000600482015260240160405180910390fd5b6200004981620002b2565b506a295be96e640669720000007f66eddad44c93dd0558e1003b01a4e0f295d66be36ce25c2ca252d535d56dceae8190556a7c13bc4b2c133c560000007fcdd2e53eeaf18ec5f38f57f24026cf06926c90ab44b092680971dd3e46437b01556a18d0bf423c03d8de0000007ffc99c49b7444705c10654f3cc1d41b5b0810f48a0bfea128a73937bf08da6386556a52b7d2dcc80cd2e40000007f1908de9901f837e34fbd66076487da0e278c4f6ec97e479cd8006b0440ced667556acecb8f27f4200f3a0000007f5b5e93bd05d85460aa89d9924e0bbf0cd7476e620e1c59f2fc9e174eb48dd2c6557f65dd133504022a712608e61601c53ce7b6e8fe103bef5f65900f556e5dfe4724556b019d971e4fe8401e740000007f37cb908cb033b4672c1ca0dff40065e9d12bc04fd3d71af05e8343f92c7f6ab0556003602052629896807f50e5d131f8704d08f1c7b0c20e2b5d1eb15fa4e5f179c8166c3fff238cdaba005563017d78407fa5d4e37ac8f96777dae8ea93e91f12703429ecc073338197bbb358a4b1ee32185562e4e1c07fe1de45e32bbeb60683df8e30579f8c69aefd89c311de407144c23723517fa417556301312d007febbd85098ed6fdcde67bbd8058954ecf09fe582d3d9036f16c17e72bb1aaac98556302faf0807f7e3dc27ed770ac3838ce1175815a8de249036c72437bba7cb83fecc9c30677e555624c4b407f2b2a34d4683e8e9cc65bd26ff078c83560475c3d0a62b8b64904804cc092f642556a1d9a5c17dcdd5c1c1bdc9d60aa1b6000526305f5e1007f936a03bb8d7115a1f01b9926173c4d43c0619779937a3accab08c92c3cd58f3c5542600c5562000304565b600180546001600160a01b038381166001600160a01b0319831681179093556040519116919082907f8be0079c531659141344cd1fd0a4f28419497f9722a3daafe3b4186f6b6457e090600090a35050565b612cd680620003146000396000f3fe608060405234801561001057600080fd5b50600436106102f15760003560e01c806395ccea671161019d578063d42cda58116100e9578063e8039ea0116100a2578063eee1e7e51161007c578063eee1e7e514610731578063f2fde38b14610739578063f5cc46511461074c578063fccc28131461075f57600080fd5b8063e8039ea0146106f2578063e81f097e146106fd578063ea0d5dcd1461071057600080fd5b8063d42cda5814610657578063d89135cd14610677578063e001bfbe14610680578063e0637b6a14610693578063e1d37e60146106c1578063e3067449146106e957600080fd5b8063c3412cab11610156578063c9715a2f11610130578063c9715a2f146105ee578063cc58bcdf14610619578063cf3b52be14610647578063d02fd8231461064f57600080fd5b8063c3412cab1461058f578063c3f0d32714610598578063c59d4847146105ab57600080fd5b806395ccea671461051a5780639649b9101461052d578063ad8ea4b614610536578063ba5f138414610549578063bda064eb1461056b578063bf2d9e0b1461058657600080fd5b80635a1ab7801161025c5780637461f24a116102155780638456cb59116101ef5780638456cb59146104d3578063854ca169146104db57806389a30271146104ee5780638da5cb5b1461050957600080fd5b80637461f24a146104a357806374771329146104b65780637b1648e2146104c957600080fd5b80635a1ab780146104395780635ba091c8146104415780635c975abb1461046c5780635ca974a71461048a578063685789cc14610492578063715018a61461049b57600080fd5b806328c582a3116102ae57806328c582a3146103aa5780632ae6fce5146103ca57806337f9a42f146103dd5780633b660aaa146103fd5780633f4ba83a1461040657806340dd0f701461040e57600080fd5b80630a43948e146102f657806313ae89721461030b578063183973df1461032b57806318f591401461033e5780631d2950701461037757806323409a2814610397575b600080fd5b6103096103043660046128b3565b610768565b005b6103136107c1565b60405161032293929190612910565b60405180910390f35b6103096103393660046128b3565b610a3e565b61036961034c36600461296f565b600660209081526000928352604080842090915290825290205481565b604051908152602001610322565b610369610385366004612999565b60036020526000908152604090205481565b6103096103a5366004612999565b610d3b565b6103696103b8366004612999565b60009081526002602052604090205490565b6103096103d83660046129b2565b610e8d565b6103696103eb366004612999565b60026020526000908152604090205481565b61036960085481565b610309610f53565b61036961041c36600461296f565b600560209081526000928352604080842090915290825290205481565b610369610f65565b600e54610454906001600160a01b031681565b6040516001600160a01b039091168152602001610322565b600154600160a01b900460ff165b6040519015158152602001610322565b61047a610f9a565b610369600f5481565b610309610fc3565b61047a6104b136600461296f565b610fd5565b6103096104c43660046129b2565b611109565b6103696276a70081565b6103096111c9565b6103096104e93660046129ea565b6111d9565b61045473a0b86a33e6441b8db72c5ab9cbf4428c7bb060b681565b6001546001600160a01b0316610454565b61030961052836600461296f565b6112d1565b6103696109c481565b61030961054436600461296f565b6113b4565b61055c61055736600461296f565b611416565b60405161032293929190612af5565b61045473746042147240304098c837563aaec0f671881b0781565b610369600b5481565b61036960105481565b6103096105a6366004612999565b61165a565b6105b36116a8565b604080519889526020890197909752958701949094526060860192909252608085015260a084015260c083015260e082015261010001610322565b6103696105fc36600461296f565b600a60209081526000928352604080842090915290825290205481565b61047a61062736600461296f565b600460209081526000928352604080842090915290825290205460ff1681565b610309611769565b610309611ad9565b610369610665366004612999565b60096020526000908152604090205481565b61036960075481565b61030961068e366004612b20565b611e2f565b6106a66106a1366004612999565b611e9f565b60408051938452602084019290925290820152606001610322565b6106c9611f06565b604080519485526020850193909352918301526060820152608001610322565b610369600c5481565b610369633b9aca0081565b61030961070b3660046128b3565b611f8d565b61072361071e3660046129b2565b611fda565b604051610322929190612b53565b6103696123fe565b6103096107473660046129b2565b61245f565b600d54610454906001600160a01b031681565b61045461dead81565b61077061249a565b600082815260026020526040908190208290555182907fc628b3cd4daad3e8dcbb2074db3f9716becc87d652d843c4447064f2e9f9dd42906107b59084815260200190565b60405180910390a25050565b6040805160078082526101008201909252606091829182916020820160e0803683375050604080516007808252610100820190925292955090506020820160e0803683375050604080516007808252610100820190925292945090506020820160e080368337019050509050707072656d69756d5f616e616c797469637360781b8360008151811061085557610855612b74565b60200260200101818152505070637573746f6d5f6d696c6573746f6e657360781b8360018151811061088957610889612b74565b6020026020010181815250506f1c1c9a5bdc9a5d1e57dcdd5c1c1bdc9d60821b836002815181106108bc576108bc612b74565b6020026020010181815250506f616476616e6365645f6a6f75726e657960801b836003815181106108ef576108ef612b74565b602002602001018181525050696170695f61636365737360b01b8360048151811061091c5761091c612b74565b6020026020010181815250506b6561726c795f61636365737360a01b8360058151811061094b5761094b612b74565b6020026020010181815250506a1d9a5c17dcdd5c1c1bdc9d60aa1b8360068151811061097957610979612b74565b60200260200101818152505060005b8351811015610a3857600260008583815181106109a7576109a7612b74565b60200260200101518152602001908152602001600020548382815181106109d0576109d0612b74565b602002602001018181525050600360008583815181106109f2576109f2612b74565b6020026020010151815260200190815260200160002054828281518110610a1b57610a1b612b74565b602090810291909101015280610a3081612ba0565b915050610988565b50909192565b610a466124c7565b610a4e6124f1565b80601e1480610a5d575080605a145b80610a6957508061016d145b610aad5760405162461bcd60e51b815260206004820152601060248201526f24b73b30b634b210323ab930ba34b7b760811b60448201526064015b60405180910390fd5b600082815260036020526040902054610b135760405162461bcd60e51b815260206004820152602260248201527f46656174757265206e6f7420617661696c61626c6520666f7220707572636861604482015261736560f01b6064820152608401610aa4565b60008281526003602052604081205490601e839003610b33575080610b89565b82605a03610b64576064610b48836003612bb9565b610b5390605a612bb9565b610b5d9190612bd0565b9050610b89565b6064610b7183600c612bb9565b610b7c906050612bb9565b610b869190612bd0565b90505b6040516323b872dd60e01b81523360048201523060248201526044810182905273a0b86a33e6441b8db72c5ab9cbf4428c7bb060b6906323b872dd906064016020604051808303816000875af1158015610be7573d6000803e3d6000fd5b505050506040513d601f19601f82011682018060405250810190610c0b9190612bf2565b506000610c1b8462015180612bb9565b90506000610c298242612c14565b3360009081526006602090815260408083208a8452909152902054909150421015610c7757336000908152600660209081526040808320898452909152902054610c74908390612c14565b90505b3360009081526006602090815260408083208984529091528120829055600b8054859290610ca6908490612c14565b90915550610cb4905061251c565b6040805184815260208101879052879133917facd689fe0bc9dbefee6159adbd0c9ef0f46be29f83a058385005d45881388bcf910160405180910390a3604080518481523360208201527f49e0259d970ee909725cdedb7db23d64059624e6181575b9dd0fc7092f4aafcc910160405180910390a150505050610d376001600055565b5050565b610d436124c7565b610d4b6124f1565b604051633a30f92560e11b8152336004820152602481018290523090637461f24a90604401602060405180830381865afa158015610d8d573d6000803e3d6000fd5b505050506040513d601f19601f82011682018060405250810190610db19190612bf2565b610e095760405162461bcd60e51b8152602060048201526024808201527f496e73756666696369656e7420534f4c41522062616c616e6365206f722061636044820152636365737360e01b6064820152608401610aa4565b6000818152600960205260408120805491610e2383612ba0565b9091555050336000908152600a602090815260408083208484529091528120805491610e4e83612ba0565b9091555050604051819033907f99eb89a418a1671959263204b23efbfd9f0213f778a5138d4de28592e6371bd790600090a3610e8a6001600055565b50565b610e9561249a565b6001600160a01b038116610edd5760405162461bcd60e51b815260206004820152600f60248201526e496e76616c6964206164647265737360881b6044820152606401610aa4565b600d80546001600160a01b0319166001600160a01b03831690811790915560408051818152600691810191909152656d6f7270686f60d01b606082015260208101919091527f165ece555b5310854c532cd54f93d107cca5f267c89f0ff0edf559cbec150b3c906080015b60405180910390a150565b610f5b61249a565b610f6361279f565b565b6000806276a700600c54610f799190612c14565b9050804210610f8a57600091505090565b610f944282612c27565b91505090565b60006276a700600c54610fad9190612c14565b4210158015610fbe57506000600b54115b905090565b610fcb61249a565b610f6360006127f4565b6001600160a01b038216600090815260046020908152604080832084845290915281205460ff161561100957506001611103565b6001600160a01b038316600090815260056020908152604080832085845290915290205442101561103c57506001611103565b6001600160a01b038316600090815260066020908152604080832085845290915290205442101561106f57506001611103565b6040516370a0823160e01b81526001600160a01b038416600482015260009073746042147240304098c837563aaec0f671881b07906370a0823190602401602060405180830381865afa1580156110ca573d6000803e3d6000fd5b505050506040513d601f19601f820116820180604052508101906110ee9190612c3a565b60008481526002602052604090205411159150505b92915050565b61111161249a565b6001600160a01b0381166111595760405162461bcd60e51b815260206004820152600f60248201526e496e76616c6964206164647265737360881b6044820152606401610aa4565b600e80546001600160a01b0319166001600160a01b0383169081179091556040805181815260079181019190915266636f6d70616e7960c81b606082015260208101919091527f165ece555b5310854c532cd54f93d107cca5f267c89f0ff0edf559cbec150b3c90608001610f48565b6111d161249a565b610f63612846565b6111e161249a565b6040516323b872dd60e01b815233600482015261dead60248201526044810183905273746042147240304098c837563aaec0f671881b07906323b872dd906064016020604051808303816000875af1158015611241573d6000803e3d6000fd5b505050506040513d601f19601f820116820180604052508101906112659190612bf2565b5081600760008282546112789190612c14565b90915550506008805490600061128d83612ba0565b91905055507fd92408cbc24732a9457f996472dcdfd7723e5b548a1f0c6991845f2609a719db8282336040516112c593929190612c53565b60405180910390a15050565b6112d961249a565b73746042147240304098c837563aaec0f671881b06196001600160a01b0383160161133e5760405162461bcd60e51b815260206004820152601560248201527421b0b73737ba103bb4ba34323930bb9029a7a620a960591b6044820152606401610aa4565b60405163a9059cbb60e01b8152336004820152602481018290526001600160a01b0383169063a9059cbb906044016020604051808303816000875af115801561138b573d6000803e3d6000fd5b505050506040513d601f19601f820116820180604052508101906113af9190612bf2565b505050565b6113bc61249a565b6001600160a01b0382166000818152600460209081526040808320858452909152808220805460ff19166001179055518392917f722462de87a2f02b3af39c8fb4889409a7978b8bdeaec9f052fdc434ea996f9b91a35050565b6001600160a01b0382166000908152600460209081526040808320848452909152812054606090829060ff16156114745750506040805180820190915260098152681c195c9b585b995b9d60ba1b6020820152600191506000611653565b6001600160a01b03851660009081526005602090815260408083208784529091529020544210156114f0575050506001600160a01b0382166000908152600560209081526040808320848452825291829020548251808401909352600983526874656d706f7261727960b81b9183019190915260019190611653565b6001600160a01b0385166000908152600660209081526040808320878452909152902054421015611567575050506001600160a01b038216600090815260066020908152604080832084845282529182902054825180840190935260048352631c185a5960e21b9183019190915260019190611653565b6040516370a0823160e01b81526001600160a01b038616600482015260009073746042147240304098c837563aaec0f671881b07906370a0823190602401602060405180830381865afa1580156115c2573d6000803e3d6000fd5b505050506040513d601f19601f820116820180604052508101906115e69190612c3a565b60008681526002602052604090205490915080821061162c57505060408051808201909152600581526439b7b630b960d91b602082015260019350915060009050611653565b50506040805180820190915260048152636e6f6e6560e01b60208201526000935091508290505b9250925092565b61166261249a565b611388811115610e8a5760405162461bcd60e51b815260206004820152601160248201527043616e6e6f74206578636565642035302560781b6044820152606401610aa4565b600754600854600b54600c546c01431e0fae6d7217caa0000000939291906000908190819081906116dd906276a70090612c14565b6040516370a0823160e01b815230600482015290945073a0b86a33e6441b8db72c5ab9cbf4428c7bb060b6906370a0823190602401602060405180830381865afa15801561172f573d6000803e3d6000fd5b505050506040513d601f19601f820116820180604052508101906117539190612c3a565b9250600f54915060105490509091929394959697565b61177161249a565b6040516370a0823160e01b815230600482015260009073a0b86a33e6441b8db72c5ab9cbf4428c7bb060b6906370a0823190602401602060405180830381865afa1580156117c3573d6000803e3d6000fd5b505050506040513d601f19601f820116820180604052508101906117e79190612c3a565b90506000811161182e5760405162461bcd60e51b8152602060048201526012602482015271139bc81554d110c81d1bc819195c1bdcda5d60721b6044820152606401610aa4565b600061183b600283612bd0565b905060006118498284612c27565b600d549091506001600160a01b0316158015906118665750600082115b156119e057600d5460405163a9059cbb60e01b81526001600160a01b0390911660048201526024810183905273a0b86a33e6441b8db72c5ab9cbf4428c7bb060b69063a9059cbb906044016020604051808303816000875af11580156118d0573d6000803e3d6000fd5b505050506040513d601f19601f820116820180604052508101906118f49190612bf2565b5081600f60008282546119079190612c14565b9091555050600d54604051602481018490526000916001600160a01b03169060440160408051601f198184030181529181526020820180516001600160e01b03166363ec512d60e01b1790525161195e9190612c84565b6000604051808303816000865af19150503d806000811461199b576040519150601f19603f3d011682016040523d82523d6000602084013e6119a0565b606091505b5050905080156119de576040518381527f136bf5f01d0758622ba886621b1834c6204220ad7fd36f888398706b63b7e2809060200160405180910390a15b505b600e546001600160a01b0316158015906119fa5750600081115b156113af57600e5460405163a9059cbb60e01b81526001600160a01b0390911660048201526024810182905273a0b86a33e6441b8db72c5ab9cbf4428c7bb060b69063a9059cbb906044015b6020604051808303816000875af1158015611a65573d6000803e3d6000fd5b505050506040513d601f19601f82011682018060405250810190611a899190612bf2565b508060106000828254611a9c9190612c14565b90915550506040518181527f6a66e2462c075f6b19f38132b632996aa9e7fef5d6d7c8f06908b05f8a1e26339060200160405180910390a1505050565b611ae16124c7565b6276a700600c54611af29190612c14565b421015611b415760405162461bcd60e51b815260206004820152601c60248201527f546f6f206561726c7920666f7220717561727465726c79206275726e000000006044820152606401610aa4565b6000600b5411611b885760405162461bcd60e51b81526020600482015260126024820152712737903932bb32b73ab2903a3790313ab93760711b6044820152606401610aa4565b6000611b926123fe565b905060008111611be45760405162461bcd60e51b815260206004820152601b60248201527f4e6f20534f4c415220617661696c61626c6520666f72206275726e00000000006044820152606401610aa4565b6040516370a0823160e01b8152306004820152819073746042147240304098c837563aaec0f671881b07906370a0823190602401602060405180830381865afa158015611c35573d6000803e3d6000fd5b505050506040513d601f19601f82011682018060405250810190611c599190612c3a565b10611ce25760405163a9059cbb60e01b815261dead60048201526024810182905273746042147240304098c837563aaec0f671881b079063a9059cbb906044016020604051808303816000875af1158015611cb8573d6000803e3d6000fd5b505050506040513d601f19601f82011682018060405250810190611cdc9190612bf2565b50611d89565b73746042147240304098c837563aaec0f671881b076323b872dd611d0e6001546001600160a01b031690565b6040516001600160e01b031960e084901b1681526001600160a01b03909116600482015261dead6024820152604481018490526064016020604051808303816000875af1158015611d63573d6000803e3d6000fd5b505050506040513d601f19601f82011682018060405250810190611d879190612bf2565b505b8060076000828254611d9b9190612c14565b909155505060088054906000611db083612ba0565b909155505042600c556000600b55604080518281526060602082018190526016908201527528bab0b93a32b9363c903932bb32b73ab290313ab93760511b6080820152338183015290517fd92408cbc24732a9457f996472dcdfd7723e5b548a1f0c6991845f2609a719db9181900360a00190a150610f636001600055565b611e3761249a565b611e418142612c14565b6001600160a01b0384166000818152600560209081526040808320878452825291829020939093555183815284927f4bf5367b54d86733931cbf6be0f2420776f4a453be9bd79ed2e9e849627dbd2a910160405180910390a3505050565b6000818152600360208190526040822054919081908390606490611ec4908390612bb9565b611ecf90605a612bb9565b611ed99190612bd0565b92506064611ee882600c612bb9565b611ef3906050612bb9565b611efd9190612bd0565b93959294505050565b600b54600f546010546040516370a0823160e01b815230600482015260009073a0b86a33e6441b8db72c5ab9cbf4428c7bb060b6906370a0823190602401602060405180830381865afa158015611f61573d6000803e3d6000fd5b505050506040513d601f19601f82011682018060405250810190611f859190612c3a565b905090919293565b611f9561249a565b600082815260036020526040908190208290555182907f4edf5db7303532cd43bd000861f04e61164ccf2ad63f5ee1ddf79f3defbba47d906107b59084815260200190565b6040516370a0823160e01b81526001600160a01b038216600482015260009060609073746042147240304098c837563aaec0f671881b07906370a0823190602401602060405180830381865afa158015612038573d6000803e3d6000fd5b505050506040513d601f19601f8201168201806040525081019061205c9190612c3a565b6040805160078082526101008201909252919350600091906020820160e080368337019050509050707072656d69756d5f616e616c797469637360781b816000815181106120ac576120ac612b74565b60200260200101818152505070637573746f6d5f6d696c6573746f6e657360781b816001815181106120e0576120e0612b74565b6020026020010181815250506f1c1c9a5bdc9a5d1e57dcdd5c1c1bdc9d60821b8160028151811061211357612113612b74565b6020026020010181815250506f616476616e6365645f6a6f75726e657960801b8160038151811061214657612146612b74565b602002602001018181525050696170695f61636365737360b01b8160048151811061217357612173612b74565b6020026020010181815250506b6561726c795f61636365737360a01b816005815181106121a2576121a2612b74565b6020026020010181815250506a1d9a5c17dcdd5c1c1bdc9d60aa1b816006815181106121d0576121d0612b74565b6020026020010181815250506000805b82518110156122aa57306001600160a01b0316637461f24a8785848151811061220b5761220b612b74565b60200260200101516040518363ffffffff1660e01b81526004016122449291906001600160a01b03929092168252602082015260400190565b602060405180830381865afa158015612261573d6000803e3d6000fd5b505050506040513d601f19601f820116820180604052508101906122859190612bf2565b15612298578161229481612ba0565b9250505b806122a281612ba0565b9150506121e0565b508067ffffffffffffffff8111156122c4576122c46129d4565b6040519080825280602002602001820160405280156122ed578160200160208202803683370190505b5092506000805b83518110156123f557306001600160a01b0316637461f24a8886848151811061231f5761231f612b74565b60200260200101516040518363ffffffff1660e01b81526004016123589291906001600160a01b03929092168252602082015260400190565b602060405180830381865afa158015612375573d6000803e3d6000fd5b505050506040513d601f19601f820116820180604052508101906123999190612bf2565b156123e3578381815181106123b0576123b0612b74565b60200260200101518583815181106123ca576123ca612b74565b6020908102919091010152816123df81612ba0565b9250505b806123ed81612ba0565b9150506122f4565b50505050915091565b6000600b546000036124105750600090565b600069d3c21bcecceda1000000905060006127106109c4600b546124349190612bb9565b61243e9190612bd0565b9050620f424061244e8383612bb9565b6124589190612bd0565b9250505090565b61246761249a565b6001600160a01b03811661249157604051631e4fbdf760e01b815260006004820152602401610aa4565b610e8a816127f4565b6001546001600160a01b03163314610f635760405163118cdaa760e01b8152336004820152602401610aa4565b6002600054036124ea57604051633ee5aeb560e01b815260040160405180910390fd5b6002600055565b600154600160a01b900460ff1615610f635760405163d93c066560e01b815260040160405180910390fd5b6040516370a0823160e01b815230600482015260009073a0b86a33e6441b8db72c5ab9cbf4428c7bb060b6906370a0823190602401602060405180830381865afa15801561256e573d6000803e3d6000fd5b505050506040513d601f19601f820116820180604052508101906125929190612c3a565b9050633b9aca008110610e8a5760006125ac600283612bd0565b905060006125ba8284612c27565b600d549091506001600160a01b03161561274357600d5460405163a9059cbb60e01b81526001600160a01b0390911660048201526024810183905273a0b86a33e6441b8db72c5ab9cbf4428c7bb060b69063a9059cbb906044016020604051808303816000875af1158015612633573d6000803e3d6000fd5b505050506040513d601f19601f820116820180604052508101906126579190612bf2565b5081600f600082825461266a9190612c14565b9091555050600d54604051602481018490526000916001600160a01b03169060440160408051601f198184030181529181526020820180516001600160e01b03166363ec512d60e01b179052516126c19190612c84565b6000604051808303816000865af19150503d80600081146126fe576040519150601f19603f3d011682016040523d82523d6000602084013e612703565b606091505b505090508015612741576040518381527f136bf5f01d0758622ba886621b1834c6204220ad7fd36f888398706b63b7e2809060200160405180910390a15b505b600e546001600160a01b0316156113af57600e5460405163a9059cbb60e01b81526001600160a01b0390911660048201526024810182905273a0b86a33e6441b8db72c5ab9cbf4428c7bb060b69063a9059cbb90604401611a46565b6127a7612889565b6001805460ff60a01b191690557f5db9ee0a495bf2e6ff9c91a7834c1ba4fdd244a5e8aa4e537bd38aeae4b073aa335b6040516001600160a01b03909116815260200160405180910390a1565b600180546001600160a01b038381166001600160a01b0319831681179093556040519116919082907f8be0079c531659141344cd1fd0a4f28419497f9722a3daafe3b4186f6b6457e090600090a35050565b61284e6124f1565b6001805460ff60a01b1916600160a01b1790557f62e78cea01bee320cd4e420270b5ea74000d11b0c9f74754ebdbfc544b05a2586127d73390565b600154600160a01b900460ff16610f6357604051638dfc202b60e01b815260040160405180910390fd5b600080604083850312156128c657600080fd5b50508035926020909101359150565b600081518084526020808501945080840160005b83811015612905578151875295820195908201906001016128e9565b509495945050505050565b60608152600061292360608301866128d5565b828103602084015261293581866128d5565b9050828103604084015261294981856128d5565b9695505050505050565b80356001600160a01b038116811461296a57600080fd5b919050565b6000806040838503121561298257600080fd5b61298b83612953565b946020939093013593505050565b6000602082840312156129ab57600080fd5b5035919050565b6000602082840312156129c457600080fd5b6129cd82612953565b9392505050565b634e487b7160e01b600052604160045260246000fd5b600080604083850312156129fd57600080fd5b82359150602083013567ffffffffffffffff80821115612a1c57600080fd5b818501915085601f830112612a3057600080fd5b813581811115612a4257612a426129d4565b604051601f8201601f19908116603f01168101908382118183101715612a6a57612a6a6129d4565b81604052828152886020848701011115612a8357600080fd5b8260208601602083013760006020848301015280955050505050509250929050565b60005b83811015612ac0578181015183820152602001612aa8565b50506000910152565b60008151808452612ae1816020860160208601612aa5565b601f01601f19169290920160200192915050565b8315158152606060208201526000612b106060830185612ac9565b9050826040830152949350505050565b600080600060608486031215612b3557600080fd5b612b3e84612953565b95602085013595506040909401359392505050565b828152604060208201526000612b6c60408301846128d5565b949350505050565b634e487b7160e01b600052603260045260246000fd5b634e487b7160e01b600052601160045260246000fd5b600060018201612bb257612bb2612b8a565b5060010190565b808202811582820484141761110357611103612b8a565b600082612bed57634e487b7160e01b600052601260045260246000fd5b500490565b600060208284031215612c0457600080fd5b815180151581146129cd57600080fd5b8082018082111561110357611103612b8a565b8181038181111561110357611103612b8a565b600060208284031215612c4c57600080fd5b5051919050565b838152606060208201526000612c6c6060830185612ac9565b905060018060a01b0383166040830152949350505050565b60008251612c96818460208701612aa5565b919091019291505056fea2646970667358221220c222e237edcccb0c384f6662ae1ffdbba0995b1a7a015608aa164781aa018ef264736f6c63430008140033","opcodes":"PUSH1 0x80 PUSH1 0x40 MSTORE CALLVALUE DUP1 ISZERO PUSH3 0x11 JUMPI PUSH1 0x0 DUP1 REVERT JUMPDEST POP PUSH1 0x1 PUSH1 0x0 SSTORE CALLER DUP1 PUSH3 0x3E JUMPI PUSH1 0x40 MLOAD PUSH4 0x1E4FBDF7 PUSH1 0xE0 SHL DUP2 MSTORE PUSH1 0x0 PUSH1 0x4 DUP3 ADD MSTORE PUSH1 0x24 ADD PUSH1 0x40 MLOAD DUP1 SWAP2 SUB SWAP1 REVERT JUMPDEST PUSH3 0x49 DUP2 PUSH3 0x2B2 JUMP JUMPDEST POP PUSH11 0x295BE96E64066972000000 PUSH32 0x66EDDAD44C93DD0558E1003B01A4E0F295D66BE36CE25C2CA252D535D56DCEAE DUP2 SWAP1 SSTORE PUSH11 0x7C13BC4B2C133C56000000 PUSH32 0xCDD2E53EEAF18EC5F38F57F24026CF06926C90AB44B092680971DD3E46437B01 SSTORE PUSH11 0x18D0BF423C03D8DE000000 PUSH32 0xFC99C49B7444705C10654F3CC1D41B5B0810F48A0BFEA128A73937BF08DA6386 SSTORE PUSH11 0x52B7D2DCC80CD2E4000000 PUSH32 0x1908DE9901F837E34FBD66076487DA0E278C4F6EC97E479CD8006B0440CED667 SSTORE PUSH11 0xCECB8F27F4200F3A000000 PUSH32 0x5B5E93BD05D85460AA89D9924E0BBF0CD7476E620E1C59F2FC9E174EB48DD2C6 SSTORE PUSH32 0x65DD133504022A712608E61601C53CE7B6E8FE103BEF5F65900F556E5DFE4724 SSTORE PUSH12 0x19D971E4FE8401E74000000 PUSH32 0x37CB908CB033B4672C1CA0DFF40065E9D12BC04FD3D71AF05E8343F92C7F6AB0 SSTORE PUSH1 0x3 PUSH1 0x20 MSTORE PUSH3 0x989680 PUSH32 0x50E5D131F8704D08F1C7B0C20E2B5D1EB15FA4E5F179C8166C3FFF238CDABA00 SSTORE PUSH4 0x17D7840 PUSH32 0xA5D4E37AC8F96777DAE8EA93E91F12703429ECC073338197BBB358A4B1EE3218 SSTORE PUSH3 0xE4E1C0 PUSH32 0xE1DE45E32BBEB60683DF8E30579F8C69AEFD89C311DE407144C23723517FA417 SSTORE PUSH4 0x1312D00 PUSH32 0xEBBD85098ED6FDCDE67BBD8058954ECF09FE582D3D9036F16C17E72BB1AAAC98 SSTORE PUSH4 0x2FAF080 PUSH32 0x7E3DC27ED770AC3838CE1175815A8DE249036C72437BBA7CB83FECC9C30677E5 SSTORE PUSH3 0x4C4B40 PUSH32 0x2B2A34D4683E8E9CC65BD26FF078C83560475C3D0A62B8B64904804CC092F642 SSTORE PUSH11 0x1D9A5C17DCDD5C1C1BDC9D PUSH1 0xAA SHL PUSH1 0x0 MSTORE PUSH4 0x5F5E100 PUSH32 0x936A03BB8D7115A1F01B9926173C4D43C0619779937A3ACCAB08C92C3CD58F3C SSTORE TIMESTAMP PUSH1 0xC SSTORE PUSH3 0x304 JUMP JUMPDEST PUSH1 0x1 DUP1 SLOAD PUSH1 0x1 PUSH1 0x1 PUSH1 0xA0 SHL SUB DUP4 DUP2 AND PUSH1 0x1 PUSH1 0x1 PUSH1 0xA0 SHL SUB NOT DUP4 AND DUP2 OR SWAP1 SWAP4 SSTORE PUSH1 0x40 MLOAD SWAP2 AND SWAP2 SWAP1 DUP3 SWAP1 PUSH32 0x8BE0079C531659141344CD1FD0A4F28419497F9722A3DAAFE3B4186F6B6457E0 SWAP1 PUSH1 0x0 SWAP1 LOG3 POP POP JUMP JUMPDEST PUSH2 0x2CD6 DUP1 PUSH3 0x314 PUSH1 0x0 CODECOPY PUSH1 0x0 RETURN INVALID PUSH1 0x80 PUSH1 0x40 MSTORE CALLVALUE DUP1 ISZERO PUSH2 0x10 JUMPI PUSH1 0x0 DUP1 REVERT JUMPDEST POP PUSH1 0x4 CALLDATASIZE LT PUSH2 0x2F1 JUMPI PUSH1 0x0 CALLDATALOAD PUSH1 0xE0 SHR DUP1 PUSH4 0x95CCEA67 GT PUSH2 0x19D JUMPI DUP1 PUSH4 0xD42CDA58 GT PUSH2 0xE9 JUMPI DUP1 PUSH4 0xE8039EA0 GT PUSH2 0xA2 JUMPI DUP1 PUSH4 0xEEE1E7E5 GT PUSH2 0x7C JUMPI DUP1 PUSH4 0xEEE1E7E5 EQ PUSH2 0x731 JUMPI DUP1 PUSH4 0xF2FDE38B EQ PUSH2 0x739 JUMPI DUP1 PUSH4 0xF5CC4651 EQ PUSH2 0x74C JUMPI DUP1 PUSH4 0xFCCC2813 EQ PUSH2 0x75F JUMPI PUSH1 0x0 DUP1 REVERT JUMPDEST DUP1 PUSH4 0xE8039EA0 EQ PUSH2 0x6F2 JUMPI DUP1 PUSH4 0xE81F097E EQ PUSH2 0x6FD JUMPI DUP1 PUSH4 0xEA0D5DCD EQ PUSH2 0x710 JUMPI PUSH1 0x0 DUP1 REVERT JUMPDEST DUP1 PUSH4 0xD42CDA58 EQ PUSH2 0x657 JUMPI DUP1 PUSH4 0xD89135CD EQ PUSH2 0x677 JUMPI DUP1 PUSH4 0xE001BFBE EQ PUSH2 0x680 JUMPI DUP1 PUSH4 0xE0637B6A EQ PUSH2 0x693 JUMPI DUP1 PUSH4 0xE1D37E60 EQ PUSH2 0x6C1 JUMPI DUP1 PUSH4 0xE3067449 EQ PUSH2 0x6E9 JUMPI PUSH1 0x0 DUP1 REVERT JUMPDEST DUP1 PUSH4 0xC3412CAB GT PUSH2 0x156 JUMPI DUP1 PUSH4 0xC9715A2F GT PUSH2 0x130 JUMPI DUP1 PUSH4 0xC9715A2F EQ PUSH2 0x5EE JUMPI DUP1 PUSH4 0xCC58BCDF EQ PUSH2 0x619 JUMPI DUP1 PUSH4 0xCF3B52BE EQ PUSH2 0x647 JUMPI DUP1 PUSH4 0xD02FD823 EQ PUSH2 0x64F JUMPI PUSH1 0x0 DUP1 REVERT JUMPDEST DUP1 PUSH4 0xC3412CAB EQ PUSH2 0x58F JUMPI DUP1 PUSH4 0xC3F0D327 EQ PUSH2 0x598 JUMPI DUP1 PUSH4 0xC59D4847 EQ PUSH2 0x5AB JUMPI PUSH1 0x0 DUP1 REVERT JUMPDEST DUP1 PUSH4 0x95CCEA67 EQ PUSH2 0x51A JUMPI DUP1 PUSH4 0x9649B910 EQ PUSH2 0x52D JUMPI DUP1 PUSH4 0xAD8EA4B6 EQ PUSH2 0x536 JUMPI DUP1 PUSH4 0xBA5F1384 EQ PUSH2 0x549 JUMPI DUP1 PUSH4 0xBDA064EB EQ PUSH2 0x56B JUMPI DUP1 PUSH4 0xBF2D9E0B EQ PUSH2 0x586 JUMPI PUSH1 0x0 DUP1 REVERT JUMPDEST DUP1 PUSH4 0x5A1AB780 GT PUSH2 0x25C JUMPI DUP1 PUSH4 0x7461F24A GT PUSH2 0x215 JUMPI DUP1 PUSH4 0x8456CB59 GT PUSH2 0x1EF JUMPI DUP1 PUSH4 0x8456CB59 EQ PUSH2 0x4D3 JUMPI DUP1 PUSH4 0x854CA169 EQ PUSH2 0x4DB JUMPI DUP1 PUSH4 0x89A30271 EQ PUSH2 0x4EE JUMPI DUP1 PUSH4 0x8DA5CB5B EQ PUSH2 0x509 JUMPI PUSH1 0x0 DUP1 REVERT JUMPDEST DUP1 PUSH4 0x7461F24A EQ PUSH2 0x4A3 JUMPI DUP1 PUSH4 0x74771329 EQ PUSH2 0x4B6 JUMPI DUP1 PUSH4 0x7B1648E2 EQ PUSH2 0x4C9 JUMPI PUSH1 0x0 DUP1 REVERT JUMPDEST DUP1 PUSH4 0x5A1AB780 EQ PUSH2 0x439 JUMPI DUP1 PUSH4 0x5BA091C8 EQ PUSH2 0x441 JUMPI DUP1 PUSH4 0x5C975ABB EQ PUSH2 0x46C JUMPI DUP1 PUSH4 0x5CA974A7 EQ PUSH2 0x48A JUMPI DUP1 PUSH4 0x685789CC EQ PUSH2 0x492 JUMPI DUP1 PUSH4 0x715018A6 EQ PUSH2 0x49B JUMPI PUSH1 0x0 DUP1 REVERT JUMPDEST DUP1 PUSH4 0x28C582A3 GT PUSH2 0x2AE JUMPI DUP1 PUSH4 0x28C582A3 EQ PUSH2 0x3AA JUMPI DUP1 PUSH4 0x2AE6FCE5 EQ PUSH2 0x3CA JUMPI DUP1 PUSH4 0x37F9A42F EQ PUSH2 0x3DD JUMPI DUP1 PUSH4 0x3B660AAA EQ PUSH2 0x3FD JUMPI DUP1 PUSH4 0x3F4BA83A EQ PUSH2 0x406 JUMPI DUP1 PUSH4 0x40DD0F70 EQ PUSH2 0x40E JUMPI PUSH1 0x0 DUP1 REVERT JUMPDEST DUP1 PUSH4 0xA43948E EQ PUSH2 0x2F6 JUMPI DUP1 PUSH4 0x13AE8972 EQ PUSH2 0x30B JUMPI DUP1 PUSH4 0x183973DF EQ PUSH2 0x32B JUMPI DUP1 PUSH4 0x18F59140 EQ PUSH2 0x33E JUMPI DUP1 PUSH4 0x1D295070 EQ PUSH2 0x377 JUMPI DUP1 PUSH4 0x23409A28 EQ PUSH2 0x397 JUMPI JUMPDEST PUSH1 0x0 DUP1 REVERT JUMPDEST PUSH2 0x309 PUSH2 0x304 CALLDATASIZE PUSH1 0x4 PUSH2 0x28B3 JUMP JUMPDEST PUSH2 0x768 JUMP JUMPDEST STOP JUMPDEST PUSH2 0x313 PUSH2 0x7C1 JUMP JUMPDEST PUSH1 0x40 MLOAD PUSH2 0x322 SWAP4 SWAP3 SWAP2 SWAP1 PUSH2 0x2910 JUMP JUMPDEST PUSH1 0x40 MLOAD DUP1 SWAP2 SUB SWAP1 RETURN JUMPDEST PUSH2 0x309 PUSH2 0x339 CALLDATASIZE PUSH1 0x4 PUSH2 0x28B3 JUMP JUMPDEST PUSH2 0xA3E JUMP JUMPDEST PUSH2 0x369 PUSH2 0x34C CALLDATASIZE PUSH1 0x4 PUSH2 0x296F JUMP JUMPDEST PUSH1 0x6 PUSH1 0x20 SWAP1 DUP2 MSTORE PUSH1 0x0 SWAP3 DUP4 MSTORE PUSH1 0x40 DUP1 DUP5 KECCAK256 SWAP1 SWAP2 MSTORE SWAP1 DUP3 MSTORE SWAP1 KECCAK256 SLOAD DUP2 JUMP JUMPDEST PUSH1 0x40 MLOAD SWAP1 DUP2 MSTORE PUSH1 0x20 ADD PUSH2 0x322 JUMP JUMPDEST PUSH2 0x369 PUSH2 0x385 CALLDATASIZE PUSH1 0x4 PUSH2 0x2999 JUMP JUMPDEST PUSH1 0x3 PUSH1 0x20 MSTORE PUSH1 0x0 SWAP1 DUP2 MSTORE PUSH1 0x40 SWAP1 KECCAK256 SLOAD DUP2 JUMP JUMPDEST PUSH2 0x309 PUSH2 0x3A5 CALLDATASIZE PUSH1 0x4 PUSH2 0x2999 JUMP JUMPDEST PUSH2 0xD3B JUMP JUMPDEST PUSH2 0x369 PUSH2 0x3B8 CALLDATASIZE PUSH1 0x4 PUSH2 0x2999 JUMP JUMPDEST PUSH1 0x0 SWAP1 DUP2 MSTORE PUSH1 0x2 PUSH1 0x20 MSTORE PUSH1 0x40 SWAP1 KECCAK256 SLOAD SWAP1 JUMP JUMPDEST PUSH2 0x309 PUSH2 0x3D8 CALLDATASIZE PUSH1 0x4 PUSH2 0x29B2 JUMP JUMPDEST PUSH2 0xE8D JUMP JUMPDEST PUSH2 0x369 PUSH2 0x3EB CALLDATASIZE PUSH1 0x4 PUSH2 0x2999 JUMP JUMPDEST PUSH1 0x2 PUSH1 0x20 MSTORE PUSH1 0x0 SWAP1 DUP2 MSTORE PUSH1 0x40 SWAP1 KECCAK256 SLOAD DUP2 JUMP JUMPDEST PUSH2 0x369 PUSH1 0x8 SLOAD DUP2 JUMP JUMPDEST PUSH2 0x309 PUSH2 0xF53 JUMP JUMPDEST PUSH2 0x369 PUSH2 0x41C CALLDATASIZE PUSH1 0x4 PUSH2 0x296F JUMP JUMPDEST PUSH1 0x5 PUSH1 0x20 SWAP1 DUP2 MSTORE PUSH1 0x0 SWAP3 DUP4 MSTORE PUSH1 0x40 DUP1 DUP5 KECCAK256 SWAP1 SWAP2 MSTORE SWAP1 DUP3 MSTORE SWAP1 KECCAK256 SLOAD DUP2 JUMP JUMPDEST PUSH2 0x369 PUSH2 0xF65 JUMP JUMPDEST PUSH1 0xE SLOAD PUSH2 0x454 SWAP1 PUSH1 0x1 PUSH1 0x1 PUSH1 0xA0 SHL SUB AND DUP2 JUMP JUMPDEST PUSH1 0x40 MLOAD PUSH1 0x1 PUSH1 0x1 PUSH1 0xA0 SHL SUB SWAP1 SWAP2 AND DUP2 MSTORE PUSH1 0x20 ADD PUSH2 0x322 JUMP JUMPDEST PUSH1 0x1 SLOAD PUSH1 0x1 PUSH1 0xA0 SHL SWAP1 DIV PUSH1 0xFF AND JUMPDEST PUSH1 0x40 MLOAD SWAP1 ISZERO ISZERO DUP2 MSTORE PUSH1 0x20 ADD PUSH2 0x322 JUMP JUMPDEST PUSH2 0x47A PUSH2 0xF9A JUMP JUMPDEST PUSH2 0x369 PUSH1 0xF SLOAD DUP2 JUMP JUMPDEST PUSH2 0x309 PUSH2 0xFC3 JUMP JUMPDEST PUSH2 0x47A PUSH2 0x4B1 CALLDATASIZE PUSH1 0x4 PUSH2 0x296F JUMP JUMPDEST PUSH2 0xFD5 JUMP JUMPDEST PUSH2 0x309 PUSH2 0x4C4 CALLDATASIZE PUSH1 0x4 PUSH2 0x29B2 JUMP JUMPDEST PUSH2 0x1109 JUMP JUMPDEST PUSH2 0x369 PUSH3 0x76A700 DUP2 JUMP JUMPDEST PUSH2 0x309 PUSH2 0x11C9 JUMP JUMPDEST PUSH2 0x309 PUSH2 0x4E9 CALLDATASIZE PUSH1 0x4 PUSH2 0x29EA JUMP JUMPDEST PUSH2 0x11D9 JUMP JUMPDEST PUSH2 0x454 PUSH20 0xA0B86A33E6441B8DB72C5AB9CBF4428C7BB060B6 DUP2 JUMP JUMPDEST PUSH1 0x1 SLOAD PUSH1 0x1 PUSH1 0x1 PUSH1 0xA0 SHL SUB AND PUSH2 0x454 JUMP JUMPDEST PUSH2 0x309 PUSH2 0x528 CALLDATASIZE PUSH1 0x4 PUSH2 0x296F JUMP JUMPDEST PUSH2 0x12D1 JUMP JUMPDEST PUSH2 0x369 PUSH2 0x9C4 DUP2 JUMP JUMPDEST PUSH2 0x309 PUSH2 0x544 CALLDATASIZE PUSH1 0x4 PUSH2 0x296F JUMP JUMPDEST PUSH2 0x13B4 JUMP JUMPDEST PUSH2 0x55C PUSH2 0x557 CALLDATASIZE PUSH1 0x4 PUSH2 0x296F JUMP JUMPDEST PUSH2 0x1416 JUMP JUMPDEST PUSH1 0x40 MLOAD PUSH2 0x322 SWAP4 SWAP3 SWAP2 SWAP1 PUSH2 0x2AF5 JUMP JUMPDEST PUSH2 0x454 PUSH20 0x746042147240304098C837563AAEC0F671881B07 DUP2 JUMP JUMPDEST PUSH2 0x369 PUSH1 0xB SLOAD DUP2 JUMP JUMPDEST PUSH2 0x369 PUSH1 0x10 SLOAD DUP2 JUMP JUMPDEST PUSH2 0x309 PUSH2 0x5A6 CALLDATASIZE PUSH1 0x4 PUSH2 0x2999 JUMP JUMPDEST PUSH2 0x165A JUMP JUMPDEST PUSH2 0x5B3 PUSH2 0x16A8 JUMP JUMPDEST PUSH1 0x40 DUP1 MLOAD SWAP9 DUP10 MSTORE PUSH1 0x20 DUP10 ADD SWAP8 SWAP1 SWAP8 MSTORE SWAP6 DUP8 ADD SWAP5 SWAP1 SWAP5 MSTORE PUSH1 0x60 DUP7 ADD SWAP3 SWAP1 SWAP3 MSTORE PUSH1 0x80 DUP6 ADD MSTORE PUSH1 0xA0 DUP5 ADD MSTORE PUSH1 0xC0 DUP4 ADD MSTORE PUSH1 0xE0 DUP3 ADD MSTORE PUSH2 0x100 ADD PUSH2 0x322 JUMP JUMPDEST PUSH2 0x369 PUSH2 0x5FC CALLDATASIZE PUSH1 0x4 PUSH2 0x296F JUMP JUMPDEST PUSH1 0xA PUSH1 0x20 SWAP1 DUP2 MSTORE PUSH1 0x0 SWAP3 DUP4 MSTORE PUSH1 0x40 DUP1 DUP5 KECCAK256 SWAP1 SWAP2 MSTORE SWAP1 DUP3 MSTORE SWAP1 KECCAK256 SLOAD DUP2 JUMP JUMPDEST PUSH2 0x47A PUSH2 0x627 CALLDATASIZE PUSH1 0x4 PUSH2 0x296F JUMP JUMPDEST PUSH1 0x4 PUSH1 0x20 SWAP1 DUP2 MSTORE PUSH1 0x0 SWAP3 DUP4 MSTORE PUSH1 0x40 DUP1 DUP5 KECCAK256 SWAP1 SWAP2 MSTORE SWAP1 DUP3 MSTORE SWAP1 KECCAK256 SLOAD PUSH1 0xFF AND DUP2 JUMP JUMPDEST PUSH2 0x309 PUSH2 0x1769 JUMP JUMPDEST PUSH2 0x309 PUSH2 0x1AD9 JUMP JUMPDEST PUSH2 0x369 PUSH2 0x665 CALLDATASIZE PUSH1 0x4 PUSH2 0x2999 JUMP JUMPDEST PUSH1 0x9 PUSH1 0x20 MSTORE PUSH1 0x0 SWAP1 DUP2 MSTORE PUSH1 0x40 SWAP1 KECCAK256 SLOAD DUP2 JUMP JUMPDEST PUSH2 0x369 PUSH1 0x7 SLOAD DUP2 JUMP JUMPDEST PUSH2 0x309 PUSH2 0x68E CALLDATASIZE PUSH1 0x4 PUSH2 0x2B20 JUMP JUMPDEST PUSH2 0x1E2F JUMP JUMPDEST PUSH2 0x6A6 PUSH2 0x6A1 CALLDATASIZE PUSH1 0x4 PUSH2 0x2999 JUMP JUMPDEST PUSH2 0x1E9F JUMP JUMPDEST PUSH1 0x40 DUP1 MLOAD SWAP4 DUP5 MSTORE PUSH1 0x20 DUP5 ADD SWAP3 SWAP1 SWAP3 MSTORE SWAP1 DUP3 ADD MSTORE PUSH1 0x60 ADD PUSH2 0x322 JUMP JUMPDEST PUSH2 0x6C9 PUSH2 0x1F06 JUMP JUMPDEST PUSH1 0x40 DUP1 MLOAD SWAP5 DUP6 MSTORE PUSH1 0x20 DUP6 ADD SWAP4 SWAP1 SWAP4 MSTORE SWAP2 DUP4 ADD MSTORE PUSH1 0x60 DUP3 ADD MSTORE PUSH1 0x80 ADD PUSH2 0x322 JUMP JUMPDEST PUSH2 0x369 PUSH1 0xC SLOAD DUP2 JUMP JUMPDEST PUSH2 0x369 PUSH4 0x3B9ACA00 DUP2 JUMP JUMPDEST PUSH2 0x309 PUSH2 0x70B CALLDATASIZE PUSH1 0x4 PUSH2 0x28B3 JUMP JUMPDEST PUSH2 0x1F8D JUMP JUMPDEST PUSH2 0x723 PUSH2 0x71E CALLDATASIZE PUSH1 0x4 PUSH2 0x29B2 JUMP JUMPDEST PUSH2 0x1FDA JUMP JUMPDEST PUSH1 0x40 MLOAD PUSH2 0x322 SWAP3 SWAP2 SWAP1 PUSH2 0x2B53 JUMP JUMPDEST PUSH2 0x369 PUSH2 0x23FE JUMP JUMPDEST PUSH2 0x309 PUSH2 0x747 CALLDATASIZE PUSH1 0x4 PUSH2 0x29B2 JUMP JUMPDEST PUSH2 0x245F JUMP JUMPDEST PUSH1 0xD SLOAD PUSH2 0x454 SWAP1 PUSH1 0x1 PUSH1 0x1 PUSH1 0xA0 SHL SUB AND DUP2 JUMP JUMPDEST PUSH2 0x454 PUSH2 0xDEAD DUP2 JUMP JUMPDEST PUSH2 0x770 PUSH2 0x249A JUMP JUMPDEST PUSH1 0x0 DUP3 DUP2 MSTORE PUSH1 0x2 PUSH1 0x20 MSTORE PUSH1 0x40 SWAP1 DUP2 SWAP1 KECCAK256 DUP3 SWAP1 SSTORE MLOAD DUP3 SWAP1 PUSH32 0xC628B3CD4DAAD3E8DCBB2074DB3F9716BECC87D652D843C4447064F2E9F9DD42 SWAP1 PUSH2 0x7B5 SWAP1 DUP5 DUP2 MSTORE PUSH1 0x20 ADD SWAP1 JUMP JUMPDEST PUSH1 0x40 MLOAD DUP1 SWAP2 SUB SWAP1 LOG2 POP POP JUMP JUMPDEST PUSH1 0x40 DUP1 MLOAD PUSH1 0x7 DUP1 DUP3 MSTORE PUSH2 0x100 DUP3 ADD SWAP1 SWAP3 MSTORE PUSH1 0x60 SWAP2 DUP3 SWAP2 DUP3 SWAP2 PUSH1 0x20 DUP3 ADD PUSH1 0xE0 DUP1 CALLDATASIZE DUP4 CALLDATACOPY POP POP PUSH1 0x40 DUP1 MLOAD PUSH1 0x7 DUP1 DUP3 MSTORE PUSH2 0x100 DUP3 ADD SWAP1 SWAP3 MSTORE SWAP3 SWAP6 POP SWAP1 POP PUSH1 0x20 DUP3 ADD PUSH1 0xE0 DUP1 CALLDATASIZE DUP4 CALLDATACOPY POP POP PUSH1 0x40 DUP1 MLOAD PUSH1 0x7 DUP1 DUP3 MSTORE PUSH2 0x100 DUP3 ADD SWAP1 SWAP3 MSTORE SWAP3 SWAP5 POP SWAP1 POP PUSH1 0x20 DUP3 ADD PUSH1 0xE0 DUP1 CALLDATASIZE DUP4 CALLDATACOPY ADD SWAP1 POP POP SWAP1 POP PUSH17 0x7072656D69756D5F616E616C7974696373 PUSH1 0x78 SHL DUP4 PUSH1 0x0 DUP2 MLOAD DUP2 LT PUSH2 0x855 JUMPI PUSH2 0x855 PUSH2 0x2B74 JUMP JUMPDEST PUSH1 0x20 MUL PUSH1 0x20 ADD ADD DUP2 DUP2 MSTORE POP POP PUSH17 0x637573746F6D5F6D696C6573746F6E6573 PUSH1 0x78 SHL DUP4 PUSH1 0x1 DUP2 MLOAD DUP2 LT PUSH2 0x889 JUMPI PUSH2 0x889 PUSH2 0x2B74 JUMP JUMPDEST PUSH1 0x20 MUL PUSH1 0x20 ADD ADD DUP2 DUP2 MSTORE POP POP PUSH16 0x1C1C9A5BDC9A5D1E57DCDD5C1C1BDC9D PUSH1 0x82 SHL DUP4 PUSH1 0x2 DUP2 MLOAD DUP2 LT PUSH2 0x8BC JUMPI PUSH2 0x8BC PUSH2 0x2B74 JUMP JUMPDEST PUSH1 0x20 MUL PUSH1 0x20 ADD ADD DUP2 DUP2 MSTORE POP POP PUSH16 0x616476616E6365645F6A6F75726E6579 PUSH1 0x80 SHL DUP4 PUSH1 0x3 DUP2 MLOAD DUP2 LT PUSH2 0x8EF JUMPI PUSH2 0x8EF PUSH2 0x2B74 JUMP JUMPDEST PUSH1 0x20 MUL PUSH1 0x20 ADD ADD DUP2 DUP2 MSTORE POP POP PUSH10 0x6170695F616363657373 PUSH1 0xB0 SHL DUP4 PUSH1 0x4 DUP2 MLOAD DUP2 LT PUSH2 0x91C JUMPI PUSH2 0x91C PUSH2 0x2B74 JUMP JUMPDEST PUSH1 0x20 MUL PUSH1 0x20 ADD ADD DUP2 DUP2 MSTORE POP POP PUSH12 0x6561726C795F616363657373 PUSH1 0xA0 SHL DUP4 PUSH1 0x5 DUP2 MLOAD DUP2 LT PUSH2 0x94B JUMPI PUSH2 0x94B PUSH2 0x2B74 JUMP JUMPDEST PUSH1 0x20 MUL PUSH1 0x20 ADD ADD DUP2 DUP2 MSTORE POP POP PUSH11 0x1D9A5C17DCDD5C1C1BDC9D PUSH1 0xAA SHL DUP4 PUSH1 0x6 DUP2 MLOAD DUP2 LT PUSH2 0x979 JUMPI PUSH2 0x979 PUSH2 0x2B74 JUMP JUMPDEST PUSH1 0x20 MUL PUSH1 0x20 ADD ADD DUP2 DUP2 MSTORE POP POP PUSH1 0x0 JUMPDEST DUP4 MLOAD DUP2 LT ISZERO PUSH2 0xA38 JUMPI PUSH1 0x2 PUSH1 0x0 DUP6 DUP4 DUP2 MLOAD DUP2 LT PUSH2 0x9A7 JUMPI PUSH2 0x9A7 PUSH2 0x2B74 JUMP JUMPDEST PUSH1 0x20 MUL PUSH1 0x20 ADD ADD MLOAD DUP2 MSTORE PUSH1 0x20 ADD SWAP1 DUP2 MSTORE PUSH1 0x20 ADD PUSH1 0x0 KECCAK256 SLOAD DUP4 DUP3 DUP2 MLOAD DUP2 LT PUSH2 0x9D0 JUMPI PUSH2 0x9D0 PUSH2 0x2B74 JUMP JUMPDEST PUSH1 0x20 MUL PUSH1 0x20 ADD ADD DUP2 DUP2 MSTORE POP POP PUSH1 0x3 PUSH1 0x0 DUP6 DUP4 DUP2 MLOAD DUP2 LT PUSH2 0x9F2 JUMPI PUSH2 0x9F2 PUSH2 0x2B74 JUMP JUMPDEST PUSH1 0x20 MUL PUSH1 0x20 ADD ADD MLOAD DUP2 MSTORE PUSH1 0x20 ADD SWAP1 DUP2 MSTORE PUSH1 0x20 ADD PUSH1 0x0 KECCAK256 SLOAD DUP3 DUP3 DUP2 MLOAD DUP2 LT PUSH2 0xA1B JUMPI PUSH2 0xA1B PUSH2 0x2B74 JUMP JUMPDEST PUSH1 0x20 SWAP1 DUP2 MUL SWAP2 SWAP1 SWAP2 ADD ADD MSTORE DUP1 PUSH2 0xA30 DUP2 PUSH2 0x2BA0 JUMP JUMPDEST SWAP2 POP POP PUSH2 0x988 JUMP JUMPDEST POP SWAP1 SWAP2 SWAP3 JUMP JUMPDEST PUSH2 0xA46 PUSH2 0x24C7 JUMP JUMPDEST PUSH2 0xA4E PUSH2 0x24F1 JUMP JUMPDEST DUP1 PUSH1 0x1E EQ DUP1 PUSH2 0xA5D JUMPI POP DUP1 PUSH1 0x5A EQ JUMPDEST DUP1 PUSH2 0xA69 JUMPI POP DUP1 PUSH2 0x16D EQ JUMPDEST PUSH2 0xAAD JUMPI PUSH1 0x40 MLOAD PUSH3 0x461BCD PUSH1 0xE5 SHL DUP2 MSTORE PUSH1 0x20 PUSH1 0x4 DUP3 ADD MSTORE PUSH1 0x10 PUSH1 0x24 DUP3 ADD MSTORE PUSH16 0x24B73B30B634B210323AB930BA34B7B7 PUSH1 0x81 SHL PUSH1 0x44 DUP3 ADD MSTORE PUSH1 0x64 ADD JUMPDEST PUSH1 0x40 MLOAD DUP1 SWAP2 SUB SWAP1 REVERT JUMPDEST PUSH1 0x0 DUP3 DUP2 MSTORE PUSH1 0x3 PUSH1 0x20 MSTORE PUSH1 0x40 SWAP1 KECCAK256 SLOAD PUSH2 0xB13 JUMPI PUSH1 0x40 MLOAD PUSH3 0x461BCD PUSH1 0xE5 SHL DUP2 MSTORE PUSH1 0x20 PUSH1 0x4 DUP3 ADD MSTORE PUSH1 0x22 PUSH1 0x24 DUP3 ADD MSTORE PUSH32 0x46656174757265206E6F7420617661696C61626C6520666F7220707572636861 PUSH1 0x44 DUP3 ADD MSTORE PUSH2 0x7365 PUSH1 0xF0 SHL PUSH1 0x64 DUP3 ADD MSTORE PUSH1 0x84 ADD PUSH2 0xAA4 JUMP JUMPDEST PUSH1 0x0 DUP3 DUP2 MSTORE PUSH1 0x3 PUSH1 0x20 MSTORE PUSH1 0x40 DUP2 KECCAK256 SLOAD SWAP1 PUSH1 0x1E DUP4 SWAP1 SUB PUSH2 0xB33 JUMPI POP DUP1 PUSH2 0xB89 JUMP JUMPDEST DUP3 PUSH1 0x5A SUB PUSH2 0xB64 JUMPI PUSH1 0x64 PUSH2 0xB48 DUP4 PUSH1 0x3 PUSH2 0x2BB9 JUMP JUMPDEST PUSH2 0xB53 SWAP1 PUSH1 0x5A PUSH2 0x2BB9 JUMP JUMPDEST PUSH2 0xB5D SWAP2 SWAP1 PUSH2 0x2BD0 JUMP JUMPDEST SWAP1 POP PUSH2 0xB89 JUMP JUMPDEST PUSH1 0x64 PUSH2 0xB71 DUP4 PUSH1 0xC PUSH2 0x2BB9 JUMP JUMPDEST PUSH2 0xB7C SWAP1 PUSH1 0x50 PUSH2 0x2BB9 JUMP JUMPDEST PUSH2 0xB86 SWAP2 SWAP1 PUSH2 0x2BD0 JUMP JUMPDEST SWAP1 POP JUMPDEST PUSH1 0x40 MLOAD PUSH4 0x23B872DD PUSH1 0xE0 SHL DUP2 MSTORE CALLER PUSH1 0x4 DUP3 ADD MSTORE ADDRESS PUSH1 0x24 DUP3 ADD MSTORE PUSH1 0x44 DUP2 ADD DUP3 SWAP1 MSTORE PUSH20 0xA0B86A33E6441B8DB72C5AB9CBF4428C7BB060B6 SWAP1 PUSH4 0x23B872DD SWAP1 PUSH1 0x64 ADD PUSH1 0x20 PUSH1 0x40 MLOAD DUP1 DUP4 SUB DUP2 PUSH1 0x0 DUP8 GAS CALL ISZERO DUP1 ISZERO PUSH2 0xBE7 JUMPI RETURNDATASIZE PUSH1 0x0 DUP1 RETURNDATACOPY RETURNDATASIZE PUSH1 0x0 REVERT JUMPDEST POP POP POP POP PUSH1 0x40 MLOAD RETURNDATASIZE PUSH1 0x1F NOT PUSH1 0x1F DUP3 ADD AND DUP3 ADD DUP1 PUSH1 0x40 MSTORE POP DUP2 ADD SWAP1 PUSH2 0xC0B SWAP2 SWAP1 PUSH2 0x2BF2 JUMP JUMPDEST POP PUSH1 0x0 PUSH2 0xC1B DUP5 PUSH3 0x15180 PUSH2 0x2BB9 JUMP JUMPDEST SWAP1 POP PUSH1 0x0 PUSH2 0xC29 DUP3 TIMESTAMP PUSH2 0x2C14 JUMP JUMPDEST CALLER PUSH1 0x0 SWAP1 DUP2 MSTORE PUSH1 0x6 PUSH1 0x20 SWAP1 DUP2 MSTORE PUSH1 0x40 DUP1 DUP4 KECCAK256 DUP11 DUP5 MSTORE SWAP1 SWAP2 MSTORE SWAP1 KECCAK256 SLOAD SWAP1 SWAP2 POP TIMESTAMP LT ISZERO PUSH2 0xC77 JUMPI CALLER PUSH1 0x0 SWAP1 DUP2 MSTORE PUSH1 0x6 PUSH1 0x20 SWAP1 DUP2 MSTORE PUSH1 0x40 DUP1 DUP4 KECCAK256 DUP10 DUP5 MSTORE SWAP1 SWAP2 MSTORE SWAP1 KECCAK256 SLOAD PUSH2 0xC74 SWAP1 DUP4 SWAP1 PUSH2 0x2C14 JUMP JUMPDEST SWAP1 POP JUMPDEST CALLER PUSH1 0x0 SWAP1 DUP2 MSTORE PUSH1 0x6 PUSH1 0x20 SWAP1 DUP2 MSTORE PUSH1 0x40 DUP1 DUP4 KECCAK256 DUP10 DUP5 MSTORE SWAP1 SWAP2 MSTORE DUP2 KECCAK256 DUP3 SWAP1 SSTORE PUSH1 0xB DUP1 SLOAD DUP6 SWAP3 SWAP1 PUSH2 0xCA6 SWAP1 DUP5 SWAP1 PUSH2 0x2C14 JUMP JUMPDEST SWAP1 SWAP2 SSTORE POP PUSH2 0xCB4 SWAP1 POP PUSH2 0x251C JUMP JUMPDEST PUSH1 0x40 DUP1 MLOAD DUP5 DUP2 MSTORE PUSH1 0x20 DUP2 ADD DUP8 SWAP1 MSTORE DUP8 SWAP2 CALLER SWAP2 PUSH32 0xACD689FE0BC9DBEFEE6159ADBD0C9EF0F46BE29F83A058385005D45881388BCF SWAP2 ADD PUSH1 0x40 MLOAD DUP1 SWAP2 SUB SWAP1 LOG3 PUSH1 0x40 DUP1 MLOAD DUP5 DUP2 MSTORE CALLER PUSH1 0x20 DUP3 ADD MSTORE PUSH32 0x49E0259D970EE909725CDEDB7DB23D64059624E6181575B9DD0FC7092F4AAFCC SWAP2 ADD PUSH1 0x40 MLOAD DUP1 SWAP2 SUB SWAP1 LOG1 POP POP POP POP PUSH2 0xD37 PUSH1 0x1 PUSH1 0x0 SSTORE JUMP JUMPDEST POP POP JUMP JUMPDEST PUSH2 0xD43 PUSH2 0x24C7 JUMP JUMPDEST PUSH2 0xD4B PUSH2 0x24F1 JUMP JUMPDEST PUSH1 0x40 MLOAD PUSH4 0x3A30F925 PUSH1 0xE1 SHL DUP2 MSTORE CALLER PUSH1 0x4 DUP3 ADD MSTORE PUSH1 0x24 DUP2 ADD DUP3 SWAP1 MSTORE ADDRESS SWAP1 PUSH4 0x7461F24A SWAP1 PUSH1 0x44 ADD PUSH1 0x20 PUSH1 0x40 MLOAD DUP1 DUP4 SUB DUP2 DUP7 GAS STATICCALL ISZERO DUP1 ISZERO PUSH2 0xD8D JUMPI RETURNDATASIZE PUSH1 0x0 DUP1 RETURNDATACOPY RETURNDATASIZE PUSH1 0x0 REVERT JUMPDEST POP POP POP POP PUSH1 0x40 MLOAD RETURNDATASIZE PUSH1 0x1F NOT PUSH1 0x1F DUP3 ADD AND DUP3 ADD DUP1 PUSH1 0x40 MSTORE POP DUP2 ADD SWAP1 PUSH2 0xDB1 SWAP2 SWAP1 PUSH2 0x2BF2 JUMP JUMPDEST PUSH2 0xE09 JUMPI PUSH1 0x40 MLOAD PUSH3 0x461BCD PUSH1 0xE5 SHL DUP2 MSTORE PUSH1 0x20 PUSH1 0x4 DUP3 ADD MSTORE PUSH1 0x24 DUP1 DUP3 ADD MSTORE PUSH32 0x496E73756666696369656E7420534F4C41522062616C616E6365206F72206163 PUSH1 0x44 DUP3 ADD MSTORE PUSH4 0x63657373 PUSH1 0xE0 SHL PUSH1 0x64 DUP3 ADD MSTORE PUSH1 0x84 ADD PUSH2 0xAA4 JUMP JUMPDEST PUSH1 0x0 DUP2 DUP2 MSTORE PUSH1 0x9 PUSH1 0x20 MSTORE PUSH1 0x40 DUP2 KECCAK256 DUP1 SLOAD SWAP2 PUSH2 0xE23 DUP4 PUSH2 0x2BA0 JUMP JUMPDEST SWAP1 SWAP2 SSTORE POP POP CALLER PUSH1 0x0 SWAP1 DUP2 MSTORE PUSH1 0xA PUSH1 0x20 SWAP1 DUP2 MSTORE PUSH1 0x40 DUP1 DUP4 KECCAK256 DUP5 DUP5 MSTORE SWAP1 SWAP2 MSTORE DUP2 KECCAK256 DUP1 SLOAD SWAP2 PUSH2 0xE4E DUP4 PUSH2 0x2BA0 JUMP JUMPDEST SWAP1 SWAP2 SSTORE POP POP PUSH1 0x40 MLOAD DUP2 SWAP1 CALLER SWAP1 PUSH32 0x99EB89A418A1671959263204B23EFBFD9F0213F778A5138D4DE28592E6371BD7 SWAP1 PUSH1 0x0 SWAP1 LOG3 PUSH2 0xE8A PUSH1 0x1 PUSH1 0x0 SSTORE JUMP JUMPDEST POP JUMP JUMPDEST PUSH2 0xE95 PUSH2 0x249A JUMP JUMPDEST PUSH1 0x1 PUSH1 0x1 PUSH1 0xA0 SHL SUB DUP2 AND PUSH2 0xEDD JUMPI PUSH1 0x40 MLOAD PUSH3 0x461BCD PUSH1 0xE5 SHL DUP2 MSTORE PUSH1 0x20 PUSH1 0x4 DUP3 ADD MSTORE PUSH1 0xF PUSH1 0x24 DUP3 ADD MSTORE PUSH15 0x496E76616C69642061646472657373 PUSH1 0x88 SHL PUSH1 0x44 DUP3 ADD MSTORE PUSH1 0x64 ADD PUSH2 0xAA4 JUMP JUMPDEST PUSH1 0xD DUP1 SLOAD PUSH1 0x1 PUSH1 0x1 PUSH1 0xA0 SHL SUB NOT AND PUSH1 0x1 PUSH1 0x1 PUSH1 0xA0 SHL SUB DUP4 AND SWAP1 DUP2 OR SWAP1 SWAP2 SSTORE PUSH1 0x40 DUP1 MLOAD DUP2 DUP2 MSTORE PUSH1 0x6 SWAP2 DUP2 ADD SWAP2 SWAP1 SWAP2 MSTORE PUSH6 0x6D6F7270686F PUSH1 0xD0 SHL PUSH1 0x60 DUP3 ADD MSTORE PUSH1 0x20 DUP2 ADD SWAP2 SWAP1 SWAP2 MSTORE PUSH32 0x165ECE555B5310854C532CD54F93D107CCA5F267C89F0FF0EDF559CBEC150B3C SWAP1 PUSH1 0x80 ADD JUMPDEST PUSH1 0x40 MLOAD DUP1 SWAP2 SUB SWAP1 LOG1 POP JUMP JUMPDEST PUSH2 0xF5B PUSH2 0x249A JUMP JUMPDEST PUSH2 0xF63 PUSH2 0x279F JUMP JUMPDEST JUMP JUMPDEST PUSH1 0x0 DUP1 PUSH3 0x76A700 PUSH1 0xC SLOAD PUSH2 0xF79 SWAP2 SWAP1 PUSH2 0x2C14 JUMP JUMPDEST SWAP1 POP DUP1 TIMESTAMP LT PUSH2 0xF8A JUMPI PUSH1 0x0 SWAP2 POP POP SWAP1 JUMP JUMPDEST PUSH2 0xF94 TIMESTAMP DUP3 PUSH2 0x2C27 JUMP JUMPDEST SWAP2 POP POP SWAP1 JUMP JUMPDEST PUSH1 0x0 PUSH3 0x76A700 PUSH1 0xC SLOAD PUSH2 0xFAD SWAP2 SWAP1 PUSH2 0x2C14 JUMP JUMPDEST TIMESTAMP LT ISZERO DUP1 ISZERO PUSH2 0xFBE JUMPI POP PUSH1 0x0 PUSH1 0xB SLOAD GT JUMPDEST SWAP1 POP SWAP1 JUMP JUMPDEST PUSH2 0xFCB PUSH2 0x249A JUMP JUMPDEST PUSH2 0xF63 PUSH1 0x0 PUSH2 0x27F4 JUMP JUMPDEST PUSH1 0x1 PUSH1 0x1 PUSH1 0xA0 SHL SUB DUP3 AND PUSH1 0x0 SWAP1 DUP2 MSTORE PUSH1 0x4 PUSH1 0x20 SWAP1 DUP2 MSTORE PUSH1 0x40 DUP1 DUP4 KECCAK256 DUP5 DUP5 MSTORE SWAP1 SWAP2 MSTORE DUP2 KECCAK256 SLOAD PUSH1 0xFF AND ISZERO PUSH2 0x1009 JUMPI POP PUSH1 0x1 PUSH2 0x1103 JUMP JUMPDEST PUSH1 0x1 PUSH1 0x1 PUSH1 0xA0 SHL SUB DUP4 AND PUSH1 0x0 SWAP1 DUP2 MSTORE PUSH1 0x5 PUSH1 0x20 SWAP1 DUP2 MSTORE PUSH1 0x40 DUP1 DUP4 KECCAK256 DUP6 DUP5 MSTORE SWAP1 SWAP2 MSTORE SWAP1 KECCAK256 SLOAD TIMESTAMP LT ISZERO PUSH2 0x103C JUMPI POP PUSH1 0x1 PUSH2 0x1103 JUMP JUMPDEST PUSH1 0x1 PUSH1 0x1 PUSH1 0xA0 SHL SUB DUP4 AND PUSH1 0x0 SWAP1 DUP2 MSTORE PUSH1 0x6 PUSH1 0x20 SWAP1 DUP2 MSTORE PUSH1 0x40 DUP1 DUP4 KECCAK256 DUP6 DUP5 MSTORE SWAP1 SWAP2 MSTORE SWAP1 KECCAK256 SLOAD TIMESTAMP LT ISZERO PUSH2 0x106F JUMPI POP PUSH1 0x1 PUSH2 0x1103 JUMP JUMPDEST PUSH1 0x40 MLOAD PUSH4 0x70A08231 PUSH1 0xE0 SHL DUP2 MSTORE PUSH1 0x1 PUSH1 0x1 PUSH1 0xA0 SHL SUB DUP5 AND PUSH1 0x4 DUP3 ADD MSTORE PUSH1 0x0 SWAP1 PUSH20 0x746042147240304098C837563AAEC0F671881B07 SWAP1 PUSH4 0x70A08231 SWAP1 PUSH1 0x24 ADD PUSH1 0x20 PUSH1 0x40 MLOAD DUP1 DUP4 SUB DUP2 DUP7 GAS STATICCALL ISZERO DUP1 ISZERO PUSH2 0x10CA JUMPI RETURNDATASIZE PUSH1 0x0 DUP1 RETURNDATACOPY RETURNDATASIZE PUSH1 0x0 REVERT JUMPDEST POP POP POP POP PUSH1 0x40 MLOAD RETURNDATASIZE PUSH1 0x1F NOT PUSH1 0x1F DUP3 ADD AND DUP3 ADD DUP1 PUSH1 0x40 MSTORE POP DUP2 ADD SWAP1 PUSH2 0x10EE SWAP2 SWAP1 PUSH2 0x2C3A JUMP JUMPDEST PUSH1 0x0 DUP5 DUP2 MSTORE PUSH1 0x2 PUSH1 0x20 MSTORE PUSH1 0x40 SWAP1 KECCAK256 SLOAD GT ISZERO SWAP2 POP POP JUMPDEST SWAP3 SWAP2 POP POP JUMP JUMPDEST PUSH2 0x1111 PUSH2 0x249A JUMP JUMPDEST PUSH1 0x1 PUSH1 0x1 PUSH1 0xA0 SHL SUB DUP2 AND PUSH2 0x1159 JUMPI PUSH1 0x40 MLOAD PUSH3 0x461BCD PUSH1 0xE5 SHL DUP2 MSTORE PUSH1 0x20 PUSH1 0x4 DUP3 ADD MSTORE PUSH1 0xF PUSH1 0x24 DUP3 ADD MSTORE PUSH15 0x496E76616C69642061646472657373 PUSH1 0x88 SHL PUSH1 0x44 DUP3 ADD MSTORE PUSH1 0x64 ADD PUSH2 0xAA4 JUMP JUMPDEST PUSH1 0xE DUP1 SLOAD PUSH1 0x1 PUSH1 0x1 PUSH1 0xA0 SHL SUB NOT AND PUSH1 0x1 PUSH1 0x1 PUSH1 0xA0 SHL SUB DUP4 AND SWAP1 DUP2 OR SWAP1 SWAP2 SSTORE PUSH1 0x40 DUP1 MLOAD DUP2 DUP2 MSTORE PUSH1 0x7 SWAP2 DUP2 ADD SWAP2 SWAP1 SWAP2 MSTORE PUSH7 0x636F6D70616E79 PUSH1 0xC8 SHL PUSH1 0x60 DUP3 ADD MSTORE PUSH1 0x20 DUP2 ADD SWAP2 SWAP1 SWAP2 MSTORE PUSH32 0x165ECE555B5310854C532CD54F93D107CCA5F267C89F0FF0EDF559CBEC150B3C SWAP1 PUSH1 0x80 ADD PUSH2 0xF48 JUMP JUMPDEST PUSH2 0x11D1 PUSH2 0x249A JUMP JUMPDEST PUSH2 0xF63 PUSH2 0x2846 JUMP JUMPDEST PUSH2 0x11E1 PUSH2 0x249A JUMP JUMPDEST PUSH1 0x40 MLOAD PUSH4 0x23B872DD PUSH1 0xE0 SHL DUP2 MSTORE CALLER PUSH1 0x4 DUP3 ADD MSTORE PUSH2 0xDEAD PUSH1 0x24 DUP3 ADD MSTORE PUSH1 0x44 DUP2 ADD DUP4 SWAP1 MSTORE PUSH20 0x746042147240304098C837563AAEC0F671881B07 SWAP1 PUSH4 0x23B872DD SWAP1 PUSH1 0x64 ADD PUSH1 0x20 PUSH1 0x40 MLOAD DUP1 DUP4 SUB DUP2 PUSH1 0x0 DUP8 GAS CALL ISZERO DUP1 ISZERO PUSH2 0x1241 JUMPI RETURNDATASIZE PUSH1 0x0 DUP1 RETURNDATACOPY RETURNDATASIZE PUSH1 0x0 REVERT JUMPDEST POP POP POP POP PUSH1 0x40 MLOAD RETURNDATASIZE PUSH1 0x1F NOT PUSH1 0x1F DUP3 ADD AND DUP3 ADD DUP1 PUSH1 0x40 MSTORE POP DUP2 ADD SWAP1 PUSH2 0x1265 SWAP2 SWAP1 PUSH2 0x2BF2 JUMP JUMPDEST POP DUP2 PUSH1 0x7 PUSH1 0x0 DUP3 DUP3 SLOAD PUSH2 0x1278 SWAP2 SWAP1 PUSH2 0x2C14 JUMP JUMPDEST SWAP1 SWAP2 SSTORE POP POP PUSH1 0x8 DUP1 SLOAD SWAP1 PUSH1 0x0 PUSH2 0x128D DUP4 PUSH2 0x2BA0 JUMP JUMPDEST SWAP2 SWAP1 POP SSTORE POP PUSH32 0xD92408CBC24732A9457F996472DCDFD7723E5B548A1F0C6991845F2609A719DB DUP3 DUP3 CALLER PUSH1 0x40 MLOAD PUSH2 0x12C5 SWAP4 SWAP3 SWAP2 SWAP1 PUSH2 0x2C53 JUMP JUMPDEST PUSH1 0x40 MLOAD DUP1 SWAP2 SUB SWAP1 LOG1 POP POP JUMP JUMPDEST PUSH2 0x12D9 PUSH2 0x249A JUMP JUMPDEST PUSH20 0x746042147240304098C837563AAEC0F671881B06 NOT PUSH1 0x1 PUSH1 0x1 PUSH1 0xA0 SHL SUB DUP4 AND ADD PUSH2 0x133E JUMPI PUSH1 0x40 MLOAD PUSH3 0x461BCD PUSH1 0xE5 SHL DUP2 MSTORE PUSH1 0x20 PUSH1 0x4 DUP3 ADD MSTORE PUSH1 0x15 PUSH1 0x24 DUP3 ADD MSTORE PUSH21 0x21B0B73737BA103BB4BA34323930BB9029A7A620A9 PUSH1 0x59 SHL PUSH1 0x44 DUP3 ADD MSTORE PUSH1 0x64 ADD PUSH2 0xAA4 JUMP JUMPDEST PUSH1 0x40 MLOAD PUSH4 0xA9059CBB PUSH1 0xE0 SHL DUP2 MSTORE CALLER PUSH1 0x4 DUP3 ADD MSTORE PUSH1 0x24 DUP2 ADD DUP3 SWAP1 MSTORE PUSH1 0x1 PUSH1 0x1 PUSH1 0xA0 SHL SUB DUP4 AND SWAP1 PUSH4 0xA9059CBB SWAP1 PUSH1 0x44 ADD PUSH1 0x20 PUSH1 0x40 MLOAD DUP1 DUP4 SUB DUP2 PUSH1 0x0 DUP8 GAS CALL ISZERO DUP1 ISZERO PUSH2 0x138B JUMPI RETURNDATASIZE PUSH1 0x0 DUP1 RETURNDATACOPY RETURNDATASIZE PUSH1 0x0 REVERT JUMPDEST POP POP POP POP PUSH1 0x40 MLOAD RETURNDATASIZE PUSH1 0x1F NOT PUSH1 0x1F DUP3 ADD AND DUP3 ADD DUP1 PUSH1 0x40 MSTORE POP DUP2 ADD SWAP1 PUSH2 0x13AF SWAP2 SWAP1 PUSH2 0x2BF2 JUMP JUMPDEST POP POP POP JUMP JUMPDEST PUSH2 0x13BC PUSH2 0x249A JUMP JUMPDEST PUSH1 0x1 PUSH1 0x1 PUSH1 0xA0 SHL SUB DUP3 AND PUSH1 0x0 DUP2 DUP2 MSTORE PUSH1 0x4 PUSH1 0x20 SWAP1 DUP2 MSTORE PUSH1 0x40 DUP1 DUP4 KECCAK256 DUP6 DUP5 MSTORE SWAP1 SWAP2 MSTORE DUP1 DUP3 KECCAK256 DUP1 SLOAD PUSH1 0xFF NOT AND PUSH1 0x1 OR SWAP1 SSTORE MLOAD DUP4 SWAP3 SWAP2 PUSH32 0x722462DE87A2F02B3AF39C8FB4889409A7978B8BDEAEC9F052FDC434EA996F9B SWAP2 LOG3 POP POP JUMP JUMPDEST PUSH1 0x1 PUSH1 0x1 PUSH1 0xA0 SHL SUB DUP3 AND PUSH1 0x0 SWAP1 DUP2 MSTORE PUSH1 0x4 PUSH1 0x20 SWAP1 DUP2 MSTORE PUSH1 0x40 DUP1 DUP4 KECCAK256 DUP5 DUP5 MSTORE SWAP1 SWAP2 MSTORE DUP2 KECCAK256 SLOAD PUSH1 0x60 SWAP1 DUP3 SWAP1 PUSH1 0xFF AND ISZERO PUSH2 0x1474 JUMPI POP POP PUSH1 0x40 DUP1 MLOAD DUP1 DUP3 ADD SWAP1 SWAP2 MSTORE PUSH1 0x9 DUP2 MSTORE PUSH9 0x1C195C9B585B995B9D PUSH1 0xBA SHL PUSH1 0x20 DUP3 ADD MSTORE PUSH1 0x1 SWAP2 POP PUSH1 0x0 PUSH2 0x1653 JUMP JUMPDEST PUSH1 0x1 PUSH1 0x1 PUSH1 0xA0 SHL SUB DUP6 AND PUSH1 0x0 SWAP1 DUP2 MSTORE PUSH1 0x5 PUSH1 0x20 SWAP1 DUP2 MSTORE PUSH1 0x40 DUP1 DUP4 KECCAK256 DUP8 DUP5 MSTORE SWAP1 SWAP2 MSTORE SWAP1 KECCAK256 SLOAD TIMESTAMP LT ISZERO PUSH2 0x14F0 JUMPI POP POP POP PUSH1 0x1 PUSH1 0x1 PUSH1 0xA0 SHL SUB DUP3 AND PUSH1 0x0 SWAP1 DUP2 MSTORE PUSH1 0x5 PUSH1 0x20 SWAP1 DUP2 MSTORE PUSH1 0x40 DUP1 DUP4 KECCAK256 DUP5 DUP5 MSTORE DUP3 MSTORE SWAP2 DUP3 SWAP1 KECCAK256 SLOAD DUP3 MLOAD DUP1 DUP5 ADD SWAP1 SWAP4 MSTORE PUSH1 0x9 DUP4 MSTORE PUSH9 0x74656D706F72617279 PUSH1 0xB8 SHL SWAP2 DUP4 ADD SWAP2 SWAP1 SWAP2 MSTORE PUSH1 0x1 SWAP2 SWAP1 PUSH2 0x1653 JUMP JUMPDEST PUSH1 0x1 PUSH1 0x1 PUSH1 0xA0 SHL SUB DUP6 AND PUSH1 0x0 SWAP1 DUP2 MSTORE PUSH1 0x6 PUSH1 0x20 SWAP1 DUP2 MSTORE PUSH1 0x40 DUP1 DUP4 KECCAK256 DUP8 DUP5 MSTORE SWAP1 SWAP2 MSTORE SWAP1 KECCAK256 SLOAD TIMESTAMP LT ISZERO PUSH2 0x1567 JUMPI POP POP POP PUSH1 0x1 PUSH1 0x1 PUSH1 0xA0 SHL SUB DUP3 AND PUSH1 0x0 SWAP1 DUP2 MSTORE PUSH1 0x6 PUSH1 0x20 SWAP1 DUP2 MSTORE PUSH1 0x40 DUP1 DUP4 KECCAK256 DUP5 DUP5 MSTORE DUP3 MSTORE SWAP2 DUP3 SWAP1 KECCAK256 SLOAD DUP3 MLOAD DUP1 DUP5 ADD SWAP1 SWAP4 MSTORE PUSH1 0x4 DUP4 MSTORE PUSH4 0x1C185A59 PUSH1 0xE2 SHL SWAP2 DUP4 ADD SWAP2 SWAP1 SWAP2 MSTORE PUSH1 0x1 SWAP2 SWAP1 PUSH2 0x1653 JUMP JUMPDEST PUSH1 0x40 MLOAD PUSH4 0x70A08231 PUSH1 0xE0 SHL DUP2 MSTORE PUSH1 0x1 PUSH1 0x1 PUSH1 0xA0 SHL SUB DUP7 AND PUSH1 0x4 DUP3 ADD MSTORE PUSH1 0x0 SWAP1 PUSH20 0x746042147240304098C837563AAEC0F671881B07 SWAP1 PUSH4 0x70A08231 SWAP1 PUSH1 0x24 ADD PUSH1 0x20 PUSH1 0x40 MLOAD DUP1 DUP4 SUB DUP2 DUP7 GAS STATICCALL ISZERO DUP1 ISZERO PUSH2 0x15C2 JUMPI RETURNDATASIZE PUSH1 0x0 DUP1 RETURNDATACOPY RETURNDATASIZE PUSH1 0x0 REVERT JUMPDEST POP POP POP POP PUSH1 0x40 MLOAD RETURNDATASIZE PUSH1 0x1F NOT PUSH1 0x1F DUP3 ADD AND DUP3 ADD DUP1 PUSH1 0x40 MSTORE POP DUP2 ADD SWAP1 PUSH2 0x15E6 SWAP2 SWAP1 PUSH2 0x2C3A JUMP JUMPDEST PUSH1 0x0 DUP7 DUP2 MSTORE PUSH1 0x2 PUSH1 0x20 MSTORE PUSH1 0x40 SWAP1 KECCAK256 SLOAD SWAP1 SWAP2 POP DUP1 DUP3 LT PUSH2 0x162C JUMPI POP POP PUSH1 0x40 DUP1 MLOAD DUP1 DUP3 ADD SWAP1 SWAP2 MSTORE PUSH1 0x5 DUP2 MSTORE PUSH5 0x39B7B630B9 PUSH1 0xD9 SHL PUSH1 0x20 DUP3 ADD MSTORE PUSH1 0x1 SWAP4 POP SWAP2 POP PUSH1 0x0 SWAP1 POP PUSH2 0x1653 JUMP JUMPDEST POP POP PUSH1 0x40 DUP1 MLOAD DUP1 DUP3 ADD SWAP1 SWAP2 MSTORE PUSH1 0x4 DUP2 MSTORE PUSH4 0x6E6F6E65 PUSH1 0xE0 SHL PUSH1 0x20 DUP3 ADD MSTORE PUSH1 0x0 SWAP4 POP SWAP2 POP DUP3 SWAP1 POP JUMPDEST SWAP3 POP SWAP3 POP SWAP3 JUMP JUMPDEST PUSH2 0x1662 PUSH2 0x249A JUMP JUMPDEST PUSH2 0x1388 DUP2 GT ISZERO PUSH2 0xE8A JUMPI PUSH1 0x40 MLOAD PUSH3 0x461BCD PUSH1 0xE5 SHL DUP2 MSTORE PUSH1 0x20 PUSH1 0x4 DUP3 ADD MSTORE PUSH1 0x11 PUSH1 0x24 DUP3 ADD MSTORE PUSH17 0x43616E6E6F742065786365656420353025 PUSH1 0x78 SHL PUSH1 0x44 DUP3 ADD MSTORE PUSH1 0x64 ADD PUSH2 0xAA4 JUMP JUMPDEST PUSH1 0x7 SLOAD PUSH1 0x8 SLOAD PUSH1 0xB SLOAD PUSH1 0xC SLOAD PUSH13 0x1431E0FAE6D7217CAA0000000 SWAP4 SWAP3 SWAP2 SWAP1 PUSH1 0x0 SWAP1 DUP2 SWAP1 DUP2 SWAP1 DUP2 SWAP1 PUSH2 0x16DD SWAP1 PUSH3 0x76A700 SWAP1 PUSH2 0x2C14 JUMP JUMPDEST PUSH1 0x40 MLOAD PUSH4 0x70A08231 PUSH1 0xE0 SHL DUP2 MSTORE ADDRESS PUSH1 0x4 DUP3 ADD MSTORE SWAP1 SWAP5 POP PUSH20 0xA0B86A33E6441B8DB72C5AB9CBF4428C7BB060B6 SWAP1 PUSH4 0x70A08231 SWAP1 PUSH1 0x24 ADD PUSH1 0x20 PUSH1 0x40 MLOAD DUP1 DUP4 SUB DUP2 DUP7 GAS STATICCALL ISZERO DUP1 ISZERO PUSH2 0x172F JUMPI RETURNDATASIZE PUSH1 0x0 DUP1 RETURNDATACOPY RETURNDATASIZE PUSH1 0x0 REVERT JUMPDEST POP POP POP POP PUSH1 0x40 MLOAD RETURNDATASIZE PUSH1 0x1F NOT PUSH1 0x1F DUP3 ADD AND DUP3 ADD DUP1 PUSH1 0x40 MSTORE POP DUP2 ADD SWAP1 PUSH2 0x1753 SWAP2 SWAP1 PUSH2 0x2C3A JUMP JUMPDEST SWAP3 POP PUSH1 0xF SLOAD SWAP2 POP PUSH1 0x10 SLOAD SWAP1 POP SWAP1 SWAP2 SWAP3 SWAP4 SWAP5 SWAP6 SWAP7 SWAP8 JUMP JUMPDEST PUSH2 0x1771 PUSH2 0x249A JUMP JUMPDEST PUSH1 0x40 MLOAD PUSH4 0x70A08231 PUSH1 0xE0 SHL DUP2 MSTORE ADDRESS PUSH1 0x4 DUP3 ADD MSTORE PUSH1 0x0 SWAP1 PUSH20 0xA0B86A33E6441B8DB72C5AB9CBF4428C7BB060B6 SWAP1 PUSH4 0x70A08231 SWAP1 PUSH1 0x24 ADD PUSH1 0x20 PUSH1 0x40 MLOAD DUP1 DUP4 SUB DUP2 DUP7 GAS STATICCALL ISZERO DUP1 ISZERO PUSH2 0x17C3 JUMPI RETURNDATASIZE PUSH1 0x0 DUP1 RETURNDATACOPY RETURNDATASIZE PUSH1 0x0 REVERT JUMPDEST POP POP POP POP PUSH1 0x40 MLOAD RETURNDATASIZE PUSH1 0x1F NOT PUSH1 0x1F DUP3 ADD AND DUP3 ADD DUP1 PUSH1 0x40 MSTORE POP DUP2 ADD SWAP1 PUSH2 0x17E7 SWAP2 SWAP1 PUSH2 0x2C3A JUMP JUMPDEST SWAP1 POP PUSH1 0x0 DUP2 GT PUSH2 0x182E JUMPI PUSH1 0x40 MLOAD PUSH3 0x461BCD PUSH1 0xE5 SHL DUP2 MSTORE PUSH1 0x20 PUSH1 0x4 DUP3 ADD MSTORE PUSH1 0x12 PUSH1 0x24 DUP3 ADD MSTORE PUSH18 0x139BC81554D110C81D1BC819195C1BDCDA5D PUSH1 0x72 SHL PUSH1 0x44 DUP3 ADD MSTORE PUSH1 0x64 ADD PUSH2 0xAA4 JUMP JUMPDEST PUSH1 0x0 PUSH2 0x183B PUSH1 0x2 DUP4 PUSH2 0x2BD0 JUMP JUMPDEST SWAP1 POP PUSH1 0x0 PUSH2 0x1849 DUP3 DUP5 PUSH2 0x2C27 JUMP JUMPDEST PUSH1 0xD SLOAD SWAP1 SWAP2 POP PUSH1 0x1 PUSH1 0x1 PUSH1 0xA0 SHL SUB AND ISZERO DUP1 ISZERO SWAP1 PUSH2 0x1866 JUMPI POP PUSH1 0x0 DUP3 GT JUMPDEST ISZERO PUSH2 0x19E0 JUMPI PUSH1 0xD SLOAD PUSH1 0x40 MLOAD PUSH4 0xA9059CBB PUSH1 0xE0 SHL DUP2 MSTORE PUSH1 0x1 PUSH1 0x1 PUSH1 0xA0 SHL SUB SWAP1 SWAP2 AND PUSH1 0x4 DUP3 ADD MSTORE PUSH1 0x24 DUP2 ADD DUP4 SWAP1 MSTORE PUSH20 0xA0B86A33E6441B8DB72C5AB9CBF4428C7BB060B6 SWAP1 PUSH4 0xA9059CBB SWAP1 PUSH1 0x44 ADD PUSH1 0x20 PUSH1 0x40 MLOAD DUP1 DUP4 SUB DUP2 PUSH1 0x0 DUP8 GAS CALL ISZERO DUP1 ISZERO PUSH2 0x18D0 JUMPI RETURNDATASIZE PUSH1 0x0 DUP1 RETURNDATACOPY RETURNDATASIZE PUSH1 0x0 REVERT JUMPDEST POP POP POP POP PUSH1 0x40 MLOAD RETURNDATASIZE PUSH1 0x1F NOT PUSH1 0x1F DUP3 ADD AND DUP3 ADD DUP1 PUSH1 0x40 MSTORE POP DUP2 ADD SWAP1 PUSH2 0x18F4 SWAP2 SWAP1 PUSH2 0x2BF2 JUMP JUMPDEST POP DUP2 PUSH1 0xF PUSH1 0x0 DUP3 DUP3 SLOAD PUSH2 0x1907 SWAP2 SWAP1 PUSH2 0x2C14 JUMP JUMPDEST SWAP1 SWAP2 SSTORE POP POP PUSH1 0xD SLOAD PUSH1 0x40 MLOAD PUSH1 0x24 DUP2 ADD DUP5 SWAP1 MSTORE PUSH1 0x0 SWAP2 PUSH1 0x1 PUSH1 0x1 PUSH1 0xA0 SHL SUB AND SWAP1 PUSH1 0x44 ADD PUSH1 0x40 DUP1 MLOAD PUSH1 0x1F NOT DUP2 DUP5 SUB ADD DUP2 MSTORE SWAP2 DUP2 MSTORE PUSH1 0x20 DUP3 ADD DUP1 MLOAD PUSH1 0x1 PUSH1 0x1 PUSH1 0xE0 SHL SUB AND PUSH4 0x63EC512D PUSH1 0xE0 SHL OR SWAP1 MSTORE MLOAD PUSH2 0x195E SWAP2 SWAP1 PUSH2 0x2C84 JUMP JUMPDEST PUSH1 0x0 PUSH1 0x40 MLOAD DUP1 DUP4 SUB DUP2 PUSH1 0x0 DUP7 GAS CALL SWAP2 POP POP RETURNDATASIZE DUP1 PUSH1 0x0 DUP2 EQ PUSH2 0x199B JUMPI PUSH1 0x40 MLOAD SWAP2 POP PUSH1 0x1F NOT PUSH1 0x3F RETURNDATASIZE ADD AND DUP3 ADD PUSH1 0x40 MSTORE RETURNDATASIZE DUP3 MSTORE RETURNDATASIZE PUSH1 0x0 PUSH1 0x20 DUP5 ADD RETURNDATACOPY PUSH2 0x19A0 JUMP JUMPDEST PUSH1 0x60 SWAP2 POP JUMPDEST POP POP SWAP1 POP DUP1 ISZERO PUSH2 0x19DE JUMPI PUSH1 0x40 MLOAD DUP4 DUP2 MSTORE PUSH32 0x136BF5F01D0758622BA886621B1834C6204220AD7FD36F888398706B63B7E280 SWAP1 PUSH1 0x20 ADD PUSH1 0x40 MLOAD DUP1 SWAP2 SUB SWAP1 LOG1 JUMPDEST POP JUMPDEST PUSH1 0xE SLOAD PUSH1 0x1 PUSH1 0x1 PUSH1 0xA0 SHL SUB AND ISZERO DUP1 ISZERO SWAP1 PUSH2 0x19FA JUMPI POP PUSH1 0x0 DUP2 GT JUMPDEST ISZERO PUSH2 0x13AF JUMPI PUSH1 0xE SLOAD PUSH1 0x40 MLOAD PUSH4 0xA9059CBB PUSH1 0xE0 SHL DUP2 MSTORE PUSH1 0x1 PUSH1 0x1 PUSH1 0xA0 SHL SUB SWAP1 SWAP2 AND PUSH1 0x4 DUP3 ADD MSTORE PUSH1 0x24 DUP2 ADD DUP3 SWAP1 MSTORE PUSH20 0xA0B86A33E6441B8DB72C5AB9CBF4428C7BB060B6 SWAP1 PUSH4 0xA9059CBB SWAP1 PUSH1 0x44 ADD JUMPDEST PUSH1 0x20 PUSH1 0x40 MLOAD DUP1 DUP4 SUB DUP2 PUSH1 0x0 DUP8 GAS CALL ISZERO DUP1 ISZERO PUSH2 0x1A65 JUMPI RETURNDATASIZE PUSH1 0x0 DUP1 RETURNDATACOPY RETURNDATASIZE PUSH1 0x0 REVERT JUMPDEST POP POP POP POP PUSH1 0x40 MLOAD RETURNDATASIZE PUSH1 0x1F NOT PUSH1 0x1F DUP3 ADD AND DUP3 ADD DUP1 PUSH1 0x40 MSTORE POP DUP2 ADD SWAP1 PUSH2 0x1A89 SWAP2 SWAP1 PUSH2 0x2BF2 JUMP JUMPDEST POP DUP1 PUSH1 0x10 PUSH1 0x0 DUP3 DUP3 SLOAD PUSH2 0x1A9C SWAP2 SWAP1 PUSH2 0x2C14 JUMP JUMPDEST SWAP1 SWAP2 SSTORE POP POP PUSH1 0x40 MLOAD DUP2 DUP2 MSTORE PUSH32 0x6A66E2462C075F6B19F38132B632996AA9E7FEF5D6D7C8F06908B05F8A1E2633 SWAP1 PUSH1 0x20 ADD PUSH1 0x40 MLOAD DUP1 SWAP2 SUB SWAP1 LOG1 POP POP POP JUMP JUMPDEST PUSH2 0x1AE1 PUSH2 0x24C7 JUMP JUMPDEST PUSH3 0x76A700 PUSH1 0xC SLOAD PUSH2 0x1AF2 SWAP2 SWAP1 PUSH2 0x2C14 JUMP JUMPDEST TIMESTAMP LT ISZERO PUSH2 0x1B41 JUMPI PUSH1 0x40 MLOAD PUSH3 0x461BCD PUSH1 0xE5 SHL DUP2 MSTORE PUSH1 0x20 PUSH1 0x4 DUP3 ADD MSTORE PUSH1 0x1C PUSH1 0x24 DUP3 ADD MSTORE PUSH32 0x546F6F206561726C7920666F7220717561727465726C79206275726E00000000 PUSH1 0x44 DUP3 ADD MSTORE PUSH1 0x64 ADD PUSH2 0xAA4 JUMP JUMPDEST PUSH1 0x0 PUSH1 0xB SLOAD GT PUSH2 0x1B88 JUMPI PUSH1 0x40 MLOAD PUSH3 0x461BCD PUSH1 0xE5 SHL DUP2 MSTORE PUSH1 0x20 PUSH1 0x4 DUP3 ADD MSTORE PUSH1 0x12 PUSH1 0x24 DUP3 ADD MSTORE PUSH18 0x2737903932BB32B73AB2903A3790313AB937 PUSH1 0x71 SHL PUSH1 0x44 DUP3 ADD MSTORE PUSH1 0x64 ADD PUSH2 0xAA4 JUMP JUMPDEST PUSH1 0x0 PUSH2 0x1B92 PUSH2 0x23FE JUMP JUMPDEST SWAP1 POP PUSH1 0x0 DUP2 GT PUSH2 0x1BE4 JUMPI PUSH1 0x40 MLOAD PUSH3 0x461BCD PUSH1 0xE5 SHL DUP2 MSTORE PUSH1 0x20 PUSH1 0x4 DUP3 ADD MSTORE PUSH1 0x1B PUSH1 0x24 DUP3 ADD MSTORE PUSH32 0x4E6F20534F4C415220617661696C61626C6520666F72206275726E0000000000 PUSH1 0x44 DUP3 ADD MSTORE PUSH1 0x64 ADD PUSH2 0xAA4 JUMP JUMPDEST PUSH1 0x40 MLOAD PUSH4 0x70A08231 PUSH1 0xE0 SHL DUP2 MSTORE ADDRESS PUSH1 0x4 DUP3 ADD MSTORE DUP2 SWAP1 PUSH20 0x746042147240304098C837563AAEC0F671881B07 SWAP1 PUSH4 0x70A08231 SWAP1 PUSH1 0x24 ADD PUSH1 0x20 PUSH1 0x40 MLOAD DUP1 DUP4 SUB DUP2 DUP7 GAS STATICCALL ISZERO DUP1 ISZERO PUSH2 0x1C35 JUMPI RETURNDATASIZE PUSH1 0x0 DUP1 RETURNDATACOPY RETURNDATASIZE PUSH1 0x0 REVERT JUMPDEST POP POP POP POP PUSH1 0x40 MLOAD RETURNDATASIZE PUSH1 0x1F NOT PUSH1 0x1F DUP3 ADD AND DUP3 ADD DUP1 PUSH1 0x40 MSTORE POP DUP2 ADD SWAP1 PUSH2 0x1C59 SWAP2 SWAP1 PUSH2 0x2C3A JUMP JUMPDEST LT PUSH2 0x1CE2 JUMPI PUSH1 0x40 MLOAD PUSH4 0xA9059CBB PUSH1 0xE0 SHL DUP2 MSTORE PUSH2 0xDEAD PUSH1 0x4 DUP3 ADD MSTORE PUSH1 0x24 DUP2 ADD DUP3 SWAP1 MSTORE PUSH20 0x746042147240304098C837563AAEC0F671881B07 SWAP1 PUSH4 0xA9059CBB SWAP1 PUSH1 0x44 ADD PUSH1 0x20 PUSH1 0x40 MLOAD DUP1 DUP4 SUB DUP2 PUSH1 0x0 DUP8 GAS CALL ISZERO DUP1 ISZERO PUSH2 0x1CB8 JUMPI RETURNDATASIZE PUSH1 0x0 DUP1 RETURNDATACOPY RETURNDATASIZE PUSH1 0x0 REVERT JUMPDEST POP POP POP POP PUSH1 0x40 MLOAD RETURNDATASIZE PUSH1 0x1F NOT PUSH1 0x1F DUP3 ADD AND DUP3 ADD DUP1 PUSH1 0x40 MSTORE POP DUP2 ADD SWAP1 PUSH2 0x1CDC SWAP2 SWAP1 PUSH2 0x2BF2 JUMP JUMPDEST POP PUSH2 0x1D89 JUMP JUMPDEST PUSH20 0x746042147240304098C837563AAEC0F671881B07 PUSH4 0x23B872DD PUSH2 0x1D0E PUSH1 0x1 SLOAD PUSH1 0x1 PUSH1 0x1 PUSH1 0xA0 SHL SUB AND SWAP1 JUMP JUMPDEST PUSH1 0x40 MLOAD PUSH1 0x1 PUSH1 0x1 PUSH1 0xE0 SHL SUB NOT PUSH1 0xE0 DUP5 SWAP1 SHL AND DUP2 MSTORE PUSH1 0x1 PUSH1 0x1 PUSH1 0xA0 SHL SUB SWAP1 SWAP2 AND PUSH1 0x4 DUP3 ADD MSTORE PUSH2 0xDEAD PUSH1 0x24 DUP3 ADD MSTORE PUSH1 0x44 DUP2 ADD DUP5 SWAP1 MSTORE PUSH1 0x64 ADD PUSH1 0x20 PUSH1 0x40 MLOAD DUP1 DUP4 SUB DUP2 PUSH1 0x0 DUP8 GAS CALL ISZERO DUP1 ISZERO PUSH2 0x1D63 JUMPI RETURNDATASIZE PUSH1 0x0 DUP1 RETURNDATACOPY RETURNDATASIZE PUSH1 0x0 REVERT JUMPDEST POP POP POP POP PUSH1 0x40 MLOAD RETURNDATASIZE PUSH1 0x1F NOT PUSH1 0x1F DUP3 ADD AND DUP3 ADD DUP1 PUSH1 0x40 MSTORE POP DUP2 ADD SWAP1 PUSH2 0x1D87 SWAP2 SWAP1 PUSH2 0x2BF2 JUMP JUMPDEST POP JUMPDEST DUP1 PUSH1 0x7 PUSH1 0x0 DUP3 DUP3 SLOAD PUSH2 0x1D9B SWAP2 SWAP1 PUSH2 0x2C14 JUMP JUMPDEST SWAP1 SWAP2 SSTORE POP POP PUSH1 0x8 DUP1 SLOAD SWAP1 PUSH1 0x0 PUSH2 0x1DB0 DUP4 PUSH2 0x2BA0 JUMP JUMPDEST SWAP1 SWAP2 SSTORE POP POP TIMESTAMP PUSH1 0xC SSTORE PUSH1 0x0 PUSH1 0xB SSTORE PUSH1 0x40 DUP1 MLOAD DUP3 DUP2 MSTORE PUSH1 0x60 PUSH1 0x20 DUP3 ADD DUP2 SWAP1 MSTORE PUSH1 0x16 SWAP1 DUP3 ADD MSTORE PUSH22 0x28BAB0B93A32B9363C903932BB32B73AB290313AB937 PUSH1 0x51 SHL PUSH1 0x80 DUP3 ADD MSTORE CALLER DUP2 DUP4 ADD MSTORE SWAP1 MLOAD PUSH32 0xD92408CBC24732A9457F996472DCDFD7723E5B548A1F0C6991845F2609A719DB SWAP2 DUP2 SWAP1 SUB PUSH1 0xA0 ADD SWAP1 LOG1 POP PUSH2 0xF63 PUSH1 0x1 PUSH1 0x0 SSTORE JUMP JUMPDEST PUSH2 0x1E37 PUSH2 0x249A JUMP JUMPDEST PUSH2 0x1E41 DUP2 TIMESTAMP PUSH2 0x2C14 JUMP JUMPDEST PUSH1 0x1 PUSH1 0x1 PUSH1 0xA0 SHL SUB DUP5 AND PUSH1 0x0 DUP2 DUP2 MSTORE PUSH1 0x5 PUSH1 0x20 SWAP1 DUP2 MSTORE PUSH1 0x40 DUP1 DUP4 KECCAK256 DUP8 DUP5 MSTORE DUP3 MSTORE SWAP2 DUP3 SWAP1 KECCAK256 SWAP4 SWAP1 SWAP4 SSTORE MLOAD DUP4 DUP2 MSTORE DUP5 SWAP3 PUSH32 0x4BF5367B54D86733931CBF6BE0F2420776F4A453BE9BD79ED2E9E849627DBD2A SWAP2 ADD PUSH1 0x40 MLOAD DUP1 SWAP2 SUB SWAP1 LOG3 POP POP POP JUMP JUMPDEST PUSH1 0x0 DUP2 DUP2 MSTORE PUSH1 0x3 PUSH1 0x20 DUP2 SWAP1 MSTORE PUSH1 0x40 DUP3 KECCAK256 SLOAD SWAP2 SWAP1 DUP2 SWAP1 DUP4 SWAP1 PUSH1 0x64 SWAP1 PUSH2 0x1EC4 SWAP1 DUP4 SWAP1 PUSH2 0x2BB9 JUMP JUMPDEST PUSH2 0x1ECF SWAP1 PUSH1 0x5A PUSH2 0x2BB9 JUMP JUMPDEST PUSH2 0x1ED9 SWAP2 SWAP1 PUSH2 0x2BD0 JUMP JUMPDEST SWAP3 POP PUSH1 0x64 PUSH2 0x1EE8 DUP3 PUSH1 0xC PUSH2 0x2BB9 JUMP JUMPDEST PUSH2 0x1EF3 SWAP1 PUSH1 0x50 PUSH2 0x2BB9 JUMP JUMPDEST PUSH2 0x1EFD SWAP2 SWAP1 PUSH2 0x2BD0 JUMP JUMPDEST SWAP4 SWAP6 SWAP3 SWAP5 POP POP POP JUMP JUMPDEST PUSH1 0xB SLOAD PUSH1 0xF SLOAD PUSH1 0x10 SLOAD PUSH1 0x40 MLOAD PUSH4 0x70A08231 PUSH1 0xE0 SHL DUP2 MSTORE ADDRESS PUSH1 0x4 DUP3 ADD MSTORE PUSH1 0x0 SWAP1 PUSH20 0xA0B86A33E6441B8DB72C5AB9CBF4428C7BB060B6 SWAP1 PUSH4 0x70A08231 SWAP1 PUSH1 0x24 ADD PUSH1 0x20 PUSH1 0x40 MLOAD DUP1 DUP4 SUB DUP2 DUP7 GAS STATICCALL ISZERO DUP1 ISZERO PUSH2 0x1F61 JUMPI RETURNDATASIZE PUSH1 0x0 DUP1 RETURNDATACOPY RETURNDATASIZE PUSH1 0x0 REVERT JUMPDEST POP POP POP POP PUSH1 0x40 MLOAD RETURNDATASIZE PUSH1 0x1F NOT PUSH1 0x1F DUP3 ADD AND DUP3 ADD DUP1 PUSH1 0x40 MSTORE POP DUP2 ADD SWAP1 PUSH2 0x1F85 SWAP2 SWAP1 PUSH2 0x2C3A JUMP JUMPDEST SWAP1 POP SWAP1 SWAP2 SWAP3 SWAP4 JUMP JUMPDEST PUSH2 0x1F95 PUSH2 0x249A JUMP JUMPDEST PUSH1 0x0 DUP3 DUP2 MSTORE PUSH1 0x3 PUSH1 0x20 MSTORE PUSH1 0x40 SWAP1 DUP2 SWAP1 KECCAK256 DUP3 SWAP1 SSTORE MLOAD DUP3 SWAP1 PUSH32 0x4EDF5DB7303532CD43BD000861F04E61164CCF2AD63F5EE1DDF79F3DEFBBA47D SWAP1 PUSH2 0x7B5 SWAP1 DUP5 DUP2 MSTORE PUSH1 0x20 ADD SWAP1 JUMP JUMPDEST PUSH1 0x40 MLOAD PUSH4 0x70A08231 PUSH1 0xE0 SHL DUP2 MSTORE PUSH1 0x1 PUSH1 0x1 PUSH1 0xA0 SHL SUB DUP3 AND PUSH1 0x4 DUP3 ADD MSTORE PUSH1 0x0 SWAP1 PUSH1 0x60 SWAP1 PUSH20 0x746042147240304098C837563AAEC0F671881B07 SWAP1 PUSH4 0x70A08231 SWAP1 PUSH1 0x24 ADD PUSH1 0x20 PUSH1 0x40 MLOAD DUP1 DUP4 SUB DUP2 DUP7 GAS STATICCALL ISZERO DUP1 ISZERO PUSH2 0x2038 JUMPI RETURNDATASIZE PUSH1 0x0 DUP1 RETURNDATACOPY RETURNDATASIZE PUSH1 0x0 REVERT JUMPDEST POP POP POP POP PUSH1 0x40 MLOAD RETURNDATASIZE PUSH1 0x1F NOT PUSH1 0x1F DUP3 ADD AND DUP3 ADD DUP1 PUSH1 0x40 MSTORE POP DUP2 ADD SWAP1 PUSH2 0x205C SWAP2 SWAP1 PUSH2 0x2C3A JUMP JUMPDEST PUSH1 0x40 DUP1 MLOAD PUSH1 0x7 DUP1 DUP3 MSTORE PUSH2 0x100 DUP3 ADD SWAP1 SWAP3 MSTORE SWAP2 SWAP4 POP PUSH1 0x0 SWAP2 SWAP1 PUSH1 0x20 DUP3 ADD PUSH1 0xE0 DUP1 CALLDATASIZE DUP4 CALLDATACOPY ADD SWAP1 POP POP SWAP1 POP PUSH17 0x7072656D69756D5F616E616C7974696373 PUSH1 0x78 SHL DUP2 PUSH1 0x0 DUP2 MLOAD DUP2 LT PUSH2 0x20AC JUMPI PUSH2 0x20AC PUSH2 0x2B74 JUMP JUMPDEST PUSH1 0x20 MUL PUSH1 0x20 ADD ADD DUP2 DUP2 MSTORE POP POP PUSH17 0x637573746F6D5F6D696C6573746F6E6573 PUSH1 0x78 SHL DUP2 PUSH1 0x1 DUP2 MLOAD DUP2 LT PUSH2 0x20E0 JUMPI PUSH2 0x20E0 PUSH2 0x2B74 JUMP JUMPDEST PUSH1 0x20 MUL PUSH1 0x20 ADD ADD DUP2 DUP2 MSTORE POP POP PUSH16 0x1C1C9A5BDC9A5D1E57DCDD5C1C1BDC9D PUSH1 0x82 SHL DUP2 PUSH1 0x2 DUP2 MLOAD DUP2 LT PUSH2 0x2113 JUMPI PUSH2 0x2113 PUSH2 0x2B74 JUMP JUMPDEST PUSH1 0x20 MUL PUSH1 0x20 ADD ADD DUP2 DUP2 MSTORE POP POP PUSH16 0x616476616E6365645F6A6F75726E6579 PUSH1 0x80 SHL DUP2 PUSH1 0x3 DUP2 MLOAD DUP2 LT PUSH2 0x2146 JUMPI PUSH2 0x2146 PUSH2 0x2B74 JUMP JUMPDEST PUSH1 0x20 MUL PUSH1 0x20 ADD ADD DUP2 DUP2 MSTORE POP POP PUSH10 0x6170695F616363657373 PUSH1 0xB0 SHL DUP2 PUSH1 0x4 DUP2 MLOAD DUP2 LT PUSH2 0x2173 JUMPI PUSH2 0x2173 PUSH2 0x2B74 JUMP JUMPDEST PUSH1 0x20 MUL PUSH1 0x20 ADD ADD DUP2 DUP2 MSTORE POP POP PUSH12 0x6561726C795F616363657373 PUSH1 0xA0 SHL DUP2 PUSH1 0x5 DUP2 MLOAD DUP2 LT PUSH2 0x21A2 JUMPI PUSH2 0x21A2 PUSH2 0x2B74 JUMP JUMPDEST PUSH1 0x20 MUL PUSH1 0x20 ADD ADD DUP2 DUP2 MSTORE POP POP PUSH11 0x1D9A5C17DCDD5C1C1BDC9D PUSH1 0xAA SHL DUP2 PUSH1 0x6 DUP2 MLOAD DUP2 LT PUSH2 0x21D0 JUMPI PUSH2 0x21D0 PUSH2 0x2B74 JUMP JUMPDEST PUSH1 0x20 MUL PUSH1 0x20 ADD ADD DUP2 DUP2 MSTORE POP POP PUSH1 0x0 DUP1 JUMPDEST DUP3 MLOAD DUP2 LT ISZERO PUSH2 0x22AA JUMPI ADDRESS PUSH1 0x1 PUSH1 0x1 PUSH1 0xA0 SHL SUB AND PUSH4 0x7461F24A DUP8 DUP6 DUP5 DUP2 MLOAD DUP2 LT PUSH2 0x220B JUMPI PUSH2 0x220B PUSH2 0x2B74 JUMP JUMPDEST PUSH1 0x20 MUL PUSH1 0x20 ADD ADD MLOAD PUSH1 0x40 MLOAD DUP4 PUSH4 0xFFFFFFFF AND PUSH1 0xE0 SHL DUP2 MSTORE PUSH1 0x4 ADD PUSH2 0x2244 SWAP3 SWAP2 SWAP1 PUSH1 0x1 PUSH1 0x1 PUSH1 0xA0 SHL SUB SWAP3 SWAP1 SWAP3 AND DUP3 MSTORE PUSH1 0x20 DUP3 ADD MSTORE PUSH1 0x40 ADD SWAP1 JUMP JUMPDEST PUSH1 0x20 PUSH1 0x40 MLOAD DUP1 DUP4 SUB DUP2 DUP7 GAS STATICCALL ISZERO DUP1 ISZERO PUSH2 0x2261 JUMPI RETURNDATASIZE PUSH1 0x0 DUP1 RETURNDATACOPY RETURNDATASIZE PUSH1 0x0 REVERT JUMPDEST POP POP POP POP PUSH1 0x40 MLOAD RETURNDATASIZE PUSH1 0x1F NOT PUSH1 0x1F DUP3 ADD AND DUP3 ADD DUP1 PUSH1 0x40 MSTORE POP DUP2 ADD SWAP1 PUSH2 0x2285 SWAP2 SWAP1 PUSH2 0x2BF2 JUMP JUMPDEST ISZERO PUSH2 0x2298 JUMPI DUP2 PUSH2 0x2294 DUP2 PUSH2 0x2BA0 JUMP JUMPDEST SWAP3 POP POP JUMPDEST DUP1 PUSH2 0x22A2 DUP2 PUSH2 0x2BA0 JUMP JUMPDEST SWAP2 POP POP PUSH2 0x21E0 JUMP JUMPDEST POP DUP1 PUSH8 0xFFFFFFFFFFFFFFFF DUP2 GT ISZERO PUSH2 0x22C4 JUMPI PUSH2 0x22C4 PUSH2 0x29D4 JUMP JUMPDEST PUSH1 0x40 MLOAD SWAP1 DUP1 DUP3 MSTORE DUP1 PUSH1 0x20 MUL PUSH1 0x20 ADD DUP3 ADD PUSH1 0x40 MSTORE DUP1 ISZERO PUSH2 0x22ED JUMPI DUP2 PUSH1 0x20 ADD PUSH1 0x20 DUP3 MUL DUP1 CALLDATASIZE DUP4 CALLDATACOPY ADD SWAP1 POP JUMPDEST POP SWAP3 POP PUSH1 0x0 DUP1 JUMPDEST DUP4 MLOAD DUP2 LT ISZERO PUSH2 0x23F5 JUMPI ADDRESS PUSH1 0x1 PUSH1 0x1 PUSH1 0xA0 SHL SUB AND PUSH4 0x7461F24A DUP9 DUP7 DUP5 DUP2 MLOAD DUP2 LT PUSH2 0x231F JUMPI PUSH2 0x231F PUSH2 0x2B74 JUMP JUMPDEST PUSH1 0x20 MUL PUSH1 0x20 ADD ADD MLOAD PUSH1 0x40 MLOAD DUP4 PUSH4 0xFFFFFFFF AND PUSH1 0xE0 SHL DUP2 MSTORE PUSH1 0x4 ADD PUSH2 0x2358 SWAP3 SWAP2 SWAP1 PUSH1 0x1 PUSH1 0x1 PUSH1 0xA0 SHL SUB SWAP3 SWAP1 SWAP3 AND DUP3 MSTORE PUSH1 0x20 DUP3 ADD MSTORE PUSH1 0x40 ADD SWAP1 JUMP JUMPDEST PUSH1 0x20 PUSH1 0x40 MLOAD DUP1 DUP4 SUB DUP2 DUP7 GAS STATICCALL ISZERO DUP1 ISZERO PUSH2 0x2375 JUMPI RETURNDATASIZE PUSH1 0x0 DUP1 RETURNDATACOPY RETURNDATASIZE PUSH1 0x0 REVERT JUMPDEST POP POP POP POP PUSH1 0x40 MLOAD RETURNDATASIZE PUSH1 0x1F NOT PUSH1 0x1F DUP3 ADD AND DUP3 ADD DUP1 PUSH1 0x40 MSTORE POP DUP2 ADD SWAP1 PUSH2 0x2399 SWAP2 SWAP1 PUSH2 0x2BF2 JUMP JUMPDEST ISZERO PUSH2 0x23E3 JUMPI DUP4 DUP2 DUP2 MLOAD DUP2 LT PUSH2 0x23B0 JUMPI PUSH2 0x23B0 PUSH2 0x2B74 JUMP JUMPDEST PUSH1 0x20 MUL PUSH1 0x20 ADD ADD MLOAD DUP6 DUP4 DUP2 MLOAD DUP2 LT PUSH2 0x23CA JUMPI PUSH2 0x23CA PUSH2 0x2B74 JUMP JUMPDEST PUSH1 0x20 SWAP1 DUP2 MUL SWAP2 SWAP1 SWAP2 ADD ADD MSTORE DUP2 PUSH2 0x23DF DUP2 PUSH2 0x2BA0 JUMP JUMPDEST SWAP3 POP POP JUMPDEST DUP1 PUSH2 0x23ED DUP2 PUSH2 0x2BA0 JUMP JUMPDEST SWAP2 POP POP PUSH2 0x22F4 JUMP JUMPDEST POP POP POP POP SWAP2 POP SWAP2 JUMP JUMPDEST PUSH1 0x0 PUSH1 0xB SLOAD PUSH1 0x0 SUB PUSH2 0x2410 JUMPI POP PUSH1 0x0 SWAP1 JUMP JUMPDEST PUSH1 0x0 PUSH10 0xD3C21BCECCEDA1000000 SWAP1 POP PUSH1 0x0 PUSH2 0x2710 PUSH2 0x9C4 PUSH1 0xB SLOAD PUSH2 0x2434 SWAP2 SWAP1 PUSH2 0x2BB9 JUMP JUMPDEST PUSH2 0x243E SWAP2 SWAP1 PUSH2 0x2BD0 JUMP JUMPDEST SWAP1 POP PUSH3 0xF4240 PUSH2 0x244E DUP4 DUP4 PUSH2 0x2BB9 JUMP JUMPDEST PUSH2 0x2458 SWAP2 SWAP1 PUSH2 0x2BD0 JUMP JUMPDEST SWAP3 POP POP POP SWAP1 JUMP JUMPDEST PUSH2 0x2467 PUSH2 0x249A JUMP JUMPDEST PUSH1 0x1 PUSH1 0x1 PUSH1 0xA0 SHL SUB DUP2 AND PUSH2 0x2491 JUMPI PUSH1 0x40 MLOAD PUSH4 0x1E4FBDF7 PUSH1 0xE0 SHL DUP2 MSTORE PUSH1 0x0 PUSH1 0x4 DUP3 ADD MSTORE PUSH1 0x24 ADD PUSH2 0xAA4 JUMP JUMPDEST PUSH2 0xE8A DUP2 PUSH2 0x27F4 JUMP JUMPDEST PUSH1 0x1 SLOAD PUSH1 0x1 PUSH1 0x1 PUSH1 0xA0 SHL SUB AND CALLER EQ PUSH2 0xF63 JUMPI PUSH1 0x40 MLOAD PUSH4 0x118CDAA7 PUSH1 0xE0 SHL DUP2 MSTORE CALLER PUSH1 0x4 DUP3 ADD MSTORE PUSH1 0x24 ADD PUSH2 0xAA4 JUMP JUMPDEST PUSH1 0x2 PUSH1 0x0 SLOAD SUB PUSH2 0x24EA JUMPI PUSH1 0x40 MLOAD PUSH4 0x3EE5AEB5 PUSH1 0xE0 SHL DUP2 MSTORE PUSH1 0x4 ADD PUSH1 0x40 MLOAD DUP1 SWAP2 SUB SWAP1 REVERT JUMPDEST PUSH1 0x2 PUSH1 0x0 SSTORE JUMP JUMPDEST PUSH1 0x1 SLOAD PUSH1 0x1 PUSH1 0xA0 SHL SWAP1 DIV PUSH1 0xFF AND ISZERO PUSH2 0xF63 JUMPI PUSH1 0x40 MLOAD PUSH4 0xD93C0665 PUSH1 0xE0 SHL DUP2 MSTORE PUSH1 0x4 ADD PUSH1 0x40 MLOAD DUP1 SWAP2 SUB SWAP1 REVERT JUMPDEST PUSH1 0x40 MLOAD PUSH4 0x70A08231 PUSH1 0xE0 SHL DUP2 MSTORE ADDRESS PUSH1 0x4 DUP3 ADD MSTORE PUSH1 0x0 SWAP1 PUSH20 0xA0B86A33E6441B8DB72C5AB9CBF4428C7BB060B6 SWAP1 PUSH4 0x70A08231 SWAP1 PUSH1 0x24 ADD PUSH1 0x20 PUSH1 0x40 MLOAD DUP1 DUP4 SUB DUP2 DUP7 GAS STATICCALL ISZERO DUP1 ISZERO PUSH2 0x256E JUMPI RETURNDATASIZE PUSH1 0x0 DUP1 RETURNDATACOPY RETURNDATASIZE PUSH1 0x0 REVERT JUMPDEST POP POP POP POP PUSH1 0x40 MLOAD RETURNDATASIZE PUSH1 0x1F NOT PUSH1 0x1F DUP3 ADD AND DUP3 ADD DUP1 PUSH1 0x40 MSTORE POP DUP2 ADD SWAP1 PUSH2 0x2592 SWAP2 SWAP1 PUSH2 0x2C3A JUMP JUMPDEST SWAP1 POP PUSH4 0x3B9ACA00 DUP2 LT PUSH2 0xE8A JUMPI PUSH1 0x0 PUSH2 0x25AC PUSH1 0x2 DUP4 PUSH2 0x2BD0 JUMP JUMPDEST SWAP1 POP PUSH1 0x0 PUSH2 0x25BA DUP3 DUP5 PUSH2 0x2C27 JUMP JUMPDEST PUSH1 0xD SLOAD SWAP1 SWAP2 POP PUSH1 0x1 PUSH1 0x1 PUSH1 0xA0 SHL SUB AND ISZERO PUSH2 0x2743 JUMPI PUSH1 0xD SLOAD PUSH1 0x40 MLOAD PUSH4 0xA9059CBB PUSH1 0xE0 SHL DUP2 MSTORE PUSH1 0x1 PUSH1 0x1 PUSH1 0xA0 SHL SUB SWAP1 SWAP2 AND PUSH1 0x4 DUP3 ADD MSTORE PUSH1 0x24 DUP2 ADD DUP4 SWAP1 MSTORE PUSH20 0xA0B86A33E6441B8DB72C5AB9CBF4428C7BB060B6 SWAP1 PUSH4 0xA9059CBB SWAP1 PUSH1 0x44 ADD PUSH1 0x20 PUSH1 0x40 MLOAD DUP1 DUP4 SUB DUP2 PUSH1 0x0 DUP8 GAS CALL ISZERO DUP1 ISZERO PUSH2 0x2633 JUMPI RETURNDATASIZE PUSH1 0x0 DUP1 RETURNDATACOPY RETURNDATASIZE PUSH1 0x0 REVERT JUMPDEST POP POP POP POP PUSH1 0x40 MLOAD RETURNDATASIZE PUSH1 0x1F NOT PUSH1 0x1F DUP3 ADD AND DUP3 ADD DUP1 PUSH1 0x40 MSTORE POP DUP2 ADD SWAP1 PUSH2 0x2657 SWAP2 SWAP1 PUSH2 0x2BF2 JUMP JUMPDEST POP DUP2 PUSH1 0xF PUSH1 0x0 DUP3 DUP3 SLOAD PUSH2 0x266A SWAP2 SWAP1 PUSH2 0x2C14 JUMP JUMPDEST SWAP1 SWAP2 SSTORE POP POP PUSH1 0xD SLOAD PUSH1 0x40 MLOAD PUSH1 0x24 DUP2 ADD DUP5 SWAP1 MSTORE PUSH1 0x0 SWAP2 PUSH1 0x1 PUSH1 0x1 PUSH1 0xA0 SHL SUB AND SWAP1 PUSH1 0x44 ADD PUSH1 0x40 DUP1 MLOAD PUSH1 0x1F NOT DUP2 DUP5 SUB ADD DUP2 MSTORE SWAP2 DUP2 MSTORE PUSH1 0x20 DUP3 ADD DUP1 MLOAD PUSH1 0x1 PUSH1 0x1 PUSH1 0xE0 SHL SUB AND PUSH4 0x63EC512D PUSH1 0xE0 SHL OR SWAP1 MSTORE MLOAD PUSH2 0x26C1 SWAP2 SWAP1 PUSH2 0x2C84 JUMP JUMPDEST PUSH1 0x0 PUSH1 0x40 MLOAD DUP1 DUP4 SUB DUP2 PUSH1 0x0 DUP7 GAS CALL SWAP2 POP POP RETURNDATASIZE DUP1 PUSH1 0x0 DUP2 EQ PUSH2 0x26FE JUMPI PUSH1 0x40 MLOAD SWAP2 POP PUSH1 0x1F NOT PUSH1 0x3F RETURNDATASIZE ADD AND DUP3 ADD PUSH1 0x40 MSTORE RETURNDATASIZE DUP3 MSTORE RETURNDATASIZE PUSH1 0x0 PUSH1 0x20 DUP5 ADD RETURNDATACOPY PUSH2 0x2703 JUMP JUMPDEST PUSH1 0x60 SWAP2 POP JUMPDEST POP POP SWAP1 POP DUP1 ISZERO PUSH2 0x2741 JUMPI PUSH1 0x40 MLOAD DUP4 DUP2 MSTORE PUSH32 0x136BF5F01D0758622BA886621B1834C6204220AD7FD36F888398706B63B7E280 SWAP1 PUSH1 0x20 ADD PUSH1 0x40 MLOAD DUP1 SWAP2 SUB SWAP1 LOG1 JUMPDEST POP JUMPDEST PUSH1 0xE SLOAD PUSH1 0x1 PUSH1 0x1 PUSH1 0xA0 SHL SUB AND ISZERO PUSH2 0x13AF JUMPI PUSH1 0xE SLOAD PUSH1 0x40 MLOAD PUSH4 0xA9059CBB PUSH1 0xE0 SHL DUP2 MSTORE PUSH1 0x1 PUSH1 0x1 PUSH1 0xA0 SHL SUB SWAP1 SWAP2 AND PUSH1 0x4 DUP3 ADD MSTORE PUSH1 0x24 DUP2 ADD DUP3 SWAP1 MSTORE PUSH20 0xA0B86A33E6441B8DB72C5AB9CBF4428C7BB060B6 SWAP1 PUSH4 0xA9059CBB SWAP1 PUSH1 0x44 ADD PUSH2 0x1A46 JUMP JUMPDEST PUSH2 0x27A7 PUSH2 0x2889 JUMP JUMPDEST PUSH1 0x1 DUP1 SLOAD PUSH1 0xFF PUSH1 0xA0 SHL NOT AND SWAP1 SSTORE PUSH32 0x5DB9EE0A495BF2E6FF9C91A7834C1BA4FDD244A5E8AA4E537BD38AEAE4B073AA CALLER JUMPDEST PUSH1 0x40 MLOAD PUSH1 0x1 PUSH1 0x1 PUSH1 0xA0 SHL SUB SWAP1 SWAP2 AND DUP2 MSTORE PUSH1 0x20 ADD PUSH1 0x40 MLOAD DUP1 SWAP2 SUB SWAP1 LOG1 JUMP JUMPDEST PUSH1 0x1 DUP1 SLOAD PUSH1 0x1 PUSH1 0x1 PUSH1 0xA0 SHL SUB DUP4 DUP2 AND PUSH1 0x1 PUSH1 0x1 PUSH1 0xA0 SHL SUB NOT DUP4 AND DUP2 OR SWAP1 SWAP4 SSTORE PUSH1 0x40 MLOAD SWAP2 AND SWAP2 SWAP1 DUP3 SWAP1 PUSH32 0x8BE0079C531659141344CD1FD0A4F28419497F9722A3DAAFE3B4186F6B6457E0 SWAP1 PUSH1 0x0 SWAP1 LOG3 POP POP JUMP JUMPDEST PUSH2 0x284E PUSH2 0x24F1 JUMP JUMPDEST PUSH1 0x1 DUP1 SLOAD PUSH1 0xFF PUSH1 0xA0 SHL NOT AND PUSH1 0x1 PUSH1 0xA0 SHL OR SWAP1 SSTORE PUSH32 0x62E78CEA01BEE320CD4E420270B5EA74000D11B0C9F74754EBDBFC544B05A258 PUSH2 0x27D7 CALLER SWAP1 JUMP JUMPDEST PUSH1 0x1 SLOAD PUSH1 0x1 PUSH1 0xA0 SHL SWAP1 DIV PUSH1 0xFF AND PUSH2 0xF63 JUMPI PUSH1 0x40 MLOAD PUSH4 0x8DFC202B PUSH1 0xE0 SHL DUP2 MSTORE PUSH1 0x4 ADD PUSH1 0x40 MLOAD DUP1 SWAP2 SUB SWAP1 REVERT JUMPDEST PUSH1 0x0 DUP1 PUSH1 0x40 DUP4 DUP6 SUB SLT ISZERO PUSH2 0x28C6 JUMPI PUSH1 0x0 DUP1 REVERT JUMPDEST POP POP DUP1 CALLDATALOAD SWAP3 PUSH1 0x20 SWAP1 SWAP2 ADD CALLDATALOAD SWAP2 POP JUMP JUMPDEST PUSH1 0x0 DUP2 MLOAD DUP1 DUP5 MSTORE PUSH1 0x20 DUP1 DUP6 ADD SWAP5 POP DUP1 DUP5 ADD PUSH1 0x0 JUMPDEST DUP4 DUP2 LT ISZERO PUSH2 0x2905 JUMPI DUP2 MLOAD DUP8 MSTORE SWAP6 DUP3 ADD SWAP6 SWAP1 DUP3 ADD SWAP1 PUSH1 0x1 ADD PUSH2 0x28E9 JUMP JUMPDEST POP SWAP5 SWAP6 SWAP5 POP POP POP POP POP JUMP JUMPDEST PUSH1 0x60 DUP2 MSTORE PUSH1 0x0 PUSH2 0x2923 PUSH1 0x60 DUP4 ADD DUP7 PUSH2 0x28D5 JUMP JUMPDEST DUP3 DUP2 SUB PUSH1 0x20 DUP5 ADD MSTORE PUSH2 0x2935 DUP2 DUP7 PUSH2 0x28D5 JUMP JUMPDEST SWAP1 POP DUP3 DUP2 SUB PUSH1 0x40 DUP5 ADD MSTORE PUSH2 0x2949 DUP2 DUP6 PUSH2 0x28D5 JUMP JUMPDEST SWAP7 SWAP6 POP POP POP POP POP POP JUMP JUMPDEST DUP1 CALLDATALOAD PUSH1 0x1 PUSH1 0x1 PUSH1 0xA0 SHL SUB DUP2 AND DUP2 EQ PUSH2 0x296A JUMPI PUSH1 0x0 DUP1 REVERT JUMPDEST SWAP2 SWAP1 POP JUMP JUMPDEST PUSH1 0x0 DUP1 PUSH1 0x40 DUP4 DUP6 SUB SLT ISZERO PUSH2 0x2982 JUMPI PUSH1 0x0 DUP1 REVERT JUMPDEST PUSH2 0x298B DUP4 PUSH2 0x2953 JUMP JUMPDEST SWAP5 PUSH1 0x20 SWAP4 SWAP1 SWAP4 ADD CALLDATALOAD SWAP4 POP POP POP JUMP JUMPDEST PUSH1 0x0 PUSH1 0x20 DUP3 DUP5 SUB SLT ISZERO PUSH2 0x29AB JUMPI PUSH1 0x0 DUP1 REVERT JUMPDEST POP CALLDATALOAD SWAP2 SWAP1 POP JUMP JUMPDEST PUSH1 0x0 PUSH1 0x20 DUP3 DUP5 SUB SLT ISZERO PUSH2 0x29C4 JUMPI PUSH1 0x0 DUP1 REVERT JUMPDEST PUSH2 0x29CD DUP3 PUSH2 0x2953 JUMP JUMPDEST SWAP4 SWAP3 POP POP POP JUMP JUMPDEST PUSH4 0x4E487B71 PUSH1 0xE0 SHL PUSH1 0x0 MSTORE PUSH1 0x41 PUSH1 0x4 MSTORE PUSH1 0x24 PUSH1 0x0 REVERT JUMPDEST PUSH1 0x0 DUP1 PUSH1 0x40 DUP4 DUP6 SUB SLT ISZERO PUSH2 0x29FD JUMPI PUSH1 0x0 DUP1 REVERT JUMPDEST DUP3 CALLDATALOAD SWAP2 POP PUSH1 0x20 DUP4 ADD CALLDATALOAD PUSH8 0xFFFFFFFFFFFFFFFF DUP1 DUP3 GT ISZERO PUSH2 0x2A1C JUMPI PUSH1 0x0 DUP1 REVERT JUMPDEST DUP2 DUP6 ADD SWAP2 POP DUP6 PUSH1 0x1F DUP4 ADD SLT PUSH2 0x2A30 JUMPI PUSH1 0x0 DUP1 REVERT JUMPDEST DUP2 CALLDATALOAD DUP2 DUP2 GT ISZERO PUSH2 0x2A42 JUMPI PUSH2 0x2A42 PUSH2 0x29D4 JUMP JUMPDEST PUSH1 0x40 MLOAD PUSH1 0x1F DUP3 ADD PUSH1 0x1F NOT SWAP1 DUP2 AND PUSH1 0x3F ADD AND DUP2 ADD SWAP1 DUP4 DUP3 GT DUP2 DUP4 LT OR ISZERO PUSH2 0x2A6A JUMPI PUSH2 0x2A6A PUSH2 0x29D4 JUMP JUMPDEST DUP2 PUSH1 0x40 MSTORE DUP3 DUP2 MSTORE DUP9 PUSH1 0x20 DUP5 DUP8 ADD ADD GT ISZERO PUSH2 0x2A83 JUMPI PUSH1 0x0 DUP1 REVERT JUMPDEST DUP3 PUSH1 0x20 DUP7 ADD PUSH1 0x20 DUP4 ADD CALLDATACOPY PUSH1 0x0 PUSH1 0x20 DUP5 DUP4 ADD ADD MSTORE DUP1 SWAP6 POP POP POP POP POP POP SWAP3 POP SWAP3 SWAP1 POP JUMP JUMPDEST PUSH1 0x0 JUMPDEST DUP4 DUP2 LT ISZERO PUSH2 0x2AC0 JUMPI DUP2 DUP2 ADD MLOAD DUP4 DUP3 ADD MSTORE PUSH1 0x20 ADD PUSH2 0x2AA8 JUMP JUMPDEST POP POP PUSH1 0x0 SWAP2 ADD MSTORE JUMP JUMPDEST PUSH1 0x0 DUP2 MLOAD DUP1 DUP5 MSTORE PUSH2 0x2AE1 DUP2 PUSH1 0x20 DUP7 ADD PUSH1 0x20 DUP7 ADD PUSH2 0x2AA5 JUMP JUMPDEST PUSH1 0x1F ADD PUSH1 0x1F NOT AND SWAP3 SWAP1 SWAP3 ADD PUSH1 0x20 ADD SWAP3 SWAP2 POP POP JUMP JUMPDEST DUP4 ISZERO ISZERO DUP2 MSTORE PUSH1 0x60 PUSH1 0x20 DUP3 ADD MSTORE PUSH1 0x0 PUSH2 0x2B10 PUSH1 0x60 DUP4 ADD DUP6 PUSH2 0x2AC9 JUMP JUMPDEST SWAP1 POP DUP3 PUSH1 0x40 DUP4 ADD MSTORE SWAP5 SWAP4 POP POP POP POP JUMP JUMPDEST PUSH1 0x0 DUP1 PUSH1 0x0 PUSH1 0x60 DUP5 DUP7 SUB SLT ISZERO PUSH2 0x2B35 JUMPI PUSH1 0x0 DUP1 REVERT JUMPDEST PUSH2 0x2B3E DUP5 PUSH2 0x2953 JUMP JUMPDEST SWAP6 PUSH1 0x20 DUP6 ADD CALLDATALOAD SWAP6 POP PUSH1 0x40 SWAP1 SWAP5 ADD CALLDATALOAD SWAP4 SWAP3 POP POP POP JUMP JUMPDEST DUP3 DUP2 MSTORE PUSH1 0x40 PUSH1 0x20 DUP3 ADD MSTORE PUSH1 0x0 PUSH2 0x2B6C PUSH1 0x40 DUP4 ADD DUP5 PUSH2 0x28D5 JUMP JUMPDEST SWAP5 SWAP4 POP POP POP POP JUMP JUMPDEST PUSH4 0x4E487B71 PUSH1 0xE0 SHL PUSH1 0x0 MSTORE PUSH1 0x32 PUSH1 0x4 MSTORE PUSH1 0x24 PUSH1 0x0 REVERT JUMPDEST PUSH4 0x4E487B71 PUSH1 0xE0 SHL PUSH1 0x0 MSTORE PUSH1 0x11 PUSH1 0x4 MSTORE PUSH1 0x24 PUSH1 0x0 REVERT JUMPDEST PUSH1 0x0 PUSH1 0x1 DUP3 ADD PUSH2 0x2BB2 JUMPI PUSH2 0x2BB2 PUSH2 0x2B8A JUMP JUMPDEST POP PUSH1 0x1 ADD SWAP1 JUMP JUMPDEST DUP1 DUP3 MUL DUP2 ISZERO DUP3 DUP3 DIV DUP5 EQ OR PUSH2 0x1103 JUMPI PUSH2 0x1103 PUSH2 0x2B8A JUMP JUMPDEST PUSH1 0x0 DUP3 PUSH2 0x2BED JUMPI PUSH4 0x4E487B71 PUSH1 0xE0 SHL PUSH1 0x0 MSTORE PUSH1 0x12 PUSH1 0x4 MSTORE PUSH1 0x24 PUSH1 0x0 REVERT JUMPDEST POP DIV SWAP1 JUMP JUMPDEST PUSH1 0x0 PUSH1 0x20 DUP3 DUP5 SUB SLT ISZERO PUSH2 0x2C04 JUMPI PUSH1 0x0 DUP1 REVERT JUMPDEST DUP2 MLOAD DUP1 ISZERO ISZERO DUP2 EQ PUSH2 0x29CD JUMPI PUSH1 0x0 DUP1 REVERT JUMPDEST DUP1 DUP3 ADD DUP1 DUP3 GT ISZERO PUSH2 0x1103 JUMPI PUSH2 0x1103 PUSH2 0x2B8A JUMP JUMPDEST DUP2 DUP2 SUB DUP2 DUP2 GT ISZERO PUSH2 0x1103 JUMPI PUSH2 0x1103 PUSH2 0x2B8A JUMP JUMPDEST PUSH1 0x0 PUSH1 0x20 DUP3 DUP5 SUB SLT ISZERO PUSH2 0x2C4C JUMPI PUSH1 0x0 DUP1 REVERT JUMPDEST POP MLOAD SWAP2 SWAP1 POP JUMP JUMPDEST DUP4 DUP2 MSTORE PUSH1 0x60 PUSH1 0x20 DUP3 ADD MSTORE PUSH1 0x0 PUSH2 0x2C6C PUSH1 0x60 DUP4 ADD DUP6 PUSH2 0x2AC9 JUMP JUMPDEST SWAP1 POP PUSH1 0x1 DUP1 PUSH1 0xA0 SHL SUB DUP4 AND PUSH1 0x40 DUP4 ADD MSTORE SWAP5 SWAP4 POP POP POP POP JUMP JUMPDEST PUSH1 0x0 DUP3 MLOAD PUSH2 0x2C96 DUP2 DUP5 PUSH1 0x20 DUP8 ADD PUSH2 0x2AA5 JUMP JUMPDEST SWAP2 SWAP1 SWAP2 ADD SWAP3 SWAP2 POP POP JUMP INVALID LOG2 PUSH5 0x6970667358 0x22 SLT KECCAK256 0xC2 0x22 0xE2 CALLDATACOPY 0xED 0xCC 0xCB 0xC CODESIZE 0x4F PUSH7 0x62AE1FFDBBA099 JUMPDEST BYTE PUSH27 0x15608AA164781AA018EF264736F6C634300081400330000000000 "},"methodIdentifiers":{"BURN_ADDRESS()":"fccc2813","BURN_INTERVAL()":"7b1648e2","BURN_PERCENTAGE()":"9649b910","SOLAR_TOKEN()":"bda064eb","TREASURY_THRESHOLD()":"e8039ea0","USDC()":"89a30271","burnEvents()":"3b660aaa","calculateBurnAmount()":"eee1e7e5","canExecuteQuarterlyBurn()":"5ca974a7","checkAccess(address,bytes32)":"7461f24a","companyAllocatedRevenue()":"c3412cab","companyTreasuryContract()":"5ba091c8","depositToTreasuries()":"cf3b52be","emergencyWithdraw(address,uint256)":"95ccea67","executeQuarterlyBurn()":"d02fd823","featurePricing(bytes32)":"1d295070","featureRequirements(bytes32)":"37f9a42f","featureUsage(bytes32)":"d42cda58","getAllFeatureRequirements()":"13ae8972","getFeaturePricing(bytes32)":"e0637b6a","getFeatureRequirement(bytes32)":"28c582a3","getRevenueSplit()":"e1d37e60","getStats()":"c59d4847","getUserFeatureAccess(address,bytes32)":"ba5f1384","getUserStatus(address)":"ea0d5dcd","grantPermanentAccess(address,bytes32)":"ad8ea4b6","grantTemporaryAccess(address,bytes32,uint256)":"e001bfbe","lastBurnTime()":"e3067449","morphoAllocatedRevenue()":"685789cc","morphoTreasuryContract()":"f5cc4651","owner()":"8da5cb5b","paidAccess(address,bytes32)":"18f59140","pause()":"8456cb59","paused()":"5c975abb","permanentAccess(address,bytes32)":"cc58bcdf","purchaseFeatureAccess(bytes32,uint256)":"183973df","renounceOwnership()":"715018a6","setBurnPercentage(uint256)":"c3f0d327","setCompanyTreasuryContract(address)":"74771329","setFeaturePricing(bytes32,uint256)":"e81f097e","setFeatureRequirement(bytes32,uint256)":"0a43948e","setMorphoTreasuryContract(address)":"2ae6fce5","strategicBurn(uint256,string)":"854ca169","temporaryAccess(address,bytes32)":"40dd0f70","timeUntilNextBurn()":"5a1ab780","totalBurned()":"d89135cd","totalRevenue()":"bf2d9e0b","transferOwnership(address)":"f2fde38b","unpause()":"3f4ba83a","useFeature(bytes32)":"23409a28","userFeatureUsage(address,bytes32)":"c9715a2f"}}}}}