{"contracts/deployment/MorphoTreasury.sol":{"MorphoTreasury":{"abi":[{"inputs":[{"internalType":"address","name":"_stakingContract","type":"address"},{"internalType":"address","name":"_burnContract","type":"address"},{"internalType":"address","name":"_airdropContract","type":"address"},{"internalType":"address","name":"_developmentContract","type":"address"}],"stateMutability":"nonpayable","type":"constructor"},{"inputs":[],"name":"EnforcedPause","type":"error"},{"inputs":[],"name":"ExpectedPause","type":"error"},{"inputs":[{"internalType":"address","name":"owner","type":"address"}],"name":"OwnableInvalidOwner","type":"error"},{"inputs":[{"internalType":"address","name":"account","type":"address"}],"name":"OwnableUnauthorizedAccount","type":"error"},{"inputs":[],"name":"ReentrancyGuardReentrantCall","type":"error"},{"anonymous":false,"inputs":[{"indexed":false,"internalType":"string","name":"contractType","type":"string"},{"indexed":false,"internalType":"address","name":"newAddress","type":"address"}],"name":"ContractUpdated","type":"event"},{"anonymous":false,"inputs":[{"indexed":true,"internalType":"address","name":"previousOwner","type":"address"},{"indexed":true,"internalType":"address","name":"newOwner","type":"address"}],"name":"OwnershipTransferred","type":"event"},{"anonymous":false,"inputs":[{"indexed":false,"internalType":"address","name":"account","type":"address"}],"name":"Paused","type":"event"},{"anonymous":false,"inputs":[{"indexed":false,"internalType":"uint256","name":"amount","type":"uint256"},{"indexed":false,"internalType":"uint256","name":"morphoShares","type":"uint256"}],"name":"USDCDeposited","type":"event"},{"anonymous":false,"inputs":[{"indexed":false,"internalType":"uint256","name":"amount","type":"uint256"},{"indexed":false,"internalType":"address","name":"recipient","type":"address"}],"name":"USDCWithdrawn","type":"event"},{"anonymous":false,"inputs":[{"indexed":false,"internalType":"address","name":"account","type":"address"}],"name":"Unpaused","type":"event"},{"anonymous":false,"inputs":[{"indexed":true,"internalType":"address","name":"recipient","type":"address"},{"indexed":false,"internalType":"uint256","name":"amount","type":"uint256"}],"name":"YieldClaimed","type":"event"},{"anonymous":false,"inputs":[{"indexed":false,"internalType":"uint256","name":"totalYield","type":"uint256"},{"indexed":false,"internalType":"uint256","name":"stakingShare","type":"uint256"},{"indexed":false,"internalType":"uint256","name":"burnShare","type":"uint256"},{"indexed":false,"internalType":"uint256","name":"airdropShare","type":"uint256"},{"indexed":false,"internalType":"uint256","name":"developmentShare","type":"uint256"}],"name":"YieldDistributed","type":"event"},{"inputs":[],"name":"AIRDROP_YIELD_SHARE","outputs":[{"internalType":"uint256","name":"","type":"uint256"}],"stateMutability":"view","type":"function"},{"inputs":[],"name":"BURN_YIELD_SHARE","outputs":[{"internalType":"uint256","name":"","type":"uint256"}],"stateMutability":"view","type":"function"},{"inputs":[],"name":"DEVELOPMENT_YIELD_SHARE","outputs":[{"internalType":"uint256","name":"","type":"uint256"}],"stateMutability":"view","type":"function"},{"inputs":[],"name":"MORPHO","outputs":[{"internalType":"contract IMorpho","name":"","type":"address"}],"stateMutability":"view","type":"function"},{"inputs":[],"name":"STAKING_YIELD_SHARE","outputs":[{"internalType":"uint256","name":"","type":"uint256"}],"stateMutability":"view","type":"function"},{"inputs":[],"name":"USDC","outputs":[{"internalType":"contract IERC20","name":"","type":"address"}],"stateMutability":"view","type":"function"},{"inputs":[],"name":"USDC_MARKET","outputs":[{"internalType":"address","name":"","type":"address"}],"stateMutability":"view","type":"function"},{"inputs":[],"name":"accumulatedYield","outputs":[{"internalType":"uint256","name":"","type":"uint256"}],"stateMutability":"view","type":"function"},{"inputs":[{"internalType":"uint256","name":"amount","type":"uint256"}],"name":"addRevenue","outputs":[],"stateMutability":"nonpayable","type":"function"},{"inputs":[],"name":"airdropContract","outputs":[{"internalType":"address","name":"","type":"address"}],"stateMutability":"view","type":"function"},{"inputs":[],"name":"burnContract","outputs":[{"internalType":"address","name":"","type":"address"}],"stateMutability":"view","type":"function"},{"inputs":[{"internalType":"uint256","name":"amount","type":"uint256"}],"name":"claimYield","outputs":[],"stateMutability":"nonpayable","type":"function"},{"inputs":[{"internalType":"uint256","name":"amount","type":"uint256"}],"name":"depositToMorpho","outputs":[],"stateMutability":"nonpayable","type":"function"},{"inputs":[],"name":"developmentContract","outputs":[{"internalType":"address","name":"","type":"address"}],"stateMutability":"view","type":"function"},{"inputs":[{"internalType":"address","name":"token","type":"address"},{"internalType":"uint256","name":"amount","type":"uint256"}],"name":"emergencyWithdraw","outputs":[],"stateMutability":"nonpayable","type":"function"},{"inputs":[],"name":"estimateCurrentYield","outputs":[{"internalType":"uint256","name":"estimatedYield","type":"uint256"}],"stateMutability":"view","type":"function"},{"inputs":[],"name":"forceYieldUpdate","outputs":[],"stateMutability":"nonpayable","type":"function"},{"inputs":[{"internalType":"address","name":"user","type":"address"}],"name":"getAvailableYield","outputs":[{"internalType":"uint256","name":"available","type":"uint256"}],"stateMutability":"view","type":"function"},{"inputs":[],"name":"getCurrentBalance","outputs":[{"internalType":"uint256","name":"balance","type":"uint256"}],"stateMutability":"view","type":"function"},{"inputs":[],"name":"getEstimatedAPY","outputs":[{"internalType":"uint256","name":"apy","type":"uint256"}],"stateMutability":"view","type":"function"},{"inputs":[],"name":"getMorphoBalance","outputs":[{"internalType":"uint256","name":"morphoBalance","type":"uint256"}],"stateMutability":"view","type":"function"},{"inputs":[],"name":"getTreasuryStats","outputs":[{"internalType":"uint256","name":"totalBalance","type":"uint256"},{"internalType":"uint256","name":"deposited","type":"uint256"},{"internalType":"uint256","name":"withdrawn","type":"uint256"},{"internalType":"uint256","name":"totalYield","type":"uint256"},{"internalType":"uint256","name":"lastUpdate","type":"uint256"}],"stateMutability":"view","type":"function"},{"inputs":[],"name":"lastYieldUpdate","outputs":[{"internalType":"uint256","name":"","type":"uint256"}],"stateMutability":"view","type":"function"},{"inputs":[],"name":"needsYieldUpdate","outputs":[{"internalType":"bool","name":"needed","type":"bool"}],"stateMutability":"view","type":"function"},{"inputs":[],"name":"owner","outputs":[{"internalType":"address","name":"","type":"address"}],"stateMutability":"view","type":"function"},{"inputs":[],"name":"pause","outputs":[],"stateMutability":"nonpayable","type":"function"},{"inputs":[],"name":"paused","outputs":[{"internalType":"bool","name":"","type":"bool"}],"stateMutability":"view","type":"function"},{"inputs":[],"name":"renounceOwnership","outputs":[],"stateMutability":"nonpayable","type":"function"},{"inputs":[{"internalType":"address","name":"newAirdropContract","type":"address"}],"name":"setAirdropContract","outputs":[],"stateMutability":"nonpayable","type":"function"},{"inputs":[{"internalType":"address","name":"newBurnContract","type":"address"}],"name":"setBurnContract","outputs":[],"stateMutability":"nonpayable","type":"function"},{"inputs":[{"internalType":"address","name":"newDevelopmentContract","type":"address"}],"name":"setDevelopmentContract","outputs":[],"stateMutability":"nonpayable","type":"function"},{"inputs":[{"internalType":"address","name":"newStakingContract","type":"address"}],"name":"setStakingContract","outputs":[],"stateMutability":"nonpayable","type":"function"},{"inputs":[],"name":"stakingContract","outputs":[{"internalType":"address","name":"","type":"address"}],"stateMutability":"view","type":"function"},{"inputs":[],"name":"totalDeposited","outputs":[{"internalType":"uint256","name":"","type":"uint256"}],"stateMutability":"view","type":"function"},{"inputs":[],"name":"totalWithdrawn","outputs":[{"internalType":"uint256","name":"","type":"uint256"}],"stateMutability":"view","type":"function"},{"inputs":[{"internalType":"address","name":"newOwner","type":"address"}],"name":"transferOwnership","outputs":[],"stateMutability":"nonpayable","type":"function"},{"inputs":[],"name":"unpause","outputs":[],"stateMutability":"nonpayable","type":"function"},{"inputs":[],"name":"updateYield","outputs":[],"stateMutability":"nonpayable","type":"function"},{"inputs":[{"internalType":"uint256","name":"amount","type":"uint256"},{"internalType":"address","name":"recipient","type":"address"}],"name":"withdrawFromMorpho","outputs":[],"stateMutability":"nonpayable","type":"function"},{"inputs":[{"internalType":"address","name":"","type":"address"}],"name":"yieldAllocated","outputs":[{"internalType":"uint256","name":"","type":"uint256"}],"stateMutability":"view","type":"function"},{"inputs":[{"internalType":"address","name":"","type":"address"}],"name":"yieldClaimed","outputs":[{"internalType":"uint256","name":"","type":"uint256"}],"stateMutability":"view","type":"function"}],"evm":{"bytecode":{"linkReferences":{},"object":"60806040523480156200001157600080fd5b5060405162001f6338038062001f63833981016040819052620000349162000133565b600160005533806200006057604051631e4fbdf760e01b81526000600482015260240160405180910390fd5b6200006b81620000c4565b50600680546001600160a01b039586166001600160a01b03199182161790915560078054948616948216949094179093556008805492851692841692909217909155600980549190931691161790554260045562000190565b600180546001600160a01b038381166001600160a01b0319831681179093556040519116919082907f8be0079c531659141344cd1fd0a4f28419497f9722a3daafe3b4186f6b6457e090600090a35050565b80516001600160a01b03811681146200012e57600080fd5b919050565b600080600080608085870312156200014a57600080fd5b620001558562000116565b9350620001656020860162000116565b9250620001756040860162000116565b9150620001856060860162000116565b905092959194509250565b611dc380620001a06000396000f3fe608060405234801561001057600080fd5b50600436106102535760003560e01c80638f8c8aee11610146578063bf640de7116100c3578063f22645a811610087578063f22645a8146104db578063f2fde38b146104ee578063f78fae4614610501578063fcdfd5c514610509578063fe24881514610512578063ff50abdc1461051b57600080fd5b8063bf640de71461046a578063c8692e3f1461047d578063ccaad55d146104ad578063d224ff73146104b5578063ee99205c146104c857600080fd5b8063a481293f1161010a578063a481293f1461042c578063a574971014610434578063ab2be7261461043c578063b23258761461044f578063bb21a9971461046257600080fd5b80638f8c8aee146103d9578063932b334e146103e257806395ccea67146103eb5780639dd373b9146103fe578063a13c58471461041157600080fd5b80634b319713116101d4578063715018a611610198578063715018a61461039a5780638456cb59146103a257806389a30271146103aa5780638da5cb5b146103bf5780638dac0157146103d057600080fd5b80634b3197131461032d5780634c859eaf146103365780635c975abb1461035657806363ec512d146103745780636f0115381461038757600080fd5b80633bdcfc1f1161021b5780633bdcfc1f146102d75780633f4ba83a146102ea57806340bd2e23146102f257806342879af11461030557806345bba6971461030d57600080fd5b80630e085281146102585780630efb03d3146102735780631c0973a41461027c57806337beafe0146102a75780633acb5624146102bc575b600080fd5b610260610524565b6040519081526020015b60405180910390f35b610260610fa081565b60075461028f906001600160a01b031681565b6040516001600160a01b03909116815260200161026a565b6102ba6102b5366004611b6c565b6105bb565b005b61028f73bbbbbbbbbb9cc5e90e3b3af64bdaf62c37eeffcb81565b6102ba6102e5366004611b87565b610654565b6102ba6109a2565b6102ba610300366004611b87565b6109b4565b610260610c9a565b61026061031b366004611b6c565b600b6020526000908152604090205481565b61026060035481565b610260610344366004611b6c565b600a6020526000908152604090205481565b600154600160a01b900460ff165b604051901515815260200161026a565b6102ba610382366004611b87565b610cef565b6102ba610395366004611b6c565b610d81565b6102ba610e0d565b6102ba610e1f565b61028f600080516020611d6e83398151915281565b6001546001600160a01b031661028f565b610260610bb881565b61026060045481565b6102606107d081565b6102ba6103f9366004611ba0565b610e2f565b6102ba61040c366004611b6c565b610ead565b61028f73111111111111111111111111111111111111111181565b610364610f39565b610260610f54565b60085461028f906001600160a01b031681565b61026061045d366004611b6c565b611061565b6102ba611095565b6102ba610478366004611bca565b6112cb565b6104856116a3565b604080519586526020860194909452928401919091526060830152608082015260a00161026a565b6102606116d0565b60095461028f906001600160a01b031681565b60065461028f906001600160a01b031681565b6102ba6104e9366004611b6c565b61174e565b6102ba6104fc366004611b6c565b6117de565b6102ba611819565b61026060055481565b6102606103e881565b61026060025481565b604051633de222bb60e21b8152306004820152731111111111111111111111111111111111111111602482015260009073bbbbbbbbbb9cc5e90e3b3af64bdaf62c37eeffcb9063f7888aec90604401602060405180830381865afa9250505080156105ac575060408051601f3d908101601f191682019092526105a991810190611bf6565b60015b6105b65750600090565b905090565b6105c3611821565b6001600160a01b0381166105f25760405162461bcd60e51b81526004016105e990611c0f565b60405180910390fd5b600780546001600160a01b0319166001600160a01b0383169081179091556040805181815260049181019190915263313ab93760e11b60608201526020810191909152600080516020611d4e833981519152906080015b60405180910390a150565b61065c611821565b61066461184e565b61066c611878565b600081116106bc5760405162461bcd60e51b815260206004820152601d60248201527f416d6f756e74206d7573742062652067726561746572207468616e203000000060448201526064016105e9565b6040516370a0823160e01b81523360048201528190600080516020611d6e833981519152906370a0823190602401602060405180830381865afa158015610707573d6000803e3d6000fd5b505050506040513d601f19601f8201168201806040525081019061072b9190611bf6565b10156107795760405162461bcd60e51b815260206004820152601960248201527f496e73756666696369656e7420555344432062616c616e63650000000000000060448201526064016105e9565b6040516323b872dd60e01b815233600482015230602482015260448101829052600080516020611d6e833981519152906323b872dd906064016020604051808303816000875af11580156107d1573d6000803e3d6000fd5b505050506040513d601f19601f820116820180604052508101906107f59190611c38565b5060405163095ea7b360e01b815273bbbbbbbbbb9cc5e90e3b3af64bdaf62c37eeffcb600482015260248101829052600080516020611d6e8339815191529063095ea7b3906044016020604051808303816000875af115801561085c573d6000803e3d6000fd5b505050506040513d601f19601f820116820180604052508101906108809190611c38565b506040516330df733960e21b815273bbbbbbbbbb9cc5e90e3b3af64bdaf62c37eeffcb9063c37dcce4906108d3907311111111111111111111111111111111111111119085906000903090600401611c5a565b60408051808303816000875af192505050801561090d575060408051601f3d908101601f1916820190925261090a91810190611c94565b60015b6109545780600260008282546109239190611cce565b90915550506040805182815260006020820152600080516020611d2e833981519152910160405180910390a1610995565b81600260008282546109669190611cce565b90915550506040805183815260208101839052600080516020611d2e833981519152910160405180910390a150505b61099f6001600055565b50565b6109aa611821565b6109b26118a3565b565b6109bc61184e565b6109c4611095565b336000908152600b6020908152604080832054600a9092528220546109e99190611ce1565b905060008111610a305760405162461bcd60e51b81526020600482015260126024820152714e6f207969656c6420617661696c61626c6560701b60448201526064016105e9565b60008215610a3e5782610a40565b815b905081811115610a925760405162461bcd60e51b815260206004820152601a60248201527f496e73756666696369656e74207969656c642062616c616e636500000000000060448201526064016105e9565b336000908152600b602052604081208054839290610ab1908490611cce565b90915550506040516370a0823160e01b8152306004820152600090600080516020611d6e833981519152906370a0823190602401602060405180830381865afa158015610b02573d6000803e3d6000fd5b505050506040513d601f19601f82011682018060405250810190610b269190611bf6565b905081811015610bda5760405163f99d990160e01b8152731111111111111111111111111111111111111111600482015260248101839052600060448201523060648201819052608482015273bbbbbbbbbb9cc5e90e3b3af64bdaf62c37eeffcb9063f99d99019060a40160408051808303816000875af1925050508015610bcb575060408051601f3d908101601f19168201909252610bc891810190611c94565b60015b610bd757809150610bda565b50505b8115610c8d5760405163a9059cbb60e01b815233600482015260248101839052600080516020611d6e8339815191529063a9059cbb906044016020604051808303816000875af1158015610c32573d6000803e3d6000fd5b505050506040513d601f19601f82011682018060405250810190610c569190611c38565b5060405182815233907fc04825ba3f383b602255d2a13065a68e325c65c9e0ed5d031ea2b06f641873af9060200160405180910390a25b50505061099f6001600055565b600080610ca5610f54565b90506000600354600254610cb99190611ce1565b905060055481610cc99190611cce565b821115610cea57600554610cdd8284611ce1565b610ce79190611ce1565b92505b505090565b6040516370a0823160e01b8152306004820152600090600080516020611d6e833981519152906370a0823190602401602060405180830381865afa158015610d3b573d6000803e3d6000fd5b505050506040513d601f19601f82011682018060405250810190610d5f9190611bf6565b90506305f5e1008110610d7557610d75816118f8565b610d7d611095565b5050565b610d89611821565b6001600160a01b038116610daf5760405162461bcd60e51b81526004016105e990611c0f565b600880546001600160a01b0319166001600160a01b0383169081179091556040805181815260079181019190915266061697264726f760cc1b60608201526020810191909152600080516020611d4e83398151915290608001610649565b610e15611821565b6109b26000611a91565b610e27611821565b6109b2611ae3565b610e37611821565b60405163a9059cbb60e01b8152336004820152602481018290526001600160a01b0383169063a9059cbb906044016020604051808303816000875af1158015610e84573d6000803e3d6000fd5b505050506040513d601f19601f82011682018060405250810190610ea89190611c38565b505050565b610eb5611821565b6001600160a01b038116610edb5760405162461bcd60e51b81526004016105e990611c0f565b600680546001600160a01b0319166001600160a01b03831690811790915560408051818152600791810191909152667374616b696e6760c81b60608201526020810191909152600080516020611d4e83398151915290608001610649565b600060045462015180610f4c9190611cce565b421015905090565b6040516370a0823160e01b81523060048201526000908190600080516020611d6e833981519152906370a0823190602401602060405180830381865afa158015610fa2573d6000803e3d6000fd5b505050506040513d601f19601f82011682018060405250810190610fc69190611bf6565b604051633de222bb60e21b8152306004820152731111111111111111111111111111111111111111602482015290915073bbbbbbbbbb9cc5e90e3b3af64bdaf62c37eeffcb9063f7888aec90604401602060405180830381865afa92505050801561104e575060408051601f3d908101601f1916820190925261104b91810190611bf6565b60015b61105757919050565b610ce78183611cce565b6001600160a01b0381166000908152600b6020908152604080832054600a90925282205461108f9190611ce1565b92915050565b600061109f610f54565b905060006003546002546110b39190611ce1565b905080821115610d7d576005546000906110cd8385611ce1565b6110d79190611ce1565b90508015610ea85760006127106110f0610fa084611cf4565b6110fa9190611d0b565b9050600061271061110d610bb885611cf4565b6111179190611d0b565b9050600061271061112a6107d086611cf4565b6111349190611d0b565b905060006127106111476103e887611cf4565b6111519190611d0b565b6006549091506001600160a01b031615611195576006546001600160a01b03166000908152600a60205260408120805486929061118f908490611cce565b90915550505b6007546001600160a01b0316156111d6576007546001600160a01b03166000908152600a6020526040812080548592906111d0908490611cce565b90915550505b6008546001600160a01b031615611217576008546001600160a01b03166000908152600a602052604081208054849290611211908490611cce565b90915550505b6009546001600160a01b031615611258576009546001600160a01b03166000908152600a602052604081208054839290611252908490611cce565b90915550505b846005600082825461126a9190611cce565b909155505042600455604080518681526020810186905290810184905260608101839052608081018290527f5dc1ebb0e1fb519730f90700983931f4bde943ccb491773f30bc8b1417feaf6d9060a00160405180910390a150505050505050565b6112d3611821565b6112db61184e565b6000821161132b5760405162461bcd60e51b815260206004820152601d60248201527f416d6f756e74206d7573742062652067726561746572207468616e203000000060448201526064016105e9565b6001600160a01b0381166113755760405162461bcd60e51b8152602060048201526011602482015270125b9d985b1a59081c9958da5c1a595b9d607a1b60448201526064016105e9565b61137d611095565b6040516370a0823160e01b8152306004820152600090600080516020611d6e833981519152906370a0823190602401602060405180830381865afa1580156113c9573d6000803e3d6000fd5b505050506040513d601f19601f820116820180604052508101906113ed9190611bf6565b905082811061147b5760405163a9059cbb60e01b81526001600160a01b038316600482015260248101849052600080516020611d6e8339815191529063a9059cbb906044016020604051808303816000875af1158015611451573d6000803e3d6000fd5b505050506040513d601f19601f820116820180604052508101906114759190611c38565b50611657565b60405163f99d990160e01b8152731111111111111111111111111111111111111111600482015260248101849052600060448201523060648201819052608482015273bbbbbbbbbb9cc5e90e3b3af64bdaf62c37eeffcb9063f99d99019060a40160408051808303816000875af1925050508015611516575060408051601f3d908101601f1916820190925261151391810190611c94565b60015b6115bd5780156115b85760405163a9059cbb60e01b81526001600160a01b038316600482015260248101829052600080516020611d6e8339815191529063a9059cbb906044016020604051808303816000875af115801561157b573d6000803e3d6000fd5b505050506040513d601f19601f8201168201806040525081019061159f9190611c38565b5080600360008282546115b29190611cce565b90915550505b611657565b60405163a9059cbb60e01b81526001600160a01b038516600482015260248101839052600080516020611d6e8339815191529063a9059cbb906044016020604051808303816000875af1158015611618573d6000803e3d6000fd5b505050506040513d601f19601f8201168201806040525081019061163c9190611c38565b50816003600082825461164f9190611cce565b909155505050505b604080518481526001600160a01b03841660208201527fa59a09dbed02191f26ab21e73b64160fde703647e4dbf06378d43a0e271d0bfa910160405180910390a150610d7d6001600055565b60008060008060006116b3610f54565b945060025493506003549250600554915060045490509091929394565b6000600254600014806116e35750600554155b156116ee5750600090565b6000600454426116fe9190611ce1565b90508060000361171057600091505090565b6000816002546117209190611cf4565b600554611731906301e13380611cf4565b61173d90612710611cf4565b6117479190611d0b565b9392505050565b611756611821565b6001600160a01b03811661177c5760405162461bcd60e51b81526004016105e990611c0f565b600980546001600160a01b0319166001600160a01b03831690811790915560408051818152600b918101919091526a19195d995b1bdc1b595b9d60aa1b60608201526020810191909152600080516020611d4e83398151915290608001610649565b6117e6611821565b6001600160a01b03811661181057604051631e4fbdf760e01b8152600060048201526024016105e9565b61099f81611a91565b6109b2611095565b6001546001600160a01b031633146109b25760405163118cdaa760e01b81523360048201526024016105e9565b60026000540361187157604051633ee5aeb560e01b815260040160405180910390fd5b6002600055565b600154600160a01b900460ff16156109b25760405163d93c066560e01b815260040160405180910390fd5b6118ab611b26565b6001805460ff60a01b191690557f5db9ee0a495bf2e6ff9c91a7834c1ba4fdd244a5e8aa4e537bd38aeae4b073aa335b6040516001600160a01b03909116815260200160405180910390a1565b60405163095ea7b360e01b815273bbbbbbbbbb9cc5e90e3b3af64bdaf62c37eeffcb600482015260248101829052600080516020611d6e8339815191529063095ea7b3906044016020604051808303816000875af115801561195e573d6000803e3d6000fd5b505050506040513d601f19601f820116820180604052508101906119829190611c38565b506040516330df733960e21b815273bbbbbbbbbb9cc5e90e3b3af64bdaf62c37eeffcb9063c37dcce4906119d5907311111111111111111111111111111111111111119085906000903090600401611c5a565b60408051808303816000875af1925050508015611a0f575060408051601f3d908101601f19168201909252611a0c91810190611c94565b60015b611a4e578060026000828254611a259190611cce565b90915550506040805182815260006020820152600080516020611d2e8339815191529101610649565b8160026000828254611a609190611cce565b90915550506040805183815260208101839052600080516020611d2e833981519152910160405180910390a1505050565b600180546001600160a01b038381166001600160a01b0319831681179093556040519116919082907f8be0079c531659141344cd1fd0a4f28419497f9722a3daafe3b4186f6b6457e090600090a35050565b611aeb611878565b6001805460ff60a01b1916600160a01b1790557f62e78cea01bee320cd4e420270b5ea74000d11b0c9f74754ebdbfc544b05a2586118db3390565b600154600160a01b900460ff166109b257604051638dfc202b60e01b815260040160405180910390fd5b80356001600160a01b0381168114611b6757600080fd5b919050565b600060208284031215611b7e57600080fd5b61174782611b50565b600060208284031215611b9957600080fd5b5035919050565b60008060408385031215611bb357600080fd5b611bbc83611b50565b946020939093013593505050565b60008060408385031215611bdd57600080fd5b82359150611bed60208401611b50565b90509250929050565b600060208284031215611c0857600080fd5b5051919050565b6020808252600f908201526e496e76616c6964206164647265737360881b604082015260600190565b600060208284031215611c4a57600080fd5b8151801515811461174757600080fd5b6001600160a01b03948516815260208101939093526040830191909152909116606082015260a06080820181905260009082015260c00190565b60008060408385031215611ca757600080fd5b505080516020909101519092909150565b634e487b7160e01b600052601160045260246000fd5b8082018082111561108f5761108f611cb8565b8181038181111561108f5761108f611cb8565b808202811582820484141761108f5761108f611cb8565b600082611d2857634e487b7160e01b600052601260045260246000fd5b50049056feb0fe666fb738ff18b00250d08c3491e5ab1d17285008f46d46512a4518863362f611fec7babefd259c57ea5b6006acff8140ab17bb816c65ba0aa7e36c09caa8000000000000000000000000a0b86a33e6441b8db72c5ab9cbf4428c7bb060b6a264697066735822122032040946063110b1c5658cd8d3b8b0a320ef1db51f44c5752f49abfc41930d2864736f6c63430008140033","opcodes":"PUSH1 0x80 PUSH1 0x40 MSTORE CALLVALUE DUP1 ISZERO PUSH3 0x11 JUMPI PUSH1 0x0 DUP1 REVERT JUMPDEST POP PUSH1 0x40 MLOAD PUSH3 0x1F63 CODESIZE SUB DUP1 PUSH3 0x1F63 DUP4 CODECOPY DUP2 ADD PUSH1 0x40 DUP2 SWAP1 MSTORE PUSH3 0x34 SWAP2 PUSH3 0x133 JUMP JUMPDEST PUSH1 0x1 PUSH1 0x0 SSTORE CALLER DUP1 PUSH3 0x60 JUMPI PUSH1 0x40 MLOAD PUSH4 0x1E4FBDF7 PUSH1 0xE0 SHL DUP2 MSTORE PUSH1 0x0 PUSH1 0x4 DUP3 ADD MSTORE PUSH1 0x24 ADD PUSH1 0x40 MLOAD DUP1 SWAP2 SUB SWAP1 REVERT JUMPDEST PUSH3 0x6B DUP2 PUSH3 0xC4 JUMP JUMPDEST POP PUSH1 0x6 DUP1 SLOAD PUSH1 0x1 PUSH1 0x1 PUSH1 0xA0 SHL SUB SWAP6 DUP7 AND PUSH1 0x1 PUSH1 0x1 PUSH1 0xA0 SHL SUB NOT SWAP2 DUP3 AND OR SWAP1 SWAP2 SSTORE PUSH1 0x7 DUP1 SLOAD SWAP5 DUP7 AND SWAP5 DUP3 AND SWAP5 SWAP1 SWAP5 OR SWAP1 SWAP4 SSTORE PUSH1 0x8 DUP1 SLOAD SWAP3 DUP6 AND SWAP3 DUP5 AND SWAP3 SWAP1 SWAP3 OR SWAP1 SWAP2 SSTORE PUSH1 0x9 DUP1 SLOAD SWAP2 SWAP1 SWAP4 AND SWAP2 AND OR SWAP1 SSTORE TIMESTAMP PUSH1 0x4 SSTORE PUSH3 0x190 JUMP JUMPDEST PUSH1 0x1 DUP1 SLOAD PUSH1 0x1 PUSH1 0x1 PUSH1 0xA0 SHL SUB DUP4 DUP2 AND PUSH1 0x1 PUSH1 0x1 PUSH1 0xA0 SHL SUB NOT DUP4 AND DUP2 OR SWAP1 SWAP4 SSTORE PUSH1 0x40 MLOAD SWAP2 AND SWAP2 SWAP1 DUP3 SWAP1 PUSH32 0x8BE0079C531659141344CD1FD0A4F28419497F9722A3DAAFE3B4186F6B6457E0 SWAP1 PUSH1 0x0 SWAP1 LOG3 POP POP JUMP JUMPDEST DUP1 MLOAD PUSH1 0x1 PUSH1 0x1 PUSH1 0xA0 SHL SUB DUP2 AND DUP2 EQ PUSH3 0x12E JUMPI PUSH1 0x0 DUP1 REVERT JUMPDEST SWAP2 SWAP1 POP JUMP JUMPDEST PUSH1 0x0 DUP1 PUSH1 0x0 DUP1 PUSH1 0x80 DUP6 DUP8 SUB SLT ISZERO PUSH3 0x14A JUMPI PUSH1 0x0 DUP1 REVERT JUMPDEST PUSH3 0x155 DUP6 PUSH3 0x116 JUMP JUMPDEST SWAP4 POP PUSH3 0x165 PUSH1 0x20 DUP7 ADD PUSH3 0x116 JUMP JUMPDEST SWAP3 POP PUSH3 0x175 PUSH1 0x40 DUP7 ADD PUSH3 0x116 JUMP JUMPDEST SWAP2 POP PUSH3 0x185 PUSH1 0x60 DUP7 ADD PUSH3 0x116 JUMP JUMPDEST SWAP1 POP SWAP3 SWAP6 SWAP2 SWAP5 POP SWAP3 POP JUMP JUMPDEST PUSH2 0x1DC3 DUP1 PUSH3 0x1A0 PUSH1 0x0 CODECOPY PUSH1 0x0 RETURN INVALID PUSH1 0x80 PUSH1 0x40 MSTORE CALLVALUE DUP1 ISZERO PUSH2 0x10 JUMPI PUSH1 0x0 DUP1 REVERT JUMPDEST POP PUSH1 0x4 CALLDATASIZE LT PUSH2 0x253 JUMPI PUSH1 0x0 CALLDATALOAD PUSH1 0xE0 SHR DUP1 PUSH4 0x8F8C8AEE GT PUSH2 0x146 JUMPI DUP1 PUSH4 0xBF640DE7 GT PUSH2 0xC3 JUMPI DUP1 PUSH4 0xF22645A8 GT PUSH2 0x87 JUMPI DUP1 PUSH4 0xF22645A8 EQ PUSH2 0x4DB JUMPI DUP1 PUSH4 0xF2FDE38B EQ PUSH2 0x4EE JUMPI DUP1 PUSH4 0xF78FAE46 EQ PUSH2 0x501 JUMPI DUP1 PUSH4 0xFCDFD5C5 EQ PUSH2 0x509 JUMPI DUP1 PUSH4 0xFE248815 EQ PUSH2 0x512 JUMPI DUP1 PUSH4 0xFF50ABDC EQ PUSH2 0x51B JUMPI PUSH1 0x0 DUP1 REVERT JUMPDEST DUP1 PUSH4 0xBF640DE7 EQ PUSH2 0x46A JUMPI DUP1 PUSH4 0xC8692E3F EQ PUSH2 0x47D JUMPI DUP1 PUSH4 0xCCAAD55D EQ PUSH2 0x4AD JUMPI DUP1 PUSH4 0xD224FF73 EQ PUSH2 0x4B5 JUMPI DUP1 PUSH4 0xEE99205C EQ PUSH2 0x4C8 JUMPI PUSH1 0x0 DUP1 REVERT JUMPDEST DUP1 PUSH4 0xA481293F GT PUSH2 0x10A JUMPI DUP1 PUSH4 0xA481293F EQ PUSH2 0x42C JUMPI DUP1 PUSH4 0xA5749710 EQ PUSH2 0x434 JUMPI DUP1 PUSH4 0xAB2BE726 EQ PUSH2 0x43C JUMPI DUP1 PUSH4 0xB2325876 EQ PUSH2 0x44F JUMPI DUP1 PUSH4 0xBB21A997 EQ PUSH2 0x462 JUMPI PUSH1 0x0 DUP1 REVERT JUMPDEST DUP1 PUSH4 0x8F8C8AEE EQ PUSH2 0x3D9 JUMPI DUP1 PUSH4 0x932B334E EQ PUSH2 0x3E2 JUMPI DUP1 PUSH4 0x95CCEA67 EQ PUSH2 0x3EB JUMPI DUP1 PUSH4 0x9DD373B9 EQ PUSH2 0x3FE JUMPI DUP1 PUSH4 0xA13C5847 EQ PUSH2 0x411 JUMPI PUSH1 0x0 DUP1 REVERT JUMPDEST DUP1 PUSH4 0x4B319713 GT PUSH2 0x1D4 JUMPI DUP1 PUSH4 0x715018A6 GT PUSH2 0x198 JUMPI DUP1 PUSH4 0x715018A6 EQ PUSH2 0x39A JUMPI DUP1 PUSH4 0x8456CB59 EQ PUSH2 0x3A2 JUMPI DUP1 PUSH4 0x89A30271 EQ PUSH2 0x3AA JUMPI DUP1 PUSH4 0x8DA5CB5B EQ PUSH2 0x3BF JUMPI DUP1 PUSH4 0x8DAC0157 EQ PUSH2 0x3D0 JUMPI PUSH1 0x0 DUP1 REVERT JUMPDEST DUP1 PUSH4 0x4B319713 EQ PUSH2 0x32D JUMPI DUP1 PUSH4 0x4C859EAF EQ PUSH2 0x336 JUMPI DUP1 PUSH4 0x5C975ABB EQ PUSH2 0x356 JUMPI DUP1 PUSH4 0x63EC512D EQ PUSH2 0x374 JUMPI DUP1 PUSH4 0x6F011538 EQ PUSH2 0x387 JUMPI PUSH1 0x0 DUP1 REVERT JUMPDEST DUP1 PUSH4 0x3BDCFC1F GT PUSH2 0x21B JUMPI DUP1 PUSH4 0x3BDCFC1F EQ PUSH2 0x2D7 JUMPI DUP1 PUSH4 0x3F4BA83A EQ PUSH2 0x2EA JUMPI DUP1 PUSH4 0x40BD2E23 EQ PUSH2 0x2F2 JUMPI DUP1 PUSH4 0x42879AF1 EQ PUSH2 0x305 JUMPI DUP1 PUSH4 0x45BBA697 EQ PUSH2 0x30D JUMPI PUSH1 0x0 DUP1 REVERT JUMPDEST DUP1 PUSH4 0xE085281 EQ PUSH2 0x258 JUMPI DUP1 PUSH4 0xEFB03D3 EQ PUSH2 0x273 JUMPI DUP1 PUSH4 0x1C0973A4 EQ PUSH2 0x27C JUMPI DUP1 PUSH4 0x37BEAFE0 EQ PUSH2 0x2A7 JUMPI DUP1 PUSH4 0x3ACB5624 EQ PUSH2 0x2BC JUMPI JUMPDEST PUSH1 0x0 DUP1 REVERT JUMPDEST PUSH2 0x260 PUSH2 0x524 JUMP JUMPDEST PUSH1 0x40 MLOAD SWAP1 DUP2 MSTORE PUSH1 0x20 ADD JUMPDEST PUSH1 0x40 MLOAD DUP1 SWAP2 SUB SWAP1 RETURN JUMPDEST PUSH2 0x260 PUSH2 0xFA0 DUP2 JUMP JUMPDEST PUSH1 0x7 SLOAD PUSH2 0x28F SWAP1 PUSH1 0x1 PUSH1 0x1 PUSH1 0xA0 SHL SUB AND DUP2 JUMP JUMPDEST PUSH1 0x40 MLOAD PUSH1 0x1 PUSH1 0x1 PUSH1 0xA0 SHL SUB SWAP1 SWAP2 AND DUP2 MSTORE PUSH1 0x20 ADD PUSH2 0x26A JUMP JUMPDEST PUSH2 0x2BA PUSH2 0x2B5 CALLDATASIZE PUSH1 0x4 PUSH2 0x1B6C JUMP JUMPDEST PUSH2 0x5BB JUMP JUMPDEST STOP JUMPDEST PUSH2 0x28F PUSH20 0xBBBBBBBBBB9CC5E90E3B3AF64BDAF62C37EEFFCB DUP2 JUMP JUMPDEST PUSH2 0x2BA PUSH2 0x2E5 CALLDATASIZE PUSH1 0x4 PUSH2 0x1B87 JUMP JUMPDEST PUSH2 0x654 JUMP JUMPDEST PUSH2 0x2BA PUSH2 0x9A2 JUMP JUMPDEST PUSH2 0x2BA PUSH2 0x300 CALLDATASIZE PUSH1 0x4 PUSH2 0x1B87 JUMP JUMPDEST PUSH2 0x9B4 JUMP JUMPDEST PUSH2 0x260 PUSH2 0xC9A JUMP JUMPDEST PUSH2 0x260 PUSH2 0x31B CALLDATASIZE PUSH1 0x4 PUSH2 0x1B6C JUMP JUMPDEST PUSH1 0xB PUSH1 0x20 MSTORE PUSH1 0x0 SWAP1 DUP2 MSTORE PUSH1 0x40 SWAP1 KECCAK256 SLOAD DUP2 JUMP JUMPDEST PUSH2 0x260 PUSH1 0x3 SLOAD DUP2 JUMP JUMPDEST PUSH2 0x260 PUSH2 0x344 CALLDATASIZE PUSH1 0x4 PUSH2 0x1B6C JUMP JUMPDEST PUSH1 0xA PUSH1 0x20 MSTORE PUSH1 0x0 SWAP1 DUP2 MSTORE PUSH1 0x40 SWAP1 KECCAK256 SLOAD DUP2 JUMP JUMPDEST PUSH1 0x1 SLOAD PUSH1 0x1 PUSH1 0xA0 SHL SWAP1 DIV PUSH1 0xFF AND JUMPDEST PUSH1 0x40 MLOAD SWAP1 ISZERO ISZERO DUP2 MSTORE PUSH1 0x20 ADD PUSH2 0x26A JUMP JUMPDEST PUSH2 0x2BA PUSH2 0x382 CALLDATASIZE PUSH1 0x4 PUSH2 0x1B87 JUMP JUMPDEST PUSH2 0xCEF JUMP JUMPDEST PUSH2 0x2BA PUSH2 0x395 CALLDATASIZE PUSH1 0x4 PUSH2 0x1B6C JUMP JUMPDEST PUSH2 0xD81 JUMP JUMPDEST PUSH2 0x2BA PUSH2 0xE0D JUMP JUMPDEST PUSH2 0x2BA PUSH2 0xE1F JUMP JUMPDEST PUSH2 0x28F PUSH1 0x0 DUP1 MLOAD PUSH1 0x20 PUSH2 0x1D6E DUP4 CODECOPY DUP2 MLOAD SWAP2 MSTORE DUP2 JUMP JUMPDEST PUSH1 0x1 SLOAD PUSH1 0x1 PUSH1 0x1 PUSH1 0xA0 SHL SUB AND PUSH2 0x28F JUMP JUMPDEST PUSH2 0x260 PUSH2 0xBB8 DUP2 JUMP JUMPDEST PUSH2 0x260 PUSH1 0x4 SLOAD DUP2 JUMP JUMPDEST PUSH2 0x260 PUSH2 0x7D0 DUP2 JUMP JUMPDEST PUSH2 0x2BA PUSH2 0x3F9 CALLDATASIZE PUSH1 0x4 PUSH2 0x1BA0 JUMP JUMPDEST PUSH2 0xE2F JUMP JUMPDEST PUSH2 0x2BA PUSH2 0x40C CALLDATASIZE PUSH1 0x4 PUSH2 0x1B6C JUMP JUMPDEST PUSH2 0xEAD JUMP JUMPDEST PUSH2 0x28F PUSH20 0x1111111111111111111111111111111111111111 DUP2 JUMP JUMPDEST PUSH2 0x364 PUSH2 0xF39 JUMP JUMPDEST PUSH2 0x260 PUSH2 0xF54 JUMP JUMPDEST PUSH1 0x8 SLOAD PUSH2 0x28F SWAP1 PUSH1 0x1 PUSH1 0x1 PUSH1 0xA0 SHL SUB AND DUP2 JUMP JUMPDEST PUSH2 0x260 PUSH2 0x45D CALLDATASIZE PUSH1 0x4 PUSH2 0x1B6C JUMP JUMPDEST PUSH2 0x1061 JUMP JUMPDEST PUSH2 0x2BA PUSH2 0x1095 JUMP JUMPDEST PUSH2 0x2BA PUSH2 0x478 CALLDATASIZE PUSH1 0x4 PUSH2 0x1BCA JUMP JUMPDEST PUSH2 0x12CB JUMP JUMPDEST PUSH2 0x485 PUSH2 0x16A3 JUMP JUMPDEST PUSH1 0x40 DUP1 MLOAD SWAP6 DUP7 MSTORE PUSH1 0x20 DUP7 ADD SWAP5 SWAP1 SWAP5 MSTORE SWAP3 DUP5 ADD SWAP2 SWAP1 SWAP2 MSTORE PUSH1 0x60 DUP4 ADD MSTORE PUSH1 0x80 DUP3 ADD MSTORE PUSH1 0xA0 ADD PUSH2 0x26A JUMP JUMPDEST PUSH2 0x260 PUSH2 0x16D0 JUMP JUMPDEST PUSH1 0x9 SLOAD PUSH2 0x28F SWAP1 PUSH1 0x1 PUSH1 0x1 PUSH1 0xA0 SHL SUB AND DUP2 JUMP JUMPDEST PUSH1 0x6 SLOAD PUSH2 0x28F SWAP1 PUSH1 0x1 PUSH1 0x1 PUSH1 0xA0 SHL SUB AND DUP2 JUMP JUMPDEST PUSH2 0x2BA PUSH2 0x4E9 CALLDATASIZE PUSH1 0x4 PUSH2 0x1B6C JUMP JUMPDEST PUSH2 0x174E JUMP JUMPDEST PUSH2 0x2BA PUSH2 0x4FC CALLDATASIZE PUSH1 0x4 PUSH2 0x1B6C JUMP JUMPDEST PUSH2 0x17DE JUMP JUMPDEST PUSH2 0x2BA PUSH2 0x1819 JUMP JUMPDEST PUSH2 0x260 PUSH1 0x5 SLOAD DUP2 JUMP JUMPDEST PUSH2 0x260 PUSH2 0x3E8 DUP2 JUMP JUMPDEST PUSH2 0x260 PUSH1 0x2 SLOAD DUP2 JUMP JUMPDEST PUSH1 0x40 MLOAD PUSH4 0x3DE222BB PUSH1 0xE2 SHL DUP2 MSTORE ADDRESS PUSH1 0x4 DUP3 ADD MSTORE PUSH20 0x1111111111111111111111111111111111111111 PUSH1 0x24 DUP3 ADD MSTORE PUSH1 0x0 SWAP1 PUSH20 0xBBBBBBBBBB9CC5E90E3B3AF64BDAF62C37EEFFCB SWAP1 PUSH4 0xF7888AEC SWAP1 PUSH1 0x44 ADD PUSH1 0x20 PUSH1 0x40 MLOAD DUP1 DUP4 SUB DUP2 DUP7 GAS STATICCALL SWAP3 POP POP POP DUP1 ISZERO PUSH2 0x5AC JUMPI POP PUSH1 0x40 DUP1 MLOAD PUSH1 0x1F RETURNDATASIZE SWAP1 DUP2 ADD PUSH1 0x1F NOT AND DUP3 ADD SWAP1 SWAP3 MSTORE PUSH2 0x5A9 SWAP2 DUP2 ADD SWAP1 PUSH2 0x1BF6 JUMP JUMPDEST PUSH1 0x1 JUMPDEST PUSH2 0x5B6 JUMPI POP PUSH1 0x0 SWAP1 JUMP JUMPDEST SWAP1 POP SWAP1 JUMP JUMPDEST PUSH2 0x5C3 PUSH2 0x1821 JUMP JUMPDEST PUSH1 0x1 PUSH1 0x1 PUSH1 0xA0 SHL SUB DUP2 AND PUSH2 0x5F2 JUMPI PUSH1 0x40 MLOAD PUSH3 0x461BCD PUSH1 0xE5 SHL DUP2 MSTORE PUSH1 0x4 ADD PUSH2 0x5E9 SWAP1 PUSH2 0x1C0F JUMP JUMPDEST PUSH1 0x40 MLOAD DUP1 SWAP2 SUB SWAP1 REVERT JUMPDEST PUSH1 0x7 DUP1 SLOAD PUSH1 0x1 PUSH1 0x1 PUSH1 0xA0 SHL SUB NOT AND PUSH1 0x1 PUSH1 0x1 PUSH1 0xA0 SHL SUB DUP4 AND SWAP1 DUP2 OR SWAP1 SWAP2 SSTORE PUSH1 0x40 DUP1 MLOAD DUP2 DUP2 MSTORE PUSH1 0x4 SWAP2 DUP2 ADD SWAP2 SWAP1 SWAP2 MSTORE PUSH4 0x313AB937 PUSH1 0xE1 SHL PUSH1 0x60 DUP3 ADD MSTORE PUSH1 0x20 DUP2 ADD SWAP2 SWAP1 SWAP2 MSTORE PUSH1 0x0 DUP1 MLOAD PUSH1 0x20 PUSH2 0x1D4E DUP4 CODECOPY DUP2 MLOAD SWAP2 MSTORE SWAP1 PUSH1 0x80 ADD JUMPDEST PUSH1 0x40 MLOAD DUP1 SWAP2 SUB SWAP1 LOG1 POP JUMP JUMPDEST PUSH2 0x65C PUSH2 0x1821 JUMP JUMPDEST PUSH2 0x664 PUSH2 0x184E JUMP JUMPDEST PUSH2 0x66C PUSH2 0x1878 JUMP JUMPDEST PUSH1 0x0 DUP2 GT PUSH2 0x6BC JUMPI PUSH1 0x40 MLOAD PUSH3 0x461BCD PUSH1 0xE5 SHL DUP2 MSTORE PUSH1 0x20 PUSH1 0x4 DUP3 ADD MSTORE PUSH1 0x1D PUSH1 0x24 DUP3 ADD MSTORE PUSH32 0x416D6F756E74206D7573742062652067726561746572207468616E2030000000 PUSH1 0x44 DUP3 ADD MSTORE PUSH1 0x64 ADD PUSH2 0x5E9 JUMP JUMPDEST PUSH1 0x40 MLOAD PUSH4 0x70A08231 PUSH1 0xE0 SHL DUP2 MSTORE CALLER PUSH1 0x4 DUP3 ADD MSTORE DUP2 SWAP1 PUSH1 0x0 DUP1 MLOAD PUSH1 0x20 PUSH2 0x1D6E DUP4 CODECOPY DUP2 MLOAD SWAP2 MSTORE SWAP1 PUSH4 0x70A08231 SWAP1 PUSH1 0x24 ADD PUSH1 0x20 PUSH1 0x40 MLOAD DUP1 DUP4 SUB DUP2 DUP7 GAS STATICCALL ISZERO DUP1 ISZERO PUSH2 0x707 JUMPI RETURNDATASIZE PUSH1 0x0 DUP1 RETURNDATACOPY RETURNDATASIZE PUSH1 0x0 REVERT JUMPDEST POP POP POP POP PUSH1 0x40 MLOAD RETURNDATASIZE PUSH1 0x1F NOT PUSH1 0x1F DUP3 ADD AND DUP3 ADD DUP1 PUSH1 0x40 MSTORE POP DUP2 ADD SWAP1 PUSH2 0x72B SWAP2 SWAP1 PUSH2 0x1BF6 JUMP JUMPDEST LT ISZERO PUSH2 0x779 JUMPI PUSH1 0x40 MLOAD PUSH3 0x461BCD PUSH1 0xE5 SHL DUP2 MSTORE PUSH1 0x20 PUSH1 0x4 DUP3 ADD MSTORE PUSH1 0x19 PUSH1 0x24 DUP3 ADD MSTORE PUSH32 0x496E73756666696369656E7420555344432062616C616E636500000000000000 PUSH1 0x44 DUP3 ADD MSTORE PUSH1 0x64 ADD PUSH2 0x5E9 JUMP JUMPDEST PUSH1 0x40 MLOAD PUSH4 0x23B872DD PUSH1 0xE0 SHL DUP2 MSTORE CALLER PUSH1 0x4 DUP3 ADD MSTORE ADDRESS PUSH1 0x24 DUP3 ADD MSTORE PUSH1 0x44 DUP2 ADD DUP3 SWAP1 MSTORE PUSH1 0x0 DUP1 MLOAD PUSH1 0x20 PUSH2 0x1D6E DUP4 CODECOPY DUP2 MLOAD SWAP2 MSTORE SWAP1 PUSH4 0x23B872DD SWAP1 PUSH1 0x64 ADD PUSH1 0x20 PUSH1 0x40 MLOAD DUP1 DUP4 SUB DUP2 PUSH1 0x0 DUP8 GAS CALL ISZERO DUP1 ISZERO PUSH2 0x7D1 JUMPI RETURNDATASIZE PUSH1 0x0 DUP1 RETURNDATACOPY RETURNDATASIZE PUSH1 0x0 REVERT JUMPDEST POP POP POP POP PUSH1 0x40 MLOAD RETURNDATASIZE PUSH1 0x1F NOT PUSH1 0x1F DUP3 ADD AND DUP3 ADD DUP1 PUSH1 0x40 MSTORE POP DUP2 ADD SWAP1 PUSH2 0x7F5 SWAP2 SWAP1 PUSH2 0x1C38 JUMP JUMPDEST POP PUSH1 0x40 MLOAD PUSH4 0x95EA7B3 PUSH1 0xE0 SHL DUP2 MSTORE PUSH20 0xBBBBBBBBBB9CC5E90E3B3AF64BDAF62C37EEFFCB PUSH1 0x4 DUP3 ADD MSTORE PUSH1 0x24 DUP2 ADD DUP3 SWAP1 MSTORE PUSH1 0x0 DUP1 MLOAD PUSH1 0x20 PUSH2 0x1D6E DUP4 CODECOPY DUP2 MLOAD SWAP2 MSTORE SWAP1 PUSH4 0x95EA7B3 SWAP1 PUSH1 0x44 ADD PUSH1 0x20 PUSH1 0x40 MLOAD DUP1 DUP4 SUB DUP2 PUSH1 0x0 DUP8 GAS CALL ISZERO DUP1 ISZERO PUSH2 0x85C JUMPI RETURNDATASIZE PUSH1 0x0 DUP1 RETURNDATACOPY RETURNDATASIZE PUSH1 0x0 REVERT JUMPDEST POP POP POP POP PUSH1 0x40 MLOAD RETURNDATASIZE PUSH1 0x1F NOT PUSH1 0x1F DUP3 ADD AND DUP3 ADD DUP1 PUSH1 0x40 MSTORE POP DUP2 ADD SWAP1 PUSH2 0x880 SWAP2 SWAP1 PUSH2 0x1C38 JUMP JUMPDEST POP PUSH1 0x40 MLOAD PUSH4 0x30DF7339 PUSH1 0xE2 SHL DUP2 MSTORE PUSH20 0xBBBBBBBBBB9CC5E90E3B3AF64BDAF62C37EEFFCB SWAP1 PUSH4 0xC37DCCE4 SWAP1 PUSH2 0x8D3 SWAP1 PUSH20 0x1111111111111111111111111111111111111111 SWAP1 DUP6 SWAP1 PUSH1 0x0 SWAP1 ADDRESS SWAP1 PUSH1 0x4 ADD PUSH2 0x1C5A JUMP JUMPDEST PUSH1 0x40 DUP1 MLOAD DUP1 DUP4 SUB DUP2 PUSH1 0x0 DUP8 GAS CALL SWAP3 POP POP POP DUP1 ISZERO PUSH2 0x90D JUMPI POP PUSH1 0x40 DUP1 MLOAD PUSH1 0x1F RETURNDATASIZE SWAP1 DUP2 ADD PUSH1 0x1F NOT AND DUP3 ADD SWAP1 SWAP3 MSTORE PUSH2 0x90A SWAP2 DUP2 ADD SWAP1 PUSH2 0x1C94 JUMP JUMPDEST PUSH1 0x1 JUMPDEST PUSH2 0x954 JUMPI DUP1 PUSH1 0x2 PUSH1 0x0 DUP3 DUP3 SLOAD PUSH2 0x923 SWAP2 SWAP1 PUSH2 0x1CCE JUMP JUMPDEST SWAP1 SWAP2 SSTORE POP POP PUSH1 0x40 DUP1 MLOAD DUP3 DUP2 MSTORE PUSH1 0x0 PUSH1 0x20 DUP3 ADD MSTORE PUSH1 0x0 DUP1 MLOAD PUSH1 0x20 PUSH2 0x1D2E DUP4 CODECOPY DUP2 MLOAD SWAP2 MSTORE SWAP2 ADD PUSH1 0x40 MLOAD DUP1 SWAP2 SUB SWAP1 LOG1 PUSH2 0x995 JUMP JUMPDEST DUP2 PUSH1 0x2 PUSH1 0x0 DUP3 DUP3 SLOAD PUSH2 0x966 SWAP2 SWAP1 PUSH2 0x1CCE JUMP JUMPDEST SWAP1 SWAP2 SSTORE POP POP PUSH1 0x40 DUP1 MLOAD DUP4 DUP2 MSTORE PUSH1 0x20 DUP2 ADD DUP4 SWAP1 MSTORE PUSH1 0x0 DUP1 MLOAD PUSH1 0x20 PUSH2 0x1D2E DUP4 CODECOPY DUP2 MLOAD SWAP2 MSTORE SWAP2 ADD PUSH1 0x40 MLOAD DUP1 SWAP2 SUB SWAP1 LOG1 POP POP JUMPDEST PUSH2 0x99F PUSH1 0x1 PUSH1 0x0 SSTORE JUMP JUMPDEST POP JUMP JUMPDEST PUSH2 0x9AA PUSH2 0x1821 JUMP JUMPDEST PUSH2 0x9B2 PUSH2 0x18A3 JUMP JUMPDEST JUMP JUMPDEST PUSH2 0x9BC PUSH2 0x184E JUMP JUMPDEST PUSH2 0x9C4 PUSH2 0x1095 JUMP JUMPDEST CALLER PUSH1 0x0 SWAP1 DUP2 MSTORE PUSH1 0xB PUSH1 0x20 SWAP1 DUP2 MSTORE PUSH1 0x40 DUP1 DUP4 KECCAK256 SLOAD PUSH1 0xA SWAP1 SWAP3 MSTORE DUP3 KECCAK256 SLOAD PUSH2 0x9E9 SWAP2 SWAP1 PUSH2 0x1CE1 JUMP JUMPDEST SWAP1 POP PUSH1 0x0 DUP2 GT PUSH2 0xA30 JUMPI PUSH1 0x40 MLOAD PUSH3 0x461BCD PUSH1 0xE5 SHL DUP2 MSTORE PUSH1 0x20 PUSH1 0x4 DUP3 ADD MSTORE PUSH1 0x12 PUSH1 0x24 DUP3 ADD MSTORE PUSH18 0x4E6F207969656C6420617661696C61626C65 PUSH1 0x70 SHL PUSH1 0x44 DUP3 ADD MSTORE PUSH1 0x64 ADD PUSH2 0x5E9 JUMP JUMPDEST PUSH1 0x0 DUP3 ISZERO PUSH2 0xA3E JUMPI DUP3 PUSH2 0xA40 JUMP JUMPDEST DUP2 JUMPDEST SWAP1 POP DUP2 DUP2 GT ISZERO PUSH2 0xA92 JUMPI PUSH1 0x40 MLOAD PUSH3 0x461BCD PUSH1 0xE5 SHL DUP2 MSTORE PUSH1 0x20 PUSH1 0x4 DUP3 ADD MSTORE PUSH1 0x1A PUSH1 0x24 DUP3 ADD MSTORE PUSH32 0x496E73756666696369656E74207969656C642062616C616E6365000000000000 PUSH1 0x44 DUP3 ADD MSTORE PUSH1 0x64 ADD PUSH2 0x5E9 JUMP JUMPDEST CALLER PUSH1 0x0 SWAP1 DUP2 MSTORE PUSH1 0xB PUSH1 0x20 MSTORE PUSH1 0x40 DUP2 KECCAK256 DUP1 SLOAD DUP4 SWAP3 SWAP1 PUSH2 0xAB1 SWAP1 DUP5 SWAP1 PUSH2 0x1CCE JUMP JUMPDEST SWAP1 SWAP2 SSTORE POP POP PUSH1 0x40 MLOAD PUSH4 0x70A08231 PUSH1 0xE0 SHL DUP2 MSTORE ADDRESS PUSH1 0x4 DUP3 ADD MSTORE PUSH1 0x0 SWAP1 PUSH1 0x0 DUP1 MLOAD PUSH1 0x20 PUSH2 0x1D6E DUP4 CODECOPY DUP2 MLOAD SWAP2 MSTORE SWAP1 PUSH4 0x70A08231 SWAP1 PUSH1 0x24 ADD PUSH1 0x20 PUSH1 0x40 MLOAD DUP1 DUP4 SUB DUP2 DUP7 GAS STATICCALL ISZERO DUP1 ISZERO PUSH2 0xB02 JUMPI RETURNDATASIZE PUSH1 0x0 DUP1 RETURNDATACOPY RETURNDATASIZE PUSH1 0x0 REVERT JUMPDEST POP POP POP POP PUSH1 0x40 MLOAD RETURNDATASIZE PUSH1 0x1F NOT PUSH1 0x1F DUP3 ADD AND DUP3 ADD DUP1 PUSH1 0x40 MSTORE POP DUP2 ADD SWAP1 PUSH2 0xB26 SWAP2 SWAP1 PUSH2 0x1BF6 JUMP JUMPDEST SWAP1 POP DUP2 DUP2 LT ISZERO PUSH2 0xBDA JUMPI PUSH1 0x40 MLOAD PUSH4 0xF99D9901 PUSH1 0xE0 SHL DUP2 MSTORE PUSH20 0x1111111111111111111111111111111111111111 PUSH1 0x4 DUP3 ADD MSTORE PUSH1 0x24 DUP2 ADD DUP4 SWAP1 MSTORE PUSH1 0x0 PUSH1 0x44 DUP3 ADD MSTORE ADDRESS PUSH1 0x64 DUP3 ADD DUP2 SWAP1 MSTORE PUSH1 0x84 DUP3 ADD MSTORE PUSH20 0xBBBBBBBBBB9CC5E90E3B3AF64BDAF62C37EEFFCB SWAP1 PUSH4 0xF99D9901 SWAP1 PUSH1 0xA4 ADD PUSH1 0x40 DUP1 MLOAD DUP1 DUP4 SUB DUP2 PUSH1 0x0 DUP8 GAS CALL SWAP3 POP POP POP DUP1 ISZERO PUSH2 0xBCB JUMPI POP PUSH1 0x40 DUP1 MLOAD PUSH1 0x1F RETURNDATASIZE SWAP1 DUP2 ADD PUSH1 0x1F NOT AND DUP3 ADD SWAP1 SWAP3 MSTORE PUSH2 0xBC8 SWAP2 DUP2 ADD SWAP1 PUSH2 0x1C94 JUMP JUMPDEST PUSH1 0x1 JUMPDEST PUSH2 0xBD7 JUMPI DUP1 SWAP2 POP PUSH2 0xBDA JUMP JUMPDEST POP POP JUMPDEST DUP2 ISZERO PUSH2 0xC8D JUMPI PUSH1 0x40 MLOAD PUSH4 0xA9059CBB PUSH1 0xE0 SHL DUP2 MSTORE CALLER PUSH1 0x4 DUP3 ADD MSTORE PUSH1 0x24 DUP2 ADD DUP4 SWAP1 MSTORE PUSH1 0x0 DUP1 MLOAD PUSH1 0x20 PUSH2 0x1D6E DUP4 CODECOPY DUP2 MLOAD SWAP2 MSTORE SWAP1 PUSH4 0xA9059CBB SWAP1 PUSH1 0x44 ADD PUSH1 0x20 PUSH1 0x40 MLOAD DUP1 DUP4 SUB DUP2 PUSH1 0x0 DUP8 GAS CALL ISZERO DUP1 ISZERO PUSH2 0xC32 JUMPI RETURNDATASIZE PUSH1 0x0 DUP1 RETURNDATACOPY RETURNDATASIZE PUSH1 0x0 REVERT JUMPDEST POP POP POP POP PUSH1 0x40 MLOAD RETURNDATASIZE PUSH1 0x1F NOT PUSH1 0x1F DUP3 ADD AND DUP3 ADD DUP1 PUSH1 0x40 MSTORE POP DUP2 ADD SWAP1 PUSH2 0xC56 SWAP2 SWAP1 PUSH2 0x1C38 JUMP JUMPDEST POP PUSH1 0x40 MLOAD DUP3 DUP2 MSTORE CALLER SWAP1 PUSH32 0xC04825BA3F383B602255D2A13065A68E325C65C9E0ED5D031EA2B06F641873AF SWAP1 PUSH1 0x20 ADD PUSH1 0x40 MLOAD DUP1 SWAP2 SUB SWAP1 LOG2 JUMPDEST POP POP POP PUSH2 0x99F PUSH1 0x1 PUSH1 0x0 SSTORE JUMP JUMPDEST PUSH1 0x0 DUP1 PUSH2 0xCA5 PUSH2 0xF54 JUMP JUMPDEST SWAP1 POP PUSH1 0x0 PUSH1 0x3 SLOAD PUSH1 0x2 SLOAD PUSH2 0xCB9 SWAP2 SWAP1 PUSH2 0x1CE1 JUMP JUMPDEST SWAP1 POP PUSH1 0x5 SLOAD DUP2 PUSH2 0xCC9 SWAP2 SWAP1 PUSH2 0x1CCE JUMP JUMPDEST DUP3 GT ISZERO PUSH2 0xCEA JUMPI PUSH1 0x5 SLOAD PUSH2 0xCDD DUP3 DUP5 PUSH2 0x1CE1 JUMP JUMPDEST PUSH2 0xCE7 SWAP2 SWAP1 PUSH2 0x1CE1 JUMP JUMPDEST SWAP3 POP JUMPDEST POP POP SWAP1 JUMP JUMPDEST PUSH1 0x40 MLOAD PUSH4 0x70A08231 PUSH1 0xE0 SHL DUP2 MSTORE ADDRESS PUSH1 0x4 DUP3 ADD MSTORE PUSH1 0x0 SWAP1 PUSH1 0x0 DUP1 MLOAD PUSH1 0x20 PUSH2 0x1D6E DUP4 CODECOPY DUP2 MLOAD SWAP2 MSTORE SWAP1 PUSH4 0x70A08231 SWAP1 PUSH1 0x24 ADD PUSH1 0x20 PUSH1 0x40 MLOAD DUP1 DUP4 SUB DUP2 DUP7 GAS STATICCALL ISZERO DUP1 ISZERO PUSH2 0xD3B JUMPI RETURNDATASIZE PUSH1 0x0 DUP1 RETURNDATACOPY RETURNDATASIZE PUSH1 0x0 REVERT JUMPDEST POP POP POP POP PUSH1 0x40 MLOAD RETURNDATASIZE PUSH1 0x1F NOT PUSH1 0x1F DUP3 ADD AND DUP3 ADD DUP1 PUSH1 0x40 MSTORE POP DUP2 ADD SWAP1 PUSH2 0xD5F SWAP2 SWAP1 PUSH2 0x1BF6 JUMP JUMPDEST SWAP1 POP PUSH4 0x5F5E100 DUP2 LT PUSH2 0xD75 JUMPI PUSH2 0xD75 DUP2 PUSH2 0x18F8 JUMP JUMPDEST PUSH2 0xD7D PUSH2 0x1095 JUMP JUMPDEST POP POP JUMP JUMPDEST PUSH2 0xD89 PUSH2 0x1821 JUMP JUMPDEST PUSH1 0x1 PUSH1 0x1 PUSH1 0xA0 SHL SUB DUP2 AND PUSH2 0xDAF JUMPI PUSH1 0x40 MLOAD PUSH3 0x461BCD PUSH1 0xE5 SHL DUP2 MSTORE PUSH1 0x4 ADD PUSH2 0x5E9 SWAP1 PUSH2 0x1C0F JUMP JUMPDEST PUSH1 0x8 DUP1 SLOAD PUSH1 0x1 PUSH1 0x1 PUSH1 0xA0 SHL SUB NOT AND PUSH1 0x1 PUSH1 0x1 PUSH1 0xA0 SHL SUB DUP4 AND SWAP1 DUP2 OR SWAP1 SWAP2 SSTORE PUSH1 0x40 DUP1 MLOAD DUP2 DUP2 MSTORE PUSH1 0x7 SWAP2 DUP2 ADD SWAP2 SWAP1 SWAP2 MSTORE PUSH7 0x61697264726F7 PUSH1 0xCC SHL PUSH1 0x60 DUP3 ADD MSTORE PUSH1 0x20 DUP2 ADD SWAP2 SWAP1 SWAP2 MSTORE PUSH1 0x0 DUP1 MLOAD PUSH1 0x20 PUSH2 0x1D4E DUP4 CODECOPY DUP2 MLOAD SWAP2 MSTORE SWAP1 PUSH1 0x80 ADD PUSH2 0x649 JUMP JUMPDEST PUSH2 0xE15 PUSH2 0x1821 JUMP JUMPDEST PUSH2 0x9B2 PUSH1 0x0 PUSH2 0x1A91 JUMP JUMPDEST PUSH2 0xE27 PUSH2 0x1821 JUMP JUMPDEST PUSH2 0x9B2 PUSH2 0x1AE3 JUMP JUMPDEST PUSH2 0xE37 PUSH2 0x1821 JUMP JUMPDEST PUSH1 0x40 MLOAD PUSH4 0xA9059CBB PUSH1 0xE0 SHL DUP2 MSTORE CALLER PUSH1 0x4 DUP3 ADD MSTORE PUSH1 0x24 DUP2 ADD DUP3 SWAP1 MSTORE PUSH1 0x1 PUSH1 0x1 PUSH1 0xA0 SHL SUB DUP4 AND SWAP1 PUSH4 0xA9059CBB SWAP1 PUSH1 0x44 ADD PUSH1 0x20 PUSH1 0x40 MLOAD DUP1 DUP4 SUB DUP2 PUSH1 0x0 DUP8 GAS CALL ISZERO DUP1 ISZERO PUSH2 0xE84 JUMPI RETURNDATASIZE PUSH1 0x0 DUP1 RETURNDATACOPY RETURNDATASIZE PUSH1 0x0 REVERT JUMPDEST POP POP POP POP PUSH1 0x40 MLOAD RETURNDATASIZE PUSH1 0x1F NOT PUSH1 0x1F DUP3 ADD AND DUP3 ADD DUP1 PUSH1 0x40 MSTORE POP DUP2 ADD SWAP1 PUSH2 0xEA8 SWAP2 SWAP1 PUSH2 0x1C38 JUMP JUMPDEST POP POP POP JUMP JUMPDEST PUSH2 0xEB5 PUSH2 0x1821 JUMP JUMPDEST PUSH1 0x1 PUSH1 0x1 PUSH1 0xA0 SHL SUB DUP2 AND PUSH2 0xEDB JUMPI PUSH1 0x40 MLOAD PUSH3 0x461BCD PUSH1 0xE5 SHL DUP2 MSTORE PUSH1 0x4 ADD PUSH2 0x5E9 SWAP1 PUSH2 0x1C0F JUMP JUMPDEST PUSH1 0x6 DUP1 SLOAD PUSH1 0x1 PUSH1 0x1 PUSH1 0xA0 SHL SUB NOT AND PUSH1 0x1 PUSH1 0x1 PUSH1 0xA0 SHL SUB DUP4 AND SWAP1 DUP2 OR SWAP1 SWAP2 SSTORE PUSH1 0x40 DUP1 MLOAD DUP2 DUP2 MSTORE PUSH1 0x7 SWAP2 DUP2 ADD SWAP2 SWAP1 SWAP2 MSTORE PUSH7 0x7374616B696E67 PUSH1 0xC8 SHL PUSH1 0x60 DUP3 ADD MSTORE PUSH1 0x20 DUP2 ADD SWAP2 SWAP1 SWAP2 MSTORE PUSH1 0x0 DUP1 MLOAD PUSH1 0x20 PUSH2 0x1D4E DUP4 CODECOPY DUP2 MLOAD SWAP2 MSTORE SWAP1 PUSH1 0x80 ADD PUSH2 0x649 JUMP JUMPDEST PUSH1 0x0 PUSH1 0x4 SLOAD PUSH3 0x15180 PUSH2 0xF4C SWAP2 SWAP1 PUSH2 0x1CCE JUMP JUMPDEST TIMESTAMP LT ISZERO SWAP1 POP SWAP1 JUMP JUMPDEST PUSH1 0x40 MLOAD PUSH4 0x70A08231 PUSH1 0xE0 SHL DUP2 MSTORE ADDRESS PUSH1 0x4 DUP3 ADD MSTORE PUSH1 0x0 SWAP1 DUP2 SWAP1 PUSH1 0x0 DUP1 MLOAD PUSH1 0x20 PUSH2 0x1D6E DUP4 CODECOPY DUP2 MLOAD SWAP2 MSTORE SWAP1 PUSH4 0x70A08231 SWAP1 PUSH1 0x24 ADD PUSH1 0x20 PUSH1 0x40 MLOAD DUP1 DUP4 SUB DUP2 DUP7 GAS STATICCALL ISZERO DUP1 ISZERO PUSH2 0xFA2 JUMPI RETURNDATASIZE PUSH1 0x0 DUP1 RETURNDATACOPY RETURNDATASIZE PUSH1 0x0 REVERT JUMPDEST POP POP POP POP PUSH1 0x40 MLOAD RETURNDATASIZE PUSH1 0x1F NOT PUSH1 0x1F DUP3 ADD AND DUP3 ADD DUP1 PUSH1 0x40 MSTORE POP DUP2 ADD SWAP1 PUSH2 0xFC6 SWAP2 SWAP1 PUSH2 0x1BF6 JUMP JUMPDEST PUSH1 0x40 MLOAD PUSH4 0x3DE222BB PUSH1 0xE2 SHL DUP2 MSTORE ADDRESS PUSH1 0x4 DUP3 ADD MSTORE PUSH20 0x1111111111111111111111111111111111111111 PUSH1 0x24 DUP3 ADD MSTORE SWAP1 SWAP2 POP PUSH20 0xBBBBBBBBBB9CC5E90E3B3AF64BDAF62C37EEFFCB SWAP1 PUSH4 0xF7888AEC SWAP1 PUSH1 0x44 ADD PUSH1 0x20 PUSH1 0x40 MLOAD DUP1 DUP4 SUB DUP2 DUP7 GAS STATICCALL SWAP3 POP POP POP DUP1 ISZERO PUSH2 0x104E JUMPI POP PUSH1 0x40 DUP1 MLOAD PUSH1 0x1F RETURNDATASIZE SWAP1 DUP2 ADD PUSH1 0x1F NOT AND DUP3 ADD SWAP1 SWAP3 MSTORE PUSH2 0x104B SWAP2 DUP2 ADD SWAP1 PUSH2 0x1BF6 JUMP JUMPDEST PUSH1 0x1 JUMPDEST PUSH2 0x1057 JUMPI SWAP2 SWAP1 POP JUMP JUMPDEST PUSH2 0xCE7 DUP2 DUP4 PUSH2 0x1CCE JUMP JUMPDEST PUSH1 0x1 PUSH1 0x1 PUSH1 0xA0 SHL SUB DUP2 AND PUSH1 0x0 SWAP1 DUP2 MSTORE PUSH1 0xB PUSH1 0x20 SWAP1 DUP2 MSTORE PUSH1 0x40 DUP1 DUP4 KECCAK256 SLOAD PUSH1 0xA SWAP1 SWAP3 MSTORE DUP3 KECCAK256 SLOAD PUSH2 0x108F SWAP2 SWAP1 PUSH2 0x1CE1 JUMP JUMPDEST SWAP3 SWAP2 POP POP JUMP JUMPDEST PUSH1 0x0 PUSH2 0x109F PUSH2 0xF54 JUMP JUMPDEST SWAP1 POP PUSH1 0x0 PUSH1 0x3 SLOAD PUSH1 0x2 SLOAD PUSH2 0x10B3 SWAP2 SWAP1 PUSH2 0x1CE1 JUMP JUMPDEST SWAP1 POP DUP1 DUP3 GT ISZERO PUSH2 0xD7D JUMPI PUSH1 0x5 SLOAD PUSH1 0x0 SWAP1 PUSH2 0x10CD DUP4 DUP6 PUSH2 0x1CE1 JUMP JUMPDEST PUSH2 0x10D7 SWAP2 SWAP1 PUSH2 0x1CE1 JUMP JUMPDEST SWAP1 POP DUP1 ISZERO PUSH2 0xEA8 JUMPI PUSH1 0x0 PUSH2 0x2710 PUSH2 0x10F0 PUSH2 0xFA0 DUP5 PUSH2 0x1CF4 JUMP JUMPDEST PUSH2 0x10FA SWAP2 SWAP1 PUSH2 0x1D0B JUMP JUMPDEST SWAP1 POP PUSH1 0x0 PUSH2 0x2710 PUSH2 0x110D PUSH2 0xBB8 DUP6 PUSH2 0x1CF4 JUMP JUMPDEST PUSH2 0x1117 SWAP2 SWAP1 PUSH2 0x1D0B JUMP JUMPDEST SWAP1 POP PUSH1 0x0 PUSH2 0x2710 PUSH2 0x112A PUSH2 0x7D0 DUP7 PUSH2 0x1CF4 JUMP JUMPDEST PUSH2 0x1134 SWAP2 SWAP1 PUSH2 0x1D0B JUMP JUMPDEST SWAP1 POP PUSH1 0x0 PUSH2 0x2710 PUSH2 0x1147 PUSH2 0x3E8 DUP8 PUSH2 0x1CF4 JUMP JUMPDEST PUSH2 0x1151 SWAP2 SWAP1 PUSH2 0x1D0B JUMP JUMPDEST PUSH1 0x6 SLOAD SWAP1 SWAP2 POP PUSH1 0x1 PUSH1 0x1 PUSH1 0xA0 SHL SUB AND ISZERO PUSH2 0x1195 JUMPI PUSH1 0x6 SLOAD PUSH1 0x1 PUSH1 0x1 PUSH1 0xA0 SHL SUB AND PUSH1 0x0 SWAP1 DUP2 MSTORE PUSH1 0xA PUSH1 0x20 MSTORE PUSH1 0x40 DUP2 KECCAK256 DUP1 SLOAD DUP7 SWAP3 SWAP1 PUSH2 0x118F SWAP1 DUP5 SWAP1 PUSH2 0x1CCE JUMP JUMPDEST SWAP1 SWAP2 SSTORE POP POP JUMPDEST PUSH1 0x7 SLOAD PUSH1 0x1 PUSH1 0x1 PUSH1 0xA0 SHL SUB AND ISZERO PUSH2 0x11D6 JUMPI PUSH1 0x7 SLOAD PUSH1 0x1 PUSH1 0x1 PUSH1 0xA0 SHL SUB AND PUSH1 0x0 SWAP1 DUP2 MSTORE PUSH1 0xA PUSH1 0x20 MSTORE PUSH1 0x40 DUP2 KECCAK256 DUP1 SLOAD DUP6 SWAP3 SWAP1 PUSH2 0x11D0 SWAP1 DUP5 SWAP1 PUSH2 0x1CCE JUMP JUMPDEST SWAP1 SWAP2 SSTORE POP POP JUMPDEST PUSH1 0x8 SLOAD PUSH1 0x1 PUSH1 0x1 PUSH1 0xA0 SHL SUB AND ISZERO PUSH2 0x1217 JUMPI PUSH1 0x8 SLOAD PUSH1 0x1 PUSH1 0x1 PUSH1 0xA0 SHL SUB AND PUSH1 0x0 SWAP1 DUP2 MSTORE PUSH1 0xA PUSH1 0x20 MSTORE PUSH1 0x40 DUP2 KECCAK256 DUP1 SLOAD DUP5 SWAP3 SWAP1 PUSH2 0x1211 SWAP1 DUP5 SWAP1 PUSH2 0x1CCE JUMP JUMPDEST SWAP1 SWAP2 SSTORE POP POP JUMPDEST PUSH1 0x9 SLOAD PUSH1 0x1 PUSH1 0x1 PUSH1 0xA0 SHL SUB AND ISZERO PUSH2 0x1258 JUMPI PUSH1 0x9 SLOAD PUSH1 0x1 PUSH1 0x1 PUSH1 0xA0 SHL SUB AND PUSH1 0x0 SWAP1 DUP2 MSTORE PUSH1 0xA PUSH1 0x20 MSTORE PUSH1 0x40 DUP2 KECCAK256 DUP1 SLOAD DUP4 SWAP3 SWAP1 PUSH2 0x1252 SWAP1 DUP5 SWAP1 PUSH2 0x1CCE JUMP JUMPDEST SWAP1 SWAP2 SSTORE POP POP JUMPDEST DUP5 PUSH1 0x5 PUSH1 0x0 DUP3 DUP3 SLOAD PUSH2 0x126A SWAP2 SWAP1 PUSH2 0x1CCE JUMP JUMPDEST SWAP1 SWAP2 SSTORE POP POP TIMESTAMP PUSH1 0x4 SSTORE PUSH1 0x40 DUP1 MLOAD DUP7 DUP2 MSTORE PUSH1 0x20 DUP2 ADD DUP7 SWAP1 MSTORE SWAP1 DUP2 ADD DUP5 SWAP1 MSTORE PUSH1 0x60 DUP2 ADD DUP4 SWAP1 MSTORE PUSH1 0x80 DUP2 ADD DUP3 SWAP1 MSTORE PUSH32 0x5DC1EBB0E1FB519730F90700983931F4BDE943CCB491773F30BC8B1417FEAF6D SWAP1 PUSH1 0xA0 ADD PUSH1 0x40 MLOAD DUP1 SWAP2 SUB SWAP1 LOG1 POP POP POP POP POP POP POP JUMP JUMPDEST PUSH2 0x12D3 PUSH2 0x1821 JUMP JUMPDEST PUSH2 0x12DB PUSH2 0x184E JUMP JUMPDEST PUSH1 0x0 DUP3 GT PUSH2 0x132B JUMPI PUSH1 0x40 MLOAD PUSH3 0x461BCD PUSH1 0xE5 SHL DUP2 MSTORE PUSH1 0x20 PUSH1 0x4 DUP3 ADD MSTORE PUSH1 0x1D PUSH1 0x24 DUP3 ADD MSTORE PUSH32 0x416D6F756E74206D7573742062652067726561746572207468616E2030000000 PUSH1 0x44 DUP3 ADD MSTORE PUSH1 0x64 ADD PUSH2 0x5E9 JUMP JUMPDEST PUSH1 0x1 PUSH1 0x1 PUSH1 0xA0 SHL SUB DUP2 AND PUSH2 0x1375 JUMPI PUSH1 0x40 MLOAD PUSH3 0x461BCD PUSH1 0xE5 SHL DUP2 MSTORE PUSH1 0x20 PUSH1 0x4 DUP3 ADD MSTORE PUSH1 0x11 PUSH1 0x24 DUP3 ADD MSTORE PUSH17 0x125B9D985B1A59081C9958DA5C1A595B9D PUSH1 0x7A SHL PUSH1 0x44 DUP3 ADD MSTORE PUSH1 0x64 ADD PUSH2 0x5E9 JUMP JUMPDEST PUSH2 0x137D PUSH2 0x1095 JUMP JUMPDEST PUSH1 0x40 MLOAD PUSH4 0x70A08231 PUSH1 0xE0 SHL DUP2 MSTORE ADDRESS PUSH1 0x4 DUP3 ADD MSTORE PUSH1 0x0 SWAP1 PUSH1 0x0 DUP1 MLOAD PUSH1 0x20 PUSH2 0x1D6E DUP4 CODECOPY DUP2 MLOAD SWAP2 MSTORE SWAP1 PUSH4 0x70A08231 SWAP1 PUSH1 0x24 ADD PUSH1 0x20 PUSH1 0x40 MLOAD DUP1 DUP4 SUB DUP2 DUP7 GAS STATICCALL ISZERO DUP1 ISZERO PUSH2 0x13C9 JUMPI RETURNDATASIZE PUSH1 0x0 DUP1 RETURNDATACOPY RETURNDATASIZE PUSH1 0x0 REVERT JUMPDEST POP POP POP POP PUSH1 0x40 MLOAD RETURNDATASIZE PUSH1 0x1F NOT PUSH1 0x1F DUP3 ADD AND DUP3 ADD DUP1 PUSH1 0x40 MSTORE POP DUP2 ADD SWAP1 PUSH2 0x13ED SWAP2 SWAP1 PUSH2 0x1BF6 JUMP JUMPDEST SWAP1 POP DUP3 DUP2 LT PUSH2 0x147B JUMPI PUSH1 0x40 MLOAD PUSH4 0xA9059CBB PUSH1 0xE0 SHL DUP2 MSTORE PUSH1 0x1 PUSH1 0x1 PUSH1 0xA0 SHL SUB DUP4 AND PUSH1 0x4 DUP3 ADD MSTORE PUSH1 0x24 DUP2 ADD DUP5 SWAP1 MSTORE PUSH1 0x0 DUP1 MLOAD PUSH1 0x20 PUSH2 0x1D6E DUP4 CODECOPY DUP2 MLOAD SWAP2 MSTORE SWAP1 PUSH4 0xA9059CBB SWAP1 PUSH1 0x44 ADD PUSH1 0x20 PUSH1 0x40 MLOAD DUP1 DUP4 SUB DUP2 PUSH1 0x0 DUP8 GAS CALL ISZERO DUP1 ISZERO PUSH2 0x1451 JUMPI RETURNDATASIZE PUSH1 0x0 DUP1 RETURNDATACOPY RETURNDATASIZE PUSH1 0x0 REVERT JUMPDEST POP POP POP POP PUSH1 0x40 MLOAD RETURNDATASIZE PUSH1 0x1F NOT PUSH1 0x1F DUP3 ADD AND DUP3 ADD DUP1 PUSH1 0x40 MSTORE POP DUP2 ADD SWAP1 PUSH2 0x1475 SWAP2 SWAP1 PUSH2 0x1C38 JUMP JUMPDEST POP PUSH2 0x1657 JUMP JUMPDEST PUSH1 0x40 MLOAD PUSH4 0xF99D9901 PUSH1 0xE0 SHL DUP2 MSTORE PUSH20 0x1111111111111111111111111111111111111111 PUSH1 0x4 DUP3 ADD MSTORE PUSH1 0x24 DUP2 ADD DUP5 SWAP1 MSTORE PUSH1 0x0 PUSH1 0x44 DUP3 ADD MSTORE ADDRESS PUSH1 0x64 DUP3 ADD DUP2 SWAP1 MSTORE PUSH1 0x84 DUP3 ADD MSTORE PUSH20 0xBBBBBBBBBB9CC5E90E3B3AF64BDAF62C37EEFFCB SWAP1 PUSH4 0xF99D9901 SWAP1 PUSH1 0xA4 ADD PUSH1 0x40 DUP1 MLOAD DUP1 DUP4 SUB DUP2 PUSH1 0x0 DUP8 GAS CALL SWAP3 POP POP POP DUP1 ISZERO PUSH2 0x1516 JUMPI POP PUSH1 0x40 DUP1 MLOAD PUSH1 0x1F RETURNDATASIZE SWAP1 DUP2 ADD PUSH1 0x1F NOT AND DUP3 ADD SWAP1 SWAP3 MSTORE PUSH2 0x1513 SWAP2 DUP2 ADD SWAP1 PUSH2 0x1C94 JUMP JUMPDEST PUSH1 0x1 JUMPDEST PUSH2 0x15BD JUMPI DUP1 ISZERO PUSH2 0x15B8 JUMPI PUSH1 0x40 MLOAD PUSH4 0xA9059CBB PUSH1 0xE0 SHL DUP2 MSTORE PUSH1 0x1 PUSH1 0x1 PUSH1 0xA0 SHL SUB DUP4 AND PUSH1 0x4 DUP3 ADD MSTORE PUSH1 0x24 DUP2 ADD DUP3 SWAP1 MSTORE PUSH1 0x0 DUP1 MLOAD PUSH1 0x20 PUSH2 0x1D6E DUP4 CODECOPY DUP2 MLOAD SWAP2 MSTORE SWAP1 PUSH4 0xA9059CBB SWAP1 PUSH1 0x44 ADD PUSH1 0x20 PUSH1 0x40 MLOAD DUP1 DUP4 SUB DUP2 PUSH1 0x0 DUP8 GAS CALL ISZERO DUP1 ISZERO PUSH2 0x157B JUMPI RETURNDATASIZE PUSH1 0x0 DUP1 RETURNDATACOPY RETURNDATASIZE PUSH1 0x0 REVERT JUMPDEST POP POP POP POP PUSH1 0x40 MLOAD RETURNDATASIZE PUSH1 0x1F NOT PUSH1 0x1F DUP3 ADD AND DUP3 ADD DUP1 PUSH1 0x40 MSTORE POP DUP2 ADD SWAP1 PUSH2 0x159F SWAP2 SWAP1 PUSH2 0x1C38 JUMP JUMPDEST POP DUP1 PUSH1 0x3 PUSH1 0x0 DUP3 DUP3 SLOAD PUSH2 0x15B2 SWAP2 SWAP1 PUSH2 0x1CCE JUMP JUMPDEST SWAP1 SWAP2 SSTORE POP POP JUMPDEST PUSH2 0x1657 JUMP JUMPDEST PUSH1 0x40 MLOAD PUSH4 0xA9059CBB PUSH1 0xE0 SHL DUP2 MSTORE PUSH1 0x1 PUSH1 0x1 PUSH1 0xA0 SHL SUB DUP6 AND PUSH1 0x4 DUP3 ADD MSTORE PUSH1 0x24 DUP2 ADD DUP4 SWAP1 MSTORE PUSH1 0x0 DUP1 MLOAD PUSH1 0x20 PUSH2 0x1D6E DUP4 CODECOPY DUP2 MLOAD SWAP2 MSTORE SWAP1 PUSH4 0xA9059CBB SWAP1 PUSH1 0x44 ADD PUSH1 0x20 PUSH1 0x40 MLOAD DUP1 DUP4 SUB DUP2 PUSH1 0x0 DUP8 GAS CALL ISZERO DUP1 ISZERO PUSH2 0x1618 JUMPI RETURNDATASIZE PUSH1 0x0 DUP1 RETURNDATACOPY RETURNDATASIZE PUSH1 0x0 REVERT JUMPDEST POP POP POP POP PUSH1 0x40 MLOAD RETURNDATASIZE PUSH1 0x1F NOT PUSH1 0x1F DUP3 ADD AND DUP3 ADD DUP1 PUSH1 0x40 MSTORE POP DUP2 ADD SWAP1 PUSH2 0x163C SWAP2 SWAP1 PUSH2 0x1C38 JUMP JUMPDEST POP DUP2 PUSH1 0x3 PUSH1 0x0 DUP3 DUP3 SLOAD PUSH2 0x164F SWAP2 SWAP1 PUSH2 0x1CCE JUMP JUMPDEST SWAP1 SWAP2 SSTORE POP POP POP POP JUMPDEST PUSH1 0x40 DUP1 MLOAD DUP5 DUP2 MSTORE PUSH1 0x1 PUSH1 0x1 PUSH1 0xA0 SHL SUB DUP5 AND PUSH1 0x20 DUP3 ADD MSTORE PUSH32 0xA59A09DBED02191F26AB21E73B64160FDE703647E4DBF06378D43A0E271D0BFA SWAP2 ADD PUSH1 0x40 MLOAD DUP1 SWAP2 SUB SWAP1 LOG1 POP PUSH2 0xD7D PUSH1 0x1 PUSH1 0x0 SSTORE JUMP JUMPDEST PUSH1 0x0 DUP1 PUSH1 0x0 DUP1 PUSH1 0x0 PUSH2 0x16B3 PUSH2 0xF54 JUMP JUMPDEST SWAP5 POP PUSH1 0x2 SLOAD SWAP4 POP PUSH1 0x3 SLOAD SWAP3 POP PUSH1 0x5 SLOAD SWAP2 POP PUSH1 0x4 SLOAD SWAP1 POP SWAP1 SWAP2 SWAP3 SWAP4 SWAP5 JUMP JUMPDEST PUSH1 0x0 PUSH1 0x2 SLOAD PUSH1 0x0 EQ DUP1 PUSH2 0x16E3 JUMPI POP PUSH1 0x5 SLOAD ISZERO JUMPDEST ISZERO PUSH2 0x16EE JUMPI POP PUSH1 0x0 SWAP1 JUMP JUMPDEST PUSH1 0x0 PUSH1 0x4 SLOAD TIMESTAMP PUSH2 0x16FE SWAP2 SWAP1 PUSH2 0x1CE1 JUMP JUMPDEST SWAP1 POP DUP1 PUSH1 0x0 SUB PUSH2 0x1710 JUMPI PUSH1 0x0 SWAP2 POP POP SWAP1 JUMP JUMPDEST PUSH1 0x0 DUP2 PUSH1 0x2 SLOAD PUSH2 0x1720 SWAP2 SWAP1 PUSH2 0x1CF4 JUMP JUMPDEST PUSH1 0x5 SLOAD PUSH2 0x1731 SWAP1 PUSH4 0x1E13380 PUSH2 0x1CF4 JUMP JUMPDEST PUSH2 0x173D SWAP1 PUSH2 0x2710 PUSH2 0x1CF4 JUMP JUMPDEST PUSH2 0x1747 SWAP2 SWAP1 PUSH2 0x1D0B JUMP JUMPDEST SWAP4 SWAP3 POP POP POP JUMP JUMPDEST PUSH2 0x1756 PUSH2 0x1821 JUMP JUMPDEST PUSH1 0x1 PUSH1 0x1 PUSH1 0xA0 SHL SUB DUP2 AND PUSH2 0x177C JUMPI PUSH1 0x40 MLOAD PUSH3 0x461BCD PUSH1 0xE5 SHL DUP2 MSTORE PUSH1 0x4 ADD PUSH2 0x5E9 SWAP1 PUSH2 0x1C0F JUMP JUMPDEST PUSH1 0x9 DUP1 SLOAD PUSH1 0x1 PUSH1 0x1 PUSH1 0xA0 SHL SUB NOT AND PUSH1 0x1 PUSH1 0x1 PUSH1 0xA0 SHL SUB DUP4 AND SWAP1 DUP2 OR SWAP1 SWAP2 SSTORE PUSH1 0x40 DUP1 MLOAD DUP2 DUP2 MSTORE PUSH1 0xB SWAP2 DUP2 ADD SWAP2 SWAP1 SWAP2 MSTORE PUSH11 0x19195D995B1BDC1B595B9D PUSH1 0xAA SHL PUSH1 0x60 DUP3 ADD MSTORE PUSH1 0x20 DUP2 ADD SWAP2 SWAP1 SWAP2 MSTORE PUSH1 0x0 DUP1 MLOAD PUSH1 0x20 PUSH2 0x1D4E DUP4 CODECOPY DUP2 MLOAD SWAP2 MSTORE SWAP1 PUSH1 0x80 ADD PUSH2 0x649 JUMP JUMPDEST PUSH2 0x17E6 PUSH2 0x1821 JUMP JUMPDEST PUSH1 0x1 PUSH1 0x1 PUSH1 0xA0 SHL SUB DUP2 AND PUSH2 0x1810 JUMPI PUSH1 0x40 MLOAD PUSH4 0x1E4FBDF7 PUSH1 0xE0 SHL DUP2 MSTORE PUSH1 0x0 PUSH1 0x4 DUP3 ADD MSTORE PUSH1 0x24 ADD PUSH2 0x5E9 JUMP JUMPDEST PUSH2 0x99F DUP2 PUSH2 0x1A91 JUMP JUMPDEST PUSH2 0x9B2 PUSH2 0x1095 JUMP JUMPDEST PUSH1 0x1 SLOAD PUSH1 0x1 PUSH1 0x1 PUSH1 0xA0 SHL SUB AND CALLER EQ PUSH2 0x9B2 JUMPI PUSH1 0x40 MLOAD PUSH4 0x118CDAA7 PUSH1 0xE0 SHL DUP2 MSTORE CALLER PUSH1 0x4 DUP3 ADD MSTORE PUSH1 0x24 ADD PUSH2 0x5E9 JUMP JUMPDEST PUSH1 0x2 PUSH1 0x0 SLOAD SUB PUSH2 0x1871 JUMPI PUSH1 0x40 MLOAD PUSH4 0x3EE5AEB5 PUSH1 0xE0 SHL DUP2 MSTORE PUSH1 0x4 ADD PUSH1 0x40 MLOAD DUP1 SWAP2 SUB SWAP1 REVERT JUMPDEST PUSH1 0x2 PUSH1 0x0 SSTORE JUMP JUMPDEST PUSH1 0x1 SLOAD PUSH1 0x1 PUSH1 0xA0 SHL SWAP1 DIV PUSH1 0xFF AND ISZERO PUSH2 0x9B2 JUMPI PUSH1 0x40 MLOAD PUSH4 0xD93C0665 PUSH1 0xE0 SHL DUP2 MSTORE PUSH1 0x4 ADD PUSH1 0x40 MLOAD DUP1 SWAP2 SUB SWAP1 REVERT JUMPDEST PUSH2 0x18AB PUSH2 0x1B26 JUMP JUMPDEST PUSH1 0x1 DUP1 SLOAD PUSH1 0xFF PUSH1 0xA0 SHL NOT AND SWAP1 SSTORE PUSH32 0x5DB9EE0A495BF2E6FF9C91A7834C1BA4FDD244A5E8AA4E537BD38AEAE4B073AA CALLER JUMPDEST PUSH1 0x40 MLOAD PUSH1 0x1 PUSH1 0x1 PUSH1 0xA0 SHL SUB SWAP1 SWAP2 AND DUP2 MSTORE PUSH1 0x20 ADD PUSH1 0x40 MLOAD DUP1 SWAP2 SUB SWAP1 LOG1 JUMP JUMPDEST PUSH1 0x40 MLOAD PUSH4 0x95EA7B3 PUSH1 0xE0 SHL DUP2 MSTORE PUSH20 0xBBBBBBBBBB9CC5E90E3B3AF64BDAF62C37EEFFCB PUSH1 0x4 DUP3 ADD MSTORE PUSH1 0x24 DUP2 ADD DUP3 SWAP1 MSTORE PUSH1 0x0 DUP1 MLOAD PUSH1 0x20 PUSH2 0x1D6E DUP4 CODECOPY DUP2 MLOAD SWAP2 MSTORE SWAP1 PUSH4 0x95EA7B3 SWAP1 PUSH1 0x44 ADD PUSH1 0x20 PUSH1 0x40 MLOAD DUP1 DUP4 SUB DUP2 PUSH1 0x0 DUP8 GAS CALL ISZERO DUP1 ISZERO PUSH2 0x195E JUMPI RETURNDATASIZE PUSH1 0x0 DUP1 RETURNDATACOPY RETURNDATASIZE PUSH1 0x0 REVERT JUMPDEST POP POP POP POP PUSH1 0x40 MLOAD RETURNDATASIZE PUSH1 0x1F NOT PUSH1 0x1F DUP3 ADD AND DUP3 ADD DUP1 PUSH1 0x40 MSTORE POP DUP2 ADD SWAP1 PUSH2 0x1982 SWAP2 SWAP1 PUSH2 0x1C38 JUMP JUMPDEST POP PUSH1 0x40 MLOAD PUSH4 0x30DF7339 PUSH1 0xE2 SHL DUP2 MSTORE PUSH20 0xBBBBBBBBBB9CC5E90E3B3AF64BDAF62C37EEFFCB SWAP1 PUSH4 0xC37DCCE4 SWAP1 PUSH2 0x19D5 SWAP1 PUSH20 0x1111111111111111111111111111111111111111 SWAP1 DUP6 SWAP1 PUSH1 0x0 SWAP1 ADDRESS SWAP1 PUSH1 0x4 ADD PUSH2 0x1C5A JUMP JUMPDEST PUSH1 0x40 DUP1 MLOAD DUP1 DUP4 SUB DUP2 PUSH1 0x0 DUP8 GAS CALL SWAP3 POP POP POP DUP1 ISZERO PUSH2 0x1A0F JUMPI POP PUSH1 0x40 DUP1 MLOAD PUSH1 0x1F RETURNDATASIZE SWAP1 DUP2 ADD PUSH1 0x1F NOT AND DUP3 ADD SWAP1 SWAP3 MSTORE PUSH2 0x1A0C SWAP2 DUP2 ADD SWAP1 PUSH2 0x1C94 JUMP JUMPDEST PUSH1 0x1 JUMPDEST PUSH2 0x1A4E JUMPI DUP1 PUSH1 0x2 PUSH1 0x0 DUP3 DUP3 SLOAD PUSH2 0x1A25 SWAP2 SWAP1 PUSH2 0x1CCE JUMP JUMPDEST SWAP1 SWAP2 SSTORE POP POP PUSH1 0x40 DUP1 MLOAD DUP3 DUP2 MSTORE PUSH1 0x0 PUSH1 0x20 DUP3 ADD MSTORE PUSH1 0x0 DUP1 MLOAD PUSH1 0x20 PUSH2 0x1D2E DUP4 CODECOPY DUP2 MLOAD SWAP2 MSTORE SWAP2 ADD PUSH2 0x649 JUMP JUMPDEST DUP2 PUSH1 0x2 PUSH1 0x0 DUP3 DUP3 SLOAD PUSH2 0x1A60 SWAP2 SWAP1 PUSH2 0x1CCE JUMP JUMPDEST SWAP1 SWAP2 SSTORE POP POP PUSH1 0x40 DUP1 MLOAD DUP4 DUP2 MSTORE PUSH1 0x20 DUP2 ADD DUP4 SWAP1 MSTORE PUSH1 0x0 DUP1 MLOAD PUSH1 0x20 PUSH2 0x1D2E DUP4 CODECOPY DUP2 MLOAD SWAP2 MSTORE SWAP2 ADD PUSH1 0x40 MLOAD DUP1 SWAP2 SUB SWAP1 LOG1 POP POP POP JUMP JUMPDEST PUSH1 0x1 DUP1 SLOAD PUSH1 0x1 PUSH1 0x1 PUSH1 0xA0 SHL SUB DUP4 DUP2 AND PUSH1 0x1 PUSH1 0x1 PUSH1 0xA0 SHL SUB NOT DUP4 AND DUP2 OR SWAP1 SWAP4 SSTORE PUSH1 0x40 MLOAD SWAP2 AND SWAP2 SWAP1 DUP3 SWAP1 PUSH32 0x8BE0079C531659141344CD1FD0A4F28419497F9722A3DAAFE3B4186F6B6457E0 SWAP1 PUSH1 0x0 SWAP1 LOG3 POP POP JUMP JUMPDEST PUSH2 0x1AEB PUSH2 0x1878 JUMP JUMPDEST PUSH1 0x1 DUP1 SLOAD PUSH1 0xFF PUSH1 0xA0 SHL NOT AND PUSH1 0x1 PUSH1 0xA0 SHL OR SWAP1 SSTORE PUSH32 0x62E78CEA01BEE320CD4E420270B5EA74000D11B0C9F74754EBDBFC544B05A258 PUSH2 0x18DB CALLER SWAP1 JUMP JUMPDEST PUSH1 0x1 SLOAD PUSH1 0x1 PUSH1 0xA0 SHL SWAP1 DIV PUSH1 0xFF AND PUSH2 0x9B2 JUMPI PUSH1 0x40 MLOAD PUSH4 0x8DFC202B PUSH1 0xE0 SHL DUP2 MSTORE PUSH1 0x4 ADD PUSH1 0x40 MLOAD DUP1 SWAP2 SUB SWAP1 REVERT JUMPDEST DUP1 CALLDATALOAD PUSH1 0x1 PUSH1 0x1 PUSH1 0xA0 SHL SUB DUP2 AND DUP2 EQ PUSH2 0x1B67 JUMPI PUSH1 0x0 DUP1 REVERT JUMPDEST SWAP2 SWAP1 POP JUMP JUMPDEST PUSH1 0x0 PUSH1 0x20 DUP3 DUP5 SUB SLT ISZERO PUSH2 0x1B7E JUMPI PUSH1 0x0 DUP1 REVERT JUMPDEST PUSH2 0x1747 DUP3 PUSH2 0x1B50 JUMP JUMPDEST PUSH1 0x0 PUSH1 0x20 DUP3 DUP5 SUB SLT ISZERO PUSH2 0x1B99 JUMPI PUSH1 0x0 DUP1 REVERT JUMPDEST POP CALLDATALOAD SWAP2 SWAP1 POP JUMP JUMPDEST PUSH1 0x0 DUP1 PUSH1 0x40 DUP4 DUP6 SUB SLT ISZERO PUSH2 0x1BB3 JUMPI PUSH1 0x0 DUP1 REVERT JUMPDEST PUSH2 0x1BBC DUP4 PUSH2 0x1B50 JUMP JUMPDEST SWAP5 PUSH1 0x20 SWAP4 SWAP1 SWAP4 ADD CALLDATALOAD SWAP4 POP POP POP JUMP JUMPDEST PUSH1 0x0 DUP1 PUSH1 0x40 DUP4 DUP6 SUB SLT ISZERO PUSH2 0x1BDD JUMPI PUSH1 0x0 DUP1 REVERT JUMPDEST DUP3 CALLDATALOAD SWAP2 POP PUSH2 0x1BED PUSH1 0x20 DUP5 ADD PUSH2 0x1B50 JUMP JUMPDEST SWAP1 POP SWAP3 POP SWAP3 SWAP1 POP JUMP JUMPDEST PUSH1 0x0 PUSH1 0x20 DUP3 DUP5 SUB SLT ISZERO PUSH2 0x1C08 JUMPI PUSH1 0x0 DUP1 REVERT JUMPDEST POP MLOAD SWAP2 SWAP1 POP JUMP JUMPDEST PUSH1 0x20 DUP1 DUP3 MSTORE PUSH1 0xF SWAP1 DUP3 ADD MSTORE PUSH15 0x496E76616C69642061646472657373 PUSH1 0x88 SHL PUSH1 0x40 DUP3 ADD MSTORE PUSH1 0x60 ADD SWAP1 JUMP JUMPDEST PUSH1 0x0 PUSH1 0x20 DUP3 DUP5 SUB SLT ISZERO PUSH2 0x1C4A JUMPI PUSH1 0x0 DUP1 REVERT JUMPDEST DUP2 MLOAD DUP1 ISZERO ISZERO DUP2 EQ PUSH2 0x1747 JUMPI PUSH1 0x0 DUP1 REVERT JUMPDEST PUSH1 0x1 PUSH1 0x1 PUSH1 0xA0 SHL SUB SWAP5 DUP6 AND DUP2 MSTORE PUSH1 0x20 DUP2 ADD SWAP4 SWAP1 SWAP4 MSTORE PUSH1 0x40 DUP4 ADD SWAP2 SWAP1 SWAP2 MSTORE SWAP1 SWAP2 AND PUSH1 0x60 DUP3 ADD MSTORE PUSH1 0xA0 PUSH1 0x80 DUP3 ADD DUP2 SWAP1 MSTORE PUSH1 0x0 SWAP1 DUP3 ADD MSTORE PUSH1 0xC0 ADD SWAP1 JUMP JUMPDEST PUSH1 0x0 DUP1 PUSH1 0x40 DUP4 DUP6 SUB SLT ISZERO PUSH2 0x1CA7 JUMPI PUSH1 0x0 DUP1 REVERT JUMPDEST POP POP DUP1 MLOAD PUSH1 0x20 SWAP1 SWAP2 ADD MLOAD SWAP1 SWAP3 SWAP1 SWAP2 POP JUMP JUMPDEST PUSH4 0x4E487B71 PUSH1 0xE0 SHL PUSH1 0x0 MSTORE PUSH1 0x11 PUSH1 0x4 MSTORE PUSH1 0x24 PUSH1 0x0 REVERT JUMPDEST DUP1 DUP3 ADD DUP1 DUP3 GT ISZERO PUSH2 0x108F JUMPI PUSH2 0x108F PUSH2 0x1CB8 JUMP JUMPDEST DUP2 DUP2 SUB DUP2 DUP2 GT ISZERO PUSH2 0x108F JUMPI PUSH2 0x108F PUSH2 0x1CB8 JUMP JUMPDEST DUP1 DUP3 MUL DUP2 ISZERO DUP3 DUP3 DIV DUP5 EQ OR PUSH2 0x108F JUMPI PUSH2 0x108F PUSH2 0x1CB8 JUMP JUMPDEST PUSH1 0x0 DUP3 PUSH2 0x1D28 JUMPI PUSH4 0x4E487B71 PUSH1 0xE0 SHL PUSH1 0x0 MSTORE PUSH1 0x12 PUSH1 0x4 MSTORE PUSH1 0x24 PUSH1 0x0 REVERT JUMPDEST POP DIV SWAP1 JUMP INVALID 0xB0 INVALID PUSH7 0x6FB738FF18B002 POP 0xD0 DUP13 CALLVALUE SWAP2 0xE5 0xAB SAR OR 0x28 POP ADDMOD DELEGATECALL PUSH14 0x46512A4518863362F611FEC7BABE REVERT 0x25 SWAP13 JUMPI 0xEA JUMPDEST PUSH1 0x6 0xAC SELFDESTRUCT DUP2 BLOCKHASH 0xAB OR 0xBB DUP2 PUSH13 0x65BA0AA7E36C09CAA800000000 STOP STOP STOP STOP STOP STOP STOP STOP LOG0 0xB8 PUSH11 0x33E6441B8DB72C5AB9CBF4 TIMESTAMP DUP13 PUSH28 0xB060B6A264697066735822122032040946063110B1C5658CD8D3B8B0 LOG3 KECCAK256 0xEF SAR 0xB5 0x1F PREVRANDAO 0xC5 PUSH22 0x2F49ABFC41930D2864736F6C63430008140033000000 "},"methodIdentifiers":{"AIRDROP_YIELD_SHARE()":"932b334e","BURN_YIELD_SHARE()":"8dac0157","DEVELOPMENT_YIELD_SHARE()":"fe248815","MORPHO()":"3acb5624","STAKING_YIELD_SHARE()":"0efb03d3","USDC()":"89a30271","USDC_MARKET()":"a13c5847","accumulatedYield()":"fcdfd5c5","addRevenue(uint256)":"63ec512d","airdropContract()":"ab2be726","burnContract()":"1c0973a4","claimYield(uint256)":"40bd2e23","depositToMorpho(uint256)":"3bdcfc1f","developmentContract()":"d224ff73","emergencyWithdraw(address,uint256)":"95ccea67","estimateCurrentYield()":"42879af1","forceYieldUpdate()":"f78fae46","getAvailableYield(address)":"b2325876","getCurrentBalance()":"a5749710","getEstimatedAPY()":"ccaad55d","getMorphoBalance()":"0e085281","getTreasuryStats()":"c8692e3f","lastYieldUpdate()":"8f8c8aee","needsYieldUpdate()":"a481293f","owner()":"8da5cb5b","pause()":"8456cb59","paused()":"5c975abb","renounceOwnership()":"715018a6","setAirdropContract(address)":"6f011538","setBurnContract(address)":"37beafe0","setDevelopmentContract(address)":"f22645a8","setStakingContract(address)":"9dd373b9","stakingContract()":"ee99205c","totalDeposited()":"ff50abdc","totalWithdrawn()":"4b319713","transferOwnership(address)":"f2fde38b","unpause()":"3f4ba83a","updateYield()":"bb21a997","withdrawFromMorpho(uint256,address)":"bf640de7","yieldAllocated(address)":"4c859eaf","yieldClaimed(address)":"45bba697"}}}}}