{"contracts/deployment/SolarStaking.sol":{"SolarStaking":{"abi":[{"inputs":[],"stateMutability":"nonpayable","type":"constructor"},{"inputs":[],"name":"EnforcedPause","type":"error"},{"inputs":[],"name":"ExpectedPause","type":"error"},{"inputs":[{"internalType":"address","name":"owner","type":"address"}],"name":"OwnableInvalidOwner","type":"error"},{"inputs":[{"internalType":"address","name":"account","type":"address"}],"name":"OwnableUnauthorizedAccount","type":"error"},{"inputs":[],"name":"ReentrancyGuardReentrantCall","type":"error"},{"anonymous":false,"inputs":[{"indexed":false,"internalType":"bool","name":"enabled","type":"bool"}],"name":"EmergencyWithdrawToggled","type":"event"},{"anonymous":false,"inputs":[{"indexed":false,"internalType":"uint256","name":"newMonthlyEmission","type":"uint256"}],"name":"EmissionUpdated","type":"event"},{"anonymous":false,"inputs":[{"indexed":true,"internalType":"address","name":"previousOwner","type":"address"},{"indexed":true,"internalType":"address","name":"newOwner","type":"address"}],"name":"OwnershipTransferred","type":"event"},{"anonymous":false,"inputs":[{"indexed":false,"internalType":"address","name":"account","type":"address"}],"name":"Paused","type":"event"},{"anonymous":false,"inputs":[{"indexed":false,"internalType":"uint256","name":"amount","type":"uint256"}],"name":"RewardPoolFunded","type":"event"},{"anonymous":false,"inputs":[{"indexed":true,"internalType":"address","name":"user","type":"address"},{"indexed":false,"internalType":"uint256","name":"amount","type":"uint256"}],"name":"RewardsClaimed","type":"event"},{"anonymous":false,"inputs":[{"indexed":true,"internalType":"address","name":"user","type":"address"},{"indexed":false,"internalType":"uint256","name":"amount","type":"uint256"},{"indexed":false,"internalType":"uint256","name":"tier","type":"uint256"}],"name":"Staked","type":"event"},{"anonymous":false,"inputs":[{"indexed":false,"internalType":"uint256","name":"tierId","type":"uint256"},{"indexed":false,"internalType":"uint256","name":"minimumStake","type":"uint256"},{"indexed":false,"internalType":"uint256","name":"multiplier","type":"uint256"},{"indexed":false,"internalType":"string","name":"name","type":"string"}],"name":"TierUpdated","type":"event"},{"anonymous":false,"inputs":[{"indexed":false,"internalType":"address","name":"account","type":"address"}],"name":"Unpaused","type":"event"},{"anonymous":false,"inputs":[{"indexed":true,"internalType":"address","name":"user","type":"address"},{"indexed":false,"internalType":"uint256","name":"amount","type":"uint256"}],"name":"Unstaked","type":"event"},{"inputs":[],"name":"EMISSION_REDUCTION_RATE","outputs":[{"internalType":"uint256","name":"","type":"uint256"}],"stateMutability":"view","type":"function"},{"inputs":[],"name":"INITIAL_MONTHLY_EMISSION","outputs":[{"internalType":"uint256","name":"","type":"uint256"}],"stateMutability":"view","type":"function"},{"inputs":[],"name":"SECONDS_PER_MONTH","outputs":[{"internalType":"uint256","name":"","type":"uint256"}],"stateMutability":"view","type":"function"},{"inputs":[],"name":"SOLAR_TOKEN","outputs":[{"internalType":"contract IERC20","name":"","type":"address"}],"stateMutability":"view","type":"function"},{"inputs":[{"internalType":"uint256","name":"minimumStake","type":"uint256"},{"internalType":"uint256","name":"multiplier","type":"uint256"},{"internalType":"string","name":"name","type":"string"}],"name":"addTier","outputs":[],"stateMutability":"nonpayable","type":"function"},{"inputs":[{"internalType":"address","name":"user","type":"address"}],"name":"calculatePendingRewards","outputs":[{"internalType":"uint256","name":"rewards","type":"uint256"}],"stateMutability":"view","type":"function"},{"inputs":[{"internalType":"uint256","name":"stakedAmount","type":"uint256"}],"name":"calculateUserTier","outputs":[{"internalType":"uint256","name":"tier","type":"uint256"}],"stateMutability":"view","type":"function"},{"inputs":[],"name":"claimRewards","outputs":[],"stateMutability":"nonpayable","type":"function"},{"inputs":[],"name":"currentMonthlyEmission","outputs":[{"internalType":"uint256","name":"","type":"uint256"}],"stateMutability":"view","type":"function"},{"inputs":[],"name":"emergencyUnstake","outputs":[],"stateMutability":"nonpayable","type":"function"},{"inputs":[{"internalType":"address","name":"token","type":"address"},{"internalType":"uint256","name":"amount","type":"uint256"}],"name":"emergencyWithdraw","outputs":[],"stateMutability":"nonpayable","type":"function"},{"inputs":[],"name":"emergencyWithdrawEnabled","outputs":[{"internalType":"bool","name":"","type":"bool"}],"stateMutability":"view","type":"function"},{"inputs":[],"name":"emissionStartTime","outputs":[{"internalType":"uint256","name":"","type":"uint256"}],"stateMutability":"view","type":"function"},{"inputs":[],"name":"forceEmissionUpdate","outputs":[],"stateMutability":"nonpayable","type":"function"},{"inputs":[{"internalType":"uint256","name":"amount","type":"uint256"}],"name":"fundRewardPool","outputs":[],"stateMutability":"nonpayable","type":"function"},{"inputs":[],"name":"getAllTiers","outputs":[{"internalType":"uint256[]","name":"tierIds","type":"uint256[]"},{"internalType":"uint256[]","name":"minimumStakes","type":"uint256[]"},{"internalType":"uint256[]","name":"multipliers","type":"uint256[]"},{"internalType":"string[]","name":"names","type":"string[]"},{"internalType":"bool[]","name":"activeStatus","type":"bool[]"}],"stateMutability":"view","type":"function"},{"inputs":[{"internalType":"uint256","name":"tierId","type":"uint256"}],"name":"getEstimatedAPY","outputs":[{"internalType":"uint256","name":"apy","type":"uint256"}],"stateMutability":"view","type":"function"},{"inputs":[],"name":"getMonthsSinceStart","outputs":[{"internalType":"uint256","name":"months","type":"uint256"}],"stateMutability":"view","type":"function"},{"inputs":[],"name":"getStakingStats","outputs":[{"internalType":"uint256","name":"totalStakedAmount","type":"uint256"},{"internalType":"uint256","name":"totalUsers","type":"uint256"},{"internalType":"uint256","name":"totalDistributed","type":"uint256"},{"internalType":"uint256","name":"currentEmission","type":"uint256"},{"internalType":"uint256","name":"poolBalance","type":"uint256"}],"stateMutability":"view","type":"function"},{"inputs":[{"internalType":"address","name":"user","type":"address"}],"name":"getUserStakeInfo","outputs":[{"internalType":"uint256","name":"amount","type":"uint256"},{"internalType":"uint256","name":"tier","type":"uint256"},{"internalType":"uint256","name":"stakeTime","type":"uint256"},{"internalType":"uint256","name":"pendingRewards","type":"uint256"},{"internalType":"uint256","name":"totalClaimed","type":"uint256"}],"stateMutability":"view","type":"function"},{"inputs":[],"name":"lastEmissionUpdate","outputs":[{"internalType":"uint256","name":"","type":"uint256"}],"stateMutability":"view","type":"function"},{"inputs":[],"name":"lastRewardCalculation","outputs":[{"internalType":"uint256","name":"","type":"uint256"}],"stateMutability":"view","type":"function"},{"inputs":[],"name":"needsEmissionUpdate","outputs":[{"internalType":"bool","name":"needed","type":"bool"}],"stateMutability":"view","type":"function"},{"inputs":[],"name":"owner","outputs":[{"internalType":"address","name":"","type":"address"}],"stateMutability":"view","type":"function"},{"inputs":[],"name":"pause","outputs":[],"stateMutability":"nonpayable","type":"function"},{"inputs":[],"name":"paused","outputs":[{"internalType":"bool","name":"","type":"bool"}],"stateMutability":"view","type":"function"},{"inputs":[],"name":"renounceOwnership","outputs":[],"stateMutability":"nonpayable","type":"function"},{"inputs":[],"name":"rewardPool","outputs":[{"internalType":"uint256","name":"","type":"uint256"}],"stateMutability":"view","type":"function"},{"inputs":[{"internalType":"bool","name":"enabled","type":"bool"}],"name":"setEmergencyWithdraw","outputs":[],"stateMutability":"nonpayable","type":"function"},{"inputs":[{"internalType":"uint256","name":"amount","type":"uint256"}],"name":"stake","outputs":[],"stateMutability":"nonpayable","type":"function"},{"inputs":[{"internalType":"uint256","name":"","type":"uint256"}],"name":"stakingTiers","outputs":[{"internalType":"uint256","name":"minimumStake","type":"uint256"},{"internalType":"uint256","name":"multiplier","type":"uint256"},{"internalType":"string","name":"name","type":"string"},{"internalType":"bool","name":"active","type":"bool"}],"stateMutability":"view","type":"function"},{"inputs":[],"name":"totalRewardsDistributed","outputs":[{"internalType":"uint256","name":"","type":"uint256"}],"stateMutability":"view","type":"function"},{"inputs":[],"name":"totalStaked","outputs":[{"internalType":"uint256","name":"","type":"uint256"}],"stateMutability":"view","type":"function"},{"inputs":[],"name":"totalStakers","outputs":[{"internalType":"uint256","name":"","type":"uint256"}],"stateMutability":"view","type":"function"},{"inputs":[],"name":"totalTiers","outputs":[{"internalType":"uint256","name":"","type":"uint256"}],"stateMutability":"view","type":"function"},{"inputs":[{"internalType":"address","name":"newOwner","type":"address"}],"name":"transferOwnership","outputs":[],"stateMutability":"nonpayable","type":"function"},{"inputs":[],"name":"unpause","outputs":[],"stateMutability":"nonpayable","type":"function"},{"inputs":[{"internalType":"uint256","name":"amount","type":"uint256"}],"name":"unstake","outputs":[],"stateMutability":"nonpayable","type":"function"},{"inputs":[],"name":"updateEmissions","outputs":[],"stateMutability":"nonpayable","type":"function"},{"inputs":[],"name":"updateRewards","outputs":[],"stateMutability":"nonpayable","type":"function"},{"inputs":[{"internalType":"uint256","name":"tierId","type":"uint256"},{"internalType":"uint256","name":"minimumStake","type":"uint256"},{"internalType":"uint256","name":"multiplier","type":"uint256"},{"internalType":"string","name":"name","type":"string"},{"internalType":"bool","name":"active","type":"bool"}],"name":"updateTier","outputs":[],"stateMutability":"nonpayable","type":"function"},{"inputs":[{"internalType":"address","name":"","type":"address"}],"name":"userStakes","outputs":[{"internalType":"uint256","name":"amount","type":"uint256"},{"internalType":"uint256","name":"tier","type":"uint256"},{"internalType":"uint256","name":"stakeTime","type":"uint256"},{"internalType":"uint256","name":"lastClaimTime","type":"uint256"},{"internalType":"uint256","name":"totalClaimed","type":"uint256"}],"stateMutability":"view","type":"function"}],"evm":{"bytecode":{"linkReferences":{},"object":"60806040523480156200001157600080fd5b50600160005533806200003e57604051631e4fbdf760e01b81526000600482015260240160405180910390fd5b620000498162000422565b50604080516080810182526a084595161401484a0000008152612710602080830191825283518085018552600681526542726f6e7a6560d01b818301529383019384526001606084018190526000526002905281517fe90b7bceb6e7df5418fb78d8ee546e97c83a08bbccc01a0644d599ccd2a7c2e090815590517fe90b7bceb6e7df5418fb78d8ee546e97c83a08bbccc01a0644d599ccd2a7c2e15591519091907fe90b7bceb6e7df5418fb78d8ee546e97c83a08bbccc01a0644d599ccd2a7c2e29062000119908262000519565b50606091820151600391909101805460ff1916911515919091179055604080516080810182526a52b7d2dcc80cd2e40000008152613a98602080830191825283518085018552600681526529b4b63b32b960d11b818301529383019384526001948301949094526002600081905290935280517f679795a0195a1b76cdebb7c51d74e058aee92919b8c3389af86ef24535e8a28c90815592517f679795a0195a1b76cdebb7c51d74e058aee92919b8c3389af86ef24535e8a28d5590519091907f679795a0195a1b76cdebb7c51d74e058aee92919b8c3389af86ef24535e8a28e9062000207908262000519565b506060918201516003918201805460ff1916911515919091179055604080516080810182526b019d971e4fe8401e740000008152614e20602080830191825283518085018552600481526311dbdb1960e21b81830152938301938452600195830195909552600093909352600290935282517f88601476d11616a71c5be67555bd1dff4b1cbf21533d2669b768b61518cfe1c390815591517f88601476d11616a71c5be67555bd1dff4b1cbf21533d2669b768b61518cfe1c455517f88601476d11616a71c5be67555bd1dff4b1cbf21533d2669b768b61518cfe1c590620002f0908262000519565b50606091820151600391909101805460ff1916911515919091179055604080516080810182526b033b2e3c9fd0803ce800000081526175306020808301918252835180850185526007815266111a585b5bdb9960ca1b818301529383019384526001948301949094526004600052600290935280517fee60d0579bcffd98e668647d59fec1ff86a7fb340ce572e844f234ae73a6918f90815592517fee60d0579bcffd98e668647d59fec1ff86a7fb340ce572e844f234ae73a691905590519091907fee60d0579bcffd98e668647d59fec1ff86a7fb340ce572e844f234ae73a6919190620003e0908262000519565b50606091909101516003918201805460ff191691151591909117905560049055690a968163f0a57b400000600855426009819055600a819055600c55620005e5565b600180546001600160a01b038381166001600160a01b0319831681179093556040519116919082907f8be0079c531659141344cd1fd0a4f28419497f9722a3daafe3b4186f6b6457e090600090a35050565b634e487b7160e01b600052604160045260246000fd5b600181811c908216806200049f57607f821691505b602082108103620004c057634e487b7160e01b600052602260045260246000fd5b50919050565b601f8211156200051457600081815260208120601f850160051c81016020861015620004ef5750805b601f850160051c820191505b818110156200051057828155600101620004fb565b5050505b505050565b81516001600160401b0381111562000535576200053562000474565b6200054d816200054684546200048a565b84620004c6565b602080601f8311600181146200058557600084156200056c5750858301515b600019600386901b1c1916600185901b17855562000510565b600085815260208120601f198616915b82811015620005b65788860151825594840194600190910190840162000595565b5085821015620005d55787850151600019600388901b60f8161c191681555b5050505050600190811b01905550565b6122b580620005f56000396000f3fe608060405234801561001057600080fd5b506004361061025e5760003560e01c80638698903811610146578063c1dd6084116100c3578063d50267ee11610087578063d50267ee146104ee578063e5854ff814610511578063e718e1c714610519578063ee17254614610521578063f2fde38b1461052a578063fa8dfc171461053d57600080fd5b8063c1dd608414610498578063c32d3ae2146104ac578063c7644f22146104bf578063c7dd6f07146104c8578063cc17e0d1146104db57600080fd5b8063995840e31161010a578063995840e314610445578063a694fc3a14610458578063b55e511d1461046b578063ba2e9fdd14610474578063bda064eb1461047d57600080fd5b8063869890381461039657806386a26f6f1461039f5780638da5cb5b146103a75780638da7ad23146103cc57806395ccea671461043257600080fd5b8063439233ae116101df57806366666aa9116101a357806366666aa914610363578063715018a61461036c5780637589cf2f1461037457806379eaaf611461037c578063817b1cd2146103855780638456cb591461038e57600080fd5b8063439233ae146103005780635747e69f146103185780635c975abb146103255780636405a06e146103375780636471af831461034a57600080fd5b80632e17de78116102265780632e17de78146102cc57806334bee92e146102df578063372500ab146102e85780633e158b0c146102f05780633f4ba83a146102f857600080fd5b806301346847146102635780630245534614610287578063097aad101461029a57806310786deb146102ad5780631d583e0d146102b7575b600080fd5b610274690a968163f0a57b40000081565b6040519081526020015b60405180910390f35b610274610295366004611c3c565b610545565b6102746102a8366004611c71565b61067d565b61027462278d0081565b6102ca6102c5366004611c3c565b61077c565b005b6102ca6102da366004611c3c565b6108aa565b610274600c5481565b6102ca610aa2565b6102ca610acf565b6102ca610b37565b610308610b47565b604051901515815260200161027e565b600d546103089060ff1681565b600154600160a01b900460ff16610308565b610274610345366004611c3c565b610b62565b610352610bc6565b60405161027e959493929190611d3f565b610274600b5481565b6102ca610f12565b6102ca610f24565b61027460035481565b61027460055481565b6102ca6110eb565b61027460065481565b6102ca6110fb565b6001546001600160a01b03165b6040516001600160a01b03909116815260200161027e565b61040a6103da366004611c71565b60046020819052600091825260409091208054600182015460028301546003840154939094015491939092909185565b604080519586526020860194909452928401919091526060830152608082015260a00161027e565b6102ca610440366004611dee565b61110b565b6102ca610453366004611ebb565b6111f6565b6102ca610466366004611c3c565b6112f7565b61027460095481565b61027460085481565b6103b473746042147240304098c837563aaec0f671881b0781565b600554600654600754600854600b5461040a565b61040a6104ba366004611c71565b611584565b610274600a5481565b6102ca6104d6366004611f19565b6115fa565b6102ca6104e9366004611f36565b611643565b6105016104fc366004611c3c565b61177c565b60405161027e9493929190611fa5565b6102ca611832565b6102746118ea565b61027460075481565b6102ca610538366004611c71565b61190d565b610274606281565b6000811580610555575060035482115b80610572575060008281526002602052604090206003015460ff16155b1561057f57506000919050565b6005546000036105e05760008281526002602052604090206001810154905460085482906105ae90600c611fed565b6105b89190611fed565b6105c2919061200a565b91506207a12082116105d457816105d9565b6207a1205b9392505050565b6000600854600c6105f19190611fed565b6000848152600260205260408120600181015460055491549394509261061990612710611fed565b610623919061200a565b905060006305f5e100836106378487611fed565b6106419190611fed565b61064b919061200a565b60008781526002602052604090205490915061066982612710611fed565b610673919061200a565b9695505050505050565b6001600160a01b0381166000908152600460208181526040808420815160a08101835281548082526001830154948201949094526002820154928101929092526003810154606083015290920154608083015215806106de57506020810151155b806106e95750600554155b156106f75750600092915050565b6000816060015142610709919061202c565b90508060000361071d575060009392505050565b600062278d006005546107309190611fed565b8351600854849161074091611fed565b61074a9190611fed565b610754919061200a565b6020808501516000908152600290915260409020600101549091506127106106698284611fed565b610784611948565b600081116107d95760405162461bcd60e51b815260206004820152601d60248201527f416d6f756e74206d7573742062652067726561746572207468616e203000000060448201526064015b60405180910390fd5b6040516323b872dd60e01b81523360048201523060248201526044810182905273746042147240304098c837563aaec0f671881b07906323b872dd906064016020604051808303816000875af1158015610837573d6000803e3d6000fd5b505050506040513d601f19601f8201168201806040525081019061085b919061203f565b5080600b600082825461086e919061205c565b90915550506040518181527fb1d234dd8081b3e00565c8b359ca6fa117fc7b024f75d85b6830b190bef5c76b906020015b60405180910390a150565b6108b2611975565b33600090815260046020526040902080546109005760405162461bcd60e51b815260206004820152600e60248201526d139bc81cdd185ad948199bdd5b9960921b60448201526064016107d0565b8160000361090d57805491505b805482111561095e5760405162461bcd60e51b815260206004820152601d60248201527f416d6f756e742065786365656473207374616b65642062616c616e636500000060448201526064016107d0565b610966611832565b61096e610acf565b6109773361199f565b8181600001600082825461098b919061202c565b9250508190555081600560008282546109a4919061202c565b90915550508054156109c55780546109bb90610b62565b60018201556109e2565b60006001820181905560068054916109dc8361206f565b91905055505b60405163a9059cbb60e01b81523360048201526024810183905273746042147240304098c837563aaec0f671881b079063a9059cbb906044016020604051808303816000875af1158015610a3a573d6000803e3d6000fd5b505050506040513d601f19601f82011682018060405250810190610a5e919061203f565b5060405182815233907f0f5bb82176feb1b5e747e28471aa92156a04d9f3ab9f45f28e2d704232b93f759060200160405180910390a250610a9f6001600055565b50565b610aaa611975565b610ab2611832565b610aba610acf565b610ac33361199f565b610acd6001600055565b565b6000600c5442610adf919061202c565b9050600081118015610af357506000600554115b15610a9f57600062278d0082600854610b0c9190611fed565b610b16919061200a565b905080600b6000828254610b2a919061205c565b909155505042600c555050565b610b3f611948565b610acd611afd565b600062278d00600a5442610b5b919061202c565b1015905090565b6003546000905b60018110610bbd5760008181526002602052604090206003015460ff168015610ba057506000818152600260205260409020548310155b15610bab5792915050565b80610bb58161206f565b915050610b69565b50600092915050565b606080606080606060035467ffffffffffffffff811115610be957610be9611e18565b604051908082528060200260200182016040528015610c12578160200160208202803683370190505b50945060035467ffffffffffffffff811115610c3057610c30611e18565b604051908082528060200260200182016040528015610c59578160200160208202803683370190505b50935060035467ffffffffffffffff811115610c7757610c77611e18565b604051908082528060200260200182016040528015610ca0578160200160208202803683370190505b50925060035467ffffffffffffffff811115610cbe57610cbe611e18565b604051908082528060200260200182016040528015610cf157816020015b6060815260200190600190039081610cdc5790505b50915060035467ffffffffffffffff811115610d0f57610d0f611e18565b604051908082528060200260200182016040528015610d38578160200160208202803683370190505b50905060015b6003548111610f0a578086610d5460018361202c565b81518110610d6457610d64612086565b60209081029190910181019190915260008281526002909152604090205485610d8e60018461202c565b81518110610d9e57610d9e612086565b602002602001018181525050600260008281526020019081526020016000206001015484600183610dcf919061202c565b81518110610ddf57610ddf612086565b602002602001018181525050600260008281526020019081526020016000206002018054610e0c9061209c565b80601f0160208091040260200160405190810160405280929190818152602001828054610e389061209c565b8015610e855780601f10610e5a57610100808354040283529160200191610e85565b820191906000526020600020905b815481529060010190602001808311610e6857829003601f168201915b505050505083600183610e98919061202c565b81518110610ea857610ea8612086565b60209081029190910181019190915260008281526002909152604090206003015460ff1682610ed860018461202c565b81518110610ee857610ee8612086565b9115156020928302919091019091015280610f02816120d6565b915050610d3e565b509091929394565b610f1a611948565b610acd6000611b52565b610f2c611975565b600d5460ff16610f7e5760405162461bcd60e51b815260206004820152601e60248201527f456d657267656e6379207769746864726177206e6f7420656e61626c6564000060448201526064016107d0565b3360009081526004602052604090208054610fcc5760405162461bcd60e51b815260206004820152600e60248201526d139bc81cdd185ad948199bdd5b9960921b60448201526064016107d0565b805460058054829190600090610fe390849061202c565b909155505060068054906000610ff88361206f565b9091555050336000818152600460208190526040808320838155600181018490556002810184905560038101849055820192909255905163a9059cbb60e01b8152908101919091526024810182905273746042147240304098c837563aaec0f671881b079063a9059cbb906044016020604051808303816000875af1158015611085573d6000803e3d6000fd5b505050506040513d601f19601f820116820180604052508101906110a9919061203f565b5060405181815233907f0f5bb82176feb1b5e747e28471aa92156a04d9f3ab9f45f28e2d704232b93f759060200160405180910390a25050610acd6001600055565b6110f3611948565b610acd611ba4565b611103611832565b610acd610acf565b611113611948565b73746042147240304098c837563aaec0f671881b06196001600160a01b038316016111805760405162461bcd60e51b815260206004820152601c60248201527f43616e6e6f74207769746864726177207374616b656420534f4c41520000000060448201526064016107d0565b60405163a9059cbb60e01b8152336004820152602481018290526001600160a01b0383169063a9059cbb906044016020604051808303816000875af11580156111cd573d6000803e3d6000fd5b505050506040513d601f19601f820116820180604052508101906111f1919061203f565b505050565b6111fe611948565b6127108210158015611212575061c3508211155b61122e5760405162461bcd60e51b81526004016107d0906120ef565b6003805490600061123e836120d6565b9091555050604080516080810182528481526020808201858152828401858152600160608501819052600354600090815260029485905295909520845181559151948201949094559251919291908201906112999082612181565b50606091909101516003918201805460ff1916911515919091179055546040517f5d192d62d1dcfbbeeb986f64fa5cb9ffb080b6644aa87f0a6c05c0ead037620b916112ea91869086908690612241565b60405180910390a1505050565b6112ff611975565b611307611be7565b600081116113575760405162461bcd60e51b815260206004820152601d60248201527f416d6f756e74206d7573742062652067726561746572207468616e203000000060448201526064016107d0565b6040516370a0823160e01b8152336004820152819073746042147240304098c837563aaec0f671881b07906370a0823190602401602060405180830381865afa1580156113a8573d6000803e3d6000fd5b505050506040513d601f19601f820116820180604052508101906113cc9190612266565b101561141a5760405162461bcd60e51b815260206004820152601a60248201527f496e73756666696369656e7420534f4c41522062616c616e636500000000000060448201526064016107d0565b611422611832565b61142a610acf565b33600090815260046020526040902080541561144e576114493361199f565b611464565b6006805490600061145e836120d6565b91905055505b6040516323b872dd60e01b81523360048201523060248201526044810183905273746042147240304098c837563aaec0f671881b07906323b872dd906064016020604051808303816000875af11580156114c2573d6000803e3d6000fd5b505050506040513d601f19601f820116820180604052508101906114e6919061203f565b50818160000160008282546114fb919061205c565b909155505042600282018190556003820155805460009061151b90610b62565b90508082600101819055508260056000828254611538919061205c565b9091555050604080518481526020810183905233917f1449c6dd7851abc30abf37f57715f492010519147cc2652fbc38202c18a6ee90910160405180910390a25050610a9f6001600055565b6001600160a01b0381166000908152600460208181526040808420815160a081018352815480825260018301549482018590526002830154938201849052600383015460608301529190940154608085015293919290919081906115e78761067d565b9250806080015191505091939590929450565b611602611948565b600d805460ff19168215159081179091556040519081527f4fb4fe1d48605773c41203249c0d2ce916ab20c17f80ba0885db54c1468176af9060200161089f565b61164b611948565b60008511801561165d57506003548511155b61169b5760405162461bcd60e51b815260206004820152600f60248201526e125b9d985b1a59081d1a595c881251608a1b60448201526064016107d0565b61271083101580156116af575061c3508311155b6116cb5760405162461bcd60e51b81526004016107d0906120ef565b604080516080810182528581526020808201868152828401868152851515606085015260008a815260029384905294909420835181559051600182015592519192919082019061171b9082612181565b50606091909101516003909101805460ff19169115159190911790556040517f5d192d62d1dcfbbeeb986f64fa5cb9ffb080b6644aa87f0a6c05c0ead037620b9061176d908790879087908790612241565b60405180910390a15050505050565b6002602081905260009182526040909120805460018201549282018054919392916117a69061209c565b80601f01602080910402602001604051908101604052809291908181526020018280546117d29061209c565b801561181f5780601f106117f45761010080835404028352916020019161181f565b820191906000526020600020905b81548152906001019060200180831161180257829003601f168201915b5050506003909301549192505060ff1684565b600062278d00600a5442611846919061202c565b611850919061200a565b90508015610a9f5760005b8181101561189357606460626008546118749190611fed565b61187e919061200a565b6008558061188b816120d6565b91505061185b565b506118a162278d0082611fed565b600a60008282546118b2919061205c565b90915550506008546040519081527fb114240d54ce08081cbd18870dc3b6cd4091bb86ff29d2ad41906c2a2d6723d49060200161089f565b600062278d00600954426118fe919061202c565b611908919061200a565b905090565b611915611948565b6001600160a01b03811661193f57604051631e4fbdf760e01b8152600060048201526024016107d0565b610a9f81611b52565b6001546001600160a01b03163314610acd5760405163118cdaa760e01b81523360048201526024016107d0565b60026000540361199857604051633ee5aeb560e01b815260040160405180910390fd5b6002600055565b60006119aa8261067d565b90506000811180156119be575080600b5410155b15611af9576001600160a01b038216600090815260046020819052604082204260038201559081018054919284926119f790849061205c565b9250508190555081600b6000828254611a10919061202c565b925050819055508160076000828254611a29919061205c565b909155505060405163a9059cbb60e01b81526001600160a01b03841660048201526024810183905273746042147240304098c837563aaec0f671881b079063a9059cbb906044016020604051808303816000875af1158015611a8f573d6000803e3d6000fd5b505050506040513d601f19601f82011682018060405250810190611ab3919061203f565b50826001600160a01b03167ffc30cddea38e2bf4d6ea7d3f9ed3b6ad7f176419f4963bd81318067a4aee73fe83604051611aef91815260200190565b60405180910390a2505b5050565b611b05611c12565b6001805460ff60a01b191690557f5db9ee0a495bf2e6ff9c91a7834c1ba4fdd244a5e8aa4e537bd38aeae4b073aa335b6040516001600160a01b03909116815260200160405180910390a1565b600180546001600160a01b038381166001600160a01b0319831681179093556040519116919082907f8be0079c531659141344cd1fd0a4f28419497f9722a3daafe3b4186f6b6457e090600090a35050565b611bac611be7565b6001805460ff60a01b1916600160a01b1790557f62e78cea01bee320cd4e420270b5ea74000d11b0c9f74754ebdbfc544b05a258611b353390565b600154600160a01b900460ff1615610acd5760405163d93c066560e01b815260040160405180910390fd5b600154600160a01b900460ff16610acd57604051638dfc202b60e01b815260040160405180910390fd5b600060208284031215611c4e57600080fd5b5035919050565b80356001600160a01b0381168114611c6c57600080fd5b919050565b600060208284031215611c8357600080fd5b6105d982611c55565b600081518084526020808501945080840160005b83811015611cbc57815187529582019590820190600101611ca0565b509495945050505050565b6000815180845260005b81811015611ced57602081850181015186830182015201611cd1565b506000602082860101526020601f19601f83011685010191505092915050565b600081518084526020808501945080840160005b83811015611cbc578151151587529582019590820190600101611d21565b60a081526000611d5260a0830188611c8c565b602083820381850152611d658289611c8c565b91508382036040850152611d798288611c8c565b915083820360608501528186518084528284019150828160051b85010183890160005b83811015611dca57601f19878403018552611db8838351611cc7565b94860194925090850190600101611d9c565b50508681036080880152611dde8189611d0d565b9c9b505050505050505050505050565b60008060408385031215611e0157600080fd5b611e0a83611c55565b946020939093013593505050565b634e487b7160e01b600052604160045260246000fd5b600082601f830112611e3f57600080fd5b813567ffffffffffffffff80821115611e5a57611e5a611e18565b604051601f8301601f19908116603f01168101908282118183101715611e8257611e82611e18565b81604052838152866020858801011115611e9b57600080fd5b836020870160208301376000602085830101528094505050505092915050565b600080600060608486031215611ed057600080fd5b8335925060208401359150604084013567ffffffffffffffff811115611ef557600080fd5b611f0186828701611e2e565b9150509250925092565b8015158114610a9f57600080fd5b600060208284031215611f2b57600080fd5b81356105d981611f0b565b600080600080600060a08688031215611f4e57600080fd5b853594506020860135935060408601359250606086013567ffffffffffffffff811115611f7a57600080fd5b611f8688828901611e2e565b9250506080860135611f9781611f0b565b809150509295509295909350565b848152836020820152608060408201526000611fc46080830185611cc7565b9050821515606083015295945050505050565b634e487b7160e01b600052601160045260246000fd5b808202811582820484141761200457612004611fd7565b92915050565b60008261202757634e487b7160e01b600052601260045260246000fd5b500490565b8181038181111561200457612004611fd7565b60006020828403121561205157600080fd5b81516105d981611f0b565b8082018082111561200457612004611fd7565b60008161207e5761207e611fd7565b506000190190565b634e487b7160e01b600052603260045260246000fd5b600181811c908216806120b057607f821691505b6020821081036120d057634e487b7160e01b600052602260045260246000fd5b50919050565b6000600182016120e8576120e8611fd7565b5060010190565b60208082526024908201527f4d756c7469706c696572206d757374206265206265747765656e20317820616e6040820152630c8406af60e31b606082015260800190565b601f8211156111f157600081815260208120601f850160051c8101602086101561215a5750805b601f850160051c820191505b8181101561217957828155600101612166565b505050505050565b815167ffffffffffffffff81111561219b5761219b611e18565b6121af816121a9845461209c565b84612133565b602080601f8311600181146121e457600084156121cc5750858301515b600019600386901b1c1916600185901b178555612179565b600085815260208120601f198616915b82811015612213578886015182559484019460019091019084016121f4565b50858210156122315787850151600019600388901b60f8161c191681555b5050505050600190811b01905550565b8481528360208201528260408201526080606082015260006106736080830184611cc7565b60006020828403121561227857600080fd5b505191905056fea2646970667358221220a62a6a84ee012e5143f02a3c2116c6018da614ffb2e162dd9b90c57d43eb699c64736f6c63430008140033","opcodes":"PUSH1 0x80 PUSH1 0x40 MSTORE CALLVALUE DUP1 ISZERO PUSH3 0x11 JUMPI PUSH1 0x0 DUP1 REVERT JUMPDEST POP PUSH1 0x1 PUSH1 0x0 SSTORE CALLER DUP1 PUSH3 0x3E JUMPI PUSH1 0x40 MLOAD PUSH4 0x1E4FBDF7 PUSH1 0xE0 SHL DUP2 MSTORE PUSH1 0x0 PUSH1 0x4 DUP3 ADD MSTORE PUSH1 0x24 ADD PUSH1 0x40 MLOAD DUP1 SWAP2 SUB SWAP1 REVERT JUMPDEST PUSH3 0x49 DUP2 PUSH3 0x422 JUMP JUMPDEST POP PUSH1 0x40 DUP1 MLOAD PUSH1 0x80 DUP2 ADD DUP3 MSTORE PUSH11 0x84595161401484A000000 DUP2 MSTORE PUSH2 0x2710 PUSH1 0x20 DUP1 DUP4 ADD SWAP2 DUP3 MSTORE DUP4 MLOAD DUP1 DUP6 ADD DUP6 MSTORE PUSH1 0x6 DUP2 MSTORE PUSH6 0x42726F6E7A65 PUSH1 0xD0 SHL DUP2 DUP4 ADD MSTORE SWAP4 DUP4 ADD SWAP4 DUP5 MSTORE PUSH1 0x1 PUSH1 0x60 DUP5 ADD DUP2 SWAP1 MSTORE PUSH1 0x0 MSTORE PUSH1 0x2 SWAP1 MSTORE DUP2 MLOAD PUSH32 0xE90B7BCEB6E7DF5418FB78D8EE546E97C83A08BBCCC01A0644D599CCD2A7C2E0 SWAP1 DUP2 SSTORE SWAP1 MLOAD PUSH32 0xE90B7BCEB6E7DF5418FB78D8EE546E97C83A08BBCCC01A0644D599CCD2A7C2E1 SSTORE SWAP2 MLOAD SWAP1 SWAP2 SWAP1 PUSH32 0xE90B7BCEB6E7DF5418FB78D8EE546E97C83A08BBCCC01A0644D599CCD2A7C2E2 SWAP1 PUSH3 0x119 SWAP1 DUP3 PUSH3 0x519 JUMP JUMPDEST POP PUSH1 0x60 SWAP2 DUP3 ADD MLOAD PUSH1 0x3 SWAP2 SWAP1 SWAP2 ADD DUP1 SLOAD PUSH1 0xFF NOT AND SWAP2 ISZERO ISZERO SWAP2 SWAP1 SWAP2 OR SWAP1 SSTORE PUSH1 0x40 DUP1 MLOAD PUSH1 0x80 DUP2 ADD DUP3 MSTORE PUSH11 0x52B7D2DCC80CD2E4000000 DUP2 MSTORE PUSH2 0x3A98 PUSH1 0x20 DUP1 DUP4 ADD SWAP2 DUP3 MSTORE DUP4 MLOAD DUP1 DUP6 ADD DUP6 MSTORE PUSH1 0x6 DUP2 MSTORE PUSH6 0x29B4B63B32B9 PUSH1 0xD1 SHL DUP2 DUP4 ADD MSTORE SWAP4 DUP4 ADD SWAP4 DUP5 MSTORE PUSH1 0x1 SWAP5 DUP4 ADD SWAP5 SWAP1 SWAP5 MSTORE PUSH1 0x2 PUSH1 0x0 DUP2 SWAP1 MSTORE SWAP1 SWAP4 MSTORE DUP1 MLOAD PUSH32 0x679795A0195A1B76CDEBB7C51D74E058AEE92919B8C3389AF86EF24535E8A28C SWAP1 DUP2 SSTORE SWAP3 MLOAD PUSH32 0x679795A0195A1B76CDEBB7C51D74E058AEE92919B8C3389AF86EF24535E8A28D SSTORE SWAP1 MLOAD SWAP1 SWAP2 SWAP1 PUSH32 0x679795A0195A1B76CDEBB7C51D74E058AEE92919B8C3389AF86EF24535E8A28E SWAP1 PUSH3 0x207 SWAP1 DUP3 PUSH3 0x519 JUMP JUMPDEST POP PUSH1 0x60 SWAP2 DUP3 ADD MLOAD PUSH1 0x3 SWAP2 DUP3 ADD DUP1 SLOAD PUSH1 0xFF NOT AND SWAP2 ISZERO ISZERO SWAP2 SWAP1 SWAP2 OR SWAP1 SSTORE PUSH1 0x40 DUP1 MLOAD PUSH1 0x80 DUP2 ADD DUP3 MSTORE PUSH12 0x19D971E4FE8401E74000000 DUP2 MSTORE PUSH2 0x4E20 PUSH1 0x20 DUP1 DUP4 ADD SWAP2 DUP3 MSTORE DUP4 MLOAD DUP1 DUP6 ADD DUP6 MSTORE PUSH1 0x4 DUP2 MSTORE PUSH4 0x11DBDB19 PUSH1 0xE2 SHL DUP2 DUP4 ADD MSTORE SWAP4 DUP4 ADD SWAP4 DUP5 MSTORE PUSH1 0x1 SWAP6 DUP4 ADD SWAP6 SWAP1 SWAP6 MSTORE PUSH1 0x0 SWAP4 SWAP1 SWAP4 MSTORE PUSH1 0x2 SWAP1 SWAP4 MSTORE DUP3 MLOAD PUSH32 0x88601476D11616A71C5BE67555BD1DFF4B1CBF21533D2669B768B61518CFE1C3 SWAP1 DUP2 SSTORE SWAP2 MLOAD PUSH32 0x88601476D11616A71C5BE67555BD1DFF4B1CBF21533D2669B768B61518CFE1C4 SSTORE MLOAD PUSH32 0x88601476D11616A71C5BE67555BD1DFF4B1CBF21533D2669B768B61518CFE1C5 SWAP1 PUSH3 0x2F0 SWAP1 DUP3 PUSH3 0x519 JUMP JUMPDEST POP PUSH1 0x60 SWAP2 DUP3 ADD MLOAD PUSH1 0x3 SWAP2 SWAP1 SWAP2 ADD DUP1 SLOAD PUSH1 0xFF NOT AND SWAP2 ISZERO ISZERO SWAP2 SWAP1 SWAP2 OR SWAP1 SSTORE PUSH1 0x40 DUP1 MLOAD PUSH1 0x80 DUP2 ADD DUP3 MSTORE PUSH12 0x33B2E3C9FD0803CE8000000 DUP2 MSTORE PUSH2 0x7530 PUSH1 0x20 DUP1 DUP4 ADD SWAP2 DUP3 MSTORE DUP4 MLOAD DUP1 DUP6 ADD DUP6 MSTORE PUSH1 0x7 DUP2 MSTORE PUSH7 0x111A585B5BDB99 PUSH1 0xCA SHL DUP2 DUP4 ADD MSTORE SWAP4 DUP4 ADD SWAP4 DUP5 MSTORE PUSH1 0x1 SWAP5 DUP4 ADD SWAP5 SWAP1 SWAP5 MSTORE PUSH1 0x4 PUSH1 0x0 MSTORE PUSH1 0x2 SWAP1 SWAP4 MSTORE DUP1 MLOAD PUSH32 0xEE60D0579BCFFD98E668647D59FEC1FF86A7FB340CE572E844F234AE73A6918F SWAP1 DUP2 SSTORE SWAP3 MLOAD PUSH32 0xEE60D0579BCFFD98E668647D59FEC1FF86A7FB340CE572E844F234AE73A69190 SSTORE SWAP1 MLOAD SWAP1 SWAP2 SWAP1 PUSH32 0xEE60D0579BCFFD98E668647D59FEC1FF86A7FB340CE572E844F234AE73A69191 SWAP1 PUSH3 0x3E0 SWAP1 DUP3 PUSH3 0x519 JUMP JUMPDEST POP PUSH1 0x60 SWAP2 SWAP1 SWAP2 ADD MLOAD PUSH1 0x3 SWAP2 DUP3 ADD DUP1 SLOAD PUSH1 0xFF NOT AND SWAP2 ISZERO ISZERO SWAP2 SWAP1 SWAP2 OR SWAP1 SSTORE PUSH1 0x4 SWAP1 SSTORE PUSH10 0xA968163F0A57B400000 PUSH1 0x8 SSTORE TIMESTAMP PUSH1 0x9 DUP2 SWAP1 SSTORE PUSH1 0xA DUP2 SWAP1 SSTORE PUSH1 0xC SSTORE PUSH3 0x5E5 JUMP JUMPDEST PUSH1 0x1 DUP1 SLOAD PUSH1 0x1 PUSH1 0x1 PUSH1 0xA0 SHL SUB DUP4 DUP2 AND PUSH1 0x1 PUSH1 0x1 PUSH1 0xA0 SHL SUB NOT DUP4 AND DUP2 OR SWAP1 SWAP4 SSTORE PUSH1 0x40 MLOAD SWAP2 AND SWAP2 SWAP1 DUP3 SWAP1 PUSH32 0x8BE0079C531659141344CD1FD0A4F28419497F9722A3DAAFE3B4186F6B6457E0 SWAP1 PUSH1 0x0 SWAP1 LOG3 POP POP JUMP JUMPDEST PUSH4 0x4E487B71 PUSH1 0xE0 SHL PUSH1 0x0 MSTORE PUSH1 0x41 PUSH1 0x4 MSTORE PUSH1 0x24 PUSH1 0x0 REVERT JUMPDEST PUSH1 0x1 DUP2 DUP2 SHR SWAP1 DUP3 AND DUP1 PUSH3 0x49F JUMPI PUSH1 0x7F DUP3 AND SWAP2 POP JUMPDEST PUSH1 0x20 DUP3 LT DUP2 SUB PUSH3 0x4C0 JUMPI PUSH4 0x4E487B71 PUSH1 0xE0 SHL PUSH1 0x0 MSTORE PUSH1 0x22 PUSH1 0x4 MSTORE PUSH1 0x24 PUSH1 0x0 REVERT JUMPDEST POP SWAP2 SWAP1 POP JUMP JUMPDEST PUSH1 0x1F DUP3 GT ISZERO PUSH3 0x514 JUMPI PUSH1 0x0 DUP2 DUP2 MSTORE PUSH1 0x20 DUP2 KECCAK256 PUSH1 0x1F DUP6 ADD PUSH1 0x5 SHR DUP2 ADD PUSH1 0x20 DUP7 LT ISZERO PUSH3 0x4EF JUMPI POP DUP1 JUMPDEST PUSH1 0x1F DUP6 ADD PUSH1 0x5 SHR DUP3 ADD SWAP2 POP JUMPDEST DUP2 DUP2 LT ISZERO PUSH3 0x510 JUMPI DUP3 DUP2 SSTORE PUSH1 0x1 ADD PUSH3 0x4FB JUMP JUMPDEST POP POP POP JUMPDEST POP POP POP JUMP JUMPDEST DUP2 MLOAD PUSH1 0x1 PUSH1 0x1 PUSH1 0x40 SHL SUB DUP2 GT ISZERO PUSH3 0x535 JUMPI PUSH3 0x535 PUSH3 0x474 JUMP JUMPDEST PUSH3 0x54D DUP2 PUSH3 0x546 DUP5 SLOAD PUSH3 0x48A JUMP JUMPDEST DUP5 PUSH3 0x4C6 JUMP JUMPDEST PUSH1 0x20 DUP1 PUSH1 0x1F DUP4 GT PUSH1 0x1 DUP2 EQ PUSH3 0x585 JUMPI PUSH1 0x0 DUP5 ISZERO PUSH3 0x56C JUMPI POP DUP6 DUP4 ADD MLOAD JUMPDEST PUSH1 0x0 NOT PUSH1 0x3 DUP7 SWAP1 SHL SHR NOT AND PUSH1 0x1 DUP6 SWAP1 SHL OR DUP6 SSTORE PUSH3 0x510 JUMP JUMPDEST PUSH1 0x0 DUP6 DUP2 MSTORE PUSH1 0x20 DUP2 KECCAK256 PUSH1 0x1F NOT DUP7 AND SWAP2 JUMPDEST DUP3 DUP2 LT ISZERO PUSH3 0x5B6 JUMPI DUP9 DUP7 ADD MLOAD DUP3 SSTORE SWAP5 DUP5 ADD SWAP5 PUSH1 0x1 SWAP1 SWAP2 ADD SWAP1 DUP5 ADD PUSH3 0x595 JUMP JUMPDEST POP DUP6 DUP3 LT ISZERO PUSH3 0x5D5 JUMPI DUP8 DUP6 ADD MLOAD PUSH1 0x0 NOT PUSH1 0x3 DUP9 SWAP1 SHL PUSH1 0xF8 AND SHR NOT AND DUP2 SSTORE JUMPDEST POP POP POP POP POP PUSH1 0x1 SWAP1 DUP2 SHL ADD SWAP1 SSTORE POP JUMP JUMPDEST PUSH2 0x22B5 DUP1 PUSH3 0x5F5 PUSH1 0x0 CODECOPY PUSH1 0x0 RETURN INVALID PUSH1 0x80 PUSH1 0x40 MSTORE CALLVALUE DUP1 ISZERO PUSH2 0x10 JUMPI PUSH1 0x0 DUP1 REVERT JUMPDEST POP PUSH1 0x4 CALLDATASIZE LT PUSH2 0x25E JUMPI PUSH1 0x0 CALLDATALOAD PUSH1 0xE0 SHR DUP1 PUSH4 0x86989038 GT PUSH2 0x146 JUMPI DUP1 PUSH4 0xC1DD6084 GT PUSH2 0xC3 JUMPI DUP1 PUSH4 0xD50267EE GT PUSH2 0x87 JUMPI DUP1 PUSH4 0xD50267EE EQ PUSH2 0x4EE JUMPI DUP1 PUSH4 0xE5854FF8 EQ PUSH2 0x511 JUMPI DUP1 PUSH4 0xE718E1C7 EQ PUSH2 0x519 JUMPI DUP1 PUSH4 0xEE172546 EQ PUSH2 0x521 JUMPI DUP1 PUSH4 0xF2FDE38B EQ PUSH2 0x52A JUMPI DUP1 PUSH4 0xFA8DFC17 EQ PUSH2 0x53D JUMPI PUSH1 0x0 DUP1 REVERT JUMPDEST DUP1 PUSH4 0xC1DD6084 EQ PUSH2 0x498 JUMPI DUP1 PUSH4 0xC32D3AE2 EQ PUSH2 0x4AC JUMPI DUP1 PUSH4 0xC7644F22 EQ PUSH2 0x4BF JUMPI DUP1 PUSH4 0xC7DD6F07 EQ PUSH2 0x4C8 JUMPI DUP1 PUSH4 0xCC17E0D1 EQ PUSH2 0x4DB JUMPI PUSH1 0x0 DUP1 REVERT JUMPDEST DUP1 PUSH4 0x995840E3 GT PUSH2 0x10A JUMPI DUP1 PUSH4 0x995840E3 EQ PUSH2 0x445 JUMPI DUP1 PUSH4 0xA694FC3A EQ PUSH2 0x458 JUMPI DUP1 PUSH4 0xB55E511D EQ PUSH2 0x46B JUMPI DUP1 PUSH4 0xBA2E9FDD EQ PUSH2 0x474 JUMPI DUP1 PUSH4 0xBDA064EB EQ PUSH2 0x47D JUMPI PUSH1 0x0 DUP1 REVERT JUMPDEST DUP1 PUSH4 0x86989038 EQ PUSH2 0x396 JUMPI DUP1 PUSH4 0x86A26F6F EQ PUSH2 0x39F JUMPI DUP1 PUSH4 0x8DA5CB5B EQ PUSH2 0x3A7 JUMPI DUP1 PUSH4 0x8DA7AD23 EQ PUSH2 0x3CC JUMPI DUP1 PUSH4 0x95CCEA67 EQ PUSH2 0x432 JUMPI PUSH1 0x0 DUP1 REVERT JUMPDEST DUP1 PUSH4 0x439233AE GT PUSH2 0x1DF JUMPI DUP1 PUSH4 0x66666AA9 GT PUSH2 0x1A3 JUMPI DUP1 PUSH4 0x66666AA9 EQ PUSH2 0x363 JUMPI DUP1 PUSH4 0x715018A6 EQ PUSH2 0x36C JUMPI DUP1 PUSH4 0x7589CF2F EQ PUSH2 0x374 JUMPI DUP1 PUSH4 0x79EAAF61 EQ PUSH2 0x37C JUMPI DUP1 PUSH4 0x817B1CD2 EQ PUSH2 0x385 JUMPI DUP1 PUSH4 0x8456CB59 EQ PUSH2 0x38E JUMPI PUSH1 0x0 DUP1 REVERT JUMPDEST DUP1 PUSH4 0x439233AE EQ PUSH2 0x300 JUMPI DUP1 PUSH4 0x5747E69F EQ PUSH2 0x318 JUMPI DUP1 PUSH4 0x5C975ABB EQ PUSH2 0x325 JUMPI DUP1 PUSH4 0x6405A06E EQ PUSH2 0x337 JUMPI DUP1 PUSH4 0x6471AF83 EQ PUSH2 0x34A JUMPI PUSH1 0x0 DUP1 REVERT JUMPDEST DUP1 PUSH4 0x2E17DE78 GT PUSH2 0x226 JUMPI DUP1 PUSH4 0x2E17DE78 EQ PUSH2 0x2CC JUMPI DUP1 PUSH4 0x34BEE92E EQ PUSH2 0x2DF JUMPI DUP1 PUSH4 0x372500AB EQ PUSH2 0x2E8 JUMPI DUP1 PUSH4 0x3E158B0C EQ PUSH2 0x2F0 JUMPI DUP1 PUSH4 0x3F4BA83A EQ PUSH2 0x2F8 JUMPI PUSH1 0x0 DUP1 REVERT JUMPDEST DUP1 PUSH4 0x1346847 EQ PUSH2 0x263 JUMPI DUP1 PUSH4 0x2455346 EQ PUSH2 0x287 JUMPI DUP1 PUSH4 0x97AAD10 EQ PUSH2 0x29A JUMPI DUP1 PUSH4 0x10786DEB EQ PUSH2 0x2AD JUMPI DUP1 PUSH4 0x1D583E0D EQ PUSH2 0x2B7 JUMPI JUMPDEST PUSH1 0x0 DUP1 REVERT JUMPDEST PUSH2 0x274 PUSH10 0xA968163F0A57B400000 DUP2 JUMP JUMPDEST PUSH1 0x40 MLOAD SWAP1 DUP2 MSTORE PUSH1 0x20 ADD JUMPDEST PUSH1 0x40 MLOAD DUP1 SWAP2 SUB SWAP1 RETURN JUMPDEST PUSH2 0x274 PUSH2 0x295 CALLDATASIZE PUSH1 0x4 PUSH2 0x1C3C JUMP JUMPDEST PUSH2 0x545 JUMP JUMPDEST PUSH2 0x274 PUSH2 0x2A8 CALLDATASIZE PUSH1 0x4 PUSH2 0x1C71 JUMP JUMPDEST PUSH2 0x67D JUMP JUMPDEST PUSH2 0x274 PUSH3 0x278D00 DUP2 JUMP JUMPDEST PUSH2 0x2CA PUSH2 0x2C5 CALLDATASIZE PUSH1 0x4 PUSH2 0x1C3C JUMP JUMPDEST PUSH2 0x77C JUMP JUMPDEST STOP JUMPDEST PUSH2 0x2CA PUSH2 0x2DA CALLDATASIZE PUSH1 0x4 PUSH2 0x1C3C JUMP JUMPDEST PUSH2 0x8AA JUMP JUMPDEST PUSH2 0x274 PUSH1 0xC SLOAD DUP2 JUMP JUMPDEST PUSH2 0x2CA PUSH2 0xAA2 JUMP JUMPDEST PUSH2 0x2CA PUSH2 0xACF JUMP JUMPDEST PUSH2 0x2CA PUSH2 0xB37 JUMP JUMPDEST PUSH2 0x308 PUSH2 0xB47 JUMP JUMPDEST PUSH1 0x40 MLOAD SWAP1 ISZERO ISZERO DUP2 MSTORE PUSH1 0x20 ADD PUSH2 0x27E JUMP JUMPDEST PUSH1 0xD SLOAD PUSH2 0x308 SWAP1 PUSH1 0xFF AND DUP2 JUMP JUMPDEST PUSH1 0x1 SLOAD PUSH1 0x1 PUSH1 0xA0 SHL SWAP1 DIV PUSH1 0xFF AND PUSH2 0x308 JUMP JUMPDEST PUSH2 0x274 PUSH2 0x345 CALLDATASIZE PUSH1 0x4 PUSH2 0x1C3C JUMP JUMPDEST PUSH2 0xB62 JUMP JUMPDEST PUSH2 0x352 PUSH2 0xBC6 JUMP JUMPDEST PUSH1 0x40 MLOAD PUSH2 0x27E SWAP6 SWAP5 SWAP4 SWAP3 SWAP2 SWAP1 PUSH2 0x1D3F JUMP JUMPDEST PUSH2 0x274 PUSH1 0xB SLOAD DUP2 JUMP JUMPDEST PUSH2 0x2CA PUSH2 0xF12 JUMP JUMPDEST PUSH2 0x2CA PUSH2 0xF24 JUMP JUMPDEST PUSH2 0x274 PUSH1 0x3 SLOAD DUP2 JUMP JUMPDEST PUSH2 0x274 PUSH1 0x5 SLOAD DUP2 JUMP JUMPDEST PUSH2 0x2CA PUSH2 0x10EB JUMP JUMPDEST PUSH2 0x274 PUSH1 0x6 SLOAD DUP2 JUMP JUMPDEST PUSH2 0x2CA PUSH2 0x10FB JUMP JUMPDEST PUSH1 0x1 SLOAD PUSH1 0x1 PUSH1 0x1 PUSH1 0xA0 SHL SUB AND JUMPDEST PUSH1 0x40 MLOAD PUSH1 0x1 PUSH1 0x1 PUSH1 0xA0 SHL SUB SWAP1 SWAP2 AND DUP2 MSTORE PUSH1 0x20 ADD PUSH2 0x27E JUMP JUMPDEST PUSH2 0x40A PUSH2 0x3DA CALLDATASIZE PUSH1 0x4 PUSH2 0x1C71 JUMP JUMPDEST PUSH1 0x4 PUSH1 0x20 DUP2 SWAP1 MSTORE PUSH1 0x0 SWAP2 DUP3 MSTORE PUSH1 0x40 SWAP1 SWAP2 KECCAK256 DUP1 SLOAD PUSH1 0x1 DUP3 ADD SLOAD PUSH1 0x2 DUP4 ADD SLOAD PUSH1 0x3 DUP5 ADD SLOAD SWAP4 SWAP1 SWAP5 ADD SLOAD SWAP2 SWAP4 SWAP1 SWAP3 SWAP1 SWAP2 DUP6 JUMP JUMPDEST PUSH1 0x40 DUP1 MLOAD SWAP6 DUP7 MSTORE PUSH1 0x20 DUP7 ADD SWAP5 SWAP1 SWAP5 MSTORE SWAP3 DUP5 ADD SWAP2 SWAP1 SWAP2 MSTORE PUSH1 0x60 DUP4 ADD MSTORE PUSH1 0x80 DUP3 ADD MSTORE PUSH1 0xA0 ADD PUSH2 0x27E JUMP JUMPDEST PUSH2 0x2CA PUSH2 0x440 CALLDATASIZE PUSH1 0x4 PUSH2 0x1DEE JUMP JUMPDEST PUSH2 0x110B JUMP JUMPDEST PUSH2 0x2CA PUSH2 0x453 CALLDATASIZE PUSH1 0x4 PUSH2 0x1EBB JUMP JUMPDEST PUSH2 0x11F6 JUMP JUMPDEST PUSH2 0x2CA PUSH2 0x466 CALLDATASIZE PUSH1 0x4 PUSH2 0x1C3C JUMP JUMPDEST PUSH2 0x12F7 JUMP JUMPDEST PUSH2 0x274 PUSH1 0x9 SLOAD DUP2 JUMP JUMPDEST PUSH2 0x274 PUSH1 0x8 SLOAD DUP2 JUMP JUMPDEST PUSH2 0x3B4 PUSH20 0x746042147240304098C837563AAEC0F671881B07 DUP2 JUMP JUMPDEST PUSH1 0x5 SLOAD PUSH1 0x6 SLOAD PUSH1 0x7 SLOAD PUSH1 0x8 SLOAD PUSH1 0xB SLOAD PUSH2 0x40A JUMP JUMPDEST PUSH2 0x40A PUSH2 0x4BA CALLDATASIZE PUSH1 0x4 PUSH2 0x1C71 JUMP JUMPDEST PUSH2 0x1584 JUMP JUMPDEST PUSH2 0x274 PUSH1 0xA SLOAD DUP2 JUMP JUMPDEST PUSH2 0x2CA PUSH2 0x4D6 CALLDATASIZE PUSH1 0x4 PUSH2 0x1F19 JUMP JUMPDEST PUSH2 0x15FA JUMP JUMPDEST PUSH2 0x2CA PUSH2 0x4E9 CALLDATASIZE PUSH1 0x4 PUSH2 0x1F36 JUMP JUMPDEST PUSH2 0x1643 JUMP JUMPDEST PUSH2 0x501 PUSH2 0x4FC CALLDATASIZE PUSH1 0x4 PUSH2 0x1C3C JUMP JUMPDEST PUSH2 0x177C JUMP JUMPDEST PUSH1 0x40 MLOAD PUSH2 0x27E SWAP5 SWAP4 SWAP3 SWAP2 SWAP1 PUSH2 0x1FA5 JUMP JUMPDEST PUSH2 0x2CA PUSH2 0x1832 JUMP JUMPDEST PUSH2 0x274 PUSH2 0x18EA JUMP JUMPDEST PUSH2 0x274 PUSH1 0x7 SLOAD DUP2 JUMP JUMPDEST PUSH2 0x2CA PUSH2 0x538 CALLDATASIZE PUSH1 0x4 PUSH2 0x1C71 JUMP JUMPDEST PUSH2 0x190D JUMP JUMPDEST PUSH2 0x274 PUSH1 0x62 DUP2 JUMP JUMPDEST PUSH1 0x0 DUP2 ISZERO DUP1 PUSH2 0x555 JUMPI POP PUSH1 0x3 SLOAD DUP3 GT JUMPDEST DUP1 PUSH2 0x572 JUMPI POP PUSH1 0x0 DUP3 DUP2 MSTORE PUSH1 0x2 PUSH1 0x20 MSTORE PUSH1 0x40 SWAP1 KECCAK256 PUSH1 0x3 ADD SLOAD PUSH1 0xFF AND ISZERO JUMPDEST ISZERO PUSH2 0x57F JUMPI POP PUSH1 0x0 SWAP2 SWAP1 POP JUMP JUMPDEST PUSH1 0x5 SLOAD PUSH1 0x0 SUB PUSH2 0x5E0 JUMPI PUSH1 0x0 DUP3 DUP2 MSTORE PUSH1 0x2 PUSH1 0x20 MSTORE PUSH1 0x40 SWAP1 KECCAK256 PUSH1 0x1 DUP2 ADD SLOAD SWAP1 SLOAD PUSH1 0x8 SLOAD DUP3 SWAP1 PUSH2 0x5AE SWAP1 PUSH1 0xC PUSH2 0x1FED JUMP JUMPDEST PUSH2 0x5B8 SWAP2 SWAP1 PUSH2 0x1FED JUMP JUMPDEST PUSH2 0x5C2 SWAP2 SWAP1 PUSH2 0x200A JUMP JUMPDEST SWAP2 POP PUSH3 0x7A120 DUP3 GT PUSH2 0x5D4 JUMPI DUP2 PUSH2 0x5D9 JUMP JUMPDEST PUSH3 0x7A120 JUMPDEST SWAP4 SWAP3 POP POP POP JUMP JUMPDEST PUSH1 0x0 PUSH1 0x8 SLOAD PUSH1 0xC PUSH2 0x5F1 SWAP2 SWAP1 PUSH2 0x1FED JUMP JUMPDEST PUSH1 0x0 DUP5 DUP2 MSTORE PUSH1 0x2 PUSH1 0x20 MSTORE PUSH1 0x40 DUP2 KECCAK256 PUSH1 0x1 DUP2 ADD SLOAD PUSH1 0x5 SLOAD SWAP2 SLOAD SWAP4 SWAP5 POP SWAP3 PUSH2 0x619 SWAP1 PUSH2 0x2710 PUSH2 0x1FED JUMP JUMPDEST PUSH2 0x623 SWAP2 SWAP1 PUSH2 0x200A JUMP JUMPDEST SWAP1 POP PUSH1 0x0 PUSH4 0x5F5E100 DUP4 PUSH2 0x637 DUP5 DUP8 PUSH2 0x1FED JUMP JUMPDEST PUSH2 0x641 SWAP2 SWAP1 PUSH2 0x1FED JUMP JUMPDEST PUSH2 0x64B SWAP2 SWAP1 PUSH2 0x200A JUMP JUMPDEST PUSH1 0x0 DUP8 DUP2 MSTORE PUSH1 0x2 PUSH1 0x20 MSTORE PUSH1 0x40 SWAP1 KECCAK256 SLOAD SWAP1 SWAP2 POP PUSH2 0x669 DUP3 PUSH2 0x2710 PUSH2 0x1FED JUMP JUMPDEST PUSH2 0x673 SWAP2 SWAP1 PUSH2 0x200A JUMP JUMPDEST SWAP7 SWAP6 POP POP POP POP POP POP JUMP JUMPDEST PUSH1 0x1 PUSH1 0x1 PUSH1 0xA0 SHL SUB DUP2 AND PUSH1 0x0 SWAP1 DUP2 MSTORE PUSH1 0x4 PUSH1 0x20 DUP2 DUP2 MSTORE PUSH1 0x40 DUP1 DUP5 KECCAK256 DUP2 MLOAD PUSH1 0xA0 DUP2 ADD DUP4 MSTORE DUP2 SLOAD DUP1 DUP3 MSTORE PUSH1 0x1 DUP4 ADD SLOAD SWAP5 DUP3 ADD SWAP5 SWAP1 SWAP5 MSTORE PUSH1 0x2 DUP3 ADD SLOAD SWAP3 DUP2 ADD SWAP3 SWAP1 SWAP3 MSTORE PUSH1 0x3 DUP2 ADD SLOAD PUSH1 0x60 DUP4 ADD MSTORE SWAP1 SWAP3 ADD SLOAD PUSH1 0x80 DUP4 ADD MSTORE ISZERO DUP1 PUSH2 0x6DE JUMPI POP PUSH1 0x20 DUP2 ADD MLOAD ISZERO JUMPDEST DUP1 PUSH2 0x6E9 JUMPI POP PUSH1 0x5 SLOAD ISZERO JUMPDEST ISZERO PUSH2 0x6F7 JUMPI POP PUSH1 0x0 SWAP3 SWAP2 POP POP JUMP JUMPDEST PUSH1 0x0 DUP2 PUSH1 0x60 ADD MLOAD TIMESTAMP PUSH2 0x709 SWAP2 SWAP1 PUSH2 0x202C JUMP JUMPDEST SWAP1 POP DUP1 PUSH1 0x0 SUB PUSH2 0x71D JUMPI POP PUSH1 0x0 SWAP4 SWAP3 POP POP POP JUMP JUMPDEST PUSH1 0x0 PUSH3 0x278D00 PUSH1 0x5 SLOAD PUSH2 0x730 SWAP2 SWAP1 PUSH2 0x1FED JUMP JUMPDEST DUP4 MLOAD PUSH1 0x8 SLOAD DUP5 SWAP2 PUSH2 0x740 SWAP2 PUSH2 0x1FED JUMP JUMPDEST PUSH2 0x74A SWAP2 SWAP1 PUSH2 0x1FED JUMP JUMPDEST PUSH2 0x754 SWAP2 SWAP1 PUSH2 0x200A JUMP JUMPDEST PUSH1 0x20 DUP1 DUP6 ADD MLOAD PUSH1 0x0 SWAP1 DUP2 MSTORE PUSH1 0x2 SWAP1 SWAP2 MSTORE PUSH1 0x40 SWAP1 KECCAK256 PUSH1 0x1 ADD SLOAD SWAP1 SWAP2 POP PUSH2 0x2710 PUSH2 0x669 DUP3 DUP5 PUSH2 0x1FED JUMP JUMPDEST PUSH2 0x784 PUSH2 0x1948 JUMP JUMPDEST PUSH1 0x0 DUP2 GT PUSH2 0x7D9 JUMPI PUSH1 0x40 MLOAD PUSH3 0x461BCD PUSH1 0xE5 SHL DUP2 MSTORE PUSH1 0x20 PUSH1 0x4 DUP3 ADD MSTORE PUSH1 0x1D PUSH1 0x24 DUP3 ADD MSTORE PUSH32 0x416D6F756E74206D7573742062652067726561746572207468616E2030000000 PUSH1 0x44 DUP3 ADD MSTORE PUSH1 0x64 ADD JUMPDEST PUSH1 0x40 MLOAD DUP1 SWAP2 SUB SWAP1 REVERT JUMPDEST PUSH1 0x40 MLOAD PUSH4 0x23B872DD PUSH1 0xE0 SHL DUP2 MSTORE CALLER PUSH1 0x4 DUP3 ADD MSTORE ADDRESS PUSH1 0x24 DUP3 ADD MSTORE PUSH1 0x44 DUP2 ADD DUP3 SWAP1 MSTORE PUSH20 0x746042147240304098C837563AAEC0F671881B07 SWAP1 PUSH4 0x23B872DD SWAP1 PUSH1 0x64 ADD PUSH1 0x20 PUSH1 0x40 MLOAD DUP1 DUP4 SUB DUP2 PUSH1 0x0 DUP8 GAS CALL ISZERO DUP1 ISZERO PUSH2 0x837 JUMPI RETURNDATASIZE PUSH1 0x0 DUP1 RETURNDATACOPY RETURNDATASIZE PUSH1 0x0 REVERT JUMPDEST POP POP POP POP PUSH1 0x40 MLOAD RETURNDATASIZE PUSH1 0x1F NOT PUSH1 0x1F DUP3 ADD AND DUP3 ADD DUP1 PUSH1 0x40 MSTORE POP DUP2 ADD SWAP1 PUSH2 0x85B SWAP2 SWAP1 PUSH2 0x203F JUMP JUMPDEST POP DUP1 PUSH1 0xB PUSH1 0x0 DUP3 DUP3 SLOAD PUSH2 0x86E SWAP2 SWAP1 PUSH2 0x205C JUMP JUMPDEST SWAP1 SWAP2 SSTORE POP POP PUSH1 0x40 MLOAD DUP2 DUP2 MSTORE PUSH32 0xB1D234DD8081B3E00565C8B359CA6FA117FC7B024F75D85B6830B190BEF5C76B SWAP1 PUSH1 0x20 ADD JUMPDEST PUSH1 0x40 MLOAD DUP1 SWAP2 SUB SWAP1 LOG1 POP JUMP JUMPDEST PUSH2 0x8B2 PUSH2 0x1975 JUMP JUMPDEST CALLER PUSH1 0x0 SWAP1 DUP2 MSTORE PUSH1 0x4 PUSH1 0x20 MSTORE PUSH1 0x40 SWAP1 KECCAK256 DUP1 SLOAD PUSH2 0x900 JUMPI PUSH1 0x40 MLOAD PUSH3 0x461BCD PUSH1 0xE5 SHL DUP2 MSTORE PUSH1 0x20 PUSH1 0x4 DUP3 ADD MSTORE PUSH1 0xE PUSH1 0x24 DUP3 ADD MSTORE PUSH14 0x139BC81CDD185AD948199BDD5B99 PUSH1 0x92 SHL PUSH1 0x44 DUP3 ADD MSTORE PUSH1 0x64 ADD PUSH2 0x7D0 JUMP JUMPDEST DUP2 PUSH1 0x0 SUB PUSH2 0x90D JUMPI DUP1 SLOAD SWAP2 POP JUMPDEST DUP1 SLOAD DUP3 GT ISZERO PUSH2 0x95E JUMPI PUSH1 0x40 MLOAD PUSH3 0x461BCD PUSH1 0xE5 SHL DUP2 MSTORE PUSH1 0x20 PUSH1 0x4 DUP3 ADD MSTORE PUSH1 0x1D PUSH1 0x24 DUP3 ADD MSTORE PUSH32 0x416D6F756E742065786365656473207374616B65642062616C616E6365000000 PUSH1 0x44 DUP3 ADD MSTORE PUSH1 0x64 ADD PUSH2 0x7D0 JUMP JUMPDEST PUSH2 0x966 PUSH2 0x1832 JUMP JUMPDEST PUSH2 0x96E PUSH2 0xACF JUMP JUMPDEST PUSH2 0x977 CALLER PUSH2 0x199F JUMP JUMPDEST DUP2 DUP2 PUSH1 0x0 ADD PUSH1 0x0 DUP3 DUP3 SLOAD PUSH2 0x98B SWAP2 SWAP1 PUSH2 0x202C JUMP JUMPDEST SWAP3 POP POP DUP2 SWAP1 SSTORE POP DUP2 PUSH1 0x5 PUSH1 0x0 DUP3 DUP3 SLOAD PUSH2 0x9A4 SWAP2 SWAP1 PUSH2 0x202C JUMP JUMPDEST SWAP1 SWAP2 SSTORE POP POP DUP1 SLOAD ISZERO PUSH2 0x9C5 JUMPI DUP1 SLOAD PUSH2 0x9BB SWAP1 PUSH2 0xB62 JUMP JUMPDEST PUSH1 0x1 DUP3 ADD SSTORE PUSH2 0x9E2 JUMP JUMPDEST PUSH1 0x0 PUSH1 0x1 DUP3 ADD DUP2 SWAP1 SSTORE PUSH1 0x6 DUP1 SLOAD SWAP2 PUSH2 0x9DC DUP4 PUSH2 0x206F JUMP JUMPDEST SWAP2 SWAP1 POP SSTORE POP JUMPDEST PUSH1 0x40 MLOAD PUSH4 0xA9059CBB PUSH1 0xE0 SHL DUP2 MSTORE CALLER PUSH1 0x4 DUP3 ADD MSTORE PUSH1 0x24 DUP2 ADD DUP4 SWAP1 MSTORE PUSH20 0x746042147240304098C837563AAEC0F671881B07 SWAP1 PUSH4 0xA9059CBB SWAP1 PUSH1 0x44 ADD PUSH1 0x20 PUSH1 0x40 MLOAD DUP1 DUP4 SUB DUP2 PUSH1 0x0 DUP8 GAS CALL ISZERO DUP1 ISZERO PUSH2 0xA3A JUMPI RETURNDATASIZE PUSH1 0x0 DUP1 RETURNDATACOPY RETURNDATASIZE PUSH1 0x0 REVERT JUMPDEST POP POP POP POP PUSH1 0x40 MLOAD RETURNDATASIZE PUSH1 0x1F NOT PUSH1 0x1F DUP3 ADD AND DUP3 ADD DUP1 PUSH1 0x40 MSTORE POP DUP2 ADD SWAP1 PUSH2 0xA5E SWAP2 SWAP1 PUSH2 0x203F JUMP JUMPDEST POP PUSH1 0x40 MLOAD DUP3 DUP2 MSTORE CALLER SWAP1 PUSH32 0xF5BB82176FEB1B5E747E28471AA92156A04D9F3AB9F45F28E2D704232B93F75 SWAP1 PUSH1 0x20 ADD PUSH1 0x40 MLOAD DUP1 SWAP2 SUB SWAP1 LOG2 POP PUSH2 0xA9F PUSH1 0x1 PUSH1 0x0 SSTORE JUMP JUMPDEST POP JUMP JUMPDEST PUSH2 0xAAA PUSH2 0x1975 JUMP JUMPDEST PUSH2 0xAB2 PUSH2 0x1832 JUMP JUMPDEST PUSH2 0xABA PUSH2 0xACF JUMP JUMPDEST PUSH2 0xAC3 CALLER PUSH2 0x199F JUMP JUMPDEST PUSH2 0xACD PUSH1 0x1 PUSH1 0x0 SSTORE JUMP JUMPDEST JUMP JUMPDEST PUSH1 0x0 PUSH1 0xC SLOAD TIMESTAMP PUSH2 0xADF SWAP2 SWAP1 PUSH2 0x202C JUMP JUMPDEST SWAP1 POP PUSH1 0x0 DUP2 GT DUP1 ISZERO PUSH2 0xAF3 JUMPI POP PUSH1 0x0 PUSH1 0x5 SLOAD GT JUMPDEST ISZERO PUSH2 0xA9F JUMPI PUSH1 0x0 PUSH3 0x278D00 DUP3 PUSH1 0x8 SLOAD PUSH2 0xB0C SWAP2 SWAP1 PUSH2 0x1FED JUMP JUMPDEST PUSH2 0xB16 SWAP2 SWAP1 PUSH2 0x200A JUMP JUMPDEST SWAP1 POP DUP1 PUSH1 0xB PUSH1 0x0 DUP3 DUP3 SLOAD PUSH2 0xB2A SWAP2 SWAP1 PUSH2 0x205C JUMP JUMPDEST SWAP1 SWAP2 SSTORE POP POP TIMESTAMP PUSH1 0xC SSTORE POP POP JUMP JUMPDEST PUSH2 0xB3F PUSH2 0x1948 JUMP JUMPDEST PUSH2 0xACD PUSH2 0x1AFD JUMP JUMPDEST PUSH1 0x0 PUSH3 0x278D00 PUSH1 0xA SLOAD TIMESTAMP PUSH2 0xB5B SWAP2 SWAP1 PUSH2 0x202C JUMP JUMPDEST LT ISZERO SWAP1 POP SWAP1 JUMP JUMPDEST PUSH1 0x3 SLOAD PUSH1 0x0 SWAP1 JUMPDEST PUSH1 0x1 DUP2 LT PUSH2 0xBBD JUMPI PUSH1 0x0 DUP2 DUP2 MSTORE PUSH1 0x2 PUSH1 0x20 MSTORE PUSH1 0x40 SWAP1 KECCAK256 PUSH1 0x3 ADD SLOAD PUSH1 0xFF AND DUP1 ISZERO PUSH2 0xBA0 JUMPI POP PUSH1 0x0 DUP2 DUP2 MSTORE PUSH1 0x2 PUSH1 0x20 MSTORE PUSH1 0x40 SWAP1 KECCAK256 SLOAD DUP4 LT ISZERO JUMPDEST ISZERO PUSH2 0xBAB JUMPI SWAP3 SWAP2 POP POP JUMP JUMPDEST DUP1 PUSH2 0xBB5 DUP2 PUSH2 0x206F JUMP JUMPDEST SWAP2 POP POP PUSH2 0xB69 JUMP JUMPDEST POP PUSH1 0x0 SWAP3 SWAP2 POP POP JUMP JUMPDEST PUSH1 0x60 DUP1 PUSH1 0x60 DUP1 PUSH1 0x60 PUSH1 0x3 SLOAD PUSH8 0xFFFFFFFFFFFFFFFF DUP2 GT ISZERO PUSH2 0xBE9 JUMPI PUSH2 0xBE9 PUSH2 0x1E18 JUMP JUMPDEST PUSH1 0x40 MLOAD SWAP1 DUP1 DUP3 MSTORE DUP1 PUSH1 0x20 MUL PUSH1 0x20 ADD DUP3 ADD PUSH1 0x40 MSTORE DUP1 ISZERO PUSH2 0xC12 JUMPI DUP2 PUSH1 0x20 ADD PUSH1 0x20 DUP3 MUL DUP1 CALLDATASIZE DUP4 CALLDATACOPY ADD SWAP1 POP JUMPDEST POP SWAP5 POP PUSH1 0x3 SLOAD PUSH8 0xFFFFFFFFFFFFFFFF DUP2 GT ISZERO PUSH2 0xC30 JUMPI PUSH2 0xC30 PUSH2 0x1E18 JUMP JUMPDEST PUSH1 0x40 MLOAD SWAP1 DUP1 DUP3 MSTORE DUP1 PUSH1 0x20 MUL PUSH1 0x20 ADD DUP3 ADD PUSH1 0x40 MSTORE DUP1 ISZERO PUSH2 0xC59 JUMPI DUP2 PUSH1 0x20 ADD PUSH1 0x20 DUP3 MUL DUP1 CALLDATASIZE DUP4 CALLDATACOPY ADD SWAP1 POP JUMPDEST POP SWAP4 POP PUSH1 0x3 SLOAD PUSH8 0xFFFFFFFFFFFFFFFF DUP2 GT ISZERO PUSH2 0xC77 JUMPI PUSH2 0xC77 PUSH2 0x1E18 JUMP JUMPDEST PUSH1 0x40 MLOAD SWAP1 DUP1 DUP3 MSTORE DUP1 PUSH1 0x20 MUL PUSH1 0x20 ADD DUP3 ADD PUSH1 0x40 MSTORE DUP1 ISZERO PUSH2 0xCA0 JUMPI DUP2 PUSH1 0x20 ADD PUSH1 0x20 DUP3 MUL DUP1 CALLDATASIZE DUP4 CALLDATACOPY ADD SWAP1 POP JUMPDEST POP SWAP3 POP PUSH1 0x3 SLOAD PUSH8 0xFFFFFFFFFFFFFFFF DUP2 GT ISZERO PUSH2 0xCBE JUMPI PUSH2 0xCBE PUSH2 0x1E18 JUMP JUMPDEST PUSH1 0x40 MLOAD SWAP1 DUP1 DUP3 MSTORE DUP1 PUSH1 0x20 MUL PUSH1 0x20 ADD DUP3 ADD PUSH1 0x40 MSTORE DUP1 ISZERO PUSH2 0xCF1 JUMPI DUP2 PUSH1 0x20 ADD JUMPDEST PUSH1 0x60 DUP2 MSTORE PUSH1 0x20 ADD SWAP1 PUSH1 0x1 SWAP1 SUB SWAP1 DUP2 PUSH2 0xCDC JUMPI SWAP1 POP JUMPDEST POP SWAP2 POP PUSH1 0x3 SLOAD PUSH8 0xFFFFFFFFFFFFFFFF DUP2 GT ISZERO PUSH2 0xD0F JUMPI PUSH2 0xD0F PUSH2 0x1E18 JUMP JUMPDEST PUSH1 0x40 MLOAD SWAP1 DUP1 DUP3 MSTORE DUP1 PUSH1 0x20 MUL PUSH1 0x20 ADD DUP3 ADD PUSH1 0x40 MSTORE DUP1 ISZERO PUSH2 0xD38 JUMPI DUP2 PUSH1 0x20 ADD PUSH1 0x20 DUP3 MUL DUP1 CALLDATASIZE DUP4 CALLDATACOPY ADD SWAP1 POP JUMPDEST POP SWAP1 POP PUSH1 0x1 JUMPDEST PUSH1 0x3 SLOAD DUP2 GT PUSH2 0xF0A JUMPI DUP1 DUP7 PUSH2 0xD54 PUSH1 0x1 DUP4 PUSH2 0x202C JUMP JUMPDEST DUP2 MLOAD DUP2 LT PUSH2 0xD64 JUMPI PUSH2 0xD64 PUSH2 0x2086 JUMP JUMPDEST PUSH1 0x20 SWAP1 DUP2 MUL SWAP2 SWAP1 SWAP2 ADD DUP2 ADD SWAP2 SWAP1 SWAP2 MSTORE PUSH1 0x0 DUP3 DUP2 MSTORE PUSH1 0x2 SWAP1 SWAP2 MSTORE PUSH1 0x40 SWAP1 KECCAK256 SLOAD DUP6 PUSH2 0xD8E PUSH1 0x1 DUP5 PUSH2 0x202C JUMP JUMPDEST DUP2 MLOAD DUP2 LT PUSH2 0xD9E JUMPI PUSH2 0xD9E PUSH2 0x2086 JUMP JUMPDEST PUSH1 0x20 MUL PUSH1 0x20 ADD ADD DUP2 DUP2 MSTORE POP POP PUSH1 0x2 PUSH1 0x0 DUP3 DUP2 MSTORE PUSH1 0x20 ADD SWAP1 DUP2 MSTORE PUSH1 0x20 ADD PUSH1 0x0 KECCAK256 PUSH1 0x1 ADD SLOAD DUP5 PUSH1 0x1 DUP4 PUSH2 0xDCF SWAP2 SWAP1 PUSH2 0x202C JUMP JUMPDEST DUP2 MLOAD DUP2 LT PUSH2 0xDDF JUMPI PUSH2 0xDDF PUSH2 0x2086 JUMP JUMPDEST PUSH1 0x20 MUL PUSH1 0x20 ADD ADD DUP2 DUP2 MSTORE POP POP PUSH1 0x2 PUSH1 0x0 DUP3 DUP2 MSTORE PUSH1 0x20 ADD SWAP1 DUP2 MSTORE PUSH1 0x20 ADD PUSH1 0x0 KECCAK256 PUSH1 0x2 ADD DUP1 SLOAD PUSH2 0xE0C SWAP1 PUSH2 0x209C JUMP JUMPDEST DUP1 PUSH1 0x1F ADD PUSH1 0x20 DUP1 SWAP2 DIV MUL PUSH1 0x20 ADD PUSH1 0x40 MLOAD SWAP1 DUP2 ADD PUSH1 0x40 MSTORE DUP1 SWAP3 SWAP2 SWAP1 DUP2 DUP2 MSTORE PUSH1 0x20 ADD DUP3 DUP1 SLOAD PUSH2 0xE38 SWAP1 PUSH2 0x209C JUMP JUMPDEST DUP1 ISZERO PUSH2 0xE85 JUMPI DUP1 PUSH1 0x1F LT PUSH2 0xE5A JUMPI PUSH2 0x100 DUP1 DUP4 SLOAD DIV MUL DUP4 MSTORE SWAP2 PUSH1 0x20 ADD SWAP2 PUSH2 0xE85 JUMP JUMPDEST DUP3 ADD SWAP2 SWAP1 PUSH1 0x0 MSTORE PUSH1 0x20 PUSH1 0x0 KECCAK256 SWAP1 JUMPDEST DUP2 SLOAD DUP2 MSTORE SWAP1 PUSH1 0x1 ADD SWAP1 PUSH1 0x20 ADD DUP1 DUP4 GT PUSH2 0xE68 JUMPI DUP3 SWAP1 SUB PUSH1 0x1F AND DUP3 ADD SWAP2 JUMPDEST POP POP POP POP POP DUP4 PUSH1 0x1 DUP4 PUSH2 0xE98 SWAP2 SWAP1 PUSH2 0x202C JUMP JUMPDEST DUP2 MLOAD DUP2 LT PUSH2 0xEA8 JUMPI PUSH2 0xEA8 PUSH2 0x2086 JUMP JUMPDEST PUSH1 0x20 SWAP1 DUP2 MUL SWAP2 SWAP1 SWAP2 ADD DUP2 ADD SWAP2 SWAP1 SWAP2 MSTORE PUSH1 0x0 DUP3 DUP2 MSTORE PUSH1 0x2 SWAP1 SWAP2 MSTORE PUSH1 0x40 SWAP1 KECCAK256 PUSH1 0x3 ADD SLOAD PUSH1 0xFF AND DUP3 PUSH2 0xED8 PUSH1 0x1 DUP5 PUSH2 0x202C JUMP JUMPDEST DUP2 MLOAD DUP2 LT PUSH2 0xEE8 JUMPI PUSH2 0xEE8 PUSH2 0x2086 JUMP JUMPDEST SWAP2 ISZERO ISZERO PUSH1 0x20 SWAP3 DUP4 MUL SWAP2 SWAP1 SWAP2 ADD SWAP1 SWAP2 ADD MSTORE DUP1 PUSH2 0xF02 DUP2 PUSH2 0x20D6 JUMP JUMPDEST SWAP2 POP POP PUSH2 0xD3E JUMP JUMPDEST POP SWAP1 SWAP2 SWAP3 SWAP4 SWAP5 JUMP JUMPDEST PUSH2 0xF1A PUSH2 0x1948 JUMP JUMPDEST PUSH2 0xACD PUSH1 0x0 PUSH2 0x1B52 JUMP JUMPDEST PUSH2 0xF2C PUSH2 0x1975 JUMP JUMPDEST PUSH1 0xD SLOAD PUSH1 0xFF AND PUSH2 0xF7E JUMPI PUSH1 0x40 MLOAD PUSH3 0x461BCD PUSH1 0xE5 SHL DUP2 MSTORE PUSH1 0x20 PUSH1 0x4 DUP3 ADD MSTORE PUSH1 0x1E PUSH1 0x24 DUP3 ADD MSTORE PUSH32 0x456D657267656E6379207769746864726177206E6F7420656E61626C65640000 PUSH1 0x44 DUP3 ADD MSTORE PUSH1 0x64 ADD PUSH2 0x7D0 JUMP JUMPDEST CALLER PUSH1 0x0 SWAP1 DUP2 MSTORE PUSH1 0x4 PUSH1 0x20 MSTORE PUSH1 0x40 SWAP1 KECCAK256 DUP1 SLOAD PUSH2 0xFCC JUMPI PUSH1 0x40 MLOAD PUSH3 0x461BCD PUSH1 0xE5 SHL DUP2 MSTORE PUSH1 0x20 PUSH1 0x4 DUP3 ADD MSTORE PUSH1 0xE PUSH1 0x24 DUP3 ADD MSTORE PUSH14 0x139BC81CDD185AD948199BDD5B99 PUSH1 0x92 SHL PUSH1 0x44 DUP3 ADD MSTORE PUSH1 0x64 ADD PUSH2 0x7D0 JUMP JUMPDEST DUP1 SLOAD PUSH1 0x5 DUP1 SLOAD DUP3 SWAP2 SWAP1 PUSH1 0x0 SWAP1 PUSH2 0xFE3 SWAP1 DUP5 SWAP1 PUSH2 0x202C JUMP JUMPDEST SWAP1 SWAP2 SSTORE POP POP PUSH1 0x6 DUP1 SLOAD SWAP1 PUSH1 0x0 PUSH2 0xFF8 DUP4 PUSH2 0x206F JUMP JUMPDEST SWAP1 SWAP2 SSTORE POP POP CALLER PUSH1 0x0 DUP2 DUP2 MSTORE PUSH1 0x4 PUSH1 0x20 DUP2 SWAP1 MSTORE PUSH1 0x40 DUP1 DUP4 KECCAK256 DUP4 DUP2 SSTORE PUSH1 0x1 DUP2 ADD DUP5 SWAP1 SSTORE PUSH1 0x2 DUP2 ADD DUP5 SWAP1 SSTORE PUSH1 0x3 DUP2 ADD DUP5 SWAP1 SSTORE DUP3 ADD SWAP3 SWAP1 SWAP3 SSTORE SWAP1 MLOAD PUSH4 0xA9059CBB PUSH1 0xE0 SHL DUP2 MSTORE SWAP1 DUP2 ADD SWAP2 SWAP1 SWAP2 MSTORE PUSH1 0x24 DUP2 ADD DUP3 SWAP1 MSTORE PUSH20 0x746042147240304098C837563AAEC0F671881B07 SWAP1 PUSH4 0xA9059CBB SWAP1 PUSH1 0x44 ADD PUSH1 0x20 PUSH1 0x40 MLOAD DUP1 DUP4 SUB DUP2 PUSH1 0x0 DUP8 GAS CALL ISZERO DUP1 ISZERO PUSH2 0x1085 JUMPI RETURNDATASIZE PUSH1 0x0 DUP1 RETURNDATACOPY RETURNDATASIZE PUSH1 0x0 REVERT JUMPDEST POP POP POP POP PUSH1 0x40 MLOAD RETURNDATASIZE PUSH1 0x1F NOT PUSH1 0x1F DUP3 ADD AND DUP3 ADD DUP1 PUSH1 0x40 MSTORE POP DUP2 ADD SWAP1 PUSH2 0x10A9 SWAP2 SWAP1 PUSH2 0x203F JUMP JUMPDEST POP PUSH1 0x40 MLOAD DUP2 DUP2 MSTORE CALLER SWAP1 PUSH32 0xF5BB82176FEB1B5E747E28471AA92156A04D9F3AB9F45F28E2D704232B93F75 SWAP1 PUSH1 0x20 ADD PUSH1 0x40 MLOAD DUP1 SWAP2 SUB SWAP1 LOG2 POP POP PUSH2 0xACD PUSH1 0x1 PUSH1 0x0 SSTORE JUMP JUMPDEST PUSH2 0x10F3 PUSH2 0x1948 JUMP JUMPDEST PUSH2 0xACD PUSH2 0x1BA4 JUMP JUMPDEST PUSH2 0x1103 PUSH2 0x1832 JUMP JUMPDEST PUSH2 0xACD PUSH2 0xACF JUMP JUMPDEST PUSH2 0x1113 PUSH2 0x1948 JUMP JUMPDEST PUSH20 0x746042147240304098C837563AAEC0F671881B06 NOT PUSH1 0x1 PUSH1 0x1 PUSH1 0xA0 SHL SUB DUP4 AND ADD PUSH2 0x1180 JUMPI PUSH1 0x40 MLOAD PUSH3 0x461BCD PUSH1 0xE5 SHL DUP2 MSTORE PUSH1 0x20 PUSH1 0x4 DUP3 ADD MSTORE PUSH1 0x1C PUSH1 0x24 DUP3 ADD MSTORE PUSH32 0x43616E6E6F74207769746864726177207374616B656420534F4C415200000000 PUSH1 0x44 DUP3 ADD MSTORE PUSH1 0x64 ADD PUSH2 0x7D0 JUMP JUMPDEST PUSH1 0x40 MLOAD PUSH4 0xA9059CBB PUSH1 0xE0 SHL DUP2 MSTORE CALLER PUSH1 0x4 DUP3 ADD MSTORE PUSH1 0x24 DUP2 ADD DUP3 SWAP1 MSTORE PUSH1 0x1 PUSH1 0x1 PUSH1 0xA0 SHL SUB DUP4 AND SWAP1 PUSH4 0xA9059CBB SWAP1 PUSH1 0x44 ADD PUSH1 0x20 PUSH1 0x40 MLOAD DUP1 DUP4 SUB DUP2 PUSH1 0x0 DUP8 GAS CALL ISZERO DUP1 ISZERO PUSH2 0x11CD JUMPI RETURNDATASIZE PUSH1 0x0 DUP1 RETURNDATACOPY RETURNDATASIZE PUSH1 0x0 REVERT JUMPDEST POP POP POP POP PUSH1 0x40 MLOAD RETURNDATASIZE PUSH1 0x1F NOT PUSH1 0x1F DUP3 ADD AND DUP3 ADD DUP1 PUSH1 0x40 MSTORE POP DUP2 ADD SWAP1 PUSH2 0x11F1 SWAP2 SWAP1 PUSH2 0x203F JUMP JUMPDEST POP POP POP JUMP JUMPDEST PUSH2 0x11FE PUSH2 0x1948 JUMP JUMPDEST PUSH2 0x2710 DUP3 LT ISZERO DUP1 ISZERO PUSH2 0x1212 JUMPI POP PUSH2 0xC350 DUP3 GT ISZERO JUMPDEST PUSH2 0x122E JUMPI PUSH1 0x40 MLOAD PUSH3 0x461BCD PUSH1 0xE5 SHL DUP2 MSTORE PUSH1 0x4 ADD PUSH2 0x7D0 SWAP1 PUSH2 0x20EF JUMP JUMPDEST PUSH1 0x3 DUP1 SLOAD SWAP1 PUSH1 0x0 PUSH2 0x123E DUP4 PUSH2 0x20D6 JUMP JUMPDEST SWAP1 SWAP2 SSTORE POP POP PUSH1 0x40 DUP1 MLOAD PUSH1 0x80 DUP2 ADD DUP3 MSTORE DUP5 DUP2 MSTORE PUSH1 0x20 DUP1 DUP3 ADD DUP6 DUP2 MSTORE DUP3 DUP5 ADD DUP6 DUP2 MSTORE PUSH1 0x1 PUSH1 0x60 DUP6 ADD DUP2 SWAP1 MSTORE PUSH1 0x3 SLOAD PUSH1 0x0 SWAP1 DUP2 MSTORE PUSH1 0x2 SWAP5 DUP6 SWAP1 MSTORE SWAP6 SWAP1 SWAP6 KECCAK256 DUP5 MLOAD DUP2 SSTORE SWAP2 MLOAD SWAP5 DUP3 ADD SWAP5 SWAP1 SWAP5 SSTORE SWAP3 MLOAD SWAP2 SWAP3 SWAP2 SWAP1 DUP3 ADD SWAP1 PUSH2 0x1299 SWAP1 DUP3 PUSH2 0x2181 JUMP JUMPDEST POP PUSH1 0x60 SWAP2 SWAP1 SWAP2 ADD MLOAD PUSH1 0x3 SWAP2 DUP3 ADD DUP1 SLOAD PUSH1 0xFF NOT AND SWAP2 ISZERO ISZERO SWAP2 SWAP1 SWAP2 OR SWAP1 SSTORE SLOAD PUSH1 0x40 MLOAD PUSH32 0x5D192D62D1DCFBBEEB986F64FA5CB9FFB080B6644AA87F0A6C05C0EAD037620B SWAP2 PUSH2 0x12EA SWAP2 DUP7 SWAP1 DUP7 SWAP1 DUP7 SWAP1 PUSH2 0x2241 JUMP JUMPDEST PUSH1 0x40 MLOAD DUP1 SWAP2 SUB SWAP1 LOG1 POP POP POP JUMP JUMPDEST PUSH2 0x12FF PUSH2 0x1975 JUMP JUMPDEST PUSH2 0x1307 PUSH2 0x1BE7 JUMP JUMPDEST PUSH1 0x0 DUP2 GT PUSH2 0x1357 JUMPI PUSH1 0x40 MLOAD PUSH3 0x461BCD PUSH1 0xE5 SHL DUP2 MSTORE PUSH1 0x20 PUSH1 0x4 DUP3 ADD MSTORE PUSH1 0x1D PUSH1 0x24 DUP3 ADD MSTORE PUSH32 0x416D6F756E74206D7573742062652067726561746572207468616E2030000000 PUSH1 0x44 DUP3 ADD MSTORE PUSH1 0x64 ADD PUSH2 0x7D0 JUMP JUMPDEST PUSH1 0x40 MLOAD PUSH4 0x70A08231 PUSH1 0xE0 SHL DUP2 MSTORE CALLER PUSH1 0x4 DUP3 ADD MSTORE DUP2 SWAP1 PUSH20 0x746042147240304098C837563AAEC0F671881B07 SWAP1 PUSH4 0x70A08231 SWAP1 PUSH1 0x24 ADD PUSH1 0x20 PUSH1 0x40 MLOAD DUP1 DUP4 SUB DUP2 DUP7 GAS STATICCALL ISZERO DUP1 ISZERO PUSH2 0x13A8 JUMPI RETURNDATASIZE PUSH1 0x0 DUP1 RETURNDATACOPY RETURNDATASIZE PUSH1 0x0 REVERT JUMPDEST POP POP POP POP PUSH1 0x40 MLOAD RETURNDATASIZE PUSH1 0x1F NOT PUSH1 0x1F DUP3 ADD AND DUP3 ADD DUP1 PUSH1 0x40 MSTORE POP DUP2 ADD SWAP1 PUSH2 0x13CC SWAP2 SWAP1 PUSH2 0x2266 JUMP JUMPDEST LT ISZERO PUSH2 0x141A JUMPI PUSH1 0x40 MLOAD PUSH3 0x461BCD PUSH1 0xE5 SHL DUP2 MSTORE PUSH1 0x20 PUSH1 0x4 DUP3 ADD MSTORE PUSH1 0x1A PUSH1 0x24 DUP3 ADD MSTORE PUSH32 0x496E73756666696369656E7420534F4C41522062616C616E6365000000000000 PUSH1 0x44 DUP3 ADD MSTORE PUSH1 0x64 ADD PUSH2 0x7D0 JUMP JUMPDEST PUSH2 0x1422 PUSH2 0x1832 JUMP JUMPDEST PUSH2 0x142A PUSH2 0xACF JUMP JUMPDEST CALLER PUSH1 0x0 SWAP1 DUP2 MSTORE PUSH1 0x4 PUSH1 0x20 MSTORE PUSH1 0x40 SWAP1 KECCAK256 DUP1 SLOAD ISZERO PUSH2 0x144E JUMPI PUSH2 0x1449 CALLER PUSH2 0x199F JUMP JUMPDEST PUSH2 0x1464 JUMP JUMPDEST PUSH1 0x6 DUP1 SLOAD SWAP1 PUSH1 0x0 PUSH2 0x145E DUP4 PUSH2 0x20D6 JUMP JUMPDEST SWAP2 SWAP1 POP SSTORE POP JUMPDEST PUSH1 0x40 MLOAD PUSH4 0x23B872DD PUSH1 0xE0 SHL DUP2 MSTORE CALLER PUSH1 0x4 DUP3 ADD MSTORE ADDRESS PUSH1 0x24 DUP3 ADD MSTORE PUSH1 0x44 DUP2 ADD DUP4 SWAP1 MSTORE PUSH20 0x746042147240304098C837563AAEC0F671881B07 SWAP1 PUSH4 0x23B872DD SWAP1 PUSH1 0x64 ADD PUSH1 0x20 PUSH1 0x40 MLOAD DUP1 DUP4 SUB DUP2 PUSH1 0x0 DUP8 GAS CALL ISZERO DUP1 ISZERO PUSH2 0x14C2 JUMPI RETURNDATASIZE PUSH1 0x0 DUP1 RETURNDATACOPY RETURNDATASIZE PUSH1 0x0 REVERT JUMPDEST POP POP POP POP PUSH1 0x40 MLOAD RETURNDATASIZE PUSH1 0x1F NOT PUSH1 0x1F DUP3 ADD AND DUP3 ADD DUP1 PUSH1 0x40 MSTORE POP DUP2 ADD SWAP1 PUSH2 0x14E6 SWAP2 SWAP1 PUSH2 0x203F JUMP JUMPDEST POP DUP2 DUP2 PUSH1 0x0 ADD PUSH1 0x0 DUP3 DUP3 SLOAD PUSH2 0x14FB SWAP2 SWAP1 PUSH2 0x205C JUMP JUMPDEST SWAP1 SWAP2 SSTORE POP POP TIMESTAMP PUSH1 0x2 DUP3 ADD DUP2 SWAP1 SSTORE PUSH1 0x3 DUP3 ADD SSTORE DUP1 SLOAD PUSH1 0x0 SWAP1 PUSH2 0x151B SWAP1 PUSH2 0xB62 JUMP JUMPDEST SWAP1 POP DUP1 DUP3 PUSH1 0x1 ADD DUP2 SWAP1 SSTORE POP DUP3 PUSH1 0x5 PUSH1 0x0 DUP3 DUP3 SLOAD PUSH2 0x1538 SWAP2 SWAP1 PUSH2 0x205C JUMP JUMPDEST SWAP1 SWAP2 SSTORE POP POP PUSH1 0x40 DUP1 MLOAD DUP5 DUP2 MSTORE PUSH1 0x20 DUP2 ADD DUP4 SWAP1 MSTORE CALLER SWAP2 PUSH32 0x1449C6DD7851ABC30ABF37F57715F492010519147CC2652FBC38202C18A6EE90 SWAP2 ADD PUSH1 0x40 MLOAD DUP1 SWAP2 SUB SWAP1 LOG2 POP POP PUSH2 0xA9F PUSH1 0x1 PUSH1 0x0 SSTORE JUMP JUMPDEST PUSH1 0x1 PUSH1 0x1 PUSH1 0xA0 SHL SUB DUP2 AND PUSH1 0x0 SWAP1 DUP2 MSTORE PUSH1 0x4 PUSH1 0x20 DUP2 DUP2 MSTORE PUSH1 0x40 DUP1 DUP5 KECCAK256 DUP2 MLOAD PUSH1 0xA0 DUP2 ADD DUP4 MSTORE DUP2 SLOAD DUP1 DUP3 MSTORE PUSH1 0x1 DUP4 ADD SLOAD SWAP5 DUP3 ADD DUP6 SWAP1 MSTORE PUSH1 0x2 DUP4 ADD SLOAD SWAP4 DUP3 ADD DUP5 SWAP1 MSTORE PUSH1 0x3 DUP4 ADD SLOAD PUSH1 0x60 DUP4 ADD MSTORE SWAP2 SWAP1 SWAP5 ADD SLOAD PUSH1 0x80 DUP6 ADD MSTORE SWAP4 SWAP2 SWAP3 SWAP1 SWAP2 SWAP1 DUP2 SWAP1 PUSH2 0x15E7 DUP8 PUSH2 0x67D JUMP JUMPDEST SWAP3 POP DUP1 PUSH1 0x80 ADD MLOAD SWAP2 POP POP SWAP2 SWAP4 SWAP6 SWAP1 SWAP3 SWAP5 POP JUMP JUMPDEST PUSH2 0x1602 PUSH2 0x1948 JUMP JUMPDEST PUSH1 0xD DUP1 SLOAD PUSH1 0xFF NOT AND DUP3 ISZERO ISZERO SWAP1 DUP2 OR SWAP1 SWAP2 SSTORE PUSH1 0x40 MLOAD SWAP1 DUP2 MSTORE PUSH32 0x4FB4FE1D48605773C41203249C0D2CE916AB20C17F80BA0885DB54C1468176AF SWAP1 PUSH1 0x20 ADD PUSH2 0x89F JUMP JUMPDEST PUSH2 0x164B PUSH2 0x1948 JUMP JUMPDEST PUSH1 0x0 DUP6 GT DUP1 ISZERO PUSH2 0x165D JUMPI POP PUSH1 0x3 SLOAD DUP6 GT ISZERO JUMPDEST PUSH2 0x169B JUMPI PUSH1 0x40 MLOAD PUSH3 0x461BCD PUSH1 0xE5 SHL DUP2 MSTORE PUSH1 0x20 PUSH1 0x4 DUP3 ADD MSTORE PUSH1 0xF PUSH1 0x24 DUP3 ADD MSTORE PUSH15 0x125B9D985B1A59081D1A595C881251 PUSH1 0x8A SHL PUSH1 0x44 DUP3 ADD MSTORE PUSH1 0x64 ADD PUSH2 0x7D0 JUMP JUMPDEST PUSH2 0x2710 DUP4 LT ISZERO DUP1 ISZERO PUSH2 0x16AF JUMPI POP PUSH2 0xC350 DUP4 GT ISZERO JUMPDEST PUSH2 0x16CB JUMPI PUSH1 0x40 MLOAD PUSH3 0x461BCD PUSH1 0xE5 SHL DUP2 MSTORE PUSH1 0x4 ADD PUSH2 0x7D0 SWAP1 PUSH2 0x20EF JUMP JUMPDEST PUSH1 0x40 DUP1 MLOAD PUSH1 0x80 DUP2 ADD DUP3 MSTORE DUP6 DUP2 MSTORE PUSH1 0x20 DUP1 DUP3 ADD DUP7 DUP2 MSTORE DUP3 DUP5 ADD DUP7 DUP2 MSTORE DUP6 ISZERO ISZERO PUSH1 0x60 DUP6 ADD MSTORE PUSH1 0x0 DUP11 DUP2 MSTORE PUSH1 0x2 SWAP4 DUP5 SWAP1 MSTORE SWAP5 SWAP1 SWAP5 KECCAK256 DUP4 MLOAD DUP2 SSTORE SWAP1 MLOAD PUSH1 0x1 DUP3 ADD SSTORE SWAP3 MLOAD SWAP2 SWAP3 SWAP2 SWAP1 DUP3 ADD SWAP1 PUSH2 0x171B SWAP1 DUP3 PUSH2 0x2181 JUMP JUMPDEST POP PUSH1 0x60 SWAP2 SWAP1 SWAP2 ADD MLOAD PUSH1 0x3 SWAP1 SWAP2 ADD DUP1 SLOAD PUSH1 0xFF NOT AND SWAP2 ISZERO ISZERO SWAP2 SWAP1 SWAP2 OR SWAP1 SSTORE PUSH1 0x40 MLOAD PUSH32 0x5D192D62D1DCFBBEEB986F64FA5CB9FFB080B6644AA87F0A6C05C0EAD037620B SWAP1 PUSH2 0x176D SWAP1 DUP8 SWAP1 DUP8 SWAP1 DUP8 SWAP1 DUP8 SWAP1 PUSH2 0x2241 JUMP JUMPDEST PUSH1 0x40 MLOAD DUP1 SWAP2 SUB SWAP1 LOG1 POP POP POP POP POP JUMP JUMPDEST PUSH1 0x2 PUSH1 0x20 DUP2 SWAP1 MSTORE PUSH1 0x0 SWAP2 DUP3 MSTORE PUSH1 0x40 SWAP1 SWAP2 KECCAK256 DUP1 SLOAD PUSH1 0x1 DUP3 ADD SLOAD SWAP3 DUP3 ADD DUP1 SLOAD SWAP2 SWAP4 SWAP3 SWAP2 PUSH2 0x17A6 SWAP1 PUSH2 0x209C JUMP JUMPDEST DUP1 PUSH1 0x1F ADD PUSH1 0x20 DUP1 SWAP2 DIV MUL PUSH1 0x20 ADD PUSH1 0x40 MLOAD SWAP1 DUP2 ADD PUSH1 0x40 MSTORE DUP1 SWAP3 SWAP2 SWAP1 DUP2 DUP2 MSTORE PUSH1 0x20 ADD DUP3 DUP1 SLOAD PUSH2 0x17D2 SWAP1 PUSH2 0x209C JUMP JUMPDEST DUP1 ISZERO PUSH2 0x181F JUMPI DUP1 PUSH1 0x1F LT PUSH2 0x17F4 JUMPI PUSH2 0x100 DUP1 DUP4 SLOAD DIV MUL DUP4 MSTORE SWAP2 PUSH1 0x20 ADD SWAP2 PUSH2 0x181F JUMP JUMPDEST DUP3 ADD SWAP2 SWAP1 PUSH1 0x0 MSTORE PUSH1 0x20 PUSH1 0x0 KECCAK256 SWAP1 JUMPDEST DUP2 SLOAD DUP2 MSTORE SWAP1 PUSH1 0x1 ADD SWAP1 PUSH1 0x20 ADD DUP1 DUP4 GT PUSH2 0x1802 JUMPI DUP3 SWAP1 SUB PUSH1 0x1F AND DUP3 ADD SWAP2 JUMPDEST POP POP POP PUSH1 0x3 SWAP1 SWAP4 ADD SLOAD SWAP2 SWAP3 POP POP PUSH1 0xFF AND DUP5 JUMP JUMPDEST PUSH1 0x0 PUSH3 0x278D00 PUSH1 0xA SLOAD TIMESTAMP PUSH2 0x1846 SWAP2 SWAP1 PUSH2 0x202C JUMP JUMPDEST PUSH2 0x1850 SWAP2 SWAP1 PUSH2 0x200A JUMP JUMPDEST SWAP1 POP DUP1 ISZERO PUSH2 0xA9F JUMPI PUSH1 0x0 JUMPDEST DUP2 DUP2 LT ISZERO PUSH2 0x1893 JUMPI PUSH1 0x64 PUSH1 0x62 PUSH1 0x8 SLOAD PUSH2 0x1874 SWAP2 SWAP1 PUSH2 0x1FED JUMP JUMPDEST PUSH2 0x187E SWAP2 SWAP1 PUSH2 0x200A JUMP JUMPDEST PUSH1 0x8 SSTORE DUP1 PUSH2 0x188B DUP2 PUSH2 0x20D6 JUMP JUMPDEST SWAP2 POP POP PUSH2 0x185B JUMP JUMPDEST POP PUSH2 0x18A1 PUSH3 0x278D00 DUP3 PUSH2 0x1FED JUMP JUMPDEST PUSH1 0xA PUSH1 0x0 DUP3 DUP3 SLOAD PUSH2 0x18B2 SWAP2 SWAP1 PUSH2 0x205C JUMP JUMPDEST SWAP1 SWAP2 SSTORE POP POP PUSH1 0x8 SLOAD PUSH1 0x40 MLOAD SWAP1 DUP2 MSTORE PUSH32 0xB114240D54CE08081CBD18870DC3B6CD4091BB86FF29D2AD41906C2A2D6723D4 SWAP1 PUSH1 0x20 ADD PUSH2 0x89F JUMP JUMPDEST PUSH1 0x0 PUSH3 0x278D00 PUSH1 0x9 SLOAD TIMESTAMP PUSH2 0x18FE SWAP2 SWAP1 PUSH2 0x202C JUMP JUMPDEST PUSH2 0x1908 SWAP2 SWAP1 PUSH2 0x200A JUMP JUMPDEST SWAP1 POP SWAP1 JUMP JUMPDEST PUSH2 0x1915 PUSH2 0x1948 JUMP JUMPDEST PUSH1 0x1 PUSH1 0x1 PUSH1 0xA0 SHL SUB DUP2 AND PUSH2 0x193F JUMPI PUSH1 0x40 MLOAD PUSH4 0x1E4FBDF7 PUSH1 0xE0 SHL DUP2 MSTORE PUSH1 0x0 PUSH1 0x4 DUP3 ADD MSTORE PUSH1 0x24 ADD PUSH2 0x7D0 JUMP JUMPDEST PUSH2 0xA9F DUP2 PUSH2 0x1B52 JUMP JUMPDEST PUSH1 0x1 SLOAD PUSH1 0x1 PUSH1 0x1 PUSH1 0xA0 SHL SUB AND CALLER EQ PUSH2 0xACD JUMPI PUSH1 0x40 MLOAD PUSH4 0x118CDAA7 PUSH1 0xE0 SHL DUP2 MSTORE CALLER PUSH1 0x4 DUP3 ADD MSTORE PUSH1 0x24 ADD PUSH2 0x7D0 JUMP JUMPDEST PUSH1 0x2 PUSH1 0x0 SLOAD SUB PUSH2 0x1998 JUMPI PUSH1 0x40 MLOAD PUSH4 0x3EE5AEB5 PUSH1 0xE0 SHL DUP2 MSTORE PUSH1 0x4 ADD PUSH1 0x40 MLOAD DUP1 SWAP2 SUB SWAP1 REVERT JUMPDEST PUSH1 0x2 PUSH1 0x0 SSTORE JUMP JUMPDEST PUSH1 0x0 PUSH2 0x19AA DUP3 PUSH2 0x67D JUMP JUMPDEST SWAP1 POP PUSH1 0x0 DUP2 GT DUP1 ISZERO PUSH2 0x19BE JUMPI POP DUP1 PUSH1 0xB SLOAD LT ISZERO JUMPDEST ISZERO PUSH2 0x1AF9 JUMPI PUSH1 0x1 PUSH1 0x1 PUSH1 0xA0 SHL SUB DUP3 AND PUSH1 0x0 SWAP1 DUP2 MSTORE PUSH1 0x4 PUSH1 0x20 DUP2 SWAP1 MSTORE PUSH1 0x40 DUP3 KECCAK256 TIMESTAMP PUSH1 0x3 DUP3 ADD SSTORE SWAP1 DUP2 ADD DUP1 SLOAD SWAP2 SWAP3 DUP5 SWAP3 PUSH2 0x19F7 SWAP1 DUP5 SWAP1 PUSH2 0x205C JUMP JUMPDEST SWAP3 POP POP DUP2 SWAP1 SSTORE POP DUP2 PUSH1 0xB PUSH1 0x0 DUP3 DUP3 SLOAD PUSH2 0x1A10 SWAP2 SWAP1 PUSH2 0x202C JUMP JUMPDEST SWAP3 POP POP DUP2 SWAP1 SSTORE POP DUP2 PUSH1 0x7 PUSH1 0x0 DUP3 DUP3 SLOAD PUSH2 0x1A29 SWAP2 SWAP1 PUSH2 0x205C JUMP JUMPDEST SWAP1 SWAP2 SSTORE POP POP PUSH1 0x40 MLOAD PUSH4 0xA9059CBB PUSH1 0xE0 SHL DUP2 MSTORE PUSH1 0x1 PUSH1 0x1 PUSH1 0xA0 SHL SUB DUP5 AND PUSH1 0x4 DUP3 ADD MSTORE PUSH1 0x24 DUP2 ADD DUP4 SWAP1 MSTORE PUSH20 0x746042147240304098C837563AAEC0F671881B07 SWAP1 PUSH4 0xA9059CBB SWAP1 PUSH1 0x44 ADD PUSH1 0x20 PUSH1 0x40 MLOAD DUP1 DUP4 SUB DUP2 PUSH1 0x0 DUP8 GAS CALL ISZERO DUP1 ISZERO PUSH2 0x1A8F JUMPI RETURNDATASIZE PUSH1 0x0 DUP1 RETURNDATACOPY RETURNDATASIZE PUSH1 0x0 REVERT JUMPDEST POP POP POP POP PUSH1 0x40 MLOAD RETURNDATASIZE PUSH1 0x1F NOT PUSH1 0x1F DUP3 ADD AND DUP3 ADD DUP1 PUSH1 0x40 MSTORE POP DUP2 ADD SWAP1 PUSH2 0x1AB3 SWAP2 SWAP1 PUSH2 0x203F JUMP JUMPDEST POP DUP3 PUSH1 0x1 PUSH1 0x1 PUSH1 0xA0 SHL SUB AND PUSH32 0xFC30CDDEA38E2BF4D6EA7D3F9ED3B6AD7F176419F4963BD81318067A4AEE73FE DUP4 PUSH1 0x40 MLOAD PUSH2 0x1AEF SWAP2 DUP2 MSTORE PUSH1 0x20 ADD SWAP1 JUMP JUMPDEST PUSH1 0x40 MLOAD DUP1 SWAP2 SUB SWAP1 LOG2 POP JUMPDEST POP POP JUMP JUMPDEST PUSH2 0x1B05 PUSH2 0x1C12 JUMP JUMPDEST PUSH1 0x1 DUP1 SLOAD PUSH1 0xFF PUSH1 0xA0 SHL NOT AND SWAP1 SSTORE PUSH32 0x5DB9EE0A495BF2E6FF9C91A7834C1BA4FDD244A5E8AA4E537BD38AEAE4B073AA CALLER JUMPDEST PUSH1 0x40 MLOAD PUSH1 0x1 PUSH1 0x1 PUSH1 0xA0 SHL SUB SWAP1 SWAP2 AND DUP2 MSTORE PUSH1 0x20 ADD PUSH1 0x40 MLOAD DUP1 SWAP2 SUB SWAP1 LOG1 JUMP JUMPDEST PUSH1 0x1 DUP1 SLOAD PUSH1 0x1 PUSH1 0x1 PUSH1 0xA0 SHL SUB DUP4 DUP2 AND PUSH1 0x1 PUSH1 0x1 PUSH1 0xA0 SHL SUB NOT DUP4 AND DUP2 OR SWAP1 SWAP4 SSTORE PUSH1 0x40 MLOAD SWAP2 AND SWAP2 SWAP1 DUP3 SWAP1 PUSH32 0x8BE0079C531659141344CD1FD0A4F28419497F9722A3DAAFE3B4186F6B6457E0 SWAP1 PUSH1 0x0 SWAP1 LOG3 POP POP JUMP JUMPDEST PUSH2 0x1BAC PUSH2 0x1BE7 JUMP JUMPDEST PUSH1 0x1 DUP1 SLOAD PUSH1 0xFF PUSH1 0xA0 SHL NOT AND PUSH1 0x1 PUSH1 0xA0 SHL OR SWAP1 SSTORE PUSH32 0x62E78CEA01BEE320CD4E420270B5EA74000D11B0C9F74754EBDBFC544B05A258 PUSH2 0x1B35 CALLER SWAP1 JUMP JUMPDEST PUSH1 0x1 SLOAD PUSH1 0x1 PUSH1 0xA0 SHL SWAP1 DIV PUSH1 0xFF AND ISZERO PUSH2 0xACD JUMPI PUSH1 0x40 MLOAD PUSH4 0xD93C0665 PUSH1 0xE0 SHL DUP2 MSTORE PUSH1 0x4 ADD PUSH1 0x40 MLOAD DUP1 SWAP2 SUB SWAP1 REVERT JUMPDEST PUSH1 0x1 SLOAD PUSH1 0x1 PUSH1 0xA0 SHL SWAP1 DIV PUSH1 0xFF AND PUSH2 0xACD JUMPI PUSH1 0x40 MLOAD PUSH4 0x8DFC202B PUSH1 0xE0 SHL DUP2 MSTORE PUSH1 0x4 ADD PUSH1 0x40 MLOAD DUP1 SWAP2 SUB SWAP1 REVERT JUMPDEST PUSH1 0x0 PUSH1 0x20 DUP3 DUP5 SUB SLT ISZERO PUSH2 0x1C4E JUMPI PUSH1 0x0 DUP1 REVERT JUMPDEST POP CALLDATALOAD SWAP2 SWAP1 POP JUMP JUMPDEST DUP1 CALLDATALOAD PUSH1 0x1 PUSH1 0x1 PUSH1 0xA0 SHL SUB DUP2 AND DUP2 EQ PUSH2 0x1C6C JUMPI PUSH1 0x0 DUP1 REVERT JUMPDEST SWAP2 SWAP1 POP JUMP JUMPDEST PUSH1 0x0 PUSH1 0x20 DUP3 DUP5 SUB SLT ISZERO PUSH2 0x1C83 JUMPI PUSH1 0x0 DUP1 REVERT JUMPDEST PUSH2 0x5D9 DUP3 PUSH2 0x1C55 JUMP JUMPDEST PUSH1 0x0 DUP2 MLOAD DUP1 DUP5 MSTORE PUSH1 0x20 DUP1 DUP6 ADD SWAP5 POP DUP1 DUP5 ADD PUSH1 0x0 JUMPDEST DUP4 DUP2 LT ISZERO PUSH2 0x1CBC JUMPI DUP2 MLOAD DUP8 MSTORE SWAP6 DUP3 ADD SWAP6 SWAP1 DUP3 ADD SWAP1 PUSH1 0x1 ADD PUSH2 0x1CA0 JUMP JUMPDEST POP SWAP5 SWAP6 SWAP5 POP POP POP POP POP JUMP JUMPDEST PUSH1 0x0 DUP2 MLOAD DUP1 DUP5 MSTORE PUSH1 0x0 JUMPDEST DUP2 DUP2 LT ISZERO PUSH2 0x1CED JUMPI PUSH1 0x20 DUP2 DUP6 ADD DUP2 ADD MLOAD DUP7 DUP4 ADD DUP3 ADD MSTORE ADD PUSH2 0x1CD1 JUMP JUMPDEST POP PUSH1 0x0 PUSH1 0x20 DUP3 DUP7 ADD ADD MSTORE PUSH1 0x20 PUSH1 0x1F NOT PUSH1 0x1F DUP4 ADD AND DUP6 ADD ADD SWAP2 POP POP SWAP3 SWAP2 POP POP JUMP JUMPDEST PUSH1 0x0 DUP2 MLOAD DUP1 DUP5 MSTORE PUSH1 0x20 DUP1 DUP6 ADD SWAP5 POP DUP1 DUP5 ADD PUSH1 0x0 JUMPDEST DUP4 DUP2 LT ISZERO PUSH2 0x1CBC JUMPI DUP2 MLOAD ISZERO ISZERO DUP8 MSTORE SWAP6 DUP3 ADD SWAP6 SWAP1 DUP3 ADD SWAP1 PUSH1 0x1 ADD PUSH2 0x1D21 JUMP JUMPDEST PUSH1 0xA0 DUP2 MSTORE PUSH1 0x0 PUSH2 0x1D52 PUSH1 0xA0 DUP4 ADD DUP9 PUSH2 0x1C8C JUMP JUMPDEST PUSH1 0x20 DUP4 DUP3 SUB DUP2 DUP6 ADD MSTORE PUSH2 0x1D65 DUP3 DUP10 PUSH2 0x1C8C JUMP JUMPDEST SWAP2 POP DUP4 DUP3 SUB PUSH1 0x40 DUP6 ADD MSTORE PUSH2 0x1D79 DUP3 DUP9 PUSH2 0x1C8C JUMP JUMPDEST SWAP2 POP DUP4 DUP3 SUB PUSH1 0x60 DUP6 ADD MSTORE DUP2 DUP7 MLOAD DUP1 DUP5 MSTORE DUP3 DUP5 ADD SWAP2 POP DUP3 DUP2 PUSH1 0x5 SHL DUP6 ADD ADD DUP4 DUP10 ADD PUSH1 0x0 JUMPDEST DUP4 DUP2 LT ISZERO PUSH2 0x1DCA JUMPI PUSH1 0x1F NOT DUP8 DUP5 SUB ADD DUP6 MSTORE PUSH2 0x1DB8 DUP4 DUP4 MLOAD PUSH2 0x1CC7 JUMP JUMPDEST SWAP5 DUP7 ADD SWAP5 SWAP3 POP SWAP1 DUP6 ADD SWAP1 PUSH1 0x1 ADD PUSH2 0x1D9C JUMP JUMPDEST POP POP DUP7 DUP2 SUB PUSH1 0x80 DUP9 ADD MSTORE PUSH2 0x1DDE DUP2 DUP10 PUSH2 0x1D0D JUMP JUMPDEST SWAP13 SWAP12 POP POP POP POP POP POP POP POP POP POP POP POP JUMP JUMPDEST PUSH1 0x0 DUP1 PUSH1 0x40 DUP4 DUP6 SUB SLT ISZERO PUSH2 0x1E01 JUMPI PUSH1 0x0 DUP1 REVERT JUMPDEST PUSH2 0x1E0A DUP4 PUSH2 0x1C55 JUMP JUMPDEST SWAP5 PUSH1 0x20 SWAP4 SWAP1 SWAP4 ADD CALLDATALOAD SWAP4 POP POP POP JUMP JUMPDEST PUSH4 0x4E487B71 PUSH1 0xE0 SHL PUSH1 0x0 MSTORE PUSH1 0x41 PUSH1 0x4 MSTORE PUSH1 0x24 PUSH1 0x0 REVERT JUMPDEST PUSH1 0x0 DUP3 PUSH1 0x1F DUP4 ADD SLT PUSH2 0x1E3F JUMPI PUSH1 0x0 DUP1 REVERT JUMPDEST DUP2 CALLDATALOAD PUSH8 0xFFFFFFFFFFFFFFFF DUP1 DUP3 GT ISZERO PUSH2 0x1E5A JUMPI PUSH2 0x1E5A PUSH2 0x1E18 JUMP JUMPDEST PUSH1 0x40 MLOAD PUSH1 0x1F DUP4 ADD PUSH1 0x1F NOT SWAP1 DUP2 AND PUSH1 0x3F ADD AND DUP2 ADD SWAP1 DUP3 DUP3 GT DUP2 DUP4 LT OR ISZERO PUSH2 0x1E82 JUMPI PUSH2 0x1E82 PUSH2 0x1E18 JUMP JUMPDEST DUP2 PUSH1 0x40 MSTORE DUP4 DUP2 MSTORE DUP7 PUSH1 0x20 DUP6 DUP9 ADD ADD GT ISZERO PUSH2 0x1E9B JUMPI PUSH1 0x0 DUP1 REVERT JUMPDEST DUP4 PUSH1 0x20 DUP8 ADD PUSH1 0x20 DUP4 ADD CALLDATACOPY PUSH1 0x0 PUSH1 0x20 DUP6 DUP4 ADD ADD MSTORE DUP1 SWAP5 POP POP POP POP POP SWAP3 SWAP2 POP POP JUMP JUMPDEST PUSH1 0x0 DUP1 PUSH1 0x0 PUSH1 0x60 DUP5 DUP7 SUB SLT ISZERO PUSH2 0x1ED0 JUMPI PUSH1 0x0 DUP1 REVERT JUMPDEST DUP4 CALLDATALOAD SWAP3 POP PUSH1 0x20 DUP5 ADD CALLDATALOAD SWAP2 POP PUSH1 0x40 DUP5 ADD CALLDATALOAD PUSH8 0xFFFFFFFFFFFFFFFF DUP2 GT ISZERO PUSH2 0x1EF5 JUMPI PUSH1 0x0 DUP1 REVERT JUMPDEST PUSH2 0x1F01 DUP7 DUP3 DUP8 ADD PUSH2 0x1E2E JUMP JUMPDEST SWAP2 POP POP SWAP3 POP SWAP3 POP SWAP3 JUMP JUMPDEST DUP1 ISZERO ISZERO DUP2 EQ PUSH2 0xA9F JUMPI PUSH1 0x0 DUP1 REVERT JUMPDEST PUSH1 0x0 PUSH1 0x20 DUP3 DUP5 SUB SLT ISZERO PUSH2 0x1F2B JUMPI PUSH1 0x0 DUP1 REVERT JUMPDEST DUP2 CALLDATALOAD PUSH2 0x5D9 DUP2 PUSH2 0x1F0B JUMP JUMPDEST PUSH1 0x0 DUP1 PUSH1 0x0 DUP1 PUSH1 0x0 PUSH1 0xA0 DUP7 DUP9 SUB SLT ISZERO PUSH2 0x1F4E JUMPI PUSH1 0x0 DUP1 REVERT JUMPDEST DUP6 CALLDATALOAD SWAP5 POP PUSH1 0x20 DUP7 ADD CALLDATALOAD SWAP4 POP PUSH1 0x40 DUP7 ADD CALLDATALOAD SWAP3 POP PUSH1 0x60 DUP7 ADD CALLDATALOAD PUSH8 0xFFFFFFFFFFFFFFFF DUP2 GT ISZERO PUSH2 0x1F7A JUMPI PUSH1 0x0 DUP1 REVERT JUMPDEST PUSH2 0x1F86 DUP9 DUP3 DUP10 ADD PUSH2 0x1E2E JUMP JUMPDEST SWAP3 POP POP PUSH1 0x80 DUP7 ADD CALLDATALOAD PUSH2 0x1F97 DUP2 PUSH2 0x1F0B JUMP JUMPDEST DUP1 SWAP2 POP POP SWAP3 SWAP6 POP SWAP3 SWAP6 SWAP1 SWAP4 POP JUMP JUMPDEST DUP5 DUP2 MSTORE DUP4 PUSH1 0x20 DUP3 ADD MSTORE PUSH1 0x80 PUSH1 0x40 DUP3 ADD MSTORE PUSH1 0x0 PUSH2 0x1FC4 PUSH1 0x80 DUP4 ADD DUP6 PUSH2 0x1CC7 JUMP JUMPDEST SWAP1 POP DUP3 ISZERO ISZERO PUSH1 0x60 DUP4 ADD MSTORE SWAP6 SWAP5 POP POP POP POP POP JUMP JUMPDEST PUSH4 0x4E487B71 PUSH1 0xE0 SHL PUSH1 0x0 MSTORE PUSH1 0x11 PUSH1 0x4 MSTORE PUSH1 0x24 PUSH1 0x0 REVERT JUMPDEST DUP1 DUP3 MUL DUP2 ISZERO DUP3 DUP3 DIV DUP5 EQ OR PUSH2 0x2004 JUMPI PUSH2 0x2004 PUSH2 0x1FD7 JUMP JUMPDEST SWAP3 SWAP2 POP POP JUMP JUMPDEST PUSH1 0x0 DUP3 PUSH2 0x2027 JUMPI PUSH4 0x4E487B71 PUSH1 0xE0 SHL PUSH1 0x0 MSTORE PUSH1 0x12 PUSH1 0x4 MSTORE PUSH1 0x24 PUSH1 0x0 REVERT JUMPDEST POP DIV SWAP1 JUMP JUMPDEST DUP2 DUP2 SUB DUP2 DUP2 GT ISZERO PUSH2 0x2004 JUMPI PUSH2 0x2004 PUSH2 0x1FD7 JUMP JUMPDEST PUSH1 0x0 PUSH1 0x20 DUP3 DUP5 SUB SLT ISZERO PUSH2 0x2051 JUMPI PUSH1 0x0 DUP1 REVERT JUMPDEST DUP2 MLOAD PUSH2 0x5D9 DUP2 PUSH2 0x1F0B JUMP JUMPDEST DUP1 DUP3 ADD DUP1 DUP3 GT ISZERO PUSH2 0x2004 JUMPI PUSH2 0x2004 PUSH2 0x1FD7 JUMP JUMPDEST PUSH1 0x0 DUP2 PUSH2 0x207E JUMPI PUSH2 0x207E PUSH2 0x1FD7 JUMP JUMPDEST POP PUSH1 0x0 NOT ADD SWAP1 JUMP JUMPDEST PUSH4 0x4E487B71 PUSH1 0xE0 SHL PUSH1 0x0 MSTORE PUSH1 0x32 PUSH1 0x4 MSTORE PUSH1 0x24 PUSH1 0x0 REVERT JUMPDEST PUSH1 0x1 DUP2 DUP2 SHR SWAP1 DUP3 AND DUP1 PUSH2 0x20B0 JUMPI PUSH1 0x7F DUP3 AND SWAP2 POP JUMPDEST PUSH1 0x20 DUP3 LT DUP2 SUB PUSH2 0x20D0 JUMPI PUSH4 0x4E487B71 PUSH1 0xE0 SHL PUSH1 0x0 MSTORE PUSH1 0x22 PUSH1 0x4 MSTORE PUSH1 0x24 PUSH1 0x0 REVERT JUMPDEST POP SWAP2 SWAP1 POP JUMP JUMPDEST PUSH1 0x0 PUSH1 0x1 DUP3 ADD PUSH2 0x20E8 JUMPI PUSH2 0x20E8 PUSH2 0x1FD7 JUMP JUMPDEST POP PUSH1 0x1 ADD SWAP1 JUMP JUMPDEST PUSH1 0x20 DUP1 DUP3 MSTORE PUSH1 0x24 SWAP1 DUP3 ADD MSTORE PUSH32 0x4D756C7469706C696572206D757374206265206265747765656E20317820616E PUSH1 0x40 DUP3 ADD MSTORE PUSH4 0xC8406AF PUSH1 0xE3 SHL PUSH1 0x60 DUP3 ADD MSTORE PUSH1 0x80 ADD SWAP1 JUMP JUMPDEST PUSH1 0x1F DUP3 GT ISZERO PUSH2 0x11F1 JUMPI PUSH1 0x0 DUP2 DUP2 MSTORE PUSH1 0x20 DUP2 KECCAK256 PUSH1 0x1F DUP6 ADD PUSH1 0x5 SHR DUP2 ADD PUSH1 0x20 DUP7 LT ISZERO PUSH2 0x215A JUMPI POP DUP1 JUMPDEST PUSH1 0x1F DUP6 ADD PUSH1 0x5 SHR DUP3 ADD SWAP2 POP JUMPDEST DUP2 DUP2 LT ISZERO PUSH2 0x2179 JUMPI DUP3 DUP2 SSTORE PUSH1 0x1 ADD PUSH2 0x2166 JUMP JUMPDEST POP POP POP POP POP POP JUMP JUMPDEST DUP2 MLOAD PUSH8 0xFFFFFFFFFFFFFFFF DUP2 GT ISZERO PUSH2 0x219B JUMPI PUSH2 0x219B PUSH2 0x1E18 JUMP JUMPDEST PUSH2 0x21AF DUP2 PUSH2 0x21A9 DUP5 SLOAD PUSH2 0x209C JUMP JUMPDEST DUP5 PUSH2 0x2133 JUMP JUMPDEST PUSH1 0x20 DUP1 PUSH1 0x1F DUP4 GT PUSH1 0x1 DUP2 EQ PUSH2 0x21E4 JUMPI PUSH1 0x0 DUP5 ISZERO PUSH2 0x21CC JUMPI POP DUP6 DUP4 ADD MLOAD JUMPDEST PUSH1 0x0 NOT PUSH1 0x3 DUP7 SWAP1 SHL SHR NOT AND PUSH1 0x1 DUP6 SWAP1 SHL OR DUP6 SSTORE PUSH2 0x2179 JUMP JUMPDEST PUSH1 0x0 DUP6 DUP2 MSTORE PUSH1 0x20 DUP2 KECCAK256 PUSH1 0x1F NOT DUP7 AND SWAP2 JUMPDEST DUP3 DUP2 LT ISZERO PUSH2 0x2213 JUMPI DUP9 DUP7 ADD MLOAD DUP3 SSTORE SWAP5 DUP5 ADD SWAP5 PUSH1 0x1 SWAP1 SWAP2 ADD SWAP1 DUP5 ADD PUSH2 0x21F4 JUMP JUMPDEST POP DUP6 DUP3 LT ISZERO PUSH2 0x2231 JUMPI DUP8 DUP6 ADD MLOAD PUSH1 0x0 NOT PUSH1 0x3 DUP9 SWAP1 SHL PUSH1 0xF8 AND SHR NOT AND DUP2 SSTORE JUMPDEST POP POP POP POP POP PUSH1 0x1 SWAP1 DUP2 SHL ADD SWAP1 SSTORE POP JUMP JUMPDEST DUP5 DUP2 MSTORE DUP4 PUSH1 0x20 DUP3 ADD MSTORE DUP3 PUSH1 0x40 DUP3 ADD MSTORE PUSH1 0x80 PUSH1 0x60 DUP3 ADD MSTORE PUSH1 0x0 PUSH2 0x673 PUSH1 0x80 DUP4 ADD DUP5 PUSH2 0x1CC7 JUMP JUMPDEST PUSH1 0x0 PUSH1 0x20 DUP3 DUP5 SUB SLT ISZERO PUSH2 0x2278 JUMPI PUSH1 0x0 DUP1 REVERT JUMPDEST POP MLOAD SWAP2 SWAP1 POP JUMP INVALID LOG2 PUSH5 0x6970667358 0x22 SLT KECCAK256 0xA6 0x2A PUSH11 0x84EE012E5143F02A3C2116 0xC6 ADD DUP14 0xA6 EQ SELFDESTRUCT 0xB2 0xE1 PUSH3 0xDD9B90 0xC5 PUSH30 0x43EB699C64736F6C63430008140033000000000000000000000000000000 "},"methodIdentifiers":{"EMISSION_REDUCTION_RATE()":"fa8dfc17","INITIAL_MONTHLY_EMISSION()":"01346847","SECONDS_PER_MONTH()":"10786deb","SOLAR_TOKEN()":"bda064eb","addTier(uint256,uint256,string)":"995840e3","calculatePendingRewards(address)":"097aad10","calculateUserTier(uint256)":"6405a06e","claimRewards()":"372500ab","currentMonthlyEmission()":"ba2e9fdd","emergencyUnstake()":"7589cf2f","emergencyWithdraw(address,uint256)":"95ccea67","emergencyWithdrawEnabled()":"5747e69f","emissionStartTime()":"b55e511d","forceEmissionUpdate()":"86a26f6f","fundRewardPool(uint256)":"1d583e0d","getAllTiers()":"6471af83","getEstimatedAPY(uint256)":"02455346","getMonthsSinceStart()":"e718e1c7","getStakingStats()":"c1dd6084","getUserStakeInfo(address)":"c32d3ae2","lastEmissionUpdate()":"c7644f22","lastRewardCalculation()":"34bee92e","needsEmissionUpdate()":"439233ae","owner()":"8da5cb5b","pause()":"8456cb59","paused()":"5c975abb","renounceOwnership()":"715018a6","rewardPool()":"66666aa9","setEmergencyWithdraw(bool)":"c7dd6f07","stake(uint256)":"a694fc3a","stakingTiers(uint256)":"d50267ee","totalRewardsDistributed()":"ee172546","totalStaked()":"817b1cd2","totalStakers()":"86989038","totalTiers()":"79eaaf61","transferOwnership(address)":"f2fde38b","unpause()":"3f4ba83a","unstake(uint256)":"2e17de78","updateEmissions()":"e5854ff8","updateRewards()":"3e158b0c","updateTier(uint256,uint256,uint256,string,bool)":"cc17e0d1","userStakes(address)":"8da7ad23"}}}}}