{"contracts/deployment/SolarUtility.sol":{"SolarUtility":{"abi":[{"inputs":[],"stateMutability":"nonpayable","type":"constructor"},{"inputs":[],"name":"EnforcedPause","type":"error"},{"inputs":[],"name":"ExpectedPause","type":"error"},{"inputs":[{"internalType":"address","name":"owner","type":"address"}],"name":"OwnableInvalidOwner","type":"error"},{"inputs":[{"internalType":"address","name":"account","type":"address"}],"name":"OwnableUnauthorizedAccount","type":"error"},{"inputs":[],"name":"ReentrancyGuardReentrantCall","type":"error"},{"anonymous":false,"inputs":[{"indexed":true,"internalType":"bytes32","name":"feature","type":"bytes32"},{"indexed":false,"internalType":"uint256","name":"requirement","type":"uint256"}],"name":"FeatureRequirementSet","type":"event"},{"anonymous":false,"inputs":[{"indexed":true,"internalType":"address","name":"user","type":"address"},{"indexed":true,"internalType":"bytes32","name":"feature","type":"bytes32"}],"name":"FeatureUsed","type":"event"},{"anonymous":false,"inputs":[{"indexed":true,"internalType":"address","name":"previousOwner","type":"address"},{"indexed":true,"internalType":"address","name":"newOwner","type":"address"}],"name":"OwnershipTransferred","type":"event"},{"anonymous":false,"inputs":[{"indexed":false,"internalType":"address","name":"account","type":"address"}],"name":"Paused","type":"event"},{"anonymous":false,"inputs":[{"indexed":true,"internalType":"address","name":"user","type":"address"},{"indexed":true,"internalType":"bytes32","name":"feature","type":"bytes32"}],"name":"PermanentAccessGranted","type":"event"},{"anonymous":false,"inputs":[{"indexed":false,"internalType":"uint256","name":"amount","type":"uint256"},{"indexed":false,"internalType":"address","name":"source","type":"address"}],"name":"RevenueAdded","type":"event"},{"anonymous":false,"inputs":[{"indexed":false,"internalType":"uint256","name":"amount","type":"uint256"},{"indexed":false,"internalType":"string","name":"reason","type":"string"},{"indexed":false,"internalType":"address","name":"burner","type":"address"}],"name":"SolarBurned","type":"event"},{"anonymous":false,"inputs":[{"indexed":true,"internalType":"address","name":"user","type":"address"},{"indexed":true,"internalType":"bytes32","name":"feature","type":"bytes32"},{"indexed":false,"internalType":"uint256","name":"duration","type":"uint256"}],"name":"TemporaryAccessGranted","type":"event"},{"anonymous":false,"inputs":[{"indexed":false,"internalType":"address","name":"account","type":"address"}],"name":"Unpaused","type":"event"},{"inputs":[],"name":"BURN_ADDRESS","outputs":[{"internalType":"address","name":"","type":"address"}],"stateMutability":"view","type":"function"},{"inputs":[],"name":"BURN_INTERVAL","outputs":[{"internalType":"uint256","name":"","type":"uint256"}],"stateMutability":"view","type":"function"},{"inputs":[],"name":"BURN_PERCENTAGE","outputs":[{"internalType":"uint256","name":"","type":"uint256"}],"stateMutability":"view","type":"function"},{"inputs":[],"name":"SOLAR_TOKEN","outputs":[{"internalType":"contract IERC20","name":"","type":"address"}],"stateMutability":"view","type":"function"},{"inputs":[{"internalType":"uint256","name":"amount","type":"uint256"}],"name":"addRevenue","outputs":[],"stateMutability":"nonpayable","type":"function"},{"inputs":[],"name":"burnEvents","outputs":[{"internalType":"uint256","name":"","type":"uint256"}],"stateMutability":"view","type":"function"},{"inputs":[],"name":"calculateBurnAmount","outputs":[{"internalType":"uint256","name":"","type":"uint256"}],"stateMutability":"view","type":"function"},{"inputs":[],"name":"canExecuteQuarterlyBurn","outputs":[{"internalType":"bool","name":"","type":"bool"}],"stateMutability":"view","type":"function"},{"inputs":[{"internalType":"address","name":"user","type":"address"},{"internalType":"bytes32","name":"feature","type":"bytes32"}],"name":"checkAccess","outputs":[{"internalType":"bool","name":"hasAccess","type":"bool"}],"stateMutability":"view","type":"function"},{"inputs":[{"internalType":"address","name":"token","type":"address"},{"internalType":"uint256","name":"amount","type":"uint256"}],"name":"emergencyWithdraw","outputs":[],"stateMutability":"nonpayable","type":"function"},{"inputs":[],"name":"executeQuarterlyBurn","outputs":[],"stateMutability":"nonpayable","type":"function"},{"inputs":[{"internalType":"bytes32","name":"","type":"bytes32"}],"name":"featureRequirements","outputs":[{"internalType":"uint256","name":"","type":"uint256"}],"stateMutability":"view","type":"function"},{"inputs":[{"internalType":"bytes32","name":"","type":"bytes32"}],"name":"featureUsage","outputs":[{"internalType":"uint256","name":"","type":"uint256"}],"stateMutability":"view","type":"function"},{"inputs":[],"name":"getAllFeatureRequirements","outputs":[{"internalType":"bytes32[]","name":"features","type":"bytes32[]"},{"internalType":"uint256[]","name":"requirements","type":"uint256[]"}],"stateMutability":"view","type":"function"},{"inputs":[{"internalType":"bytes32","name":"feature","type":"bytes32"}],"name":"getFeatureRequirement","outputs":[{"internalType":"uint256","name":"requirement","type":"uint256"}],"stateMutability":"view","type":"function"},{"inputs":[],"name":"getStats","outputs":[{"internalType":"uint256","name":"totalSupply","type":"uint256"},{"internalType":"uint256","name":"burnedAmount","type":"uint256"},{"internalType":"uint256","name":"burnCount","type":"uint256"},{"internalType":"uint256","name":"revenueForBurns","type":"uint256"},{"internalType":"uint256","name":"nextBurnTime","type":"uint256"}],"stateMutability":"view","type":"function"},{"inputs":[{"internalType":"address","name":"user","type":"address"}],"name":"getUserStatus","outputs":[{"internalType":"uint256","name":"balance","type":"uint256"},{"internalType":"bytes32[]","name":"accessibleFeatures","type":"bytes32[]"}],"stateMutability":"view","type":"function"},{"inputs":[{"internalType":"address","name":"user","type":"address"},{"internalType":"bytes32","name":"feature","type":"bytes32"}],"name":"grantPermanentAccess","outputs":[],"stateMutability":"nonpayable","type":"function"},{"inputs":[{"internalType":"address","name":"user","type":"address"},{"internalType":"bytes32","name":"feature","type":"bytes32"},{"internalType":"uint256","name":"duration","type":"uint256"}],"name":"grantTemporaryAccess","outputs":[],"stateMutability":"nonpayable","type":"function"},{"inputs":[],"name":"lastBurnTime","outputs":[{"internalType":"uint256","name":"","type":"uint256"}],"stateMutability":"view","type":"function"},{"inputs":[],"name":"owner","outputs":[{"internalType":"address","name":"","type":"address"}],"stateMutability":"view","type":"function"},{"inputs":[],"name":"pause","outputs":[],"stateMutability":"nonpayable","type":"function"},{"inputs":[],"name":"paused","outputs":[{"internalType":"bool","name":"","type":"bool"}],"stateMutability":"view","type":"function"},{"inputs":[{"internalType":"address","name":"","type":"address"},{"internalType":"bytes32","name":"","type":"bytes32"}],"name":"permanentAccess","outputs":[{"internalType":"bool","name":"","type":"bool"}],"stateMutability":"view","type":"function"},{"inputs":[],"name":"renounceOwnership","outputs":[],"stateMutability":"nonpayable","type":"function"},{"inputs":[{"internalType":"uint256","name":"newPercentage","type":"uint256"}],"name":"setBurnPercentage","outputs":[],"stateMutability":"nonpayable","type":"function"},{"inputs":[{"internalType":"bytes32","name":"feature","type":"bytes32"},{"internalType":"uint256","name":"requirement","type":"uint256"}],"name":"setFeatureRequirement","outputs":[],"stateMutability":"nonpayable","type":"function"},{"inputs":[{"internalType":"uint256","name":"amount","type":"uint256"},{"internalType":"string","name":"reason","type":"string"}],"name":"strategicBurn","outputs":[],"stateMutability":"nonpayable","type":"function"},{"inputs":[{"internalType":"address","name":"","type":"address"},{"internalType":"bytes32","name":"","type":"bytes32"}],"name":"temporaryAccess","outputs":[{"internalType":"uint256","name":"","type":"uint256"}],"stateMutability":"view","type":"function"},{"inputs":[],"name":"timeUntilNextBurn","outputs":[{"internalType":"uint256","name":"","type":"uint256"}],"stateMutability":"view","type":"function"},{"inputs":[],"name":"totalBurned","outputs":[{"internalType":"uint256","name":"","type":"uint256"}],"stateMutability":"view","type":"function"},{"inputs":[],"name":"totalRevenue","outputs":[{"internalType":"uint256","name":"","type":"uint256"}],"stateMutability":"view","type":"function"},{"inputs":[{"internalType":"address","name":"newOwner","type":"address"}],"name":"transferOwnership","outputs":[],"stateMutability":"nonpayable","type":"function"},{"inputs":[],"name":"unpause","outputs":[],"stateMutability":"nonpayable","type":"function"},{"inputs":[{"internalType":"bytes32","name":"feature","type":"bytes32"}],"name":"useFeature","outputs":[],"stateMutability":"nonpayable","type":"function"},{"inputs":[{"internalType":"address","name":"","type":"address"},{"internalType":"bytes32","name":"","type":"bytes32"}],"name":"userFeatureUsage","outputs":[{"internalType":"uint256","name":"","type":"uint256"}],"stateMutability":"view","type":"function"}],"evm":{"bytecode":{"linkReferences":{},"object":"608060405234801561001057600080fd5b506001600055338061003c57604051631e4fbdf760e01b81526000600482015260240160405180910390fd5b6100458161019f565b5060026020526a295be96e640669720000007f66eddad44c93dd0558e1003b01a4e0f295d66be36ce25c2ca252d535d56dceae8190556a7c13bc4b2c133c560000007fcdd2e53eeaf18ec5f38f57f24026cf06926c90ab44b092680971dd3e46437b01556a18d0bf423c03d8de0000007ffc99c49b7444705c10654f3cc1d41b5b0810f48a0bfea128a73937bf08da6386556a52b7d2dcc80cd2e40000007f1908de9901f837e34fbd66076487da0e278c4f6ec97e479cd8006b0440ced667556acecb8f27f4200f3a0000007f5b5e93bd05d85460aa89d9924e0bbf0cd7476e620e1c59f2fc9e174eb48dd2c6557f65dd133504022a712608e61601c53ce7b6e8fe103bef5f65900f556e5dfe4724556a1d9a5c17dcdd5c1c1bdc9d60aa1b6000526b019d971e4fe8401e740000007f37cb908cb033b4672c1ca0dff40065e9d12bc04fd3d71af05e8343f92c7f6ab05542600a556101f1565b600180546001600160a01b038381166001600160a01b0319831681179093556040519116919082907f8be0079c531659141344cd1fd0a4f28419497f9722a3daafe3b4186f6b6457e090600090a35050565b611b7b806102006000396000f3fe608060405234801561001057600080fd5b506004361061021c5760003560e01c806395ccea6711610125578063d02fd823116100ad578063e30674491161007c578063e3067449146104cb578063ea0d5dcd146104d4578063eee1e7e5146104f5578063f2fde38b146104fd578063fccc28131461051057600080fd5b8063d02fd82314610487578063d42cda581461048f578063d89135cd146104af578063e001bfbe146104b857600080fd5b8063bf2d9e0b116100f4578063bf2d9e0b146103e2578063c3f0d327146103eb578063c59d4847146103fe578063c9715a2f1461042e578063cc58bcdf1461045957600080fd5b806395ccea67146103985780639649b910146103ab578063ad8ea4b6146103b4578063bda064eb146103c757600080fd5b80635c975abb116101a85780637461f24a116101775780637461f24a1461033b5780637b1648e21461034e5780638456cb5914610358578063854ca169146103605780638da5cb5b1461037357600080fd5b80635c975abb146102fa5780635ca974a71461031857806363ec512d14610320578063715018a61461033357600080fd5b806337f9a42f116101ef57806337f9a42f146102965780633b660aaa146102b65780633f4ba83a146102bf57806340dd0f70146102c75780635a1ab780146102f257600080fd5b80630a43948e1461022157806313ae89721461023657806323409a281461025557806328c582a314610268575b600080fd5b61023461022f3660046117a3565b610519565b005b61023e610572565b60405161024c929190611800565b60405180910390f35b610234610263366004611857565b610780565b610288610276366004611857565b60009081526002602052604090205490565b60405190815260200161024c565b6102886102a4366004611857565b60026020526000908152604090205481565b61028860065481565b6102346108d7565b6102886102d536600461188c565b600460209081526000928352604080842090915290825290205481565b6102886108e9565b600154600160a01b900460ff165b604051901515815260200161024c565b61030861091e565b61023461032e366004611857565b610947565b6102346109a1565b61030861034936600461188c565b6109b3565b6102886276a70081565b610234610ab4565b61023461036e3660046118cc565b610ac4565b6001546001600160a01b03165b6040516001600160a01b03909116815260200161024c565b6102346103a636600461188c565b610bbc565b6102886109c481565b6102346103c236600461188c565b610c9f565b61038073746042147240304098c837563aaec0f671881b0781565b61028860095481565b6102346103f9366004611857565b610d01565b610406610d4f565b604080519586526020860194909452928401919091526060830152608082015260a00161024c565b61028861043c36600461188c565b600860209081526000928352604080842090915290825290205481565b61030861046736600461188c565b600360209081526000928352604080842090915290825290205460ff1681565b610234610d87565b61028861049d366004611857565b60076020526000908152604090205481565b61028860055481565b6102346104c6366004611987565b6110dd565b610288600a5481565b6104e76104e23660046119ba565b61114d565b60405161024c9291906119dc565b610288611571565b61023461050b3660046119ba565b6115d2565b61038061dead81565b61052161160d565b600082815260026020526040908190208290555182907fc628b3cd4daad3e8dcbb2074db3f9716becc87d652d843c4447064f2e9f9dd42906105669084815260200190565b60405180910390a25050565b60408051600780825261010082019092526060918291906020820160e0803683375050604080516007808252610100820190925292945090506020820160e080368337019050509050707072656d69756d5f616e616c797469637360781b826000815181106105e3576105e36119fd565b60200260200101818152505070637573746f6d5f6d696c6573746f6e657360781b82600181518110610617576106176119fd565b6020026020010181815250506f1c1c9a5bdc9a5d1e57dcdd5c1c1bdc9d60821b8260028151811061064a5761064a6119fd565b6020026020010181815250506f616476616e6365645f6a6f75726e657960801b8260038151811061067d5761067d6119fd565b602002602001018181525050696170695f61636365737360b01b826004815181106106aa576106aa6119fd565b6020026020010181815250506b6561726c795f61636365737360a01b826005815181106106d9576106d96119fd565b6020026020010181815250506a1d9a5c17dcdd5c1c1bdc9d60aa1b82600681518110610707576107076119fd565b60200260200101818152505060005b825181101561077b5760026000848381518110610735576107356119fd565b602002602001015181526020019081526020016000205482828151811061075e5761075e6119fd565b60209081029190910101528061077381611a29565b915050610716565b509091565b61078861163a565b610790611664565b604051633a30f92560e11b8152336004820152602481018290523090637461f24a90604401602060405180830381865afa1580156107d2573d6000803e3d6000fd5b505050506040513d601f19601f820116820180604052508101906107f69190611a42565b6108535760405162461bcd60e51b8152602060048201526024808201527f496e73756666696369656e7420534f4c41522062616c616e6365206f722061636044820152636365737360e01b60648201526084015b60405180910390fd5b600081815260076020526040812080549161086d83611a29565b9091555050336000908152600860209081526040808320848452909152812080549161089883611a29565b9091555050604051819033907f99eb89a418a1671959263204b23efbfd9f0213f778a5138d4de28592e6371bd790600090a36108d46001600055565b50565b6108df61160d565b6108e761168f565b565b6000806276a700600a546108fd9190611a64565b905080421061090e57600091505090565b6109184282611a77565b91505090565b60006276a700600a546109319190611a64565b421015801561094257506000600954115b905090565b61094f61160d565b80600960008282546109619190611a64565b9091555050604080518281523360208201527f49e0259d970ee909725cdedb7db23d64059624e6181575b9dd0fc7092f4aafcc910160405180910390a150565b6109a961160d565b6108e760006116e4565b6001600160a01b038216600090815260036020908152604080832084845290915281205460ff16156109e757506001610aae565b6001600160a01b0383166000908152600460209081526040808320858452909152902054421015610a1a57506001610aae565b6040516370a0823160e01b81526001600160a01b038416600482015260009073746042147240304098c837563aaec0f671881b07906370a0823190602401602060405180830381865afa158015610a75573d6000803e3d6000fd5b505050506040513d601f19601f82011682018060405250810190610a999190611a8a565b60008481526002602052604090205411159150505b92915050565b610abc61160d565b6108e7611736565b610acc61160d565b6040516323b872dd60e01b815233600482015261dead60248201526044810183905273746042147240304098c837563aaec0f671881b07906323b872dd906064016020604051808303816000875af1158015610b2c573d6000803e3d6000fd5b505050506040513d601f19601f82011682018060405250810190610b509190611a42565b508160056000828254610b639190611a64565b909155505060068054906000610b7883611a29565b91905055507fd92408cbc24732a9457f996472dcdfd7723e5b548a1f0c6991845f2609a719db828233604051610bb093929190611aa3565b60405180910390a15050565b610bc461160d565b73746042147240304098c837563aaec0f671881b06196001600160a01b03831601610c295760405162461bcd60e51b815260206004820152601560248201527421b0b73737ba103bb4ba34323930bb9029a7a620a960591b604482015260640161084a565b60405163a9059cbb60e01b8152336004820152602481018290526001600160a01b0383169063a9059cbb906044016020604051808303816000875af1158015610c76573d6000803e3d6000fd5b505050506040513d601f19601f82011682018060405250810190610c9a9190611a42565b505050565b610ca761160d565b6001600160a01b0382166000818152600360209081526040808320858452909152808220805460ff19166001179055518392917f722462de87a2f02b3af39c8fb4889409a7978b8bdeaec9f052fdc434ea996f9b91a35050565b610d0961160d565b6113888111156108d45760405162461bcd60e51b815260206004820152601160248201527043616e6e6f74206578636565642035302560781b604482015260640161084a565b600554600654600954600a546c01431e0fae6d7217caa000000093929190600090610d7e906276a70090611a64565b90509091929394565b610d8f61163a565b6276a700600a54610da09190611a64565b421015610def5760405162461bcd60e51b815260206004820152601c60248201527f546f6f206561726c7920666f7220717561727465726c79206275726e00000000604482015260640161084a565b600060095411610e365760405162461bcd60e51b81526020600482015260126024820152712737903932bb32b73ab2903a3790313ab93760711b604482015260640161084a565b6000610e40611571565b905060008111610e925760405162461bcd60e51b815260206004820152601b60248201527f4e6f20534f4c415220617661696c61626c6520666f72206275726e0000000000604482015260640161084a565b6040516370a0823160e01b8152306004820152819073746042147240304098c837563aaec0f671881b07906370a0823190602401602060405180830381865afa158015610ee3573d6000803e3d6000fd5b505050506040513d601f19601f82011682018060405250810190610f079190611a8a565b10610f905760405163a9059cbb60e01b815261dead60048201526024810182905273746042147240304098c837563aaec0f671881b079063a9059cbb906044016020604051808303816000875af1158015610f66573d6000803e3d6000fd5b505050506040513d601f19601f82011682018060405250810190610f8a9190611a42565b50611037565b73746042147240304098c837563aaec0f671881b076323b872dd610fbc6001546001600160a01b031690565b6040516001600160e01b031960e084901b1681526001600160a01b03909116600482015261dead6024820152604481018490526064016020604051808303816000875af1158015611011573d6000803e3d6000fd5b505050506040513d601f19601f820116820180604052508101906110359190611a42565b505b80600560008282546110499190611a64565b90915550506006805490600061105e83611a29565b909155505042600a556000600955604080518281526060602082018190526016908201527528bab0b93a32b9363c903932bb32b73ab290313ab93760511b6080820152338183015290517fd92408cbc24732a9457f996472dcdfd7723e5b548a1f0c6991845f2609a719db9181900360a00190a1506108e76001600055565b6110e561160d565b6110ef8142611a64565b6001600160a01b0384166000818152600460209081526040808320878452825291829020939093555183815284927f4bf5367b54d86733931cbf6be0f2420776f4a453be9bd79ed2e9e849627dbd2a910160405180910390a3505050565b6040516370a0823160e01b81526001600160a01b038216600482015260009060609073746042147240304098c837563aaec0f671881b07906370a0823190602401602060405180830381865afa1580156111ab573d6000803e3d6000fd5b505050506040513d601f19601f820116820180604052508101906111cf9190611a8a565b6040805160078082526101008201909252919350600091906020820160e080368337019050509050707072656d69756d5f616e616c797469637360781b8160008151811061121f5761121f6119fd565b60200260200101818152505070637573746f6d5f6d696c6573746f6e657360781b81600181518110611253576112536119fd565b6020026020010181815250506f1c1c9a5bdc9a5d1e57dcdd5c1c1bdc9d60821b81600281518110611286576112866119fd565b6020026020010181815250506f616476616e6365645f6a6f75726e657960801b816003815181106112b9576112b96119fd565b602002602001018181525050696170695f61636365737360b01b816004815181106112e6576112e66119fd565b6020026020010181815250506b6561726c795f61636365737360a01b81600581518110611315576113156119fd565b6020026020010181815250506a1d9a5c17dcdd5c1c1bdc9d60aa1b81600681518110611343576113436119fd565b6020026020010181815250506000805b825181101561141d57306001600160a01b0316637461f24a8785848151811061137e5761137e6119fd565b60200260200101516040518363ffffffff1660e01b81526004016113b79291906001600160a01b03929092168252602082015260400190565b602060405180830381865afa1580156113d4573d6000803e3d6000fd5b505050506040513d601f19601f820116820180604052508101906113f89190611a42565b1561140b578161140781611a29565b9250505b8061141581611a29565b915050611353565b508067ffffffffffffffff811115611437576114376118b6565b604051908082528060200260200182016040528015611460578160200160208202803683370190505b5092506000805b835181101561156857306001600160a01b0316637461f24a88868481518110611492576114926119fd565b60200260200101516040518363ffffffff1660e01b81526004016114cb9291906001600160a01b03929092168252602082015260400190565b602060405180830381865afa1580156114e8573d6000803e3d6000fd5b505050506040513d601f19601f8201168201806040525081019061150c9190611a42565b1561155657838181518110611523576115236119fd565b602002602001015185838151811061153d5761153d6119fd565b60209081029190910101528161155281611a29565b9250505b8061156081611a29565b915050611467565b50505050915091565b60006009546000036115835750600090565b600069d3c21bcecceda1000000905060006127106109c46009546115a79190611b0c565b6115b19190611b23565b9050620f42406115c18383611b0c565b6115cb9190611b23565b9250505090565b6115da61160d565b6001600160a01b03811661160457604051631e4fbdf760e01b81526000600482015260240161084a565b6108d4816116e4565b6001546001600160a01b031633146108e75760405163118cdaa760e01b815233600482015260240161084a565b60026000540361165d57604051633ee5aeb560e01b815260040160405180910390fd5b6002600055565b600154600160a01b900460ff16156108e75760405163d93c066560e01b815260040160405180910390fd5b611697611779565b6001805460ff60a01b191690557f5db9ee0a495bf2e6ff9c91a7834c1ba4fdd244a5e8aa4e537bd38aeae4b073aa335b6040516001600160a01b03909116815260200160405180910390a1565b600180546001600160a01b038381166001600160a01b0319831681179093556040519116919082907f8be0079c531659141344cd1fd0a4f28419497f9722a3daafe3b4186f6b6457e090600090a35050565b61173e611664565b6001805460ff60a01b1916600160a01b1790557f62e78cea01bee320cd4e420270b5ea74000d11b0c9f74754ebdbfc544b05a2586116c73390565b600154600160a01b900460ff166108e757604051638dfc202b60e01b815260040160405180910390fd5b600080604083850312156117b657600080fd5b50508035926020909101359150565b600081518084526020808501945080840160005b838110156117f5578151875295820195908201906001016117d9565b509495945050505050565b60408152600061181360408301856117c5565b82810360208481019190915284518083528582019282019060005b8181101561184a5784518352938301939183019160010161182e565b5090979650505050505050565b60006020828403121561186957600080fd5b5035919050565b80356001600160a01b038116811461188757600080fd5b919050565b6000806040838503121561189f57600080fd5b6118a883611870565b946020939093013593505050565b634e487b7160e01b600052604160045260246000fd5b600080604083850312156118df57600080fd5b82359150602083013567ffffffffffffffff808211156118fe57600080fd5b818501915085601f83011261191257600080fd5b813581811115611924576119246118b6565b604051601f8201601f19908116603f0116810190838211818310171561194c5761194c6118b6565b8160405282815288602084870101111561196557600080fd5b8260208601602083013760006020848301015280955050505050509250929050565b60008060006060848603121561199c57600080fd5b6119a584611870565b95602085013595506040909401359392505050565b6000602082840312156119cc57600080fd5b6119d582611870565b9392505050565b8281526040602082015260006119f560408301846117c5565b949350505050565b634e487b7160e01b600052603260045260246000fd5b634e487b7160e01b600052601160045260246000fd5b600060018201611a3b57611a3b611a13565b5060010190565b600060208284031215611a5457600080fd5b815180151581146119d557600080fd5b80820180821115610aae57610aae611a13565b81810381811115610aae57610aae611a13565b600060208284031215611a9c57600080fd5b5051919050565b83815260006020606081840152845180606085015260005b81811015611ad757868101830151858201608001528201611abb565b5060008482016080908101919091526001600160a01b03959095166040850152601f01601f1916909201909201949350505050565b8082028115828204841417610aae57610aae611a13565b600082611b4057634e487b7160e01b600052601260045260246000fd5b50049056fea26469706673582212204330590d004bf9d4d12edddb1fde3c766a8e8470dc71052f0816e4e42b0a73e064736f6c63430008140033","opcodes":"PUSH1 0x80 PUSH1 0x40 MSTORE CALLVALUE DUP1 ISZERO PUSH2 0x10 JUMPI PUSH1 0x0 DUP1 REVERT JUMPDEST POP PUSH1 0x1 PUSH1 0x0 SSTORE CALLER DUP1 PUSH2 0x3C JUMPI PUSH1 0x40 MLOAD PUSH4 0x1E4FBDF7 PUSH1 0xE0 SHL DUP2 MSTORE PUSH1 0x0 PUSH1 0x4 DUP3 ADD MSTORE PUSH1 0x24 ADD PUSH1 0x40 MLOAD DUP1 SWAP2 SUB SWAP1 REVERT JUMPDEST PUSH2 0x45 DUP2 PUSH2 0x19F JUMP JUMPDEST POP PUSH1 0x2 PUSH1 0x20 MSTORE PUSH11 0x295BE96E64066972000000 PUSH32 0x66EDDAD44C93DD0558E1003B01A4E0F295D66BE36CE25C2CA252D535D56DCEAE DUP2 SWAP1 SSTORE PUSH11 0x7C13BC4B2C133C56000000 PUSH32 0xCDD2E53EEAF18EC5F38F57F24026CF06926C90AB44B092680971DD3E46437B01 SSTORE PUSH11 0x18D0BF423C03D8DE000000 PUSH32 0xFC99C49B7444705C10654F3CC1D41B5B0810F48A0BFEA128A73937BF08DA6386 SSTORE PUSH11 0x52B7D2DCC80CD2E4000000 PUSH32 0x1908DE9901F837E34FBD66076487DA0E278C4F6EC97E479CD8006B0440CED667 SSTORE PUSH11 0xCECB8F27F4200F3A000000 PUSH32 0x5B5E93BD05D85460AA89D9924E0BBF0CD7476E620E1C59F2FC9E174EB48DD2C6 SSTORE PUSH32 0x65DD133504022A712608E61601C53CE7B6E8FE103BEF5F65900F556E5DFE4724 SSTORE PUSH11 0x1D9A5C17DCDD5C1C1BDC9D PUSH1 0xAA SHL PUSH1 0x0 MSTORE PUSH12 0x19D971E4FE8401E74000000 PUSH32 0x37CB908CB033B4672C1CA0DFF40065E9D12BC04FD3D71AF05E8343F92C7F6AB0 SSTORE TIMESTAMP PUSH1 0xA SSTORE PUSH2 0x1F1 JUMP JUMPDEST PUSH1 0x1 DUP1 SLOAD PUSH1 0x1 PUSH1 0x1 PUSH1 0xA0 SHL SUB DUP4 DUP2 AND PUSH1 0x1 PUSH1 0x1 PUSH1 0xA0 SHL SUB NOT DUP4 AND DUP2 OR SWAP1 SWAP4 SSTORE PUSH1 0x40 MLOAD SWAP2 AND SWAP2 SWAP1 DUP3 SWAP1 PUSH32 0x8BE0079C531659141344CD1FD0A4F28419497F9722A3DAAFE3B4186F6B6457E0 SWAP1 PUSH1 0x0 SWAP1 LOG3 POP POP JUMP JUMPDEST PUSH2 0x1B7B DUP1 PUSH2 0x200 PUSH1 0x0 CODECOPY PUSH1 0x0 RETURN INVALID PUSH1 0x80 PUSH1 0x40 MSTORE CALLVALUE DUP1 ISZERO PUSH2 0x10 JUMPI PUSH1 0x0 DUP1 REVERT JUMPDEST POP PUSH1 0x4 CALLDATASIZE LT PUSH2 0x21C JUMPI PUSH1 0x0 CALLDATALOAD PUSH1 0xE0 SHR DUP1 PUSH4 0x95CCEA67 GT PUSH2 0x125 JUMPI DUP1 PUSH4 0xD02FD823 GT PUSH2 0xAD JUMPI DUP1 PUSH4 0xE3067449 GT PUSH2 0x7C JUMPI DUP1 PUSH4 0xE3067449 EQ PUSH2 0x4CB JUMPI DUP1 PUSH4 0xEA0D5DCD EQ PUSH2 0x4D4 JUMPI DUP1 PUSH4 0xEEE1E7E5 EQ PUSH2 0x4F5 JUMPI DUP1 PUSH4 0xF2FDE38B EQ PUSH2 0x4FD JUMPI DUP1 PUSH4 0xFCCC2813 EQ PUSH2 0x510 JUMPI PUSH1 0x0 DUP1 REVERT JUMPDEST DUP1 PUSH4 0xD02FD823 EQ PUSH2 0x487 JUMPI DUP1 PUSH4 0xD42CDA58 EQ PUSH2 0x48F JUMPI DUP1 PUSH4 0xD89135CD EQ PUSH2 0x4AF JUMPI DUP1 PUSH4 0xE001BFBE EQ PUSH2 0x4B8 JUMPI PUSH1 0x0 DUP1 REVERT JUMPDEST DUP1 PUSH4 0xBF2D9E0B GT PUSH2 0xF4 JUMPI DUP1 PUSH4 0xBF2D9E0B EQ PUSH2 0x3E2 JUMPI DUP1 PUSH4 0xC3F0D327 EQ PUSH2 0x3EB JUMPI DUP1 PUSH4 0xC59D4847 EQ PUSH2 0x3FE JUMPI DUP1 PUSH4 0xC9715A2F EQ PUSH2 0x42E JUMPI DUP1 PUSH4 0xCC58BCDF EQ PUSH2 0x459 JUMPI PUSH1 0x0 DUP1 REVERT JUMPDEST DUP1 PUSH4 0x95CCEA67 EQ PUSH2 0x398 JUMPI DUP1 PUSH4 0x9649B910 EQ PUSH2 0x3AB JUMPI DUP1 PUSH4 0xAD8EA4B6 EQ PUSH2 0x3B4 JUMPI DUP1 PUSH4 0xBDA064EB EQ PUSH2 0x3C7 JUMPI PUSH1 0x0 DUP1 REVERT JUMPDEST DUP1 PUSH4 0x5C975ABB GT PUSH2 0x1A8 JUMPI DUP1 PUSH4 0x7461F24A GT PUSH2 0x177 JUMPI DUP1 PUSH4 0x7461F24A EQ PUSH2 0x33B JUMPI DUP1 PUSH4 0x7B1648E2 EQ PUSH2 0x34E JUMPI DUP1 PUSH4 0x8456CB59 EQ PUSH2 0x358 JUMPI DUP1 PUSH4 0x854CA169 EQ PUSH2 0x360 JUMPI DUP1 PUSH4 0x8DA5CB5B EQ PUSH2 0x373 JUMPI PUSH1 0x0 DUP1 REVERT JUMPDEST DUP1 PUSH4 0x5C975ABB EQ PUSH2 0x2FA JUMPI DUP1 PUSH4 0x5CA974A7 EQ PUSH2 0x318 JUMPI DUP1 PUSH4 0x63EC512D EQ PUSH2 0x320 JUMPI DUP1 PUSH4 0x715018A6 EQ PUSH2 0x333 JUMPI PUSH1 0x0 DUP1 REVERT JUMPDEST DUP1 PUSH4 0x37F9A42F GT PUSH2 0x1EF JUMPI DUP1 PUSH4 0x37F9A42F EQ PUSH2 0x296 JUMPI DUP1 PUSH4 0x3B660AAA EQ PUSH2 0x2B6 JUMPI DUP1 PUSH4 0x3F4BA83A EQ PUSH2 0x2BF JUMPI DUP1 PUSH4 0x40DD0F70 EQ PUSH2 0x2C7 JUMPI DUP1 PUSH4 0x5A1AB780 EQ PUSH2 0x2F2 JUMPI PUSH1 0x0 DUP1 REVERT JUMPDEST DUP1 PUSH4 0xA43948E EQ PUSH2 0x221 JUMPI DUP1 PUSH4 0x13AE8972 EQ PUSH2 0x236 JUMPI DUP1 PUSH4 0x23409A28 EQ PUSH2 0x255 JUMPI DUP1 PUSH4 0x28C582A3 EQ PUSH2 0x268 JUMPI JUMPDEST PUSH1 0x0 DUP1 REVERT JUMPDEST PUSH2 0x234 PUSH2 0x22F CALLDATASIZE PUSH1 0x4 PUSH2 0x17A3 JUMP JUMPDEST PUSH2 0x519 JUMP JUMPDEST STOP JUMPDEST PUSH2 0x23E PUSH2 0x572 JUMP JUMPDEST PUSH1 0x40 MLOAD PUSH2 0x24C SWAP3 SWAP2 SWAP1 PUSH2 0x1800 JUMP JUMPDEST PUSH1 0x40 MLOAD DUP1 SWAP2 SUB SWAP1 RETURN JUMPDEST PUSH2 0x234 PUSH2 0x263 CALLDATASIZE PUSH1 0x4 PUSH2 0x1857 JUMP JUMPDEST PUSH2 0x780 JUMP JUMPDEST PUSH2 0x288 PUSH2 0x276 CALLDATASIZE PUSH1 0x4 PUSH2 0x1857 JUMP JUMPDEST PUSH1 0x0 SWAP1 DUP2 MSTORE PUSH1 0x2 PUSH1 0x20 MSTORE PUSH1 0x40 SWAP1 KECCAK256 SLOAD SWAP1 JUMP JUMPDEST PUSH1 0x40 MLOAD SWAP1 DUP2 MSTORE PUSH1 0x20 ADD PUSH2 0x24C JUMP JUMPDEST PUSH2 0x288 PUSH2 0x2A4 CALLDATASIZE PUSH1 0x4 PUSH2 0x1857 JUMP JUMPDEST PUSH1 0x2 PUSH1 0x20 MSTORE PUSH1 0x0 SWAP1 DUP2 MSTORE PUSH1 0x40 SWAP1 KECCAK256 SLOAD DUP2 JUMP JUMPDEST PUSH2 0x288 PUSH1 0x6 SLOAD DUP2 JUMP JUMPDEST PUSH2 0x234 PUSH2 0x8D7 JUMP JUMPDEST PUSH2 0x288 PUSH2 0x2D5 CALLDATASIZE PUSH1 0x4 PUSH2 0x188C JUMP JUMPDEST PUSH1 0x4 PUSH1 0x20 SWAP1 DUP2 MSTORE PUSH1 0x0 SWAP3 DUP4 MSTORE PUSH1 0x40 DUP1 DUP5 KECCAK256 SWAP1 SWAP2 MSTORE SWAP1 DUP3 MSTORE SWAP1 KECCAK256 SLOAD DUP2 JUMP JUMPDEST PUSH2 0x288 PUSH2 0x8E9 JUMP JUMPDEST PUSH1 0x1 SLOAD PUSH1 0x1 PUSH1 0xA0 SHL SWAP1 DIV PUSH1 0xFF AND JUMPDEST PUSH1 0x40 MLOAD SWAP1 ISZERO ISZERO DUP2 MSTORE PUSH1 0x20 ADD PUSH2 0x24C JUMP JUMPDEST PUSH2 0x308 PUSH2 0x91E JUMP JUMPDEST PUSH2 0x234 PUSH2 0x32E CALLDATASIZE PUSH1 0x4 PUSH2 0x1857 JUMP JUMPDEST PUSH2 0x947 JUMP JUMPDEST PUSH2 0x234 PUSH2 0x9A1 JUMP JUMPDEST PUSH2 0x308 PUSH2 0x349 CALLDATASIZE PUSH1 0x4 PUSH2 0x188C JUMP JUMPDEST PUSH2 0x9B3 JUMP JUMPDEST PUSH2 0x288 PUSH3 0x76A700 DUP2 JUMP JUMPDEST PUSH2 0x234 PUSH2 0xAB4 JUMP JUMPDEST PUSH2 0x234 PUSH2 0x36E CALLDATASIZE PUSH1 0x4 PUSH2 0x18CC JUMP JUMPDEST PUSH2 0xAC4 JUMP JUMPDEST PUSH1 0x1 SLOAD PUSH1 0x1 PUSH1 0x1 PUSH1 0xA0 SHL SUB AND JUMPDEST PUSH1 0x40 MLOAD PUSH1 0x1 PUSH1 0x1 PUSH1 0xA0 SHL SUB SWAP1 SWAP2 AND DUP2 MSTORE PUSH1 0x20 ADD PUSH2 0x24C JUMP JUMPDEST PUSH2 0x234 PUSH2 0x3A6 CALLDATASIZE PUSH1 0x4 PUSH2 0x188C JUMP JUMPDEST PUSH2 0xBBC JUMP JUMPDEST PUSH2 0x288 PUSH2 0x9C4 DUP2 JUMP JUMPDEST PUSH2 0x234 PUSH2 0x3C2 CALLDATASIZE PUSH1 0x4 PUSH2 0x188C JUMP JUMPDEST PUSH2 0xC9F JUMP JUMPDEST PUSH2 0x380 PUSH20 0x746042147240304098C837563AAEC0F671881B07 DUP2 JUMP JUMPDEST PUSH2 0x288 PUSH1 0x9 SLOAD DUP2 JUMP JUMPDEST PUSH2 0x234 PUSH2 0x3F9 CALLDATASIZE PUSH1 0x4 PUSH2 0x1857 JUMP JUMPDEST PUSH2 0xD01 JUMP JUMPDEST PUSH2 0x406 PUSH2 0xD4F JUMP JUMPDEST PUSH1 0x40 DUP1 MLOAD SWAP6 DUP7 MSTORE PUSH1 0x20 DUP7 ADD SWAP5 SWAP1 SWAP5 MSTORE SWAP3 DUP5 ADD SWAP2 SWAP1 SWAP2 MSTORE PUSH1 0x60 DUP4 ADD MSTORE PUSH1 0x80 DUP3 ADD MSTORE PUSH1 0xA0 ADD PUSH2 0x24C JUMP JUMPDEST PUSH2 0x288 PUSH2 0x43C CALLDATASIZE PUSH1 0x4 PUSH2 0x188C JUMP JUMPDEST PUSH1 0x8 PUSH1 0x20 SWAP1 DUP2 MSTORE PUSH1 0x0 SWAP3 DUP4 MSTORE PUSH1 0x40 DUP1 DUP5 KECCAK256 SWAP1 SWAP2 MSTORE SWAP1 DUP3 MSTORE SWAP1 KECCAK256 SLOAD DUP2 JUMP JUMPDEST PUSH2 0x308 PUSH2 0x467 CALLDATASIZE PUSH1 0x4 PUSH2 0x188C JUMP JUMPDEST PUSH1 0x3 PUSH1 0x20 SWAP1 DUP2 MSTORE PUSH1 0x0 SWAP3 DUP4 MSTORE PUSH1 0x40 DUP1 DUP5 KECCAK256 SWAP1 SWAP2 MSTORE SWAP1 DUP3 MSTORE SWAP1 KECCAK256 SLOAD PUSH1 0xFF AND DUP2 JUMP JUMPDEST PUSH2 0x234 PUSH2 0xD87 JUMP JUMPDEST PUSH2 0x288 PUSH2 0x49D CALLDATASIZE PUSH1 0x4 PUSH2 0x1857 JUMP JUMPDEST PUSH1 0x7 PUSH1 0x20 MSTORE PUSH1 0x0 SWAP1 DUP2 MSTORE PUSH1 0x40 SWAP1 KECCAK256 SLOAD DUP2 JUMP JUMPDEST PUSH2 0x288 PUSH1 0x5 SLOAD DUP2 JUMP JUMPDEST PUSH2 0x234 PUSH2 0x4C6 CALLDATASIZE PUSH1 0x4 PUSH2 0x1987 JUMP JUMPDEST PUSH2 0x10DD JUMP JUMPDEST PUSH2 0x288 PUSH1 0xA SLOAD DUP2 JUMP JUMPDEST PUSH2 0x4E7 PUSH2 0x4E2 CALLDATASIZE PUSH1 0x4 PUSH2 0x19BA JUMP JUMPDEST PUSH2 0x114D JUMP JUMPDEST PUSH1 0x40 MLOAD PUSH2 0x24C SWAP3 SWAP2 SWAP1 PUSH2 0x19DC JUMP JUMPDEST PUSH2 0x288 PUSH2 0x1571 JUMP JUMPDEST PUSH2 0x234 PUSH2 0x50B CALLDATASIZE PUSH1 0x4 PUSH2 0x19BA JUMP JUMPDEST PUSH2 0x15D2 JUMP JUMPDEST PUSH2 0x380 PUSH2 0xDEAD DUP2 JUMP JUMPDEST PUSH2 0x521 PUSH2 0x160D JUMP JUMPDEST PUSH1 0x0 DUP3 DUP2 MSTORE PUSH1 0x2 PUSH1 0x20 MSTORE PUSH1 0x40 SWAP1 DUP2 SWAP1 KECCAK256 DUP3 SWAP1 SSTORE MLOAD DUP3 SWAP1 PUSH32 0xC628B3CD4DAAD3E8DCBB2074DB3F9716BECC87D652D843C4447064F2E9F9DD42 SWAP1 PUSH2 0x566 SWAP1 DUP5 DUP2 MSTORE PUSH1 0x20 ADD SWAP1 JUMP JUMPDEST PUSH1 0x40 MLOAD DUP1 SWAP2 SUB SWAP1 LOG2 POP POP JUMP JUMPDEST PUSH1 0x40 DUP1 MLOAD PUSH1 0x7 DUP1 DUP3 MSTORE PUSH2 0x100 DUP3 ADD SWAP1 SWAP3 MSTORE PUSH1 0x60 SWAP2 DUP3 SWAP2 SWAP1 PUSH1 0x20 DUP3 ADD PUSH1 0xE0 DUP1 CALLDATASIZE DUP4 CALLDATACOPY POP POP PUSH1 0x40 DUP1 MLOAD PUSH1 0x7 DUP1 DUP3 MSTORE PUSH2 0x100 DUP3 ADD SWAP1 SWAP3 MSTORE SWAP3 SWAP5 POP SWAP1 POP PUSH1 0x20 DUP3 ADD PUSH1 0xE0 DUP1 CALLDATASIZE DUP4 CALLDATACOPY ADD SWAP1 POP POP SWAP1 POP PUSH17 0x7072656D69756D5F616E616C7974696373 PUSH1 0x78 SHL DUP3 PUSH1 0x0 DUP2 MLOAD DUP2 LT PUSH2 0x5E3 JUMPI PUSH2 0x5E3 PUSH2 0x19FD JUMP JUMPDEST PUSH1 0x20 MUL PUSH1 0x20 ADD ADD DUP2 DUP2 MSTORE POP POP PUSH17 0x637573746F6D5F6D696C6573746F6E6573 PUSH1 0x78 SHL DUP3 PUSH1 0x1 DUP2 MLOAD DUP2 LT PUSH2 0x617 JUMPI PUSH2 0x617 PUSH2 0x19FD JUMP JUMPDEST PUSH1 0x20 MUL PUSH1 0x20 ADD ADD DUP2 DUP2 MSTORE POP POP PUSH16 0x1C1C9A5BDC9A5D1E57DCDD5C1C1BDC9D PUSH1 0x82 SHL DUP3 PUSH1 0x2 DUP2 MLOAD DUP2 LT PUSH2 0x64A JUMPI PUSH2 0x64A PUSH2 0x19FD JUMP JUMPDEST PUSH1 0x20 MUL PUSH1 0x20 ADD ADD DUP2 DUP2 MSTORE POP POP PUSH16 0x616476616E6365645F6A6F75726E6579 PUSH1 0x80 SHL DUP3 PUSH1 0x3 DUP2 MLOAD DUP2 LT PUSH2 0x67D JUMPI PUSH2 0x67D PUSH2 0x19FD JUMP JUMPDEST PUSH1 0x20 MUL PUSH1 0x20 ADD ADD DUP2 DUP2 MSTORE POP POP PUSH10 0x6170695F616363657373 PUSH1 0xB0 SHL DUP3 PUSH1 0x4 DUP2 MLOAD DUP2 LT PUSH2 0x6AA JUMPI PUSH2 0x6AA PUSH2 0x19FD JUMP JUMPDEST PUSH1 0x20 MUL PUSH1 0x20 ADD ADD DUP2 DUP2 MSTORE POP POP PUSH12 0x6561726C795F616363657373 PUSH1 0xA0 SHL DUP3 PUSH1 0x5 DUP2 MLOAD DUP2 LT PUSH2 0x6D9 JUMPI PUSH2 0x6D9 PUSH2 0x19FD JUMP JUMPDEST PUSH1 0x20 MUL PUSH1 0x20 ADD ADD DUP2 DUP2 MSTORE POP POP PUSH11 0x1D9A5C17DCDD5C1C1BDC9D PUSH1 0xAA SHL DUP3 PUSH1 0x6 DUP2 MLOAD DUP2 LT PUSH2 0x707 JUMPI PUSH2 0x707 PUSH2 0x19FD JUMP JUMPDEST PUSH1 0x20 MUL PUSH1 0x20 ADD ADD DUP2 DUP2 MSTORE POP POP PUSH1 0x0 JUMPDEST DUP3 MLOAD DUP2 LT ISZERO PUSH2 0x77B JUMPI PUSH1 0x2 PUSH1 0x0 DUP5 DUP4 DUP2 MLOAD DUP2 LT PUSH2 0x735 JUMPI PUSH2 0x735 PUSH2 0x19FD JUMP JUMPDEST PUSH1 0x20 MUL PUSH1 0x20 ADD ADD MLOAD DUP2 MSTORE PUSH1 0x20 ADD SWAP1 DUP2 MSTORE PUSH1 0x20 ADD PUSH1 0x0 KECCAK256 SLOAD DUP3 DUP3 DUP2 MLOAD DUP2 LT PUSH2 0x75E JUMPI PUSH2 0x75E PUSH2 0x19FD JUMP JUMPDEST PUSH1 0x20 SWAP1 DUP2 MUL SWAP2 SWAP1 SWAP2 ADD ADD MSTORE DUP1 PUSH2 0x773 DUP2 PUSH2 0x1A29 JUMP JUMPDEST SWAP2 POP POP PUSH2 0x716 JUMP JUMPDEST POP SWAP1 SWAP2 JUMP JUMPDEST PUSH2 0x788 PUSH2 0x163A JUMP JUMPDEST PUSH2 0x790 PUSH2 0x1664 JUMP JUMPDEST PUSH1 0x40 MLOAD PUSH4 0x3A30F925 PUSH1 0xE1 SHL DUP2 MSTORE CALLER PUSH1 0x4 DUP3 ADD MSTORE PUSH1 0x24 DUP2 ADD DUP3 SWAP1 MSTORE ADDRESS SWAP1 PUSH4 0x7461F24A SWAP1 PUSH1 0x44 ADD PUSH1 0x20 PUSH1 0x40 MLOAD DUP1 DUP4 SUB DUP2 DUP7 GAS STATICCALL ISZERO DUP1 ISZERO PUSH2 0x7D2 JUMPI RETURNDATASIZE PUSH1 0x0 DUP1 RETURNDATACOPY RETURNDATASIZE PUSH1 0x0 REVERT JUMPDEST POP POP POP POP PUSH1 0x40 MLOAD RETURNDATASIZE PUSH1 0x1F NOT PUSH1 0x1F DUP3 ADD AND DUP3 ADD DUP1 PUSH1 0x40 MSTORE POP DUP2 ADD SWAP1 PUSH2 0x7F6 SWAP2 SWAP1 PUSH2 0x1A42 JUMP JUMPDEST PUSH2 0x853 JUMPI PUSH1 0x40 MLOAD PUSH3 0x461BCD PUSH1 0xE5 SHL DUP2 MSTORE PUSH1 0x20 PUSH1 0x4 DUP3 ADD MSTORE PUSH1 0x24 DUP1 DUP3 ADD MSTORE PUSH32 0x496E73756666696369656E7420534F4C41522062616C616E6365206F72206163 PUSH1 0x44 DUP3 ADD MSTORE PUSH4 0x63657373 PUSH1 0xE0 SHL PUSH1 0x64 DUP3 ADD MSTORE PUSH1 0x84 ADD JUMPDEST PUSH1 0x40 MLOAD DUP1 SWAP2 SUB SWAP1 REVERT JUMPDEST PUSH1 0x0 DUP2 DUP2 MSTORE PUSH1 0x7 PUSH1 0x20 MSTORE PUSH1 0x40 DUP2 KECCAK256 DUP1 SLOAD SWAP2 PUSH2 0x86D DUP4 PUSH2 0x1A29 JUMP JUMPDEST SWAP1 SWAP2 SSTORE POP POP CALLER PUSH1 0x0 SWAP1 DUP2 MSTORE PUSH1 0x8 PUSH1 0x20 SWAP1 DUP2 MSTORE PUSH1 0x40 DUP1 DUP4 KECCAK256 DUP5 DUP5 MSTORE SWAP1 SWAP2 MSTORE DUP2 KECCAK256 DUP1 SLOAD SWAP2 PUSH2 0x898 DUP4 PUSH2 0x1A29 JUMP JUMPDEST SWAP1 SWAP2 SSTORE POP POP PUSH1 0x40 MLOAD DUP2 SWAP1 CALLER SWAP1 PUSH32 0x99EB89A418A1671959263204B23EFBFD9F0213F778A5138D4DE28592E6371BD7 SWAP1 PUSH1 0x0 SWAP1 LOG3 PUSH2 0x8D4 PUSH1 0x1 PUSH1 0x0 SSTORE JUMP JUMPDEST POP JUMP JUMPDEST PUSH2 0x8DF PUSH2 0x160D JUMP JUMPDEST PUSH2 0x8E7 PUSH2 0x168F JUMP JUMPDEST JUMP JUMPDEST PUSH1 0x0 DUP1 PUSH3 0x76A700 PUSH1 0xA SLOAD PUSH2 0x8FD SWAP2 SWAP1 PUSH2 0x1A64 JUMP JUMPDEST SWAP1 POP DUP1 TIMESTAMP LT PUSH2 0x90E JUMPI PUSH1 0x0 SWAP2 POP POP SWAP1 JUMP JUMPDEST PUSH2 0x918 TIMESTAMP DUP3 PUSH2 0x1A77 JUMP JUMPDEST SWAP2 POP POP SWAP1 JUMP JUMPDEST PUSH1 0x0 PUSH3 0x76A700 PUSH1 0xA SLOAD PUSH2 0x931 SWAP2 SWAP1 PUSH2 0x1A64 JUMP JUMPDEST TIMESTAMP LT ISZERO DUP1 ISZERO PUSH2 0x942 JUMPI POP PUSH1 0x0 PUSH1 0x9 SLOAD GT JUMPDEST SWAP1 POP SWAP1 JUMP JUMPDEST PUSH2 0x94F PUSH2 0x160D JUMP JUMPDEST DUP1 PUSH1 0x9 PUSH1 0x0 DUP3 DUP3 SLOAD PUSH2 0x961 SWAP2 SWAP1 PUSH2 0x1A64 JUMP JUMPDEST SWAP1 SWAP2 SSTORE POP POP PUSH1 0x40 DUP1 MLOAD DUP3 DUP2 MSTORE CALLER PUSH1 0x20 DUP3 ADD MSTORE PUSH32 0x49E0259D970EE909725CDEDB7DB23D64059624E6181575B9DD0FC7092F4AAFCC SWAP2 ADD PUSH1 0x40 MLOAD DUP1 SWAP2 SUB SWAP1 LOG1 POP JUMP JUMPDEST PUSH2 0x9A9 PUSH2 0x160D JUMP JUMPDEST PUSH2 0x8E7 PUSH1 0x0 PUSH2 0x16E4 JUMP JUMPDEST PUSH1 0x1 PUSH1 0x1 PUSH1 0xA0 SHL SUB DUP3 AND PUSH1 0x0 SWAP1 DUP2 MSTORE PUSH1 0x3 PUSH1 0x20 SWAP1 DUP2 MSTORE PUSH1 0x40 DUP1 DUP4 KECCAK256 DUP5 DUP5 MSTORE SWAP1 SWAP2 MSTORE DUP2 KECCAK256 SLOAD PUSH1 0xFF AND ISZERO PUSH2 0x9E7 JUMPI POP PUSH1 0x1 PUSH2 0xAAE JUMP JUMPDEST PUSH1 0x1 PUSH1 0x1 PUSH1 0xA0 SHL SUB DUP4 AND PUSH1 0x0 SWAP1 DUP2 MSTORE PUSH1 0x4 PUSH1 0x20 SWAP1 DUP2 MSTORE PUSH1 0x40 DUP1 DUP4 KECCAK256 DUP6 DUP5 MSTORE SWAP1 SWAP2 MSTORE SWAP1 KECCAK256 SLOAD TIMESTAMP LT ISZERO PUSH2 0xA1A JUMPI POP PUSH1 0x1 PUSH2 0xAAE JUMP JUMPDEST PUSH1 0x40 MLOAD PUSH4 0x70A08231 PUSH1 0xE0 SHL DUP2 MSTORE PUSH1 0x1 PUSH1 0x1 PUSH1 0xA0 SHL SUB DUP5 AND PUSH1 0x4 DUP3 ADD MSTORE PUSH1 0x0 SWAP1 PUSH20 0x746042147240304098C837563AAEC0F671881B07 SWAP1 PUSH4 0x70A08231 SWAP1 PUSH1 0x24 ADD PUSH1 0x20 PUSH1 0x40 MLOAD DUP1 DUP4 SUB DUP2 DUP7 GAS STATICCALL ISZERO DUP1 ISZERO PUSH2 0xA75 JUMPI RETURNDATASIZE PUSH1 0x0 DUP1 RETURNDATACOPY RETURNDATASIZE PUSH1 0x0 REVERT JUMPDEST POP POP POP POP PUSH1 0x40 MLOAD RETURNDATASIZE PUSH1 0x1F NOT PUSH1 0x1F DUP3 ADD AND DUP3 ADD DUP1 PUSH1 0x40 MSTORE POP DUP2 ADD SWAP1 PUSH2 0xA99 SWAP2 SWAP1 PUSH2 0x1A8A JUMP JUMPDEST PUSH1 0x0 DUP5 DUP2 MSTORE PUSH1 0x2 PUSH1 0x20 MSTORE PUSH1 0x40 SWAP1 KECCAK256 SLOAD GT ISZERO SWAP2 POP POP JUMPDEST SWAP3 SWAP2 POP POP JUMP JUMPDEST PUSH2 0xABC PUSH2 0x160D JUMP JUMPDEST PUSH2 0x8E7 PUSH2 0x1736 JUMP JUMPDEST PUSH2 0xACC PUSH2 0x160D JUMP JUMPDEST PUSH1 0x40 MLOAD PUSH4 0x23B872DD PUSH1 0xE0 SHL DUP2 MSTORE CALLER PUSH1 0x4 DUP3 ADD MSTORE PUSH2 0xDEAD PUSH1 0x24 DUP3 ADD MSTORE PUSH1 0x44 DUP2 ADD DUP4 SWAP1 MSTORE PUSH20 0x746042147240304098C837563AAEC0F671881B07 SWAP1 PUSH4 0x23B872DD SWAP1 PUSH1 0x64 ADD PUSH1 0x20 PUSH1 0x40 MLOAD DUP1 DUP4 SUB DUP2 PUSH1 0x0 DUP8 GAS CALL ISZERO DUP1 ISZERO PUSH2 0xB2C JUMPI RETURNDATASIZE PUSH1 0x0 DUP1 RETURNDATACOPY RETURNDATASIZE PUSH1 0x0 REVERT JUMPDEST POP POP POP POP PUSH1 0x40 MLOAD RETURNDATASIZE PUSH1 0x1F NOT PUSH1 0x1F DUP3 ADD AND DUP3 ADD DUP1 PUSH1 0x40 MSTORE POP DUP2 ADD SWAP1 PUSH2 0xB50 SWAP2 SWAP1 PUSH2 0x1A42 JUMP JUMPDEST POP DUP2 PUSH1 0x5 PUSH1 0x0 DUP3 DUP3 SLOAD PUSH2 0xB63 SWAP2 SWAP1 PUSH2 0x1A64 JUMP JUMPDEST SWAP1 SWAP2 SSTORE POP POP PUSH1 0x6 DUP1 SLOAD SWAP1 PUSH1 0x0 PUSH2 0xB78 DUP4 PUSH2 0x1A29 JUMP JUMPDEST SWAP2 SWAP1 POP SSTORE POP PUSH32 0xD92408CBC24732A9457F996472DCDFD7723E5B548A1F0C6991845F2609A719DB DUP3 DUP3 CALLER PUSH1 0x40 MLOAD PUSH2 0xBB0 SWAP4 SWAP3 SWAP2 SWAP1 PUSH2 0x1AA3 JUMP JUMPDEST PUSH1 0x40 MLOAD DUP1 SWAP2 SUB SWAP1 LOG1 POP POP JUMP JUMPDEST PUSH2 0xBC4 PUSH2 0x160D JUMP JUMPDEST PUSH20 0x746042147240304098C837563AAEC0F671881B06 NOT PUSH1 0x1 PUSH1 0x1 PUSH1 0xA0 SHL SUB DUP4 AND ADD PUSH2 0xC29 JUMPI PUSH1 0x40 MLOAD PUSH3 0x461BCD PUSH1 0xE5 SHL DUP2 MSTORE PUSH1 0x20 PUSH1 0x4 DUP3 ADD MSTORE PUSH1 0x15 PUSH1 0x24 DUP3 ADD MSTORE PUSH21 0x21B0B73737BA103BB4BA34323930BB9029A7A620A9 PUSH1 0x59 SHL PUSH1 0x44 DUP3 ADD MSTORE PUSH1 0x64 ADD PUSH2 0x84A JUMP JUMPDEST PUSH1 0x40 MLOAD PUSH4 0xA9059CBB PUSH1 0xE0 SHL DUP2 MSTORE CALLER PUSH1 0x4 DUP3 ADD MSTORE PUSH1 0x24 DUP2 ADD DUP3 SWAP1 MSTORE PUSH1 0x1 PUSH1 0x1 PUSH1 0xA0 SHL SUB DUP4 AND SWAP1 PUSH4 0xA9059CBB SWAP1 PUSH1 0x44 ADD PUSH1 0x20 PUSH1 0x40 MLOAD DUP1 DUP4 SUB DUP2 PUSH1 0x0 DUP8 GAS CALL ISZERO DUP1 ISZERO PUSH2 0xC76 JUMPI RETURNDATASIZE PUSH1 0x0 DUP1 RETURNDATACOPY RETURNDATASIZE PUSH1 0x0 REVERT JUMPDEST POP POP POP POP PUSH1 0x40 MLOAD RETURNDATASIZE PUSH1 0x1F NOT PUSH1 0x1F DUP3 ADD AND DUP3 ADD DUP1 PUSH1 0x40 MSTORE POP DUP2 ADD SWAP1 PUSH2 0xC9A SWAP2 SWAP1 PUSH2 0x1A42 JUMP JUMPDEST POP POP POP JUMP JUMPDEST PUSH2 0xCA7 PUSH2 0x160D JUMP JUMPDEST PUSH1 0x1 PUSH1 0x1 PUSH1 0xA0 SHL SUB DUP3 AND PUSH1 0x0 DUP2 DUP2 MSTORE PUSH1 0x3 PUSH1 0x20 SWAP1 DUP2 MSTORE PUSH1 0x40 DUP1 DUP4 KECCAK256 DUP6 DUP5 MSTORE SWAP1 SWAP2 MSTORE DUP1 DUP3 KECCAK256 DUP1 SLOAD PUSH1 0xFF NOT AND PUSH1 0x1 OR SWAP1 SSTORE MLOAD DUP4 SWAP3 SWAP2 PUSH32 0x722462DE87A2F02B3AF39C8FB4889409A7978B8BDEAEC9F052FDC434EA996F9B SWAP2 LOG3 POP POP JUMP JUMPDEST PUSH2 0xD09 PUSH2 0x160D JUMP JUMPDEST PUSH2 0x1388 DUP2 GT ISZERO PUSH2 0x8D4 JUMPI PUSH1 0x40 MLOAD PUSH3 0x461BCD PUSH1 0xE5 SHL DUP2 MSTORE PUSH1 0x20 PUSH1 0x4 DUP3 ADD MSTORE PUSH1 0x11 PUSH1 0x24 DUP3 ADD MSTORE PUSH17 0x43616E6E6F742065786365656420353025 PUSH1 0x78 SHL PUSH1 0x44 DUP3 ADD MSTORE PUSH1 0x64 ADD PUSH2 0x84A JUMP JUMPDEST PUSH1 0x5 SLOAD PUSH1 0x6 SLOAD PUSH1 0x9 SLOAD PUSH1 0xA SLOAD PUSH13 0x1431E0FAE6D7217CAA0000000 SWAP4 SWAP3 SWAP2 SWAP1 PUSH1 0x0 SWAP1 PUSH2 0xD7E SWAP1 PUSH3 0x76A700 SWAP1 PUSH2 0x1A64 JUMP JUMPDEST SWAP1 POP SWAP1 SWAP2 SWAP3 SWAP4 SWAP5 JUMP JUMPDEST PUSH2 0xD8F PUSH2 0x163A JUMP JUMPDEST PUSH3 0x76A700 PUSH1 0xA SLOAD PUSH2 0xDA0 SWAP2 SWAP1 PUSH2 0x1A64 JUMP JUMPDEST TIMESTAMP LT ISZERO PUSH2 0xDEF JUMPI PUSH1 0x40 MLOAD PUSH3 0x461BCD PUSH1 0xE5 SHL DUP2 MSTORE PUSH1 0x20 PUSH1 0x4 DUP3 ADD MSTORE PUSH1 0x1C PUSH1 0x24 DUP3 ADD MSTORE PUSH32 0x546F6F206561726C7920666F7220717561727465726C79206275726E00000000 PUSH1 0x44 DUP3 ADD MSTORE PUSH1 0x64 ADD PUSH2 0x84A JUMP JUMPDEST PUSH1 0x0 PUSH1 0x9 SLOAD GT PUSH2 0xE36 JUMPI PUSH1 0x40 MLOAD PUSH3 0x461BCD PUSH1 0xE5 SHL DUP2 MSTORE PUSH1 0x20 PUSH1 0x4 DUP3 ADD MSTORE PUSH1 0x12 PUSH1 0x24 DUP3 ADD MSTORE PUSH18 0x2737903932BB32B73AB2903A3790313AB937 PUSH1 0x71 SHL PUSH1 0x44 DUP3 ADD MSTORE PUSH1 0x64 ADD PUSH2 0x84A JUMP JUMPDEST PUSH1 0x0 PUSH2 0xE40 PUSH2 0x1571 JUMP JUMPDEST SWAP1 POP PUSH1 0x0 DUP2 GT PUSH2 0xE92 JUMPI PUSH1 0x40 MLOAD PUSH3 0x461BCD PUSH1 0xE5 SHL DUP2 MSTORE PUSH1 0x20 PUSH1 0x4 DUP3 ADD MSTORE PUSH1 0x1B PUSH1 0x24 DUP3 ADD MSTORE PUSH32 0x4E6F20534F4C415220617661696C61626C6520666F72206275726E0000000000 PUSH1 0x44 DUP3 ADD MSTORE PUSH1 0x64 ADD PUSH2 0x84A JUMP JUMPDEST PUSH1 0x40 MLOAD PUSH4 0x70A08231 PUSH1 0xE0 SHL DUP2 MSTORE ADDRESS PUSH1 0x4 DUP3 ADD MSTORE DUP2 SWAP1 PUSH20 0x746042147240304098C837563AAEC0F671881B07 SWAP1 PUSH4 0x70A08231 SWAP1 PUSH1 0x24 ADD PUSH1 0x20 PUSH1 0x40 MLOAD DUP1 DUP4 SUB DUP2 DUP7 GAS STATICCALL ISZERO DUP1 ISZERO PUSH2 0xEE3 JUMPI RETURNDATASIZE PUSH1 0x0 DUP1 RETURNDATACOPY RETURNDATASIZE PUSH1 0x0 REVERT JUMPDEST POP POP POP POP PUSH1 0x40 MLOAD RETURNDATASIZE PUSH1 0x1F NOT PUSH1 0x1F DUP3 ADD AND DUP3 ADD DUP1 PUSH1 0x40 MSTORE POP DUP2 ADD SWAP1 PUSH2 0xF07 SWAP2 SWAP1 PUSH2 0x1A8A JUMP JUMPDEST LT PUSH2 0xF90 JUMPI PUSH1 0x40 MLOAD PUSH4 0xA9059CBB PUSH1 0xE0 SHL DUP2 MSTORE PUSH2 0xDEAD PUSH1 0x4 DUP3 ADD MSTORE PUSH1 0x24 DUP2 ADD DUP3 SWAP1 MSTORE PUSH20 0x746042147240304098C837563AAEC0F671881B07 SWAP1 PUSH4 0xA9059CBB SWAP1 PUSH1 0x44 ADD PUSH1 0x20 PUSH1 0x40 MLOAD DUP1 DUP4 SUB DUP2 PUSH1 0x0 DUP8 GAS CALL ISZERO DUP1 ISZERO PUSH2 0xF66 JUMPI RETURNDATASIZE PUSH1 0x0 DUP1 RETURNDATACOPY RETURNDATASIZE PUSH1 0x0 REVERT JUMPDEST POP POP POP POP PUSH1 0x40 MLOAD RETURNDATASIZE PUSH1 0x1F NOT PUSH1 0x1F DUP3 ADD AND DUP3 ADD DUP1 PUSH1 0x40 MSTORE POP DUP2 ADD SWAP1 PUSH2 0xF8A SWAP2 SWAP1 PUSH2 0x1A42 JUMP JUMPDEST POP PUSH2 0x1037 JUMP JUMPDEST PUSH20 0x746042147240304098C837563AAEC0F671881B07 PUSH4 0x23B872DD PUSH2 0xFBC PUSH1 0x1 SLOAD PUSH1 0x1 PUSH1 0x1 PUSH1 0xA0 SHL SUB AND SWAP1 JUMP JUMPDEST PUSH1 0x40 MLOAD PUSH1 0x1 PUSH1 0x1 PUSH1 0xE0 SHL SUB NOT PUSH1 0xE0 DUP5 SWAP1 SHL AND DUP2 MSTORE PUSH1 0x1 PUSH1 0x1 PUSH1 0xA0 SHL SUB SWAP1 SWAP2 AND PUSH1 0x4 DUP3 ADD MSTORE PUSH2 0xDEAD PUSH1 0x24 DUP3 ADD MSTORE PUSH1 0x44 DUP2 ADD DUP5 SWAP1 MSTORE PUSH1 0x64 ADD PUSH1 0x20 PUSH1 0x40 MLOAD DUP1 DUP4 SUB DUP2 PUSH1 0x0 DUP8 GAS CALL ISZERO DUP1 ISZERO PUSH2 0x1011 JUMPI RETURNDATASIZE PUSH1 0x0 DUP1 RETURNDATACOPY RETURNDATASIZE PUSH1 0x0 REVERT JUMPDEST POP POP POP POP PUSH1 0x40 MLOAD RETURNDATASIZE PUSH1 0x1F NOT PUSH1 0x1F DUP3 ADD AND DUP3 ADD DUP1 PUSH1 0x40 MSTORE POP DUP2 ADD SWAP1 PUSH2 0x1035 SWAP2 SWAP1 PUSH2 0x1A42 JUMP JUMPDEST POP JUMPDEST DUP1 PUSH1 0x5 PUSH1 0x0 DUP3 DUP3 SLOAD PUSH2 0x1049 SWAP2 SWAP1 PUSH2 0x1A64 JUMP JUMPDEST SWAP1 SWAP2 SSTORE POP POP PUSH1 0x6 DUP1 SLOAD SWAP1 PUSH1 0x0 PUSH2 0x105E DUP4 PUSH2 0x1A29 JUMP JUMPDEST SWAP1 SWAP2 SSTORE POP POP TIMESTAMP PUSH1 0xA SSTORE PUSH1 0x0 PUSH1 0x9 SSTORE PUSH1 0x40 DUP1 MLOAD DUP3 DUP2 MSTORE PUSH1 0x60 PUSH1 0x20 DUP3 ADD DUP2 SWAP1 MSTORE PUSH1 0x16 SWAP1 DUP3 ADD MSTORE PUSH22 0x28BAB0B93A32B9363C903932BB32B73AB290313AB937 PUSH1 0x51 SHL PUSH1 0x80 DUP3 ADD MSTORE CALLER DUP2 DUP4 ADD MSTORE SWAP1 MLOAD PUSH32 0xD92408CBC24732A9457F996472DCDFD7723E5B548A1F0C6991845F2609A719DB SWAP2 DUP2 SWAP1 SUB PUSH1 0xA0 ADD SWAP1 LOG1 POP PUSH2 0x8E7 PUSH1 0x1 PUSH1 0x0 SSTORE JUMP JUMPDEST PUSH2 0x10E5 PUSH2 0x160D JUMP JUMPDEST PUSH2 0x10EF DUP2 TIMESTAMP PUSH2 0x1A64 JUMP JUMPDEST PUSH1 0x1 PUSH1 0x1 PUSH1 0xA0 SHL SUB DUP5 AND PUSH1 0x0 DUP2 DUP2 MSTORE PUSH1 0x4 PUSH1 0x20 SWAP1 DUP2 MSTORE PUSH1 0x40 DUP1 DUP4 KECCAK256 DUP8 DUP5 MSTORE DUP3 MSTORE SWAP2 DUP3 SWAP1 KECCAK256 SWAP4 SWAP1 SWAP4 SSTORE MLOAD DUP4 DUP2 MSTORE DUP5 SWAP3 PUSH32 0x4BF5367B54D86733931CBF6BE0F2420776F4A453BE9BD79ED2E9E849627DBD2A SWAP2 ADD PUSH1 0x40 MLOAD DUP1 SWAP2 SUB SWAP1 LOG3 POP POP POP JUMP JUMPDEST PUSH1 0x40 MLOAD PUSH4 0x70A08231 PUSH1 0xE0 SHL DUP2 MSTORE PUSH1 0x1 PUSH1 0x1 PUSH1 0xA0 SHL SUB DUP3 AND PUSH1 0x4 DUP3 ADD MSTORE PUSH1 0x0 SWAP1 PUSH1 0x60 SWAP1 PUSH20 0x746042147240304098C837563AAEC0F671881B07 SWAP1 PUSH4 0x70A08231 SWAP1 PUSH1 0x24 ADD PUSH1 0x20 PUSH1 0x40 MLOAD DUP1 DUP4 SUB DUP2 DUP7 GAS STATICCALL ISZERO DUP1 ISZERO PUSH2 0x11AB JUMPI RETURNDATASIZE PUSH1 0x0 DUP1 RETURNDATACOPY RETURNDATASIZE PUSH1 0x0 REVERT JUMPDEST POP POP POP POP PUSH1 0x40 MLOAD RETURNDATASIZE PUSH1 0x1F NOT PUSH1 0x1F DUP3 ADD AND DUP3 ADD DUP1 PUSH1 0x40 MSTORE POP DUP2 ADD SWAP1 PUSH2 0x11CF SWAP2 SWAP1 PUSH2 0x1A8A JUMP JUMPDEST PUSH1 0x40 DUP1 MLOAD PUSH1 0x7 DUP1 DUP3 MSTORE PUSH2 0x100 DUP3 ADD SWAP1 SWAP3 MSTORE SWAP2 SWAP4 POP PUSH1 0x0 SWAP2 SWAP1 PUSH1 0x20 DUP3 ADD PUSH1 0xE0 DUP1 CALLDATASIZE DUP4 CALLDATACOPY ADD SWAP1 POP POP SWAP1 POP PUSH17 0x7072656D69756D5F616E616C7974696373 PUSH1 0x78 SHL DUP2 PUSH1 0x0 DUP2 MLOAD DUP2 LT PUSH2 0x121F JUMPI PUSH2 0x121F PUSH2 0x19FD JUMP JUMPDEST PUSH1 0x20 MUL PUSH1 0x20 ADD ADD DUP2 DUP2 MSTORE POP POP PUSH17 0x637573746F6D5F6D696C6573746F6E6573 PUSH1 0x78 SHL DUP2 PUSH1 0x1 DUP2 MLOAD DUP2 LT PUSH2 0x1253 JUMPI PUSH2 0x1253 PUSH2 0x19FD JUMP JUMPDEST PUSH1 0x20 MUL PUSH1 0x20 ADD ADD DUP2 DUP2 MSTORE POP POP PUSH16 0x1C1C9A5BDC9A5D1E57DCDD5C1C1BDC9D PUSH1 0x82 SHL DUP2 PUSH1 0x2 DUP2 MLOAD DUP2 LT PUSH2 0x1286 JUMPI PUSH2 0x1286 PUSH2 0x19FD JUMP JUMPDEST PUSH1 0x20 MUL PUSH1 0x20 ADD ADD DUP2 DUP2 MSTORE POP POP PUSH16 0x616476616E6365645F6A6F75726E6579 PUSH1 0x80 SHL DUP2 PUSH1 0x3 DUP2 MLOAD DUP2 LT PUSH2 0x12B9 JUMPI PUSH2 0x12B9 PUSH2 0x19FD JUMP JUMPDEST PUSH1 0x20 MUL PUSH1 0x20 ADD ADD DUP2 DUP2 MSTORE POP POP PUSH10 0x6170695F616363657373 PUSH1 0xB0 SHL DUP2 PUSH1 0x4 DUP2 MLOAD DUP2 LT PUSH2 0x12E6 JUMPI PUSH2 0x12E6 PUSH2 0x19FD JUMP JUMPDEST PUSH1 0x20 MUL PUSH1 0x20 ADD ADD DUP2 DUP2 MSTORE POP POP PUSH12 0x6561726C795F616363657373 PUSH1 0xA0 SHL DUP2 PUSH1 0x5 DUP2 MLOAD DUP2 LT PUSH2 0x1315 JUMPI PUSH2 0x1315 PUSH2 0x19FD JUMP JUMPDEST PUSH1 0x20 MUL PUSH1 0x20 ADD ADD DUP2 DUP2 MSTORE POP POP PUSH11 0x1D9A5C17DCDD5C1C1BDC9D PUSH1 0xAA SHL DUP2 PUSH1 0x6 DUP2 MLOAD DUP2 LT PUSH2 0x1343 JUMPI PUSH2 0x1343 PUSH2 0x19FD JUMP JUMPDEST PUSH1 0x20 MUL PUSH1 0x20 ADD ADD DUP2 DUP2 MSTORE POP POP PUSH1 0x0 DUP1 JUMPDEST DUP3 MLOAD DUP2 LT ISZERO PUSH2 0x141D JUMPI ADDRESS PUSH1 0x1 PUSH1 0x1 PUSH1 0xA0 SHL SUB AND PUSH4 0x7461F24A DUP8 DUP6 DUP5 DUP2 MLOAD DUP2 LT PUSH2 0x137E JUMPI PUSH2 0x137E PUSH2 0x19FD JUMP JUMPDEST PUSH1 0x20 MUL PUSH1 0x20 ADD ADD MLOAD PUSH1 0x40 MLOAD DUP4 PUSH4 0xFFFFFFFF AND PUSH1 0xE0 SHL DUP2 MSTORE PUSH1 0x4 ADD PUSH2 0x13B7 SWAP3 SWAP2 SWAP1 PUSH1 0x1 PUSH1 0x1 PUSH1 0xA0 SHL SUB SWAP3 SWAP1 SWAP3 AND DUP3 MSTORE PUSH1 0x20 DUP3 ADD MSTORE PUSH1 0x40 ADD SWAP1 JUMP JUMPDEST PUSH1 0x20 PUSH1 0x40 MLOAD DUP1 DUP4 SUB DUP2 DUP7 GAS STATICCALL ISZERO DUP1 ISZERO PUSH2 0x13D4 JUMPI RETURNDATASIZE PUSH1 0x0 DUP1 RETURNDATACOPY RETURNDATASIZE PUSH1 0x0 REVERT JUMPDEST POP POP POP POP PUSH1 0x40 MLOAD RETURNDATASIZE PUSH1 0x1F NOT PUSH1 0x1F DUP3 ADD AND DUP3 ADD DUP1 PUSH1 0x40 MSTORE POP DUP2 ADD SWAP1 PUSH2 0x13F8 SWAP2 SWAP1 PUSH2 0x1A42 JUMP JUMPDEST ISZERO PUSH2 0x140B JUMPI DUP2 PUSH2 0x1407 DUP2 PUSH2 0x1A29 JUMP JUMPDEST SWAP3 POP POP JUMPDEST DUP1 PUSH2 0x1415 DUP2 PUSH2 0x1A29 JUMP JUMPDEST SWAP2 POP POP PUSH2 0x1353 JUMP JUMPDEST POP DUP1 PUSH8 0xFFFFFFFFFFFFFFFF DUP2 GT ISZERO PUSH2 0x1437 JUMPI PUSH2 0x1437 PUSH2 0x18B6 JUMP JUMPDEST PUSH1 0x40 MLOAD SWAP1 DUP1 DUP3 MSTORE DUP1 PUSH1 0x20 MUL PUSH1 0x20 ADD DUP3 ADD PUSH1 0x40 MSTORE DUP1 ISZERO PUSH2 0x1460 JUMPI DUP2 PUSH1 0x20 ADD PUSH1 0x20 DUP3 MUL DUP1 CALLDATASIZE DUP4 CALLDATACOPY ADD SWAP1 POP JUMPDEST POP SWAP3 POP PUSH1 0x0 DUP1 JUMPDEST DUP4 MLOAD DUP2 LT ISZERO PUSH2 0x1568 JUMPI ADDRESS PUSH1 0x1 PUSH1 0x1 PUSH1 0xA0 SHL SUB AND PUSH4 0x7461F24A DUP9 DUP7 DUP5 DUP2 MLOAD DUP2 LT PUSH2 0x1492 JUMPI PUSH2 0x1492 PUSH2 0x19FD JUMP JUMPDEST PUSH1 0x20 MUL PUSH1 0x20 ADD ADD MLOAD PUSH1 0x40 MLOAD DUP4 PUSH4 0xFFFFFFFF AND PUSH1 0xE0 SHL DUP2 MSTORE PUSH1 0x4 ADD PUSH2 0x14CB SWAP3 SWAP2 SWAP1 PUSH1 0x1 PUSH1 0x1 PUSH1 0xA0 SHL SUB SWAP3 SWAP1 SWAP3 AND DUP3 MSTORE PUSH1 0x20 DUP3 ADD MSTORE PUSH1 0x40 ADD SWAP1 JUMP JUMPDEST PUSH1 0x20 PUSH1 0x40 MLOAD DUP1 DUP4 SUB DUP2 DUP7 GAS STATICCALL ISZERO DUP1 ISZERO PUSH2 0x14E8 JUMPI RETURNDATASIZE PUSH1 0x0 DUP1 RETURNDATACOPY RETURNDATASIZE PUSH1 0x0 REVERT JUMPDEST POP POP POP POP PUSH1 0x40 MLOAD RETURNDATASIZE PUSH1 0x1F NOT PUSH1 0x1F DUP3 ADD AND DUP3 ADD DUP1 PUSH1 0x40 MSTORE POP DUP2 ADD SWAP1 PUSH2 0x150C SWAP2 SWAP1 PUSH2 0x1A42 JUMP JUMPDEST ISZERO PUSH2 0x1556 JUMPI DUP4 DUP2 DUP2 MLOAD DUP2 LT PUSH2 0x1523 JUMPI PUSH2 0x1523 PUSH2 0x19FD JUMP JUMPDEST PUSH1 0x20 MUL PUSH1 0x20 ADD ADD MLOAD DUP6 DUP4 DUP2 MLOAD DUP2 LT PUSH2 0x153D JUMPI PUSH2 0x153D PUSH2 0x19FD JUMP JUMPDEST PUSH1 0x20 SWAP1 DUP2 MUL SWAP2 SWAP1 SWAP2 ADD ADD MSTORE DUP2 PUSH2 0x1552 DUP2 PUSH2 0x1A29 JUMP JUMPDEST SWAP3 POP POP JUMPDEST DUP1 PUSH2 0x1560 DUP2 PUSH2 0x1A29 JUMP JUMPDEST SWAP2 POP POP PUSH2 0x1467 JUMP JUMPDEST POP POP POP POP SWAP2 POP SWAP2 JUMP JUMPDEST PUSH1 0x0 PUSH1 0x9 SLOAD PUSH1 0x0 SUB PUSH2 0x1583 JUMPI POP PUSH1 0x0 SWAP1 JUMP JUMPDEST PUSH1 0x0 PUSH10 0xD3C21BCECCEDA1000000 SWAP1 POP PUSH1 0x0 PUSH2 0x2710 PUSH2 0x9C4 PUSH1 0x9 SLOAD PUSH2 0x15A7 SWAP2 SWAP1 PUSH2 0x1B0C JUMP JUMPDEST PUSH2 0x15B1 SWAP2 SWAP1 PUSH2 0x1B23 JUMP JUMPDEST SWAP1 POP PUSH3 0xF4240 PUSH2 0x15C1 DUP4 DUP4 PUSH2 0x1B0C JUMP JUMPDEST PUSH2 0x15CB SWAP2 SWAP1 PUSH2 0x1B23 JUMP JUMPDEST SWAP3 POP POP POP SWAP1 JUMP JUMPDEST PUSH2 0x15DA PUSH2 0x160D JUMP JUMPDEST PUSH1 0x1 PUSH1 0x1 PUSH1 0xA0 SHL SUB DUP2 AND PUSH2 0x1604 JUMPI PUSH1 0x40 MLOAD PUSH4 0x1E4FBDF7 PUSH1 0xE0 SHL DUP2 MSTORE PUSH1 0x0 PUSH1 0x4 DUP3 ADD MSTORE PUSH1 0x24 ADD PUSH2 0x84A JUMP JUMPDEST PUSH2 0x8D4 DUP2 PUSH2 0x16E4 JUMP JUMPDEST PUSH1 0x1 SLOAD PUSH1 0x1 PUSH1 0x1 PUSH1 0xA0 SHL SUB AND CALLER EQ PUSH2 0x8E7 JUMPI PUSH1 0x40 MLOAD PUSH4 0x118CDAA7 PUSH1 0xE0 SHL DUP2 MSTORE CALLER PUSH1 0x4 DUP3 ADD MSTORE PUSH1 0x24 ADD PUSH2 0x84A JUMP JUMPDEST PUSH1 0x2 PUSH1 0x0 SLOAD SUB PUSH2 0x165D JUMPI PUSH1 0x40 MLOAD PUSH4 0x3EE5AEB5 PUSH1 0xE0 SHL DUP2 MSTORE PUSH1 0x4 ADD PUSH1 0x40 MLOAD DUP1 SWAP2 SUB SWAP1 REVERT JUMPDEST PUSH1 0x2 PUSH1 0x0 SSTORE JUMP JUMPDEST PUSH1 0x1 SLOAD PUSH1 0x1 PUSH1 0xA0 SHL SWAP1 DIV PUSH1 0xFF AND ISZERO PUSH2 0x8E7 JUMPI PUSH1 0x40 MLOAD PUSH4 0xD93C0665 PUSH1 0xE0 SHL DUP2 MSTORE PUSH1 0x4 ADD PUSH1 0x40 MLOAD DUP1 SWAP2 SUB SWAP1 REVERT JUMPDEST PUSH2 0x1697 PUSH2 0x1779 JUMP JUMPDEST PUSH1 0x1 DUP1 SLOAD PUSH1 0xFF PUSH1 0xA0 SHL NOT AND SWAP1 SSTORE PUSH32 0x5DB9EE0A495BF2E6FF9C91A7834C1BA4FDD244A5E8AA4E537BD38AEAE4B073AA CALLER JUMPDEST PUSH1 0x40 MLOAD PUSH1 0x1 PUSH1 0x1 PUSH1 0xA0 SHL SUB SWAP1 SWAP2 AND DUP2 MSTORE PUSH1 0x20 ADD PUSH1 0x40 MLOAD DUP1 SWAP2 SUB SWAP1 LOG1 JUMP JUMPDEST PUSH1 0x1 DUP1 SLOAD PUSH1 0x1 PUSH1 0x1 PUSH1 0xA0 SHL SUB DUP4 DUP2 AND PUSH1 0x1 PUSH1 0x1 PUSH1 0xA0 SHL SUB NOT DUP4 AND DUP2 OR SWAP1 SWAP4 SSTORE PUSH1 0x40 MLOAD SWAP2 AND SWAP2 SWAP1 DUP3 SWAP1 PUSH32 0x8BE0079C531659141344CD1FD0A4F28419497F9722A3DAAFE3B4186F6B6457E0 SWAP1 PUSH1 0x0 SWAP1 LOG3 POP POP JUMP JUMPDEST PUSH2 0x173E PUSH2 0x1664 JUMP JUMPDEST PUSH1 0x1 DUP1 SLOAD PUSH1 0xFF PUSH1 0xA0 SHL NOT AND PUSH1 0x1 PUSH1 0xA0 SHL OR SWAP1 SSTORE PUSH32 0x62E78CEA01BEE320CD4E420270B5EA74000D11B0C9F74754EBDBFC544B05A258 PUSH2 0x16C7 CALLER SWAP1 JUMP JUMPDEST PUSH1 0x1 SLOAD PUSH1 0x1 PUSH1 0xA0 SHL SWAP1 DIV PUSH1 0xFF AND PUSH2 0x8E7 JUMPI PUSH1 0x40 MLOAD PUSH4 0x8DFC202B PUSH1 0xE0 SHL DUP2 MSTORE PUSH1 0x4 ADD PUSH1 0x40 MLOAD DUP1 SWAP2 SUB SWAP1 REVERT JUMPDEST PUSH1 0x0 DUP1 PUSH1 0x40 DUP4 DUP6 SUB SLT ISZERO PUSH2 0x17B6 JUMPI PUSH1 0x0 DUP1 REVERT JUMPDEST POP POP DUP1 CALLDATALOAD SWAP3 PUSH1 0x20 SWAP1 SWAP2 ADD CALLDATALOAD SWAP2 POP JUMP JUMPDEST PUSH1 0x0 DUP2 MLOAD DUP1 DUP5 MSTORE PUSH1 0x20 DUP1 DUP6 ADD SWAP5 POP DUP1 DUP5 ADD PUSH1 0x0 JUMPDEST DUP4 DUP2 LT ISZERO PUSH2 0x17F5 JUMPI DUP2 MLOAD DUP8 MSTORE SWAP6 DUP3 ADD SWAP6 SWAP1 DUP3 ADD SWAP1 PUSH1 0x1 ADD PUSH2 0x17D9 JUMP JUMPDEST POP SWAP5 SWAP6 SWAP5 POP POP POP POP POP JUMP JUMPDEST PUSH1 0x40 DUP2 MSTORE PUSH1 0x0 PUSH2 0x1813 PUSH1 0x40 DUP4 ADD DUP6 PUSH2 0x17C5 JUMP JUMPDEST DUP3 DUP2 SUB PUSH1 0x20 DUP5 DUP2 ADD SWAP2 SWAP1 SWAP2 MSTORE DUP5 MLOAD DUP1 DUP4 MSTORE DUP6 DUP3 ADD SWAP3 DUP3 ADD SWAP1 PUSH1 0x0 JUMPDEST DUP2 DUP2 LT ISZERO PUSH2 0x184A JUMPI DUP5 MLOAD DUP4 MSTORE SWAP4 DUP4 ADD SWAP4 SWAP2 DUP4 ADD SWAP2 PUSH1 0x1 ADD PUSH2 0x182E JUMP JUMPDEST POP SWAP1 SWAP8 SWAP7 POP POP POP POP POP POP POP JUMP JUMPDEST PUSH1 0x0 PUSH1 0x20 DUP3 DUP5 SUB SLT ISZERO PUSH2 0x1869 JUMPI PUSH1 0x0 DUP1 REVERT JUMPDEST POP CALLDATALOAD SWAP2 SWAP1 POP JUMP JUMPDEST DUP1 CALLDATALOAD PUSH1 0x1 PUSH1 0x1 PUSH1 0xA0 SHL SUB DUP2 AND DUP2 EQ PUSH2 0x1887 JUMPI PUSH1 0x0 DUP1 REVERT JUMPDEST SWAP2 SWAP1 POP JUMP JUMPDEST PUSH1 0x0 DUP1 PUSH1 0x40 DUP4 DUP6 SUB SLT ISZERO PUSH2 0x189F JUMPI PUSH1 0x0 DUP1 REVERT JUMPDEST PUSH2 0x18A8 DUP4 PUSH2 0x1870 JUMP JUMPDEST SWAP5 PUSH1 0x20 SWAP4 SWAP1 SWAP4 ADD CALLDATALOAD SWAP4 POP POP POP JUMP JUMPDEST PUSH4 0x4E487B71 PUSH1 0xE0 SHL PUSH1 0x0 MSTORE PUSH1 0x41 PUSH1 0x4 MSTORE PUSH1 0x24 PUSH1 0x0 REVERT JUMPDEST PUSH1 0x0 DUP1 PUSH1 0x40 DUP4 DUP6 SUB SLT ISZERO PUSH2 0x18DF JUMPI PUSH1 0x0 DUP1 REVERT JUMPDEST DUP3 CALLDATALOAD SWAP2 POP PUSH1 0x20 DUP4 ADD CALLDATALOAD PUSH8 0xFFFFFFFFFFFFFFFF DUP1 DUP3 GT ISZERO PUSH2 0x18FE JUMPI PUSH1 0x0 DUP1 REVERT JUMPDEST DUP2 DUP6 ADD SWAP2 POP DUP6 PUSH1 0x1F DUP4 ADD SLT PUSH2 0x1912 JUMPI PUSH1 0x0 DUP1 REVERT JUMPDEST DUP2 CALLDATALOAD DUP2 DUP2 GT ISZERO PUSH2 0x1924 JUMPI PUSH2 0x1924 PUSH2 0x18B6 JUMP JUMPDEST PUSH1 0x40 MLOAD PUSH1 0x1F DUP3 ADD PUSH1 0x1F NOT SWAP1 DUP2 AND PUSH1 0x3F ADD AND DUP2 ADD SWAP1 DUP4 DUP3 GT DUP2 DUP4 LT OR ISZERO PUSH2 0x194C JUMPI PUSH2 0x194C PUSH2 0x18B6 JUMP JUMPDEST DUP2 PUSH1 0x40 MSTORE DUP3 DUP2 MSTORE DUP9 PUSH1 0x20 DUP5 DUP8 ADD ADD GT ISZERO PUSH2 0x1965 JUMPI PUSH1 0x0 DUP1 REVERT JUMPDEST DUP3 PUSH1 0x20 DUP7 ADD PUSH1 0x20 DUP4 ADD CALLDATACOPY PUSH1 0x0 PUSH1 0x20 DUP5 DUP4 ADD ADD MSTORE DUP1 SWAP6 POP POP POP POP POP POP SWAP3 POP SWAP3 SWAP1 POP JUMP JUMPDEST PUSH1 0x0 DUP1 PUSH1 0x0 PUSH1 0x60 DUP5 DUP7 SUB SLT ISZERO PUSH2 0x199C JUMPI PUSH1 0x0 DUP1 REVERT JUMPDEST PUSH2 0x19A5 DUP5 PUSH2 0x1870 JUMP JUMPDEST SWAP6 PUSH1 0x20 DUP6 ADD CALLDATALOAD SWAP6 POP PUSH1 0x40 SWAP1 SWAP5 ADD CALLDATALOAD SWAP4 SWAP3 POP POP POP JUMP JUMPDEST PUSH1 0x0 PUSH1 0x20 DUP3 DUP5 SUB SLT ISZERO PUSH2 0x19CC JUMPI PUSH1 0x0 DUP1 REVERT JUMPDEST PUSH2 0x19D5 DUP3 PUSH2 0x1870 JUMP JUMPDEST SWAP4 SWAP3 POP POP POP JUMP JUMPDEST DUP3 DUP2 MSTORE PUSH1 0x40 PUSH1 0x20 DUP3 ADD MSTORE PUSH1 0x0 PUSH2 0x19F5 PUSH1 0x40 DUP4 ADD DUP5 PUSH2 0x17C5 JUMP JUMPDEST SWAP5 SWAP4 POP POP POP POP JUMP JUMPDEST PUSH4 0x4E487B71 PUSH1 0xE0 SHL PUSH1 0x0 MSTORE PUSH1 0x32 PUSH1 0x4 MSTORE PUSH1 0x24 PUSH1 0x0 REVERT JUMPDEST PUSH4 0x4E487B71 PUSH1 0xE0 SHL PUSH1 0x0 MSTORE PUSH1 0x11 PUSH1 0x4 MSTORE PUSH1 0x24 PUSH1 0x0 REVERT JUMPDEST PUSH1 0x0 PUSH1 0x1 DUP3 ADD PUSH2 0x1A3B JUMPI PUSH2 0x1A3B PUSH2 0x1A13 JUMP JUMPDEST POP PUSH1 0x1 ADD SWAP1 JUMP JUMPDEST PUSH1 0x0 PUSH1 0x20 DUP3 DUP5 SUB SLT ISZERO PUSH2 0x1A54 JUMPI PUSH1 0x0 DUP1 REVERT JUMPDEST DUP2 MLOAD DUP1 ISZERO ISZERO DUP2 EQ PUSH2 0x19D5 JUMPI PUSH1 0x0 DUP1 REVERT JUMPDEST DUP1 DUP3 ADD DUP1 DUP3 GT ISZERO PUSH2 0xAAE JUMPI PUSH2 0xAAE PUSH2 0x1A13 JUMP JUMPDEST DUP2 DUP2 SUB DUP2 DUP2 GT ISZERO PUSH2 0xAAE JUMPI PUSH2 0xAAE PUSH2 0x1A13 JUMP JUMPDEST PUSH1 0x0 PUSH1 0x20 DUP3 DUP5 SUB SLT ISZERO PUSH2 0x1A9C JUMPI PUSH1 0x0 DUP1 REVERT JUMPDEST POP MLOAD SWAP2 SWAP1 POP JUMP JUMPDEST DUP4 DUP2 MSTORE PUSH1 0x0 PUSH1 0x20 PUSH1 0x60 DUP2 DUP5 ADD MSTORE DUP5 MLOAD DUP1 PUSH1 0x60 DUP6 ADD MSTORE PUSH1 0x0 JUMPDEST DUP2 DUP2 LT ISZERO PUSH2 0x1AD7 JUMPI DUP7 DUP2 ADD DUP4 ADD MLOAD DUP6 DUP3 ADD PUSH1 0x80 ADD MSTORE DUP3 ADD PUSH2 0x1ABB JUMP JUMPDEST POP PUSH1 0x0 DUP5 DUP3 ADD PUSH1 0x80 SWAP1 DUP2 ADD SWAP2 SWAP1 SWAP2 MSTORE PUSH1 0x1 PUSH1 0x1 PUSH1 0xA0 SHL SUB SWAP6 SWAP1 SWAP6 AND PUSH1 0x40 DUP6 ADD MSTORE PUSH1 0x1F ADD PUSH1 0x1F NOT AND SWAP1 SWAP3 ADD SWAP1 SWAP3 ADD SWAP5 SWAP4 POP POP POP POP JUMP JUMPDEST DUP1 DUP3 MUL DUP2 ISZERO DUP3 DUP3 DIV DUP5 EQ OR PUSH2 0xAAE JUMPI PUSH2 0xAAE PUSH2 0x1A13 JUMP JUMPDEST PUSH1 0x0 DUP3 PUSH2 0x1B40 JUMPI PUSH4 0x4E487B71 PUSH1 0xE0 SHL PUSH1 0x0 MSTORE PUSH1 0x12 PUSH1 0x4 MSTORE PUSH1 0x24 PUSH1 0x0 REVERT JUMPDEST POP DIV SWAP1 JUMP INVALID LOG2 PUSH5 0x6970667358 0x22 SLT KECCAK256 NUMBER ADDRESS MSIZE 0xD STOP 0x4B 0xF9 0xD4 0xD1 0x2E 0xDD 0xDB 0x1F 0xDE EXTCODECOPY PUSH23 0x6A8E8470DC71052F0816E4E42B0A73E064736F6C634300 ADDMOD EQ STOP CALLER "},"methodIdentifiers":{"BURN_ADDRESS()":"fccc2813","BURN_INTERVAL()":"7b1648e2","BURN_PERCENTAGE()":"9649b910","SOLAR_TOKEN()":"bda064eb","addRevenue(uint256)":"63ec512d","burnEvents()":"3b660aaa","calculateBurnAmount()":"eee1e7e5","canExecuteQuarterlyBurn()":"5ca974a7","checkAccess(address,bytes32)":"7461f24a","emergencyWithdraw(address,uint256)":"95ccea67","executeQuarterlyBurn()":"d02fd823","featureRequirements(bytes32)":"37f9a42f","featureUsage(bytes32)":"d42cda58","getAllFeatureRequirements()":"13ae8972","getFeatureRequirement(bytes32)":"28c582a3","getStats()":"c59d4847","getUserStatus(address)":"ea0d5dcd","grantPermanentAccess(address,bytes32)":"ad8ea4b6","grantTemporaryAccess(address,bytes32,uint256)":"e001bfbe","lastBurnTime()":"e3067449","owner()":"8da5cb5b","pause()":"8456cb59","paused()":"5c975abb","permanentAccess(address,bytes32)":"cc58bcdf","renounceOwnership()":"715018a6","setBurnPercentage(uint256)":"c3f0d327","setFeatureRequirement(bytes32,uint256)":"0a43948e","strategicBurn(uint256,string)":"854ca169","temporaryAccess(address,bytes32)":"40dd0f70","timeUntilNextBurn()":"5a1ab780","totalBurned()":"d89135cd","totalRevenue()":"bf2d9e0b","transferOwnership(address)":"f2fde38b","unpause()":"3f4ba83a","useFeature(bytes32)":"23409a28","userFeatureUsage(address,bytes32)":"c9715a2f"}}}}}