{"contracts/deployment/MorphoTreasury.sol":{"MorphoTreasury":{"abi":[{"inputs":[{"internalType":"address","name":"_utilityContract","type":"address"},{"internalType":"address","name":"_buybackContract","type":"address"}],"stateMutability":"nonpayable","type":"constructor"},{"inputs":[],"name":"EnforcedPause","type":"error"},{"inputs":[],"name":"ExpectedPause","type":"error"},{"inputs":[{"internalType":"address","name":"owner","type":"address"}],"name":"OwnableInvalidOwner","type":"error"},{"inputs":[{"internalType":"address","name":"account","type":"address"}],"name":"OwnableUnauthorizedAccount","type":"error"},{"inputs":[],"name":"ReentrancyGuardReentrantCall","type":"error"},{"anonymous":false,"inputs":[{"indexed":false,"internalType":"string","name":"contractType","type":"string"},{"indexed":false,"internalType":"address","name":"newAddress","type":"address"}],"name":"ContractUpdated","type":"event"},{"anonymous":false,"inputs":[{"indexed":true,"internalType":"address","name":"previousOwner","type":"address"},{"indexed":true,"internalType":"address","name":"newOwner","type":"address"}],"name":"OwnershipTransferred","type":"event"},{"anonymous":false,"inputs":[{"indexed":false,"internalType":"address","name":"account","type":"address"}],"name":"Paused","type":"event"},{"anonymous":false,"inputs":[{"indexed":false,"internalType":"uint256","name":"amount","type":"uint256"},{"indexed":false,"internalType":"uint256","name":"morphoShares","type":"uint256"}],"name":"USDCDeposited","type":"event"},{"anonymous":false,"inputs":[{"indexed":false,"internalType":"uint256","name":"amount","type":"uint256"},{"indexed":false,"internalType":"address","name":"recipient","type":"address"}],"name":"USDCWithdrawn","type":"event"},{"anonymous":false,"inputs":[{"indexed":false,"internalType":"address","name":"account","type":"address"}],"name":"Unpaused","type":"event"},{"anonymous":false,"inputs":[{"indexed":true,"internalType":"address","name":"recipient","type":"address"},{"indexed":false,"internalType":"uint256","name":"amount","type":"uint256"}],"name":"YieldClaimed","type":"event"},{"anonymous":false,"inputs":[{"indexed":false,"internalType":"uint256","name":"totalYield","type":"uint256"},{"indexed":false,"internalType":"uint256","name":"ownerShare","type":"uint256"},{"indexed":false,"internalType":"uint256","name":"utilityShare","type":"uint256"},{"indexed":false,"internalType":"uint256","name":"buybackShare","type":"uint256"}],"name":"YieldDistributed","type":"event"},{"inputs":[],"name":"BUYBACK_YIELD_SHARE","outputs":[{"internalType":"uint256","name":"","type":"uint256"}],"stateMutability":"view","type":"function"},{"inputs":[],"name":"MORPHO","outputs":[{"internalType":"contract IMorpho","name":"","type":"address"}],"stateMutability":"view","type":"function"},{"inputs":[],"name":"OWNER_YIELD_SHARE","outputs":[{"internalType":"uint256","name":"","type":"uint256"}],"stateMutability":"view","type":"function"},{"inputs":[],"name":"USDC","outputs":[{"internalType":"contract IERC20","name":"","type":"address"}],"stateMutability":"view","type":"function"},{"inputs":[],"name":"USDC_MARKET","outputs":[{"internalType":"address","name":"","type":"address"}],"stateMutability":"view","type":"function"},{"inputs":[],"name":"UTILITY_YIELD_SHARE","outputs":[{"internalType":"uint256","name":"","type":"uint256"}],"stateMutability":"view","type":"function"},{"inputs":[],"name":"accumulatedYield","outputs":[{"internalType":"uint256","name":"","type":"uint256"}],"stateMutability":"view","type":"function"},{"inputs":[],"name":"buybackContract","outputs":[{"internalType":"address","name":"","type":"address"}],"stateMutability":"view","type":"function"},{"inputs":[{"internalType":"uint256","name":"amount","type":"uint256"}],"name":"claimYield","outputs":[],"stateMutability":"nonpayable","type":"function"},{"inputs":[{"internalType":"uint256","name":"amount","type":"uint256"}],"name":"depositToMorpho","outputs":[],"stateMutability":"nonpayable","type":"function"},{"inputs":[{"internalType":"address","name":"token","type":"address"},{"internalType":"uint256","name":"amount","type":"uint256"}],"name":"emergencyWithdraw","outputs":[],"stateMutability":"nonpayable","type":"function"},{"inputs":[],"name":"estimateCurrentYield","outputs":[{"internalType":"uint256","name":"estimatedYield","type":"uint256"}],"stateMutability":"view","type":"function"},{"inputs":[],"name":"forceYieldUpdate","outputs":[],"stateMutability":"nonpayable","type":"function"},{"inputs":[{"internalType":"address","name":"user","type":"address"}],"name":"getAvailableYield","outputs":[{"internalType":"uint256","name":"available","type":"uint256"}],"stateMutability":"view","type":"function"},{"inputs":[],"name":"getCurrentBalance","outputs":[{"internalType":"uint256","name":"balance","type":"uint256"}],"stateMutability":"view","type":"function"},{"inputs":[],"name":"getEstimatedAPY","outputs":[{"internalType":"uint256","name":"apy","type":"uint256"}],"stateMutability":"view","type":"function"},{"inputs":[],"name":"getMorphoBalance","outputs":[{"internalType":"uint256","name":"morphoBalance","type":"uint256"}],"stateMutability":"view","type":"function"},{"inputs":[],"name":"getTreasuryStats","outputs":[{"internalType":"uint256","name":"totalBalance","type":"uint256"},{"internalType":"uint256","name":"deposited","type":"uint256"},{"internalType":"uint256","name":"withdrawn","type":"uint256"},{"internalType":"uint256","name":"totalYield","type":"uint256"},{"internalType":"uint256","name":"lastUpdate","type":"uint256"}],"stateMutability":"view","type":"function"},{"inputs":[],"name":"lastYieldUpdate","outputs":[{"internalType":"uint256","name":"","type":"uint256"}],"stateMutability":"view","type":"function"},{"inputs":[],"name":"needsYieldUpdate","outputs":[{"internalType":"bool","name":"needed","type":"bool"}],"stateMutability":"view","type":"function"},{"inputs":[],"name":"owner","outputs":[{"internalType":"address","name":"","type":"address"}],"stateMutability":"view","type":"function"},{"inputs":[],"name":"pause","outputs":[],"stateMutability":"nonpayable","type":"function"},{"inputs":[],"name":"paused","outputs":[{"internalType":"bool","name":"","type":"bool"}],"stateMutability":"view","type":"function"},{"inputs":[],"name":"renounceOwnership","outputs":[],"stateMutability":"nonpayable","type":"function"},{"inputs":[{"internalType":"address","name":"newBuybackContract","type":"address"}],"name":"setBuybackContract","outputs":[],"stateMutability":"nonpayable","type":"function"},{"inputs":[{"internalType":"address","name":"newUtilityContract","type":"address"}],"name":"setUtilityContract","outputs":[],"stateMutability":"nonpayable","type":"function"},{"inputs":[],"name":"totalDeposited","outputs":[{"internalType":"uint256","name":"","type":"uint256"}],"stateMutability":"view","type":"function"},{"inputs":[],"name":"totalWithdrawn","outputs":[{"internalType":"uint256","name":"","type":"uint256"}],"stateMutability":"view","type":"function"},{"inputs":[{"internalType":"address","name":"newOwner","type":"address"}],"name":"transferOwnership","outputs":[],"stateMutability":"nonpayable","type":"function"},{"inputs":[],"name":"unpause","outputs":[],"stateMutability":"nonpayable","type":"function"},{"inputs":[],"name":"updateYield","outputs":[],"stateMutability":"nonpayable","type":"function"},{"inputs":[],"name":"utilityContract","outputs":[{"internalType":"address","name":"","type":"address"}],"stateMutability":"view","type":"function"},{"inputs":[{"internalType":"uint256","name":"amount","type":"uint256"},{"internalType":"address","name":"recipient","type":"address"}],"name":"withdrawFromMorpho","outputs":[],"stateMutability":"nonpayable","type":"function"},{"inputs":[{"internalType":"address","name":"","type":"address"}],"name":"yieldAllocated","outputs":[{"internalType":"uint256","name":"","type":"uint256"}],"stateMutability":"view","type":"function"},{"inputs":[{"internalType":"address","name":"","type":"address"}],"name":"yieldClaimed","outputs":[{"internalType":"uint256","name":"","type":"uint256"}],"stateMutability":"view","type":"function"}],"evm":{"bytecode":{"linkReferences":{},"object":"60806040523480156200001157600080fd5b5060405162001ac738038062001ac7833981016040819052620000349162000111565b600160005533806200006057604051631e4fbdf760e01b81526000600482015260240160405180910390fd5b6200006b81620000a2565b50600680546001600160a01b039384166001600160a01b031991821617909155600780549290931691161790554260045562000149565b600180546001600160a01b038381166001600160a01b0319831681179093556040519116919082907f8be0079c531659141344cd1fd0a4f28419497f9722a3daafe3b4186f6b6457e090600090a35050565b80516001600160a01b03811681146200010c57600080fd5b919050565b600080604083850312156200012557600080fd5b6200013083620000f4565b91506200014060208401620000f4565b90509250929050565b61196e80620001596000396000f3fe608060405234801561001057600080fd5b50600436106102115760003560e01c80638f8c8aee11610125578063bb21a997116100ad578063f2fde38b1161007c578063f2fde38b14610440578063f5a1561e14610453578063f78fae4614610466578063fcdfd5c51461046e578063ff50abdc1461047757600080fd5b8063bb21a997146103ed578063bf640de7146103f5578063c8692e3f14610408578063ccaad55d1461043857600080fd5b80639a7f8c54116100f45780639a7f8c541461039c578063a13c5847146103af578063a481293f146103ca578063a5749710146103d2578063b2325876146103da57600080fd5b80638f8c8aee1461036457806395ccea671461036d57806398d4b8a4146103805780639a3036841461038957600080fd5b806345bba697116101a8578063715018a611610177578063715018a6146103155780638456cb591461031d5780638542b3361461032557806389a30271146103385780638da5cb5b1461035357600080fd5b806345bba697146102ae5780634b319713146102ce5780634c859eaf146102d75780635c975abb146102f757600080fd5b80633d4c145f116101e45780633d4c145f146102825780633f4ba83a1461028b57806340bd2e231461029357806342879af1146102a657600080fd5b80630e085281146102165780633790762a146102315780633acb56241461023a5780633bdcfc1f1461026d575b600080fd5b61021e610480565b6040519081526020015b60405180910390f35b61021e6107d081565b61025573bbbbbbbbbb9cc5e90e3b3af64bdaf62c37eeffcb81565b6040516001600160a01b039091168152602001610228565b61028061027b3660046117be565b610517565b005b61021e6103e881565b6102806108b6565b6102806102a13660046117be565b6108c8565b61021e610bba565b61021e6102bc3660046117f3565b60096020526000908152604090205481565b61021e60035481565b61021e6102e53660046117f3565b60086020526000908152604090205481565b600154600160a01b900460ff165b6040519015158152602001610228565b610280610c0f565b610280610c21565b600754610255906001600160a01b031681565b61025573a0b86a33e6441b8db72c5ab9cbf4428c7bb060b681565b6001546001600160a01b0316610255565b61021e60045481565b61028061037b36600461180e565b610c31565b61021e611b5881565b6102806103973660046117f3565b610caf565b6102806103aa3660046117f3565b610d70565b61025573111111111111111111111111111111111111111181565b610305610e30565b61021e610e4b565b61021e6103e83660046117f3565b610f5e565b610280610f92565b610280610403366004611838565b61114a565b61041061153a565b604080519586526020860194909452928401919091526060830152608082015260a001610228565b61021e611567565b61028061044e3660046117f3565b6115e5565b600654610255906001600160a01b031681565b610280611620565b61021e60055481565b61021e60025481565b604051633de222bb60e21b8152306004820152731111111111111111111111111111111111111111602482015260009073bbbbbbbbbb9cc5e90e3b3af64bdaf62c37eeffcb9063f7888aec90604401602060405180830381865afa925050508015610508575060408051601f3d908101601f1916820190925261050591810190611864565b60015b6105125750600090565b905090565b61051f611628565b610527611655565b61052f61167f565b600081116105845760405162461bcd60e51b815260206004820152601d60248201527f416d6f756e74206d7573742062652067726561746572207468616e203000000060448201526064015b60405180910390fd5b6040516370a0823160e01b8152336004820152819073a0b86a33e6441b8db72c5ab9cbf4428c7bb060b6906370a0823190602401602060405180830381865afa1580156105d5573d6000803e3d6000fd5b505050506040513d601f19601f820116820180604052508101906105f99190611864565b10156106475760405162461bcd60e51b815260206004820152601960248201527f496e73756666696369656e7420555344432062616c616e636500000000000000604482015260640161057b565b6040516323b872dd60e01b81523360048201523060248201526044810182905273a0b86a33e6441b8db72c5ab9cbf4428c7bb060b6906323b872dd906064016020604051808303816000875af11580156106a5573d6000803e3d6000fd5b505050506040513d601f19601f820116820180604052508101906106c9919061187d565b5060405163095ea7b360e01b815273bbbbbbbbbb9cc5e90e3b3af64bdaf62c37eeffcb60048201526024810182905273a0b86a33e6441b8db72c5ab9cbf4428c7bb060b69063095ea7b3906044016020604051808303816000875af1158015610736573d6000803e3d6000fd5b505050506040513d601f19601f8201168201806040525081019061075a919061187d565b506040516330df733960e21b815273111111111111111111111111111111111111111160048201526024810182905260006044820181905230606483015260a0608483015260a482015273bbbbbbbbbb9cc5e90e3b3af64bdaf62c37eeffcb9063c37dcce49060c40160408051808303816000875af19250505080156107fd575060408051601f3d908101601f191682019092526107fa9181019061189f565b60015b61085657806002600082825461081391906118d9565b909155505060408051828152600060208201527fb0fe666fb738ff18b00250d08c3491e5ab1d17285008f46d46512a4518863362910160405180910390a16108a9565b816002600082825461086891906118d9565b909155505060408051838152602081018390527fb0fe666fb738ff18b00250d08c3491e5ab1d17285008f46d46512a4518863362910160405180910390a150505b6108b36001600055565b50565b6108be611628565b6108c66116aa565b565b6108d0611655565b6108d8610f92565b3360009081526009602090815260408083205460089092528220546108fd91906118ec565b9050600081116109445760405162461bcd60e51b81526020600482015260126024820152714e6f207969656c6420617661696c61626c6560701b604482015260640161057b565b600082156109525782610954565b815b9050818111156109a65760405162461bcd60e51b815260206004820152601a60248201527f496e73756666696369656e74207969656c642062616c616e6365000000000000604482015260640161057b565b33600090815260096020526040812080548392906109c59084906118d9565b90915550506040516370a0823160e01b815230600482015260009073a0b86a33e6441b8db72c5ab9cbf4428c7bb060b6906370a0823190602401602060405180830381865afa158015610a1c573d6000803e3d6000fd5b505050506040513d601f19601f82011682018060405250810190610a409190611864565b905081811015610af45760405163f99d990160e01b8152731111111111111111111111111111111111111111600482015260248101839052600060448201523060648201819052608482015273bbbbbbbbbb9cc5e90e3b3af64bdaf62c37eeffcb9063f99d99019060a40160408051808303816000875af1925050508015610ae5575060408051601f3d908101601f19168201909252610ae29181019061189f565b60015b610af157809150610af4565b50505b8115610bad5760405163a9059cbb60e01b81523360048201526024810183905273a0b86a33e6441b8db72c5ab9cbf4428c7bb060b69063a9059cbb906044016020604051808303816000875af1158015610b52573d6000803e3d6000fd5b505050506040513d601f19601f82011682018060405250810190610b76919061187d565b5060405182815233907fc04825ba3f383b602255d2a13065a68e325c65c9e0ed5d031ea2b06f641873af9060200160405180910390a25b5050506108b36001600055565b600080610bc5610e4b565b90506000600354600254610bd991906118ec565b905060055481610be991906118d9565b821115610c0a57600554610bfd82846118ec565b610c0791906118ec565b92505b505090565b610c17611628565b6108c660006116ff565b610c29611628565b6108c6611751565b610c39611628565b60405163a9059cbb60e01b8152336004820152602481018290526001600160a01b0383169063a9059cbb906044016020604051808303816000875af1158015610c86573d6000803e3d6000fd5b505050506040513d601f19601f82011682018060405250810190610caa919061187d565b505050565b610cb7611628565b6001600160a01b038116610cff5760405162461bcd60e51b815260206004820152600f60248201526e496e76616c6964206164647265737360881b604482015260640161057b565b600780546001600160a01b0319166001600160a01b03831690811782556040805181815290810192909252666275796261636b60c81b606083015260208201527ff611fec7babefd259c57ea5b6006acff8140ab17bb816c65ba0aa7e36c09caa8906080015b60405180910390a150565b610d78611628565b6001600160a01b038116610dc05760405162461bcd60e51b815260206004820152600f60248201526e496e76616c6964206164647265737360881b604482015260640161057b565b600680546001600160a01b0319166001600160a01b03831690811790915560408051818152600791810191909152667574696c69747960c81b606082015260208101919091527ff611fec7babefd259c57ea5b6006acff8140ab17bb816c65ba0aa7e36c09caa890608001610d65565b600060045462015180610e4391906118d9565b421015905090565b6040516370a0823160e01b8152306004820152600090819073a0b86a33e6441b8db72c5ab9cbf4428c7bb060b6906370a0823190602401602060405180830381865afa158015610e9f573d6000803e3d6000fd5b505050506040513d601f19601f82011682018060405250810190610ec39190611864565b604051633de222bb60e21b8152306004820152731111111111111111111111111111111111111111602482015290915073bbbbbbbbbb9cc5e90e3b3af64bdaf62c37eeffcb9063f7888aec90604401602060405180830381865afa925050508015610f4b575060408051601f3d908101601f19168201909252610f4891810190611864565b60015b610f5457919050565b610c0781836118d9565b6001600160a01b0381166000908152600960209081526040808320546008909252822054610f8c91906118ec565b92915050565b6000610f9c610e4b565b90506000600354600254610fb091906118ec565b90508082111561114657600554600090610fca83856118ec565b610fd491906118ec565b90508015610caa576000612710610fed611b58846118ff565b610ff79190611916565b9050600061271061100a6107d0856118ff565b6110149190611916565b905060006127106110276103e8866118ff565b6110319190611916565b9050826008600061104a6001546001600160a01b031690565b6001600160a01b03166001600160a01b03168152602001908152602001600020600082825461107991906118d9565b90915550506006546001600160a01b0316600090815260086020526040812080548492906110a89084906118d9565b90915550506007546001600160a01b0316600090815260086020526040812080548392906110d79084906118d9565b9250508190555083600560008282546110f091906118d9565b9091555050426004556040805185815260208101859052908101839052606081018290527fc39bd4b19f4d9308b07f50c64b0e693c21f81328f10f571b7f9433525808ea169060800160405180910390a1505050505b5050565b611152611628565b61115a611655565b600082116111aa5760405162461bcd60e51b815260206004820152601d60248201527f416d6f756e74206d7573742062652067726561746572207468616e2030000000604482015260640161057b565b6001600160a01b0381166111f45760405162461bcd60e51b8152602060048201526011602482015270125b9d985b1a59081c9958da5c1a595b9d607a1b604482015260640161057b565b6111fc610f92565b6040516370a0823160e01b815230600482015260009073a0b86a33e6441b8db72c5ab9cbf4428c7bb060b6906370a0823190602401602060405180830381865afa15801561124e573d6000803e3d6000fd5b505050506040513d601f19601f820116820180604052508101906112729190611864565b90508281106113065760405163a9059cbb60e01b81526001600160a01b03831660048201526024810184905273a0b86a33e6441b8db72c5ab9cbf4428c7bb060b69063a9059cbb906044016020604051808303816000875af11580156112dc573d6000803e3d6000fd5b505050506040513d601f19601f82011682018060405250810190611300919061187d565b506114ee565b60405163f99d990160e01b8152731111111111111111111111111111111111111111600482015260248101849052600060448201523060648201819052608482015273bbbbbbbbbb9cc5e90e3b3af64bdaf62c37eeffcb9063f99d99019060a40160408051808303816000875af19250505080156113a1575060408051601f3d908101601f1916820190925261139e9181019061189f565b60015b61144e5780156114495760405163a9059cbb60e01b81526001600160a01b03831660048201526024810182905273a0b86a33e6441b8db72c5ab9cbf4428c7bb060b69063a9059cbb906044016020604051808303816000875af115801561140c573d6000803e3d6000fd5b505050506040513d601f19601f82011682018060405250810190611430919061187d565b50806003600082825461144391906118d9565b90915550505b6114ee565b60405163a9059cbb60e01b81526001600160a01b03851660048201526024810183905273a0b86a33e6441b8db72c5ab9cbf4428c7bb060b69063a9059cbb906044016020604051808303816000875af11580156114af573d6000803e3d6000fd5b505050506040513d601f19601f820116820180604052508101906114d3919061187d565b5081600360008282546114e691906118d9565b909155505050505b604080518481526001600160a01b03841660208201527fa59a09dbed02191f26ab21e73b64160fde703647e4dbf06378d43a0e271d0bfa910160405180910390a1506111466001600055565b600080600080600061154a610e4b565b945060025493506003549250600554915060045490509091929394565b60006002546000148061157a5750600554155b156115855750600090565b60006004544261159591906118ec565b9050806000036115a757600091505090565b6000816002546115b791906118ff565b6005546115c8906301e133806118ff565b6115d4906127106118ff565b6115de9190611916565b9392505050565b6115ed611628565b6001600160a01b03811661161757604051631e4fbdf760e01b81526000600482015260240161057b565b6108b3816116ff565b6108c6610f92565b6001546001600160a01b031633146108c65760405163118cdaa760e01b815233600482015260240161057b565b60026000540361167857604051633ee5aeb560e01b815260040160405180910390fd5b6002600055565b600154600160a01b900460ff16156108c65760405163d93c066560e01b815260040160405180910390fd5b6116b2611794565b6001805460ff60a01b191690557f5db9ee0a495bf2e6ff9c91a7834c1ba4fdd244a5e8aa4e537bd38aeae4b073aa335b6040516001600160a01b03909116815260200160405180910390a1565b600180546001600160a01b038381166001600160a01b0319831681179093556040519116919082907f8be0079c531659141344cd1fd0a4f28419497f9722a3daafe3b4186f6b6457e090600090a35050565b61175961167f565b6001805460ff60a01b1916600160a01b1790557f62e78cea01bee320cd4e420270b5ea74000d11b0c9f74754ebdbfc544b05a2586116e23390565b600154600160a01b900460ff166108c657604051638dfc202b60e01b815260040160405180910390fd5b6000602082840312156117d057600080fd5b5035919050565b80356001600160a01b03811681146117ee57600080fd5b919050565b60006020828403121561180557600080fd5b6115de826117d7565b6000806040838503121561182157600080fd5b61182a836117d7565b946020939093013593505050565b6000806040838503121561184b57600080fd5b8235915061185b602084016117d7565b90509250929050565b60006020828403121561187657600080fd5b5051919050565b60006020828403121561188f57600080fd5b815180151581146115de57600080fd5b600080604083850312156118b257600080fd5b505080516020909101519092909150565b634e487b7160e01b600052601160045260246000fd5b80820180821115610f8c57610f8c6118c3565b81810381811115610f8c57610f8c6118c3565b8082028115828204841417610f8c57610f8c6118c3565b60008261193357634e487b7160e01b600052601260045260246000fd5b50049056fea2646970667358221220644a52b201a040c3335402efb0dd79c3f6fd7ff533f46275f7cf0e2b3185c0e664736f6c63430008140033","opcodes":"PUSH1 0x80 PUSH1 0x40 MSTORE CALLVALUE DUP1 ISZERO PUSH3 0x11 JUMPI PUSH1 0x0 DUP1 REVERT JUMPDEST POP PUSH1 0x40 MLOAD PUSH3 0x1AC7 CODESIZE SUB DUP1 PUSH3 0x1AC7 DUP4 CODECOPY DUP2 ADD PUSH1 0x40 DUP2 SWAP1 MSTORE PUSH3 0x34 SWAP2 PUSH3 0x111 JUMP JUMPDEST PUSH1 0x1 PUSH1 0x0 SSTORE CALLER DUP1 PUSH3 0x60 JUMPI PUSH1 0x40 MLOAD PUSH4 0x1E4FBDF7 PUSH1 0xE0 SHL DUP2 MSTORE PUSH1 0x0 PUSH1 0x4 DUP3 ADD MSTORE PUSH1 0x24 ADD PUSH1 0x40 MLOAD DUP1 SWAP2 SUB SWAP1 REVERT JUMPDEST PUSH3 0x6B DUP2 PUSH3 0xA2 JUMP JUMPDEST POP PUSH1 0x6 DUP1 SLOAD PUSH1 0x1 PUSH1 0x1 PUSH1 0xA0 SHL SUB SWAP4 DUP5 AND PUSH1 0x1 PUSH1 0x1 PUSH1 0xA0 SHL SUB NOT SWAP2 DUP3 AND OR SWAP1 SWAP2 SSTORE PUSH1 0x7 DUP1 SLOAD SWAP3 SWAP1 SWAP4 AND SWAP2 AND OR SWAP1 SSTORE TIMESTAMP PUSH1 0x4 SSTORE PUSH3 0x149 JUMP JUMPDEST PUSH1 0x1 DUP1 SLOAD PUSH1 0x1 PUSH1 0x1 PUSH1 0xA0 SHL SUB DUP4 DUP2 AND PUSH1 0x1 PUSH1 0x1 PUSH1 0xA0 SHL SUB NOT DUP4 AND DUP2 OR SWAP1 SWAP4 SSTORE PUSH1 0x40 MLOAD SWAP2 AND SWAP2 SWAP1 DUP3 SWAP1 PUSH32 0x8BE0079C531659141344CD1FD0A4F28419497F9722A3DAAFE3B4186F6B6457E0 SWAP1 PUSH1 0x0 SWAP1 LOG3 POP POP JUMP JUMPDEST DUP1 MLOAD PUSH1 0x1 PUSH1 0x1 PUSH1 0xA0 SHL SUB DUP2 AND DUP2 EQ PUSH3 0x10C JUMPI PUSH1 0x0 DUP1 REVERT JUMPDEST SWAP2 SWAP1 POP JUMP JUMPDEST PUSH1 0x0 DUP1 PUSH1 0x40 DUP4 DUP6 SUB SLT ISZERO PUSH3 0x125 JUMPI PUSH1 0x0 DUP1 REVERT JUMPDEST PUSH3 0x130 DUP4 PUSH3 0xF4 JUMP JUMPDEST SWAP2 POP PUSH3 0x140 PUSH1 0x20 DUP5 ADD PUSH3 0xF4 JUMP JUMPDEST SWAP1 POP SWAP3 POP SWAP3 SWAP1 POP JUMP JUMPDEST PUSH2 0x196E DUP1 PUSH3 0x159 PUSH1 0x0 CODECOPY PUSH1 0x0 RETURN INVALID PUSH1 0x80 PUSH1 0x40 MSTORE CALLVALUE DUP1 ISZERO PUSH2 0x10 JUMPI PUSH1 0x0 DUP1 REVERT JUMPDEST POP PUSH1 0x4 CALLDATASIZE LT PUSH2 0x211 JUMPI PUSH1 0x0 CALLDATALOAD PUSH1 0xE0 SHR DUP1 PUSH4 0x8F8C8AEE GT PUSH2 0x125 JUMPI DUP1 PUSH4 0xBB21A997 GT PUSH2 0xAD JUMPI DUP1 PUSH4 0xF2FDE38B GT PUSH2 0x7C JUMPI DUP1 PUSH4 0xF2FDE38B EQ PUSH2 0x440 JUMPI DUP1 PUSH4 0xF5A1561E EQ PUSH2 0x453 JUMPI DUP1 PUSH4 0xF78FAE46 EQ PUSH2 0x466 JUMPI DUP1 PUSH4 0xFCDFD5C5 EQ PUSH2 0x46E JUMPI DUP1 PUSH4 0xFF50ABDC EQ PUSH2 0x477 JUMPI PUSH1 0x0 DUP1 REVERT JUMPDEST DUP1 PUSH4 0xBB21A997 EQ PUSH2 0x3ED JUMPI DUP1 PUSH4 0xBF640DE7 EQ PUSH2 0x3F5 JUMPI DUP1 PUSH4 0xC8692E3F EQ PUSH2 0x408 JUMPI DUP1 PUSH4 0xCCAAD55D EQ PUSH2 0x438 JUMPI PUSH1 0x0 DUP1 REVERT JUMPDEST DUP1 PUSH4 0x9A7F8C54 GT PUSH2 0xF4 JUMPI DUP1 PUSH4 0x9A7F8C54 EQ PUSH2 0x39C JUMPI DUP1 PUSH4 0xA13C5847 EQ PUSH2 0x3AF JUMPI DUP1 PUSH4 0xA481293F EQ PUSH2 0x3CA JUMPI DUP1 PUSH4 0xA5749710 EQ PUSH2 0x3D2 JUMPI DUP1 PUSH4 0xB2325876 EQ PUSH2 0x3DA JUMPI PUSH1 0x0 DUP1 REVERT JUMPDEST DUP1 PUSH4 0x8F8C8AEE EQ PUSH2 0x364 JUMPI DUP1 PUSH4 0x95CCEA67 EQ PUSH2 0x36D JUMPI DUP1 PUSH4 0x98D4B8A4 EQ PUSH2 0x380 JUMPI DUP1 PUSH4 0x9A303684 EQ PUSH2 0x389 JUMPI PUSH1 0x0 DUP1 REVERT JUMPDEST DUP1 PUSH4 0x45BBA697 GT PUSH2 0x1A8 JUMPI DUP1 PUSH4 0x715018A6 GT PUSH2 0x177 JUMPI DUP1 PUSH4 0x715018A6 EQ PUSH2 0x315 JUMPI DUP1 PUSH4 0x8456CB59 EQ PUSH2 0x31D JUMPI DUP1 PUSH4 0x8542B336 EQ PUSH2 0x325 JUMPI DUP1 PUSH4 0x89A30271 EQ PUSH2 0x338 JUMPI DUP1 PUSH4 0x8DA5CB5B EQ PUSH2 0x353 JUMPI PUSH1 0x0 DUP1 REVERT JUMPDEST DUP1 PUSH4 0x45BBA697 EQ PUSH2 0x2AE JUMPI DUP1 PUSH4 0x4B319713 EQ PUSH2 0x2CE JUMPI DUP1 PUSH4 0x4C859EAF EQ PUSH2 0x2D7 JUMPI DUP1 PUSH4 0x5C975ABB EQ PUSH2 0x2F7 JUMPI PUSH1 0x0 DUP1 REVERT JUMPDEST DUP1 PUSH4 0x3D4C145F GT PUSH2 0x1E4 JUMPI DUP1 PUSH4 0x3D4C145F EQ PUSH2 0x282 JUMPI DUP1 PUSH4 0x3F4BA83A EQ PUSH2 0x28B JUMPI DUP1 PUSH4 0x40BD2E23 EQ PUSH2 0x293 JUMPI DUP1 PUSH4 0x42879AF1 EQ PUSH2 0x2A6 JUMPI PUSH1 0x0 DUP1 REVERT JUMPDEST DUP1 PUSH4 0xE085281 EQ PUSH2 0x216 JUMPI DUP1 PUSH4 0x3790762A EQ PUSH2 0x231 JUMPI DUP1 PUSH4 0x3ACB5624 EQ PUSH2 0x23A JUMPI DUP1 PUSH4 0x3BDCFC1F EQ PUSH2 0x26D JUMPI JUMPDEST PUSH1 0x0 DUP1 REVERT JUMPDEST PUSH2 0x21E PUSH2 0x480 JUMP JUMPDEST PUSH1 0x40 MLOAD SWAP1 DUP2 MSTORE PUSH1 0x20 ADD JUMPDEST PUSH1 0x40 MLOAD DUP1 SWAP2 SUB SWAP1 RETURN JUMPDEST PUSH2 0x21E PUSH2 0x7D0 DUP2 JUMP JUMPDEST PUSH2 0x255 PUSH20 0xBBBBBBBBBB9CC5E90E3B3AF64BDAF62C37EEFFCB DUP2 JUMP JUMPDEST PUSH1 0x40 MLOAD PUSH1 0x1 PUSH1 0x1 PUSH1 0xA0 SHL SUB SWAP1 SWAP2 AND DUP2 MSTORE PUSH1 0x20 ADD PUSH2 0x228 JUMP JUMPDEST PUSH2 0x280 PUSH2 0x27B CALLDATASIZE PUSH1 0x4 PUSH2 0x17BE JUMP JUMPDEST PUSH2 0x517 JUMP JUMPDEST STOP JUMPDEST PUSH2 0x21E PUSH2 0x3E8 DUP2 JUMP JUMPDEST PUSH2 0x280 PUSH2 0x8B6 JUMP JUMPDEST PUSH2 0x280 PUSH2 0x2A1 CALLDATASIZE PUSH1 0x4 PUSH2 0x17BE JUMP JUMPDEST PUSH2 0x8C8 JUMP JUMPDEST PUSH2 0x21E PUSH2 0xBBA JUMP JUMPDEST PUSH2 0x21E PUSH2 0x2BC CALLDATASIZE PUSH1 0x4 PUSH2 0x17F3 JUMP JUMPDEST PUSH1 0x9 PUSH1 0x20 MSTORE PUSH1 0x0 SWAP1 DUP2 MSTORE PUSH1 0x40 SWAP1 KECCAK256 SLOAD DUP2 JUMP JUMPDEST PUSH2 0x21E PUSH1 0x3 SLOAD DUP2 JUMP JUMPDEST PUSH2 0x21E PUSH2 0x2E5 CALLDATASIZE PUSH1 0x4 PUSH2 0x17F3 JUMP JUMPDEST PUSH1 0x8 PUSH1 0x20 MSTORE PUSH1 0x0 SWAP1 DUP2 MSTORE PUSH1 0x40 SWAP1 KECCAK256 SLOAD DUP2 JUMP JUMPDEST PUSH1 0x1 SLOAD PUSH1 0x1 PUSH1 0xA0 SHL SWAP1 DIV PUSH1 0xFF AND JUMPDEST PUSH1 0x40 MLOAD SWAP1 ISZERO ISZERO DUP2 MSTORE PUSH1 0x20 ADD PUSH2 0x228 JUMP JUMPDEST PUSH2 0x280 PUSH2 0xC0F JUMP JUMPDEST PUSH2 0x280 PUSH2 0xC21 JUMP JUMPDEST PUSH1 0x7 SLOAD PUSH2 0x255 SWAP1 PUSH1 0x1 PUSH1 0x1 PUSH1 0xA0 SHL SUB AND DUP2 JUMP JUMPDEST PUSH2 0x255 PUSH20 0xA0B86A33E6441B8DB72C5AB9CBF4428C7BB060B6 DUP2 JUMP JUMPDEST PUSH1 0x1 SLOAD PUSH1 0x1 PUSH1 0x1 PUSH1 0xA0 SHL SUB AND PUSH2 0x255 JUMP JUMPDEST PUSH2 0x21E PUSH1 0x4 SLOAD DUP2 JUMP JUMPDEST PUSH2 0x280 PUSH2 0x37B CALLDATASIZE PUSH1 0x4 PUSH2 0x180E JUMP JUMPDEST PUSH2 0xC31 JUMP JUMPDEST PUSH2 0x21E PUSH2 0x1B58 DUP2 JUMP JUMPDEST PUSH2 0x280 PUSH2 0x397 CALLDATASIZE PUSH1 0x4 PUSH2 0x17F3 JUMP JUMPDEST PUSH2 0xCAF JUMP JUMPDEST PUSH2 0x280 PUSH2 0x3AA CALLDATASIZE PUSH1 0x4 PUSH2 0x17F3 JUMP JUMPDEST PUSH2 0xD70 JUMP JUMPDEST PUSH2 0x255 PUSH20 0x1111111111111111111111111111111111111111 DUP2 JUMP JUMPDEST PUSH2 0x305 PUSH2 0xE30 JUMP JUMPDEST PUSH2 0x21E PUSH2 0xE4B JUMP JUMPDEST PUSH2 0x21E PUSH2 0x3E8 CALLDATASIZE PUSH1 0x4 PUSH2 0x17F3 JUMP JUMPDEST PUSH2 0xF5E JUMP JUMPDEST PUSH2 0x280 PUSH2 0xF92 JUMP JUMPDEST PUSH2 0x280 PUSH2 0x403 CALLDATASIZE PUSH1 0x4 PUSH2 0x1838 JUMP JUMPDEST PUSH2 0x114A JUMP JUMPDEST PUSH2 0x410 PUSH2 0x153A JUMP JUMPDEST PUSH1 0x40 DUP1 MLOAD SWAP6 DUP7 MSTORE PUSH1 0x20 DUP7 ADD SWAP5 SWAP1 SWAP5 MSTORE SWAP3 DUP5 ADD SWAP2 SWAP1 SWAP2 MSTORE PUSH1 0x60 DUP4 ADD MSTORE PUSH1 0x80 DUP3 ADD MSTORE PUSH1 0xA0 ADD PUSH2 0x228 JUMP JUMPDEST PUSH2 0x21E PUSH2 0x1567 JUMP JUMPDEST PUSH2 0x280 PUSH2 0x44E CALLDATASIZE PUSH1 0x4 PUSH2 0x17F3 JUMP JUMPDEST PUSH2 0x15E5 JUMP JUMPDEST PUSH1 0x6 SLOAD PUSH2 0x255 SWAP1 PUSH1 0x1 PUSH1 0x1 PUSH1 0xA0 SHL SUB AND DUP2 JUMP JUMPDEST PUSH2 0x280 PUSH2 0x1620 JUMP JUMPDEST PUSH2 0x21E PUSH1 0x5 SLOAD DUP2 JUMP JUMPDEST PUSH2 0x21E PUSH1 0x2 SLOAD DUP2 JUMP JUMPDEST PUSH1 0x40 MLOAD PUSH4 0x3DE222BB PUSH1 0xE2 SHL DUP2 MSTORE ADDRESS PUSH1 0x4 DUP3 ADD MSTORE PUSH20 0x1111111111111111111111111111111111111111 PUSH1 0x24 DUP3 ADD MSTORE PUSH1 0x0 SWAP1 PUSH20 0xBBBBBBBBBB9CC5E90E3B3AF64BDAF62C37EEFFCB SWAP1 PUSH4 0xF7888AEC SWAP1 PUSH1 0x44 ADD PUSH1 0x20 PUSH1 0x40 MLOAD DUP1 DUP4 SUB DUP2 DUP7 GAS STATICCALL SWAP3 POP POP POP DUP1 ISZERO PUSH2 0x508 JUMPI POP PUSH1 0x40 DUP1 MLOAD PUSH1 0x1F RETURNDATASIZE SWAP1 DUP2 ADD PUSH1 0x1F NOT AND DUP3 ADD SWAP1 SWAP3 MSTORE PUSH2 0x505 SWAP2 DUP2 ADD SWAP1 PUSH2 0x1864 JUMP JUMPDEST PUSH1 0x1 JUMPDEST PUSH2 0x512 JUMPI POP PUSH1 0x0 SWAP1 JUMP JUMPDEST SWAP1 POP SWAP1 JUMP JUMPDEST PUSH2 0x51F PUSH2 0x1628 JUMP JUMPDEST PUSH2 0x527 PUSH2 0x1655 JUMP JUMPDEST PUSH2 0x52F PUSH2 0x167F JUMP JUMPDEST PUSH1 0x0 DUP2 GT PUSH2 0x584 JUMPI PUSH1 0x40 MLOAD PUSH3 0x461BCD PUSH1 0xE5 SHL DUP2 MSTORE PUSH1 0x20 PUSH1 0x4 DUP3 ADD MSTORE PUSH1 0x1D PUSH1 0x24 DUP3 ADD MSTORE PUSH32 0x416D6F756E74206D7573742062652067726561746572207468616E2030000000 PUSH1 0x44 DUP3 ADD MSTORE PUSH1 0x64 ADD JUMPDEST PUSH1 0x40 MLOAD DUP1 SWAP2 SUB SWAP1 REVERT JUMPDEST PUSH1 0x40 MLOAD PUSH4 0x70A08231 PUSH1 0xE0 SHL DUP2 MSTORE CALLER PUSH1 0x4 DUP3 ADD MSTORE DUP2 SWAP1 PUSH20 0xA0B86A33E6441B8DB72C5AB9CBF4428C7BB060B6 SWAP1 PUSH4 0x70A08231 SWAP1 PUSH1 0x24 ADD PUSH1 0x20 PUSH1 0x40 MLOAD DUP1 DUP4 SUB DUP2 DUP7 GAS STATICCALL ISZERO DUP1 ISZERO PUSH2 0x5D5 JUMPI RETURNDATASIZE PUSH1 0x0 DUP1 RETURNDATACOPY RETURNDATASIZE PUSH1 0x0 REVERT JUMPDEST POP POP POP POP PUSH1 0x40 MLOAD RETURNDATASIZE PUSH1 0x1F NOT PUSH1 0x1F DUP3 ADD AND DUP3 ADD DUP1 PUSH1 0x40 MSTORE POP DUP2 ADD SWAP1 PUSH2 0x5F9 SWAP2 SWAP1 PUSH2 0x1864 JUMP JUMPDEST LT ISZERO PUSH2 0x647 JUMPI PUSH1 0x40 MLOAD PUSH3 0x461BCD PUSH1 0xE5 SHL DUP2 MSTORE PUSH1 0x20 PUSH1 0x4 DUP3 ADD MSTORE PUSH1 0x19 PUSH1 0x24 DUP3 ADD MSTORE PUSH32 0x496E73756666696369656E7420555344432062616C616E636500000000000000 PUSH1 0x44 DUP3 ADD MSTORE PUSH1 0x64 ADD PUSH2 0x57B JUMP JUMPDEST PUSH1 0x40 MLOAD PUSH4 0x23B872DD PUSH1 0xE0 SHL DUP2 MSTORE CALLER PUSH1 0x4 DUP3 ADD MSTORE ADDRESS PUSH1 0x24 DUP3 ADD MSTORE PUSH1 0x44 DUP2 ADD DUP3 SWAP1 MSTORE PUSH20 0xA0B86A33E6441B8DB72C5AB9CBF4428C7BB060B6 SWAP1 PUSH4 0x23B872DD SWAP1 PUSH1 0x64 ADD PUSH1 0x20 PUSH1 0x40 MLOAD DUP1 DUP4 SUB DUP2 PUSH1 0x0 DUP8 GAS CALL ISZERO DUP1 ISZERO PUSH2 0x6A5 JUMPI RETURNDATASIZE PUSH1 0x0 DUP1 RETURNDATACOPY RETURNDATASIZE PUSH1 0x0 REVERT JUMPDEST POP POP POP POP PUSH1 0x40 MLOAD RETURNDATASIZE PUSH1 0x1F NOT PUSH1 0x1F DUP3 ADD AND DUP3 ADD DUP1 PUSH1 0x40 MSTORE POP DUP2 ADD SWAP1 PUSH2 0x6C9 SWAP2 SWAP1 PUSH2 0x187D JUMP JUMPDEST POP PUSH1 0x40 MLOAD PUSH4 0x95EA7B3 PUSH1 0xE0 SHL DUP2 MSTORE PUSH20 0xBBBBBBBBBB9CC5E90E3B3AF64BDAF62C37EEFFCB PUSH1 0x4 DUP3 ADD MSTORE PUSH1 0x24 DUP2 ADD DUP3 SWAP1 MSTORE PUSH20 0xA0B86A33E6441B8DB72C5AB9CBF4428C7BB060B6 SWAP1 PUSH4 0x95EA7B3 SWAP1 PUSH1 0x44 ADD PUSH1 0x20 PUSH1 0x40 MLOAD DUP1 DUP4 SUB DUP2 PUSH1 0x0 DUP8 GAS CALL ISZERO DUP1 ISZERO PUSH2 0x736 JUMPI RETURNDATASIZE PUSH1 0x0 DUP1 RETURNDATACOPY RETURNDATASIZE PUSH1 0x0 REVERT JUMPDEST POP POP POP POP PUSH1 0x40 MLOAD RETURNDATASIZE PUSH1 0x1F NOT PUSH1 0x1F DUP3 ADD AND DUP3 ADD DUP1 PUSH1 0x40 MSTORE POP DUP2 ADD SWAP1 PUSH2 0x75A SWAP2 SWAP1 PUSH2 0x187D JUMP JUMPDEST POP PUSH1 0x40 MLOAD PUSH4 0x30DF7339 PUSH1 0xE2 SHL DUP2 MSTORE PUSH20 0x1111111111111111111111111111111111111111 PUSH1 0x4 DUP3 ADD MSTORE PUSH1 0x24 DUP2 ADD DUP3 SWAP1 MSTORE PUSH1 0x0 PUSH1 0x44 DUP3 ADD DUP2 SWAP1 MSTORE ADDRESS PUSH1 0x64 DUP4 ADD MSTORE PUSH1 0xA0 PUSH1 0x84 DUP4 ADD MSTORE PUSH1 0xA4 DUP3 ADD MSTORE PUSH20 0xBBBBBBBBBB9CC5E90E3B3AF64BDAF62C37EEFFCB SWAP1 PUSH4 0xC37DCCE4 SWAP1 PUSH1 0xC4 ADD PUSH1 0x40 DUP1 MLOAD DUP1 DUP4 SUB DUP2 PUSH1 0x0 DUP8 GAS CALL SWAP3 POP POP POP DUP1 ISZERO PUSH2 0x7FD JUMPI POP PUSH1 0x40 DUP1 MLOAD PUSH1 0x1F RETURNDATASIZE SWAP1 DUP2 ADD PUSH1 0x1F NOT AND DUP3 ADD SWAP1 SWAP3 MSTORE PUSH2 0x7FA SWAP2 DUP2 ADD SWAP1 PUSH2 0x189F JUMP JUMPDEST PUSH1 0x1 JUMPDEST PUSH2 0x856 JUMPI DUP1 PUSH1 0x2 PUSH1 0x0 DUP3 DUP3 SLOAD PUSH2 0x813 SWAP2 SWAP1 PUSH2 0x18D9 JUMP JUMPDEST SWAP1 SWAP2 SSTORE POP POP PUSH1 0x40 DUP1 MLOAD DUP3 DUP2 MSTORE PUSH1 0x0 PUSH1 0x20 DUP3 ADD MSTORE PUSH32 0xB0FE666FB738FF18B00250D08C3491E5AB1D17285008F46D46512A4518863362 SWAP2 ADD PUSH1 0x40 MLOAD DUP1 SWAP2 SUB SWAP1 LOG1 PUSH2 0x8A9 JUMP JUMPDEST DUP2 PUSH1 0x2 PUSH1 0x0 DUP3 DUP3 SLOAD PUSH2 0x868 SWAP2 SWAP1 PUSH2 0x18D9 JUMP JUMPDEST SWAP1 SWAP2 SSTORE POP POP PUSH1 0x40 DUP1 MLOAD DUP4 DUP2 MSTORE PUSH1 0x20 DUP2 ADD DUP4 SWAP1 MSTORE PUSH32 0xB0FE666FB738FF18B00250D08C3491E5AB1D17285008F46D46512A4518863362 SWAP2 ADD PUSH1 0x40 MLOAD DUP1 SWAP2 SUB SWAP1 LOG1 POP POP JUMPDEST PUSH2 0x8B3 PUSH1 0x1 PUSH1 0x0 SSTORE JUMP JUMPDEST POP JUMP JUMPDEST PUSH2 0x8BE PUSH2 0x1628 JUMP JUMPDEST PUSH2 0x8C6 PUSH2 0x16AA JUMP JUMPDEST JUMP JUMPDEST PUSH2 0x8D0 PUSH2 0x1655 JUMP JUMPDEST PUSH2 0x8D8 PUSH2 0xF92 JUMP JUMPDEST CALLER PUSH1 0x0 SWAP1 DUP2 MSTORE PUSH1 0x9 PUSH1 0x20 SWAP1 DUP2 MSTORE PUSH1 0x40 DUP1 DUP4 KECCAK256 SLOAD PUSH1 0x8 SWAP1 SWAP3 MSTORE DUP3 KECCAK256 SLOAD PUSH2 0x8FD SWAP2 SWAP1 PUSH2 0x18EC JUMP JUMPDEST SWAP1 POP PUSH1 0x0 DUP2 GT PUSH2 0x944 JUMPI PUSH1 0x40 MLOAD PUSH3 0x461BCD PUSH1 0xE5 SHL DUP2 MSTORE PUSH1 0x20 PUSH1 0x4 DUP3 ADD MSTORE PUSH1 0x12 PUSH1 0x24 DUP3 ADD MSTORE PUSH18 0x4E6F207969656C6420617661696C61626C65 PUSH1 0x70 SHL PUSH1 0x44 DUP3 ADD MSTORE PUSH1 0x64 ADD PUSH2 0x57B JUMP JUMPDEST PUSH1 0x0 DUP3 ISZERO PUSH2 0x952 JUMPI DUP3 PUSH2 0x954 JUMP JUMPDEST DUP2 JUMPDEST SWAP1 POP DUP2 DUP2 GT ISZERO PUSH2 0x9A6 JUMPI PUSH1 0x40 MLOAD PUSH3 0x461BCD PUSH1 0xE5 SHL DUP2 MSTORE PUSH1 0x20 PUSH1 0x4 DUP3 ADD MSTORE PUSH1 0x1A PUSH1 0x24 DUP3 ADD MSTORE PUSH32 0x496E73756666696369656E74207969656C642062616C616E6365000000000000 PUSH1 0x44 DUP3 ADD MSTORE PUSH1 0x64 ADD PUSH2 0x57B JUMP JUMPDEST CALLER PUSH1 0x0 SWAP1 DUP2 MSTORE PUSH1 0x9 PUSH1 0x20 MSTORE PUSH1 0x40 DUP2 KECCAK256 DUP1 SLOAD DUP4 SWAP3 SWAP1 PUSH2 0x9C5 SWAP1 DUP5 SWAP1 PUSH2 0x18D9 JUMP JUMPDEST SWAP1 SWAP2 SSTORE POP POP PUSH1 0x40 MLOAD PUSH4 0x70A08231 PUSH1 0xE0 SHL DUP2 MSTORE ADDRESS PUSH1 0x4 DUP3 ADD MSTORE PUSH1 0x0 SWAP1 PUSH20 0xA0B86A33E6441B8DB72C5AB9CBF4428C7BB060B6 SWAP1 PUSH4 0x70A08231 SWAP1 PUSH1 0x24 ADD PUSH1 0x20 PUSH1 0x40 MLOAD DUP1 DUP4 SUB DUP2 DUP7 GAS STATICCALL ISZERO DUP1 ISZERO PUSH2 0xA1C JUMPI RETURNDATASIZE PUSH1 0x0 DUP1 RETURNDATACOPY RETURNDATASIZE PUSH1 0x0 REVERT JUMPDEST POP POP POP POP PUSH1 0x40 MLOAD RETURNDATASIZE PUSH1 0x1F NOT PUSH1 0x1F DUP3 ADD AND DUP3 ADD DUP1 PUSH1 0x40 MSTORE POP DUP2 ADD SWAP1 PUSH2 0xA40 SWAP2 SWAP1 PUSH2 0x1864 JUMP JUMPDEST SWAP1 POP DUP2 DUP2 LT ISZERO PUSH2 0xAF4 JUMPI PUSH1 0x40 MLOAD PUSH4 0xF99D9901 PUSH1 0xE0 SHL DUP2 MSTORE PUSH20 0x1111111111111111111111111111111111111111 PUSH1 0x4 DUP3 ADD MSTORE PUSH1 0x24 DUP2 ADD DUP4 SWAP1 MSTORE PUSH1 0x0 PUSH1 0x44 DUP3 ADD MSTORE ADDRESS PUSH1 0x64 DUP3 ADD DUP2 SWAP1 MSTORE PUSH1 0x84 DUP3 ADD MSTORE PUSH20 0xBBBBBBBBBB9CC5E90E3B3AF64BDAF62C37EEFFCB SWAP1 PUSH4 0xF99D9901 SWAP1 PUSH1 0xA4 ADD PUSH1 0x40 DUP1 MLOAD DUP1 DUP4 SUB DUP2 PUSH1 0x0 DUP8 GAS CALL SWAP3 POP POP POP DUP1 ISZERO PUSH2 0xAE5 JUMPI POP PUSH1 0x40 DUP1 MLOAD PUSH1 0x1F RETURNDATASIZE SWAP1 DUP2 ADD PUSH1 0x1F NOT AND DUP3 ADD SWAP1 SWAP3 MSTORE PUSH2 0xAE2 SWAP2 DUP2 ADD SWAP1 PUSH2 0x189F JUMP JUMPDEST PUSH1 0x1 JUMPDEST PUSH2 0xAF1 JUMPI DUP1 SWAP2 POP PUSH2 0xAF4 JUMP JUMPDEST POP POP JUMPDEST DUP2 ISZERO PUSH2 0xBAD JUMPI PUSH1 0x40 MLOAD PUSH4 0xA9059CBB PUSH1 0xE0 SHL DUP2 MSTORE CALLER PUSH1 0x4 DUP3 ADD MSTORE PUSH1 0x24 DUP2 ADD DUP4 SWAP1 MSTORE PUSH20 0xA0B86A33E6441B8DB72C5AB9CBF4428C7BB060B6 SWAP1 PUSH4 0xA9059CBB SWAP1 PUSH1 0x44 ADD PUSH1 0x20 PUSH1 0x40 MLOAD DUP1 DUP4 SUB DUP2 PUSH1 0x0 DUP8 GAS CALL ISZERO DUP1 ISZERO PUSH2 0xB52 JUMPI RETURNDATASIZE PUSH1 0x0 DUP1 RETURNDATACOPY RETURNDATASIZE PUSH1 0x0 REVERT JUMPDEST POP POP POP POP PUSH1 0x40 MLOAD RETURNDATASIZE PUSH1 0x1F NOT PUSH1 0x1F DUP3 ADD AND DUP3 ADD DUP1 PUSH1 0x40 MSTORE POP DUP2 ADD SWAP1 PUSH2 0xB76 SWAP2 SWAP1 PUSH2 0x187D JUMP JUMPDEST POP PUSH1 0x40 MLOAD DUP3 DUP2 MSTORE CALLER SWAP1 PUSH32 0xC04825BA3F383B602255D2A13065A68E325C65C9E0ED5D031EA2B06F641873AF SWAP1 PUSH1 0x20 ADD PUSH1 0x40 MLOAD DUP1 SWAP2 SUB SWAP1 LOG2 JUMPDEST POP POP POP PUSH2 0x8B3 PUSH1 0x1 PUSH1 0x0 SSTORE JUMP JUMPDEST PUSH1 0x0 DUP1 PUSH2 0xBC5 PUSH2 0xE4B JUMP JUMPDEST SWAP1 POP PUSH1 0x0 PUSH1 0x3 SLOAD PUSH1 0x2 SLOAD PUSH2 0xBD9 SWAP2 SWAP1 PUSH2 0x18EC JUMP JUMPDEST SWAP1 POP PUSH1 0x5 SLOAD DUP2 PUSH2 0xBE9 SWAP2 SWAP1 PUSH2 0x18D9 JUMP JUMPDEST DUP3 GT ISZERO PUSH2 0xC0A JUMPI PUSH1 0x5 SLOAD PUSH2 0xBFD DUP3 DUP5 PUSH2 0x18EC JUMP JUMPDEST PUSH2 0xC07 SWAP2 SWAP1 PUSH2 0x18EC JUMP JUMPDEST SWAP3 POP JUMPDEST POP POP SWAP1 JUMP JUMPDEST PUSH2 0xC17 PUSH2 0x1628 JUMP JUMPDEST PUSH2 0x8C6 PUSH1 0x0 PUSH2 0x16FF JUMP JUMPDEST PUSH2 0xC29 PUSH2 0x1628 JUMP JUMPDEST PUSH2 0x8C6 PUSH2 0x1751 JUMP JUMPDEST PUSH2 0xC39 PUSH2 0x1628 JUMP JUMPDEST PUSH1 0x40 MLOAD PUSH4 0xA9059CBB PUSH1 0xE0 SHL DUP2 MSTORE CALLER PUSH1 0x4 DUP3 ADD MSTORE PUSH1 0x24 DUP2 ADD DUP3 SWAP1 MSTORE PUSH1 0x1 PUSH1 0x1 PUSH1 0xA0 SHL SUB DUP4 AND SWAP1 PUSH4 0xA9059CBB SWAP1 PUSH1 0x44 ADD PUSH1 0x20 PUSH1 0x40 MLOAD DUP1 DUP4 SUB DUP2 PUSH1 0x0 DUP8 GAS CALL ISZERO DUP1 ISZERO PUSH2 0xC86 JUMPI RETURNDATASIZE PUSH1 0x0 DUP1 RETURNDATACOPY RETURNDATASIZE PUSH1 0x0 REVERT JUMPDEST POP POP POP POP PUSH1 0x40 MLOAD RETURNDATASIZE PUSH1 0x1F NOT PUSH1 0x1F DUP3 ADD AND DUP3 ADD DUP1 PUSH1 0x40 MSTORE POP DUP2 ADD SWAP1 PUSH2 0xCAA SWAP2 SWAP1 PUSH2 0x187D JUMP JUMPDEST POP POP POP JUMP JUMPDEST PUSH2 0xCB7 PUSH2 0x1628 JUMP JUMPDEST PUSH1 0x1 PUSH1 0x1 PUSH1 0xA0 SHL SUB DUP2 AND PUSH2 0xCFF JUMPI PUSH1 0x40 MLOAD PUSH3 0x461BCD PUSH1 0xE5 SHL DUP2 MSTORE PUSH1 0x20 PUSH1 0x4 DUP3 ADD MSTORE PUSH1 0xF PUSH1 0x24 DUP3 ADD MSTORE PUSH15 0x496E76616C69642061646472657373 PUSH1 0x88 SHL PUSH1 0x44 DUP3 ADD MSTORE PUSH1 0x64 ADD PUSH2 0x57B JUMP JUMPDEST PUSH1 0x7 DUP1 SLOAD PUSH1 0x1 PUSH1 0x1 PUSH1 0xA0 SHL SUB NOT AND PUSH1 0x1 PUSH1 0x1 PUSH1 0xA0 SHL SUB DUP4 AND SWAP1 DUP2 OR DUP3 SSTORE PUSH1 0x40 DUP1 MLOAD DUP2 DUP2 MSTORE SWAP1 DUP2 ADD SWAP3 SWAP1 SWAP3 MSTORE PUSH7 0x6275796261636B PUSH1 0xC8 SHL PUSH1 0x60 DUP4 ADD MSTORE PUSH1 0x20 DUP3 ADD MSTORE PUSH32 0xF611FEC7BABEFD259C57EA5B6006ACFF8140AB17BB816C65BA0AA7E36C09CAA8 SWAP1 PUSH1 0x80 ADD JUMPDEST PUSH1 0x40 MLOAD DUP1 SWAP2 SUB SWAP1 LOG1 POP JUMP JUMPDEST PUSH2 0xD78 PUSH2 0x1628 JUMP JUMPDEST PUSH1 0x1 PUSH1 0x1 PUSH1 0xA0 SHL SUB DUP2 AND PUSH2 0xDC0 JUMPI PUSH1 0x40 MLOAD PUSH3 0x461BCD PUSH1 0xE5 SHL DUP2 MSTORE PUSH1 0x20 PUSH1 0x4 DUP3 ADD MSTORE PUSH1 0xF PUSH1 0x24 DUP3 ADD MSTORE PUSH15 0x496E76616C69642061646472657373 PUSH1 0x88 SHL PUSH1 0x44 DUP3 ADD MSTORE PUSH1 0x64 ADD PUSH2 0x57B JUMP JUMPDEST PUSH1 0x6 DUP1 SLOAD PUSH1 0x1 PUSH1 0x1 PUSH1 0xA0 SHL SUB NOT AND PUSH1 0x1 PUSH1 0x1 PUSH1 0xA0 SHL SUB DUP4 AND SWAP1 DUP2 OR SWAP1 SWAP2 SSTORE PUSH1 0x40 DUP1 MLOAD DUP2 DUP2 MSTORE PUSH1 0x7 SWAP2 DUP2 ADD SWAP2 SWAP1 SWAP2 MSTORE PUSH7 0x7574696C697479 PUSH1 0xC8 SHL PUSH1 0x60 DUP3 ADD MSTORE PUSH1 0x20 DUP2 ADD SWAP2 SWAP1 SWAP2 MSTORE PUSH32 0xF611FEC7BABEFD259C57EA5B6006ACFF8140AB17BB816C65BA0AA7E36C09CAA8 SWAP1 PUSH1 0x80 ADD PUSH2 0xD65 JUMP JUMPDEST PUSH1 0x0 PUSH1 0x4 SLOAD PUSH3 0x15180 PUSH2 0xE43 SWAP2 SWAP1 PUSH2 0x18D9 JUMP JUMPDEST TIMESTAMP LT ISZERO SWAP1 POP SWAP1 JUMP JUMPDEST PUSH1 0x40 MLOAD PUSH4 0x70A08231 PUSH1 0xE0 SHL DUP2 MSTORE ADDRESS PUSH1 0x4 DUP3 ADD MSTORE PUSH1 0x0 SWAP1 DUP2 SWAP1 PUSH20 0xA0B86A33E6441B8DB72C5AB9CBF4428C7BB060B6 SWAP1 PUSH4 0x70A08231 SWAP1 PUSH1 0x24 ADD PUSH1 0x20 PUSH1 0x40 MLOAD DUP1 DUP4 SUB DUP2 DUP7 GAS STATICCALL ISZERO DUP1 ISZERO PUSH2 0xE9F JUMPI RETURNDATASIZE PUSH1 0x0 DUP1 RETURNDATACOPY RETURNDATASIZE PUSH1 0x0 REVERT JUMPDEST POP POP POP POP PUSH1 0x40 MLOAD RETURNDATASIZE PUSH1 0x1F NOT PUSH1 0x1F DUP3 ADD AND DUP3 ADD DUP1 PUSH1 0x40 MSTORE POP DUP2 ADD SWAP1 PUSH2 0xEC3 SWAP2 SWAP1 PUSH2 0x1864 JUMP JUMPDEST PUSH1 0x40 MLOAD PUSH4 0x3DE222BB PUSH1 0xE2 SHL DUP2 MSTORE ADDRESS PUSH1 0x4 DUP3 ADD MSTORE PUSH20 0x1111111111111111111111111111111111111111 PUSH1 0x24 DUP3 ADD MSTORE SWAP1 SWAP2 POP PUSH20 0xBBBBBBBBBB9CC5E90E3B3AF64BDAF62C37EEFFCB SWAP1 PUSH4 0xF7888AEC SWAP1 PUSH1 0x44 ADD PUSH1 0x20 PUSH1 0x40 MLOAD DUP1 DUP4 SUB DUP2 DUP7 GAS STATICCALL SWAP3 POP POP POP DUP1 ISZERO PUSH2 0xF4B JUMPI POP PUSH1 0x40 DUP1 MLOAD PUSH1 0x1F RETURNDATASIZE SWAP1 DUP2 ADD PUSH1 0x1F NOT AND DUP3 ADD SWAP1 SWAP3 MSTORE PUSH2 0xF48 SWAP2 DUP2 ADD SWAP1 PUSH2 0x1864 JUMP JUMPDEST PUSH1 0x1 JUMPDEST PUSH2 0xF54 JUMPI SWAP2 SWAP1 POP JUMP JUMPDEST PUSH2 0xC07 DUP2 DUP4 PUSH2 0x18D9 JUMP JUMPDEST PUSH1 0x1 PUSH1 0x1 PUSH1 0xA0 SHL SUB DUP2 AND PUSH1 0x0 SWAP1 DUP2 MSTORE PUSH1 0x9 PUSH1 0x20 SWAP1 DUP2 MSTORE PUSH1 0x40 DUP1 DUP4 KECCAK256 SLOAD PUSH1 0x8 SWAP1 SWAP3 MSTORE DUP3 KECCAK256 SLOAD PUSH2 0xF8C SWAP2 SWAP1 PUSH2 0x18EC JUMP JUMPDEST SWAP3 SWAP2 POP POP JUMP JUMPDEST PUSH1 0x0 PUSH2 0xF9C PUSH2 0xE4B JUMP JUMPDEST SWAP1 POP PUSH1 0x0 PUSH1 0x3 SLOAD PUSH1 0x2 SLOAD PUSH2 0xFB0 SWAP2 SWAP1 PUSH2 0x18EC JUMP JUMPDEST SWAP1 POP DUP1 DUP3 GT ISZERO PUSH2 0x1146 JUMPI PUSH1 0x5 SLOAD PUSH1 0x0 SWAP1 PUSH2 0xFCA DUP4 DUP6 PUSH2 0x18EC JUMP JUMPDEST PUSH2 0xFD4 SWAP2 SWAP1 PUSH2 0x18EC JUMP JUMPDEST SWAP1 POP DUP1 ISZERO PUSH2 0xCAA JUMPI PUSH1 0x0 PUSH2 0x2710 PUSH2 0xFED PUSH2 0x1B58 DUP5 PUSH2 0x18FF JUMP JUMPDEST PUSH2 0xFF7 SWAP2 SWAP1 PUSH2 0x1916 JUMP JUMPDEST SWAP1 POP PUSH1 0x0 PUSH2 0x2710 PUSH2 0x100A PUSH2 0x7D0 DUP6 PUSH2 0x18FF JUMP JUMPDEST PUSH2 0x1014 SWAP2 SWAP1 PUSH2 0x1916 JUMP JUMPDEST SWAP1 POP PUSH1 0x0 PUSH2 0x2710 PUSH2 0x1027 PUSH2 0x3E8 DUP7 PUSH2 0x18FF JUMP JUMPDEST PUSH2 0x1031 SWAP2 SWAP1 PUSH2 0x1916 JUMP JUMPDEST SWAP1 POP DUP3 PUSH1 0x8 PUSH1 0x0 PUSH2 0x104A PUSH1 0x1 SLOAD PUSH1 0x1 PUSH1 0x1 PUSH1 0xA0 SHL SUB AND SWAP1 JUMP JUMPDEST PUSH1 0x1 PUSH1 0x1 PUSH1 0xA0 SHL SUB AND PUSH1 0x1 PUSH1 0x1 PUSH1 0xA0 SHL SUB AND DUP2 MSTORE PUSH1 0x20 ADD SWAP1 DUP2 MSTORE PUSH1 0x20 ADD PUSH1 0x0 KECCAK256 PUSH1 0x0 DUP3 DUP3 SLOAD PUSH2 0x1079 SWAP2 SWAP1 PUSH2 0x18D9 JUMP JUMPDEST SWAP1 SWAP2 SSTORE POP POP PUSH1 0x6 SLOAD PUSH1 0x1 PUSH1 0x1 PUSH1 0xA0 SHL SUB AND PUSH1 0x0 SWAP1 DUP2 MSTORE PUSH1 0x8 PUSH1 0x20 MSTORE PUSH1 0x40 DUP2 KECCAK256 DUP1 SLOAD DUP5 SWAP3 SWAP1 PUSH2 0x10A8 SWAP1 DUP5 SWAP1 PUSH2 0x18D9 JUMP JUMPDEST SWAP1 SWAP2 SSTORE POP POP PUSH1 0x7 SLOAD PUSH1 0x1 PUSH1 0x1 PUSH1 0xA0 SHL SUB AND PUSH1 0x0 SWAP1 DUP2 MSTORE PUSH1 0x8 PUSH1 0x20 MSTORE PUSH1 0x40 DUP2 KECCAK256 DUP1 SLOAD DUP4 SWAP3 SWAP1 PUSH2 0x10D7 SWAP1 DUP5 SWAP1 PUSH2 0x18D9 JUMP JUMPDEST SWAP3 POP POP DUP2 SWAP1 SSTORE POP DUP4 PUSH1 0x5 PUSH1 0x0 DUP3 DUP3 SLOAD PUSH2 0x10F0 SWAP2 SWAP1 PUSH2 0x18D9 JUMP JUMPDEST SWAP1 SWAP2 SSTORE POP POP TIMESTAMP PUSH1 0x4 SSTORE PUSH1 0x40 DUP1 MLOAD DUP6 DUP2 MSTORE PUSH1 0x20 DUP2 ADD DUP6 SWAP1 MSTORE SWAP1 DUP2 ADD DUP4 SWAP1 MSTORE PUSH1 0x60 DUP2 ADD DUP3 SWAP1 MSTORE PUSH32 0xC39BD4B19F4D9308B07F50C64B0E693C21F81328F10F571B7F9433525808EA16 SWAP1 PUSH1 0x80 ADD PUSH1 0x40 MLOAD DUP1 SWAP2 SUB SWAP1 LOG1 POP POP POP POP JUMPDEST POP POP JUMP JUMPDEST PUSH2 0x1152 PUSH2 0x1628 JUMP JUMPDEST PUSH2 0x115A PUSH2 0x1655 JUMP JUMPDEST PUSH1 0x0 DUP3 GT PUSH2 0x11AA JUMPI PUSH1 0x40 MLOAD PUSH3 0x461BCD PUSH1 0xE5 SHL DUP2 MSTORE PUSH1 0x20 PUSH1 0x4 DUP3 ADD MSTORE PUSH1 0x1D PUSH1 0x24 DUP3 ADD MSTORE PUSH32 0x416D6F756E74206D7573742062652067726561746572207468616E2030000000 PUSH1 0x44 DUP3 ADD MSTORE PUSH1 0x64 ADD PUSH2 0x57B JUMP JUMPDEST PUSH1 0x1 PUSH1 0x1 PUSH1 0xA0 SHL SUB DUP2 AND PUSH2 0x11F4 JUMPI PUSH1 0x40 MLOAD PUSH3 0x461BCD PUSH1 0xE5 SHL DUP2 MSTORE PUSH1 0x20 PUSH1 0x4 DUP3 ADD MSTORE PUSH1 0x11 PUSH1 0x24 DUP3 ADD MSTORE PUSH17 0x125B9D985B1A59081C9958DA5C1A595B9D PUSH1 0x7A SHL PUSH1 0x44 DUP3 ADD MSTORE PUSH1 0x64 ADD PUSH2 0x57B JUMP JUMPDEST PUSH2 0x11FC PUSH2 0xF92 JUMP JUMPDEST PUSH1 0x40 MLOAD PUSH4 0x70A08231 PUSH1 0xE0 SHL DUP2 MSTORE ADDRESS PUSH1 0x4 DUP3 ADD MSTORE PUSH1 0x0 SWAP1 PUSH20 0xA0B86A33E6441B8DB72C5AB9CBF4428C7BB060B6 SWAP1 PUSH4 0x70A08231 SWAP1 PUSH1 0x24 ADD PUSH1 0x20 PUSH1 0x40 MLOAD DUP1 DUP4 SUB DUP2 DUP7 GAS STATICCALL ISZERO DUP1 ISZERO PUSH2 0x124E JUMPI RETURNDATASIZE PUSH1 0x0 DUP1 RETURNDATACOPY RETURNDATASIZE PUSH1 0x0 REVERT JUMPDEST POP POP POP POP PUSH1 0x40 MLOAD RETURNDATASIZE PUSH1 0x1F NOT PUSH1 0x1F DUP3 ADD AND DUP3 ADD DUP1 PUSH1 0x40 MSTORE POP DUP2 ADD SWAP1 PUSH2 0x1272 SWAP2 SWAP1 PUSH2 0x1864 JUMP JUMPDEST SWAP1 POP DUP3 DUP2 LT PUSH2 0x1306 JUMPI PUSH1 0x40 MLOAD PUSH4 0xA9059CBB PUSH1 0xE0 SHL DUP2 MSTORE PUSH1 0x1 PUSH1 0x1 PUSH1 0xA0 SHL SUB DUP4 AND PUSH1 0x4 DUP3 ADD MSTORE PUSH1 0x24 DUP2 ADD DUP5 SWAP1 MSTORE PUSH20 0xA0B86A33E6441B8DB72C5AB9CBF4428C7BB060B6 SWAP1 PUSH4 0xA9059CBB SWAP1 PUSH1 0x44 ADD PUSH1 0x20 PUSH1 0x40 MLOAD DUP1 DUP4 SUB DUP2 PUSH1 0x0 DUP8 GAS CALL ISZERO DUP1 ISZERO PUSH2 0x12DC JUMPI RETURNDATASIZE PUSH1 0x0 DUP1 RETURNDATACOPY RETURNDATASIZE PUSH1 0x0 REVERT JUMPDEST POP POP POP POP PUSH1 0x40 MLOAD RETURNDATASIZE PUSH1 0x1F NOT PUSH1 0x1F DUP3 ADD AND DUP3 ADD DUP1 PUSH1 0x40 MSTORE POP DUP2 ADD SWAP1 PUSH2 0x1300 SWAP2 SWAP1 PUSH2 0x187D JUMP JUMPDEST POP PUSH2 0x14EE JUMP JUMPDEST PUSH1 0x40 MLOAD PUSH4 0xF99D9901 PUSH1 0xE0 SHL DUP2 MSTORE PUSH20 0x1111111111111111111111111111111111111111 PUSH1 0x4 DUP3 ADD MSTORE PUSH1 0x24 DUP2 ADD DUP5 SWAP1 MSTORE PUSH1 0x0 PUSH1 0x44 DUP3 ADD MSTORE ADDRESS PUSH1 0x64 DUP3 ADD DUP2 SWAP1 MSTORE PUSH1 0x84 DUP3 ADD MSTORE PUSH20 0xBBBBBBBBBB9CC5E90E3B3AF64BDAF62C37EEFFCB SWAP1 PUSH4 0xF99D9901 SWAP1 PUSH1 0xA4 ADD PUSH1 0x40 DUP1 MLOAD DUP1 DUP4 SUB DUP2 PUSH1 0x0 DUP8 GAS CALL SWAP3 POP POP POP DUP1 ISZERO PUSH2 0x13A1 JUMPI POP PUSH1 0x40 DUP1 MLOAD PUSH1 0x1F RETURNDATASIZE SWAP1 DUP2 ADD PUSH1 0x1F NOT AND DUP3 ADD SWAP1 SWAP3 MSTORE PUSH2 0x139E SWAP2 DUP2 ADD SWAP1 PUSH2 0x189F JUMP JUMPDEST PUSH1 0x1 JUMPDEST PUSH2 0x144E JUMPI DUP1 ISZERO PUSH2 0x1449 JUMPI PUSH1 0x40 MLOAD PUSH4 0xA9059CBB PUSH1 0xE0 SHL DUP2 MSTORE PUSH1 0x1 PUSH1 0x1 PUSH1 0xA0 SHL SUB DUP4 AND PUSH1 0x4 DUP3 ADD MSTORE PUSH1 0x24 DUP2 ADD DUP3 SWAP1 MSTORE PUSH20 0xA0B86A33E6441B8DB72C5AB9CBF4428C7BB060B6 SWAP1 PUSH4 0xA9059CBB SWAP1 PUSH1 0x44 ADD PUSH1 0x20 PUSH1 0x40 MLOAD DUP1 DUP4 SUB DUP2 PUSH1 0x0 DUP8 GAS CALL ISZERO DUP1 ISZERO PUSH2 0x140C JUMPI RETURNDATASIZE PUSH1 0x0 DUP1 RETURNDATACOPY RETURNDATASIZE PUSH1 0x0 REVERT JUMPDEST POP POP POP POP PUSH1 0x40 MLOAD RETURNDATASIZE PUSH1 0x1F NOT PUSH1 0x1F DUP3 ADD AND DUP3 ADD DUP1 PUSH1 0x40 MSTORE POP DUP2 ADD SWAP1 PUSH2 0x1430 SWAP2 SWAP1 PUSH2 0x187D JUMP JUMPDEST POP DUP1 PUSH1 0x3 PUSH1 0x0 DUP3 DUP3 SLOAD PUSH2 0x1443 SWAP2 SWAP1 PUSH2 0x18D9 JUMP JUMPDEST SWAP1 SWAP2 SSTORE POP POP JUMPDEST PUSH2 0x14EE JUMP JUMPDEST PUSH1 0x40 MLOAD PUSH4 0xA9059CBB PUSH1 0xE0 SHL DUP2 MSTORE PUSH1 0x1 PUSH1 0x1 PUSH1 0xA0 SHL SUB DUP6 AND PUSH1 0x4 DUP3 ADD MSTORE PUSH1 0x24 DUP2 ADD DUP4 SWAP1 MSTORE PUSH20 0xA0B86A33E6441B8DB72C5AB9CBF4428C7BB060B6 SWAP1 PUSH4 0xA9059CBB SWAP1 PUSH1 0x44 ADD PUSH1 0x20 PUSH1 0x40 MLOAD DUP1 DUP4 SUB DUP2 PUSH1 0x0 DUP8 GAS CALL ISZERO DUP1 ISZERO PUSH2 0x14AF JUMPI RETURNDATASIZE PUSH1 0x0 DUP1 RETURNDATACOPY RETURNDATASIZE PUSH1 0x0 REVERT JUMPDEST POP POP POP POP PUSH1 0x40 MLOAD RETURNDATASIZE PUSH1 0x1F NOT PUSH1 0x1F DUP3 ADD AND DUP3 ADD DUP1 PUSH1 0x40 MSTORE POP DUP2 ADD SWAP1 PUSH2 0x14D3 SWAP2 SWAP1 PUSH2 0x187D JUMP JUMPDEST POP DUP2 PUSH1 0x3 PUSH1 0x0 DUP3 DUP3 SLOAD PUSH2 0x14E6 SWAP2 SWAP1 PUSH2 0x18D9 JUMP JUMPDEST SWAP1 SWAP2 SSTORE POP POP POP POP JUMPDEST PUSH1 0x40 DUP1 MLOAD DUP5 DUP2 MSTORE PUSH1 0x1 PUSH1 0x1 PUSH1 0xA0 SHL SUB DUP5 AND PUSH1 0x20 DUP3 ADD MSTORE PUSH32 0xA59A09DBED02191F26AB21E73B64160FDE703647E4DBF06378D43A0E271D0BFA SWAP2 ADD PUSH1 0x40 MLOAD DUP1 SWAP2 SUB SWAP1 LOG1 POP PUSH2 0x1146 PUSH1 0x1 PUSH1 0x0 SSTORE JUMP JUMPDEST PUSH1 0x0 DUP1 PUSH1 0x0 DUP1 PUSH1 0x0 PUSH2 0x154A PUSH2 0xE4B JUMP JUMPDEST SWAP5 POP PUSH1 0x2 SLOAD SWAP4 POP PUSH1 0x3 SLOAD SWAP3 POP PUSH1 0x5 SLOAD SWAP2 POP PUSH1 0x4 SLOAD SWAP1 POP SWAP1 SWAP2 SWAP3 SWAP4 SWAP5 JUMP JUMPDEST PUSH1 0x0 PUSH1 0x2 SLOAD PUSH1 0x0 EQ DUP1 PUSH2 0x157A JUMPI POP PUSH1 0x5 SLOAD ISZERO JUMPDEST ISZERO PUSH2 0x1585 JUMPI POP PUSH1 0x0 SWAP1 JUMP JUMPDEST PUSH1 0x0 PUSH1 0x4 SLOAD TIMESTAMP PUSH2 0x1595 SWAP2 SWAP1 PUSH2 0x18EC JUMP JUMPDEST SWAP1 POP DUP1 PUSH1 0x0 SUB PUSH2 0x15A7 JUMPI PUSH1 0x0 SWAP2 POP POP SWAP1 JUMP JUMPDEST PUSH1 0x0 DUP2 PUSH1 0x2 SLOAD PUSH2 0x15B7 SWAP2 SWAP1 PUSH2 0x18FF JUMP JUMPDEST PUSH1 0x5 SLOAD PUSH2 0x15C8 SWAP1 PUSH4 0x1E13380 PUSH2 0x18FF JUMP JUMPDEST PUSH2 0x15D4 SWAP1 PUSH2 0x2710 PUSH2 0x18FF JUMP JUMPDEST PUSH2 0x15DE SWAP2 SWAP1 PUSH2 0x1916 JUMP JUMPDEST SWAP4 SWAP3 POP POP POP JUMP JUMPDEST PUSH2 0x15ED PUSH2 0x1628 JUMP JUMPDEST PUSH1 0x1 PUSH1 0x1 PUSH1 0xA0 SHL SUB DUP2 AND PUSH2 0x1617 JUMPI PUSH1 0x40 MLOAD PUSH4 0x1E4FBDF7 PUSH1 0xE0 SHL DUP2 MSTORE PUSH1 0x0 PUSH1 0x4 DUP3 ADD MSTORE PUSH1 0x24 ADD PUSH2 0x57B JUMP JUMPDEST PUSH2 0x8B3 DUP2 PUSH2 0x16FF JUMP JUMPDEST PUSH2 0x8C6 PUSH2 0xF92 JUMP JUMPDEST PUSH1 0x1 SLOAD PUSH1 0x1 PUSH1 0x1 PUSH1 0xA0 SHL SUB AND CALLER EQ PUSH2 0x8C6 JUMPI PUSH1 0x40 MLOAD PUSH4 0x118CDAA7 PUSH1 0xE0 SHL DUP2 MSTORE CALLER PUSH1 0x4 DUP3 ADD MSTORE PUSH1 0x24 ADD PUSH2 0x57B JUMP JUMPDEST PUSH1 0x2 PUSH1 0x0 SLOAD SUB PUSH2 0x1678 JUMPI PUSH1 0x40 MLOAD PUSH4 0x3EE5AEB5 PUSH1 0xE0 SHL DUP2 MSTORE PUSH1 0x4 ADD PUSH1 0x40 MLOAD DUP1 SWAP2 SUB SWAP1 REVERT JUMPDEST PUSH1 0x2 PUSH1 0x0 SSTORE JUMP JUMPDEST PUSH1 0x1 SLOAD PUSH1 0x1 PUSH1 0xA0 SHL SWAP1 DIV PUSH1 0xFF AND ISZERO PUSH2 0x8C6 JUMPI PUSH1 0x40 MLOAD PUSH4 0xD93C0665 PUSH1 0xE0 SHL DUP2 MSTORE PUSH1 0x4 ADD PUSH1 0x40 MLOAD DUP1 SWAP2 SUB SWAP1 REVERT JUMPDEST PUSH2 0x16B2 PUSH2 0x1794 JUMP JUMPDEST PUSH1 0x1 DUP1 SLOAD PUSH1 0xFF PUSH1 0xA0 SHL NOT AND SWAP1 SSTORE PUSH32 0x5DB9EE0A495BF2E6FF9C91A7834C1BA4FDD244A5E8AA4E537BD38AEAE4B073AA CALLER JUMPDEST PUSH1 0x40 MLOAD PUSH1 0x1 PUSH1 0x1 PUSH1 0xA0 SHL SUB SWAP1 SWAP2 AND DUP2 MSTORE PUSH1 0x20 ADD PUSH1 0x40 MLOAD DUP1 SWAP2 SUB SWAP1 LOG1 JUMP JUMPDEST PUSH1 0x1 DUP1 SLOAD PUSH1 0x1 PUSH1 0x1 PUSH1 0xA0 SHL SUB DUP4 DUP2 AND PUSH1 0x1 PUSH1 0x1 PUSH1 0xA0 SHL SUB NOT DUP4 AND DUP2 OR SWAP1 SWAP4 SSTORE PUSH1 0x40 MLOAD SWAP2 AND SWAP2 SWAP1 DUP3 SWAP1 PUSH32 0x8BE0079C531659141344CD1FD0A4F28419497F9722A3DAAFE3B4186F6B6457E0 SWAP1 PUSH1 0x0 SWAP1 LOG3 POP POP JUMP JUMPDEST PUSH2 0x1759 PUSH2 0x167F JUMP JUMPDEST PUSH1 0x1 DUP1 SLOAD PUSH1 0xFF PUSH1 0xA0 SHL NOT AND PUSH1 0x1 PUSH1 0xA0 SHL OR SWAP1 SSTORE PUSH32 0x62E78CEA01BEE320CD4E420270B5EA74000D11B0C9F74754EBDBFC544B05A258 PUSH2 0x16E2 CALLER SWAP1 JUMP JUMPDEST PUSH1 0x1 SLOAD PUSH1 0x1 PUSH1 0xA0 SHL SWAP1 DIV PUSH1 0xFF AND PUSH2 0x8C6 JUMPI PUSH1 0x40 MLOAD PUSH4 0x8DFC202B PUSH1 0xE0 SHL DUP2 MSTORE PUSH1 0x4 ADD PUSH1 0x40 MLOAD DUP1 SWAP2 SUB SWAP1 REVERT JUMPDEST PUSH1 0x0 PUSH1 0x20 DUP3 DUP5 SUB SLT ISZERO PUSH2 0x17D0 JUMPI PUSH1 0x0 DUP1 REVERT JUMPDEST POP CALLDATALOAD SWAP2 SWAP1 POP JUMP JUMPDEST DUP1 CALLDATALOAD PUSH1 0x1 PUSH1 0x1 PUSH1 0xA0 SHL SUB DUP2 AND DUP2 EQ PUSH2 0x17EE JUMPI PUSH1 0x0 DUP1 REVERT JUMPDEST SWAP2 SWAP1 POP JUMP JUMPDEST PUSH1 0x0 PUSH1 0x20 DUP3 DUP5 SUB SLT ISZERO PUSH2 0x1805 JUMPI PUSH1 0x0 DUP1 REVERT JUMPDEST PUSH2 0x15DE DUP3 PUSH2 0x17D7 JUMP JUMPDEST PUSH1 0x0 DUP1 PUSH1 0x40 DUP4 DUP6 SUB SLT ISZERO PUSH2 0x1821 JUMPI PUSH1 0x0 DUP1 REVERT JUMPDEST PUSH2 0x182A DUP4 PUSH2 0x17D7 JUMP JUMPDEST SWAP5 PUSH1 0x20 SWAP4 SWAP1 SWAP4 ADD CALLDATALOAD SWAP4 POP POP POP JUMP JUMPDEST PUSH1 0x0 DUP1 PUSH1 0x40 DUP4 DUP6 SUB SLT ISZERO PUSH2 0x184B JUMPI PUSH1 0x0 DUP1 REVERT JUMPDEST DUP3 CALLDATALOAD SWAP2 POP PUSH2 0x185B PUSH1 0x20 DUP5 ADD PUSH2 0x17D7 JUMP JUMPDEST SWAP1 POP SWAP3 POP SWAP3 SWAP1 POP JUMP JUMPDEST PUSH1 0x0 PUSH1 0x20 DUP3 DUP5 SUB SLT ISZERO PUSH2 0x1876 JUMPI PUSH1 0x0 DUP1 REVERT JUMPDEST POP MLOAD SWAP2 SWAP1 POP JUMP JUMPDEST PUSH1 0x0 PUSH1 0x20 DUP3 DUP5 SUB SLT ISZERO PUSH2 0x188F JUMPI PUSH1 0x0 DUP1 REVERT JUMPDEST DUP2 MLOAD DUP1 ISZERO ISZERO DUP2 EQ PUSH2 0x15DE JUMPI PUSH1 0x0 DUP1 REVERT JUMPDEST PUSH1 0x0 DUP1 PUSH1 0x40 DUP4 DUP6 SUB SLT ISZERO PUSH2 0x18B2 JUMPI PUSH1 0x0 DUP1 REVERT JUMPDEST POP POP DUP1 MLOAD PUSH1 0x20 SWAP1 SWAP2 ADD MLOAD SWAP1 SWAP3 SWAP1 SWAP2 POP JUMP JUMPDEST PUSH4 0x4E487B71 PUSH1 0xE0 SHL PUSH1 0x0 MSTORE PUSH1 0x11 PUSH1 0x4 MSTORE PUSH1 0x24 PUSH1 0x0 REVERT JUMPDEST DUP1 DUP3 ADD DUP1 DUP3 GT ISZERO PUSH2 0xF8C JUMPI PUSH2 0xF8C PUSH2 0x18C3 JUMP JUMPDEST DUP2 DUP2 SUB DUP2 DUP2 GT ISZERO PUSH2 0xF8C JUMPI PUSH2 0xF8C PUSH2 0x18C3 JUMP JUMPDEST DUP1 DUP3 MUL DUP2 ISZERO DUP3 DUP3 DIV DUP5 EQ OR PUSH2 0xF8C JUMPI PUSH2 0xF8C PUSH2 0x18C3 JUMP JUMPDEST PUSH1 0x0 DUP3 PUSH2 0x1933 JUMPI PUSH4 0x4E487B71 PUSH1 0xE0 SHL PUSH1 0x0 MSTORE PUSH1 0x12 PUSH1 0x4 MSTORE PUSH1 0x24 PUSH1 0x0 REVERT JUMPDEST POP DIV SWAP1 JUMP INVALID LOG2 PUSH5 0x6970667358 0x22 SLT KECCAK256 PUSH5 0x4A52B201A0 BLOCKHASH 0xC3 CALLER SLOAD MUL 0xEF 0xB0 0xDD PUSH26 0xC3F6FD7FF533F46275F7CF0E2B3185C0E664736F6C6343000814 STOP CALLER "},"methodIdentifiers":{"BUYBACK_YIELD_SHARE()":"3d4c145f","MORPHO()":"3acb5624","OWNER_YIELD_SHARE()":"98d4b8a4","USDC()":"89a30271","USDC_MARKET()":"a13c5847","UTILITY_YIELD_SHARE()":"3790762a","accumulatedYield()":"fcdfd5c5","buybackContract()":"8542b336","claimYield(uint256)":"40bd2e23","depositToMorpho(uint256)":"3bdcfc1f","emergencyWithdraw(address,uint256)":"95ccea67","estimateCurrentYield()":"42879af1","forceYieldUpdate()":"f78fae46","getAvailableYield(address)":"b2325876","getCurrentBalance()":"a5749710","getEstimatedAPY()":"ccaad55d","getMorphoBalance()":"0e085281","getTreasuryStats()":"c8692e3f","lastYieldUpdate()":"8f8c8aee","needsYieldUpdate()":"a481293f","owner()":"8da5cb5b","pause()":"8456cb59","paused()":"5c975abb","renounceOwnership()":"715018a6","setBuybackContract(address)":"9a303684","setUtilityContract(address)":"9a7f8c54","totalDeposited()":"ff50abdc","totalWithdrawn()":"4b319713","transferOwnership(address)":"f2fde38b","unpause()":"3f4ba83a","updateYield()":"bb21a997","utilityContract()":"f5a1561e","withdrawFromMorpho(uint256,address)":"bf640de7","yieldAllocated(address)":"4c859eaf","yieldClaimed(address)":"45bba697"}}}}}