{"contracts/SolarPledge.sol":{"SolarPledge":{"abi":[{"inputs":[{"internalType":"address","name":"_usdcToken","type":"address"},{"internalType":"address","name":"_treasuryAddress","type":"address"}],"stateMutability":"nonpayable","type":"constructor"},{"anonymous":false,"inputs":[{"indexed":false,"internalType":"bool","name":"updatesEnabled","type":"bool"},{"indexed":false,"internalType":"bool","name":"revocationsEnabled","type":"bool"},{"indexed":false,"internalType":"uint96","name":"minAmount","type":"uint96"},{"indexed":false,"internalType":"uint96","name":"maxAmount","type":"uint96"}],"name":"AdminControlsUpdated","type":"event"},{"anonymous":false,"inputs":[{"indexed":true,"internalType":"address","name":"user","type":"address"},{"indexed":false,"internalType":"uint96","name":"birthTimestamp","type":"uint96"},{"indexed":false,"internalType":"uint64","name":"currentSolarAge","type":"uint64"}],"name":"BirthDateSet","type":"event"},{"anonymous":false,"inputs":[{"indexed":true,"internalType":"address","name":"pledger","type":"address"},{"indexed":false,"internalType":"string","name":"oldCommitment","type":"string"},{"indexed":false,"internalType":"string","name":"newCommitment","type":"string"},{"indexed":false,"internalType":"bytes32","name":"newCommitmentHash","type":"bytes32"},{"indexed":false,"internalType":"uint96","name":"timestamp","type":"uint96"}],"name":"CommitmentUpdated","type":"event"},{"anonymous":false,"inputs":[{"indexed":false,"internalType":"uint256","name":"periodIndex","type":"uint256"},{"indexed":false,"internalType":"uint96","name":"startTimestamp","type":"uint96"},{"indexed":false,"internalType":"uint96","name":"endTimestamp","type":"uint96"},{"indexed":false,"internalType":"uint96","name":"totalPledges","type":"uint96"},{"indexed":false,"internalType":"uint128","name":"totalVolume","type":"uint128"}],"name":"ConvergencePeriodEnded","type":"event"},{"anonymous":false,"inputs":[{"indexed":false,"internalType":"uint96","name":"startTimestamp","type":"uint96"},{"indexed":false,"internalType":"uint96","name":"endTimestamp","type":"uint96"},{"indexed":false,"internalType":"bool","name":"convergenceOnly","type":"bool"},{"indexed":false,"internalType":"uint256","name":"periodIndex","type":"uint256"}],"name":"ConvergencePeriodSet","type":"event"},{"anonymous":false,"inputs":[{"indexed":true,"internalType":"address","name":"pauser","type":"address"},{"indexed":false,"internalType":"string","name":"reason","type":"string"}],"name":"EmergencyPaused","type":"event"},{"anonymous":false,"inputs":[{"indexed":true,"internalType":"address","name":"unpauser","type":"address"},{"indexed":false,"internalType":"string","name":"reason","type":"string"}],"name":"EmergencyUnpaused","type":"event"},{"anonymous":false,"inputs":[{"indexed":true,"internalType":"address","name":"previousOwner","type":"address"},{"indexed":true,"internalType":"address","name":"newOwner","type":"address"}],"name":"OwnershipTransferred","type":"event"},{"anonymous":false,"inputs":[{"indexed":false,"internalType":"address","name":"account","type":"address"}],"name":"Paused","type":"event"},{"anonymous":false,"inputs":[{"indexed":true,"internalType":"address","name":"contributor","type":"address"},{"indexed":false,"internalType":"uint128","name":"amount","type":"uint128"},{"indexed":false,"internalType":"uint128","name":"newBalance","type":"uint128"}],"name":"PayItForwardContribution","type":"event"},{"anonymous":false,"inputs":[{"indexed":true,"internalType":"address","name":"pledger","type":"address"},{"indexed":false,"internalType":"uint64","name":"solarAge","type":"uint64"},{"indexed":false,"internalType":"bytes32","name":"commitmentHash","type":"bytes32"},{"indexed":false,"internalType":"string","name":"farcasterHandle","type":"string"},{"indexed":false,"internalType":"uint128","name":"usdcPaid","type":"uint128"},{"indexed":false,"internalType":"uint128","name":"surplusAmount","type":"uint128"},{"indexed":false,"internalType":"string","name":"commitment","type":"string"},{"indexed":false,"internalType":"uint96","name":"pledgeNumber","type":"uint96"},{"indexed":false,"internalType":"uint96","name":"timestamp","type":"uint96"},{"indexed":false,"internalType":"bool","name":"wasSponsored","type":"bool"}],"name":"PledgeCreated","type":"event"},{"anonymous":false,"inputs":[{"indexed":true,"internalType":"address","name":"pledger","type":"address"},{"indexed":false,"internalType":"uint128","name":"refundAmount","type":"uint128"},{"indexed":false,"internalType":"uint96","name":"timestamp","type":"uint96"}],"name":"PledgeRevoked","type":"event"},{"anonymous":false,"inputs":[{"indexed":true,"internalType":"address","name":"beneficiary","type":"address"},{"indexed":false,"internalType":"uint128","name":"sponsorshipAmount","type":"uint128"}],"name":"SponsoredPledge","type":"event"},{"anonymous":false,"inputs":[{"indexed":true,"internalType":"bytes32","name":"txHash","type":"bytes32"}],"name":"TransactionCancelled","type":"event"},{"anonymous":false,"inputs":[{"indexed":true,"internalType":"bytes32","name":"txHash","type":"bytes32"},{"indexed":true,"internalType":"address","name":"target","type":"address"},{"indexed":false,"internalType":"uint256","name":"value","type":"uint256"},{"indexed":false,"internalType":"string","name":"data","type":"string"}],"name":"TransactionExecuted","type":"event"},{"anonymous":false,"inputs":[{"indexed":true,"internalType":"bytes32","name":"txHash","type":"bytes32"},{"indexed":true,"internalType":"address","name":"target","type":"address"},{"indexed":false,"internalType":"uint256","name":"value","type":"uint256"},{"indexed":false,"internalType":"string","name":"data","type":"string"},{"indexed":false,"internalType":"uint256","name":"eta","type":"uint256"}],"name":"TransactionQueued","type":"event"},{"anonymous":false,"inputs":[{"indexed":false,"internalType":"address","name":"account","type":"address"}],"name":"Unpaused","type":"event"},{"inputs":[],"name":"MAX_PLEDGE_AMOUNT","outputs":[{"internalType":"uint128","name":"","type":"uint128"}],"stateMutability":"view","type":"function"},{"inputs":[],"name":"PLEDGE_FEE","outputs":[{"internalType":"uint256","name":"","type":"uint256"}],"stateMutability":"view","type":"function"},{"inputs":[],"name":"TIMELOCK_PERIOD","outputs":[{"internalType":"uint256","name":"","type":"uint256"}],"stateMutability":"view","type":"function"},{"inputs":[{"internalType":"uint96","name":"_newStartTimestamp","type":"uint96"},{"internalType":"uint96","name":"_newEndTimestamp","type":"uint96"}],"name":"adjustConvergencePeriod","outputs":[],"stateMutability":"nonpayable","type":"function"},{"inputs":[],"name":"allowPledgeRevocations","outputs":[{"internalType":"bool","name":"","type":"bool"}],"stateMutability":"view","type":"function"},{"inputs":[],"name":"allowPledgeUpdates","outputs":[{"internalType":"bool","name":"","type":"bool"}],"stateMutability":"view","type":"function"},{"inputs":[{"internalType":"address","name":"_target","type":"address"},{"internalType":"uint256","name":"_value","type":"uint256"},{"internalType":"string","name":"_data","type":"string"},{"internalType":"uint256","name":"_nonce","type":"uint256"}],"name":"cancelTransaction","outputs":[],"stateMutability":"nonpayable","type":"function"},{"inputs":[],"name":"communityPool","outputs":[{"internalType":"uint128","name":"","type":"uint128"}],"stateMutability":"view","type":"function"},{"inputs":[],"name":"convergenceEnd","outputs":[{"internalType":"uint96","name":"","type":"uint96"}],"stateMutability":"view","type":"function"},{"inputs":[],"name":"convergenceOnly","outputs":[{"internalType":"bool","name":"","type":"bool"}],"stateMutability":"view","type":"function"},{"inputs":[{"internalType":"uint96","name":"","type":"uint96"}],"name":"convergencePeriodIndex","outputs":[{"internalType":"uint256","name":"","type":"uint256"}],"stateMutability":"view","type":"function"},{"inputs":[{"internalType":"uint256","name":"","type":"uint256"}],"name":"convergencePeriods","outputs":[{"internalType":"uint96","name":"startTime","type":"uint96"},{"internalType":"uint96","name":"endTime","type":"uint96"},{"internalType":"uint96","name":"periodTotalPledges","type":"uint96"},{"internalType":"uint256","name":"totalVolume","type":"uint256"},{"internalType":"bool","name":"isActive","type":"bool"}],"stateMutability":"view","type":"function"},{"inputs":[],"name":"convergenceStart","outputs":[{"internalType":"uint96","name":"","type":"uint96"}],"stateMutability":"view","type":"function"},{"inputs":[{"internalType":"string","name":"_commitment","type":"string"},{"internalType":"bytes32","name":"_farcasterHandle","type":"bytes32"},{"internalType":"uint128","name":"_pledgeAmount","type":"uint128"}],"name":"createPledge","outputs":[],"stateMutability":"nonpayable","type":"function"},{"inputs":[{"internalType":"string","name":"_commitment","type":"string"},{"internalType":"string","name":"_farcasterHandle","type":"string"}],"name":"createSponsoredPledge","outputs":[],"stateMutability":"nonpayable","type":"function"},{"inputs":[{"internalType":"string","name":"_reason","type":"string"}],"name":"emergencyPause","outputs":[],"stateMutability":"nonpayable","type":"function"},{"inputs":[{"internalType":"string","name":"_reason","type":"string"}],"name":"emergencyUnpause","outputs":[],"stateMutability":"nonpayable","type":"function"},{"inputs":[{"internalType":"address","name":"_token","type":"address"},{"internalType":"uint256","name":"_amount","type":"uint256"}],"name":"emergencyWithdraw","outputs":[],"stateMutability":"nonpayable","type":"function"},{"inputs":[{"internalType":"address","name":"_target","type":"address"},{"internalType":"uint256","name":"_value","type":"uint256"},{"internalType":"string","name":"_data","type":"string"},{"internalType":"uint256","name":"_nonce","type":"uint256"}],"name":"executeTransaction","outputs":[],"stateMutability":"nonpayable","type":"function"},{"inputs":[{"internalType":"string","name":"","type":"string"},{"internalType":"uint256","name":"","type":"uint256"}],"name":"fidHasPledgedInPeriod","outputs":[{"internalType":"bool","name":"","type":"bool"}],"stateMutability":"view","type":"function"},{"inputs":[],"name":"getAdminControls","outputs":[{"components":[{"internalType":"bool","name":"updatesEnabled","type":"bool"},{"internalType":"bool","name":"revocationsEnabled","type":"bool"},{"internalType":"uint96","name":"minAmount","type":"uint96"},{"internalType":"uint96","name":"maxAmount","type":"uint96"}],"internalType":"struct SolarPledge.AdminControls","name":"controls","type":"tuple"}],"stateMutability":"view","type":"function"},{"inputs":[],"name":"getCommunityPool","outputs":[{"internalType":"uint128","name":"","type":"uint128"}],"stateMutability":"view","type":"function"},{"inputs":[{"internalType":"uint256","name":"periodIndex","type":"uint256"}],"name":"getConvergencePeriod","outputs":[{"components":[{"internalType":"uint96","name":"startTime","type":"uint96"},{"internalType":"uint96","name":"endTime","type":"uint96"},{"internalType":"uint96","name":"periodTotalPledges","type":"uint96"},{"internalType":"uint256","name":"totalVolume","type":"uint256"},{"internalType":"bool","name":"isActive","type":"bool"}],"internalType":"struct SolarPledge.ConvergencePeriod","name":"period","type":"tuple"}],"stateMutability":"view","type":"function"},{"inputs":[],"name":"getConvergencePeriodCount","outputs":[{"internalType":"uint256","name":"","type":"uint256"}],"stateMutability":"view","type":"function"},{"inputs":[],"name":"getCurrentConvergencePeriodIndex","outputs":[{"internalType":"uint256","name":"","type":"uint256"}],"stateMutability":"view","type":"function"},{"inputs":[{"internalType":"address","name":"user","type":"address"}],"name":"getCurrentSolarAge","outputs":[{"internalType":"uint64","name":"","type":"uint64"}],"stateMutability":"view","type":"function"},{"inputs":[],"name":"getMetrics","outputs":[{"components":[{"internalType":"uint96","name":"totalPledges","type":"uint96"},{"internalType":"uint128","name":"totalBaseFees","type":"uint128"},{"internalType":"uint128","name":"communityPool","type":"uint128"},{"internalType":"uint128","name":"payItForwardPool","type":"uint128"},{"internalType":"uint96","name":"sponsorshipCapacity","type":"uint96"}],"internalType":"struct SolarPledge.Metrics","name":"metrics","type":"tuple"}],"stateMutability":"view","type":"function"},{"inputs":[],"name":"getPayItForwardBalance","outputs":[{"internalType":"uint128","name":"","type":"uint128"}],"stateMutability":"view","type":"function"},{"inputs":[{"internalType":"address","name":"_pledger","type":"address"}],"name":"getPledge","outputs":[{"components":[{"internalType":"address","name":"pledger","type":"address"},{"internalType":"uint96","name":"pledgeNumber","type":"uint96"},{"internalType":"uint96","name":"pledgeTimestamp","type":"uint96"},{"internalType":"uint128","name":"usdcPaid","type":"uint128"},{"internalType":"uint128","name":"surplusAmount","type":"uint128"},{"internalType":"uint64","name":"solarAge","type":"uint64"},{"internalType":"bytes32","name":"commitmentHash","type":"bytes32"},{"internalType":"bytes32","name":"farcasterHandle","type":"bytes32"},{"internalType":"string","name":"commitmentText","type":"string"},{"internalType":"bool","name":"isActive","type":"bool"}],"internalType":"struct SolarPledge.Pledge","name":"","type":"tuple"}],"stateMutability":"view","type":"function"},{"inputs":[],"name":"getSponsorshipCapacity","outputs":[{"internalType":"uint96","name":"","type":"uint96"}],"stateMutability":"view","type":"function"},{"inputs":[{"internalType":"address","name":"_user","type":"address"}],"name":"hasBirthDate","outputs":[{"internalType":"bool","name":"","type":"bool"}],"stateMutability":"view","type":"function"},{"inputs":[{"internalType":"address","name":"_user","type":"address"}],"name":"hasPledge","outputs":[{"internalType":"bool","name":"","type":"bool"}],"stateMutability":"view","type":"function"},{"inputs":[{"internalType":"address","name":"","type":"address"},{"internalType":"uint256","name":"","type":"uint256"}],"name":"hasPledgedInPeriod","outputs":[{"internalType":"bool","name":"","type":"bool"}],"stateMutability":"view","type":"function"},{"inputs":[],"name":"maxPledgeAmount","outputs":[{"internalType":"uint96","name":"","type":"uint96"}],"stateMutability":"view","type":"function"},{"inputs":[],"name":"minPledgeAmount","outputs":[{"internalType":"uint96","name":"","type":"uint96"}],"stateMutability":"view","type":"function"},{"inputs":[],"name":"owner","outputs":[{"internalType":"address","name":"","type":"address"}],"stateMutability":"view","type":"function"},{"inputs":[],"name":"paused","outputs":[{"internalType":"bool","name":"","type":"bool"}],"stateMutability":"view","type":"function"},{"inputs":[],"name":"payItForwardPool","outputs":[{"internalType":"uint128","name":"","type":"uint128"}],"stateMutability":"view","type":"function"},{"inputs":[{"internalType":"address","name":"","type":"address"}],"name":"pledges","outputs":[{"internalType":"address","name":"pledger","type":"address"},{"internalType":"uint96","name":"pledgeNumber","type":"uint96"},{"internalType":"uint96","name":"pledgeTimestamp","type":"uint96"},{"internalType":"uint128","name":"usdcPaid","type":"uint128"},{"internalType":"uint128","name":"surplusAmount","type":"uint128"},{"internalType":"uint64","name":"solarAge","type":"uint64"},{"internalType":"bytes32","name":"commitmentHash","type":"bytes32"},{"internalType":"bytes32","name":"farcasterHandle","type":"bytes32"},{"internalType":"string","name":"commitmentText","type":"string"},{"internalType":"bool","name":"isActive","type":"bool"}],"stateMutability":"view","type":"function"},{"inputs":[{"internalType":"address","name":"_target","type":"address"},{"internalType":"uint256","name":"_value","type":"uint256"},{"internalType":"string","name":"_data","type":"string"}],"name":"queueTransaction","outputs":[],"stateMutability":"nonpayable","type":"function"},{"inputs":[{"internalType":"bytes32","name":"","type":"bytes32"}],"name":"queuedTransactions","outputs":[{"internalType":"uint256","name":"","type":"uint256"}],"stateMutability":"view","type":"function"},{"inputs":[],"name":"renounceOwnership","outputs":[],"stateMutability":"nonpayable","type":"function"},{"inputs":[],"name":"revokePledge","outputs":[],"stateMutability":"nonpayable","type":"function"},{"inputs":[{"internalType":"bool","name":"_updatesEnabled","type":"bool"},{"internalType":"bool","name":"_revocationsEnabled","type":"bool"},{"internalType":"uint96","name":"_minAmount","type":"uint96"},{"internalType":"uint96","name":"_maxAmount","type":"uint96"}],"name":"setAdminControls","outputs":[],"stateMutability":"nonpayable","type":"function"},{"inputs":[{"internalType":"uint96","name":"_birthTimestamp","type":"uint96"}],"name":"setBirthDate","outputs":[],"stateMutability":"nonpayable","type":"function"},{"inputs":[{"internalType":"uint96","name":"_startTimestamp","type":"uint96"},{"internalType":"uint96","name":"_endTimestamp","type":"uint96"},{"internalType":"bool","name":"_convergenceOnly","type":"bool"}],"name":"setConvergencePeriod","outputs":[],"stateMutability":"nonpayable","type":"function"},{"inputs":[{"internalType":"address","name":"","type":"address"}],"name":"subsidizedUsers","outputs":[{"internalType":"bool","name":"","type":"bool"}],"stateMutability":"view","type":"function"},{"inputs":[],"name":"timelockNonce","outputs":[{"internalType":"uint256","name":"","type":"uint256"}],"stateMutability":"view","type":"function"},{"inputs":[],"name":"totalPledges","outputs":[{"internalType":"uint96","name":"","type":"uint96"}],"stateMutability":"view","type":"function"},{"inputs":[{"internalType":"address","name":"_to","type":"address"},{"internalType":"uint128","name":"_amount","type":"uint128"}],"name":"transferCommunityPool","outputs":[],"stateMutability":"nonpayable","type":"function"},{"inputs":[{"internalType":"address","name":"newOwner","type":"address"}],"name":"transferOwnership","outputs":[],"stateMutability":"nonpayable","type":"function"},{"inputs":[],"name":"treasuryAddress","outputs":[{"internalType":"address","name":"","type":"address"}],"stateMutability":"view","type":"function"},{"inputs":[{"internalType":"string","name":"_newCommitment","type":"string"}],"name":"updateCommitment","outputs":[],"stateMutability":"nonpayable","type":"function"},{"inputs":[{"internalType":"address","name":"_newTreasury","type":"address"}],"name":"updateTreasuryAddress","outputs":[],"stateMutability":"nonpayable","type":"function"},{"inputs":[],"name":"usdcToken","outputs":[{"internalType":"contract IERC20","name":"","type":"address"}],"stateMutability":"view","type":"function"},{"inputs":[{"internalType":"address","name":"","type":"address"}],"name":"userBirthTimestamp","outputs":[{"internalType":"uint96","name":"","type":"uint96"}],"stateMutability":"view","type":"function"},{"inputs":[{"internalType":"address","name":"_user","type":"address"}],"name":"wasUserSponsored","outputs":[{"internalType":"bool","name":"","type":"bool"}],"stateMutability":"view","type":"function"}],"evm":{"bytecode":{"linkReferences":{},"object":"60a06040523480156200001157600080fd5b50604051620049a3380380620049a38339810160408190526200003491620001c2565b6001600055620000443362000153565b6001805460ff60a01b191690556001600160a01b038216620000ad5760405162461bcd60e51b815260206004820152601460248201527f496e76616c69642055534443206164647265737300000000000000000000000060448201526064015b60405180910390fd5b6001600160a01b038116620001055760405162461bcd60e51b815260206004820152601860248201527f496e76616c6964207472656173757279206164647265737300000000000000006044820152606401620000a4565b6001600160a01b03918216608052600280546001600160a01b03191691909216179055600780546001600160d01b03191672e8d4a510000000000000000000000f42400101179055620001fa565b600180546001600160a01b038381166001600160a01b0319831681179093556040519116919082907f8be0079c531659141344cd1fd0a4f28419497f9722a3daafe3b4186f6b6457e090600090a35050565b80516001600160a01b0381168114620001bd57600080fd5b919050565b60008060408385031215620001d657600080fd5b620001e183620001a5565b9150620001f160208401620001a5565b90509250929050565b608051614763620002406000396000818161041901528181610c93015281816122eb01528181612b47015281816131bc015281816132ae015261383201526147636000f3fe608060405234801561001057600080fd5b50600436106103835760003560e01c8063783f1615116101de5780639eb97c1c1161010f578063cf5b4fd5116100ad578063f10e131f1161007c578063f10e131f14610a44578063f2b0653714610a5e578063f2d6fe3914610a7e578063f2fde38b14610a8657600080fd5b8063cf5b4fd5146109fb578063d1c8226914610a0e578063d1dd53b814610a21578063ec555e9114610a2b57600080fd5b8063b3cfe758116100e9578063b3cfe758146109a1578063bd330ca6146109a9578063c5f956af146109d5578063cb4299f3146109e857600080fd5b80639eb97c1c146109605780639f3d391e1461096d578063b1b0791e1461098757600080fd5b80638a95d8bc1161017c57806395ccea671161015657806395ccea67146108f957806397272d751461090c578063998c1d551461091f5780639cd5e7dc1461094d57600080fd5b80638a95d8bc1461089d5780638da5cb5b146108c857806390769e0e146108d957600080fd5b8063816a33ed116101b8578063816a33ed1461081f578063820dc01e14610832578063841e45611461084c578063860dcedb1461085f57600080fd5b8063783f1615146107c157806379521ade146107ef5780637987e5a1146107fc57600080fd5b80633d7d82f0116102b85780635c975abb11610256578063682917b611610230578063682917b6146107265780636b0cf64514610739578063715018a6146107515780637606f7811461075957600080fd5b80635c975abb146106495780635ddfcba81461065b57806364f387e01461066e57600080fd5b80634be6c548116102925780634be6c548146105d85780634e730243146105eb5780634ee8945a1461060d57806352c8dfd61461064157600080fd5b80633d7d82f0146105ad57806343f50e14146105b65780634a5bcbf8146105ce57600080fd5b80631c7e24261161032557806326c1246f116102ff57806326c1246f1461051f5780633189435014610560578063343576f514610573578063382d823c1461059c57600080fd5b80631c7e2426146104bf5780631dcbac96146104c757806324c8435f146104d357600080fd5b806311eac8551161036157806311eac8551461041457806312825a0f1461045357806313bfca821461046657806314d140b01461049457600080fd5b806304d377a31461038857806306ea4ddb146103ec5780630af3bec214610401575b600080fd5b61039b610396366004613a75565b610a99565b6040805182516001600160601b0390811682526020808501518216908301528383015116918101919091526060808301519082015260809182015115159181019190915260a0015b60405180910390f35b6103ff6103fa366004613ac1565b610b8d565b005b6103ff61040f366004613b3c565b610d43565b61043b7f000000000000000000000000000000000000000000000000000000000000000081565b6040516001600160a01b0390911681526020016103e3565b6103ff610461366004613b7d565b610fa0565b610486610474366004613bed565b60066020526000908152604090205481565b6040519081526020016103e3565b6003546104a7906001600160801b031681565b6040516001600160801b0390911681526020016103e3565b600554610486565b6104a764e8d4a5100081565b6104e66104e1366004613a75565b61106c565b604080516001600160601b039687168152948616602086015292909416918301919091526060820152901515608082015260a0016103e3565b61054861052d366004613c08565b600d602052600090815260409020546001600160601b031681565b6040516001600160601b0390911681526020016103e3565b6103ff61056e366004613c23565b6110c1565b610586610581366004613c08565b611259565b6040516103e39a99989796959493929190613c9d565b6003546001600160801b03166104a7565b61048660095481565b600354600160801b90046001600160801b03166104a7565b6104866201518081565b6103ff6105e6366004613d37565b611368565b6007546105fd90610100900460ff1681565b60405190151581526020016103e3565b6105fd61061b366004613c08565b6001600160a01b03166000908152600d60205260409020546001600160601b0316151590565b6104866116c5565b600154600160a01b900460ff166105fd565b6103ff610669366004613b3c565b611790565b6106e2604080516080810182526000808252602082018190529181018290526060810191909152506040805160808101825260075460ff80821615158352610100820416151560208301526001600160601b03620100008204811693830193909352600160701b9004909116606082015290565b60408051825115158152602080840151151590820152828201516001600160601b0390811692820192909252606092830151909116918101919091526080016103e3565b6103ff610734366004613bed565b6117e7565b6004546105489061010090046001600160601b031681565b6103ff61197d565b610761611991565b6040516103e39190600060a0820190506001600160601b0380845116835260208401516001600160801b03808216602086015280604087015116604086015280606087015116606086015250508060808501511660808401525092915050565b6105fd6107cf366004613c08565b6001600160a01b039081166000908152600c602052604090205416151590565b6007546105fd9060ff1681565b6105fd61080a366004613c08565b600e6020526000908152604090205460ff1681565b6103ff61082d366004613d7e565b611a61565b60075461054890600160701b90046001600160601b031681565b6103ff61085a366004613c08565b61201b565b6105fd61086d366004613df3565b8151602081840181018051600b825292820194820194909420919093529091526000908152604090205460ff1681565b6108b06108ab366004613c08565b61209b565b6040516001600160401b0390911681526020016103e3565b6001546001600160a01b031661043b565b6108ec6108e7366004613c08565b61213f565b6040516103e39190613ea7565b6103ff610907366004613f7b565b6122e1565b6103ff61091a366004613fa5565b6123fc565b6105fd61092d366004613f7b565b600a60209081526000928352604080842090915290825290205460ff1681565b6103ff61095b366004614006565b6124e1565b6004546105fd9060ff1681565b60025461054890600160a01b90046001600160601b031681565b6003546104a790600160801b90046001600160801b031681565b610548612647565b6105fd6109b7366004613c08565b6001600160a01b03166000908152600e602052604090205460ff1690565b60025461043b906001600160a01b031681565b6103ff6109f636600461405e565b612670565b6103ff610a09366004613b3c565b612743565b6103ff610a1c366004613fa5565b61278e565b610486620f424081565b600754610548906201000090046001600160601b031681565b60045461054890600160681b90046001600160601b031681565b610486610a6c366004613a75565b60086020526000908152604090205481565b6103ff6129dc565b6103ff610a94366004613c08565b612c50565b6040805160a0810182526000808252602082018190529181018290526060810182905260808101919091526005548210610b115760405162461bcd60e51b8152602060048201526014602482015273092dcecc2d8d2c840e0cae4d2dec840d2dcc8caf60631b60448201526064015b60405180910390fd5b60058281548110610b2457610b246140af565b60009182526020918290206040805160a081018252600490930290910180546001600160601b038082168552600160601b9091048116948401949094526001810154909316908201526002820154606082015260039091015460ff161515608082015292915050565b610b95612cc9565b600354600090610bb7906001600160801b03600160801b8204811691166140db565b9050806001600160801b0316826001600160801b03161115610c1b5760405162461bcd60e51b815260206004820152601b60248201527f496e73756666696369656e7420636f6d6d756e69747920706f6f6c00000000006044820152606401610b08565b6001600160a01b038316610c655760405162461bcd60e51b8152602060048201526011602482015270125b9d985b1a59081c9958da5c1a595b9d607a1b6044820152606401610b08565b60405163a9059cbb60e01b81526001600160a01b0384811660048301526001600160801b03841660248301527f0000000000000000000000000000000000000000000000000000000000000000169063a9059cbb906044016020604051808303816000875af1158015610cdc573d6000803e3d6000fd5b505050506040513d601f19601f82011682018060405250810190610d009190614102565b610d3e5760405162461bcd60e51b815260206004820152600f60248201526e151c985b9cd9995c8819985a5b1959608a1b6044820152606401610b08565b505050565b336000908152600c60205260409020546001600160a01b0316610d9a5760405162461bcd60e51b815260206004820152600f60248201526e139bc81c1b195919d948199bdd5b99608a1b6044820152606401610b08565b336000908152600c602052604090206006015460ff16610df35760405162461bcd60e51b8152602060048201526014602482015273506c65646765206973206e6f742061637469766560601b6044820152606401610b08565b80610e105760405162461bcd60e51b8152600401610b089061411f565b6101f4811115610e585760405162461bcd60e51b8152602060048201526013602482015272436f6d6d69746d656e7420746f6f206c6f6e6760681b6044820152606401610b08565b336000908152600c602052604081206005018054610e7590614156565b80601f0160208091040260200160405190810160405280929190818152602001828054610ea190614156565b8015610eee5780601f10610ec357610100808354040283529160200191610eee565b820191906000526020600020905b815481529060010190602001808311610ed157829003601f168201915b50505050509050600083833342604051602001610f0e9493929190614190565b60408051601f198184030181529181528151602092830120336000908152600c9093529120909150600501610f44848683614209565b50336000818152600c602052604090819020600301839055517fae78845772df082908e2915a586458869988a457bf8a949f04a603987a647b7e90610f9290859088908890879042906142f2565b60405180910390a250505050565b610fa8612cc9565b60098054906000610fb88361433a565b919050555060008484848442600954604051602001610fdc96959493929190614353565b60405160208183030381529060405280519060200120905060006201518042611005919061438a565b60008381526008602052604090819020829055519091506001600160a01b0387169083907f27843605db76e2d4317debefee19c66b3983a20734112a18159c3e7311ac5ff59061105c90899089908990889061439d565b60405180910390a3505050505050565b6005818154811061107c57600080fd5b600091825260209091206004909102018054600182015460028301546003909301546001600160601b038084169550600160601b909304831693919092169160ff1685565b6110c9612cc9565b806001600160601b0316826001600160601b03161061111b5760405162461bcd60e51b815260206004820152600e60248201526d125b9d985b1a59081c195c9a5bd960921b6044820152606401610b08565b42816001600160601b03161161116e5760405162461bcd60e51b8152602060048201526018602482015277506572696f64206d75737420626520696e2066757475726560401b6044820152606401610b08565b600554600090611180906001906143c8565b9050600060058281548110611197576111976140af565b600091825260209182902060049182020180546001600160601b038881166001600160c01b03199092168217600160601b9189169182021783558354610100600160c81b03191661010083026bffffffffffffffffffffffff60681b191617600160681b82021793849055604080519283529482015260ff909216151592820192909252606081018490529091507ffd135e1c870a0c0a36636058ed9ad913ab6febec3039c41e96c01743bc0d17c3906080015b60405180910390a150505050565b600c602052600090815260409020805460018201546002830154600384015460048501546005860180546001600160a01b03871697600160a01b9097046001600160601b039081169790871696600160601b90046001600160801b039081169690811695600160801b9091046001600160401b031694909390926112dc90614156565b80601f016020809104026020016040519081016040528092919081815260200182805461130890614156565b80156113555780601f1061132a57610100808354040283529160200191611355565b820191906000526020600020905b81548152906001019060200180831161133857829003601f168201915b5050506006909301549192505060ff168a565b611370612cc9565b816001600160601b0316836001600160601b0316106113c25760405162461bcd60e51b815260206004820152600e60248201526d125b9d985b1a59081c195c9a5bd960921b6044820152606401610b08565b42826001600160601b0316116114155760405162461bcd60e51b8152602060048201526018602482015277506572696f64206d75737420626520696e2066757475726560401b6044820152606401610b08565b600554156114f2576005805460009190611431906001906143c8565b81548110611441576114416140af565b60009182526020909120600490910201600381015490915060ff16156114f05760038101805460ff191690556005547fc4b97ddf6fea35c2c4681bff1d1d660dbc473a5e3919350cdf790d04390429029061149e906001906143c8565b825460018401546002850154604080519485526001600160601b038085166020870152600160601b909404841690850152911660608301526001600160801b0316608082015260a00160405180910390a15b505b6040805160a0810182526001600160601b03858116808352858216602084018181526000958501868152606086018781526001608088018181526005805480840182559a81905298517f036b6384b5eca791c62761152d0c79bb0604c104a5fb6f4eb0703f3154bb3db060049b8c0290810180549751928b166001600160c01b031990981697909717600160601b928b16929092029190911790955592517f036b6384b5eca791c62761152d0c79bb0604c104a5fb6f4eb0703f3154bb3db1850180546001600160601b0319169190981617909655517f036b6384b5eca791c62761152d0c79bb0604c104a5fb6f4eb0703f3154bb3db2830155517f036b6384b5eca791c62761152d0c79bb0604c104a5fb6f4eb0703f3154bb3db3909101805460ff199081169215159290921790558554610100600160c81b0319166101009093026bffffffffffffffffffffffff60681b191692909217600160681b909102171684151517909255547ffd135e1c870a0c0a36636058ed9ad913ab6febec3039c41e96c01743bc0d17c39185918591859161168f91906143c8565b604080516001600160601b03958616815293909416602084015290151582840152606082015290519081900360800190a1505050565b60045460009060ff1615806116da5750600554155b156116e6575060001990565b6005545b801561178757600060056116ff6001846143c8565b8154811061170f5761170f6140af565b60009182526020909120600490910201600381015490915060ff168015611740575080546001600160601b03164210155b801561175d57508054600160601b90046001600160601b03164211155b156117745761176d6001836143c8565b9250505090565b508061177f816143db565b9150506116ea565b50600019905090565b611798612cc9565b6117a0612d23565b336001600160a01b03167f5e9efe0320c49a9eb6e0d598cd54a92107df81a70b87c1fff8e2c2a3b803f77483836040516117db9291906143f2565b60405180910390a25050565b6117ef612d78565b42816001600160601b0316106118475760405162461bcd60e51b815260206004820152601e60248201527f426972746820646174652063616e6e6f7420626520696e2066757475726500006044820152606401610b08565b6000816001600160601b0316116118a05760405162461bcd60e51b815260206004820152601760248201527f496e76616c69642062697274682074696d657374616d700000000000000000006044820152606401610b08565b336000908152600d60205260409020546001600160601b0316156118ff5760405162461bcd60e51b8152602060048201526016602482015275109a5c9d1a0819185d1948185b1c9958591e481cd95d60521b6044820152606401610b08565b336000818152600d6020526040812080546001600160601b0319166001600160601b038516179055906119319061209b565b604080516001600160601b03851681526001600160401b038316602082015291925033917ffed60e7a0716be7d2c5dda9e0a35969c84a47e38b721e982c6079abfa631716291016117db565b611985612cc9565b61198f6000612dc5565b565b6040805160a0810182526000808252602082018190529181018290526060810182905260808101919091526002546000906119e090620f424090600160a01b90046001600160601b031661440e565b600354909150600090611a0790620f424090600160801b90046001600160801b031661443b565b6040805160a0810182526002546001600160601b03600160a01b909104811682526001600160801b03958616602083015260035480871693830193909352600160801b909204909416606085015216608083015250919050565b611a69612e17565b336000908152600c60205260409020546001600160a01b031615611ac15760405162461bcd60e51b815260206004820152600f60248201526e105b1c9958591e481c1b195919d959608a1b6044820152606401610b08565b336000908152600d60205260409020546001600160601b0316611b1d5760405162461bcd60e51b815260206004820152601460248201527314d95d08189a5c9d1a0819185d1948199a5c9cdd60621b6044820152606401610b08565b82611b3a5760405162461bcd60e51b8152600401610b089061411f565b6101f4831115611b825760405162461bcd60e51b8152602060048201526013602482015272436f6d6d69746d656e7420746f6f206c6f6e6760681b6044820152606401610b08565b600354620f4240600160801b9091046001600160801b03161015611be85760405162461bcd60e51b815260206004820152601e60248201527f4e6f2073706f6e736f72736869702066756e647320617661696c61626c6500006044820152606401610b08565b60045460ff1615611c815760045461010090046001600160601b03164210801590611c255750600454600160681b90046001600160601b03164211155b611c815760405162461bcd60e51b815260206004820152602760248201527f506c6564676573206f6e6c7920616c6c6f77656420647572696e6720636f6e76604482015266657267656e636560c81b6064820152608401610b08565b6000611c8c3361209b565b9050600085853342604051602001611ca79493929190614190565b604051602081830303815290604052805190602001209050620f4240600360108282829054906101000a90046001600160801b0316611ce691906140db565b82546001600160801b039182166101009390930a928302919092021990911617905550336000908152600e60205260409020805460ff19166001179055600280546001600160601b03600160a01b90910416906014611d448361444f565b91906101000a8154816001600160601b0302191690836001600160601b0316021790555050604051806101400160405280336001600160a01b03168152602001600260149054906101000a90046001600160601b03166001600160601b03168152602001426001600160601b0316815260200160006001600160801b0316815260200160006001600160801b03168152602001836001600160401b03168152602001828152602001611e2b86868080601f016020809104026020016040519081016040528093929190818152602001838380828437600092019190915250612e7092505050565b815260200187878080601f0160208091040260200160405190810160405280939291908181526020018383808284376000920182905250938552505060016020938401819052338352600c84526040928390208551948601516001600160a01b03909516600160a01b6001600160601b03968716021781559285015190830180546060870151929095166001600160e01b031990951694909417600160601b6001600160801b03928316021790935550608083015160028201805460a0860151929094166001600160c01b031990941693909317600160801b6001600160401b03909216919091021790915560c0820151600382015560e082015160048201556101008201516005820190611f409082614475565b506101208201518160060160006101000a81548160ff021916908315150217905550905050336001600160a01b03167f55c5a3fa94ea0ca5069f72cffdc1d2a5aca372c6ab3d6fc054e0f6470a60a092838387876000808d8d600260149054906101000a90046001600160601b0316426001604051611fc99b9a99989796959493929190614534565b60405180910390a2604051620f4240815233907f9b94250ed1d2b33d4e455c1f39cba33e993f24bfc11cda758bf1a48d4d02281b9060200160405180910390a250506120156001600055565b50505050565b612023612cc9565b6001600160a01b0381166120795760405162461bcd60e51b815260206004820152601860248201527f496e76616c6964207472656173757279206164647265737300000000000000006044820152606401610b08565b600280546001600160a01b0319166001600160a01b0392909216919091179055565b6001600160a01b0381166000908152600d60205260408120546001600160601b03166120fe5760405162461bcd60e51b8152602060048201526012602482015271109a5c9d1a0819185d19481b9bdd081cd95d60721b6044820152606401610b08565b6001600160a01b0382166000908152600d6020526040902054620151809061212f906001600160601b0316426143c8565b612139919061443b565b92915050565b604080516101408101825260008082526020820181905291810182905260608082018390526080820183905260a0820183905260c0820183905260e082018390526101008201526101208101919091526001600160a01b038281166000908152600c602090815260409182902082516101408101845281549485168152600160a01b9094046001600160601b0390811692850192909252600181015491821692840192909252600160601b90046001600160801b03908116606084015260028201549081166080840152600160801b90046001600160401b031660a0830152600381015460c0830152600481015460e08301526005810180546101008401919061224890614156565b80601f016020809104026020016040519081016040528092919081815260200182805461227490614156565b80156122c15780601f10612296576101008083540402835291602001916122c1565b820191906000526020600020905b8154815290600101906020018083116122a457829003601f168201915b50505091835250506006919091015460ff16151560209091015292915050565b6122e9612cc9565b7f00000000000000000000000000000000000000000000000000000000000000006001600160a01b0316826001600160a01b031614158061233557506003546001600160801b03168111155b61238b5760405162461bcd60e51b815260206004820152602160248201527f43616e6e6f74207769746864726177206f7065726174696f6e616c2066756e646044820152607360f81b6064820152608401610b08565b60405163a9059cbb60e01b8152336004820152602481018290526001600160a01b0383169063a9059cbb906044016020604051808303816000875af11580156123d8573d6000803e3d6000fd5b505050506040513d601f19601f82011682018060405250810190610d3e9190614102565b612404612cc9565b60008585858561241762015180426143c8565b8660405160200161242d96959493929190614353565b60405160208183030381529060405280519060200120905060086000828152602001908152602001600020546000036124a15760405162461bcd60e51b8152602060048201526016602482015275151c985b9cd858dd1a5bdb881b9bdd081c5d595d595960521b6044820152606401610b08565b6000818152600860205260408082208290555182917f0891e6c675e964cf1e5982f60fda276ad06301a9221b2f1d7bf2b2a42fbd69a191a2505050505050565b6124e9612cc9565b620f4240826001600160601b031610156125455760405162461bcd60e51b815260206004820181905260248201527f4d696e20616d6f756e74206d757374206265203e3d20706c65646765206665656044820152606401610b08565b64e8d4a510006001600160601b03821611156125995760405162461bcd60e51b815260206004820152601360248201527209ac2f040c2dadeeadce840e8dede40d0d2ced606b1b6044820152606401610b08565b6007805461ffff191685151561ff00198116919091176101008615159081029190911762010000600160d01b031916620100006001600160601b038781169182026bffffffffffffffffffffffff60701b191692909217600160701b928716928302179094556040805193845260208401929092529082019290925260608101919091527f10576bfac8e03a8678b9bfe58092bf442c3be0fbaa6ca1a696a5e3d40a8e8eb49060800161124b565b60035460009061266b90620f424090600160801b90046001600160801b031661443b565b905090565b612678612e17565b612680612d78565b60045460ff1615806126bf575060045461010090046001600160601b031642108015906126bf5750600454600160681b90046001600160601b03164211155b61270b5760405162461bcd60e51b815260206004820152601960248201527f4e6f7420696e20636f6e76657267656e636520706572696f64000000000000006044820152606401610b08565b60008060008061271d88888888612e8f565b935093509350935061273588888888888888886133f9565b505050506120156001600055565b61274b612cc9565b6127536135e9565b336001600160a01b03167f375c0abd968f4602b557f6ac9a48ffc89820233aa9becc5d7ff1176fd09eafff83836040516117db9291906143f2565b612796612cc9565b6000858585856127a962015180426143c8565b866040516020016127bf96959493929190614353565b60405160208183030381529060405280519060200120905060086000828152602001908152602001600020546000036128335760405162461bcd60e51b8152602060048201526016602482015275151c985b9cd858dd1a5bdb881b9bdd081c5d595d595960521b6044820152606401610b08565b6000818152600860205260409020544210156128885760405162461bcd60e51b8152602060048201526014602482015273151a5b595b1bd8dac81b9bdd08195e1c1a5c995960621b6044820152606401610b08565b60008181526008602052604080822082905580516004815260248101918290526001600160a01b038916918891906128c390899089906145bb565b60408051918290039091206020830180516001600160e01b03166001600160e01b0319909216919091179052516128fa91906145cb565b60006040518083038185875af1925050503d8060008114612937576040519150601f19603f3d011682016040523d82523d6000602084013e61293c565b606091505b505090508061298d5760405162461bcd60e51b815260206004820152601c60248201527f5472616e73616374696f6e20657865637574696f6e206661696c6564000000006044820152606401610b08565b866001600160a01b0316827f35b78e510aac7136bf9ba2fa3d4e8f255ce171c52ac466063b884996520d52f48888886040516129cb939291906145e7565b60405180910390a350505050505050565b6129e4612e17565b6129ec612d78565b600754610100900460ff16612a3a5760405162461bcd60e51b815260206004820152601460248201527314995d9bd8d85d1a5bdb9cc8191a5cd8589b195960621b6044820152606401610b08565b336000908152600c60205260409020600681015460ff16612a905760405162461bcd60e51b815260206004820152601060248201526f4e6f2061637469766520706c6564676560801b6044820152606401610b08565b6001810154612aab906001600160601b03166201518061460a565b6001600160601b0316421115612b035760405162461bcd60e51b815260206004820152601960248201527f5265766f636174696f6e20706572696f642065787069726564000000000000006044820152606401610b08565b600281015460068201805460ff191690556001600160801b03168015612bf85760405163a9059cbb60e01b81523360048201526001600160801b03821660248201527f00000000000000000000000000000000000000000000000000000000000000006001600160a01b03169063a9059cbb906044016020604051808303816000875af1158015612b98573d6000803e3d6000fd5b505050506040513d601f19601f82011682018060405250810190612bbc9190614102565b612bf85760405162461bcd60e51b815260206004820152600d60248201526c1499599d5b990819985a5b1959609a1b6044820152606401610b08565b604080516001600160801b03831681526001600160601b034216602082015233917facd85388ca1f551d628d70ee145b46bcf3391d20efc72788a0c87d1435ff1a74910160405180910390a2505061198f6001600055565b612c58612cc9565b6001600160a01b038116612cbd5760405162461bcd60e51b815260206004820152602660248201527f4f776e61626c653a206e6577206f776e657220697320746865207a65726f206160448201526564647265737360d01b6064820152608401610b08565b612cc681612dc5565b50565b6001546001600160a01b0316331461198f5760405162461bcd60e51b815260206004820181905260248201527f4f776e61626c653a2063616c6c6572206973206e6f7420746865206f776e65726044820152606401610b08565b612d2b61362c565b6001805460ff60a01b191690557f5db9ee0a495bf2e6ff9c91a7834c1ba4fdd244a5e8aa4e537bd38aeae4b073aa335b6040516001600160a01b03909116815260200160405180910390a1565b600154600160a01b900460ff161561198f5760405162461bcd60e51b815260206004820152601060248201526f14185d5cd8589b194e881c185d5cd95960821b6044820152606401610b08565b600180546001600160a01b038381166001600160a01b0319831681179093556040519116919082907f8be0079c531659141344cd1fd0a4f28419497f9722a3daafe3b4186f6b6457e090600090a35050565b600260005403612e695760405162461bcd60e51b815260206004820152601f60248201527f5265656e7472616e637947756172643a207265656e7472616e742063616c6c006044820152606401610b08565b6002600055565b805160009082908203612e865750600092915050565b50506020015190565b600080600080612e9d6116c5565b93506000198403612ef05760405162461bcd60e51b815260206004820152601c60248201527f4e6f2061637469766520636f6e76657267656e636520706572696f64000000006044820152606401610b08565b336000908152600a6020908152604080832087845290915290205460ff1615612f6e5760405162461bcd60e51b815260206004820152602a60248201527f416464726573732068617320616c726561647920706c656467656420696e20746044820152691a1a5cc81c195c9a5bd960b21b6064820152608401610b08565b600b612f798761367c565b604051612f8691906145cb565b90815260408051602092819003830190206000878152925290205460ff16156130005760405162461bcd60e51b815260206004820152602660248201527f4649442068617320616c726561647920706c656467656420696e2074686973206044820152651c195c9a5bd960d21b6064820152608401610b08565b336000908152600d60205260409020546001600160601b031661305c5760405162461bcd60e51b815260206004820152601460248201527314d95d08189a5c9d1a0819185d1948199a5c9cdd60621b6044820152606401610b08565b866130795760405162461bcd60e51b8152600401610b089061411f565b60a08711156130d65760405162461bcd60e51b815260206004820152602360248201527f436f6d6d69746d656e7420746f6f206c6f6e6720286d6178203136302063686160448201526272732960e81b6064820152608401610b08565b6007546201000090046001600160601b03166001600160801b03861610156131385760405162461bcd60e51b8152602060048201526015602482015274506c6564676520616d6f756e7420746f6f206c6f7760581b6044820152606401610b08565b600754600160701b90046001600160601b03166001600160801b038616111561319c5760405162461bcd60e51b81526020600482015260166024820152750a0d8cac8ceca40c2dadeeadce840e8dede40d0d2ced60531b6044820152606401610b08565b6040516370a0823160e01b81523360048201526001600160801b038616907f00000000000000000000000000000000000000000000000000000000000000006001600160a01b0316906370a0823190602401602060405180830381865afa15801561320b573d6000803e3d6000fd5b505050506040513d601f19601f8201168201806040525081019061322f919061462a565b101561327d5760405162461bcd60e51b815260206004820152601960248201527f496e73756666696369656e7420555344432062616c616e6365000000000000006044820152606401610b08565b6002546040516323b872dd60e01b81523360048201526001600160a01b039182166024820152620f424060448201527f0000000000000000000000000000000000000000000000000000000000000000909116906323b872dd906064016020604051808303816000875af11580156132f9573d6000803e3d6000fd5b505050506040513d601f19601f8201168201806040525081019061331d9190614102565b6133695760405162461bcd60e51b815260206004820181905260248201527f55534443207472616e7366657220746f207472656173757279206661696c65646044820152606401610b08565b613376620f4240866140db565b92506001600160801b038316156133915761339133846137b2565b60028054600160a01b90046001600160601b03169060146133b18361444f565b91906101000a8154816001600160601b0302191690836001600160601b03160217905550506133df3361209b565b91506133ec888833613984565b9050945094509450949050565b336000818152600c6020526040902080546001600160a01b03191682178155600280546001600160601b03600160a01b91829004811690910290931782556001820180546001600160801b03808b16600160601b026001600160e01b03199092164290961695909517179055810180546001600160401b038616600160801b026001600160c01b031990911693871693909317929092179091556003810182905560048101879055600581016134b0898b83614209565b50600681018054600160ff199182168117909255336000908152600a602090815260408083208a84529091529020805490911682179055600b6134f28961367c565b6040516134ff91906145cb565b9081526040805160209281900383019020600089815292529020805460ff191691151591909117905560045460ff16801561354a575060045461010090046001600160601b03164210155b80156135685750600454600160681b90046001600160601b03164211155b1561357657613576866139bc565b337f55c5a3fa94ea0ca5069f72cffdc1d2a5aca372c6ab3d6fc054e0f6470a60a09284846135a38b61367c565b8a898f8f600260149054906101000a90046001600160601b03164260006040516135d69a99989796959493929190614643565b60405180910390a2505050505050505050565b6135f1612d78565b6001805460ff60a01b1916600160a01b1790557f62e78cea01bee320cd4e420270b5ea74000d11b0c9f74754ebdbfc544b05a258612d5b3390565b600154600160a01b900460ff1661198f5760405162461bcd60e51b815260206004820152601460248201527314185d5cd8589b194e881b9bdd081c185d5cd95960621b6044820152606401610b08565b606060005b60208160ff161080156136b55750828160ff16602081106136a4576136a46140af565b1a60f81b6001600160f81b03191615155b156136cc57806136c4816146c8565b915050613681565b60008160ff166001600160401b038111156136e9576136e9613ddd565b6040519080825280601f01601f191660200182016040528015613713576020820181803683370190505b509050600091505b60208260ff1610801561374f5750838260ff166020811061373e5761373e6140af565b1a60f81b6001600160f81b03191615155b156137ab57838260ff1660208110613769576137696140af565b1a60f81b818360ff1681518110613782576137826140af565b60200101906001600160f81b031916908160001a905350816137a3816146c8565b92505061371b565b9392505050565b60006137bf6002836146e7565b905080600360108282829054906101000a90046001600160801b03166137e5919061470d565b82546101009290920a6001600160801b038181021990931691831602179091556040516323b872dd60e01b81526001600160a01b03868116600483015230602483015291851660448201527f000000000000000000000000000000000000000000000000000000000000000090911691506323b872dd906064016020604051808303816000875af115801561387e573d6000803e3d6000fd5b505050506040513d601f19601f820116820180604052508101906138a29190614102565b6138ee5760405162461bcd60e51b815260206004820181905260248201527f55534443207472616e7366657220666f7220737572706c7573206661696c65646044820152606401610b08565b6003805483919060009061390c9084906001600160801b031661470d565b82546101009290920a6001600160801b03818102199093169183160217909155600354604080518584168152600160801b90920490921660208201526001600160a01b03861692507fb9872407c294d110a9a3280f9146cc02de9fd0de8a552a414b1b43720222e9c1910160405180910390a2505050565b60008383834260405160200161399d9493929190614190565b6040516020818303038152906040528051906020012090509392505050565b6005546000906139ce906001906143c8565b9050600581815481106139e3576139e36140af565b60009182526020822060016004909202010180546001600160601b031691613a0a8361444f565b91906101000a8154816001600160601b0302191690836001600160601b0316021790555050816001600160801b031660058281548110613a4c57613a4c6140af565b90600052602060002090600402016002016000828254613a6c919061438a565b90915550505050565b600060208284031215613a8757600080fd5b5035919050565b80356001600160a01b0381168114613aa557600080fd5b919050565b80356001600160801b0381168114613aa557600080fd5b60008060408385031215613ad457600080fd5b613add83613a8e565b9150613aeb60208401613aaa565b90509250929050565b60008083601f840112613b0657600080fd5b5081356001600160401b03811115613b1d57600080fd5b602083019150836020828501011115613b3557600080fd5b9250929050565b60008060208385031215613b4f57600080fd5b82356001600160401b03811115613b6557600080fd5b613b7185828601613af4565b90969095509350505050565b60008060008060608587031215613b9357600080fd5b613b9c85613a8e565b93506020850135925060408501356001600160401b03811115613bbe57600080fd5b613bca87828801613af4565b95989497509550505050565b80356001600160601b0381168114613aa557600080fd5b600060208284031215613bff57600080fd5b6137ab82613bd6565b600060208284031215613c1a57600080fd5b6137ab82613a8e565b60008060408385031215613c3657600080fd5b613c3f83613bd6565b9150613aeb60208401613bd6565b60005b83811015613c68578181015183820152602001613c50565b50506000910152565b60008151808452613c89816020860160208601613c4d565b601f01601f19169290920160200192915050565b6001600160a01b038b1681526001600160601b038a81166020830152891660408201526001600160801b038881166060830152871660808201526001600160401b03861660a082015260c0810185905260e081018490526101406101008201819052600090613d0e83820186613c71565b9150508215156101208301529b9a5050505050505050505050565b8015158114612cc657600080fd5b600080600060608486031215613d4c57600080fd5b613d5584613bd6565b9250613d6360208501613bd6565b91506040840135613d7381613d29565b809150509250925092565b60008060008060408587031215613d9457600080fd5b84356001600160401b0380821115613dab57600080fd5b613db788838901613af4565b90965094506020870135915080821115613dd057600080fd5b50613bca87828801613af4565b634e487b7160e01b600052604160045260246000fd5b60008060408385031215613e0657600080fd5b82356001600160401b0380821115613e1d57600080fd5b818501915085601f830112613e3157600080fd5b813581811115613e4357613e43613ddd565b604051601f8201601f19908116603f01168101908382118183101715613e6b57613e6b613ddd565b81604052828152886020848701011115613e8457600080fd5b826020860160208301376000602093820184015298969091013596505050505050565b60208152613ec16020820183516001600160a01b03169052565b60006020830151613edd60408401826001600160601b03169052565b5060408301516001600160601b03811660608401525060608301516001600160801b03811660808401525060808301516001600160801b03811660a08401525060a08301516001600160401b03811660c08401525060c083015160e083015260e08301516101008181850152808501519150506101406101208181860152613f69610160860184613c71565b95015115159301929092525090919050565b60008060408385031215613f8e57600080fd5b613f9783613a8e565b946020939093013593505050565b600080600080600060808688031215613fbd57600080fd5b613fc686613a8e565b94506020860135935060408601356001600160401b03811115613fe857600080fd5b613ff488828901613af4565b96999598509660600135949350505050565b6000806000806080858703121561401c57600080fd5b843561402781613d29565b9350602085013561403781613d29565b925061404560408601613bd6565b915061405360608601613bd6565b905092959194509250565b6000806000806060858703121561407457600080fd5b84356001600160401b0381111561408a57600080fd5b61409687828801613af4565b9095509350506020850135915061405360408601613aaa565b634e487b7160e01b600052603260045260246000fd5b634e487b7160e01b600052601160045260246000fd5b6001600160801b038281168282160390808211156140fb576140fb6140c5565b5092915050565b60006020828403121561411457600080fd5b81516137ab81613d29565b6020808252601a908201527f436f6d6d69746d656e742063616e6e6f7420626520656d707479000000000000604082015260600190565b600181811c9082168061416a57607f821691505b60208210810361418a57634e487b7160e01b600052602260045260246000fd5b50919050565b8385823760609290921b6001600160601b031916919092019081526014810191909152603401919050565b601f821115610d3e57600081815260208120601f850160051c810160208610156141e25750805b601f850160051c820191505b81811015614201578281556001016141ee565b505050505050565b6001600160401b0383111561422057614220613ddd565b6142348361422e8354614156565b836141bb565b6000601f84116001811461426857600085156142505750838201355b600019600387901b1c1916600186901b1783556142c2565b600083815260209020601f19861690835b828110156142995786850135825560209485019460019092019101614279565b50868210156142b65760001960f88860031b161c19848701351681555b505060018560011b0183555b5050505050565b81835281816020850137506000828201602090810191909152601f909101601f19169091010190565b6080815260006143056080830188613c71565b82810360208401526143188187896142c9565b9150508360408301526001600160601b03831660608301529695505050505050565b60006001820161434c5761434c6140c5565b5060010190565b6001600160601b03198760601b16815285601482015283856034830137603493019283019190915260548201526074019392505050565b80820180821115612139576121396140c5565b8481526060602082015260006143b76060830185876142c9565b905082604083015295945050505050565b81810381811115612139576121396140c5565b6000816143ea576143ea6140c5565b506000190190565b6020815260006144066020830184866142c9565b949350505050565b8082028115828204841417612139576121396140c5565b634e487b7160e01b600052601260045260246000fd5b60008261444a5761444a614425565b500490565b60006001600160601b0380831681810361446b5761446b6140c5565b6001019392505050565b81516001600160401b0381111561448e5761448e613ddd565b6144a28161449c8454614156565b846141bb565b602080601f8311600181146144d757600084156144bf5750858301515b600019600386901b1c1916600185901b178555614201565b600085815260208120601f198616915b82811015614506578886015182559484019460019091019084016144e7565b50858210156145245787850151600019600388901b60f8161c191681555b5050505050600190811b01905550565b60006101206001600160401b038e1683528c602084015280604084015261455e8184018c8e6142c9565b6001600160801b038b811660608601528a16608085015283810360a0850152905061458a81888a6142c9565b6001600160601b0396871660c08501529490951660e083015250901515610100909101529998505050505050505050565b8183823760009101908152919050565b600082516145dd818460208701613c4d565b9190910192915050565b8381526040602082015260006146016040830184866142c9565b95945050505050565b6001600160601b038181168382160190808211156140fb576140fb6140c5565b60006020828403121561463c57600080fd5b5051919050565b60006101206001600160401b038d1683528b602084015280604084015261466c8184018c613c71565b6001600160801b038b811660608601528a16608085015283810360a0850152905061469881888a6142c9565b6001600160601b0396871660c08501529490951660e0830152509015156101009091015298975050505050505050565b600060ff821660ff81036146de576146de6140c5565b60010192915050565b60006001600160801b038084168061470157614701614425565b92169190910492915050565b6001600160801b038181168382160190808211156140fb576140fb6140c556fea26469706673582212200a3f4837155231228ac2a6dd31273d82ebd144e960fe3a884448dd80b254378164736f6c63430008130033","opcodes":"PUSH1 0xA0 PUSH1 0x40 MSTORE CALLVALUE DUP1 ISZERO PUSH3 0x11 JUMPI PUSH1 0x0 DUP1 REVERT JUMPDEST POP PUSH1 0x40 MLOAD PUSH3 0x49A3 CODESIZE SUB DUP1 PUSH3 0x49A3 DUP4 CODECOPY DUP2 ADD PUSH1 0x40 DUP2 SWAP1 MSTORE PUSH3 0x34 SWAP2 PUSH3 0x1C2 JUMP JUMPDEST PUSH1 0x1 PUSH1 0x0 SSTORE PUSH3 0x44 CALLER PUSH3 0x153 JUMP JUMPDEST PUSH1 0x1 DUP1 SLOAD PUSH1 0xFF PUSH1 0xA0 SHL NOT AND SWAP1 SSTORE PUSH1 0x1 PUSH1 0x1 PUSH1 0xA0 SHL SUB DUP3 AND PUSH3 0xAD JUMPI PUSH1 0x40 MLOAD PUSH3 0x461BCD PUSH1 0xE5 SHL DUP2 MSTORE PUSH1 0x20 PUSH1 0x4 DUP3 ADD MSTORE PUSH1 0x14 PUSH1 0x24 DUP3 ADD MSTORE PUSH32 0x496E76616C696420555344432061646472657373000000000000000000000000 PUSH1 0x44 DUP3 ADD MSTORE PUSH1 0x64 ADD JUMPDEST PUSH1 0x40 MLOAD DUP1 SWAP2 SUB SWAP1 REVERT JUMPDEST PUSH1 0x1 PUSH1 0x1 PUSH1 0xA0 SHL SUB DUP2 AND PUSH3 0x105 JUMPI PUSH1 0x40 MLOAD PUSH3 0x461BCD PUSH1 0xE5 SHL DUP2 MSTORE PUSH1 0x20 PUSH1 0x4 DUP3 ADD MSTORE PUSH1 0x18 PUSH1 0x24 DUP3 ADD MSTORE PUSH32 0x496E76616C696420747265617375727920616464726573730000000000000000 PUSH1 0x44 DUP3 ADD MSTORE PUSH1 0x64 ADD PUSH3 0xA4 JUMP JUMPDEST PUSH1 0x1 PUSH1 0x1 PUSH1 0xA0 SHL SUB SWAP2 DUP3 AND PUSH1 0x80 MSTORE PUSH1 0x2 DUP1 SLOAD PUSH1 0x1 PUSH1 0x1 PUSH1 0xA0 SHL SUB NOT AND SWAP2 SWAP1 SWAP3 AND OR SWAP1 SSTORE PUSH1 0x7 DUP1 SLOAD PUSH1 0x1 PUSH1 0x1 PUSH1 0xD0 SHL SUB NOT AND PUSH19 0xE8D4A510000000000000000000000F42400101 OR SWAP1 SSTORE PUSH3 0x1FA JUMP JUMPDEST PUSH1 0x1 DUP1 SLOAD PUSH1 0x1 PUSH1 0x1 PUSH1 0xA0 SHL SUB DUP4 DUP2 AND PUSH1 0x1 PUSH1 0x1 PUSH1 0xA0 SHL SUB NOT DUP4 AND DUP2 OR SWAP1 SWAP4 SSTORE PUSH1 0x40 MLOAD SWAP2 AND SWAP2 SWAP1 DUP3 SWAP1 PUSH32 0x8BE0079C531659141344CD1FD0A4F28419497F9722A3DAAFE3B4186F6B6457E0 SWAP1 PUSH1 0x0 SWAP1 LOG3 POP POP JUMP JUMPDEST DUP1 MLOAD PUSH1 0x1 PUSH1 0x1 PUSH1 0xA0 SHL SUB DUP2 AND DUP2 EQ PUSH3 0x1BD JUMPI PUSH1 0x0 DUP1 REVERT JUMPDEST SWAP2 SWAP1 POP JUMP JUMPDEST PUSH1 0x0 DUP1 PUSH1 0x40 DUP4 DUP6 SUB SLT ISZERO PUSH3 0x1D6 JUMPI PUSH1 0x0 DUP1 REVERT JUMPDEST PUSH3 0x1E1 DUP4 PUSH3 0x1A5 JUMP JUMPDEST SWAP2 POP PUSH3 0x1F1 PUSH1 0x20 DUP5 ADD PUSH3 0x1A5 JUMP JUMPDEST SWAP1 POP SWAP3 POP SWAP3 SWAP1 POP JUMP JUMPDEST PUSH1 0x80 MLOAD PUSH2 0x4763 PUSH3 0x240 PUSH1 0x0 CODECOPY PUSH1 0x0 DUP2 DUP2 PUSH2 0x419 ADD MSTORE DUP2 DUP2 PUSH2 0xC93 ADD MSTORE DUP2 DUP2 PUSH2 0x22EB ADD MSTORE DUP2 DUP2 PUSH2 0x2B47 ADD MSTORE DUP2 DUP2 PUSH2 0x31BC ADD MSTORE DUP2 DUP2 PUSH2 0x32AE ADD MSTORE PUSH2 0x3832 ADD MSTORE PUSH2 0x4763 PUSH1 0x0 RETURN INVALID PUSH1 0x80 PUSH1 0x40 MSTORE CALLVALUE DUP1 ISZERO PUSH2 0x10 JUMPI PUSH1 0x0 DUP1 REVERT JUMPDEST POP PUSH1 0x4 CALLDATASIZE LT PUSH2 0x383 JUMPI PUSH1 0x0 CALLDATALOAD PUSH1 0xE0 SHR DUP1 PUSH4 0x783F1615 GT PUSH2 0x1DE JUMPI DUP1 PUSH4 0x9EB97C1C GT PUSH2 0x10F JUMPI DUP1 PUSH4 0xCF5B4FD5 GT PUSH2 0xAD JUMPI DUP1 PUSH4 0xF10E131F GT PUSH2 0x7C JUMPI DUP1 PUSH4 0xF10E131F EQ PUSH2 0xA44 JUMPI DUP1 PUSH4 0xF2B06537 EQ PUSH2 0xA5E JUMPI DUP1 PUSH4 0xF2D6FE39 EQ PUSH2 0xA7E JUMPI DUP1 PUSH4 0xF2FDE38B EQ PUSH2 0xA86 JUMPI PUSH1 0x0 DUP1 REVERT JUMPDEST DUP1 PUSH4 0xCF5B4FD5 EQ PUSH2 0x9FB JUMPI DUP1 PUSH4 0xD1C82269 EQ PUSH2 0xA0E JUMPI DUP1 PUSH4 0xD1DD53B8 EQ PUSH2 0xA21 JUMPI DUP1 PUSH4 0xEC555E91 EQ PUSH2 0xA2B JUMPI PUSH1 0x0 DUP1 REVERT JUMPDEST DUP1 PUSH4 0xB3CFE758 GT PUSH2 0xE9 JUMPI DUP1 PUSH4 0xB3CFE758 EQ PUSH2 0x9A1 JUMPI DUP1 PUSH4 0xBD330CA6 EQ PUSH2 0x9A9 JUMPI DUP1 PUSH4 0xC5F956AF EQ PUSH2 0x9D5 JUMPI DUP1 PUSH4 0xCB4299F3 EQ PUSH2 0x9E8 JUMPI PUSH1 0x0 DUP1 REVERT JUMPDEST DUP1 PUSH4 0x9EB97C1C EQ PUSH2 0x960 JUMPI DUP1 PUSH4 0x9F3D391E EQ PUSH2 0x96D JUMPI DUP1 PUSH4 0xB1B0791E EQ PUSH2 0x987 JUMPI PUSH1 0x0 DUP1 REVERT JUMPDEST DUP1 PUSH4 0x8A95D8BC GT PUSH2 0x17C JUMPI DUP1 PUSH4 0x95CCEA67 GT PUSH2 0x156 JUMPI DUP1 PUSH4 0x95CCEA67 EQ PUSH2 0x8F9 JUMPI DUP1 PUSH4 0x97272D75 EQ PUSH2 0x90C JUMPI DUP1 PUSH4 0x998C1D55 EQ PUSH2 0x91F JUMPI DUP1 PUSH4 0x9CD5E7DC EQ PUSH2 0x94D JUMPI PUSH1 0x0 DUP1 REVERT JUMPDEST DUP1 PUSH4 0x8A95D8BC EQ PUSH2 0x89D JUMPI DUP1 PUSH4 0x8DA5CB5B EQ PUSH2 0x8C8 JUMPI DUP1 PUSH4 0x90769E0E EQ PUSH2 0x8D9 JUMPI PUSH1 0x0 DUP1 REVERT JUMPDEST DUP1 PUSH4 0x816A33ED GT PUSH2 0x1B8 JUMPI DUP1 PUSH4 0x816A33ED EQ PUSH2 0x81F JUMPI DUP1 PUSH4 0x820DC01E EQ PUSH2 0x832 JUMPI DUP1 PUSH4 0x841E4561 EQ PUSH2 0x84C JUMPI DUP1 PUSH4 0x860DCEDB EQ PUSH2 0x85F JUMPI PUSH1 0x0 DUP1 REVERT JUMPDEST DUP1 PUSH4 0x783F1615 EQ PUSH2 0x7C1 JUMPI DUP1 PUSH4 0x79521ADE EQ PUSH2 0x7EF JUMPI DUP1 PUSH4 0x7987E5A1 EQ PUSH2 0x7FC JUMPI PUSH1 0x0 DUP1 REVERT JUMPDEST DUP1 PUSH4 0x3D7D82F0 GT PUSH2 0x2B8 JUMPI DUP1 PUSH4 0x5C975ABB GT PUSH2 0x256 JUMPI DUP1 PUSH4 0x682917B6 GT PUSH2 0x230 JUMPI DUP1 PUSH4 0x682917B6 EQ PUSH2 0x726 JUMPI DUP1 PUSH4 0x6B0CF645 EQ PUSH2 0x739 JUMPI DUP1 PUSH4 0x715018A6 EQ PUSH2 0x751 JUMPI DUP1 PUSH4 0x7606F781 EQ PUSH2 0x759 JUMPI PUSH1 0x0 DUP1 REVERT JUMPDEST DUP1 PUSH4 0x5C975ABB EQ PUSH2 0x649 JUMPI DUP1 PUSH4 0x5DDFCBA8 EQ PUSH2 0x65B JUMPI DUP1 PUSH4 0x64F387E0 EQ PUSH2 0x66E JUMPI PUSH1 0x0 DUP1 REVERT JUMPDEST DUP1 PUSH4 0x4BE6C548 GT PUSH2 0x292 JUMPI DUP1 PUSH4 0x4BE6C548 EQ PUSH2 0x5D8 JUMPI DUP1 PUSH4 0x4E730243 EQ PUSH2 0x5EB JUMPI DUP1 PUSH4 0x4EE8945A EQ PUSH2 0x60D JUMPI DUP1 PUSH4 0x52C8DFD6 EQ PUSH2 0x641 JUMPI PUSH1 0x0 DUP1 REVERT JUMPDEST DUP1 PUSH4 0x3D7D82F0 EQ PUSH2 0x5AD JUMPI DUP1 PUSH4 0x43F50E14 EQ PUSH2 0x5B6 JUMPI DUP1 PUSH4 0x4A5BCBF8 EQ PUSH2 0x5CE JUMPI PUSH1 0x0 DUP1 REVERT JUMPDEST DUP1 PUSH4 0x1C7E2426 GT PUSH2 0x325 JUMPI DUP1 PUSH4 0x26C1246F GT PUSH2 0x2FF JUMPI DUP1 PUSH4 0x26C1246F EQ PUSH2 0x51F JUMPI DUP1 PUSH4 0x31894350 EQ PUSH2 0x560 JUMPI DUP1 PUSH4 0x343576F5 EQ PUSH2 0x573 JUMPI DUP1 PUSH4 0x382D823C EQ PUSH2 0x59C JUMPI PUSH1 0x0 DUP1 REVERT JUMPDEST DUP1 PUSH4 0x1C7E2426 EQ PUSH2 0x4BF JUMPI DUP1 PUSH4 0x1DCBAC96 EQ PUSH2 0x4C7 JUMPI DUP1 PUSH4 0x24C8435F EQ PUSH2 0x4D3 JUMPI PUSH1 0x0 DUP1 REVERT JUMPDEST DUP1 PUSH4 0x11EAC855 GT PUSH2 0x361 JUMPI DUP1 PUSH4 0x11EAC855 EQ PUSH2 0x414 JUMPI DUP1 PUSH4 0x12825A0F EQ PUSH2 0x453 JUMPI DUP1 PUSH4 0x13BFCA82 EQ PUSH2 0x466 JUMPI DUP1 PUSH4 0x14D140B0 EQ PUSH2 0x494 JUMPI PUSH1 0x0 DUP1 REVERT JUMPDEST DUP1 PUSH4 0x4D377A3 EQ PUSH2 0x388 JUMPI DUP1 PUSH4 0x6EA4DDB EQ PUSH2 0x3EC JUMPI DUP1 PUSH4 0xAF3BEC2 EQ PUSH2 0x401 JUMPI JUMPDEST PUSH1 0x0 DUP1 REVERT JUMPDEST PUSH2 0x39B PUSH2 0x396 CALLDATASIZE PUSH1 0x4 PUSH2 0x3A75 JUMP JUMPDEST PUSH2 0xA99 JUMP JUMPDEST PUSH1 0x40 DUP1 MLOAD DUP3 MLOAD PUSH1 0x1 PUSH1 0x1 PUSH1 0x60 SHL SUB SWAP1 DUP2 AND DUP3 MSTORE PUSH1 0x20 DUP1 DUP6 ADD MLOAD DUP3 AND SWAP1 DUP4 ADD MSTORE DUP4 DUP4 ADD MLOAD AND SWAP2 DUP2 ADD SWAP2 SWAP1 SWAP2 MSTORE PUSH1 0x60 DUP1 DUP4 ADD MLOAD SWAP1 DUP3 ADD MSTORE PUSH1 0x80 SWAP2 DUP3 ADD MLOAD ISZERO ISZERO SWAP2 DUP2 ADD SWAP2 SWAP1 SWAP2 MSTORE PUSH1 0xA0 ADD JUMPDEST PUSH1 0x40 MLOAD DUP1 SWAP2 SUB SWAP1 RETURN JUMPDEST PUSH2 0x3FF PUSH2 0x3FA CALLDATASIZE PUSH1 0x4 PUSH2 0x3AC1 JUMP JUMPDEST PUSH2 0xB8D JUMP JUMPDEST STOP JUMPDEST PUSH2 0x3FF PUSH2 0x40F CALLDATASIZE PUSH1 0x4 PUSH2 0x3B3C JUMP JUMPDEST PUSH2 0xD43 JUMP JUMPDEST PUSH2 0x43B PUSH32 0x0 DUP2 JUMP JUMPDEST PUSH1 0x40 MLOAD PUSH1 0x1 PUSH1 0x1 PUSH1 0xA0 SHL SUB SWAP1 SWAP2 AND DUP2 MSTORE PUSH1 0x20 ADD PUSH2 0x3E3 JUMP JUMPDEST PUSH2 0x3FF PUSH2 0x461 CALLDATASIZE PUSH1 0x4 PUSH2 0x3B7D JUMP JUMPDEST PUSH2 0xFA0 JUMP JUMPDEST PUSH2 0x486 PUSH2 0x474 CALLDATASIZE PUSH1 0x4 PUSH2 0x3BED JUMP JUMPDEST PUSH1 0x6 PUSH1 0x20 MSTORE PUSH1 0x0 SWAP1 DUP2 MSTORE PUSH1 0x40 SWAP1 KECCAK256 SLOAD DUP2 JUMP JUMPDEST PUSH1 0x40 MLOAD SWAP1 DUP2 MSTORE PUSH1 0x20 ADD PUSH2 0x3E3 JUMP JUMPDEST PUSH1 0x3 SLOAD PUSH2 0x4A7 SWAP1 PUSH1 0x1 PUSH1 0x1 PUSH1 0x80 SHL SUB AND DUP2 JUMP JUMPDEST PUSH1 0x40 MLOAD PUSH1 0x1 PUSH1 0x1 PUSH1 0x80 SHL SUB SWAP1 SWAP2 AND DUP2 MSTORE PUSH1 0x20 ADD PUSH2 0x3E3 JUMP JUMPDEST PUSH1 0x5 SLOAD PUSH2 0x486 JUMP JUMPDEST PUSH2 0x4A7 PUSH5 0xE8D4A51000 DUP2 JUMP JUMPDEST PUSH2 0x4E6 PUSH2 0x4E1 CALLDATASIZE PUSH1 0x4 PUSH2 0x3A75 JUMP JUMPDEST PUSH2 0x106C JUMP JUMPDEST PUSH1 0x40 DUP1 MLOAD PUSH1 0x1 PUSH1 0x1 PUSH1 0x60 SHL SUB SWAP7 DUP8 AND DUP2 MSTORE SWAP5 DUP7 AND PUSH1 0x20 DUP7 ADD MSTORE SWAP3 SWAP1 SWAP5 AND SWAP2 DUP4 ADD SWAP2 SWAP1 SWAP2 MSTORE PUSH1 0x60 DUP3 ADD MSTORE SWAP1 ISZERO ISZERO PUSH1 0x80 DUP3 ADD MSTORE PUSH1 0xA0 ADD PUSH2 0x3E3 JUMP JUMPDEST PUSH2 0x548 PUSH2 0x52D CALLDATASIZE PUSH1 0x4 PUSH2 0x3C08 JUMP JUMPDEST PUSH1 0xD PUSH1 0x20 MSTORE PUSH1 0x0 SWAP1 DUP2 MSTORE PUSH1 0x40 SWAP1 KECCAK256 SLOAD PUSH1 0x1 PUSH1 0x1 PUSH1 0x60 SHL SUB AND DUP2 JUMP JUMPDEST PUSH1 0x40 MLOAD PUSH1 0x1 PUSH1 0x1 PUSH1 0x60 SHL SUB SWAP1 SWAP2 AND DUP2 MSTORE PUSH1 0x20 ADD PUSH2 0x3E3 JUMP JUMPDEST PUSH2 0x3FF PUSH2 0x56E CALLDATASIZE PUSH1 0x4 PUSH2 0x3C23 JUMP JUMPDEST PUSH2 0x10C1 JUMP JUMPDEST PUSH2 0x586 PUSH2 0x581 CALLDATASIZE PUSH1 0x4 PUSH2 0x3C08 JUMP JUMPDEST PUSH2 0x1259 JUMP JUMPDEST PUSH1 0x40 MLOAD PUSH2 0x3E3 SWAP11 SWAP10 SWAP9 SWAP8 SWAP7 SWAP6 SWAP5 SWAP4 SWAP3 SWAP2 SWAP1 PUSH2 0x3C9D JUMP JUMPDEST PUSH1 0x3 SLOAD PUSH1 0x1 PUSH1 0x1 PUSH1 0x80 SHL SUB AND PUSH2 0x4A7 JUMP JUMPDEST PUSH2 0x486 PUSH1 0x9 SLOAD DUP2 JUMP JUMPDEST PUSH1 0x3 SLOAD PUSH1 0x1 PUSH1 0x80 SHL SWAP1 DIV PUSH1 0x1 PUSH1 0x1 PUSH1 0x80 SHL SUB AND PUSH2 0x4A7 JUMP JUMPDEST PUSH2 0x486 PUSH3 0x15180 DUP2 JUMP JUMPDEST PUSH2 0x3FF PUSH2 0x5E6 CALLDATASIZE PUSH1 0x4 PUSH2 0x3D37 JUMP JUMPDEST PUSH2 0x1368 JUMP JUMPDEST PUSH1 0x7 SLOAD PUSH2 0x5FD SWAP1 PUSH2 0x100 SWAP1 DIV PUSH1 0xFF AND DUP2 JUMP JUMPDEST PUSH1 0x40 MLOAD SWAP1 ISZERO ISZERO DUP2 MSTORE PUSH1 0x20 ADD PUSH2 0x3E3 JUMP JUMPDEST PUSH2 0x5FD PUSH2 0x61B CALLDATASIZE PUSH1 0x4 PUSH2 0x3C08 JUMP JUMPDEST PUSH1 0x1 PUSH1 0x1 PUSH1 0xA0 SHL SUB AND PUSH1 0x0 SWAP1 DUP2 MSTORE PUSH1 0xD PUSH1 0x20 MSTORE PUSH1 0x40 SWAP1 KECCAK256 SLOAD PUSH1 0x1 PUSH1 0x1 PUSH1 0x60 SHL SUB AND ISZERO ISZERO SWAP1 JUMP JUMPDEST PUSH2 0x486 PUSH2 0x16C5 JUMP JUMPDEST PUSH1 0x1 SLOAD PUSH1 0x1 PUSH1 0xA0 SHL SWAP1 DIV PUSH1 0xFF AND PUSH2 0x5FD JUMP JUMPDEST PUSH2 0x3FF PUSH2 0x669 CALLDATASIZE PUSH1 0x4 PUSH2 0x3B3C JUMP JUMPDEST PUSH2 0x1790 JUMP JUMPDEST PUSH2 0x6E2 PUSH1 0x40 DUP1 MLOAD PUSH1 0x80 DUP2 ADD DUP3 MSTORE PUSH1 0x0 DUP1 DUP3 MSTORE PUSH1 0x20 DUP3 ADD DUP2 SWAP1 MSTORE SWAP2 DUP2 ADD DUP3 SWAP1 MSTORE PUSH1 0x60 DUP2 ADD SWAP2 SWAP1 SWAP2 MSTORE POP PUSH1 0x40 DUP1 MLOAD PUSH1 0x80 DUP2 ADD DUP3 MSTORE PUSH1 0x7 SLOAD PUSH1 0xFF DUP1 DUP3 AND ISZERO ISZERO DUP4 MSTORE PUSH2 0x100 DUP3 DIV AND ISZERO ISZERO PUSH1 0x20 DUP4 ADD MSTORE PUSH1 0x1 PUSH1 0x1 PUSH1 0x60 SHL SUB PUSH3 0x10000 DUP3 DIV DUP2 AND SWAP4 DUP4 ADD SWAP4 SWAP1 SWAP4 MSTORE PUSH1 0x1 PUSH1 0x70 SHL SWAP1 DIV SWAP1 SWAP2 AND PUSH1 0x60 DUP3 ADD MSTORE SWAP1 JUMP JUMPDEST PUSH1 0x40 DUP1 MLOAD DUP3 MLOAD ISZERO ISZERO DUP2 MSTORE PUSH1 0x20 DUP1 DUP5 ADD MLOAD ISZERO ISZERO SWAP1 DUP3 ADD MSTORE DUP3 DUP3 ADD MLOAD PUSH1 0x1 PUSH1 0x1 PUSH1 0x60 SHL SUB SWAP1 DUP2 AND SWAP3 DUP3 ADD SWAP3 SWAP1 SWAP3 MSTORE PUSH1 0x60 SWAP3 DUP4 ADD MLOAD SWAP1 SWAP2 AND SWAP2 DUP2 ADD SWAP2 SWAP1 SWAP2 MSTORE PUSH1 0x80 ADD PUSH2 0x3E3 JUMP JUMPDEST PUSH2 0x3FF PUSH2 0x734 CALLDATASIZE PUSH1 0x4 PUSH2 0x3BED JUMP JUMPDEST PUSH2 0x17E7 JUMP JUMPDEST PUSH1 0x4 SLOAD PUSH2 0x548 SWAP1 PUSH2 0x100 SWAP1 DIV PUSH1 0x1 PUSH1 0x1 PUSH1 0x60 SHL SUB AND DUP2 JUMP JUMPDEST PUSH2 0x3FF PUSH2 0x197D JUMP JUMPDEST PUSH2 0x761 PUSH2 0x1991 JUMP JUMPDEST PUSH1 0x40 MLOAD PUSH2 0x3E3 SWAP2 SWAP1 PUSH1 0x0 PUSH1 0xA0 DUP3 ADD SWAP1 POP PUSH1 0x1 PUSH1 0x1 PUSH1 0x60 SHL SUB DUP1 DUP5 MLOAD AND DUP4 MSTORE PUSH1 0x20 DUP5 ADD MLOAD PUSH1 0x1 PUSH1 0x1 PUSH1 0x80 SHL SUB DUP1 DUP3 AND PUSH1 0x20 DUP7 ADD MSTORE DUP1 PUSH1 0x40 DUP8 ADD MLOAD AND PUSH1 0x40 DUP7 ADD MSTORE DUP1 PUSH1 0x60 DUP8 ADD MLOAD AND PUSH1 0x60 DUP7 ADD MSTORE POP POP DUP1 PUSH1 0x80 DUP6 ADD MLOAD AND PUSH1 0x80 DUP5 ADD MSTORE POP SWAP3 SWAP2 POP POP JUMP JUMPDEST PUSH2 0x5FD PUSH2 0x7CF CALLDATASIZE PUSH1 0x4 PUSH2 0x3C08 JUMP JUMPDEST PUSH1 0x1 PUSH1 0x1 PUSH1 0xA0 SHL SUB SWAP1 DUP2 AND PUSH1 0x0 SWAP1 DUP2 MSTORE PUSH1 0xC PUSH1 0x20 MSTORE PUSH1 0x40 SWAP1 KECCAK256 SLOAD AND ISZERO ISZERO SWAP1 JUMP JUMPDEST PUSH1 0x7 SLOAD PUSH2 0x5FD SWAP1 PUSH1 0xFF AND DUP2 JUMP JUMPDEST PUSH2 0x5FD PUSH2 0x80A CALLDATASIZE PUSH1 0x4 PUSH2 0x3C08 JUMP JUMPDEST PUSH1 0xE PUSH1 0x20 MSTORE PUSH1 0x0 SWAP1 DUP2 MSTORE PUSH1 0x40 SWAP1 KECCAK256 SLOAD PUSH1 0xFF AND DUP2 JUMP JUMPDEST PUSH2 0x3FF PUSH2 0x82D CALLDATASIZE PUSH1 0x4 PUSH2 0x3D7E JUMP JUMPDEST PUSH2 0x1A61 JUMP JUMPDEST PUSH1 0x7 SLOAD PUSH2 0x548 SWAP1 PUSH1 0x1 PUSH1 0x70 SHL SWAP1 DIV PUSH1 0x1 PUSH1 0x1 PUSH1 0x60 SHL SUB AND DUP2 JUMP JUMPDEST PUSH2 0x3FF PUSH2 0x85A CALLDATASIZE PUSH1 0x4 PUSH2 0x3C08 JUMP JUMPDEST PUSH2 0x201B JUMP JUMPDEST PUSH2 0x5FD PUSH2 0x86D CALLDATASIZE PUSH1 0x4 PUSH2 0x3DF3 JUMP JUMPDEST DUP2 MLOAD PUSH1 0x20 DUP2 DUP5 ADD DUP2 ADD DUP1 MLOAD PUSH1 0xB DUP3 MSTORE SWAP3 DUP3 ADD SWAP5 DUP3 ADD SWAP5 SWAP1 SWAP5 KECCAK256 SWAP2 SWAP1 SWAP4 MSTORE SWAP1 SWAP2 MSTORE PUSH1 0x0 SWAP1 DUP2 MSTORE PUSH1 0x40 SWAP1 KECCAK256 SLOAD PUSH1 0xFF AND DUP2 JUMP JUMPDEST PUSH2 0x8B0 PUSH2 0x8AB CALLDATASIZE PUSH1 0x4 PUSH2 0x3C08 JUMP JUMPDEST PUSH2 0x209B JUMP JUMPDEST PUSH1 0x40 MLOAD PUSH1 0x1 PUSH1 0x1 PUSH1 0x40 SHL SUB SWAP1 SWAP2 AND DUP2 MSTORE PUSH1 0x20 ADD PUSH2 0x3E3 JUMP JUMPDEST PUSH1 0x1 SLOAD PUSH1 0x1 PUSH1 0x1 PUSH1 0xA0 SHL SUB AND PUSH2 0x43B JUMP JUMPDEST PUSH2 0x8EC PUSH2 0x8E7 CALLDATASIZE PUSH1 0x4 PUSH2 0x3C08 JUMP JUMPDEST PUSH2 0x213F JUMP JUMPDEST PUSH1 0x40 MLOAD PUSH2 0x3E3 SWAP2 SWAP1 PUSH2 0x3EA7 JUMP JUMPDEST PUSH2 0x3FF PUSH2 0x907 CALLDATASIZE PUSH1 0x4 PUSH2 0x3F7B JUMP JUMPDEST PUSH2 0x22E1 JUMP JUMPDEST PUSH2 0x3FF PUSH2 0x91A CALLDATASIZE PUSH1 0x4 PUSH2 0x3FA5 JUMP JUMPDEST PUSH2 0x23FC JUMP JUMPDEST PUSH2 0x5FD PUSH2 0x92D CALLDATASIZE PUSH1 0x4 PUSH2 0x3F7B JUMP JUMPDEST PUSH1 0xA PUSH1 0x20 SWAP1 DUP2 MSTORE PUSH1 0x0 SWAP3 DUP4 MSTORE PUSH1 0x40 DUP1 DUP5 KECCAK256 SWAP1 SWAP2 MSTORE SWAP1 DUP3 MSTORE SWAP1 KECCAK256 SLOAD PUSH1 0xFF AND DUP2 JUMP JUMPDEST PUSH2 0x3FF PUSH2 0x95B CALLDATASIZE PUSH1 0x4 PUSH2 0x4006 JUMP JUMPDEST PUSH2 0x24E1 JUMP JUMPDEST PUSH1 0x4 SLOAD PUSH2 0x5FD SWAP1 PUSH1 0xFF AND DUP2 JUMP JUMPDEST PUSH1 0x2 SLOAD PUSH2 0x548 SWAP1 PUSH1 0x1 PUSH1 0xA0 SHL SWAP1 DIV PUSH1 0x1 PUSH1 0x1 PUSH1 0x60 SHL SUB AND DUP2 JUMP JUMPDEST PUSH1 0x3 SLOAD PUSH2 0x4A7 SWAP1 PUSH1 0x1 PUSH1 0x80 SHL SWAP1 DIV PUSH1 0x1 PUSH1 0x1 PUSH1 0x80 SHL SUB AND DUP2 JUMP JUMPDEST PUSH2 0x548 PUSH2 0x2647 JUMP JUMPDEST PUSH2 0x5FD PUSH2 0x9B7 CALLDATASIZE PUSH1 0x4 PUSH2 0x3C08 JUMP JUMPDEST PUSH1 0x1 PUSH1 0x1 PUSH1 0xA0 SHL SUB AND PUSH1 0x0 SWAP1 DUP2 MSTORE PUSH1 0xE PUSH1 0x20 MSTORE PUSH1 0x40 SWAP1 KECCAK256 SLOAD PUSH1 0xFF AND SWAP1 JUMP JUMPDEST PUSH1 0x2 SLOAD PUSH2 0x43B SWAP1 PUSH1 0x1 PUSH1 0x1 PUSH1 0xA0 SHL SUB AND DUP2 JUMP JUMPDEST PUSH2 0x3FF PUSH2 0x9F6 CALLDATASIZE PUSH1 0x4 PUSH2 0x405E JUMP JUMPDEST PUSH2 0x2670 JUMP JUMPDEST PUSH2 0x3FF PUSH2 0xA09 CALLDATASIZE PUSH1 0x4 PUSH2 0x3B3C JUMP JUMPDEST PUSH2 0x2743 JUMP JUMPDEST PUSH2 0x3FF PUSH2 0xA1C CALLDATASIZE PUSH1 0x4 PUSH2 0x3FA5 JUMP JUMPDEST PUSH2 0x278E JUMP JUMPDEST PUSH2 0x486 PUSH3 0xF4240 DUP2 JUMP JUMPDEST PUSH1 0x7 SLOAD PUSH2 0x548 SWAP1 PUSH3 0x10000 SWAP1 DIV PUSH1 0x1 PUSH1 0x1 PUSH1 0x60 SHL SUB AND DUP2 JUMP JUMPDEST PUSH1 0x4 SLOAD PUSH2 0x548 SWAP1 PUSH1 0x1 PUSH1 0x68 SHL SWAP1 DIV PUSH1 0x1 PUSH1 0x1 PUSH1 0x60 SHL SUB AND DUP2 JUMP JUMPDEST PUSH2 0x486 PUSH2 0xA6C CALLDATASIZE PUSH1 0x4 PUSH2 0x3A75 JUMP JUMPDEST PUSH1 0x8 PUSH1 0x20 MSTORE PUSH1 0x0 SWAP1 DUP2 MSTORE PUSH1 0x40 SWAP1 KECCAK256 SLOAD DUP2 JUMP JUMPDEST PUSH2 0x3FF PUSH2 0x29DC JUMP JUMPDEST PUSH2 0x3FF PUSH2 0xA94 CALLDATASIZE PUSH1 0x4 PUSH2 0x3C08 JUMP JUMPDEST PUSH2 0x2C50 JUMP JUMPDEST PUSH1 0x40 DUP1 MLOAD PUSH1 0xA0 DUP2 ADD DUP3 MSTORE PUSH1 0x0 DUP1 DUP3 MSTORE PUSH1 0x20 DUP3 ADD DUP2 SWAP1 MSTORE SWAP2 DUP2 ADD DUP3 SWAP1 MSTORE PUSH1 0x60 DUP2 ADD DUP3 SWAP1 MSTORE PUSH1 0x80 DUP2 ADD SWAP2 SWAP1 SWAP2 MSTORE PUSH1 0x5 SLOAD DUP3 LT PUSH2 0xB11 JUMPI PUSH1 0x40 MLOAD PUSH3 0x461BCD PUSH1 0xE5 SHL DUP2 MSTORE PUSH1 0x20 PUSH1 0x4 DUP3 ADD MSTORE PUSH1 0x14 PUSH1 0x24 DUP3 ADD MSTORE PUSH20 0x92DCECC2D8D2C840E0CAE4D2DEC840D2DCC8CAF PUSH1 0x63 SHL PUSH1 0x44 DUP3 ADD MSTORE PUSH1 0x64 ADD JUMPDEST PUSH1 0x40 MLOAD DUP1 SWAP2 SUB SWAP1 REVERT JUMPDEST PUSH1 0x5 DUP3 DUP2 SLOAD DUP2 LT PUSH2 0xB24 JUMPI PUSH2 0xB24 PUSH2 0x40AF JUMP JUMPDEST PUSH1 0x0 SWAP2 DUP3 MSTORE PUSH1 0x20 SWAP2 DUP3 SWAP1 KECCAK256 PUSH1 0x40 DUP1 MLOAD PUSH1 0xA0 DUP2 ADD DUP3 MSTORE PUSH1 0x4 SWAP1 SWAP4 MUL SWAP1 SWAP2 ADD DUP1 SLOAD PUSH1 0x1 PUSH1 0x1 PUSH1 0x60 SHL SUB DUP1 DUP3 AND DUP6 MSTORE PUSH1 0x1 PUSH1 0x60 SHL SWAP1 SWAP2 DIV DUP2 AND SWAP5 DUP5 ADD SWAP5 SWAP1 SWAP5 MSTORE PUSH1 0x1 DUP2 ADD SLOAD SWAP1 SWAP4 AND SWAP1 DUP3 ADD MSTORE PUSH1 0x2 DUP3 ADD SLOAD PUSH1 0x60 DUP3 ADD MSTORE PUSH1 0x3 SWAP1 SWAP2 ADD SLOAD PUSH1 0xFF AND ISZERO ISZERO PUSH1 0x80 DUP3 ADD MSTORE SWAP3 SWAP2 POP POP JUMP JUMPDEST PUSH2 0xB95 PUSH2 0x2CC9 JUMP JUMPDEST PUSH1 0x3 SLOAD PUSH1 0x0 SWAP1 PUSH2 0xBB7 SWAP1 PUSH1 0x1 PUSH1 0x1 PUSH1 0x80 SHL SUB PUSH1 0x1 PUSH1 0x80 SHL DUP3 DIV DUP2 AND SWAP2 AND PUSH2 0x40DB JUMP JUMPDEST SWAP1 POP DUP1 PUSH1 0x1 PUSH1 0x1 PUSH1 0x80 SHL SUB AND DUP3 PUSH1 0x1 PUSH1 0x1 PUSH1 0x80 SHL SUB AND GT ISZERO PUSH2 0xC1B JUMPI PUSH1 0x40 MLOAD PUSH3 0x461BCD PUSH1 0xE5 SHL DUP2 MSTORE PUSH1 0x20 PUSH1 0x4 DUP3 ADD MSTORE PUSH1 0x1B PUSH1 0x24 DUP3 ADD MSTORE PUSH32 0x496E73756666696369656E7420636F6D6D756E69747920706F6F6C0000000000 PUSH1 0x44 DUP3 ADD MSTORE PUSH1 0x64 ADD PUSH2 0xB08 JUMP JUMPDEST PUSH1 0x1 PUSH1 0x1 PUSH1 0xA0 SHL SUB DUP4 AND PUSH2 0xC65 JUMPI PUSH1 0x40 MLOAD PUSH3 0x461BCD PUSH1 0xE5 SHL DUP2 MSTORE PUSH1 0x20 PUSH1 0x4 DUP3 ADD MSTORE PUSH1 0x11 PUSH1 0x24 DUP3 ADD MSTORE PUSH17 0x125B9D985B1A59081C9958DA5C1A595B9D PUSH1 0x7A SHL PUSH1 0x44 DUP3 ADD MSTORE PUSH1 0x64 ADD PUSH2 0xB08 JUMP JUMPDEST PUSH1 0x40 MLOAD PUSH4 0xA9059CBB PUSH1 0xE0 SHL DUP2 MSTORE PUSH1 0x1 PUSH1 0x1 PUSH1 0xA0 SHL SUB DUP5 DUP2 AND PUSH1 0x4 DUP4 ADD MSTORE PUSH1 0x1 PUSH1 0x1 PUSH1 0x80 SHL SUB DUP5 AND PUSH1 0x24 DUP4 ADD MSTORE PUSH32 0x0 AND SWAP1 PUSH4 0xA9059CBB SWAP1 PUSH1 0x44 ADD PUSH1 0x20 PUSH1 0x40 MLOAD DUP1 DUP4 SUB DUP2 PUSH1 0x0 DUP8 GAS CALL ISZERO DUP1 ISZERO PUSH2 0xCDC JUMPI RETURNDATASIZE PUSH1 0x0 DUP1 RETURNDATACOPY RETURNDATASIZE PUSH1 0x0 REVERT JUMPDEST POP POP POP POP PUSH1 0x40 MLOAD RETURNDATASIZE PUSH1 0x1F NOT PUSH1 0x1F DUP3 ADD AND DUP3 ADD DUP1 PUSH1 0x40 MSTORE POP DUP2 ADD SWAP1 PUSH2 0xD00 SWAP2 SWAP1 PUSH2 0x4102 JUMP JUMPDEST PUSH2 0xD3E JUMPI PUSH1 0x40 MLOAD PUSH3 0x461BCD PUSH1 0xE5 SHL DUP2 MSTORE PUSH1 0x20 PUSH1 0x4 DUP3 ADD MSTORE PUSH1 0xF PUSH1 0x24 DUP3 ADD MSTORE PUSH15 0x151C985B9CD9995C8819985A5B1959 PUSH1 0x8A SHL PUSH1 0x44 DUP3 ADD MSTORE PUSH1 0x64 ADD PUSH2 0xB08 JUMP JUMPDEST POP POP POP JUMP JUMPDEST CALLER PUSH1 0x0 SWAP1 DUP2 MSTORE PUSH1 0xC PUSH1 0x20 MSTORE PUSH1 0x40 SWAP1 KECCAK256 SLOAD PUSH1 0x1 PUSH1 0x1 PUSH1 0xA0 SHL SUB AND PUSH2 0xD9A JUMPI PUSH1 0x40 MLOAD PUSH3 0x461BCD PUSH1 0xE5 SHL DUP2 MSTORE PUSH1 0x20 PUSH1 0x4 DUP3 ADD MSTORE PUSH1 0xF PUSH1 0x24 DUP3 ADD MSTORE PUSH15 0x139BC81C1B195919D948199BDD5B99 PUSH1 0x8A SHL PUSH1 0x44 DUP3 ADD MSTORE PUSH1 0x64 ADD PUSH2 0xB08 JUMP JUMPDEST CALLER PUSH1 0x0 SWAP1 DUP2 MSTORE PUSH1 0xC PUSH1 0x20 MSTORE PUSH1 0x40 SWAP1 KECCAK256 PUSH1 0x6 ADD SLOAD PUSH1 0xFF AND PUSH2 0xDF3 JUMPI PUSH1 0x40 MLOAD PUSH3 0x461BCD PUSH1 0xE5 SHL DUP2 MSTORE PUSH1 0x20 PUSH1 0x4 DUP3 ADD MSTORE PUSH1 0x14 PUSH1 0x24 DUP3 ADD MSTORE PUSH20 0x506C65646765206973206E6F7420616374697665 PUSH1 0x60 SHL PUSH1 0x44 DUP3 ADD MSTORE PUSH1 0x64 ADD PUSH2 0xB08 JUMP JUMPDEST DUP1 PUSH2 0xE10 JUMPI PUSH1 0x40 MLOAD PUSH3 0x461BCD PUSH1 0xE5 SHL DUP2 MSTORE PUSH1 0x4 ADD PUSH2 0xB08 SWAP1 PUSH2 0x411F JUMP JUMPDEST PUSH2 0x1F4 DUP2 GT ISZERO PUSH2 0xE58 JUMPI PUSH1 0x40 MLOAD PUSH3 0x461BCD PUSH1 0xE5 SHL DUP2 MSTORE PUSH1 0x20 PUSH1 0x4 DUP3 ADD MSTORE PUSH1 0x13 PUSH1 0x24 DUP3 ADD MSTORE PUSH19 0x436F6D6D69746D656E7420746F6F206C6F6E67 PUSH1 0x68 SHL PUSH1 0x44 DUP3 ADD MSTORE PUSH1 0x64 ADD PUSH2 0xB08 JUMP JUMPDEST CALLER PUSH1 0x0 SWAP1 DUP2 MSTORE PUSH1 0xC PUSH1 0x20 MSTORE PUSH1 0x40 DUP2 KECCAK256 PUSH1 0x5 ADD DUP1 SLOAD PUSH2 0xE75 SWAP1 PUSH2 0x4156 JUMP JUMPDEST DUP1 PUSH1 0x1F ADD PUSH1 0x20 DUP1 SWAP2 DIV MUL PUSH1 0x20 ADD PUSH1 0x40 MLOAD SWAP1 DUP2 ADD PUSH1 0x40 MSTORE DUP1 SWAP3 SWAP2 SWAP1 DUP2 DUP2 MSTORE PUSH1 0x20 ADD DUP3 DUP1 SLOAD PUSH2 0xEA1 SWAP1 PUSH2 0x4156 JUMP JUMPDEST DUP1 ISZERO PUSH2 0xEEE JUMPI DUP1 PUSH1 0x1F LT PUSH2 0xEC3 JUMPI PUSH2 0x100 DUP1 DUP4 SLOAD DIV MUL DUP4 MSTORE SWAP2 PUSH1 0x20 ADD SWAP2 PUSH2 0xEEE JUMP JUMPDEST DUP3 ADD SWAP2 SWAP1 PUSH1 0x0 MSTORE PUSH1 0x20 PUSH1 0x0 KECCAK256 SWAP1 JUMPDEST DUP2 SLOAD DUP2 MSTORE SWAP1 PUSH1 0x1 ADD SWAP1 PUSH1 0x20 ADD DUP1 DUP4 GT PUSH2 0xED1 JUMPI DUP3 SWAP1 SUB PUSH1 0x1F AND DUP3 ADD SWAP2 JUMPDEST POP POP POP POP POP SWAP1 POP PUSH1 0x0 DUP4 DUP4 CALLER TIMESTAMP PUSH1 0x40 MLOAD PUSH1 0x20 ADD PUSH2 0xF0E SWAP5 SWAP4 SWAP3 SWAP2 SWAP1 PUSH2 0x4190 JUMP JUMPDEST PUSH1 0x40 DUP1 MLOAD PUSH1 0x1F NOT DUP2 DUP5 SUB ADD DUP2 MSTORE SWAP2 DUP2 MSTORE DUP2 MLOAD PUSH1 0x20 SWAP3 DUP4 ADD KECCAK256 CALLER PUSH1 0x0 SWAP1 DUP2 MSTORE PUSH1 0xC SWAP1 SWAP4 MSTORE SWAP2 KECCAK256 SWAP1 SWAP2 POP PUSH1 0x5 ADD PUSH2 0xF44 DUP5 DUP7 DUP4 PUSH2 0x4209 JUMP JUMPDEST POP CALLER PUSH1 0x0 DUP2 DUP2 MSTORE PUSH1 0xC PUSH1 0x20 MSTORE PUSH1 0x40 SWAP1 DUP2 SWAP1 KECCAK256 PUSH1 0x3 ADD DUP4 SWAP1 SSTORE MLOAD PUSH32 0xAE78845772DF082908E2915A586458869988A457BF8A949F04A603987A647B7E SWAP1 PUSH2 0xF92 SWAP1 DUP6 SWAP1 DUP9 SWAP1 DUP9 SWAP1 DUP8 SWAP1 TIMESTAMP SWAP1 PUSH2 0x42F2 JUMP JUMPDEST PUSH1 0x40 MLOAD DUP1 SWAP2 SUB SWAP1 LOG2 POP POP POP POP JUMP JUMPDEST PUSH2 0xFA8 PUSH2 0x2CC9 JUMP JUMPDEST PUSH1 0x9 DUP1 SLOAD SWAP1 PUSH1 0x0 PUSH2 0xFB8 DUP4 PUSH2 0x433A JUMP JUMPDEST SWAP2 SWAP1 POP SSTORE POP PUSH1 0x0 DUP5 DUP5 DUP5 DUP5 TIMESTAMP PUSH1 0x9 SLOAD PUSH1 0x40 MLOAD PUSH1 0x20 ADD PUSH2 0xFDC SWAP7 SWAP6 SWAP5 SWAP4 SWAP3 SWAP2 SWAP1 PUSH2 0x4353 JUMP JUMPDEST PUSH1 0x40 MLOAD PUSH1 0x20 DUP2 DUP4 SUB SUB DUP2 MSTORE SWAP1 PUSH1 0x40 MSTORE DUP1 MLOAD SWAP1 PUSH1 0x20 ADD KECCAK256 SWAP1 POP PUSH1 0x0 PUSH3 0x15180 TIMESTAMP PUSH2 0x1005 SWAP2 SWAP1 PUSH2 0x438A JUMP JUMPDEST PUSH1 0x0 DUP4 DUP2 MSTORE PUSH1 0x8 PUSH1 0x20 MSTORE PUSH1 0x40 SWAP1 DUP2 SWAP1 KECCAK256 DUP3 SWAP1 SSTORE MLOAD SWAP1 SWAP2 POP PUSH1 0x1 PUSH1 0x1 PUSH1 0xA0 SHL SUB DUP8 AND SWAP1 DUP4 SWAP1 PUSH32 0x27843605DB76E2D4317DEBEFEE19C66B3983A20734112A18159C3E7311AC5FF5 SWAP1 PUSH2 0x105C SWAP1 DUP10 SWAP1 DUP10 SWAP1 DUP10 SWAP1 DUP9 SWAP1 PUSH2 0x439D JUMP JUMPDEST PUSH1 0x40 MLOAD DUP1 SWAP2 SUB SWAP1 LOG3 POP POP POP POP POP POP JUMP JUMPDEST PUSH1 0x5 DUP2 DUP2 SLOAD DUP2 LT PUSH2 0x107C JUMPI PUSH1 0x0 DUP1 REVERT JUMPDEST PUSH1 0x0 SWAP2 DUP3 MSTORE PUSH1 0x20 SWAP1 SWAP2 KECCAK256 PUSH1 0x4 SWAP1 SWAP2 MUL ADD DUP1 SLOAD PUSH1 0x1 DUP3 ADD SLOAD PUSH1 0x2 DUP4 ADD SLOAD PUSH1 0x3 SWAP1 SWAP4 ADD SLOAD PUSH1 0x1 PUSH1 0x1 PUSH1 0x60 SHL SUB DUP1 DUP5 AND SWAP6 POP PUSH1 0x1 PUSH1 0x60 SHL SWAP1 SWAP4 DIV DUP4 AND SWAP4 SWAP2 SWAP1 SWAP3 AND SWAP2 PUSH1 0xFF AND DUP6 JUMP JUMPDEST PUSH2 0x10C9 PUSH2 0x2CC9 JUMP JUMPDEST DUP1 PUSH1 0x1 PUSH1 0x1 PUSH1 0x60 SHL SUB AND DUP3 PUSH1 0x1 PUSH1 0x1 PUSH1 0x60 SHL SUB AND LT PUSH2 0x111B JUMPI PUSH1 0x40 MLOAD PUSH3 0x461BCD PUSH1 0xE5 SHL DUP2 MSTORE PUSH1 0x20 PUSH1 0x4 DUP3 ADD MSTORE PUSH1 0xE PUSH1 0x24 DUP3 ADD MSTORE PUSH14 0x125B9D985B1A59081C195C9A5BD9 PUSH1 0x92 SHL PUSH1 0x44 DUP3 ADD MSTORE PUSH1 0x64 ADD PUSH2 0xB08 JUMP JUMPDEST TIMESTAMP DUP2 PUSH1 0x1 PUSH1 0x1 PUSH1 0x60 SHL SUB AND GT PUSH2 0x116E JUMPI PUSH1 0x40 MLOAD PUSH3 0x461BCD PUSH1 0xE5 SHL DUP2 MSTORE PUSH1 0x20 PUSH1 0x4 DUP3 ADD MSTORE PUSH1 0x18 PUSH1 0x24 DUP3 ADD MSTORE PUSH24 0x506572696F64206D75737420626520696E20667574757265 PUSH1 0x40 SHL PUSH1 0x44 DUP3 ADD MSTORE PUSH1 0x64 ADD PUSH2 0xB08 JUMP JUMPDEST PUSH1 0x5 SLOAD PUSH1 0x0 SWAP1 PUSH2 0x1180 SWAP1 PUSH1 0x1 SWAP1 PUSH2 0x43C8 JUMP JUMPDEST SWAP1 POP PUSH1 0x0 PUSH1 0x5 DUP3 DUP2 SLOAD DUP2 LT PUSH2 0x1197 JUMPI PUSH2 0x1197 PUSH2 0x40AF JUMP JUMPDEST PUSH1 0x0 SWAP2 DUP3 MSTORE PUSH1 0x20 SWAP2 DUP3 SWAP1 KECCAK256 PUSH1 0x4 SWAP2 DUP3 MUL ADD DUP1 SLOAD PUSH1 0x1 PUSH1 0x1 PUSH1 0x60 SHL SUB DUP9 DUP2 AND PUSH1 0x1 PUSH1 0x1 PUSH1 0xC0 SHL SUB NOT SWAP1 SWAP3 AND DUP3 OR PUSH1 0x1 PUSH1 0x60 SHL SWAP2 DUP10 AND SWAP2 DUP3 MUL OR DUP4 SSTORE DUP4 SLOAD PUSH2 0x100 PUSH1 0x1 PUSH1 0xC8 SHL SUB NOT AND PUSH2 0x100 DUP4 MUL PUSH12 0xFFFFFFFFFFFFFFFFFFFFFFFF PUSH1 0x68 SHL NOT AND OR PUSH1 0x1 PUSH1 0x68 SHL DUP3 MUL OR SWAP4 DUP5 SWAP1 SSTORE PUSH1 0x40 DUP1 MLOAD SWAP3 DUP4 MSTORE SWAP5 DUP3 ADD MSTORE PUSH1 0xFF SWAP1 SWAP3 AND ISZERO ISZERO SWAP3 DUP3 ADD SWAP3 SWAP1 SWAP3 MSTORE PUSH1 0x60 DUP2 ADD DUP5 SWAP1 MSTORE SWAP1 SWAP2 POP PUSH32 0xFD135E1C870A0C0A36636058ED9AD913AB6FEBEC3039C41E96C01743BC0D17C3 SWAP1 PUSH1 0x80 ADD JUMPDEST PUSH1 0x40 MLOAD DUP1 SWAP2 SUB SWAP1 LOG1 POP POP POP POP JUMP JUMPDEST PUSH1 0xC PUSH1 0x20 MSTORE PUSH1 0x0 SWAP1 DUP2 MSTORE PUSH1 0x40 SWAP1 KECCAK256 DUP1 SLOAD PUSH1 0x1 DUP3 ADD SLOAD PUSH1 0x2 DUP4 ADD SLOAD PUSH1 0x3 DUP5 ADD SLOAD PUSH1 0x4 DUP6 ADD SLOAD PUSH1 0x5 DUP7 ADD DUP1 SLOAD PUSH1 0x1 PUSH1 0x1 PUSH1 0xA0 SHL SUB DUP8 AND SWAP8 PUSH1 0x1 PUSH1 0xA0 SHL SWAP1 SWAP8 DIV PUSH1 0x1 PUSH1 0x1 PUSH1 0x60 SHL SUB SWAP1 DUP2 AND SWAP8 SWAP1 DUP8 AND SWAP7 PUSH1 0x1 PUSH1 0x60 SHL SWAP1 DIV PUSH1 0x1 PUSH1 0x1 PUSH1 0x80 SHL SUB SWAP1 DUP2 AND SWAP7 SWAP1 DUP2 AND SWAP6 PUSH1 0x1 PUSH1 0x80 SHL SWAP1 SWAP2 DIV PUSH1 0x1 PUSH1 0x1 PUSH1 0x40 SHL SUB AND SWAP5 SWAP1 SWAP4 SWAP1 SWAP3 PUSH2 0x12DC SWAP1 PUSH2 0x4156 JUMP JUMPDEST DUP1 PUSH1 0x1F ADD PUSH1 0x20 DUP1 SWAP2 DIV MUL PUSH1 0x20 ADD PUSH1 0x40 MLOAD SWAP1 DUP2 ADD PUSH1 0x40 MSTORE DUP1 SWAP3 SWAP2 SWAP1 DUP2 DUP2 MSTORE PUSH1 0x20 ADD DUP3 DUP1 SLOAD PUSH2 0x1308 SWAP1 PUSH2 0x4156 JUMP JUMPDEST DUP1 ISZERO PUSH2 0x1355 JUMPI DUP1 PUSH1 0x1F LT PUSH2 0x132A JUMPI PUSH2 0x100 DUP1 DUP4 SLOAD DIV MUL DUP4 MSTORE SWAP2 PUSH1 0x20 ADD SWAP2 PUSH2 0x1355 JUMP JUMPDEST DUP3 ADD SWAP2 SWAP1 PUSH1 0x0 MSTORE PUSH1 0x20 PUSH1 0x0 KECCAK256 SWAP1 JUMPDEST DUP2 SLOAD DUP2 MSTORE SWAP1 PUSH1 0x1 ADD SWAP1 PUSH1 0x20 ADD DUP1 DUP4 GT PUSH2 0x1338 JUMPI DUP3 SWAP1 SUB PUSH1 0x1F AND DUP3 ADD SWAP2 JUMPDEST POP POP POP PUSH1 0x6 SWAP1 SWAP4 ADD SLOAD SWAP2 SWAP3 POP POP PUSH1 0xFF AND DUP11 JUMP JUMPDEST PUSH2 0x1370 PUSH2 0x2CC9 JUMP JUMPDEST DUP2 PUSH1 0x1 PUSH1 0x1 PUSH1 0x60 SHL SUB AND DUP4 PUSH1 0x1 PUSH1 0x1 PUSH1 0x60 SHL SUB AND LT PUSH2 0x13C2 JUMPI PUSH1 0x40 MLOAD PUSH3 0x461BCD PUSH1 0xE5 SHL DUP2 MSTORE PUSH1 0x20 PUSH1 0x4 DUP3 ADD MSTORE PUSH1 0xE PUSH1 0x24 DUP3 ADD MSTORE PUSH14 0x125B9D985B1A59081C195C9A5BD9 PUSH1 0x92 SHL PUSH1 0x44 DUP3 ADD MSTORE PUSH1 0x64 ADD PUSH2 0xB08 JUMP JUMPDEST TIMESTAMP DUP3 PUSH1 0x1 PUSH1 0x1 PUSH1 0x60 SHL SUB AND GT PUSH2 0x1415 JUMPI PUSH1 0x40 MLOAD PUSH3 0x461BCD PUSH1 0xE5 SHL DUP2 MSTORE PUSH1 0x20 PUSH1 0x4 DUP3 ADD MSTORE PUSH1 0x18 PUSH1 0x24 DUP3 ADD MSTORE PUSH24 0x506572696F64206D75737420626520696E20667574757265 PUSH1 0x40 SHL PUSH1 0x44 DUP3 ADD MSTORE PUSH1 0x64 ADD PUSH2 0xB08 JUMP JUMPDEST PUSH1 0x5 SLOAD ISZERO PUSH2 0x14F2 JUMPI PUSH1 0x5 DUP1 SLOAD PUSH1 0x0 SWAP2 SWAP1 PUSH2 0x1431 SWAP1 PUSH1 0x1 SWAP1 PUSH2 0x43C8 JUMP JUMPDEST DUP2 SLOAD DUP2 LT PUSH2 0x1441 JUMPI PUSH2 0x1441 PUSH2 0x40AF JUMP JUMPDEST PUSH1 0x0 SWAP2 DUP3 MSTORE PUSH1 0x20 SWAP1 SWAP2 KECCAK256 PUSH1 0x4 SWAP1 SWAP2 MUL ADD PUSH1 0x3 DUP2 ADD SLOAD SWAP1 SWAP2 POP PUSH1 0xFF AND ISZERO PUSH2 0x14F0 JUMPI PUSH1 0x3 DUP2 ADD DUP1 SLOAD PUSH1 0xFF NOT AND SWAP1 SSTORE PUSH1 0x5 SLOAD PUSH32 0xC4B97DDF6FEA35C2C4681BFF1D1D660DBC473A5E3919350CDF790D0439042902 SWAP1 PUSH2 0x149E SWAP1 PUSH1 0x1 SWAP1 PUSH2 0x43C8 JUMP JUMPDEST DUP3 SLOAD PUSH1 0x1 DUP5 ADD SLOAD PUSH1 0x2 DUP6 ADD SLOAD PUSH1 0x40 DUP1 MLOAD SWAP5 DUP6 MSTORE PUSH1 0x1 PUSH1 0x1 PUSH1 0x60 SHL SUB DUP1 DUP6 AND PUSH1 0x20 DUP8 ADD MSTORE PUSH1 0x1 PUSH1 0x60 SHL SWAP1 SWAP5 DIV DUP5 AND SWAP1 DUP6 ADD MSTORE SWAP2 AND PUSH1 0x60 DUP4 ADD MSTORE PUSH1 0x1 PUSH1 0x1 PUSH1 0x80 SHL SUB AND PUSH1 0x80 DUP3 ADD MSTORE PUSH1 0xA0 ADD PUSH1 0x40 MLOAD DUP1 SWAP2 SUB SWAP1 LOG1 JUMPDEST POP JUMPDEST PUSH1 0x40 DUP1 MLOAD PUSH1 0xA0 DUP2 ADD DUP3 MSTORE PUSH1 0x1 PUSH1 0x1 PUSH1 0x60 SHL SUB DUP6 DUP2 AND DUP1 DUP4 MSTORE DUP6 DUP3 AND PUSH1 0x20 DUP5 ADD DUP2 DUP2 MSTORE PUSH1 0x0 SWAP6 DUP6 ADD DUP7 DUP2 MSTORE PUSH1 0x60 DUP7 ADD DUP8 DUP2 MSTORE PUSH1 0x1 PUSH1 0x80 DUP9 ADD DUP2 DUP2 MSTORE PUSH1 0x5 DUP1 SLOAD DUP1 DUP5 ADD DUP3 SSTORE SWAP11 DUP2 SWAP1 MSTORE SWAP9 MLOAD PUSH32 0x36B6384B5ECA791C62761152D0C79BB0604C104A5FB6F4EB0703F3154BB3DB0 PUSH1 0x4 SWAP12 DUP13 MUL SWAP1 DUP2 ADD DUP1 SLOAD SWAP8 MLOAD SWAP3 DUP12 AND PUSH1 0x1 PUSH1 0x1 PUSH1 0xC0 SHL SUB NOT SWAP1 SWAP9 AND SWAP8 SWAP1 SWAP8 OR PUSH1 0x1 PUSH1 0x60 SHL SWAP3 DUP12 AND SWAP3 SWAP1 SWAP3 MUL SWAP2 SWAP1 SWAP2 OR SWAP1 SWAP6 SSTORE SWAP3 MLOAD PUSH32 0x36B6384B5ECA791C62761152D0C79BB0604C104A5FB6F4EB0703F3154BB3DB1 DUP6 ADD DUP1 SLOAD PUSH1 0x1 PUSH1 0x1 PUSH1 0x60 SHL SUB NOT AND SWAP2 SWAP1 SWAP9 AND OR SWAP1 SWAP7 SSTORE MLOAD PUSH32 0x36B6384B5ECA791C62761152D0C79BB0604C104A5FB6F4EB0703F3154BB3DB2 DUP4 ADD SSTORE MLOAD PUSH32 0x36B6384B5ECA791C62761152D0C79BB0604C104A5FB6F4EB0703F3154BB3DB3 SWAP1 SWAP2 ADD DUP1 SLOAD PUSH1 0xFF NOT SWAP1 DUP2 AND SWAP3 ISZERO ISZERO SWAP3 SWAP1 SWAP3 OR SWAP1 SSTORE DUP6 SLOAD PUSH2 0x100 PUSH1 0x1 PUSH1 0xC8 SHL SUB NOT AND PUSH2 0x100 SWAP1 SWAP4 MUL PUSH12 0xFFFFFFFFFFFFFFFFFFFFFFFF PUSH1 0x68 SHL NOT AND SWAP3 SWAP1 SWAP3 OR PUSH1 0x1 PUSH1 0x68 SHL SWAP1 SWAP2 MUL OR AND DUP5 ISZERO ISZERO OR SWAP1 SWAP3 SSTORE SLOAD PUSH32 0xFD135E1C870A0C0A36636058ED9AD913AB6FEBEC3039C41E96C01743BC0D17C3 SWAP2 DUP6 SWAP2 DUP6 SWAP2 DUP6 SWAP2 PUSH2 0x168F SWAP2 SWAP1 PUSH2 0x43C8 JUMP JUMPDEST PUSH1 0x40 DUP1 MLOAD PUSH1 0x1 PUSH1 0x1 PUSH1 0x60 SHL SUB SWAP6 DUP7 AND DUP2 MSTORE SWAP4 SWAP1 SWAP5 AND PUSH1 0x20 DUP5 ADD MSTORE SWAP1 ISZERO ISZERO DUP3 DUP5 ADD MSTORE PUSH1 0x60 DUP3 ADD MSTORE SWAP1 MLOAD SWAP1 DUP2 SWAP1 SUB PUSH1 0x80 ADD SWAP1 LOG1 POP POP POP JUMP JUMPDEST PUSH1 0x4 SLOAD PUSH1 0x0 SWAP1 PUSH1 0xFF AND ISZERO DUP1 PUSH2 0x16DA JUMPI POP PUSH1 0x5 SLOAD ISZERO JUMPDEST ISZERO PUSH2 0x16E6 JUMPI POP PUSH1 0x0 NOT SWAP1 JUMP JUMPDEST PUSH1 0x5 SLOAD JUMPDEST DUP1 ISZERO PUSH2 0x1787 JUMPI PUSH1 0x0 PUSH1 0x5 PUSH2 0x16FF PUSH1 0x1 DUP5 PUSH2 0x43C8 JUMP JUMPDEST DUP2 SLOAD DUP2 LT PUSH2 0x170F JUMPI PUSH2 0x170F PUSH2 0x40AF JUMP JUMPDEST PUSH1 0x0 SWAP2 DUP3 MSTORE PUSH1 0x20 SWAP1 SWAP2 KECCAK256 PUSH1 0x4 SWAP1 SWAP2 MUL ADD PUSH1 0x3 DUP2 ADD SLOAD SWAP1 SWAP2 POP PUSH1 0xFF AND DUP1 ISZERO PUSH2 0x1740 JUMPI POP DUP1 SLOAD PUSH1 0x1 PUSH1 0x1 PUSH1 0x60 SHL SUB AND TIMESTAMP LT ISZERO JUMPDEST DUP1 ISZERO PUSH2 0x175D JUMPI POP DUP1 SLOAD PUSH1 0x1 PUSH1 0x60 SHL SWAP1 DIV PUSH1 0x1 PUSH1 0x1 PUSH1 0x60 SHL SUB AND TIMESTAMP GT ISZERO JUMPDEST ISZERO PUSH2 0x1774 JUMPI PUSH2 0x176D PUSH1 0x1 DUP4 PUSH2 0x43C8 JUMP JUMPDEST SWAP3 POP POP POP SWAP1 JUMP JUMPDEST POP DUP1 PUSH2 0x177F DUP2 PUSH2 0x43DB JUMP JUMPDEST SWAP2 POP POP PUSH2 0x16EA JUMP JUMPDEST POP PUSH1 0x0 NOT SWAP1 POP SWAP1 JUMP JUMPDEST PUSH2 0x1798 PUSH2 0x2CC9 JUMP JUMPDEST PUSH2 0x17A0 PUSH2 0x2D23 JUMP JUMPDEST CALLER PUSH1 0x1 PUSH1 0x1 PUSH1 0xA0 SHL SUB AND PUSH32 0x5E9EFE0320C49A9EB6E0D598CD54A92107DF81A70B87C1FFF8E2C2A3B803F774 DUP4 DUP4 PUSH1 0x40 MLOAD PUSH2 0x17DB SWAP3 SWAP2 SWAP1 PUSH2 0x43F2 JUMP JUMPDEST PUSH1 0x40 MLOAD DUP1 SWAP2 SUB SWAP1 LOG2 POP POP JUMP JUMPDEST PUSH2 0x17EF PUSH2 0x2D78 JUMP JUMPDEST TIMESTAMP DUP2 PUSH1 0x1 PUSH1 0x1 PUSH1 0x60 SHL SUB AND LT PUSH2 0x1847 JUMPI PUSH1 0x40 MLOAD PUSH3 0x461BCD PUSH1 0xE5 SHL DUP2 MSTORE PUSH1 0x20 PUSH1 0x4 DUP3 ADD MSTORE PUSH1 0x1E PUSH1 0x24 DUP3 ADD MSTORE PUSH32 0x426972746820646174652063616E6E6F7420626520696E206675747572650000 PUSH1 0x44 DUP3 ADD MSTORE PUSH1 0x64 ADD PUSH2 0xB08 JUMP JUMPDEST PUSH1 0x0 DUP2 PUSH1 0x1 PUSH1 0x1 PUSH1 0x60 SHL SUB AND GT PUSH2 0x18A0 JUMPI PUSH1 0x40 MLOAD PUSH3 0x461BCD PUSH1 0xE5 SHL DUP2 MSTORE PUSH1 0x20 PUSH1 0x4 DUP3 ADD MSTORE PUSH1 0x17 PUSH1 0x24 DUP3 ADD MSTORE PUSH32 0x496E76616C69642062697274682074696D657374616D70000000000000000000 PUSH1 0x44 DUP3 ADD MSTORE PUSH1 0x64 ADD PUSH2 0xB08 JUMP JUMPDEST CALLER PUSH1 0x0 SWAP1 DUP2 MSTORE PUSH1 0xD PUSH1 0x20 MSTORE PUSH1 0x40 SWAP1 KECCAK256 SLOAD PUSH1 0x1 PUSH1 0x1 PUSH1 0x60 SHL SUB AND ISZERO PUSH2 0x18FF JUMPI PUSH1 0x40 MLOAD PUSH3 0x461BCD PUSH1 0xE5 SHL DUP2 MSTORE PUSH1 0x20 PUSH1 0x4 DUP3 ADD MSTORE PUSH1 0x16 PUSH1 0x24 DUP3 ADD MSTORE PUSH22 0x109A5C9D1A0819185D1948185B1C9958591E481CD95D PUSH1 0x52 SHL PUSH1 0x44 DUP3 ADD MSTORE PUSH1 0x64 ADD PUSH2 0xB08 JUMP JUMPDEST CALLER PUSH1 0x0 DUP2 DUP2 MSTORE PUSH1 0xD PUSH1 0x20 MSTORE PUSH1 0x40 DUP2 KECCAK256 DUP1 SLOAD PUSH1 0x1 PUSH1 0x1 PUSH1 0x60 SHL SUB NOT AND PUSH1 0x1 PUSH1 0x1 PUSH1 0x60 SHL SUB DUP6 AND OR SWAP1 SSTORE SWAP1 PUSH2 0x1931 SWAP1 PUSH2 0x209B JUMP JUMPDEST PUSH1 0x40 DUP1 MLOAD PUSH1 0x1 PUSH1 0x1 PUSH1 0x60 SHL SUB DUP6 AND DUP2 MSTORE PUSH1 0x1 PUSH1 0x1 PUSH1 0x40 SHL SUB DUP4 AND PUSH1 0x20 DUP3 ADD MSTORE SWAP2 SWAP3 POP CALLER SWAP2 PUSH32 0xFED60E7A0716BE7D2C5DDA9E0A35969C84A47E38B721E982C6079ABFA6317162 SWAP2 ADD PUSH2 0x17DB JUMP JUMPDEST PUSH2 0x1985 PUSH2 0x2CC9 JUMP JUMPDEST PUSH2 0x198F PUSH1 0x0 PUSH2 0x2DC5 JUMP JUMPDEST JUMP JUMPDEST PUSH1 0x40 DUP1 MLOAD PUSH1 0xA0 DUP2 ADD DUP3 MSTORE PUSH1 0x0 DUP1 DUP3 MSTORE PUSH1 0x20 DUP3 ADD DUP2 SWAP1 MSTORE SWAP2 DUP2 ADD DUP3 SWAP1 MSTORE PUSH1 0x60 DUP2 ADD DUP3 SWAP1 MSTORE PUSH1 0x80 DUP2 ADD SWAP2 SWAP1 SWAP2 MSTORE PUSH1 0x2 SLOAD PUSH1 0x0 SWAP1 PUSH2 0x19E0 SWAP1 PUSH3 0xF4240 SWAP1 PUSH1 0x1 PUSH1 0xA0 SHL SWAP1 DIV PUSH1 0x1 PUSH1 0x1 PUSH1 0x60 SHL SUB AND PUSH2 0x440E JUMP JUMPDEST PUSH1 0x3 SLOAD SWAP1 SWAP2 POP PUSH1 0x0 SWAP1 PUSH2 0x1A07 SWAP1 PUSH3 0xF4240 SWAP1 PUSH1 0x1 PUSH1 0x80 SHL SWAP1 DIV PUSH1 0x1 PUSH1 0x1 PUSH1 0x80 SHL SUB AND PUSH2 0x443B JUMP JUMPDEST PUSH1 0x40 DUP1 MLOAD PUSH1 0xA0 DUP2 ADD DUP3 MSTORE PUSH1 0x2 SLOAD PUSH1 0x1 PUSH1 0x1 PUSH1 0x60 SHL SUB PUSH1 0x1 PUSH1 0xA0 SHL SWAP1 SWAP2 DIV DUP2 AND DUP3 MSTORE PUSH1 0x1 PUSH1 0x1 PUSH1 0x80 SHL SUB SWAP6 DUP7 AND PUSH1 0x20 DUP4 ADD MSTORE PUSH1 0x3 SLOAD DUP1 DUP8 AND SWAP4 DUP4 ADD SWAP4 SWAP1 SWAP4 MSTORE PUSH1 0x1 PUSH1 0x80 SHL SWAP1 SWAP3 DIV SWAP1 SWAP5 AND PUSH1 0x60 DUP6 ADD MSTORE AND PUSH1 0x80 DUP4 ADD MSTORE POP SWAP2 SWAP1 POP JUMP JUMPDEST PUSH2 0x1A69 PUSH2 0x2E17 JUMP JUMPDEST CALLER PUSH1 0x0 SWAP1 DUP2 MSTORE PUSH1 0xC PUSH1 0x20 MSTORE PUSH1 0x40 SWAP1 KECCAK256 SLOAD PUSH1 0x1 PUSH1 0x1 PUSH1 0xA0 SHL SUB AND ISZERO PUSH2 0x1AC1 JUMPI PUSH1 0x40 MLOAD PUSH3 0x461BCD PUSH1 0xE5 SHL DUP2 MSTORE PUSH1 0x20 PUSH1 0x4 DUP3 ADD MSTORE PUSH1 0xF PUSH1 0x24 DUP3 ADD MSTORE PUSH15 0x105B1C9958591E481C1B195919D959 PUSH1 0x8A SHL PUSH1 0x44 DUP3 ADD MSTORE PUSH1 0x64 ADD PUSH2 0xB08 JUMP JUMPDEST CALLER PUSH1 0x0 SWAP1 DUP2 MSTORE PUSH1 0xD PUSH1 0x20 MSTORE PUSH1 0x40 SWAP1 KECCAK256 SLOAD PUSH1 0x1 PUSH1 0x1 PUSH1 0x60 SHL SUB AND PUSH2 0x1B1D JUMPI PUSH1 0x40 MLOAD PUSH3 0x461BCD PUSH1 0xE5 SHL DUP2 MSTORE PUSH1 0x20 PUSH1 0x4 DUP3 ADD MSTORE PUSH1 0x14 PUSH1 0x24 DUP3 ADD MSTORE PUSH20 0x14D95D08189A5C9D1A0819185D1948199A5C9CDD PUSH1 0x62 SHL PUSH1 0x44 DUP3 ADD MSTORE PUSH1 0x64 ADD PUSH2 0xB08 JUMP JUMPDEST DUP3 PUSH2 0x1B3A JUMPI PUSH1 0x40 MLOAD PUSH3 0x461BCD PUSH1 0xE5 SHL DUP2 MSTORE PUSH1 0x4 ADD PUSH2 0xB08 SWAP1 PUSH2 0x411F JUMP JUMPDEST PUSH2 0x1F4 DUP4 GT ISZERO PUSH2 0x1B82 JUMPI PUSH1 0x40 MLOAD PUSH3 0x461BCD PUSH1 0xE5 SHL DUP2 MSTORE PUSH1 0x20 PUSH1 0x4 DUP3 ADD MSTORE PUSH1 0x13 PUSH1 0x24 DUP3 ADD MSTORE PUSH19 0x436F6D6D69746D656E7420746F6F206C6F6E67 PUSH1 0x68 SHL PUSH1 0x44 DUP3 ADD MSTORE PUSH1 0x64 ADD PUSH2 0xB08 JUMP JUMPDEST PUSH1 0x3 SLOAD PUSH3 0xF4240 PUSH1 0x1 PUSH1 0x80 SHL SWAP1 SWAP2 DIV PUSH1 0x1 PUSH1 0x1 PUSH1 0x80 SHL SUB AND LT ISZERO PUSH2 0x1BE8 JUMPI PUSH1 0x40 MLOAD PUSH3 0x461BCD PUSH1 0xE5 SHL DUP2 MSTORE PUSH1 0x20 PUSH1 0x4 DUP3 ADD MSTORE PUSH1 0x1E PUSH1 0x24 DUP3 ADD MSTORE PUSH32 0x4E6F2073706F6E736F72736869702066756E647320617661696C61626C650000 PUSH1 0x44 DUP3 ADD MSTORE PUSH1 0x64 ADD PUSH2 0xB08 JUMP JUMPDEST PUSH1 0x4 SLOAD PUSH1 0xFF AND ISZERO PUSH2 0x1C81 JUMPI PUSH1 0x4 SLOAD PUSH2 0x100 SWAP1 DIV PUSH1 0x1 PUSH1 0x1 PUSH1 0x60 SHL SUB AND TIMESTAMP LT DUP1 ISZERO SWAP1 PUSH2 0x1C25 JUMPI POP PUSH1 0x4 SLOAD PUSH1 0x1 PUSH1 0x68 SHL SWAP1 DIV PUSH1 0x1 PUSH1 0x1 PUSH1 0x60 SHL SUB AND TIMESTAMP GT ISZERO JUMPDEST PUSH2 0x1C81 JUMPI PUSH1 0x40 MLOAD PUSH3 0x461BCD PUSH1 0xE5 SHL DUP2 MSTORE PUSH1 0x20 PUSH1 0x4 DUP3 ADD MSTORE PUSH1 0x27 PUSH1 0x24 DUP3 ADD MSTORE PUSH32 0x506C6564676573206F6E6C7920616C6C6F77656420647572696E6720636F6E76 PUSH1 0x44 DUP3 ADD MSTORE PUSH7 0x657267656E6365 PUSH1 0xC8 SHL PUSH1 0x64 DUP3 ADD MSTORE PUSH1 0x84 ADD PUSH2 0xB08 JUMP JUMPDEST PUSH1 0x0 PUSH2 0x1C8C CALLER PUSH2 0x209B JUMP JUMPDEST SWAP1 POP PUSH1 0x0 DUP6 DUP6 CALLER TIMESTAMP PUSH1 0x40 MLOAD PUSH1 0x20 ADD PUSH2 0x1CA7 SWAP5 SWAP4 SWAP3 SWAP2 SWAP1 PUSH2 0x4190 JUMP JUMPDEST PUSH1 0x40 MLOAD PUSH1 0x20 DUP2 DUP4 SUB SUB DUP2 MSTORE SWAP1 PUSH1 0x40 MSTORE DUP1 MLOAD SWAP1 PUSH1 0x20 ADD KECCAK256 SWAP1 POP PUSH3 0xF4240 PUSH1 0x3 PUSH1 0x10 DUP3 DUP3 DUP3 SWAP1 SLOAD SWAP1 PUSH2 0x100 EXP SWAP1 DIV PUSH1 0x1 PUSH1 0x1 PUSH1 0x80 SHL SUB AND PUSH2 0x1CE6 SWAP2 SWAP1 PUSH2 0x40DB JUMP JUMPDEST DUP3 SLOAD PUSH1 0x1 PUSH1 0x1 PUSH1 0x80 SHL SUB SWAP2 DUP3 AND PUSH2 0x100 SWAP4 SWAP1 SWAP4 EXP SWAP3 DUP4 MUL SWAP2 SWAP1 SWAP3 MUL NOT SWAP1 SWAP2 AND OR SWAP1 SSTORE POP CALLER PUSH1 0x0 SWAP1 DUP2 MSTORE PUSH1 0xE PUSH1 0x20 MSTORE PUSH1 0x40 SWAP1 KECCAK256 DUP1 SLOAD PUSH1 0xFF NOT AND PUSH1 0x1 OR SWAP1 SSTORE PUSH1 0x2 DUP1 SLOAD PUSH1 0x1 PUSH1 0x1 PUSH1 0x60 SHL SUB PUSH1 0x1 PUSH1 0xA0 SHL SWAP1 SWAP2 DIV AND SWAP1 PUSH1 0x14 PUSH2 0x1D44 DUP4 PUSH2 0x444F JUMP JUMPDEST SWAP2 SWAP1 PUSH2 0x100 EXP DUP2 SLOAD DUP2 PUSH1 0x1 PUSH1 0x1 PUSH1 0x60 SHL SUB MUL NOT AND SWAP1 DUP4 PUSH1 0x1 PUSH1 0x1 PUSH1 0x60 SHL SUB AND MUL OR SWAP1 SSTORE POP POP PUSH1 0x40 MLOAD DUP1 PUSH2 0x140 ADD PUSH1 0x40 MSTORE DUP1 CALLER PUSH1 0x1 PUSH1 0x1 PUSH1 0xA0 SHL SUB AND DUP2 MSTORE PUSH1 0x20 ADD PUSH1 0x2 PUSH1 0x14 SWAP1 SLOAD SWAP1 PUSH2 0x100 EXP SWAP1 DIV PUSH1 0x1 PUSH1 0x1 PUSH1 0x60 SHL SUB AND PUSH1 0x1 PUSH1 0x1 PUSH1 0x60 SHL SUB AND DUP2 MSTORE PUSH1 0x20 ADD TIMESTAMP PUSH1 0x1 PUSH1 0x1 PUSH1 0x60 SHL SUB AND DUP2 MSTORE PUSH1 0x20 ADD PUSH1 0x0 PUSH1 0x1 PUSH1 0x1 PUSH1 0x80 SHL SUB AND DUP2 MSTORE PUSH1 0x20 ADD PUSH1 0x0 PUSH1 0x1 PUSH1 0x1 PUSH1 0x80 SHL SUB AND DUP2 MSTORE PUSH1 0x20 ADD DUP4 PUSH1 0x1 PUSH1 0x1 PUSH1 0x40 SHL SUB AND DUP2 MSTORE PUSH1 0x20 ADD DUP3 DUP2 MSTORE PUSH1 0x20 ADD PUSH2 0x1E2B DUP7 DUP7 DUP1 DUP1 PUSH1 0x1F ADD PUSH1 0x20 DUP1 SWAP2 DIV MUL PUSH1 0x20 ADD PUSH1 0x40 MLOAD SWAP1 DUP2 ADD PUSH1 0x40 MSTORE DUP1 SWAP4 SWAP3 SWAP2 SWAP1 DUP2 DUP2 MSTORE PUSH1 0x20 ADD DUP4 DUP4 DUP1 DUP3 DUP5 CALLDATACOPY PUSH1 0x0 SWAP3 ADD SWAP2 SWAP1 SWAP2 MSTORE POP PUSH2 0x2E70 SWAP3 POP POP POP JUMP JUMPDEST DUP2 MSTORE PUSH1 0x20 ADD DUP8 DUP8 DUP1 DUP1 PUSH1 0x1F ADD PUSH1 0x20 DUP1 SWAP2 DIV MUL PUSH1 0x20 ADD PUSH1 0x40 MLOAD SWAP1 DUP2 ADD PUSH1 0x40 MSTORE DUP1 SWAP4 SWAP3 SWAP2 SWAP1 DUP2 DUP2 MSTORE PUSH1 0x20 ADD DUP4 DUP4 DUP1 DUP3 DUP5 CALLDATACOPY PUSH1 0x0 SWAP3 ADD DUP3 SWAP1 MSTORE POP SWAP4 DUP6 MSTORE POP POP PUSH1 0x1 PUSH1 0x20 SWAP4 DUP5 ADD DUP2 SWAP1 MSTORE CALLER DUP4 MSTORE PUSH1 0xC DUP5 MSTORE PUSH1 0x40 SWAP3 DUP4 SWAP1 KECCAK256 DUP6 MLOAD SWAP5 DUP7 ADD MLOAD PUSH1 0x1 PUSH1 0x1 PUSH1 0xA0 SHL SUB SWAP1 SWAP6 AND PUSH1 0x1 PUSH1 0xA0 SHL PUSH1 0x1 PUSH1 0x1 PUSH1 0x60 SHL SUB SWAP7 DUP8 AND MUL OR DUP2 SSTORE SWAP3 DUP6 ADD MLOAD SWAP1 DUP4 ADD DUP1 SLOAD PUSH1 0x60 DUP8 ADD MLOAD SWAP3 SWAP1 SWAP6 AND PUSH1 0x1 PUSH1 0x1 PUSH1 0xE0 SHL SUB NOT SWAP1 SWAP6 AND SWAP5 SWAP1 SWAP5 OR PUSH1 0x1 PUSH1 0x60 SHL PUSH1 0x1 PUSH1 0x1 PUSH1 0x80 SHL SUB SWAP3 DUP4 AND MUL OR SWAP1 SWAP4 SSTORE POP PUSH1 0x80 DUP4 ADD MLOAD PUSH1 0x2 DUP3 ADD DUP1 SLOAD PUSH1 0xA0 DUP7 ADD MLOAD SWAP3 SWAP1 SWAP5 AND PUSH1 0x1 PUSH1 0x1 PUSH1 0xC0 SHL SUB NOT SWAP1 SWAP5 AND SWAP4 SWAP1 SWAP4 OR PUSH1 0x1 PUSH1 0x80 SHL PUSH1 0x1 PUSH1 0x1 PUSH1 0x40 SHL SUB SWAP1 SWAP3 AND SWAP2 SWAP1 SWAP2 MUL OR SWAP1 SWAP2 SSTORE PUSH1 0xC0 DUP3 ADD MLOAD PUSH1 0x3 DUP3 ADD SSTORE PUSH1 0xE0 DUP3 ADD MLOAD PUSH1 0x4 DUP3 ADD SSTORE PUSH2 0x100 DUP3 ADD MLOAD PUSH1 0x5 DUP3 ADD SWAP1 PUSH2 0x1F40 SWAP1 DUP3 PUSH2 0x4475 JUMP JUMPDEST POP PUSH2 0x120 DUP3 ADD MLOAD DUP2 PUSH1 0x6 ADD PUSH1 0x0 PUSH2 0x100 EXP DUP2 SLOAD DUP2 PUSH1 0xFF MUL NOT AND SWAP1 DUP4 ISZERO ISZERO MUL OR SWAP1 SSTORE POP SWAP1 POP POP CALLER PUSH1 0x1 PUSH1 0x1 PUSH1 0xA0 SHL SUB AND PUSH32 0x55C5A3FA94EA0CA5069F72CFFDC1D2A5ACA372C6AB3D6FC054E0F6470A60A092 DUP4 DUP4 DUP8 DUP8 PUSH1 0x0 DUP1 DUP14 DUP14 PUSH1 0x2 PUSH1 0x14 SWAP1 SLOAD SWAP1 PUSH2 0x100 EXP SWAP1 DIV PUSH1 0x1 PUSH1 0x1 PUSH1 0x60 SHL SUB AND TIMESTAMP PUSH1 0x1 PUSH1 0x40 MLOAD PUSH2 0x1FC9 SWAP12 SWAP11 SWAP10 SWAP9 SWAP8 SWAP7 SWAP6 SWAP5 SWAP4 SWAP3 SWAP2 SWAP1 PUSH2 0x4534 JUMP JUMPDEST PUSH1 0x40 MLOAD DUP1 SWAP2 SUB SWAP1 LOG2 PUSH1 0x40 MLOAD PUSH3 0xF4240 DUP2 MSTORE CALLER SWAP1 PUSH32 0x9B94250ED1D2B33D4E455C1F39CBA33E993F24BFC11CDA758BF1A48D4D02281B SWAP1 PUSH1 0x20 ADD PUSH1 0x40 MLOAD DUP1 SWAP2 SUB SWAP1 LOG2 POP POP PUSH2 0x2015 PUSH1 0x1 PUSH1 0x0 SSTORE JUMP JUMPDEST POP POP POP POP JUMP JUMPDEST PUSH2 0x2023 PUSH2 0x2CC9 JUMP JUMPDEST PUSH1 0x1 PUSH1 0x1 PUSH1 0xA0 SHL SUB DUP2 AND PUSH2 0x2079 JUMPI PUSH1 0x40 MLOAD PUSH3 0x461BCD PUSH1 0xE5 SHL DUP2 MSTORE PUSH1 0x20 PUSH1 0x4 DUP3 ADD MSTORE PUSH1 0x18 PUSH1 0x24 DUP3 ADD MSTORE PUSH32 0x496E76616C696420747265617375727920616464726573730000000000000000 PUSH1 0x44 DUP3 ADD MSTORE PUSH1 0x64 ADD PUSH2 0xB08 JUMP JUMPDEST PUSH1 0x2 DUP1 SLOAD PUSH1 0x1 PUSH1 0x1 PUSH1 0xA0 SHL SUB NOT AND PUSH1 0x1 PUSH1 0x1 PUSH1 0xA0 SHL SUB SWAP3 SWAP1 SWAP3 AND SWAP2 SWAP1 SWAP2 OR SWAP1 SSTORE JUMP JUMPDEST PUSH1 0x1 PUSH1 0x1 PUSH1 0xA0 SHL SUB DUP2 AND PUSH1 0x0 SWAP1 DUP2 MSTORE PUSH1 0xD PUSH1 0x20 MSTORE PUSH1 0x40 DUP2 KECCAK256 SLOAD PUSH1 0x1 PUSH1 0x1 PUSH1 0x60 SHL SUB AND PUSH2 0x20FE JUMPI PUSH1 0x40 MLOAD PUSH3 0x461BCD PUSH1 0xE5 SHL DUP2 MSTORE PUSH1 0x20 PUSH1 0x4 DUP3 ADD MSTORE PUSH1 0x12 PUSH1 0x24 DUP3 ADD MSTORE PUSH18 0x109A5C9D1A0819185D19481B9BDD081CD95D PUSH1 0x72 SHL PUSH1 0x44 DUP3 ADD MSTORE PUSH1 0x64 ADD PUSH2 0xB08 JUMP JUMPDEST PUSH1 0x1 PUSH1 0x1 PUSH1 0xA0 SHL SUB DUP3 AND PUSH1 0x0 SWAP1 DUP2 MSTORE PUSH1 0xD PUSH1 0x20 MSTORE PUSH1 0x40 SWAP1 KECCAK256 SLOAD PUSH3 0x15180 SWAP1 PUSH2 0x212F SWAP1 PUSH1 0x1 PUSH1 0x1 PUSH1 0x60 SHL SUB AND TIMESTAMP PUSH2 0x43C8 JUMP JUMPDEST PUSH2 0x2139 SWAP2 SWAP1 PUSH2 0x443B JUMP JUMPDEST SWAP3 SWAP2 POP POP JUMP JUMPDEST PUSH1 0x40 DUP1 MLOAD PUSH2 0x140 DUP2 ADD DUP3 MSTORE PUSH1 0x0 DUP1 DUP3 MSTORE PUSH1 0x20 DUP3 ADD DUP2 SWAP1 MSTORE SWAP2 DUP2 ADD DUP3 SWAP1 MSTORE PUSH1 0x60 DUP1 DUP3 ADD DUP4 SWAP1 MSTORE PUSH1 0x80 DUP3 ADD DUP4 SWAP1 MSTORE PUSH1 0xA0 DUP3 ADD DUP4 SWAP1 MSTORE PUSH1 0xC0 DUP3 ADD DUP4 SWAP1 MSTORE PUSH1 0xE0 DUP3 ADD DUP4 SWAP1 MSTORE PUSH2 0x100 DUP3 ADD MSTORE PUSH2 0x120 DUP2 ADD SWAP2 SWAP1 SWAP2 MSTORE PUSH1 0x1 PUSH1 0x1 PUSH1 0xA0 SHL SUB DUP3 DUP2 AND PUSH1 0x0 SWAP1 DUP2 MSTORE PUSH1 0xC PUSH1 0x20 SWAP1 DUP2 MSTORE PUSH1 0x40 SWAP2 DUP3 SWAP1 KECCAK256 DUP3 MLOAD PUSH2 0x140 DUP2 ADD DUP5 MSTORE DUP2 SLOAD SWAP5 DUP6 AND DUP2 MSTORE PUSH1 0x1 PUSH1 0xA0 SHL SWAP1 SWAP5 DIV PUSH1 0x1 PUSH1 0x1 PUSH1 0x60 SHL SUB SWAP1 DUP2 AND SWAP3 DUP6 ADD SWAP3 SWAP1 SWAP3 MSTORE PUSH1 0x1 DUP2 ADD SLOAD SWAP2 DUP3 AND SWAP3 DUP5 ADD SWAP3 SWAP1 SWAP3 MSTORE PUSH1 0x1 PUSH1 0x60 SHL SWAP1 DIV PUSH1 0x1 PUSH1 0x1 PUSH1 0x80 SHL SUB SWAP1 DUP2 AND PUSH1 0x60 DUP5 ADD MSTORE PUSH1 0x2 DUP3 ADD SLOAD SWAP1 DUP2 AND PUSH1 0x80 DUP5 ADD MSTORE PUSH1 0x1 PUSH1 0x80 SHL SWAP1 DIV PUSH1 0x1 PUSH1 0x1 PUSH1 0x40 SHL SUB AND PUSH1 0xA0 DUP4 ADD MSTORE PUSH1 0x3 DUP2 ADD SLOAD PUSH1 0xC0 DUP4 ADD MSTORE PUSH1 0x4 DUP2 ADD SLOAD PUSH1 0xE0 DUP4 ADD MSTORE PUSH1 0x5 DUP2 ADD DUP1 SLOAD PUSH2 0x100 DUP5 ADD SWAP2 SWAP1 PUSH2 0x2248 SWAP1 PUSH2 0x4156 JUMP JUMPDEST DUP1 PUSH1 0x1F ADD PUSH1 0x20 DUP1 SWAP2 DIV MUL PUSH1 0x20 ADD PUSH1 0x40 MLOAD SWAP1 DUP2 ADD PUSH1 0x40 MSTORE DUP1 SWAP3 SWAP2 SWAP1 DUP2 DUP2 MSTORE PUSH1 0x20 ADD DUP3 DUP1 SLOAD PUSH2 0x2274 SWAP1 PUSH2 0x4156 JUMP JUMPDEST DUP1 ISZERO PUSH2 0x22C1 JUMPI DUP1 PUSH1 0x1F LT PUSH2 0x2296 JUMPI PUSH2 0x100 DUP1 DUP4 SLOAD DIV MUL DUP4 MSTORE SWAP2 PUSH1 0x20 ADD SWAP2 PUSH2 0x22C1 JUMP JUMPDEST DUP3 ADD SWAP2 SWAP1 PUSH1 0x0 MSTORE PUSH1 0x20 PUSH1 0x0 KECCAK256 SWAP1 JUMPDEST DUP2 SLOAD DUP2 MSTORE SWAP1 PUSH1 0x1 ADD SWAP1 PUSH1 0x20 ADD DUP1 DUP4 GT PUSH2 0x22A4 JUMPI DUP3 SWAP1 SUB PUSH1 0x1F AND DUP3 ADD SWAP2 JUMPDEST POP POP POP SWAP2 DUP4 MSTORE POP POP PUSH1 0x6 SWAP2 SWAP1 SWAP2 ADD SLOAD PUSH1 0xFF AND ISZERO ISZERO PUSH1 0x20 SWAP1 SWAP2 ADD MSTORE SWAP3 SWAP2 POP POP JUMP JUMPDEST PUSH2 0x22E9 PUSH2 0x2CC9 JUMP JUMPDEST PUSH32 0x0 PUSH1 0x1 PUSH1 0x1 PUSH1 0xA0 SHL SUB AND DUP3 PUSH1 0x1 PUSH1 0x1 PUSH1 0xA0 SHL SUB AND EQ ISZERO DUP1 PUSH2 0x2335 JUMPI POP PUSH1 0x3 SLOAD PUSH1 0x1 PUSH1 0x1 PUSH1 0x80 SHL SUB AND DUP2 GT ISZERO JUMPDEST PUSH2 0x238B JUMPI PUSH1 0x40 MLOAD PUSH3 0x461BCD PUSH1 0xE5 SHL DUP2 MSTORE PUSH1 0x20 PUSH1 0x4 DUP3 ADD MSTORE PUSH1 0x21 PUSH1 0x24 DUP3 ADD MSTORE PUSH32 0x43616E6E6F74207769746864726177206F7065726174696F6E616C2066756E64 PUSH1 0x44 DUP3 ADD MSTORE PUSH1 0x73 PUSH1 0xF8 SHL PUSH1 0x64 DUP3 ADD MSTORE PUSH1 0x84 ADD PUSH2 0xB08 JUMP JUMPDEST PUSH1 0x40 MLOAD PUSH4 0xA9059CBB PUSH1 0xE0 SHL DUP2 MSTORE CALLER PUSH1 0x4 DUP3 ADD MSTORE PUSH1 0x24 DUP2 ADD DUP3 SWAP1 MSTORE PUSH1 0x1 PUSH1 0x1 PUSH1 0xA0 SHL SUB DUP4 AND SWAP1 PUSH4 0xA9059CBB SWAP1 PUSH1 0x44 ADD PUSH1 0x20 PUSH1 0x40 MLOAD DUP1 DUP4 SUB DUP2 PUSH1 0x0 DUP8 GAS CALL ISZERO DUP1 ISZERO PUSH2 0x23D8 JUMPI RETURNDATASIZE PUSH1 0x0 DUP1 RETURNDATACOPY RETURNDATASIZE PUSH1 0x0 REVERT JUMPDEST POP POP POP POP PUSH1 0x40 MLOAD RETURNDATASIZE PUSH1 0x1F NOT PUSH1 0x1F DUP3 ADD AND DUP3 ADD DUP1 PUSH1 0x40 MSTORE POP DUP2 ADD SWAP1 PUSH2 0xD3E SWAP2 SWAP1 PUSH2 0x4102 JUMP JUMPDEST PUSH2 0x2404 PUSH2 0x2CC9 JUMP JUMPDEST PUSH1 0x0 DUP6 DUP6 DUP6 DUP6 PUSH2 0x2417 PUSH3 0x15180 TIMESTAMP PUSH2 0x43C8 JUMP JUMPDEST DUP7 PUSH1 0x40 MLOAD PUSH1 0x20 ADD PUSH2 0x242D SWAP7 SWAP6 SWAP5 SWAP4 SWAP3 SWAP2 SWAP1 PUSH2 0x4353 JUMP JUMPDEST PUSH1 0x40 MLOAD PUSH1 0x20 DUP2 DUP4 SUB SUB DUP2 MSTORE SWAP1 PUSH1 0x40 MSTORE DUP1 MLOAD SWAP1 PUSH1 0x20 ADD KECCAK256 SWAP1 POP PUSH1 0x8 PUSH1 0x0 DUP3 DUP2 MSTORE PUSH1 0x20 ADD SWAP1 DUP2 MSTORE PUSH1 0x20 ADD PUSH1 0x0 KECCAK256 SLOAD PUSH1 0x0 SUB PUSH2 0x24A1 JUMPI PUSH1 0x40 MLOAD PUSH3 0x461BCD PUSH1 0xE5 SHL DUP2 MSTORE PUSH1 0x20 PUSH1 0x4 DUP3 ADD MSTORE PUSH1 0x16 PUSH1 0x24 DUP3 ADD MSTORE PUSH22 0x151C985B9CD858DD1A5BDB881B9BDD081C5D595D5959 PUSH1 0x52 SHL PUSH1 0x44 DUP3 ADD MSTORE PUSH1 0x64 ADD PUSH2 0xB08 JUMP JUMPDEST PUSH1 0x0 DUP2 DUP2 MSTORE PUSH1 0x8 PUSH1 0x20 MSTORE PUSH1 0x40 DUP1 DUP3 KECCAK256 DUP3 SWAP1 SSTORE MLOAD DUP3 SWAP2 PUSH32 0x891E6C675E964CF1E5982F60FDA276AD06301A9221B2F1D7BF2B2A42FBD69A1 SWAP2 LOG2 POP POP POP POP POP POP JUMP JUMPDEST PUSH2 0x24E9 PUSH2 0x2CC9 JUMP JUMPDEST PUSH3 0xF4240 DUP3 PUSH1 0x1 PUSH1 0x1 PUSH1 0x60 SHL SUB AND LT ISZERO PUSH2 0x2545 JUMPI PUSH1 0x40 MLOAD PUSH3 0x461BCD PUSH1 0xE5 SHL DUP2 MSTORE PUSH1 0x20 PUSH1 0x4 DUP3 ADD DUP2 SWAP1 MSTORE PUSH1 0x24 DUP3 ADD MSTORE PUSH32 0x4D696E20616D6F756E74206D757374206265203E3D20706C6564676520666565 PUSH1 0x44 DUP3 ADD MSTORE PUSH1 0x64 ADD PUSH2 0xB08 JUMP JUMPDEST PUSH5 0xE8D4A51000 PUSH1 0x1 PUSH1 0x1 PUSH1 0x60 SHL SUB DUP3 AND GT ISZERO PUSH2 0x2599 JUMPI PUSH1 0x40 MLOAD PUSH3 0x461BCD PUSH1 0xE5 SHL DUP2 MSTORE PUSH1 0x20 PUSH1 0x4 DUP3 ADD MSTORE PUSH1 0x13 PUSH1 0x24 DUP3 ADD MSTORE PUSH19 0x9AC2F040C2DADEEADCE840E8DEDE40D0D2CED PUSH1 0x6B SHL PUSH1 0x44 DUP3 ADD MSTORE PUSH1 0x64 ADD PUSH2 0xB08 JUMP JUMPDEST PUSH1 0x7 DUP1 SLOAD PUSH2 0xFFFF NOT AND DUP6 ISZERO ISZERO PUSH2 0xFF00 NOT DUP2 AND SWAP2 SWAP1 SWAP2 OR PUSH2 0x100 DUP7 ISZERO ISZERO SWAP1 DUP2 MUL SWAP2 SWAP1 SWAP2 OR PUSH3 0x10000 PUSH1 0x1 PUSH1 0xD0 SHL SUB NOT AND PUSH3 0x10000 PUSH1 0x1 PUSH1 0x1 PUSH1 0x60 SHL SUB DUP8 DUP2 AND SWAP2 DUP3 MUL PUSH12 0xFFFFFFFFFFFFFFFFFFFFFFFF PUSH1 0x70 SHL NOT AND SWAP3 SWAP1 SWAP3 OR PUSH1 0x1 PUSH1 0x70 SHL SWAP3 DUP8 AND SWAP3 DUP4 MUL OR SWAP1 SWAP5 SSTORE PUSH1 0x40 DUP1 MLOAD SWAP4 DUP5 MSTORE PUSH1 0x20 DUP5 ADD SWAP3 SWAP1 SWAP3 MSTORE SWAP1 DUP3 ADD SWAP3 SWAP1 SWAP3 MSTORE PUSH1 0x60 DUP2 ADD SWAP2 SWAP1 SWAP2 MSTORE PUSH32 0x10576BFAC8E03A8678B9BFE58092BF442C3BE0FBAA6CA1A696A5E3D40A8E8EB4 SWAP1 PUSH1 0x80 ADD PUSH2 0x124B JUMP JUMPDEST PUSH1 0x3 SLOAD PUSH1 0x0 SWAP1 PUSH2 0x266B SWAP1 PUSH3 0xF4240 SWAP1 PUSH1 0x1 PUSH1 0x80 SHL SWAP1 DIV PUSH1 0x1 PUSH1 0x1 PUSH1 0x80 SHL SUB AND PUSH2 0x443B JUMP JUMPDEST SWAP1 POP SWAP1 JUMP JUMPDEST PUSH2 0x2678 PUSH2 0x2E17 JUMP JUMPDEST PUSH2 0x2680 PUSH2 0x2D78 JUMP JUMPDEST PUSH1 0x4 SLOAD PUSH1 0xFF AND ISZERO DUP1 PUSH2 0x26BF JUMPI POP PUSH1 0x4 SLOAD PUSH2 0x100 SWAP1 DIV PUSH1 0x1 PUSH1 0x1 PUSH1 0x60 SHL SUB AND TIMESTAMP LT DUP1 ISZERO SWAP1 PUSH2 0x26BF JUMPI POP PUSH1 0x4 SLOAD PUSH1 0x1 PUSH1 0x68 SHL SWAP1 DIV PUSH1 0x1 PUSH1 0x1 PUSH1 0x60 SHL SUB AND TIMESTAMP GT ISZERO JUMPDEST PUSH2 0x270B JUMPI PUSH1 0x40 MLOAD PUSH3 0x461BCD PUSH1 0xE5 SHL DUP2 MSTORE PUSH1 0x20 PUSH1 0x4 DUP3 ADD MSTORE PUSH1 0x19 PUSH1 0x24 DUP3 ADD MSTORE PUSH32 0x4E6F7420696E20636F6E76657267656E636520706572696F6400000000000000 PUSH1 0x44 DUP3 ADD MSTORE PUSH1 0x64 ADD PUSH2 0xB08 JUMP JUMPDEST PUSH1 0x0 DUP1 PUSH1 0x0 DUP1 PUSH2 0x271D DUP9 DUP9 DUP9 DUP9 PUSH2 0x2E8F JUMP JUMPDEST SWAP4 POP SWAP4 POP SWAP4 POP SWAP4 POP PUSH2 0x2735 DUP9 DUP9 DUP9 DUP9 DUP9 DUP9 DUP9 DUP9 PUSH2 0x33F9 JUMP JUMPDEST POP POP POP POP PUSH2 0x2015 PUSH1 0x1 PUSH1 0x0 SSTORE JUMP JUMPDEST PUSH2 0x274B PUSH2 0x2CC9 JUMP JUMPDEST PUSH2 0x2753 PUSH2 0x35E9 JUMP JUMPDEST CALLER PUSH1 0x1 PUSH1 0x1 PUSH1 0xA0 SHL SUB AND PUSH32 0x375C0ABD968F4602B557F6AC9A48FFC89820233AA9BECC5D7FF1176FD09EAFFF DUP4 DUP4 PUSH1 0x40 MLOAD PUSH2 0x17DB SWAP3 SWAP2 SWAP1 PUSH2 0x43F2 JUMP JUMPDEST PUSH2 0x2796 PUSH2 0x2CC9 JUMP JUMPDEST PUSH1 0x0 DUP6 DUP6 DUP6 DUP6 PUSH2 0x27A9 PUSH3 0x15180 TIMESTAMP PUSH2 0x43C8 JUMP JUMPDEST DUP7 PUSH1 0x40 MLOAD PUSH1 0x20 ADD PUSH2 0x27BF SWAP7 SWAP6 SWAP5 SWAP4 SWAP3 SWAP2 SWAP1 PUSH2 0x4353 JUMP JUMPDEST PUSH1 0x40 MLOAD PUSH1 0x20 DUP2 DUP4 SUB SUB DUP2 MSTORE SWAP1 PUSH1 0x40 MSTORE DUP1 MLOAD SWAP1 PUSH1 0x20 ADD KECCAK256 SWAP1 POP PUSH1 0x8 PUSH1 0x0 DUP3 DUP2 MSTORE PUSH1 0x20 ADD SWAP1 DUP2 MSTORE PUSH1 0x20 ADD PUSH1 0x0 KECCAK256 SLOAD PUSH1 0x0 SUB PUSH2 0x2833 JUMPI PUSH1 0x40 MLOAD PUSH3 0x461BCD PUSH1 0xE5 SHL DUP2 MSTORE PUSH1 0x20 PUSH1 0x4 DUP3 ADD MSTORE PUSH1 0x16 PUSH1 0x24 DUP3 ADD MSTORE PUSH22 0x151C985B9CD858DD1A5BDB881B9BDD081C5D595D5959 PUSH1 0x52 SHL PUSH1 0x44 DUP3 ADD MSTORE PUSH1 0x64 ADD PUSH2 0xB08 JUMP JUMPDEST PUSH1 0x0 DUP2 DUP2 MSTORE PUSH1 0x8 PUSH1 0x20 MSTORE PUSH1 0x40 SWAP1 KECCAK256 SLOAD TIMESTAMP LT ISZERO PUSH2 0x2888 JUMPI PUSH1 0x40 MLOAD PUSH3 0x461BCD PUSH1 0xE5 SHL DUP2 MSTORE PUSH1 0x20 PUSH1 0x4 DUP3 ADD MSTORE PUSH1 0x14 PUSH1 0x24 DUP3 ADD MSTORE PUSH20 0x151A5B595B1BD8DAC81B9BDD08195E1C1A5C9959 PUSH1 0x62 SHL PUSH1 0x44 DUP3 ADD MSTORE PUSH1 0x64 ADD PUSH2 0xB08 JUMP JUMPDEST PUSH1 0x0 DUP2 DUP2 MSTORE PUSH1 0x8 PUSH1 0x20 MSTORE PUSH1 0x40 DUP1 DUP3 KECCAK256 DUP3 SWAP1 SSTORE DUP1 MLOAD PUSH1 0x4 DUP2 MSTORE PUSH1 0x24 DUP2 ADD SWAP2 DUP3 SWAP1 MSTORE PUSH1 0x1 PUSH1 0x1 PUSH1 0xA0 SHL SUB DUP10 AND SWAP2 DUP9 SWAP2 SWAP1 PUSH2 0x28C3 SWAP1 DUP10 SWAP1 DUP10 SWAP1 PUSH2 0x45BB JUMP JUMPDEST PUSH1 0x40 DUP1 MLOAD SWAP2 DUP3 SWAP1 SUB SWAP1 SWAP2 KECCAK256 PUSH1 0x20 DUP4 ADD DUP1 MLOAD PUSH1 0x1 PUSH1 0x1 PUSH1 0xE0 SHL SUB AND PUSH1 0x1 PUSH1 0x1 PUSH1 0xE0 SHL SUB NOT SWAP1 SWAP3 AND SWAP2 SWAP1 SWAP2 OR SWAP1 MSTORE MLOAD PUSH2 0x28FA SWAP2 SWAP1 PUSH2 0x45CB JUMP JUMPDEST PUSH1 0x0 PUSH1 0x40 MLOAD DUP1 DUP4 SUB DUP2 DUP6 DUP8 GAS CALL SWAP3 POP POP POP RETURNDATASIZE DUP1 PUSH1 0x0 DUP2 EQ PUSH2 0x2937 JUMPI PUSH1 0x40 MLOAD SWAP2 POP PUSH1 0x1F NOT PUSH1 0x3F RETURNDATASIZE ADD AND DUP3 ADD PUSH1 0x40 MSTORE RETURNDATASIZE DUP3 MSTORE RETURNDATASIZE PUSH1 0x0 PUSH1 0x20 DUP5 ADD RETURNDATACOPY PUSH2 0x293C JUMP JUMPDEST PUSH1 0x60 SWAP2 POP JUMPDEST POP POP SWAP1 POP DUP1 PUSH2 0x298D JUMPI PUSH1 0x40 MLOAD PUSH3 0x461BCD PUSH1 0xE5 SHL DUP2 MSTORE PUSH1 0x20 PUSH1 0x4 DUP3 ADD MSTORE PUSH1 0x1C PUSH1 0x24 DUP3 ADD MSTORE PUSH32 0x5472616E73616374696F6E20657865637574696F6E206661696C656400000000 PUSH1 0x44 DUP3 ADD MSTORE PUSH1 0x64 ADD PUSH2 0xB08 JUMP JUMPDEST DUP7 PUSH1 0x1 PUSH1 0x1 PUSH1 0xA0 SHL SUB AND DUP3 PUSH32 0x35B78E510AAC7136BF9BA2FA3D4E8F255CE171C52AC466063B884996520D52F4 DUP9 DUP9 DUP9 PUSH1 0x40 MLOAD PUSH2 0x29CB SWAP4 SWAP3 SWAP2 SWAP1 PUSH2 0x45E7 JUMP JUMPDEST PUSH1 0x40 MLOAD DUP1 SWAP2 SUB SWAP1 LOG3 POP POP POP POP POP POP POP JUMP JUMPDEST PUSH2 0x29E4 PUSH2 0x2E17 JUMP JUMPDEST PUSH2 0x29EC PUSH2 0x2D78 JUMP JUMPDEST PUSH1 0x7 SLOAD PUSH2 0x100 SWAP1 DIV PUSH1 0xFF AND PUSH2 0x2A3A JUMPI PUSH1 0x40 MLOAD PUSH3 0x461BCD PUSH1 0xE5 SHL DUP2 MSTORE PUSH1 0x20 PUSH1 0x4 DUP3 ADD MSTORE PUSH1 0x14 PUSH1 0x24 DUP3 ADD MSTORE PUSH20 0x14995D9BD8D85D1A5BDB9CC8191A5CD8589B1959 PUSH1 0x62 SHL PUSH1 0x44 DUP3 ADD MSTORE PUSH1 0x64 ADD PUSH2 0xB08 JUMP JUMPDEST CALLER PUSH1 0x0 SWAP1 DUP2 MSTORE PUSH1 0xC PUSH1 0x20 MSTORE PUSH1 0x40 SWAP1 KECCAK256 PUSH1 0x6 DUP2 ADD SLOAD PUSH1 0xFF AND PUSH2 0x2A90 JUMPI PUSH1 0x40 MLOAD PUSH3 0x461BCD PUSH1 0xE5 SHL DUP2 MSTORE PUSH1 0x20 PUSH1 0x4 DUP3 ADD MSTORE PUSH1 0x10 PUSH1 0x24 DUP3 ADD MSTORE PUSH16 0x4E6F2061637469766520706C65646765 PUSH1 0x80 SHL PUSH1 0x44 DUP3 ADD MSTORE PUSH1 0x64 ADD PUSH2 0xB08 JUMP JUMPDEST PUSH1 0x1 DUP2 ADD SLOAD PUSH2 0x2AAB SWAP1 PUSH1 0x1 PUSH1 0x1 PUSH1 0x60 SHL SUB AND PUSH3 0x15180 PUSH2 0x460A JUMP JUMPDEST PUSH1 0x1 PUSH1 0x1 PUSH1 0x60 SHL SUB AND TIMESTAMP GT ISZERO PUSH2 0x2B03 JUMPI PUSH1 0x40 MLOAD PUSH3 0x461BCD PUSH1 0xE5 SHL DUP2 MSTORE PUSH1 0x20 PUSH1 0x4 DUP3 ADD MSTORE PUSH1 0x19 PUSH1 0x24 DUP3 ADD MSTORE PUSH32 0x5265766F636174696F6E20706572696F64206578706972656400000000000000 PUSH1 0x44 DUP3 ADD MSTORE PUSH1 0x64 ADD PUSH2 0xB08 JUMP JUMPDEST PUSH1 0x2 DUP2 ADD SLOAD PUSH1 0x6 DUP3 ADD DUP1 SLOAD PUSH1 0xFF NOT AND SWAP1 SSTORE PUSH1 0x1 PUSH1 0x1 PUSH1 0x80 SHL SUB AND DUP1 ISZERO PUSH2 0x2BF8 JUMPI PUSH1 0x40 MLOAD PUSH4 0xA9059CBB PUSH1 0xE0 SHL DUP2 MSTORE CALLER PUSH1 0x4 DUP3 ADD MSTORE PUSH1 0x1 PUSH1 0x1 PUSH1 0x80 SHL SUB DUP3 AND PUSH1 0x24 DUP3 ADD MSTORE PUSH32 0x0 PUSH1 0x1 PUSH1 0x1 PUSH1 0xA0 SHL SUB AND SWAP1 PUSH4 0xA9059CBB SWAP1 PUSH1 0x44 ADD PUSH1 0x20 PUSH1 0x40 MLOAD DUP1 DUP4 SUB DUP2 PUSH1 0x0 DUP8 GAS CALL ISZERO DUP1 ISZERO PUSH2 0x2B98 JUMPI RETURNDATASIZE PUSH1 0x0 DUP1 RETURNDATACOPY RETURNDATASIZE PUSH1 0x0 REVERT JUMPDEST POP POP POP POP PUSH1 0x40 MLOAD RETURNDATASIZE PUSH1 0x1F NOT PUSH1 0x1F DUP3 ADD AND DUP3 ADD DUP1 PUSH1 0x40 MSTORE POP DUP2 ADD SWAP1 PUSH2 0x2BBC SWAP2 SWAP1 PUSH2 0x4102 JUMP JUMPDEST PUSH2 0x2BF8 JUMPI PUSH1 0x40 MLOAD PUSH3 0x461BCD PUSH1 0xE5 SHL DUP2 MSTORE PUSH1 0x20 PUSH1 0x4 DUP3 ADD MSTORE PUSH1 0xD PUSH1 0x24 DUP3 ADD MSTORE PUSH13 0x1499599D5B990819985A5B1959 PUSH1 0x9A SHL PUSH1 0x44 DUP3 ADD MSTORE PUSH1 0x64 ADD PUSH2 0xB08 JUMP JUMPDEST PUSH1 0x40 DUP1 MLOAD PUSH1 0x1 PUSH1 0x1 PUSH1 0x80 SHL SUB DUP4 AND DUP2 MSTORE PUSH1 0x1 PUSH1 0x1 PUSH1 0x60 SHL SUB TIMESTAMP AND PUSH1 0x20 DUP3 ADD MSTORE CALLER SWAP2 PUSH32 0xACD85388CA1F551D628D70EE145B46BCF3391D20EFC72788A0C87D1435FF1A74 SWAP2 ADD PUSH1 0x40 MLOAD DUP1 SWAP2 SUB SWAP1 LOG2 POP POP PUSH2 0x198F PUSH1 0x1 PUSH1 0x0 SSTORE JUMP JUMPDEST PUSH2 0x2C58 PUSH2 0x2CC9 JUMP JUMPDEST PUSH1 0x1 PUSH1 0x1 PUSH1 0xA0 SHL SUB DUP2 AND PUSH2 0x2CBD JUMPI PUSH1 0x40 MLOAD PUSH3 0x461BCD PUSH1 0xE5 SHL DUP2 MSTORE PUSH1 0x20 PUSH1 0x4 DUP3 ADD MSTORE PUSH1 0x26 PUSH1 0x24 DUP3 ADD MSTORE PUSH32 0x4F776E61626C653A206E6577206F776E657220697320746865207A65726F2061 PUSH1 0x44 DUP3 ADD MSTORE PUSH6 0x646472657373 PUSH1 0xD0 SHL PUSH1 0x64 DUP3 ADD MSTORE PUSH1 0x84 ADD PUSH2 0xB08 JUMP JUMPDEST PUSH2 0x2CC6 DUP2 PUSH2 0x2DC5 JUMP JUMPDEST POP JUMP JUMPDEST PUSH1 0x1 SLOAD PUSH1 0x1 PUSH1 0x1 PUSH1 0xA0 SHL SUB AND CALLER EQ PUSH2 0x198F JUMPI PUSH1 0x40 MLOAD PUSH3 0x461BCD PUSH1 0xE5 SHL DUP2 MSTORE PUSH1 0x20 PUSH1 0x4 DUP3 ADD DUP2 SWAP1 MSTORE PUSH1 0x24 DUP3 ADD MSTORE PUSH32 0x4F776E61626C653A2063616C6C6572206973206E6F7420746865206F776E6572 PUSH1 0x44 DUP3 ADD MSTORE PUSH1 0x64 ADD PUSH2 0xB08 JUMP JUMPDEST PUSH2 0x2D2B PUSH2 0x362C JUMP JUMPDEST PUSH1 0x1 DUP1 SLOAD PUSH1 0xFF PUSH1 0xA0 SHL NOT AND SWAP1 SSTORE PUSH32 0x5DB9EE0A495BF2E6FF9C91A7834C1BA4FDD244A5E8AA4E537BD38AEAE4B073AA CALLER JUMPDEST PUSH1 0x40 MLOAD PUSH1 0x1 PUSH1 0x1 PUSH1 0xA0 SHL SUB SWAP1 SWAP2 AND DUP2 MSTORE PUSH1 0x20 ADD PUSH1 0x40 MLOAD DUP1 SWAP2 SUB SWAP1 LOG1 JUMP JUMPDEST PUSH1 0x1 SLOAD PUSH1 0x1 PUSH1 0xA0 SHL SWAP1 DIV PUSH1 0xFF AND ISZERO PUSH2 0x198F JUMPI PUSH1 0x40 MLOAD PUSH3 0x461BCD PUSH1 0xE5 SHL DUP2 MSTORE PUSH1 0x20 PUSH1 0x4 DUP3 ADD MSTORE PUSH1 0x10 PUSH1 0x24 DUP3 ADD MSTORE PUSH16 0x14185D5CD8589B194E881C185D5CD959 PUSH1 0x82 SHL PUSH1 0x44 DUP3 ADD MSTORE PUSH1 0x64 ADD PUSH2 0xB08 JUMP JUMPDEST PUSH1 0x1 DUP1 SLOAD PUSH1 0x1 PUSH1 0x1 PUSH1 0xA0 SHL SUB DUP4 DUP2 AND PUSH1 0x1 PUSH1 0x1 PUSH1 0xA0 SHL SUB NOT DUP4 AND DUP2 OR SWAP1 SWAP4 SSTORE PUSH1 0x40 MLOAD SWAP2 AND SWAP2 SWAP1 DUP3 SWAP1 PUSH32 0x8BE0079C531659141344CD1FD0A4F28419497F9722A3DAAFE3B4186F6B6457E0 SWAP1 PUSH1 0x0 SWAP1 LOG3 POP POP JUMP JUMPDEST PUSH1 0x2 PUSH1 0x0 SLOAD SUB PUSH2 0x2E69 JUMPI PUSH1 0x40 MLOAD PUSH3 0x461BCD PUSH1 0xE5 SHL DUP2 MSTORE PUSH1 0x20 PUSH1 0x4 DUP3 ADD MSTORE PUSH1 0x1F PUSH1 0x24 DUP3 ADD MSTORE PUSH32 0x5265656E7472616E637947756172643A207265656E7472616E742063616C6C00 PUSH1 0x44 DUP3 ADD MSTORE PUSH1 0x64 ADD PUSH2 0xB08 JUMP JUMPDEST PUSH1 0x2 PUSH1 0x0 SSTORE JUMP JUMPDEST DUP1 MLOAD PUSH1 0x0 SWAP1 DUP3 SWAP1 DUP3 SUB PUSH2 0x2E86 JUMPI POP PUSH1 0x0 SWAP3 SWAP2 POP POP JUMP JUMPDEST POP POP PUSH1 0x20 ADD MLOAD SWAP1 JUMP JUMPDEST PUSH1 0x0 DUP1 PUSH1 0x0 DUP1 PUSH2 0x2E9D PUSH2 0x16C5 JUMP JUMPDEST SWAP4 POP PUSH1 0x0 NOT DUP5 SUB PUSH2 0x2EF0 JUMPI PUSH1 0x40 MLOAD PUSH3 0x461BCD PUSH1 0xE5 SHL DUP2 MSTORE PUSH1 0x20 PUSH1 0x4 DUP3 ADD MSTORE PUSH1 0x1C PUSH1 0x24 DUP3 ADD MSTORE PUSH32 0x4E6F2061637469766520636F6E76657267656E636520706572696F6400000000 PUSH1 0x44 DUP3 ADD MSTORE PUSH1 0x64 ADD PUSH2 0xB08 JUMP JUMPDEST CALLER PUSH1 0x0 SWAP1 DUP2 MSTORE PUSH1 0xA PUSH1 0x20 SWAP1 DUP2 MSTORE PUSH1 0x40 DUP1 DUP4 KECCAK256 DUP8 DUP5 MSTORE SWAP1 SWAP2 MSTORE SWAP1 KECCAK256 SLOAD PUSH1 0xFF AND ISZERO PUSH2 0x2F6E JUMPI PUSH1 0x40 MLOAD PUSH3 0x461BCD PUSH1 0xE5 SHL DUP2 MSTORE PUSH1 0x20 PUSH1 0x4 DUP3 ADD MSTORE PUSH1 0x2A PUSH1 0x24 DUP3 ADD MSTORE PUSH32 0x416464726573732068617320616C726561647920706C656467656420696E2074 PUSH1 0x44 DUP3 ADD MSTORE PUSH10 0x1A1A5CC81C195C9A5BD9 PUSH1 0xB2 SHL PUSH1 0x64 DUP3 ADD MSTORE PUSH1 0x84 ADD PUSH2 0xB08 JUMP JUMPDEST PUSH1 0xB PUSH2 0x2F79 DUP8 PUSH2 0x367C JUMP JUMPDEST PUSH1 0x40 MLOAD PUSH2 0x2F86 SWAP2 SWAP1 PUSH2 0x45CB JUMP JUMPDEST SWAP1 DUP2 MSTORE PUSH1 0x40 DUP1 MLOAD PUSH1 0x20 SWAP3 DUP2 SWAP1 SUB DUP4 ADD SWAP1 KECCAK256 PUSH1 0x0 DUP8 DUP2 MSTORE SWAP3 MSTORE SWAP1 KECCAK256 SLOAD PUSH1 0xFF AND ISZERO PUSH2 0x3000 JUMPI PUSH1 0x40 MLOAD PUSH3 0x461BCD PUSH1 0xE5 SHL DUP2 MSTORE PUSH1 0x20 PUSH1 0x4 DUP3 ADD MSTORE PUSH1 0x26 PUSH1 0x24 DUP3 ADD MSTORE PUSH32 0x4649442068617320616C726561647920706C656467656420696E207468697320 PUSH1 0x44 DUP3 ADD MSTORE PUSH6 0x1C195C9A5BD9 PUSH1 0xD2 SHL PUSH1 0x64 DUP3 ADD MSTORE PUSH1 0x84 ADD PUSH2 0xB08 JUMP JUMPDEST CALLER PUSH1 0x0 SWAP1 DUP2 MSTORE PUSH1 0xD PUSH1 0x20 MSTORE PUSH1 0x40 SWAP1 KECCAK256 SLOAD PUSH1 0x1 PUSH1 0x1 PUSH1 0x60 SHL SUB AND PUSH2 0x305C JUMPI PUSH1 0x40 MLOAD PUSH3 0x461BCD PUSH1 0xE5 SHL DUP2 MSTORE PUSH1 0x20 PUSH1 0x4 DUP3 ADD MSTORE PUSH1 0x14 PUSH1 0x24 DUP3 ADD MSTORE PUSH20 0x14D95D08189A5C9D1A0819185D1948199A5C9CDD PUSH1 0x62 SHL PUSH1 0x44 DUP3 ADD MSTORE PUSH1 0x64 ADD PUSH2 0xB08 JUMP JUMPDEST DUP7 PUSH2 0x3079 JUMPI PUSH1 0x40 MLOAD PUSH3 0x461BCD PUSH1 0xE5 SHL DUP2 MSTORE PUSH1 0x4 ADD PUSH2 0xB08 SWAP1 PUSH2 0x411F JUMP JUMPDEST PUSH1 0xA0 DUP8 GT ISZERO PUSH2 0x30D6 JUMPI PUSH1 0x40 MLOAD PUSH3 0x461BCD PUSH1 0xE5 SHL DUP2 MSTORE PUSH1 0x20 PUSH1 0x4 DUP3 ADD MSTORE PUSH1 0x23 PUSH1 0x24 DUP3 ADD MSTORE PUSH32 0x436F6D6D69746D656E7420746F6F206C6F6E6720286D61782031363020636861 PUSH1 0x44 DUP3 ADD MSTORE PUSH3 0x727329 PUSH1 0xE8 SHL PUSH1 0x64 DUP3 ADD MSTORE PUSH1 0x84 ADD PUSH2 0xB08 JUMP JUMPDEST PUSH1 0x7 SLOAD PUSH3 0x10000 SWAP1 DIV PUSH1 0x1 PUSH1 0x1 PUSH1 0x60 SHL SUB AND PUSH1 0x1 PUSH1 0x1 PUSH1 0x80 SHL SUB DUP7 AND LT ISZERO PUSH2 0x3138 JUMPI PUSH1 0x40 MLOAD PUSH3 0x461BCD PUSH1 0xE5 SHL DUP2 MSTORE PUSH1 0x20 PUSH1 0x4 DUP3 ADD MSTORE PUSH1 0x15 PUSH1 0x24 DUP3 ADD MSTORE PUSH21 0x506C6564676520616D6F756E7420746F6F206C6F77 PUSH1 0x58 SHL PUSH1 0x44 DUP3 ADD MSTORE PUSH1 0x64 ADD PUSH2 0xB08 JUMP JUMPDEST PUSH1 0x7 SLOAD PUSH1 0x1 PUSH1 0x70 SHL SWAP1 DIV PUSH1 0x1 PUSH1 0x1 PUSH1 0x60 SHL SUB AND PUSH1 0x1 PUSH1 0x1 PUSH1 0x80 SHL SUB DUP7 AND GT ISZERO PUSH2 0x319C JUMPI PUSH1 0x40 MLOAD PUSH3 0x461BCD PUSH1 0xE5 SHL DUP2 MSTORE PUSH1 0x20 PUSH1 0x4 DUP3 ADD MSTORE PUSH1 0x16 PUSH1 0x24 DUP3 ADD MSTORE PUSH22 0xA0D8CAC8CECA40C2DADEEADCE840E8DEDE40D0D2CED PUSH1 0x53 SHL PUSH1 0x44 DUP3 ADD MSTORE PUSH1 0x64 ADD PUSH2 0xB08 JUMP JUMPDEST PUSH1 0x40 MLOAD PUSH4 0x70A08231 PUSH1 0xE0 SHL DUP2 MSTORE CALLER PUSH1 0x4 DUP3 ADD MSTORE PUSH1 0x1 PUSH1 0x1 PUSH1 0x80 SHL SUB DUP7 AND SWAP1 PUSH32 0x0 PUSH1 0x1 PUSH1 0x1 PUSH1 0xA0 SHL SUB AND SWAP1 PUSH4 0x70A08231 SWAP1 PUSH1 0x24 ADD PUSH1 0x20 PUSH1 0x40 MLOAD DUP1 DUP4 SUB DUP2 DUP7 GAS STATICCALL ISZERO DUP1 ISZERO PUSH2 0x320B JUMPI RETURNDATASIZE PUSH1 0x0 DUP1 RETURNDATACOPY RETURNDATASIZE PUSH1 0x0 REVERT JUMPDEST POP POP POP POP PUSH1 0x40 MLOAD RETURNDATASIZE PUSH1 0x1F NOT PUSH1 0x1F DUP3 ADD AND DUP3 ADD DUP1 PUSH1 0x40 MSTORE POP DUP2 ADD SWAP1 PUSH2 0x322F SWAP2 SWAP1 PUSH2 0x462A JUMP JUMPDEST LT ISZERO PUSH2 0x327D JUMPI PUSH1 0x40 MLOAD PUSH3 0x461BCD PUSH1 0xE5 SHL DUP2 MSTORE PUSH1 0x20 PUSH1 0x4 DUP3 ADD MSTORE PUSH1 0x19 PUSH1 0x24 DUP3 ADD MSTORE PUSH32 0x496E73756666696369656E7420555344432062616C616E636500000000000000 PUSH1 0x44 DUP3 ADD MSTORE PUSH1 0x64 ADD PUSH2 0xB08 JUMP JUMPDEST PUSH1 0x2 SLOAD PUSH1 0x40 MLOAD PUSH4 0x23B872DD PUSH1 0xE0 SHL DUP2 MSTORE CALLER PUSH1 0x4 DUP3 ADD MSTORE PUSH1 0x1 PUSH1 0x1 PUSH1 0xA0 SHL SUB SWAP2 DUP3 AND PUSH1 0x24 DUP3 ADD MSTORE PUSH3 0xF4240 PUSH1 0x44 DUP3 ADD MSTORE PUSH32 0x0 SWAP1 SWAP2 AND SWAP1 PUSH4 0x23B872DD SWAP1 PUSH1 0x64 ADD PUSH1 0x20 PUSH1 0x40 MLOAD DUP1 DUP4 SUB DUP2 PUSH1 0x0 DUP8 GAS CALL ISZERO DUP1 ISZERO PUSH2 0x32F9 JUMPI RETURNDATASIZE PUSH1 0x0 DUP1 RETURNDATACOPY RETURNDATASIZE PUSH1 0x0 REVERT JUMPDEST POP POP POP POP PUSH1 0x40 MLOAD RETURNDATASIZE PUSH1 0x1F NOT PUSH1 0x1F DUP3 ADD AND DUP3 ADD DUP1 PUSH1 0x40 MSTORE POP DUP2 ADD SWAP1 PUSH2 0x331D SWAP2 SWAP1 PUSH2 0x4102 JUMP JUMPDEST PUSH2 0x3369 JUMPI PUSH1 0x40 MLOAD PUSH3 0x461BCD PUSH1 0xE5 SHL DUP2 MSTORE PUSH1 0x20 PUSH1 0x4 DUP3 ADD DUP2 SWAP1 MSTORE PUSH1 0x24 DUP3 ADD MSTORE PUSH32 0x55534443207472616E7366657220746F207472656173757279206661696C6564 PUSH1 0x44 DUP3 ADD MSTORE PUSH1 0x64 ADD PUSH2 0xB08 JUMP JUMPDEST PUSH2 0x3376 PUSH3 0xF4240 DUP7 PUSH2 0x40DB JUMP JUMPDEST SWAP3 POP PUSH1 0x1 PUSH1 0x1 PUSH1 0x80 SHL SUB DUP4 AND ISZERO PUSH2 0x3391 JUMPI PUSH2 0x3391 CALLER DUP5 PUSH2 0x37B2 JUMP JUMPDEST PUSH1 0x2 DUP1 SLOAD PUSH1 0x1 PUSH1 0xA0 SHL SWAP1 DIV PUSH1 0x1 PUSH1 0x1 PUSH1 0x60 SHL SUB AND SWAP1 PUSH1 0x14 PUSH2 0x33B1 DUP4 PUSH2 0x444F JUMP JUMPDEST SWAP2 SWAP1 PUSH2 0x100 EXP DUP2 SLOAD DUP2 PUSH1 0x1 PUSH1 0x1 PUSH1 0x60 SHL SUB MUL NOT AND SWAP1 DUP4 PUSH1 0x1 PUSH1 0x1 PUSH1 0x60 SHL SUB AND MUL OR SWAP1 SSTORE POP POP PUSH2 0x33DF CALLER PUSH2 0x209B JUMP JUMPDEST SWAP2 POP PUSH2 0x33EC DUP9 DUP9 CALLER PUSH2 0x3984 JUMP JUMPDEST SWAP1 POP SWAP5 POP SWAP5 POP SWAP5 POP SWAP5 SWAP1 POP JUMP JUMPDEST CALLER PUSH1 0x0 DUP2 DUP2 MSTORE PUSH1 0xC PUSH1 0x20 MSTORE PUSH1 0x40 SWAP1 KECCAK256 DUP1 SLOAD PUSH1 0x1 PUSH1 0x1 PUSH1 0xA0 SHL SUB NOT AND DUP3 OR DUP2 SSTORE PUSH1 0x2 DUP1 SLOAD PUSH1 0x1 PUSH1 0x1 PUSH1 0x60 SHL SUB PUSH1 0x1 PUSH1 0xA0 SHL SWAP2 DUP3 SWAP1 DIV DUP2 AND SWAP1 SWAP2 MUL SWAP1 SWAP4 OR DUP3 SSTORE PUSH1 0x1 DUP3 ADD DUP1 SLOAD PUSH1 0x1 PUSH1 0x1 PUSH1 0x80 SHL SUB DUP1 DUP12 AND PUSH1 0x1 PUSH1 0x60 SHL MUL PUSH1 0x1 PUSH1 0x1 PUSH1 0xE0 SHL SUB NOT SWAP1 SWAP3 AND TIMESTAMP SWAP1 SWAP7 AND SWAP6 SWAP1 SWAP6 OR OR SWAP1 SSTORE DUP2 ADD DUP1 SLOAD PUSH1 0x1 PUSH1 0x1 PUSH1 0x40 SHL SUB DUP7 AND PUSH1 0x1 PUSH1 0x80 SHL MUL PUSH1 0x1 PUSH1 0x1 PUSH1 0xC0 SHL SUB NOT SWAP1 SWAP2 AND SWAP4 DUP8 AND SWAP4 SWAP1 SWAP4 OR SWAP3 SWAP1 SWAP3 OR SWAP1 SWAP2 SSTORE PUSH1 0x3 DUP2 ADD DUP3 SWAP1 SSTORE PUSH1 0x4 DUP2 ADD DUP8 SWAP1 SSTORE PUSH1 0x5 DUP2 ADD PUSH2 0x34B0 DUP10 DUP12 DUP4 PUSH2 0x4209 JUMP JUMPDEST POP PUSH1 0x6 DUP2 ADD DUP1 SLOAD PUSH1 0x1 PUSH1 0xFF NOT SWAP2 DUP3 AND DUP2 OR SWAP1 SWAP3 SSTORE CALLER PUSH1 0x0 SWAP1 DUP2 MSTORE PUSH1 0xA PUSH1 0x20 SWAP1 DUP2 MSTORE PUSH1 0x40 DUP1 DUP4 KECCAK256 DUP11 DUP5 MSTORE SWAP1 SWAP2 MSTORE SWAP1 KECCAK256 DUP1 SLOAD SWAP1 SWAP2 AND DUP3 OR SWAP1 SSTORE PUSH1 0xB PUSH2 0x34F2 DUP10 PUSH2 0x367C JUMP JUMPDEST PUSH1 0x40 MLOAD PUSH2 0x34FF SWAP2 SWAP1 PUSH2 0x45CB JUMP JUMPDEST SWAP1 DUP2 MSTORE PUSH1 0x40 DUP1 MLOAD PUSH1 0x20 SWAP3 DUP2 SWAP1 SUB DUP4 ADD SWAP1 KECCAK256 PUSH1 0x0 DUP10 DUP2 MSTORE SWAP3 MSTORE SWAP1 KECCAK256 DUP1 SLOAD PUSH1 0xFF NOT AND SWAP2 ISZERO ISZERO SWAP2 SWAP1 SWAP2 OR SWAP1 SSTORE PUSH1 0x4 SLOAD PUSH1 0xFF AND DUP1 ISZERO PUSH2 0x354A JUMPI POP PUSH1 0x4 SLOAD PUSH2 0x100 SWAP1 DIV PUSH1 0x1 PUSH1 0x1 PUSH1 0x60 SHL SUB AND TIMESTAMP LT ISZERO JUMPDEST DUP1 ISZERO PUSH2 0x3568 JUMPI POP PUSH1 0x4 SLOAD PUSH1 0x1 PUSH1 0x68 SHL SWAP1 DIV PUSH1 0x1 PUSH1 0x1 PUSH1 0x60 SHL SUB AND TIMESTAMP GT ISZERO JUMPDEST ISZERO PUSH2 0x3576 JUMPI PUSH2 0x3576 DUP7 PUSH2 0x39BC JUMP JUMPDEST CALLER PUSH32 0x55C5A3FA94EA0CA5069F72CFFDC1D2A5ACA372C6AB3D6FC054E0F6470A60A092 DUP5 DUP5 PUSH2 0x35A3 DUP12 PUSH2 0x367C JUMP JUMPDEST DUP11 DUP10 DUP16 DUP16 PUSH1 0x2 PUSH1 0x14 SWAP1 SLOAD SWAP1 PUSH2 0x100 EXP SWAP1 DIV PUSH1 0x1 PUSH1 0x1 PUSH1 0x60 SHL SUB AND TIMESTAMP PUSH1 0x0 PUSH1 0x40 MLOAD PUSH2 0x35D6 SWAP11 SWAP10 SWAP9 SWAP8 SWAP7 SWAP6 SWAP5 SWAP4 SWAP3 SWAP2 SWAP1 PUSH2 0x4643 JUMP JUMPDEST PUSH1 0x40 MLOAD DUP1 SWAP2 SUB SWAP1 LOG2 POP POP POP POP POP POP POP POP POP JUMP JUMPDEST PUSH2 0x35F1 PUSH2 0x2D78 JUMP JUMPDEST PUSH1 0x1 DUP1 SLOAD PUSH1 0xFF PUSH1 0xA0 SHL NOT AND PUSH1 0x1 PUSH1 0xA0 SHL OR SWAP1 SSTORE PUSH32 0x62E78CEA01BEE320CD4E420270B5EA74000D11B0C9F74754EBDBFC544B05A258 PUSH2 0x2D5B CALLER SWAP1 JUMP JUMPDEST PUSH1 0x1 SLOAD PUSH1 0x1 PUSH1 0xA0 SHL SWAP1 DIV PUSH1 0xFF AND PUSH2 0x198F JUMPI PUSH1 0x40 MLOAD PUSH3 0x461BCD PUSH1 0xE5 SHL DUP2 MSTORE PUSH1 0x20 PUSH1 0x4 DUP3 ADD MSTORE PUSH1 0x14 PUSH1 0x24 DUP3 ADD MSTORE PUSH20 0x14185D5CD8589B194E881B9BDD081C185D5CD959 PUSH1 0x62 SHL PUSH1 0x44 DUP3 ADD MSTORE PUSH1 0x64 ADD PUSH2 0xB08 JUMP JUMPDEST PUSH1 0x60 PUSH1 0x0 JUMPDEST PUSH1 0x20 DUP2 PUSH1 0xFF AND LT DUP1 ISZERO PUSH2 0x36B5 JUMPI POP DUP3 DUP2 PUSH1 0xFF AND PUSH1 0x20 DUP2 LT PUSH2 0x36A4 JUMPI PUSH2 0x36A4 PUSH2 0x40AF JUMP JUMPDEST BYTE PUSH1 0xF8 SHL PUSH1 0x1 PUSH1 0x1 PUSH1 0xF8 SHL SUB NOT AND ISZERO ISZERO JUMPDEST ISZERO PUSH2 0x36CC JUMPI DUP1 PUSH2 0x36C4 DUP2 PUSH2 0x46C8 JUMP JUMPDEST SWAP2 POP POP PUSH2 0x3681 JUMP JUMPDEST PUSH1 0x0 DUP2 PUSH1 0xFF AND PUSH1 0x1 PUSH1 0x1 PUSH1 0x40 SHL SUB DUP2 GT ISZERO PUSH2 0x36E9 JUMPI PUSH2 0x36E9 PUSH2 0x3DDD JUMP JUMPDEST PUSH1 0x40 MLOAD SWAP1 DUP1 DUP3 MSTORE DUP1 PUSH1 0x1F ADD PUSH1 0x1F NOT AND PUSH1 0x20 ADD DUP3 ADD PUSH1 0x40 MSTORE DUP1 ISZERO PUSH2 0x3713 JUMPI PUSH1 0x20 DUP3 ADD DUP2 DUP1 CALLDATASIZE DUP4 CALLDATACOPY ADD SWAP1 POP JUMPDEST POP SWAP1 POP PUSH1 0x0 SWAP2 POP JUMPDEST PUSH1 0x20 DUP3 PUSH1 0xFF AND LT DUP1 ISZERO PUSH2 0x374F JUMPI POP DUP4 DUP3 PUSH1 0xFF AND PUSH1 0x20 DUP2 LT PUSH2 0x373E JUMPI PUSH2 0x373E PUSH2 0x40AF JUMP JUMPDEST BYTE PUSH1 0xF8 SHL PUSH1 0x1 PUSH1 0x1 PUSH1 0xF8 SHL SUB NOT AND ISZERO ISZERO JUMPDEST ISZERO PUSH2 0x37AB JUMPI DUP4 DUP3 PUSH1 0xFF AND PUSH1 0x20 DUP2 LT PUSH2 0x3769 JUMPI PUSH2 0x3769 PUSH2 0x40AF JUMP JUMPDEST BYTE PUSH1 0xF8 SHL DUP2 DUP4 PUSH1 0xFF AND DUP2 MLOAD DUP2 LT PUSH2 0x3782 JUMPI PUSH2 0x3782 PUSH2 0x40AF JUMP JUMPDEST PUSH1 0x20 ADD ADD SWAP1 PUSH1 0x1 PUSH1 0x1 PUSH1 0xF8 SHL SUB NOT AND SWAP1 DUP2 PUSH1 0x0 BYTE SWAP1 MSTORE8 POP DUP2 PUSH2 0x37A3 DUP2 PUSH2 0x46C8 JUMP JUMPDEST SWAP3 POP POP PUSH2 0x371B JUMP JUMPDEST SWAP4 SWAP3 POP POP POP JUMP JUMPDEST PUSH1 0x0 PUSH2 0x37BF PUSH1 0x2 DUP4 PUSH2 0x46E7 JUMP JUMPDEST SWAP1 POP DUP1 PUSH1 0x3 PUSH1 0x10 DUP3 DUP3 DUP3 SWAP1 SLOAD SWAP1 PUSH2 0x100 EXP SWAP1 DIV PUSH1 0x1 PUSH1 0x1 PUSH1 0x80 SHL SUB AND PUSH2 0x37E5 SWAP2 SWAP1 PUSH2 0x470D JUMP JUMPDEST DUP3 SLOAD PUSH2 0x100 SWAP3 SWAP1 SWAP3 EXP PUSH1 0x1 PUSH1 0x1 PUSH1 0x80 SHL SUB DUP2 DUP2 MUL NOT SWAP1 SWAP4 AND SWAP2 DUP4 AND MUL OR SWAP1 SWAP2 SSTORE PUSH1 0x40 MLOAD PUSH4 0x23B872DD PUSH1 0xE0 SHL DUP2 MSTORE PUSH1 0x1 PUSH1 0x1 PUSH1 0xA0 SHL SUB DUP7 DUP2 AND PUSH1 0x4 DUP4 ADD MSTORE ADDRESS PUSH1 0x24 DUP4 ADD MSTORE SWAP2 DUP6 AND PUSH1 0x44 DUP3 ADD MSTORE PUSH32 0x0 SWAP1 SWAP2 AND SWAP2 POP PUSH4 0x23B872DD SWAP1 PUSH1 0x64 ADD PUSH1 0x20 PUSH1 0x40 MLOAD DUP1 DUP4 SUB DUP2 PUSH1 0x0 DUP8 GAS CALL ISZERO DUP1 ISZERO PUSH2 0x387E JUMPI RETURNDATASIZE PUSH1 0x0 DUP1 RETURNDATACOPY RETURNDATASIZE PUSH1 0x0 REVERT JUMPDEST POP POP POP POP PUSH1 0x40 MLOAD RETURNDATASIZE PUSH1 0x1F NOT PUSH1 0x1F DUP3 ADD AND DUP3 ADD DUP1 PUSH1 0x40 MSTORE POP DUP2 ADD SWAP1 PUSH2 0x38A2 SWAP2 SWAP1 PUSH2 0x4102 JUMP JUMPDEST PUSH2 0x38EE JUMPI PUSH1 0x40 MLOAD PUSH3 0x461BCD PUSH1 0xE5 SHL DUP2 MSTORE PUSH1 0x20 PUSH1 0x4 DUP3 ADD DUP2 SWAP1 MSTORE PUSH1 0x24 DUP3 ADD MSTORE PUSH32 0x55534443207472616E7366657220666F7220737572706C7573206661696C6564 PUSH1 0x44 DUP3 ADD MSTORE PUSH1 0x64 ADD PUSH2 0xB08 JUMP JUMPDEST PUSH1 0x3 DUP1 SLOAD DUP4 SWAP2 SWAP1 PUSH1 0x0 SWAP1 PUSH2 0x390C SWAP1 DUP5 SWAP1 PUSH1 0x1 PUSH1 0x1 PUSH1 0x80 SHL SUB AND PUSH2 0x470D JUMP JUMPDEST DUP3 SLOAD PUSH2 0x100 SWAP3 SWAP1 SWAP3 EXP PUSH1 0x1 PUSH1 0x1 PUSH1 0x80 SHL SUB DUP2 DUP2 MUL NOT SWAP1 SWAP4 AND SWAP2 DUP4 AND MUL OR SWAP1 SWAP2 SSTORE PUSH1 0x3 SLOAD PUSH1 0x40 DUP1 MLOAD DUP6 DUP5 AND DUP2 MSTORE PUSH1 0x1 PUSH1 0x80 SHL SWAP1 SWAP3 DIV SWAP1 SWAP3 AND PUSH1 0x20 DUP3 ADD MSTORE PUSH1 0x1 PUSH1 0x1 PUSH1 0xA0 SHL SUB DUP7 AND SWAP3 POP PUSH32 0xB9872407C294D110A9A3280F9146CC02DE9FD0DE8A552A414B1B43720222E9C1 SWAP2 ADD PUSH1 0x40 MLOAD DUP1 SWAP2 SUB SWAP1 LOG2 POP POP POP JUMP JUMPDEST PUSH1 0x0 DUP4 DUP4 DUP4 TIMESTAMP PUSH1 0x40 MLOAD PUSH1 0x20 ADD PUSH2 0x399D SWAP5 SWAP4 SWAP3 SWAP2 SWAP1 PUSH2 0x4190 JUMP JUMPDEST PUSH1 0x40 MLOAD PUSH1 0x20 DUP2 DUP4 SUB SUB DUP2 MSTORE SWAP1 PUSH1 0x40 MSTORE DUP1 MLOAD SWAP1 PUSH1 0x20 ADD KECCAK256 SWAP1 POP SWAP4 SWAP3 POP POP POP JUMP JUMPDEST PUSH1 0x5 SLOAD PUSH1 0x0 SWAP1 PUSH2 0x39CE SWAP1 PUSH1 0x1 SWAP1 PUSH2 0x43C8 JUMP JUMPDEST SWAP1 POP PUSH1 0x5 DUP2 DUP2 SLOAD DUP2 LT PUSH2 0x39E3 JUMPI PUSH2 0x39E3 PUSH2 0x40AF JUMP JUMPDEST PUSH1 0x0 SWAP2 DUP3 MSTORE PUSH1 0x20 DUP3 KECCAK256 PUSH1 0x1 PUSH1 0x4 SWAP1 SWAP3 MUL ADD ADD DUP1 SLOAD PUSH1 0x1 PUSH1 0x1 PUSH1 0x60 SHL SUB AND SWAP2 PUSH2 0x3A0A DUP4 PUSH2 0x444F JUMP JUMPDEST SWAP2 SWAP1 PUSH2 0x100 EXP DUP2 SLOAD DUP2 PUSH1 0x1 PUSH1 0x1 PUSH1 0x60 SHL SUB MUL NOT AND SWAP1 DUP4 PUSH1 0x1 PUSH1 0x1 PUSH1 0x60 SHL SUB AND MUL OR SWAP1 SSTORE POP POP DUP2 PUSH1 0x1 PUSH1 0x1 PUSH1 0x80 SHL SUB AND PUSH1 0x5 DUP3 DUP2 SLOAD DUP2 LT PUSH2 0x3A4C JUMPI PUSH2 0x3A4C PUSH2 0x40AF JUMP JUMPDEST SWAP1 PUSH1 0x0 MSTORE PUSH1 0x20 PUSH1 0x0 KECCAK256 SWAP1 PUSH1 0x4 MUL ADD PUSH1 0x2 ADD PUSH1 0x0 DUP3 DUP3 SLOAD PUSH2 0x3A6C SWAP2 SWAP1 PUSH2 0x438A JUMP JUMPDEST SWAP1 SWAP2 SSTORE POP POP POP POP JUMP JUMPDEST PUSH1 0x0 PUSH1 0x20 DUP3 DUP5 SUB SLT ISZERO PUSH2 0x3A87 JUMPI PUSH1 0x0 DUP1 REVERT JUMPDEST POP CALLDATALOAD SWAP2 SWAP1 POP JUMP JUMPDEST DUP1 CALLDATALOAD PUSH1 0x1 PUSH1 0x1 PUSH1 0xA0 SHL SUB DUP2 AND DUP2 EQ PUSH2 0x3AA5 JUMPI PUSH1 0x0 DUP1 REVERT JUMPDEST SWAP2 SWAP1 POP JUMP JUMPDEST DUP1 CALLDATALOAD PUSH1 0x1 PUSH1 0x1 PUSH1 0x80 SHL SUB DUP2 AND DUP2 EQ PUSH2 0x3AA5 JUMPI PUSH1 0x0 DUP1 REVERT JUMPDEST PUSH1 0x0 DUP1 PUSH1 0x40 DUP4 DUP6 SUB SLT ISZERO PUSH2 0x3AD4 JUMPI PUSH1 0x0 DUP1 REVERT JUMPDEST PUSH2 0x3ADD DUP4 PUSH2 0x3A8E JUMP JUMPDEST SWAP2 POP PUSH2 0x3AEB PUSH1 0x20 DUP5 ADD PUSH2 0x3AAA JUMP JUMPDEST SWAP1 POP SWAP3 POP SWAP3 SWAP1 POP JUMP JUMPDEST PUSH1 0x0 DUP1 DUP4 PUSH1 0x1F DUP5 ADD SLT PUSH2 0x3B06 JUMPI PUSH1 0x0 DUP1 REVERT JUMPDEST POP DUP2 CALLDATALOAD PUSH1 0x1 PUSH1 0x1 PUSH1 0x40 SHL SUB DUP2 GT ISZERO PUSH2 0x3B1D JUMPI PUSH1 0x0 DUP1 REVERT JUMPDEST PUSH1 0x20 DUP4 ADD SWAP2 POP DUP4 PUSH1 0x20 DUP3 DUP6 ADD ADD GT ISZERO PUSH2 0x3B35 JUMPI PUSH1 0x0 DUP1 REVERT JUMPDEST SWAP3 POP SWAP3 SWAP1 POP JUMP JUMPDEST PUSH1 0x0 DUP1 PUSH1 0x20 DUP4 DUP6 SUB SLT ISZERO PUSH2 0x3B4F JUMPI PUSH1 0x0 DUP1 REVERT JUMPDEST DUP3 CALLDATALOAD PUSH1 0x1 PUSH1 0x1 PUSH1 0x40 SHL SUB DUP2 GT ISZERO PUSH2 0x3B65 JUMPI PUSH1 0x0 DUP1 REVERT JUMPDEST PUSH2 0x3B71 DUP6 DUP3 DUP7 ADD PUSH2 0x3AF4 JUMP JUMPDEST SWAP1 SWAP7 SWAP1 SWAP6 POP SWAP4 POP POP POP POP JUMP JUMPDEST PUSH1 0x0 DUP1 PUSH1 0x0 DUP1 PUSH1 0x60 DUP6 DUP8 SUB SLT ISZERO PUSH2 0x3B93 JUMPI PUSH1 0x0 DUP1 REVERT JUMPDEST PUSH2 0x3B9C DUP6 PUSH2 0x3A8E JUMP JUMPDEST SWAP4 POP PUSH1 0x20 DUP6 ADD CALLDATALOAD SWAP3 POP PUSH1 0x40 DUP6 ADD CALLDATALOAD PUSH1 0x1 PUSH1 0x1 PUSH1 0x40 SHL SUB DUP2 GT ISZERO PUSH2 0x3BBE JUMPI PUSH1 0x0 DUP1 REVERT JUMPDEST PUSH2 0x3BCA DUP8 DUP3 DUP9 ADD PUSH2 0x3AF4 JUMP JUMPDEST SWAP6 SWAP9 SWAP5 SWAP8 POP SWAP6 POP POP POP POP JUMP JUMPDEST DUP1 CALLDATALOAD PUSH1 0x1 PUSH1 0x1 PUSH1 0x60 SHL SUB DUP2 AND DUP2 EQ PUSH2 0x3AA5 JUMPI PUSH1 0x0 DUP1 REVERT JUMPDEST PUSH1 0x0 PUSH1 0x20 DUP3 DUP5 SUB SLT ISZERO PUSH2 0x3BFF JUMPI PUSH1 0x0 DUP1 REVERT JUMPDEST PUSH2 0x37AB DUP3 PUSH2 0x3BD6 JUMP JUMPDEST PUSH1 0x0 PUSH1 0x20 DUP3 DUP5 SUB SLT ISZERO PUSH2 0x3C1A JUMPI PUSH1 0x0 DUP1 REVERT JUMPDEST PUSH2 0x37AB DUP3 PUSH2 0x3A8E JUMP JUMPDEST PUSH1 0x0 DUP1 PUSH1 0x40 DUP4 DUP6 SUB SLT ISZERO PUSH2 0x3C36 JUMPI PUSH1 0x0 DUP1 REVERT JUMPDEST PUSH2 0x3C3F DUP4 PUSH2 0x3BD6 JUMP JUMPDEST SWAP2 POP PUSH2 0x3AEB PUSH1 0x20 DUP5 ADD PUSH2 0x3BD6 JUMP JUMPDEST PUSH1 0x0 JUMPDEST DUP4 DUP2 LT ISZERO PUSH2 0x3C68 JUMPI DUP2 DUP2 ADD MLOAD DUP4 DUP3 ADD MSTORE PUSH1 0x20 ADD PUSH2 0x3C50 JUMP JUMPDEST POP POP PUSH1 0x0 SWAP2 ADD MSTORE JUMP JUMPDEST PUSH1 0x0 DUP2 MLOAD DUP1 DUP5 MSTORE PUSH2 0x3C89 DUP2 PUSH1 0x20 DUP7 ADD PUSH1 0x20 DUP7 ADD PUSH2 0x3C4D JUMP JUMPDEST PUSH1 0x1F ADD PUSH1 0x1F NOT AND SWAP3 SWAP1 SWAP3 ADD PUSH1 0x20 ADD SWAP3 SWAP2 POP POP JUMP JUMPDEST PUSH1 0x1 PUSH1 0x1 PUSH1 0xA0 SHL SUB DUP12 AND DUP2 MSTORE PUSH1 0x1 PUSH1 0x1 PUSH1 0x60 SHL SUB DUP11 DUP2 AND PUSH1 0x20 DUP4 ADD MSTORE DUP10 AND PUSH1 0x40 DUP3 ADD MSTORE PUSH1 0x1 PUSH1 0x1 PUSH1 0x80 SHL SUB DUP9 DUP2 AND PUSH1 0x60 DUP4 ADD MSTORE DUP8 AND PUSH1 0x80 DUP3 ADD MSTORE PUSH1 0x1 PUSH1 0x1 PUSH1 0x40 SHL SUB DUP7 AND PUSH1 0xA0 DUP3 ADD MSTORE PUSH1 0xC0 DUP2 ADD DUP6 SWAP1 MSTORE PUSH1 0xE0 DUP2 ADD DUP5 SWAP1 MSTORE PUSH2 0x140 PUSH2 0x100 DUP3 ADD DUP2 SWAP1 MSTORE PUSH1 0x0 SWAP1 PUSH2 0x3D0E DUP4 DUP3 ADD DUP7 PUSH2 0x3C71 JUMP JUMPDEST SWAP2 POP POP DUP3 ISZERO ISZERO PUSH2 0x120 DUP4 ADD MSTORE SWAP12 SWAP11 POP POP POP POP POP POP POP POP POP POP POP JUMP JUMPDEST DUP1 ISZERO ISZERO DUP2 EQ PUSH2 0x2CC6 JUMPI PUSH1 0x0 DUP1 REVERT JUMPDEST PUSH1 0x0 DUP1 PUSH1 0x0 PUSH1 0x60 DUP5 DUP7 SUB SLT ISZERO PUSH2 0x3D4C JUMPI PUSH1 0x0 DUP1 REVERT JUMPDEST PUSH2 0x3D55 DUP5 PUSH2 0x3BD6 JUMP JUMPDEST SWAP3 POP PUSH2 0x3D63 PUSH1 0x20 DUP6 ADD PUSH2 0x3BD6 JUMP JUMPDEST SWAP2 POP PUSH1 0x40 DUP5 ADD CALLDATALOAD PUSH2 0x3D73 DUP2 PUSH2 0x3D29 JUMP JUMPDEST DUP1 SWAP2 POP POP SWAP3 POP SWAP3 POP SWAP3 JUMP JUMPDEST PUSH1 0x0 DUP1 PUSH1 0x0 DUP1 PUSH1 0x40 DUP6 DUP8 SUB SLT ISZERO PUSH2 0x3D94 JUMPI PUSH1 0x0 DUP1 REVERT JUMPDEST DUP5 CALLDATALOAD PUSH1 0x1 PUSH1 0x1 PUSH1 0x40 SHL SUB DUP1 DUP3 GT ISZERO PUSH2 0x3DAB JUMPI PUSH1 0x0 DUP1 REVERT JUMPDEST PUSH2 0x3DB7 DUP9 DUP4 DUP10 ADD PUSH2 0x3AF4 JUMP JUMPDEST SWAP1 SWAP7 POP SWAP5 POP PUSH1 0x20 DUP8 ADD CALLDATALOAD SWAP2 POP DUP1 DUP3 GT ISZERO PUSH2 0x3DD0 JUMPI PUSH1 0x0 DUP1 REVERT JUMPDEST POP PUSH2 0x3BCA DUP8 DUP3 DUP9 ADD PUSH2 0x3AF4 JUMP JUMPDEST PUSH4 0x4E487B71 PUSH1 0xE0 SHL PUSH1 0x0 MSTORE PUSH1 0x41 PUSH1 0x4 MSTORE PUSH1 0x24 PUSH1 0x0 REVERT JUMPDEST PUSH1 0x0 DUP1 PUSH1 0x40 DUP4 DUP6 SUB SLT ISZERO PUSH2 0x3E06 JUMPI PUSH1 0x0 DUP1 REVERT JUMPDEST DUP3 CALLDATALOAD PUSH1 0x1 PUSH1 0x1 PUSH1 0x40 SHL SUB DUP1 DUP3 GT ISZERO PUSH2 0x3E1D JUMPI PUSH1 0x0 DUP1 REVERT JUMPDEST DUP2 DUP6 ADD SWAP2 POP DUP6 PUSH1 0x1F DUP4 ADD SLT PUSH2 0x3E31 JUMPI PUSH1 0x0 DUP1 REVERT JUMPDEST DUP2 CALLDATALOAD DUP2 DUP2 GT ISZERO PUSH2 0x3E43 JUMPI PUSH2 0x3E43 PUSH2 0x3DDD JUMP JUMPDEST PUSH1 0x40 MLOAD PUSH1 0x1F DUP3 ADD PUSH1 0x1F NOT SWAP1 DUP2 AND PUSH1 0x3F ADD AND DUP2 ADD SWAP1 DUP4 DUP3 GT DUP2 DUP4 LT OR ISZERO PUSH2 0x3E6B JUMPI PUSH2 0x3E6B PUSH2 0x3DDD JUMP JUMPDEST DUP2 PUSH1 0x40 MSTORE DUP3 DUP2 MSTORE DUP9 PUSH1 0x20 DUP5 DUP8 ADD ADD GT ISZERO PUSH2 0x3E84 JUMPI PUSH1 0x0 DUP1 REVERT JUMPDEST DUP3 PUSH1 0x20 DUP7 ADD PUSH1 0x20 DUP4 ADD CALLDATACOPY PUSH1 0x0 PUSH1 0x20 SWAP4 DUP3 ADD DUP5 ADD MSTORE SWAP9 SWAP7 SWAP1 SWAP2 ADD CALLDATALOAD SWAP7 POP POP POP POP POP POP JUMP JUMPDEST PUSH1 0x20 DUP2 MSTORE PUSH2 0x3EC1 PUSH1 0x20 DUP3 ADD DUP4 MLOAD PUSH1 0x1 PUSH1 0x1 PUSH1 0xA0 SHL SUB AND SWAP1 MSTORE JUMP JUMPDEST PUSH1 0x0 PUSH1 0x20 DUP4 ADD MLOAD PUSH2 0x3EDD PUSH1 0x40 DUP5 ADD DUP3 PUSH1 0x1 PUSH1 0x1 PUSH1 0x60 SHL SUB AND SWAP1 MSTORE JUMP JUMPDEST POP PUSH1 0x40 DUP4 ADD MLOAD PUSH1 0x1 PUSH1 0x1 PUSH1 0x60 SHL SUB DUP2 AND PUSH1 0x60 DUP5 ADD MSTORE POP PUSH1 0x60 DUP4 ADD MLOAD PUSH1 0x1 PUSH1 0x1 PUSH1 0x80 SHL SUB DUP2 AND PUSH1 0x80 DUP5 ADD MSTORE POP PUSH1 0x80 DUP4 ADD MLOAD PUSH1 0x1 PUSH1 0x1 PUSH1 0x80 SHL SUB DUP2 AND PUSH1 0xA0 DUP5 ADD MSTORE POP PUSH1 0xA0 DUP4 ADD MLOAD PUSH1 0x1 PUSH1 0x1 PUSH1 0x40 SHL SUB DUP2 AND PUSH1 0xC0 DUP5 ADD MSTORE POP PUSH1 0xC0 DUP4 ADD MLOAD PUSH1 0xE0 DUP4 ADD MSTORE PUSH1 0xE0 DUP4 ADD MLOAD PUSH2 0x100 DUP2 DUP2 DUP6 ADD MSTORE DUP1 DUP6 ADD MLOAD SWAP2 POP POP PUSH2 0x140 PUSH2 0x120 DUP2 DUP2 DUP7 ADD MSTORE PUSH2 0x3F69 PUSH2 0x160 DUP7 ADD DUP5 PUSH2 0x3C71 JUMP JUMPDEST SWAP6 ADD MLOAD ISZERO ISZERO SWAP4 ADD SWAP3 SWAP1 SWAP3 MSTORE POP SWAP1 SWAP2 SWAP1 POP JUMP JUMPDEST PUSH1 0x0 DUP1 PUSH1 0x40 DUP4 DUP6 SUB SLT ISZERO PUSH2 0x3F8E JUMPI PUSH1 0x0 DUP1 REVERT JUMPDEST PUSH2 0x3F97 DUP4 PUSH2 0x3A8E JUMP JUMPDEST SWAP5 PUSH1 0x20 SWAP4 SWAP1 SWAP4 ADD CALLDATALOAD SWAP4 POP POP POP JUMP JUMPDEST PUSH1 0x0 DUP1 PUSH1 0x0 DUP1 PUSH1 0x0 PUSH1 0x80 DUP7 DUP9 SUB SLT ISZERO PUSH2 0x3FBD JUMPI PUSH1 0x0 DUP1 REVERT JUMPDEST PUSH2 0x3FC6 DUP7 PUSH2 0x3A8E JUMP JUMPDEST SWAP5 POP PUSH1 0x20 DUP7 ADD CALLDATALOAD SWAP4 POP PUSH1 0x40 DUP7 ADD CALLDATALOAD PUSH1 0x1 PUSH1 0x1 PUSH1 0x40 SHL SUB DUP2 GT ISZERO PUSH2 0x3FE8 JUMPI PUSH1 0x0 DUP1 REVERT JUMPDEST PUSH2 0x3FF4 DUP9 DUP3 DUP10 ADD PUSH2 0x3AF4 JUMP JUMPDEST SWAP7 SWAP10 SWAP6 SWAP9 POP SWAP7 PUSH1 0x60 ADD CALLDATALOAD SWAP5 SWAP4 POP POP POP POP JUMP JUMPDEST PUSH1 0x0 DUP1 PUSH1 0x0 DUP1 PUSH1 0x80 DUP6 DUP8 SUB SLT ISZERO PUSH2 0x401C JUMPI PUSH1 0x0 DUP1 REVERT JUMPDEST DUP5 CALLDATALOAD PUSH2 0x4027 DUP2 PUSH2 0x3D29 JUMP JUMPDEST SWAP4 POP PUSH1 0x20 DUP6 ADD CALLDATALOAD PUSH2 0x4037 DUP2 PUSH2 0x3D29 JUMP JUMPDEST SWAP3 POP PUSH2 0x4045 PUSH1 0x40 DUP7 ADD PUSH2 0x3BD6 JUMP JUMPDEST SWAP2 POP PUSH2 0x4053 PUSH1 0x60 DUP7 ADD PUSH2 0x3BD6 JUMP JUMPDEST SWAP1 POP SWAP3 SWAP6 SWAP2 SWAP5 POP SWAP3 POP JUMP JUMPDEST PUSH1 0x0 DUP1 PUSH1 0x0 DUP1 PUSH1 0x60 DUP6 DUP8 SUB SLT ISZERO PUSH2 0x4074 JUMPI PUSH1 0x0 DUP1 REVERT JUMPDEST DUP5 CALLDATALOAD PUSH1 0x1 PUSH1 0x1 PUSH1 0x40 SHL SUB DUP2 GT ISZERO PUSH2 0x408A JUMPI PUSH1 0x0 DUP1 REVERT JUMPDEST PUSH2 0x4096 DUP8 DUP3 DUP9 ADD PUSH2 0x3AF4 JUMP JUMPDEST SWAP1 SWAP6 POP SWAP4 POP POP PUSH1 0x20 DUP6 ADD CALLDATALOAD SWAP2 POP PUSH2 0x4053 PUSH1 0x40 DUP7 ADD PUSH2 0x3AAA JUMP JUMPDEST PUSH4 0x4E487B71 PUSH1 0xE0 SHL PUSH1 0x0 MSTORE PUSH1 0x32 PUSH1 0x4 MSTORE PUSH1 0x24 PUSH1 0x0 REVERT JUMPDEST PUSH4 0x4E487B71 PUSH1 0xE0 SHL PUSH1 0x0 MSTORE PUSH1 0x11 PUSH1 0x4 MSTORE PUSH1 0x24 PUSH1 0x0 REVERT JUMPDEST PUSH1 0x1 PUSH1 0x1 PUSH1 0x80 SHL SUB DUP3 DUP2 AND DUP3 DUP3 AND SUB SWAP1 DUP1 DUP3 GT ISZERO PUSH2 0x40FB JUMPI PUSH2 0x40FB PUSH2 0x40C5 JUMP JUMPDEST POP SWAP3 SWAP2 POP POP JUMP JUMPDEST PUSH1 0x0 PUSH1 0x20 DUP3 DUP5 SUB SLT ISZERO PUSH2 0x4114 JUMPI PUSH1 0x0 DUP1 REVERT JUMPDEST DUP2 MLOAD PUSH2 0x37AB DUP2 PUSH2 0x3D29 JUMP JUMPDEST PUSH1 0x20 DUP1 DUP3 MSTORE PUSH1 0x1A SWAP1 DUP3 ADD MSTORE PUSH32 0x436F6D6D69746D656E742063616E6E6F7420626520656D707479000000000000 PUSH1 0x40 DUP3 ADD MSTORE PUSH1 0x60 ADD SWAP1 JUMP JUMPDEST PUSH1 0x1 DUP2 DUP2 SHR SWAP1 DUP3 AND DUP1 PUSH2 0x416A JUMPI PUSH1 0x7F DUP3 AND SWAP2 POP JUMPDEST PUSH1 0x20 DUP3 LT DUP2 SUB PUSH2 0x418A JUMPI PUSH4 0x4E487B71 PUSH1 0xE0 SHL PUSH1 0x0 MSTORE PUSH1 0x22 PUSH1 0x4 MSTORE PUSH1 0x24 PUSH1 0x0 REVERT JUMPDEST POP SWAP2 SWAP1 POP JUMP JUMPDEST DUP4 DUP6 DUP3 CALLDATACOPY PUSH1 0x60 SWAP3 SWAP1 SWAP3 SHL PUSH1 0x1 PUSH1 0x1 PUSH1 0x60 SHL SUB NOT AND SWAP2 SWAP1 SWAP3 ADD SWAP1 DUP2 MSTORE PUSH1 0x14 DUP2 ADD SWAP2 SWAP1 SWAP2 MSTORE PUSH1 0x34 ADD SWAP2 SWAP1 POP JUMP JUMPDEST PUSH1 0x1F DUP3 GT ISZERO PUSH2 0xD3E JUMPI PUSH1 0x0 DUP2 DUP2 MSTORE PUSH1 0x20 DUP2 KECCAK256 PUSH1 0x1F DUP6 ADD PUSH1 0x5 SHR DUP2 ADD PUSH1 0x20 DUP7 LT ISZERO PUSH2 0x41E2 JUMPI POP DUP1 JUMPDEST PUSH1 0x1F DUP6 ADD PUSH1 0x5 SHR DUP3 ADD SWAP2 POP JUMPDEST DUP2 DUP2 LT ISZERO PUSH2 0x4201 JUMPI DUP3 DUP2 SSTORE PUSH1 0x1 ADD PUSH2 0x41EE JUMP JUMPDEST POP POP POP POP POP POP JUMP JUMPDEST PUSH1 0x1 PUSH1 0x1 PUSH1 0x40 SHL SUB DUP4 GT ISZERO PUSH2 0x4220 JUMPI PUSH2 0x4220 PUSH2 0x3DDD JUMP JUMPDEST PUSH2 0x4234 DUP4 PUSH2 0x422E DUP4 SLOAD PUSH2 0x4156 JUMP JUMPDEST DUP4 PUSH2 0x41BB JUMP JUMPDEST PUSH1 0x0 PUSH1 0x1F DUP5 GT PUSH1 0x1 DUP2 EQ PUSH2 0x4268 JUMPI PUSH1 0x0 DUP6 ISZERO PUSH2 0x4250 JUMPI POP DUP4 DUP3 ADD CALLDATALOAD JUMPDEST PUSH1 0x0 NOT PUSH1 0x3 DUP8 SWAP1 SHL SHR NOT AND PUSH1 0x1 DUP7 SWAP1 SHL OR DUP4 SSTORE PUSH2 0x42C2 JUMP JUMPDEST PUSH1 0x0 DUP4 DUP2 MSTORE PUSH1 0x20 SWAP1 KECCAK256 PUSH1 0x1F NOT DUP7 AND SWAP1 DUP4 JUMPDEST DUP3 DUP2 LT ISZERO PUSH2 0x4299 JUMPI DUP7 DUP6 ADD CALLDATALOAD DUP3 SSTORE PUSH1 0x20 SWAP5 DUP6 ADD SWAP5 PUSH1 0x1 SWAP1 SWAP3 ADD SWAP2 ADD PUSH2 0x4279 JUMP JUMPDEST POP DUP7 DUP3 LT ISZERO PUSH2 0x42B6 JUMPI PUSH1 0x0 NOT PUSH1 0xF8 DUP9 PUSH1 0x3 SHL AND SHR NOT DUP5 DUP8 ADD CALLDATALOAD AND DUP2 SSTORE JUMPDEST POP POP PUSH1 0x1 DUP6 PUSH1 0x1 SHL ADD DUP4 SSTORE JUMPDEST POP POP POP POP POP JUMP JUMPDEST DUP2 DUP4 MSTORE DUP2 DUP2 PUSH1 0x20 DUP6 ADD CALLDATACOPY POP PUSH1 0x0 DUP3 DUP3 ADD PUSH1 0x20 SWAP1 DUP2 ADD SWAP2 SWAP1 SWAP2 MSTORE PUSH1 0x1F SWAP1 SWAP2 ADD PUSH1 0x1F NOT AND SWAP1 SWAP2 ADD ADD SWAP1 JUMP JUMPDEST PUSH1 0x80 DUP2 MSTORE PUSH1 0x0 PUSH2 0x4305 PUSH1 0x80 DUP4 ADD DUP9 PUSH2 0x3C71 JUMP JUMPDEST DUP3 DUP2 SUB PUSH1 0x20 DUP5 ADD MSTORE PUSH2 0x4318 DUP2 DUP8 DUP10 PUSH2 0x42C9 JUMP JUMPDEST SWAP2 POP POP DUP4 PUSH1 0x40 DUP4 ADD MSTORE PUSH1 0x1 PUSH1 0x1 PUSH1 0x60 SHL SUB DUP4 AND PUSH1 0x60 DUP4 ADD MSTORE SWAP7 SWAP6 POP POP POP POP POP POP JUMP JUMPDEST PUSH1 0x0 PUSH1 0x1 DUP3 ADD PUSH2 0x434C JUMPI PUSH2 0x434C PUSH2 0x40C5 JUMP JUMPDEST POP PUSH1 0x1 ADD SWAP1 JUMP JUMPDEST PUSH1 0x1 PUSH1 0x1 PUSH1 0x60 SHL SUB NOT DUP8 PUSH1 0x60 SHL AND DUP2 MSTORE DUP6 PUSH1 0x14 DUP3 ADD MSTORE DUP4 DUP6 PUSH1 0x34 DUP4 ADD CALLDATACOPY PUSH1 0x34 SWAP4 ADD SWAP3 DUP4 ADD SWAP2 SWAP1 SWAP2 MSTORE PUSH1 0x54 DUP3 ADD MSTORE PUSH1 0x74 ADD SWAP4 SWAP3 POP POP POP JUMP JUMPDEST DUP1 DUP3 ADD DUP1 DUP3 GT ISZERO PUSH2 0x2139 JUMPI PUSH2 0x2139 PUSH2 0x40C5 JUMP JUMPDEST DUP5 DUP2 MSTORE PUSH1 0x60 PUSH1 0x20 DUP3 ADD MSTORE PUSH1 0x0 PUSH2 0x43B7 PUSH1 0x60 DUP4 ADD DUP6 DUP8 PUSH2 0x42C9 JUMP JUMPDEST SWAP1 POP DUP3 PUSH1 0x40 DUP4 ADD MSTORE SWAP6 SWAP5 POP POP POP POP POP JUMP JUMPDEST DUP2 DUP2 SUB DUP2 DUP2 GT ISZERO PUSH2 0x2139 JUMPI PUSH2 0x2139 PUSH2 0x40C5 JUMP JUMPDEST PUSH1 0x0 DUP2 PUSH2 0x43EA JUMPI PUSH2 0x43EA PUSH2 0x40C5 JUMP JUMPDEST POP PUSH1 0x0 NOT ADD SWAP1 JUMP JUMPDEST PUSH1 0x20 DUP2 MSTORE PUSH1 0x0 PUSH2 0x4406 PUSH1 0x20 DUP4 ADD DUP5 DUP7 PUSH2 0x42C9 JUMP JUMPDEST SWAP5 SWAP4 POP POP POP POP JUMP JUMPDEST DUP1 DUP3 MUL DUP2 ISZERO DUP3 DUP3 DIV DUP5 EQ OR PUSH2 0x2139 JUMPI PUSH2 0x2139 PUSH2 0x40C5 JUMP JUMPDEST PUSH4 0x4E487B71 PUSH1 0xE0 SHL PUSH1 0x0 MSTORE PUSH1 0x12 PUSH1 0x4 MSTORE PUSH1 0x24 PUSH1 0x0 REVERT JUMPDEST PUSH1 0x0 DUP3 PUSH2 0x444A JUMPI PUSH2 0x444A PUSH2 0x4425 JUMP JUMPDEST POP DIV SWAP1 JUMP JUMPDEST PUSH1 0x0 PUSH1 0x1 PUSH1 0x1 PUSH1 0x60 SHL SUB DUP1 DUP4 AND DUP2 DUP2 SUB PUSH2 0x446B JUMPI PUSH2 0x446B PUSH2 0x40C5 JUMP JUMPDEST PUSH1 0x1 ADD SWAP4 SWAP3 POP POP POP JUMP JUMPDEST DUP2 MLOAD PUSH1 0x1 PUSH1 0x1 PUSH1 0x40 SHL SUB DUP2 GT ISZERO PUSH2 0x448E JUMPI PUSH2 0x448E PUSH2 0x3DDD JUMP JUMPDEST PUSH2 0x44A2 DUP2 PUSH2 0x449C DUP5 SLOAD PUSH2 0x4156 JUMP JUMPDEST DUP5 PUSH2 0x41BB JUMP JUMPDEST PUSH1 0x20 DUP1 PUSH1 0x1F DUP4 GT PUSH1 0x1 DUP2 EQ PUSH2 0x44D7 JUMPI PUSH1 0x0 DUP5 ISZERO PUSH2 0x44BF JUMPI POP DUP6 DUP4 ADD MLOAD JUMPDEST PUSH1 0x0 NOT PUSH1 0x3 DUP7 SWAP1 SHL SHR NOT AND PUSH1 0x1 DUP6 SWAP1 SHL OR DUP6 SSTORE PUSH2 0x4201 JUMP JUMPDEST PUSH1 0x0 DUP6 DUP2 MSTORE PUSH1 0x20 DUP2 KECCAK256 PUSH1 0x1F NOT DUP7 AND SWAP2 JUMPDEST DUP3 DUP2 LT ISZERO PUSH2 0x4506 JUMPI DUP9 DUP7 ADD MLOAD DUP3 SSTORE SWAP5 DUP5 ADD SWAP5 PUSH1 0x1 SWAP1 SWAP2 ADD SWAP1 DUP5 ADD PUSH2 0x44E7 JUMP JUMPDEST POP DUP6 DUP3 LT ISZERO PUSH2 0x4524 JUMPI DUP8 DUP6 ADD MLOAD PUSH1 0x0 NOT PUSH1 0x3 DUP9 SWAP1 SHL PUSH1 0xF8 AND SHR NOT AND DUP2 SSTORE JUMPDEST POP POP POP POP POP PUSH1 0x1 SWAP1 DUP2 SHL ADD SWAP1 SSTORE POP JUMP JUMPDEST PUSH1 0x0 PUSH2 0x120 PUSH1 0x1 PUSH1 0x1 PUSH1 0x40 SHL SUB DUP15 AND DUP4 MSTORE DUP13 PUSH1 0x20 DUP5 ADD MSTORE DUP1 PUSH1 0x40 DUP5 ADD MSTORE PUSH2 0x455E DUP2 DUP5 ADD DUP13 DUP15 PUSH2 0x42C9 JUMP JUMPDEST PUSH1 0x1 PUSH1 0x1 PUSH1 0x80 SHL SUB DUP12 DUP2 AND PUSH1 0x60 DUP7 ADD MSTORE DUP11 AND PUSH1 0x80 DUP6 ADD MSTORE DUP4 DUP2 SUB PUSH1 0xA0 DUP6 ADD MSTORE SWAP1 POP PUSH2 0x458A DUP2 DUP9 DUP11 PUSH2 0x42C9 JUMP JUMPDEST PUSH1 0x1 PUSH1 0x1 PUSH1 0x60 SHL SUB SWAP7 DUP8 AND PUSH1 0xC0 DUP6 ADD MSTORE SWAP5 SWAP1 SWAP6 AND PUSH1 0xE0 DUP4 ADD MSTORE POP SWAP1 ISZERO ISZERO PUSH2 0x100 SWAP1 SWAP2 ADD MSTORE SWAP10 SWAP9 POP POP POP POP POP POP POP POP POP JUMP JUMPDEST DUP2 DUP4 DUP3 CALLDATACOPY PUSH1 0x0 SWAP2 ADD SWAP1 DUP2 MSTORE SWAP2 SWAP1 POP JUMP JUMPDEST PUSH1 0x0 DUP3 MLOAD PUSH2 0x45DD DUP2 DUP5 PUSH1 0x20 DUP8 ADD PUSH2 0x3C4D JUMP JUMPDEST SWAP2 SWAP1 SWAP2 ADD SWAP3 SWAP2 POP POP JUMP JUMPDEST DUP4 DUP2 MSTORE PUSH1 0x40 PUSH1 0x20 DUP3 ADD MSTORE PUSH1 0x0 PUSH2 0x4601 PUSH1 0x40 DUP4 ADD DUP5 DUP7 PUSH2 0x42C9 JUMP JUMPDEST SWAP6 SWAP5 POP POP POP POP POP JUMP JUMPDEST PUSH1 0x1 PUSH1 0x1 PUSH1 0x60 SHL SUB DUP2 DUP2 AND DUP4 DUP3 AND ADD SWAP1 DUP1 DUP3 GT ISZERO PUSH2 0x40FB JUMPI PUSH2 0x40FB PUSH2 0x40C5 JUMP JUMPDEST PUSH1 0x0 PUSH1 0x20 DUP3 DUP5 SUB SLT ISZERO PUSH2 0x463C JUMPI PUSH1 0x0 DUP1 REVERT JUMPDEST POP MLOAD SWAP2 SWAP1 POP JUMP JUMPDEST PUSH1 0x0 PUSH2 0x120 PUSH1 0x1 PUSH1 0x1 PUSH1 0x40 SHL SUB DUP14 AND DUP4 MSTORE DUP12 PUSH1 0x20 DUP5 ADD MSTORE DUP1 PUSH1 0x40 DUP5 ADD MSTORE PUSH2 0x466C DUP2 DUP5 ADD DUP13 PUSH2 0x3C71 JUMP JUMPDEST PUSH1 0x1 PUSH1 0x1 PUSH1 0x80 SHL SUB DUP12 DUP2 AND PUSH1 0x60 DUP7 ADD MSTORE DUP11 AND PUSH1 0x80 DUP6 ADD MSTORE DUP4 DUP2 SUB PUSH1 0xA0 DUP6 ADD MSTORE SWAP1 POP PUSH2 0x4698 DUP2 DUP9 DUP11 PUSH2 0x42C9 JUMP JUMPDEST PUSH1 0x1 PUSH1 0x1 PUSH1 0x60 SHL SUB SWAP7 DUP8 AND PUSH1 0xC0 DUP6 ADD MSTORE SWAP5 SWAP1 SWAP6 AND PUSH1 0xE0 DUP4 ADD MSTORE POP SWAP1 ISZERO ISZERO PUSH2 0x100 SWAP1 SWAP2 ADD MSTORE SWAP9 SWAP8 POP POP POP POP POP POP POP POP JUMP JUMPDEST PUSH1 0x0 PUSH1 0xFF DUP3 AND PUSH1 0xFF DUP2 SUB PUSH2 0x46DE JUMPI PUSH2 0x46DE PUSH2 0x40C5 JUMP JUMPDEST PUSH1 0x1 ADD SWAP3 SWAP2 POP POP JUMP JUMPDEST PUSH1 0x0 PUSH1 0x1 PUSH1 0x1 PUSH1 0x80 SHL SUB DUP1 DUP5 AND DUP1 PUSH2 0x4701 JUMPI PUSH2 0x4701 PUSH2 0x4425 JUMP JUMPDEST SWAP3 AND SWAP2 SWAP1 SWAP2 DIV SWAP3 SWAP2 POP POP JUMP JUMPDEST PUSH1 0x1 PUSH1 0x1 PUSH1 0x80 SHL SUB DUP2 DUP2 AND DUP4 DUP3 AND ADD SWAP1 DUP1 DUP3 GT ISZERO PUSH2 0x40FB JUMPI PUSH2 0x40FB PUSH2 0x40C5 JUMP INVALID LOG2 PUSH5 0x6970667358 0x22 SLT KECCAK256 EXP EXTCODEHASH BASEFEE CALLDATACOPY ISZERO MSTORE BALANCE 0x22 DUP11 0xC2 0xA6 0xDD BALANCE 0x27 RETURNDATASIZE DUP3 0xEB 0xD1 PREVRANDAO 0xE9 PUSH1 0xFE GASPRICE DUP9 PREVRANDAO BASEFEE 0xDD DUP1 0xB2 SLOAD CALLDATACOPY DUP2 PUSH5 0x736F6C6343 STOP ADDMOD SGT STOP CALLER "},"methodIdentifiers":{"MAX_PLEDGE_AMOUNT()":"1dcbac96","PLEDGE_FEE()":"d1dd53b8","TIMELOCK_PERIOD()":"4a5bcbf8","adjustConvergencePeriod(uint96,uint96)":"31894350","allowPledgeRevocations()":"4e730243","allowPledgeUpdates()":"79521ade","cancelTransaction(address,uint256,string,uint256)":"97272d75","communityPool()":"14d140b0","convergenceEnd()":"f10e131f","convergenceOnly()":"9eb97c1c","convergencePeriodIndex(uint96)":"13bfca82","convergencePeriods(uint256)":"24c8435f","convergenceStart()":"6b0cf645","createPledge(string,bytes32,uint128)":"cb4299f3","createSponsoredPledge(string,string)":"816a33ed","emergencyPause(string)":"cf5b4fd5","emergencyUnpause(string)":"5ddfcba8","emergencyWithdraw(address,uint256)":"95ccea67","executeTransaction(address,uint256,string,uint256)":"d1c82269","fidHasPledgedInPeriod(string,uint256)":"860dcedb","getAdminControls()":"64f387e0","getCommunityPool()":"382d823c","getConvergencePeriod(uint256)":"04d377a3","getConvergencePeriodCount()":"1c7e2426","getCurrentConvergencePeriodIndex()":"52c8dfd6","getCurrentSolarAge(address)":"8a95d8bc","getMetrics()":"7606f781","getPayItForwardBalance()":"43f50e14","getPledge(address)":"90769e0e","getSponsorshipCapacity()":"b3cfe758","hasBirthDate(address)":"4ee8945a","hasPledge(address)":"783f1615","hasPledgedInPeriod(address,uint256)":"998c1d55","maxPledgeAmount()":"820dc01e","minPledgeAmount()":"ec555e91","owner()":"8da5cb5b","paused()":"5c975abb","payItForwardPool()":"b1b0791e","pledges(address)":"343576f5","queueTransaction(address,uint256,string)":"12825a0f","queuedTransactions(bytes32)":"f2b06537","renounceOwnership()":"715018a6","revokePledge()":"f2d6fe39","setAdminControls(bool,bool,uint96,uint96)":"9cd5e7dc","setBirthDate(uint96)":"682917b6","setConvergencePeriod(uint96,uint96,bool)":"4be6c548","subsidizedUsers(address)":"7987e5a1","timelockNonce()":"3d7d82f0","totalPledges()":"9f3d391e","transferCommunityPool(address,uint128)":"06ea4ddb","transferOwnership(address)":"f2fde38b","treasuryAddress()":"c5f956af","updateCommitment(string)":"0af3bec2","updateTreasuryAddress(address)":"841e4561","usdcToken()":"11eac855","userBirthTimestamp(address)":"26c1246f","wasUserSponsored(address)":"bd330ca6"}}}}}