{
  "_format": "hh-sol-artifact-1",
  "contractName": "SolarStaking",
  "sourceName": "contracts/deployment/SolarStaking.sol",
  "abi": [
    {
      "inputs": [],
      "stateMutability": "nonpayable",
      "type": "constructor"
    },
    {
      "inputs": [],
      "name": "EnforcedPause",
      "type": "error"
    },
    {
      "inputs": [],
      "name": "ExpectedPause",
      "type": "error"
    },
    {
      "inputs": [
        {
          "internalType": "address",
          "name": "owner",
          "type": "address"
        }
      ],
      "name": "OwnableInvalidOwner",
      "type": "error"
    },
    {
      "inputs": [
        {
          "internalType": "address",
          "name": "account",
          "type": "address"
        }
      ],
      "name": "OwnableUnauthorizedAccount",
      "type": "error"
    },
    {
      "inputs": [],
      "name": "ReentrancyGuardReentrantCall",
      "type": "error"
    },
    {
      "anonymous": false,
      "inputs": [
        {
          "indexed": false,
          "internalType": "bool",
          "name": "enabled",
          "type": "bool"
        }
      ],
      "name": "EmergencyWithdrawToggled",
      "type": "event"
    },
    {
      "anonymous": false,
      "inputs": [
        {
          "indexed": false,
          "internalType": "uint256",
          "name": "newMonthlyEmission",
          "type": "uint256"
        }
      ],
      "name": "EmissionUpdated",
      "type": "event"
    },
    {
      "anonymous": false,
      "inputs": [
        {
          "indexed": true,
          "internalType": "address",
          "name": "previousOwner",
          "type": "address"
        },
        {
          "indexed": true,
          "internalType": "address",
          "name": "newOwner",
          "type": "address"
        }
      ],
      "name": "OwnershipTransferred",
      "type": "event"
    },
    {
      "anonymous": false,
      "inputs": [
        {
          "indexed": false,
          "internalType": "address",
          "name": "account",
          "type": "address"
        }
      ],
      "name": "Paused",
      "type": "event"
    },
    {
      "anonymous": false,
      "inputs": [
        {
          "indexed": false,
          "internalType": "uint256",
          "name": "amount",
          "type": "uint256"
        }
      ],
      "name": "RewardPoolFunded",
      "type": "event"
    },
    {
      "anonymous": false,
      "inputs": [
        {
          "indexed": true,
          "internalType": "address",
          "name": "user",
          "type": "address"
        },
        {
          "indexed": false,
          "internalType": "uint256",
          "name": "amount",
          "type": "uint256"
        }
      ],
      "name": "RewardsClaimed",
      "type": "event"
    },
    {
      "anonymous": false,
      "inputs": [
        {
          "indexed": true,
          "internalType": "address",
          "name": "user",
          "type": "address"
        },
        {
          "indexed": false,
          "internalType": "uint256",
          "name": "amount",
          "type": "uint256"
        },
        {
          "indexed": false,
          "internalType": "uint256",
          "name": "tier",
          "type": "uint256"
        }
      ],
      "name": "Staked",
      "type": "event"
    },
    {
      "anonymous": false,
      "inputs": [
        {
          "indexed": false,
          "internalType": "uint256",
          "name": "tierId",
          "type": "uint256"
        },
        {
          "indexed": false,
          "internalType": "uint256",
          "name": "minimumStake",
          "type": "uint256"
        },
        {
          "indexed": false,
          "internalType": "uint256",
          "name": "multiplier",
          "type": "uint256"
        },
        {
          "indexed": false,
          "internalType": "string",
          "name": "name",
          "type": "string"
        }
      ],
      "name": "TierUpdated",
      "type": "event"
    },
    {
      "anonymous": false,
      "inputs": [
        {
          "indexed": false,
          "internalType": "address",
          "name": "account",
          "type": "address"
        }
      ],
      "name": "Unpaused",
      "type": "event"
    },
    {
      "anonymous": false,
      "inputs": [
        {
          "indexed": true,
          "internalType": "address",
          "name": "user",
          "type": "address"
        },
        {
          "indexed": false,
          "internalType": "uint256",
          "name": "amount",
          "type": "uint256"
        }
      ],
      "name": "Unstaked",
      "type": "event"
    },
    {
      "inputs": [],
      "name": "EMISSION_REDUCTION_RATE",
      "outputs": [
        {
          "internalType": "uint256",
          "name": "",
          "type": "uint256"
        }
      ],
      "stateMutability": "view",
      "type": "function"
    },
    {
      "inputs": [],
      "name": "INITIAL_MONTHLY_EMISSION",
      "outputs": [
        {
          "internalType": "uint256",
          "name": "",
          "type": "uint256"
        }
      ],
      "stateMutability": "view",
      "type": "function"
    },
    {
      "inputs": [],
      "name": "SECONDS_PER_MONTH",
      "outputs": [
        {
          "internalType": "uint256",
          "name": "",
          "type": "uint256"
        }
      ],
      "stateMutability": "view",
      "type": "function"
    },
    {
      "inputs": [],
      "name": "SOLAR_TOKEN",
      "outputs": [
        {
          "internalType": "contract IERC20",
          "name": "",
          "type": "address"
        }
      ],
      "stateMutability": "view",
      "type": "function"
    },
    {
      "inputs": [
        {
          "internalType": "uint256",
          "name": "minimumStake",
          "type": "uint256"
        },
        {
          "internalType": "uint256",
          "name": "multiplier",
          "type": "uint256"
        },
        {
          "internalType": "string",
          "name": "name",
          "type": "string"
        }
      ],
      "name": "addTier",
      "outputs": [],
      "stateMutability": "nonpayable",
      "type": "function"
    },
    {
      "inputs": [
        {
          "internalType": "address",
          "name": "user",
          "type": "address"
        }
      ],
      "name": "calculatePendingRewards",
      "outputs": [
        {
          "internalType": "uint256",
          "name": "rewards",
          "type": "uint256"
        }
      ],
      "stateMutability": "view",
      "type": "function"
    },
    {
      "inputs": [
        {
          "internalType": "uint256",
          "name": "stakedAmount",
          "type": "uint256"
        }
      ],
      "name": "calculateUserTier",
      "outputs": [
        {
          "internalType": "uint256",
          "name": "tier",
          "type": "uint256"
        }
      ],
      "stateMutability": "view",
      "type": "function"
    },
    {
      "inputs": [],
      "name": "claimRewards",
      "outputs": [],
      "stateMutability": "nonpayable",
      "type": "function"
    },
    {
      "inputs": [],
      "name": "currentMonthlyEmission",
      "outputs": [
        {
          "internalType": "uint256",
          "name": "",
          "type": "uint256"
        }
      ],
      "stateMutability": "view",
      "type": "function"
    },
    {
      "inputs": [],
      "name": "emergencyUnstake",
      "outputs": [],
      "stateMutability": "nonpayable",
      "type": "function"
    },
    {
      "inputs": [
        {
          "internalType": "address",
          "name": "token",
          "type": "address"
        },
        {
          "internalType": "uint256",
          "name": "amount",
          "type": "uint256"
        }
      ],
      "name": "emergencyWithdraw",
      "outputs": [],
      "stateMutability": "nonpayable",
      "type": "function"
    },
    {
      "inputs": [],
      "name": "emergencyWithdrawEnabled",
      "outputs": [
        {
          "internalType": "bool",
          "name": "",
          "type": "bool"
        }
      ],
      "stateMutability": "view",
      "type": "function"
    },
    {
      "inputs": [],
      "name": "emissionStartTime",
      "outputs": [
        {
          "internalType": "uint256",
          "name": "",
          "type": "uint256"
        }
      ],
      "stateMutability": "view",
      "type": "function"
    },
    {
      "inputs": [],
      "name": "forceEmissionUpdate",
      "outputs": [],
      "stateMutability": "nonpayable",
      "type": "function"
    },
    {
      "inputs": [
        {
          "internalType": "uint256",
          "name": "amount",
          "type": "uint256"
        }
      ],
      "name": "fundRewardPool",
      "outputs": [],
      "stateMutability": "nonpayable",
      "type": "function"
    },
    {
      "inputs": [],
      "name": "getAllTiers",
      "outputs": [
        {
          "internalType": "uint256[]",
          "name": "tierIds",
          "type": "uint256[]"
        },
        {
          "internalType": "uint256[]",
          "name": "minimumStakes",
          "type": "uint256[]"
        },
        {
          "internalType": "uint256[]",
          "name": "multipliers",
          "type": "uint256[]"
        },
        {
          "internalType": "string[]",
          "name": "names",
          "type": "string[]"
        },
        {
          "internalType": "bool[]",
          "name": "activeStatus",
          "type": "bool[]"
        }
      ],
      "stateMutability": "view",
      "type": "function"
    },
    {
      "inputs": [
        {
          "internalType": "uint256",
          "name": "tierId",
          "type": "uint256"
        }
      ],
      "name": "getEstimatedAPY",
      "outputs": [
        {
          "internalType": "uint256",
          "name": "apy",
          "type": "uint256"
        }
      ],
      "stateMutability": "view",
      "type": "function"
    },
    {
      "inputs": [],
      "name": "getMonthsSinceStart",
      "outputs": [
        {
          "internalType": "uint256",
          "name": "months",
          "type": "uint256"
        }
      ],
      "stateMutability": "view",
      "type": "function"
    },
    {
      "inputs": [],
      "name": "getStakingStats",
      "outputs": [
        {
          "internalType": "uint256",
          "name": "totalStakedAmount",
          "type": "uint256"
        },
        {
          "internalType": "uint256",
          "name": "totalUsers",
          "type": "uint256"
        },
        {
          "internalType": "uint256",
          "name": "totalDistributed",
          "type": "uint256"
        },
        {
          "internalType": "uint256",
          "name": "currentEmission",
          "type": "uint256"
        },
        {
          "internalType": "uint256",
          "name": "poolBalance",
          "type": "uint256"
        }
      ],
      "stateMutability": "view",
      "type": "function"
    },
    {
      "inputs": [
        {
          "internalType": "address",
          "name": "user",
          "type": "address"
        }
      ],
      "name": "getUserStakeInfo",
      "outputs": [
        {
          "internalType": "uint256",
          "name": "amount",
          "type": "uint256"
        },
        {
          "internalType": "uint256",
          "name": "tier",
          "type": "uint256"
        },
        {
          "internalType": "uint256",
          "name": "stakeTime",
          "type": "uint256"
        },
        {
          "internalType": "uint256",
          "name": "pendingRewards",
          "type": "uint256"
        },
        {
          "internalType": "uint256",
          "name": "totalClaimed",
          "type": "uint256"
        }
      ],
      "stateMutability": "view",
      "type": "function"
    },
    {
      "inputs": [],
      "name": "lastEmissionUpdate",
      "outputs": [
        {
          "internalType": "uint256",
          "name": "",
          "type": "uint256"
        }
      ],
      "stateMutability": "view",
      "type": "function"
    },
    {
      "inputs": [],
      "name": "lastRewardCalculation",
      "outputs": [
        {
          "internalType": "uint256",
          "name": "",
          "type": "uint256"
        }
      ],
      "stateMutability": "view",
      "type": "function"
    },
    {
      "inputs": [],
      "name": "needsEmissionUpdate",
      "outputs": [
        {
          "internalType": "bool",
          "name": "needed",
          "type": "bool"
        }
      ],
      "stateMutability": "view",
      "type": "function"
    },
    {
      "inputs": [],
      "name": "owner",
      "outputs": [
        {
          "internalType": "address",
          "name": "",
          "type": "address"
        }
      ],
      "stateMutability": "view",
      "type": "function"
    },
    {
      "inputs": [],
      "name": "pause",
      "outputs": [],
      "stateMutability": "nonpayable",
      "type": "function"
    },
    {
      "inputs": [],
      "name": "paused",
      "outputs": [
        {
          "internalType": "bool",
          "name": "",
          "type": "bool"
        }
      ],
      "stateMutability": "view",
      "type": "function"
    },
    {
      "inputs": [],
      "name": "renounceOwnership",
      "outputs": [],
      "stateMutability": "nonpayable",
      "type": "function"
    },
    {
      "inputs": [],
      "name": "rewardPool",
      "outputs": [
        {
          "internalType": "uint256",
          "name": "",
          "type": "uint256"
        }
      ],
      "stateMutability": "view",
      "type": "function"
    },
    {
      "inputs": [
        {
          "internalType": "bool",
          "name": "enabled",
          "type": "bool"
        }
      ],
      "name": "setEmergencyWithdraw",
      "outputs": [],
      "stateMutability": "nonpayable",
      "type": "function"
    },
    {
      "inputs": [
        {
          "internalType": "uint256",
          "name": "amount",
          "type": "uint256"
        }
      ],
      "name": "stake",
      "outputs": [],
      "stateMutability": "nonpayable",
      "type": "function"
    },
    {
      "inputs": [
        {
          "internalType": "uint256",
          "name": "",
          "type": "uint256"
        }
      ],
      "name": "stakingTiers",
      "outputs": [
        {
          "internalType": "uint256",
          "name": "minimumStake",
          "type": "uint256"
        },
        {
          "internalType": "uint256",
          "name": "multiplier",
          "type": "uint256"
        },
        {
          "internalType": "string",
          "name": "name",
          "type": "string"
        },
        {
          "internalType": "bool",
          "name": "active",
          "type": "bool"
        }
      ],
      "stateMutability": "view",
      "type": "function"
    },
    {
      "inputs": [],
      "name": "totalRewardsDistributed",
      "outputs": [
        {
          "internalType": "uint256",
          "name": "",
          "type": "uint256"
        }
      ],
      "stateMutability": "view",
      "type": "function"
    },
    {
      "inputs": [],
      "name": "totalStaked",
      "outputs": [
        {
          "internalType": "uint256",
          "name": "",
          "type": "uint256"
        }
      ],
      "stateMutability": "view",
      "type": "function"
    },
    {
      "inputs": [],
      "name": "totalStakers",
      "outputs": [
        {
          "internalType": "uint256",
          "name": "",
          "type": "uint256"
        }
      ],
      "stateMutability": "view",
      "type": "function"
    },
    {
      "inputs": [],
      "name": "totalTiers",
      "outputs": [
        {
          "internalType": "uint256",
          "name": "",
          "type": "uint256"
        }
      ],
      "stateMutability": "view",
      "type": "function"
    },
    {
      "inputs": [
        {
          "internalType": "address",
          "name": "newOwner",
          "type": "address"
        }
      ],
      "name": "transferOwnership",
      "outputs": [],
      "stateMutability": "nonpayable",
      "type": "function"
    },
    {
      "inputs": [],
      "name": "unpause",
      "outputs": [],
      "stateMutability": "nonpayable",
      "type": "function"
    },
    {
      "inputs": [
        {
          "internalType": "uint256",
          "name": "amount",
          "type": "uint256"
        }
      ],
      "name": "unstake",
      "outputs": [],
      "stateMutability": "nonpayable",
      "type": "function"
    },
    {
      "inputs": [],
      "name": "updateEmissions",
      "outputs": [],
      "stateMutability": "nonpayable",
      "type": "function"
    },
    {
      "inputs": [],
      "name": "updateRewards",
      "outputs": [],
      "stateMutability": "nonpayable",
      "type": "function"
    },
    {
      "inputs": [
        {
          "internalType": "uint256",
          "name": "tierId",
          "type": "uint256"
        },
        {
          "internalType": "uint256",
          "name": "minimumStake",
          "type": "uint256"
        },
        {
          "internalType": "uint256",
          "name": "multiplier",
          "type": "uint256"
        },
        {
          "internalType": "string",
          "name": "name",
          "type": "string"
        },
        {
          "internalType": "bool",
          "name": "active",
          "type": "bool"
        }
      ],
      "name": "updateTier",
      "outputs": [],
      "stateMutability": "nonpayable",
      "type": "function"
    },
    {
      "inputs": [
        {
          "internalType": "address",
          "name": "",
          "type": "address"
        }
      ],
      "name": "userStakes",
      "outputs": [
        {
          "internalType": "uint256",
          "name": "amount",
          "type": "uint256"
        },
        {
          "internalType": "uint256",
          "name": "tier",
          "type": "uint256"
        },
        {
          "internalType": "uint256",
          "name": "stakeTime",
          "type": "uint256"
        },
        {
          "internalType": "uint256",
          "name": "lastClaimTime",
          "type": "uint256"
        },
        {
          "internalType": "uint256",
          "name": "totalClaimed",
          "type": "uint256"
        }
      ],
      "stateMutability": "view",
      "type": "function"
    }
  ],
  "bytecode": "0x60806040523480156200001157600080fd5b50600160005533806200003e57604051631e4fbdf760e01b81526000600482015260240160405180910390fd5b620000498162000422565b50604080516080810182526a084595161401484a0000008152612710602080830191825283518085018552600681526542726f6e7a6560d01b818301529383019384526001606084018190526000526002905281517fe90b7bceb6e7df5418fb78d8ee546e97c83a08bbccc01a0644d599ccd2a7c2e090815590517fe90b7bceb6e7df5418fb78d8ee546e97c83a08bbccc01a0644d599ccd2a7c2e15591519091907fe90b7bceb6e7df5418fb78d8ee546e97c83a08bbccc01a0644d599ccd2a7c2e29062000119908262000519565b50606091820151600391909101805460ff1916911515919091179055604080516080810182526a52b7d2dcc80cd2e40000008152613a98602080830191825283518085018552600681526529b4b63b32b960d11b818301529383019384526001948301949094526002600081905290935280517f679795a0195a1b76cdebb7c51d74e058aee92919b8c3389af86ef24535e8a28c90815592517f679795a0195a1b76cdebb7c51d74e058aee92919b8c3389af86ef24535e8a28d5590519091907f679795a0195a1b76cdebb7c51d74e058aee92919b8c3389af86ef24535e8a28e9062000207908262000519565b506060918201516003918201805460ff1916911515919091179055604080516080810182526b019d971e4fe8401e740000008152614e20602080830191825283518085018552600481526311dbdb1960e21b81830152938301938452600195830195909552600093909352600290935282517f88601476d11616a71c5be67555bd1dff4b1cbf21533d2669b768b61518cfe1c390815591517f88601476d11616a71c5be67555bd1dff4b1cbf21533d2669b768b61518cfe1c455517f88601476d11616a71c5be67555bd1dff4b1cbf21533d2669b768b61518cfe1c590620002f0908262000519565b50606091820151600391909101805460ff1916911515919091179055604080516080810182526b033b2e3c9fd0803ce800000081526175306020808301918252835180850185526007815266111a585b5bdb9960ca1b818301529383019384526001948301949094526004600052600290935280517fee60d0579bcffd98e668647d59fec1ff86a7fb340ce572e844f234ae73a6918f90815592517fee60d0579bcffd98e668647d59fec1ff86a7fb340ce572e844f234ae73a691905590519091907fee60d0579bcffd98e668647d59fec1ff86a7fb340ce572e844f234ae73a6919190620003e0908262000519565b50606091909101516003918201805460ff191691151591909117905560049055690a968163f0a57b400000600855426009819055600a819055600c55620005e5565b600180546001600160a01b038381166001600160a01b0319831681179093556040519116919082907f8be0079c531659141344cd1fd0a4f28419497f9722a3daafe3b4186f6b6457e090600090a35050565b634e487b7160e01b600052604160045260246000fd5b600181811c908216806200049f57607f821691505b602082108103620004c057634e487b7160e01b600052602260045260246000fd5b50919050565b601f8211156200051457600081815260208120601f850160051c81016020861015620004ef5750805b601f850160051c820191505b818110156200051057828155600101620004fb565b5050505b505050565b81516001600160401b0381111562000535576200053562000474565b6200054d816200054684546200048a565b84620004c6565b602080601f8311600181146200058557600084156200056c5750858301515b600019600386901b1c1916600185901b17855562000510565b600085815260208120601f198616915b82811015620005b65788860151825594840194600190910190840162000595565b5085821015620005d55787850151600019600388901b60f8161c191681555b5050505050600190811b01905550565b6122b580620005f56000396000f3fe608060405234801561001057600080fd5b506004361061025e5760003560e01c80638698903811610146578063c1dd6084116100c3578063d50267ee11610087578063d50267ee146104ee578063e5854ff814610511578063e718e1c714610519578063ee17254614610521578063f2fde38b1461052a578063fa8dfc171461053d57600080fd5b8063c1dd608414610498578063c32d3ae2146104ac578063c7644f22146104bf578063c7dd6f07146104c8578063cc17e0d1146104db57600080fd5b8063995840e31161010a578063995840e314610445578063a694fc3a14610458578063b55e511d1461046b578063ba2e9fdd14610474578063bda064eb1461047d57600080fd5b8063869890381461039657806386a26f6f1461039f5780638da5cb5b146103a75780638da7ad23146103cc57806395ccea671461043257600080fd5b8063439233ae116101df57806366666aa9116101a357806366666aa914610363578063715018a61461036c5780637589cf2f1461037457806379eaaf611461037c578063817b1cd2146103855780638456cb591461038e57600080fd5b8063439233ae146103005780635747e69f146103185780635c975abb146103255780636405a06e146103375780636471af831461034a57600080fd5b80632e17de78116102265780632e17de78146102cc57806334bee92e146102df578063372500ab146102e85780633e158b0c146102f05780633f4ba83a146102f857600080fd5b806301346847146102635780630245534614610287578063097aad101461029a57806310786deb146102ad5780631d583e0d146102b7575b600080fd5b610274690a968163f0a57b40000081565b6040519081526020015b60405180910390f35b610274610295366004611c3c565b610545565b6102746102a8366004611c71565b61067d565b61027462278d0081565b6102ca6102c5366004611c3c565b61077c565b005b6102ca6102da366004611c3c565b6108aa565b610274600c5481565b6102ca610aa2565b6102ca610acf565b6102ca610b37565b610308610b47565b604051901515815260200161027e565b600d546103089060ff1681565b600154600160a01b900460ff16610308565b610274610345366004611c3c565b610b62565b610352610bc6565b60405161027e959493929190611d3f565b610274600b5481565b6102ca610f12565b6102ca610f24565b61027460035481565b61027460055481565b6102ca6110eb565b61027460065481565b6102ca6110fb565b6001546001600160a01b03165b6040516001600160a01b03909116815260200161027e565b61040a6103da366004611c71565b60046020819052600091825260409091208054600182015460028301546003840154939094015491939092909185565b604080519586526020860194909452928401919091526060830152608082015260a00161027e565b6102ca610440366004611dee565b61110b565b6102ca610453366004611ebb565b6111f6565b6102ca610466366004611c3c565b6112f7565b61027460095481565b61027460085481565b6103b473746042147240304098c837563aaec0f671881b0781565b600554600654600754600854600b5461040a565b61040a6104ba366004611c71565b611584565b610274600a5481565b6102ca6104d6366004611f19565b6115fa565b6102ca6104e9366004611f36565b611643565b6105016104fc366004611c3c565b61177c565b60405161027e9493929190611fa5565b6102ca611832565b6102746118ea565b61027460075481565b6102ca610538366004611c71565b61190d565b610274606281565b6000811580610555575060035482115b80610572575060008281526002602052604090206003015460ff16155b1561057f57506000919050565b6005546000036105e05760008281526002602052604090206001810154905460085482906105ae90600c611fed565b6105b89190611fed565b6105c2919061200a565b91506207a12082116105d457816105d9565b6207a1205b9392505050565b6000600854600c6105f19190611fed565b6000848152600260205260408120600181015460055491549394509261061990612710611fed565b610623919061200a565b905060006305f5e100836106378487611fed565b6106419190611fed565b61064b919061200a565b60008781526002602052604090205490915061066982612710611fed565b610673919061200a565b9695505050505050565b6001600160a01b0381166000908152600460208181526040808420815160a08101835281548082526001830154948201949094526002820154928101929092526003810154606083015290920154608083015215806106de57506020810151155b806106e95750600554155b156106f75750600092915050565b6000816060015142610709919061202c565b90508060000361071d575060009392505050565b600062278d006005546107309190611fed565b8351600854849161074091611fed565b61074a9190611fed565b610754919061200a565b6020808501516000908152600290915260409020600101549091506127106106698284611fed565b610784611948565b600081116107d95760405162461bcd60e51b815260206004820152601d60248201527f416d6f756e74206d7573742062652067726561746572207468616e203000000060448201526064015b60405180910390fd5b6040516323b872dd60e01b81523360048201523060248201526044810182905273746042147240304098c837563aaec0f671881b07906323b872dd906064016020604051808303816000875af1158015610837573d6000803e3d6000fd5b505050506040513d601f19601f8201168201806040525081019061085b919061203f565b5080600b600082825461086e919061205c565b90915550506040518181527fb1d234dd8081b3e00565c8b359ca6fa117fc7b024f75d85b6830b190bef5c76b906020015b60405180910390a150565b6108b2611975565b33600090815260046020526040902080546109005760405162461bcd60e51b815260206004820152600e60248201526d139bc81cdd185ad948199bdd5b9960921b60448201526064016107d0565b8160000361090d57805491505b805482111561095e5760405162461bcd60e51b815260206004820152601d60248201527f416d6f756e742065786365656473207374616b65642062616c616e636500000060448201526064016107d0565b610966611832565b61096e610acf565b6109773361199f565b8181600001600082825461098b919061202c565b9250508190555081600560008282546109a4919061202c565b90915550508054156109c55780546109bb90610b62565b60018201556109e2565b60006001820181905560068054916109dc8361206f565b91905055505b60405163a9059cbb60e01b81523360048201526024810183905273746042147240304098c837563aaec0f671881b079063a9059cbb906044016020604051808303816000875af1158015610a3a573d6000803e3d6000fd5b505050506040513d601f19601f82011682018060405250810190610a5e919061203f565b5060405182815233907f0f5bb82176feb1b5e747e28471aa92156a04d9f3ab9f45f28e2d704232b93f759060200160405180910390a250610a9f6001600055565b50565b610aaa611975565b610ab2611832565b610aba610acf565b610ac33361199f565b610acd6001600055565b565b6000600c5442610adf919061202c565b9050600081118015610af357506000600554115b15610a9f57600062278d0082600854610b0c9190611fed565b610b16919061200a565b905080600b6000828254610b2a919061205c565b909155505042600c555050565b610b3f611948565b610acd611afd565b600062278d00600a5442610b5b919061202c565b1015905090565b6003546000905b60018110610bbd5760008181526002602052604090206003015460ff168015610ba057506000818152600260205260409020548310155b15610bab5792915050565b80610bb58161206f565b915050610b69565b50600092915050565b606080606080606060035467ffffffffffffffff811115610be957610be9611e18565b604051908082528060200260200182016040528015610c12578160200160208202803683370190505b50945060035467ffffffffffffffff811115610c3057610c30611e18565b604051908082528060200260200182016040528015610c59578160200160208202803683370190505b50935060035467ffffffffffffffff811115610c7757610c77611e18565b604051908082528060200260200182016040528015610ca0578160200160208202803683370190505b50925060035467ffffffffffffffff811115610cbe57610cbe611e18565b604051908082528060200260200182016040528015610cf157816020015b6060815260200190600190039081610cdc5790505b50915060035467ffffffffffffffff811115610d0f57610d0f611e18565b604051908082528060200260200182016040528015610d38578160200160208202803683370190505b50905060015b6003548111610f0a578086610d5460018361202c565b81518110610d6457610d64612086565b60209081029190910181019190915260008281526002909152604090205485610d8e60018461202c565b81518110610d9e57610d9e612086565b602002602001018181525050600260008281526020019081526020016000206001015484600183610dcf919061202c565b81518110610ddf57610ddf612086565b602002602001018181525050600260008281526020019081526020016000206002018054610e0c9061209c565b80601f0160208091040260200160405190810160405280929190818152602001828054610e389061209c565b8015610e855780601f10610e5a57610100808354040283529160200191610e85565b820191906000526020600020905b815481529060010190602001808311610e6857829003601f168201915b505050505083600183610e98919061202c565b81518110610ea857610ea8612086565b60209081029190910181019190915260008281526002909152604090206003015460ff1682610ed860018461202c565b81518110610ee857610ee8612086565b9115156020928302919091019091015280610f02816120d6565b915050610d3e565b509091929394565b610f1a611948565b610acd6000611b52565b610f2c611975565b600d5460ff16610f7e5760405162461bcd60e51b815260206004820152601e60248201527f456d657267656e6379207769746864726177206e6f7420656e61626c6564000060448201526064016107d0565b3360009081526004602052604090208054610fcc5760405162461bcd60e51b815260206004820152600e60248201526d139bc81cdd185ad948199bdd5b9960921b60448201526064016107d0565b805460058054829190600090610fe390849061202c565b909155505060068054906000610ff88361206f565b9091555050336000818152600460208190526040808320838155600181018490556002810184905560038101849055820192909255905163a9059cbb60e01b8152908101919091526024810182905273746042147240304098c837563aaec0f671881b079063a9059cbb906044016020604051808303816000875af1158015611085573d6000803e3d6000fd5b505050506040513d601f19601f820116820180604052508101906110a9919061203f565b5060405181815233907f0f5bb82176feb1b5e747e28471aa92156a04d9f3ab9f45f28e2d704232b93f759060200160405180910390a25050610acd6001600055565b6110f3611948565b610acd611ba4565b611103611832565b610acd610acf565b611113611948565b73746042147240304098c837563aaec0f671881b06196001600160a01b038316016111805760405162461bcd60e51b815260206004820152601c60248201527f43616e6e6f74207769746864726177207374616b656420534f4c41520000000060448201526064016107d0565b60405163a9059cbb60e01b8152336004820152602481018290526001600160a01b0383169063a9059cbb906044016020604051808303816000875af11580156111cd573d6000803e3d6000fd5b505050506040513d601f19601f820116820180604052508101906111f1919061203f565b505050565b6111fe611948565b6127108210158015611212575061c3508211155b61122e5760405162461bcd60e51b81526004016107d0906120ef565b6003805490600061123e836120d6565b9091555050604080516080810182528481526020808201858152828401858152600160608501819052600354600090815260029485905295909520845181559151948201949094559251919291908201906112999082612181565b50606091909101516003918201805460ff1916911515919091179055546040517f5d192d62d1dcfbbeeb986f64fa5cb9ffb080b6644aa87f0a6c05c0ead037620b916112ea91869086908690612241565b60405180910390a1505050565b6112ff611975565b611307611be7565b600081116113575760405162461bcd60e51b815260206004820152601d60248201527f416d6f756e74206d7573742062652067726561746572207468616e203000000060448201526064016107d0565b6040516370a0823160e01b8152336004820152819073746042147240304098c837563aaec0f671881b07906370a0823190602401602060405180830381865afa1580156113a8573d6000803e3d6000fd5b505050506040513d601f19601f820116820180604052508101906113cc9190612266565b101561141a5760405162461bcd60e51b815260206004820152601a60248201527f496e73756666696369656e7420534f4c41522062616c616e636500000000000060448201526064016107d0565b611422611832565b61142a610acf565b33600090815260046020526040902080541561144e576114493361199f565b611464565b6006805490600061145e836120d6565b91905055505b6040516323b872dd60e01b81523360048201523060248201526044810183905273746042147240304098c837563aaec0f671881b07906323b872dd906064016020604051808303816000875af11580156114c2573d6000803e3d6000fd5b505050506040513d601f19601f820116820180604052508101906114e6919061203f565b50818160000160008282546114fb919061205c565b909155505042600282018190556003820155805460009061151b90610b62565b90508082600101819055508260056000828254611538919061205c565b9091555050604080518481526020810183905233917f1449c6dd7851abc30abf37f57715f492010519147cc2652fbc38202c18a6ee90910160405180910390a25050610a9f6001600055565b6001600160a01b0381166000908152600460208181526040808420815160a081018352815480825260018301549482018590526002830154938201849052600383015460608301529190940154608085015293919290919081906115e78761067d565b9250806080015191505091939590929450565b611602611948565b600d805460ff19168215159081179091556040519081527f4fb4fe1d48605773c41203249c0d2ce916ab20c17f80ba0885db54c1468176af9060200161089f565b61164b611948565b60008511801561165d57506003548511155b61169b5760405162461bcd60e51b815260206004820152600f60248201526e125b9d985b1a59081d1a595c881251608a1b60448201526064016107d0565b61271083101580156116af575061c3508311155b6116cb5760405162461bcd60e51b81526004016107d0906120ef565b604080516080810182528581526020808201868152828401868152851515606085015260008a815260029384905294909420835181559051600182015592519192919082019061171b9082612181565b50606091909101516003909101805460ff19169115159190911790556040517f5d192d62d1dcfbbeeb986f64fa5cb9ffb080b6644aa87f0a6c05c0ead037620b9061176d908790879087908790612241565b60405180910390a15050505050565b6002602081905260009182526040909120805460018201549282018054919392916117a69061209c565b80601f01602080910402602001604051908101604052809291908181526020018280546117d29061209c565b801561181f5780601f106117f45761010080835404028352916020019161181f565b820191906000526020600020905b81548152906001019060200180831161180257829003601f168201915b5050506003909301549192505060ff1684565b600062278d00600a5442611846919061202c565b611850919061200a565b90508015610a9f5760005b8181101561189357606460626008546118749190611fed565b61187e919061200a565b6008558061188b816120d6565b91505061185b565b506118a162278d0082611fed565b600a60008282546118b2919061205c565b90915550506008546040519081527fb114240d54ce08081cbd18870dc3b6cd4091bb86ff29d2ad41906c2a2d6723d49060200161089f565b600062278d00600954426118fe919061202c565b611908919061200a565b905090565b611915611948565b6001600160a01b03811661193f57604051631e4fbdf760e01b8152600060048201526024016107d0565b610a9f81611b52565b6001546001600160a01b03163314610acd5760405163118cdaa760e01b81523360048201526024016107d0565b60026000540361199857604051633ee5aeb560e01b815260040160405180910390fd5b6002600055565b60006119aa8261067d565b90506000811180156119be575080600b5410155b15611af9576001600160a01b038216600090815260046020819052604082204260038201559081018054919284926119f790849061205c565b9250508190555081600b6000828254611a10919061202c565b925050819055508160076000828254611a29919061205c565b909155505060405163a9059cbb60e01b81526001600160a01b03841660048201526024810183905273746042147240304098c837563aaec0f671881b079063a9059cbb906044016020604051808303816000875af1158015611a8f573d6000803e3d6000fd5b505050506040513d601f19601f82011682018060405250810190611ab3919061203f565b50826001600160a01b03167ffc30cddea38e2bf4d6ea7d3f9ed3b6ad7f176419f4963bd81318067a4aee73fe83604051611aef91815260200190565b60405180910390a2505b5050565b611b05611c12565b6001805460ff60a01b191690557f5db9ee0a495bf2e6ff9c91a7834c1ba4fdd244a5e8aa4e537bd38aeae4b073aa335b6040516001600160a01b03909116815260200160405180910390a1565b600180546001600160a01b038381166001600160a01b0319831681179093556040519116919082907f8be0079c531659141344cd1fd0a4f28419497f9722a3daafe3b4186f6b6457e090600090a35050565b611bac611be7565b6001805460ff60a01b1916600160a01b1790557f62e78cea01bee320cd4e420270b5ea74000d11b0c9f74754ebdbfc544b05a258611b353390565b600154600160a01b900460ff1615610acd5760405163d93c066560e01b815260040160405180910390fd5b600154600160a01b900460ff16610acd57604051638dfc202b60e01b815260040160405180910390fd5b600060208284031215611c4e57600080fd5b5035919050565b80356001600160a01b0381168114611c6c57600080fd5b919050565b600060208284031215611c8357600080fd5b6105d982611c55565b600081518084526020808501945080840160005b83811015611cbc57815187529582019590820190600101611ca0565b509495945050505050565b6000815180845260005b81811015611ced57602081850181015186830182015201611cd1565b506000602082860101526020601f19601f83011685010191505092915050565b600081518084526020808501945080840160005b83811015611cbc578151151587529582019590820190600101611d21565b60a081526000611d5260a0830188611c8c565b602083820381850152611d658289611c8c565b91508382036040850152611d798288611c8c565b915083820360608501528186518084528284019150828160051b85010183890160005b83811015611dca57601f19878403018552611db8838351611cc7565b94860194925090850190600101611d9c565b50508681036080880152611dde8189611d0d565b9c9b505050505050505050505050565b60008060408385031215611e0157600080fd5b611e0a83611c55565b946020939093013593505050565b634e487b7160e01b600052604160045260246000fd5b600082601f830112611e3f57600080fd5b813567ffffffffffffffff80821115611e5a57611e5a611e18565b604051601f8301601f19908116603f01168101908282118183101715611e8257611e82611e18565b81604052838152866020858801011115611e9b57600080fd5b836020870160208301376000602085830101528094505050505092915050565b600080600060608486031215611ed057600080fd5b8335925060208401359150604084013567ffffffffffffffff811115611ef557600080fd5b611f0186828701611e2e565b9150509250925092565b8015158114610a9f57600080fd5b600060208284031215611f2b57600080fd5b81356105d981611f0b565b600080600080600060a08688031215611f4e57600080fd5b853594506020860135935060408601359250606086013567ffffffffffffffff811115611f7a57600080fd5b611f8688828901611e2e565b9250506080860135611f9781611f0b565b809150509295509295909350565b848152836020820152608060408201526000611fc46080830185611cc7565b9050821515606083015295945050505050565b634e487b7160e01b600052601160045260246000fd5b808202811582820484141761200457612004611fd7565b92915050565b60008261202757634e487b7160e01b600052601260045260246000fd5b500490565b8181038181111561200457612004611fd7565b60006020828403121561205157600080fd5b81516105d981611f0b565b8082018082111561200457612004611fd7565b60008161207e5761207e611fd7565b506000190190565b634e487b7160e01b600052603260045260246000fd5b600181811c908216806120b057607f821691505b6020821081036120d057634e487b7160e01b600052602260045260246000fd5b50919050565b6000600182016120e8576120e8611fd7565b5060010190565b60208082526024908201527f4d756c7469706c696572206d757374206265206265747765656e20317820616e6040820152630c8406af60e31b606082015260800190565b601f8211156111f157600081815260208120601f850160051c8101602086101561215a5750805b601f850160051c820191505b8181101561217957828155600101612166565b505050505050565b815167ffffffffffffffff81111561219b5761219b611e18565b6121af816121a9845461209c565b84612133565b602080601f8311600181146121e457600084156121cc5750858301515b600019600386901b1c1916600185901b178555612179565b600085815260208120601f198616915b82811015612213578886015182559484019460019091019084016121f4565b50858210156122315787850151600019600388901b60f8161c191681555b5050505050600190811b01905550565b8481528360208201528260408201526080606082015260006106736080830184611cc7565b60006020828403121561227857600080fd5b505191905056fea2646970667358221220a62a6a84ee012e5143f02a3c2116c6018da614ffb2e162dd9b90c57d43eb699c64736f6c63430008140033",
  "linkReferences": {},
  "deployedLinkReferences": {}
}