{
  "_format": "hh-sol-artifact-1",
  "contractName": "SolarUtility",
  "sourceName": "contracts/deployment/SolarUtility.sol",
  "abi": [
    {
      "inputs": [],
      "stateMutability": "nonpayable",
      "type": "constructor"
    },
    {
      "inputs": [],
      "name": "EnforcedPause",
      "type": "error"
    },
    {
      "inputs": [],
      "name": "ExpectedPause",
      "type": "error"
    },
    {
      "inputs": [
        {
          "internalType": "address",
          "name": "owner",
          "type": "address"
        }
      ],
      "name": "OwnableInvalidOwner",
      "type": "error"
    },
    {
      "inputs": [
        {
          "internalType": "address",
          "name": "account",
          "type": "address"
        }
      ],
      "name": "OwnableUnauthorizedAccount",
      "type": "error"
    },
    {
      "inputs": [],
      "name": "ReentrancyGuardReentrantCall",
      "type": "error"
    },
    {
      "anonymous": false,
      "inputs": [
        {
          "indexed": true,
          "internalType": "bytes32",
          "name": "feature",
          "type": "bytes32"
        },
        {
          "indexed": false,
          "internalType": "uint256",
          "name": "requirement",
          "type": "uint256"
        }
      ],
      "name": "FeatureRequirementSet",
      "type": "event"
    },
    {
      "anonymous": false,
      "inputs": [
        {
          "indexed": true,
          "internalType": "address",
          "name": "user",
          "type": "address"
        },
        {
          "indexed": true,
          "internalType": "bytes32",
          "name": "feature",
          "type": "bytes32"
        }
      ],
      "name": "FeatureUsed",
      "type": "event"
    },
    {
      "anonymous": false,
      "inputs": [
        {
          "indexed": true,
          "internalType": "address",
          "name": "previousOwner",
          "type": "address"
        },
        {
          "indexed": true,
          "internalType": "address",
          "name": "newOwner",
          "type": "address"
        }
      ],
      "name": "OwnershipTransferred",
      "type": "event"
    },
    {
      "anonymous": false,
      "inputs": [
        {
          "indexed": false,
          "internalType": "address",
          "name": "account",
          "type": "address"
        }
      ],
      "name": "Paused",
      "type": "event"
    },
    {
      "anonymous": false,
      "inputs": [
        {
          "indexed": true,
          "internalType": "address",
          "name": "user",
          "type": "address"
        },
        {
          "indexed": true,
          "internalType": "bytes32",
          "name": "feature",
          "type": "bytes32"
        }
      ],
      "name": "PermanentAccessGranted",
      "type": "event"
    },
    {
      "anonymous": false,
      "inputs": [
        {
          "indexed": false,
          "internalType": "uint256",
          "name": "amount",
          "type": "uint256"
        },
        {
          "indexed": false,
          "internalType": "address",
          "name": "source",
          "type": "address"
        }
      ],
      "name": "RevenueAdded",
      "type": "event"
    },
    {
      "anonymous": false,
      "inputs": [
        {
          "indexed": false,
          "internalType": "uint256",
          "name": "amount",
          "type": "uint256"
        },
        {
          "indexed": false,
          "internalType": "string",
          "name": "reason",
          "type": "string"
        },
        {
          "indexed": false,
          "internalType": "address",
          "name": "burner",
          "type": "address"
        }
      ],
      "name": "SolarBurned",
      "type": "event"
    },
    {
      "anonymous": false,
      "inputs": [
        {
          "indexed": true,
          "internalType": "address",
          "name": "user",
          "type": "address"
        },
        {
          "indexed": true,
          "internalType": "bytes32",
          "name": "feature",
          "type": "bytes32"
        },
        {
          "indexed": false,
          "internalType": "uint256",
          "name": "duration",
          "type": "uint256"
        }
      ],
      "name": "TemporaryAccessGranted",
      "type": "event"
    },
    {
      "anonymous": false,
      "inputs": [
        {
          "indexed": false,
          "internalType": "address",
          "name": "account",
          "type": "address"
        }
      ],
      "name": "Unpaused",
      "type": "event"
    },
    {
      "inputs": [],
      "name": "BURN_ADDRESS",
      "outputs": [
        {
          "internalType": "address",
          "name": "",
          "type": "address"
        }
      ],
      "stateMutability": "view",
      "type": "function"
    },
    {
      "inputs": [],
      "name": "BURN_INTERVAL",
      "outputs": [
        {
          "internalType": "uint256",
          "name": "",
          "type": "uint256"
        }
      ],
      "stateMutability": "view",
      "type": "function"
    },
    {
      "inputs": [],
      "name": "BURN_PERCENTAGE",
      "outputs": [
        {
          "internalType": "uint256",
          "name": "",
          "type": "uint256"
        }
      ],
      "stateMutability": "view",
      "type": "function"
    },
    {
      "inputs": [],
      "name": "SOLAR_TOKEN",
      "outputs": [
        {
          "internalType": "contract IERC20",
          "name": "",
          "type": "address"
        }
      ],
      "stateMutability": "view",
      "type": "function"
    },
    {
      "inputs": [
        {
          "internalType": "uint256",
          "name": "amount",
          "type": "uint256"
        }
      ],
      "name": "addRevenue",
      "outputs": [],
      "stateMutability": "nonpayable",
      "type": "function"
    },
    {
      "inputs": [],
      "name": "burnEvents",
      "outputs": [
        {
          "internalType": "uint256",
          "name": "",
          "type": "uint256"
        }
      ],
      "stateMutability": "view",
      "type": "function"
    },
    {
      "inputs": [],
      "name": "calculateBurnAmount",
      "outputs": [
        {
          "internalType": "uint256",
          "name": "",
          "type": "uint256"
        }
      ],
      "stateMutability": "view",
      "type": "function"
    },
    {
      "inputs": [],
      "name": "canExecuteQuarterlyBurn",
      "outputs": [
        {
          "internalType": "bool",
          "name": "",
          "type": "bool"
        }
      ],
      "stateMutability": "view",
      "type": "function"
    },
    {
      "inputs": [
        {
          "internalType": "address",
          "name": "user",
          "type": "address"
        },
        {
          "internalType": "bytes32",
          "name": "feature",
          "type": "bytes32"
        }
      ],
      "name": "checkAccess",
      "outputs": [
        {
          "internalType": "bool",
          "name": "hasAccess",
          "type": "bool"
        }
      ],
      "stateMutability": "view",
      "type": "function"
    },
    {
      "inputs": [
        {
          "internalType": "address",
          "name": "token",
          "type": "address"
        },
        {
          "internalType": "uint256",
          "name": "amount",
          "type": "uint256"
        }
      ],
      "name": "emergencyWithdraw",
      "outputs": [],
      "stateMutability": "nonpayable",
      "type": "function"
    },
    {
      "inputs": [],
      "name": "executeQuarterlyBurn",
      "outputs": [],
      "stateMutability": "nonpayable",
      "type": "function"
    },
    {
      "inputs": [
        {
          "internalType": "bytes32",
          "name": "",
          "type": "bytes32"
        }
      ],
      "name": "featureRequirements",
      "outputs": [
        {
          "internalType": "uint256",
          "name": "",
          "type": "uint256"
        }
      ],
      "stateMutability": "view",
      "type": "function"
    },
    {
      "inputs": [
        {
          "internalType": "bytes32",
          "name": "",
          "type": "bytes32"
        }
      ],
      "name": "featureUsage",
      "outputs": [
        {
          "internalType": "uint256",
          "name": "",
          "type": "uint256"
        }
      ],
      "stateMutability": "view",
      "type": "function"
    },
    {
      "inputs": [],
      "name": "getAllFeatureRequirements",
      "outputs": [
        {
          "internalType": "bytes32[]",
          "name": "features",
          "type": "bytes32[]"
        },
        {
          "internalType": "uint256[]",
          "name": "requirements",
          "type": "uint256[]"
        }
      ],
      "stateMutability": "view",
      "type": "function"
    },
    {
      "inputs": [
        {
          "internalType": "bytes32",
          "name": "feature",
          "type": "bytes32"
        }
      ],
      "name": "getFeatureRequirement",
      "outputs": [
        {
          "internalType": "uint256",
          "name": "requirement",
          "type": "uint256"
        }
      ],
      "stateMutability": "view",
      "type": "function"
    },
    {
      "inputs": [],
      "name": "getStats",
      "outputs": [
        {
          "internalType": "uint256",
          "name": "totalSupply",
          "type": "uint256"
        },
        {
          "internalType": "uint256",
          "name": "burnedAmount",
          "type": "uint256"
        },
        {
          "internalType": "uint256",
          "name": "burnCount",
          "type": "uint256"
        },
        {
          "internalType": "uint256",
          "name": "revenueForBurns",
          "type": "uint256"
        },
        {
          "internalType": "uint256",
          "name": "nextBurnTime",
          "type": "uint256"
        }
      ],
      "stateMutability": "view",
      "type": "function"
    },
    {
      "inputs": [
        {
          "internalType": "address",
          "name": "user",
          "type": "address"
        }
      ],
      "name": "getUserStatus",
      "outputs": [
        {
          "internalType": "uint256",
          "name": "balance",
          "type": "uint256"
        },
        {
          "internalType": "bytes32[]",
          "name": "accessibleFeatures",
          "type": "bytes32[]"
        }
      ],
      "stateMutability": "view",
      "type": "function"
    },
    {
      "inputs": [
        {
          "internalType": "address",
          "name": "user",
          "type": "address"
        },
        {
          "internalType": "bytes32",
          "name": "feature",
          "type": "bytes32"
        }
      ],
      "name": "grantPermanentAccess",
      "outputs": [],
      "stateMutability": "nonpayable",
      "type": "function"
    },
    {
      "inputs": [
        {
          "internalType": "address",
          "name": "user",
          "type": "address"
        },
        {
          "internalType": "bytes32",
          "name": "feature",
          "type": "bytes32"
        },
        {
          "internalType": "uint256",
          "name": "duration",
          "type": "uint256"
        }
      ],
      "name": "grantTemporaryAccess",
      "outputs": [],
      "stateMutability": "nonpayable",
      "type": "function"
    },
    {
      "inputs": [],
      "name": "lastBurnTime",
      "outputs": [
        {
          "internalType": "uint256",
          "name": "",
          "type": "uint256"
        }
      ],
      "stateMutability": "view",
      "type": "function"
    },
    {
      "inputs": [],
      "name": "owner",
      "outputs": [
        {
          "internalType": "address",
          "name": "",
          "type": "address"
        }
      ],
      "stateMutability": "view",
      "type": "function"
    },
    {
      "inputs": [],
      "name": "pause",
      "outputs": [],
      "stateMutability": "nonpayable",
      "type": "function"
    },
    {
      "inputs": [],
      "name": "paused",
      "outputs": [
        {
          "internalType": "bool",
          "name": "",
          "type": "bool"
        }
      ],
      "stateMutability": "view",
      "type": "function"
    },
    {
      "inputs": [
        {
          "internalType": "address",
          "name": "",
          "type": "address"
        },
        {
          "internalType": "bytes32",
          "name": "",
          "type": "bytes32"
        }
      ],
      "name": "permanentAccess",
      "outputs": [
        {
          "internalType": "bool",
          "name": "",
          "type": "bool"
        }
      ],
      "stateMutability": "view",
      "type": "function"
    },
    {
      "inputs": [],
      "name": "renounceOwnership",
      "outputs": [],
      "stateMutability": "nonpayable",
      "type": "function"
    },
    {
      "inputs": [
        {
          "internalType": "uint256",
          "name": "newPercentage",
          "type": "uint256"
        }
      ],
      "name": "setBurnPercentage",
      "outputs": [],
      "stateMutability": "nonpayable",
      "type": "function"
    },
    {
      "inputs": [
        {
          "internalType": "bytes32",
          "name": "feature",
          "type": "bytes32"
        },
        {
          "internalType": "uint256",
          "name": "requirement",
          "type": "uint256"
        }
      ],
      "name": "setFeatureRequirement",
      "outputs": [],
      "stateMutability": "nonpayable",
      "type": "function"
    },
    {
      "inputs": [
        {
          "internalType": "uint256",
          "name": "amount",
          "type": "uint256"
        },
        {
          "internalType": "string",
          "name": "reason",
          "type": "string"
        }
      ],
      "name": "strategicBurn",
      "outputs": [],
      "stateMutability": "nonpayable",
      "type": "function"
    },
    {
      "inputs": [
        {
          "internalType": "address",
          "name": "",
          "type": "address"
        },
        {
          "internalType": "bytes32",
          "name": "",
          "type": "bytes32"
        }
      ],
      "name": "temporaryAccess",
      "outputs": [
        {
          "internalType": "uint256",
          "name": "",
          "type": "uint256"
        }
      ],
      "stateMutability": "view",
      "type": "function"
    },
    {
      "inputs": [],
      "name": "timeUntilNextBurn",
      "outputs": [
        {
          "internalType": "uint256",
          "name": "",
          "type": "uint256"
        }
      ],
      "stateMutability": "view",
      "type": "function"
    },
    {
      "inputs": [],
      "name": "totalBurned",
      "outputs": [
        {
          "internalType": "uint256",
          "name": "",
          "type": "uint256"
        }
      ],
      "stateMutability": "view",
      "type": "function"
    },
    {
      "inputs": [],
      "name": "totalRevenue",
      "outputs": [
        {
          "internalType": "uint256",
          "name": "",
          "type": "uint256"
        }
      ],
      "stateMutability": "view",
      "type": "function"
    },
    {
      "inputs": [
        {
          "internalType": "address",
          "name": "newOwner",
          "type": "address"
        }
      ],
      "name": "transferOwnership",
      "outputs": [],
      "stateMutability": "nonpayable",
      "type": "function"
    },
    {
      "inputs": [],
      "name": "unpause",
      "outputs": [],
      "stateMutability": "nonpayable",
      "type": "function"
    },
    {
      "inputs": [
        {
          "internalType": "bytes32",
          "name": "feature",
          "type": "bytes32"
        }
      ],
      "name": "useFeature",
      "outputs": [],
      "stateMutability": "nonpayable",
      "type": "function"
    },
    {
      "inputs": [
        {
          "internalType": "address",
          "name": "",
          "type": "address"
        },
        {
          "internalType": "bytes32",
          "name": "",
          "type": "bytes32"
        }
      ],
      "name": "userFeatureUsage",
      "outputs": [
        {
          "internalType": "uint256",
          "name": "",
          "type": "uint256"
        }
      ],
      "stateMutability": "view",
      "type": "function"
    }
  ],
  "bytecode": "0x608060405234801561001057600080fd5b506001600055338061003c57604051631e4fbdf760e01b81526000600482015260240160405180910390fd5b6100458161019f565b5060026020526a295be96e640669720000007f66eddad44c93dd0558e1003b01a4e0f295d66be36ce25c2ca252d535d56dceae8190556a7c13bc4b2c133c560000007fcdd2e53eeaf18ec5f38f57f24026cf06926c90ab44b092680971dd3e46437b01556a18d0bf423c03d8de0000007ffc99c49b7444705c10654f3cc1d41b5b0810f48a0bfea128a73937bf08da6386556a52b7d2dcc80cd2e40000007f1908de9901f837e34fbd66076487da0e278c4f6ec97e479cd8006b0440ced667556acecb8f27f4200f3a0000007f5b5e93bd05d85460aa89d9924e0bbf0cd7476e620e1c59f2fc9e174eb48dd2c6557f65dd133504022a712608e61601c53ce7b6e8fe103bef5f65900f556e5dfe4724556a1d9a5c17dcdd5c1c1bdc9d60aa1b6000526b019d971e4fe8401e740000007f37cb908cb033b4672c1ca0dff40065e9d12bc04fd3d71af05e8343f92c7f6ab05542600a556101f1565b600180546001600160a01b038381166001600160a01b0319831681179093556040519116919082907f8be0079c531659141344cd1fd0a4f28419497f9722a3daafe3b4186f6b6457e090600090a35050565b611b7b806102006000396000f3fe608060405234801561001057600080fd5b506004361061021c5760003560e01c806395ccea6711610125578063d02fd823116100ad578063e30674491161007c578063e3067449146104cb578063ea0d5dcd146104d4578063eee1e7e5146104f5578063f2fde38b146104fd578063fccc28131461051057600080fd5b8063d02fd82314610487578063d42cda581461048f578063d89135cd146104af578063e001bfbe146104b857600080fd5b8063bf2d9e0b116100f4578063bf2d9e0b146103e2578063c3f0d327146103eb578063c59d4847146103fe578063c9715a2f1461042e578063cc58bcdf1461045957600080fd5b806395ccea67146103985780639649b910146103ab578063ad8ea4b6146103b4578063bda064eb146103c757600080fd5b80635c975abb116101a85780637461f24a116101775780637461f24a1461033b5780637b1648e21461034e5780638456cb5914610358578063854ca169146103605780638da5cb5b1461037357600080fd5b80635c975abb146102fa5780635ca974a71461031857806363ec512d14610320578063715018a61461033357600080fd5b806337f9a42f116101ef57806337f9a42f146102965780633b660aaa146102b65780633f4ba83a146102bf57806340dd0f70146102c75780635a1ab780146102f257600080fd5b80630a43948e1461022157806313ae89721461023657806323409a281461025557806328c582a314610268575b600080fd5b61023461022f3660046117a3565b610519565b005b61023e610572565b60405161024c929190611800565b60405180910390f35b610234610263366004611857565b610780565b610288610276366004611857565b60009081526002602052604090205490565b60405190815260200161024c565b6102886102a4366004611857565b60026020526000908152604090205481565b61028860065481565b6102346108d7565b6102886102d536600461188c565b600460209081526000928352604080842090915290825290205481565b6102886108e9565b600154600160a01b900460ff165b604051901515815260200161024c565b61030861091e565b61023461032e366004611857565b610947565b6102346109a1565b61030861034936600461188c565b6109b3565b6102886276a70081565b610234610ab4565b61023461036e3660046118cc565b610ac4565b6001546001600160a01b03165b6040516001600160a01b03909116815260200161024c565b6102346103a636600461188c565b610bbc565b6102886109c481565b6102346103c236600461188c565b610c9f565b61038073746042147240304098c837563aaec0f671881b0781565b61028860095481565b6102346103f9366004611857565b610d01565b610406610d4f565b604080519586526020860194909452928401919091526060830152608082015260a00161024c565b61028861043c36600461188c565b600860209081526000928352604080842090915290825290205481565b61030861046736600461188c565b600360209081526000928352604080842090915290825290205460ff1681565b610234610d87565b61028861049d366004611857565b60076020526000908152604090205481565b61028860055481565b6102346104c6366004611987565b6110dd565b610288600a5481565b6104e76104e23660046119ba565b61114d565b60405161024c9291906119dc565b610288611571565b61023461050b3660046119ba565b6115d2565b61038061dead81565b61052161160d565b600082815260026020526040908190208290555182907fc628b3cd4daad3e8dcbb2074db3f9716becc87d652d843c4447064f2e9f9dd42906105669084815260200190565b60405180910390a25050565b60408051600780825261010082019092526060918291906020820160e0803683375050604080516007808252610100820190925292945090506020820160e080368337019050509050707072656d69756d5f616e616c797469637360781b826000815181106105e3576105e36119fd565b60200260200101818152505070637573746f6d5f6d696c6573746f6e657360781b82600181518110610617576106176119fd565b6020026020010181815250506f1c1c9a5bdc9a5d1e57dcdd5c1c1bdc9d60821b8260028151811061064a5761064a6119fd565b6020026020010181815250506f616476616e6365645f6a6f75726e657960801b8260038151811061067d5761067d6119fd565b602002602001018181525050696170695f61636365737360b01b826004815181106106aa576106aa6119fd565b6020026020010181815250506b6561726c795f61636365737360a01b826005815181106106d9576106d96119fd565b6020026020010181815250506a1d9a5c17dcdd5c1c1bdc9d60aa1b82600681518110610707576107076119fd565b60200260200101818152505060005b825181101561077b5760026000848381518110610735576107356119fd565b602002602001015181526020019081526020016000205482828151811061075e5761075e6119fd565b60209081029190910101528061077381611a29565b915050610716565b509091565b61078861163a565b610790611664565b604051633a30f92560e11b8152336004820152602481018290523090637461f24a90604401602060405180830381865afa1580156107d2573d6000803e3d6000fd5b505050506040513d601f19601f820116820180604052508101906107f69190611a42565b6108535760405162461bcd60e51b8152602060048201526024808201527f496e73756666696369656e7420534f4c41522062616c616e6365206f722061636044820152636365737360e01b60648201526084015b60405180910390fd5b600081815260076020526040812080549161086d83611a29565b9091555050336000908152600860209081526040808320848452909152812080549161089883611a29565b9091555050604051819033907f99eb89a418a1671959263204b23efbfd9f0213f778a5138d4de28592e6371bd790600090a36108d46001600055565b50565b6108df61160d565b6108e761168f565b565b6000806276a700600a546108fd9190611a64565b905080421061090e57600091505090565b6109184282611a77565b91505090565b60006276a700600a546109319190611a64565b421015801561094257506000600954115b905090565b61094f61160d565b80600960008282546109619190611a64565b9091555050604080518281523360208201527f49e0259d970ee909725cdedb7db23d64059624e6181575b9dd0fc7092f4aafcc910160405180910390a150565b6109a961160d565b6108e760006116e4565b6001600160a01b038216600090815260036020908152604080832084845290915281205460ff16156109e757506001610aae565b6001600160a01b0383166000908152600460209081526040808320858452909152902054421015610a1a57506001610aae565b6040516370a0823160e01b81526001600160a01b038416600482015260009073746042147240304098c837563aaec0f671881b07906370a0823190602401602060405180830381865afa158015610a75573d6000803e3d6000fd5b505050506040513d601f19601f82011682018060405250810190610a999190611a8a565b60008481526002602052604090205411159150505b92915050565b610abc61160d565b6108e7611736565b610acc61160d565b6040516323b872dd60e01b815233600482015261dead60248201526044810183905273746042147240304098c837563aaec0f671881b07906323b872dd906064016020604051808303816000875af1158015610b2c573d6000803e3d6000fd5b505050506040513d601f19601f82011682018060405250810190610b509190611a42565b508160056000828254610b639190611a64565b909155505060068054906000610b7883611a29565b91905055507fd92408cbc24732a9457f996472dcdfd7723e5b548a1f0c6991845f2609a719db828233604051610bb093929190611aa3565b60405180910390a15050565b610bc461160d565b73746042147240304098c837563aaec0f671881b06196001600160a01b03831601610c295760405162461bcd60e51b815260206004820152601560248201527421b0b73737ba103bb4ba34323930bb9029a7a620a960591b604482015260640161084a565b60405163a9059cbb60e01b8152336004820152602481018290526001600160a01b0383169063a9059cbb906044016020604051808303816000875af1158015610c76573d6000803e3d6000fd5b505050506040513d601f19601f82011682018060405250810190610c9a9190611a42565b505050565b610ca761160d565b6001600160a01b0382166000818152600360209081526040808320858452909152808220805460ff19166001179055518392917f722462de87a2f02b3af39c8fb4889409a7978b8bdeaec9f052fdc434ea996f9b91a35050565b610d0961160d565b6113888111156108d45760405162461bcd60e51b815260206004820152601160248201527043616e6e6f74206578636565642035302560781b604482015260640161084a565b600554600654600954600a546c01431e0fae6d7217caa000000093929190600090610d7e906276a70090611a64565b90509091929394565b610d8f61163a565b6276a700600a54610da09190611a64565b421015610def5760405162461bcd60e51b815260206004820152601c60248201527f546f6f206561726c7920666f7220717561727465726c79206275726e00000000604482015260640161084a565b600060095411610e365760405162461bcd60e51b81526020600482015260126024820152712737903932bb32b73ab2903a3790313ab93760711b604482015260640161084a565b6000610e40611571565b905060008111610e925760405162461bcd60e51b815260206004820152601b60248201527f4e6f20534f4c415220617661696c61626c6520666f72206275726e0000000000604482015260640161084a565b6040516370a0823160e01b8152306004820152819073746042147240304098c837563aaec0f671881b07906370a0823190602401602060405180830381865afa158015610ee3573d6000803e3d6000fd5b505050506040513d601f19601f82011682018060405250810190610f079190611a8a565b10610f905760405163a9059cbb60e01b815261dead60048201526024810182905273746042147240304098c837563aaec0f671881b079063a9059cbb906044016020604051808303816000875af1158015610f66573d6000803e3d6000fd5b505050506040513d601f19601f82011682018060405250810190610f8a9190611a42565b50611037565b73746042147240304098c837563aaec0f671881b076323b872dd610fbc6001546001600160a01b031690565b6040516001600160e01b031960e084901b1681526001600160a01b03909116600482015261dead6024820152604481018490526064016020604051808303816000875af1158015611011573d6000803e3d6000fd5b505050506040513d601f19601f820116820180604052508101906110359190611a42565b505b80600560008282546110499190611a64565b90915550506006805490600061105e83611a29565b909155505042600a556000600955604080518281526060602082018190526016908201527528bab0b93a32b9363c903932bb32b73ab290313ab93760511b6080820152338183015290517fd92408cbc24732a9457f996472dcdfd7723e5b548a1f0c6991845f2609a719db9181900360a00190a1506108e76001600055565b6110e561160d565b6110ef8142611a64565b6001600160a01b0384166000818152600460209081526040808320878452825291829020939093555183815284927f4bf5367b54d86733931cbf6be0f2420776f4a453be9bd79ed2e9e849627dbd2a910160405180910390a3505050565b6040516370a0823160e01b81526001600160a01b038216600482015260009060609073746042147240304098c837563aaec0f671881b07906370a0823190602401602060405180830381865afa1580156111ab573d6000803e3d6000fd5b505050506040513d601f19601f820116820180604052508101906111cf9190611a8a565b6040805160078082526101008201909252919350600091906020820160e080368337019050509050707072656d69756d5f616e616c797469637360781b8160008151811061121f5761121f6119fd565b60200260200101818152505070637573746f6d5f6d696c6573746f6e657360781b81600181518110611253576112536119fd565b6020026020010181815250506f1c1c9a5bdc9a5d1e57dcdd5c1c1bdc9d60821b81600281518110611286576112866119fd565b6020026020010181815250506f616476616e6365645f6a6f75726e657960801b816003815181106112b9576112b96119fd565b602002602001018181525050696170695f61636365737360b01b816004815181106112e6576112e66119fd565b6020026020010181815250506b6561726c795f61636365737360a01b81600581518110611315576113156119fd565b6020026020010181815250506a1d9a5c17dcdd5c1c1bdc9d60aa1b81600681518110611343576113436119fd565b6020026020010181815250506000805b825181101561141d57306001600160a01b0316637461f24a8785848151811061137e5761137e6119fd565b60200260200101516040518363ffffffff1660e01b81526004016113b79291906001600160a01b03929092168252602082015260400190565b602060405180830381865afa1580156113d4573d6000803e3d6000fd5b505050506040513d601f19601f820116820180604052508101906113f89190611a42565b1561140b578161140781611a29565b9250505b8061141581611a29565b915050611353565b508067ffffffffffffffff811115611437576114376118b6565b604051908082528060200260200182016040528015611460578160200160208202803683370190505b5092506000805b835181101561156857306001600160a01b0316637461f24a88868481518110611492576114926119fd565b60200260200101516040518363ffffffff1660e01b81526004016114cb9291906001600160a01b03929092168252602082015260400190565b602060405180830381865afa1580156114e8573d6000803e3d6000fd5b505050506040513d601f19601f8201168201806040525081019061150c9190611a42565b1561155657838181518110611523576115236119fd565b602002602001015185838151811061153d5761153d6119fd565b60209081029190910101528161155281611a29565b9250505b8061156081611a29565b915050611467565b50505050915091565b60006009546000036115835750600090565b600069d3c21bcecceda1000000905060006127106109c46009546115a79190611b0c565b6115b19190611b23565b9050620f42406115c18383611b0c565b6115cb9190611b23565b9250505090565b6115da61160d565b6001600160a01b03811661160457604051631e4fbdf760e01b81526000600482015260240161084a565b6108d4816116e4565b6001546001600160a01b031633146108e75760405163118cdaa760e01b815233600482015260240161084a565b60026000540361165d57604051633ee5aeb560e01b815260040160405180910390fd5b6002600055565b600154600160a01b900460ff16156108e75760405163d93c066560e01b815260040160405180910390fd5b611697611779565b6001805460ff60a01b191690557f5db9ee0a495bf2e6ff9c91a7834c1ba4fdd244a5e8aa4e537bd38aeae4b073aa335b6040516001600160a01b03909116815260200160405180910390a1565b600180546001600160a01b038381166001600160a01b0319831681179093556040519116919082907f8be0079c531659141344cd1fd0a4f28419497f9722a3daafe3b4186f6b6457e090600090a35050565b61173e611664565b6001805460ff60a01b1916600160a01b1790557f62e78cea01bee320cd4e420270b5ea74000d11b0c9f74754ebdbfc544b05a2586116c73390565b600154600160a01b900460ff166108e757604051638dfc202b60e01b815260040160405180910390fd5b600080604083850312156117b657600080fd5b50508035926020909101359150565b600081518084526020808501945080840160005b838110156117f5578151875295820195908201906001016117d9565b509495945050505050565b60408152600061181360408301856117c5565b82810360208481019190915284518083528582019282019060005b8181101561184a5784518352938301939183019160010161182e565b5090979650505050505050565b60006020828403121561186957600080fd5b5035919050565b80356001600160a01b038116811461188757600080fd5b919050565b6000806040838503121561189f57600080fd5b6118a883611870565b946020939093013593505050565b634e487b7160e01b600052604160045260246000fd5b600080604083850312156118df57600080fd5b82359150602083013567ffffffffffffffff808211156118fe57600080fd5b818501915085601f83011261191257600080fd5b813581811115611924576119246118b6565b604051601f8201601f19908116603f0116810190838211818310171561194c5761194c6118b6565b8160405282815288602084870101111561196557600080fd5b8260208601602083013760006020848301015280955050505050509250929050565b60008060006060848603121561199c57600080fd5b6119a584611870565b95602085013595506040909401359392505050565b6000602082840312156119cc57600080fd5b6119d582611870565b9392505050565b8281526040602082015260006119f560408301846117c5565b949350505050565b634e487b7160e01b600052603260045260246000fd5b634e487b7160e01b600052601160045260246000fd5b600060018201611a3b57611a3b611a13565b5060010190565b600060208284031215611a5457600080fd5b815180151581146119d557600080fd5b80820180821115610aae57610aae611a13565b81810381811115610aae57610aae611a13565b600060208284031215611a9c57600080fd5b5051919050565b83815260006020606081840152845180606085015260005b81811015611ad757868101830151858201608001528201611abb565b5060008482016080908101919091526001600160a01b03959095166040850152601f01601f1916909201909201949350505050565b8082028115828204841417610aae57610aae611a13565b600082611b4057634e487b7160e01b600052601260045260246000fd5b50049056fea26469706673582212204330590d004bf9d4d12edddb1fde3c766a8e8470dc71052f0816e4e42b0a73e064736f6c63430008140033",
  "linkReferences": {},
  "deployedLinkReferences": {}
}