{
  "_format": "hh-sol-artifact-1",
  "contractName": "SolarUtility",
  "sourceName": "contracts/deployment/SolarUtility.sol",
  "abi": [
    {
      "inputs": [],
      "stateMutability": "nonpayable",
      "type": "constructor"
    },
    {
      "inputs": [],
      "name": "EnforcedPause",
      "type": "error"
    },
    {
      "inputs": [],
      "name": "ExpectedPause",
      "type": "error"
    },
    {
      "inputs": [
        {
          "internalType": "address",
          "name": "owner",
          "type": "address"
        }
      ],
      "name": "OwnableInvalidOwner",
      "type": "error"
    },
    {
      "inputs": [
        {
          "internalType": "address",
          "name": "account",
          "type": "address"
        }
      ],
      "name": "OwnableUnauthorizedAccount",
      "type": "error"
    },
    {
      "inputs": [],
      "name": "ReentrancyGuardReentrantCall",
      "type": "error"
    },
    {
      "anonymous": false,
      "inputs": [
        {
          "indexed": false,
          "internalType": "uint256",
          "name": "amount",
          "type": "uint256"
        }
      ],
      "name": "CompanyTreasuryDeposit",
      "type": "event"
    },
    {
      "anonymous": false,
      "inputs": [
        {
          "indexed": true,
          "internalType": "bytes32",
          "name": "feature",
          "type": "bytes32"
        },
        {
          "indexed": false,
          "internalType": "uint256",
          "name": "price",
          "type": "uint256"
        }
      ],
      "name": "FeaturePricingSet",
      "type": "event"
    },
    {
      "anonymous": false,
      "inputs": [
        {
          "indexed": true,
          "internalType": "address",
          "name": "user",
          "type": "address"
        },
        {
          "indexed": true,
          "internalType": "bytes32",
          "name": "feature",
          "type": "bytes32"
        },
        {
          "indexed": false,
          "internalType": "uint256",
          "name": "price",
          "type": "uint256"
        },
        {
          "indexed": false,
          "internalType": "uint256",
          "name": "duration",
          "type": "uint256"
        }
      ],
      "name": "FeaturePurchased",
      "type": "event"
    },
    {
      "anonymous": false,
      "inputs": [
        {
          "indexed": true,
          "internalType": "bytes32",
          "name": "feature",
          "type": "bytes32"
        },
        {
          "indexed": false,
          "internalType": "uint256",
          "name": "requirement",
          "type": "uint256"
        }
      ],
      "name": "FeatureRequirementSet",
      "type": "event"
    },
    {
      "anonymous": false,
      "inputs": [
        {
          "indexed": true,
          "internalType": "address",
          "name": "user",
          "type": "address"
        },
        {
          "indexed": true,
          "internalType": "bytes32",
          "name": "feature",
          "type": "bytes32"
        }
      ],
      "name": "FeatureUsed",
      "type": "event"
    },
    {
      "anonymous": false,
      "inputs": [
        {
          "indexed": false,
          "internalType": "uint256",
          "name": "amount",
          "type": "uint256"
        }
      ],
      "name": "MorphoTreasuryDeposit",
      "type": "event"
    },
    {
      "anonymous": false,
      "inputs": [
        {
          "indexed": true,
          "internalType": "address",
          "name": "previousOwner",
          "type": "address"
        },
        {
          "indexed": true,
          "internalType": "address",
          "name": "newOwner",
          "type": "address"
        }
      ],
      "name": "OwnershipTransferred",
      "type": "event"
    },
    {
      "anonymous": false,
      "inputs": [
        {
          "indexed": false,
          "internalType": "address",
          "name": "account",
          "type": "address"
        }
      ],
      "name": "Paused",
      "type": "event"
    },
    {
      "anonymous": false,
      "inputs": [
        {
          "indexed": true,
          "internalType": "address",
          "name": "user",
          "type": "address"
        },
        {
          "indexed": true,
          "internalType": "bytes32",
          "name": "feature",
          "type": "bytes32"
        }
      ],
      "name": "PermanentAccessGranted",
      "type": "event"
    },
    {
      "anonymous": false,
      "inputs": [
        {
          "indexed": false,
          "internalType": "uint256",
          "name": "amount",
          "type": "uint256"
        },
        {
          "indexed": false,
          "internalType": "address",
          "name": "source",
          "type": "address"
        }
      ],
      "name": "RevenueAdded",
      "type": "event"
    },
    {
      "anonymous": false,
      "inputs": [
        {
          "indexed": false,
          "internalType": "uint256",
          "name": "amount",
          "type": "uint256"
        },
        {
          "indexed": false,
          "internalType": "string",
          "name": "reason",
          "type": "string"
        },
        {
          "indexed": false,
          "internalType": "address",
          "name": "burner",
          "type": "address"
        }
      ],
      "name": "SolarBurned",
      "type": "event"
    },
    {
      "anonymous": false,
      "inputs": [
        {
          "indexed": true,
          "internalType": "address",
          "name": "user",
          "type": "address"
        },
        {
          "indexed": true,
          "internalType": "bytes32",
          "name": "feature",
          "type": "bytes32"
        },
        {
          "indexed": false,
          "internalType": "uint256",
          "name": "duration",
          "type": "uint256"
        }
      ],
      "name": "TemporaryAccessGranted",
      "type": "event"
    },
    {
      "anonymous": false,
      "inputs": [
        {
          "indexed": false,
          "internalType": "string",
          "name": "treasuryType",
          "type": "string"
        },
        {
          "indexed": false,
          "internalType": "address",
          "name": "newAddress",
          "type": "address"
        }
      ],
      "name": "TreasuryContractUpdated",
      "type": "event"
    },
    {
      "anonymous": false,
      "inputs": [
        {
          "indexed": false,
          "internalType": "address",
          "name": "account",
          "type": "address"
        }
      ],
      "name": "Unpaused",
      "type": "event"
    },
    {
      "inputs": [],
      "name": "BURN_ADDRESS",
      "outputs": [
        {
          "internalType": "address",
          "name": "",
          "type": "address"
        }
      ],
      "stateMutability": "view",
      "type": "function"
    },
    {
      "inputs": [],
      "name": "BURN_INTERVAL",
      "outputs": [
        {
          "internalType": "uint256",
          "name": "",
          "type": "uint256"
        }
      ],
      "stateMutability": "view",
      "type": "function"
    },
    {
      "inputs": [],
      "name": "BURN_PERCENTAGE",
      "outputs": [
        {
          "internalType": "uint256",
          "name": "",
          "type": "uint256"
        }
      ],
      "stateMutability": "view",
      "type": "function"
    },
    {
      "inputs": [],
      "name": "SOLAR_TOKEN",
      "outputs": [
        {
          "internalType": "contract IERC20",
          "name": "",
          "type": "address"
        }
      ],
      "stateMutability": "view",
      "type": "function"
    },
    {
      "inputs": [],
      "name": "TREASURY_THRESHOLD",
      "outputs": [
        {
          "internalType": "uint256",
          "name": "",
          "type": "uint256"
        }
      ],
      "stateMutability": "view",
      "type": "function"
    },
    {
      "inputs": [],
      "name": "USDC",
      "outputs": [
        {
          "internalType": "contract IERC20",
          "name": "",
          "type": "address"
        }
      ],
      "stateMutability": "view",
      "type": "function"
    },
    {
      "inputs": [],
      "name": "burnEvents",
      "outputs": [
        {
          "internalType": "uint256",
          "name": "",
          "type": "uint256"
        }
      ],
      "stateMutability": "view",
      "type": "function"
    },
    {
      "inputs": [],
      "name": "calculateBurnAmount",
      "outputs": [
        {
          "internalType": "uint256",
          "name": "",
          "type": "uint256"
        }
      ],
      "stateMutability": "view",
      "type": "function"
    },
    {
      "inputs": [],
      "name": "canExecuteQuarterlyBurn",
      "outputs": [
        {
          "internalType": "bool",
          "name": "",
          "type": "bool"
        }
      ],
      "stateMutability": "view",
      "type": "function"
    },
    {
      "inputs": [
        {
          "internalType": "address",
          "name": "user",
          "type": "address"
        },
        {
          "internalType": "bytes32",
          "name": "feature",
          "type": "bytes32"
        }
      ],
      "name": "checkAccess",
      "outputs": [
        {
          "internalType": "bool",
          "name": "hasAccess",
          "type": "bool"
        }
      ],
      "stateMutability": "view",
      "type": "function"
    },
    {
      "inputs": [],
      "name": "companyAllocatedRevenue",
      "outputs": [
        {
          "internalType": "uint256",
          "name": "",
          "type": "uint256"
        }
      ],
      "stateMutability": "view",
      "type": "function"
    },
    {
      "inputs": [],
      "name": "companyTreasuryContract",
      "outputs": [
        {
          "internalType": "address",
          "name": "",
          "type": "address"
        }
      ],
      "stateMutability": "view",
      "type": "function"
    },
    {
      "inputs": [],
      "name": "depositToTreasuries",
      "outputs": [],
      "stateMutability": "nonpayable",
      "type": "function"
    },
    {
      "inputs": [
        {
          "internalType": "address",
          "name": "token",
          "type": "address"
        },
        {
          "internalType": "uint256",
          "name": "amount",
          "type": "uint256"
        }
      ],
      "name": "emergencyWithdraw",
      "outputs": [],
      "stateMutability": "nonpayable",
      "type": "function"
    },
    {
      "inputs": [],
      "name": "executeQuarterlyBurn",
      "outputs": [],
      "stateMutability": "nonpayable",
      "type": "function"
    },
    {
      "inputs": [
        {
          "internalType": "bytes32",
          "name": "",
          "type": "bytes32"
        }
      ],
      "name": "featurePricing",
      "outputs": [
        {
          "internalType": "uint256",
          "name": "",
          "type": "uint256"
        }
      ],
      "stateMutability": "view",
      "type": "function"
    },
    {
      "inputs": [
        {
          "internalType": "bytes32",
          "name": "",
          "type": "bytes32"
        }
      ],
      "name": "featureRequirements",
      "outputs": [
        {
          "internalType": "uint256",
          "name": "",
          "type": "uint256"
        }
      ],
      "stateMutability": "view",
      "type": "function"
    },
    {
      "inputs": [
        {
          "internalType": "bytes32",
          "name": "",
          "type": "bytes32"
        }
      ],
      "name": "featureUsage",
      "outputs": [
        {
          "internalType": "uint256",
          "name": "",
          "type": "uint256"
        }
      ],
      "stateMutability": "view",
      "type": "function"
    },
    {
      "inputs": [],
      "name": "getAllFeatureRequirements",
      "outputs": [
        {
          "internalType": "bytes32[]",
          "name": "features",
          "type": "bytes32[]"
        },
        {
          "internalType": "uint256[]",
          "name": "requirements",
          "type": "uint256[]"
        },
        {
          "internalType": "uint256[]",
          "name": "prices",
          "type": "uint256[]"
        }
      ],
      "stateMutability": "view",
      "type": "function"
    },
    {
      "inputs": [
        {
          "internalType": "bytes32",
          "name": "feature",
          "type": "bytes32"
        }
      ],
      "name": "getFeaturePricing",
      "outputs": [
        {
          "internalType": "uint256",
          "name": "monthly",
          "type": "uint256"
        },
        {
          "internalType": "uint256",
          "name": "quarterly",
          "type": "uint256"
        },
        {
          "internalType": "uint256",
          "name": "annual",
          "type": "uint256"
        }
      ],
      "stateMutability": "view",
      "type": "function"
    },
    {
      "inputs": [
        {
          "internalType": "bytes32",
          "name": "feature",
          "type": "bytes32"
        }
      ],
      "name": "getFeatureRequirement",
      "outputs": [
        {
          "internalType": "uint256",
          "name": "requirement",
          "type": "uint256"
        }
      ],
      "stateMutability": "view",
      "type": "function"
    },
    {
      "inputs": [],
      "name": "getRevenueSplit",
      "outputs": [
        {
          "internalType": "uint256",
          "name": "totalCollected",
          "type": "uint256"
        },
        {
          "internalType": "uint256",
          "name": "morphoShare",
          "type": "uint256"
        },
        {
          "internalType": "uint256",
          "name": "companyShare",
          "type": "uint256"
        },
        {
          "internalType": "uint256",
          "name": "pendingBalance",
          "type": "uint256"
        }
      ],
      "stateMutability": "view",
      "type": "function"
    },
    {
      "inputs": [],
      "name": "getStats",
      "outputs": [
        {
          "internalType": "uint256",
          "name": "totalSupply",
          "type": "uint256"
        },
        {
          "internalType": "uint256",
          "name": "burnedAmount",
          "type": "uint256"
        },
        {
          "internalType": "uint256",
          "name": "burnCount",
          "type": "uint256"
        },
        {
          "internalType": "uint256",
          "name": "revenueForBurns",
          "type": "uint256"
        },
        {
          "internalType": "uint256",
          "name": "nextBurnTime",
          "type": "uint256"
        },
        {
          "internalType": "uint256",
          "name": "usdcBalance",
          "type": "uint256"
        },
        {
          "internalType": "uint256",
          "name": "morphoRevenue",
          "type": "uint256"
        },
        {
          "internalType": "uint256",
          "name": "companyRevenue",
          "type": "uint256"
        }
      ],
      "stateMutability": "view",
      "type": "function"
    },
    {
      "inputs": [
        {
          "internalType": "address",
          "name": "user",
          "type": "address"
        },
        {
          "internalType": "bytes32",
          "name": "feature",
          "type": "bytes32"
        }
      ],
      "name": "getUserFeatureAccess",
      "outputs": [
        {
          "internalType": "bool",
          "name": "hasAccess",
          "type": "bool"
        },
        {
          "internalType": "string",
          "name": "accessType",
          "type": "string"
        },
        {
          "internalType": "uint256",
          "name": "expiryTime",
          "type": "uint256"
        }
      ],
      "stateMutability": "view",
      "type": "function"
    },
    {
      "inputs": [
        {
          "internalType": "address",
          "name": "user",
          "type": "address"
        }
      ],
      "name": "getUserStatus",
      "outputs": [
        {
          "internalType": "uint256",
          "name": "balance",
          "type": "uint256"
        },
        {
          "internalType": "bytes32[]",
          "name": "accessibleFeatures",
          "type": "bytes32[]"
        }
      ],
      "stateMutability": "view",
      "type": "function"
    },
    {
      "inputs": [
        {
          "internalType": "address",
          "name": "user",
          "type": "address"
        },
        {
          "internalType": "bytes32",
          "name": "feature",
          "type": "bytes32"
        }
      ],
      "name": "grantPermanentAccess",
      "outputs": [],
      "stateMutability": "nonpayable",
      "type": "function"
    },
    {
      "inputs": [
        {
          "internalType": "address",
          "name": "user",
          "type": "address"
        },
        {
          "internalType": "bytes32",
          "name": "feature",
          "type": "bytes32"
        },
        {
          "internalType": "uint256",
          "name": "duration",
          "type": "uint256"
        }
      ],
      "name": "grantTemporaryAccess",
      "outputs": [],
      "stateMutability": "nonpayable",
      "type": "function"
    },
    {
      "inputs": [],
      "name": "lastBurnTime",
      "outputs": [
        {
          "internalType": "uint256",
          "name": "",
          "type": "uint256"
        }
      ],
      "stateMutability": "view",
      "type": "function"
    },
    {
      "inputs": [],
      "name": "morphoAllocatedRevenue",
      "outputs": [
        {
          "internalType": "uint256",
          "name": "",
          "type": "uint256"
        }
      ],
      "stateMutability": "view",
      "type": "function"
    },
    {
      "inputs": [],
      "name": "morphoTreasuryContract",
      "outputs": [
        {
          "internalType": "address",
          "name": "",
          "type": "address"
        }
      ],
      "stateMutability": "view",
      "type": "function"
    },
    {
      "inputs": [],
      "name": "owner",
      "outputs": [
        {
          "internalType": "address",
          "name": "",
          "type": "address"
        }
      ],
      "stateMutability": "view",
      "type": "function"
    },
    {
      "inputs": [
        {
          "internalType": "address",
          "name": "",
          "type": "address"
        },
        {
          "internalType": "bytes32",
          "name": "",
          "type": "bytes32"
        }
      ],
      "name": "paidAccess",
      "outputs": [
        {
          "internalType": "uint256",
          "name": "",
          "type": "uint256"
        }
      ],
      "stateMutability": "view",
      "type": "function"
    },
    {
      "inputs": [],
      "name": "pause",
      "outputs": [],
      "stateMutability": "nonpayable",
      "type": "function"
    },
    {
      "inputs": [],
      "name": "paused",
      "outputs": [
        {
          "internalType": "bool",
          "name": "",
          "type": "bool"
        }
      ],
      "stateMutability": "view",
      "type": "function"
    },
    {
      "inputs": [
        {
          "internalType": "address",
          "name": "",
          "type": "address"
        },
        {
          "internalType": "bytes32",
          "name": "",
          "type": "bytes32"
        }
      ],
      "name": "permanentAccess",
      "outputs": [
        {
          "internalType": "bool",
          "name": "",
          "type": "bool"
        }
      ],
      "stateMutability": "view",
      "type": "function"
    },
    {
      "inputs": [
        {
          "internalType": "bytes32",
          "name": "feature",
          "type": "bytes32"
        },
        {
          "internalType": "uint256",
          "name": "duration",
          "type": "uint256"
        }
      ],
      "name": "purchaseFeatureAccess",
      "outputs": [],
      "stateMutability": "nonpayable",
      "type": "function"
    },
    {
      "inputs": [],
      "name": "renounceOwnership",
      "outputs": [],
      "stateMutability": "nonpayable",
      "type": "function"
    },
    {
      "inputs": [
        {
          "internalType": "uint256",
          "name": "newPercentage",
          "type": "uint256"
        }
      ],
      "name": "setBurnPercentage",
      "outputs": [],
      "stateMutability": "view",
      "type": "function"
    },
    {
      "inputs": [
        {
          "internalType": "address",
          "name": "_companyTreasuryContract",
          "type": "address"
        }
      ],
      "name": "setCompanyTreasuryContract",
      "outputs": [],
      "stateMutability": "nonpayable",
      "type": "function"
    },
    {
      "inputs": [
        {
          "internalType": "bytes32",
          "name": "feature",
          "type": "bytes32"
        },
        {
          "internalType": "uint256",
          "name": "price",
          "type": "uint256"
        }
      ],
      "name": "setFeaturePricing",
      "outputs": [],
      "stateMutability": "nonpayable",
      "type": "function"
    },
    {
      "inputs": [
        {
          "internalType": "bytes32",
          "name": "feature",
          "type": "bytes32"
        },
        {
          "internalType": "uint256",
          "name": "requirement",
          "type": "uint256"
        }
      ],
      "name": "setFeatureRequirement",
      "outputs": [],
      "stateMutability": "nonpayable",
      "type": "function"
    },
    {
      "inputs": [
        {
          "internalType": "address",
          "name": "_morphoTreasuryContract",
          "type": "address"
        }
      ],
      "name": "setMorphoTreasuryContract",
      "outputs": [],
      "stateMutability": "nonpayable",
      "type": "function"
    },
    {
      "inputs": [
        {
          "internalType": "uint256",
          "name": "amount",
          "type": "uint256"
        },
        {
          "internalType": "string",
          "name": "reason",
          "type": "string"
        }
      ],
      "name": "strategicBurn",
      "outputs": [],
      "stateMutability": "nonpayable",
      "type": "function"
    },
    {
      "inputs": [
        {
          "internalType": "address",
          "name": "",
          "type": "address"
        },
        {
          "internalType": "bytes32",
          "name": "",
          "type": "bytes32"
        }
      ],
      "name": "temporaryAccess",
      "outputs": [
        {
          "internalType": "uint256",
          "name": "",
          "type": "uint256"
        }
      ],
      "stateMutability": "view",
      "type": "function"
    },
    {
      "inputs": [],
      "name": "timeUntilNextBurn",
      "outputs": [
        {
          "internalType": "uint256",
          "name": "",
          "type": "uint256"
        }
      ],
      "stateMutability": "view",
      "type": "function"
    },
    {
      "inputs": [],
      "name": "totalBurned",
      "outputs": [
        {
          "internalType": "uint256",
          "name": "",
          "type": "uint256"
        }
      ],
      "stateMutability": "view",
      "type": "function"
    },
    {
      "inputs": [],
      "name": "totalRevenue",
      "outputs": [
        {
          "internalType": "uint256",
          "name": "",
          "type": "uint256"
        }
      ],
      "stateMutability": "view",
      "type": "function"
    },
    {
      "inputs": [
        {
          "internalType": "address",
          "name": "newOwner",
          "type": "address"
        }
      ],
      "name": "transferOwnership",
      "outputs": [],
      "stateMutability": "nonpayable",
      "type": "function"
    },
    {
      "inputs": [],
      "name": "unpause",
      "outputs": [],
      "stateMutability": "nonpayable",
      "type": "function"
    },
    {
      "inputs": [
        {
          "internalType": "bytes32",
          "name": "feature",
          "type": "bytes32"
        }
      ],
      "name": "useFeature",
      "outputs": [],
      "stateMutability": "nonpayable",
      "type": "function"
    },
    {
      "inputs": [
        {
          "internalType": "address",
          "name": "",
          "type": "address"
        },
        {
          "internalType": "bytes32",
          "name": "",
          "type": "bytes32"
        }
      ],
      "name": "userFeatureUsage",
      "outputs": [
        {
          "internalType": "uint256",
          "name": "",
          "type": "uint256"
        }
      ],
      "stateMutability": "view",
      "type": "function"
    }
  ],
  "bytecode": "0x60806040523480156200001157600080fd5b50600160005533806200003e57604051631e4fbdf760e01b81526000600482015260240160405180910390fd5b6200004981620002b2565b506a295be96e640669720000007f66eddad44c93dd0558e1003b01a4e0f295d66be36ce25c2ca252d535d56dceae8190556a7c13bc4b2c133c560000007fcdd2e53eeaf18ec5f38f57f24026cf06926c90ab44b092680971dd3e46437b01556a18d0bf423c03d8de0000007ffc99c49b7444705c10654f3cc1d41b5b0810f48a0bfea128a73937bf08da6386556a52b7d2dcc80cd2e40000007f1908de9901f837e34fbd66076487da0e278c4f6ec97e479cd8006b0440ced667556acecb8f27f4200f3a0000007f5b5e93bd05d85460aa89d9924e0bbf0cd7476e620e1c59f2fc9e174eb48dd2c6557f65dd133504022a712608e61601c53ce7b6e8fe103bef5f65900f556e5dfe4724556b019d971e4fe8401e740000007f37cb908cb033b4672c1ca0dff40065e9d12bc04fd3d71af05e8343f92c7f6ab0556003602052629896807f50e5d131f8704d08f1c7b0c20e2b5d1eb15fa4e5f179c8166c3fff238cdaba005563017d78407fa5d4e37ac8f96777dae8ea93e91f12703429ecc073338197bbb358a4b1ee32185562e4e1c07fe1de45e32bbeb60683df8e30579f8c69aefd89c311de407144c23723517fa417556301312d007febbd85098ed6fdcde67bbd8058954ecf09fe582d3d9036f16c17e72bb1aaac98556302faf0807f7e3dc27ed770ac3838ce1175815a8de249036c72437bba7cb83fecc9c30677e555624c4b407f2b2a34d4683e8e9cc65bd26ff078c83560475c3d0a62b8b64904804cc092f642556a1d9a5c17dcdd5c1c1bdc9d60aa1b6000526305f5e1007f936a03bb8d7115a1f01b9926173c4d43c0619779937a3accab08c92c3cd58f3c5542600c5562000304565b600180546001600160a01b038381166001600160a01b0319831681179093556040519116919082907f8be0079c531659141344cd1fd0a4f28419497f9722a3daafe3b4186f6b6457e090600090a35050565b612cd680620003146000396000f3fe608060405234801561001057600080fd5b50600436106102f15760003560e01c806395ccea671161019d578063d42cda58116100e9578063e8039ea0116100a2578063eee1e7e51161007c578063eee1e7e514610731578063f2fde38b14610739578063f5cc46511461074c578063fccc28131461075f57600080fd5b8063e8039ea0146106f2578063e81f097e146106fd578063ea0d5dcd1461071057600080fd5b8063d42cda5814610657578063d89135cd14610677578063e001bfbe14610680578063e0637b6a14610693578063e1d37e60146106c1578063e3067449146106e957600080fd5b8063c3412cab11610156578063c9715a2f11610130578063c9715a2f146105ee578063cc58bcdf14610619578063cf3b52be14610647578063d02fd8231461064f57600080fd5b8063c3412cab1461058f578063c3f0d32714610598578063c59d4847146105ab57600080fd5b806395ccea671461051a5780639649b9101461052d578063ad8ea4b614610536578063ba5f138414610549578063bda064eb1461056b578063bf2d9e0b1461058657600080fd5b80635a1ab7801161025c5780637461f24a116102155780638456cb59116101ef5780638456cb59146104d3578063854ca169146104db57806389a30271146104ee5780638da5cb5b1461050957600080fd5b80637461f24a146104a357806374771329146104b65780637b1648e2146104c957600080fd5b80635a1ab780146104395780635ba091c8146104415780635c975abb1461046c5780635ca974a71461048a578063685789cc14610492578063715018a61461049b57600080fd5b806328c582a3116102ae57806328c582a3146103aa5780632ae6fce5146103ca57806337f9a42f146103dd5780633b660aaa146103fd5780633f4ba83a1461040657806340dd0f701461040e57600080fd5b80630a43948e146102f657806313ae89721461030b578063183973df1461032b57806318f591401461033e5780631d2950701461037757806323409a2814610397575b600080fd5b6103096103043660046128b3565b610768565b005b6103136107c1565b60405161032293929190612910565b60405180910390f35b6103096103393660046128b3565b610a3e565b61036961034c36600461296f565b600660209081526000928352604080842090915290825290205481565b604051908152602001610322565b610369610385366004612999565b60036020526000908152604090205481565b6103096103a5366004612999565b610d3b565b6103696103b8366004612999565b60009081526002602052604090205490565b6103096103d83660046129b2565b610e8d565b6103696103eb366004612999565b60026020526000908152604090205481565b61036960085481565b610309610f53565b61036961041c36600461296f565b600560209081526000928352604080842090915290825290205481565b610369610f65565b600e54610454906001600160a01b031681565b6040516001600160a01b039091168152602001610322565b600154600160a01b900460ff165b6040519015158152602001610322565b61047a610f9a565b610369600f5481565b610309610fc3565b61047a6104b136600461296f565b610fd5565b6103096104c43660046129b2565b611109565b6103696276a70081565b6103096111c9565b6103096104e93660046129ea565b6111d9565b61045473a0b86a33e6441b8db72c5ab9cbf4428c7bb060b681565b6001546001600160a01b0316610454565b61030961052836600461296f565b6112d1565b6103696109c481565b61030961054436600461296f565b6113b4565b61055c61055736600461296f565b611416565b60405161032293929190612af5565b61045473746042147240304098c837563aaec0f671881b0781565b610369600b5481565b61036960105481565b6103096105a6366004612999565b61165a565b6105b36116a8565b604080519889526020890197909752958701949094526060860192909252608085015260a084015260c083015260e082015261010001610322565b6103696105fc36600461296f565b600a60209081526000928352604080842090915290825290205481565b61047a61062736600461296f565b600460209081526000928352604080842090915290825290205460ff1681565b610309611769565b610309611ad9565b610369610665366004612999565b60096020526000908152604090205481565b61036960075481565b61030961068e366004612b20565b611e2f565b6106a66106a1366004612999565b611e9f565b60408051938452602084019290925290820152606001610322565b6106c9611f06565b604080519485526020850193909352918301526060820152608001610322565b610369600c5481565b610369633b9aca0081565b61030961070b3660046128b3565b611f8d565b61072361071e3660046129b2565b611fda565b604051610322929190612b53565b6103696123fe565b6103096107473660046129b2565b61245f565b600d54610454906001600160a01b031681565b61045461dead81565b61077061249a565b600082815260026020526040908190208290555182907fc628b3cd4daad3e8dcbb2074db3f9716becc87d652d843c4447064f2e9f9dd42906107b59084815260200190565b60405180910390a25050565b6040805160078082526101008201909252606091829182916020820160e0803683375050604080516007808252610100820190925292955090506020820160e0803683375050604080516007808252610100820190925292945090506020820160e080368337019050509050707072656d69756d5f616e616c797469637360781b8360008151811061085557610855612b74565b60200260200101818152505070637573746f6d5f6d696c6573746f6e657360781b8360018151811061088957610889612b74565b6020026020010181815250506f1c1c9a5bdc9a5d1e57dcdd5c1c1bdc9d60821b836002815181106108bc576108bc612b74565b6020026020010181815250506f616476616e6365645f6a6f75726e657960801b836003815181106108ef576108ef612b74565b602002602001018181525050696170695f61636365737360b01b8360048151811061091c5761091c612b74565b6020026020010181815250506b6561726c795f61636365737360a01b8360058151811061094b5761094b612b74565b6020026020010181815250506a1d9a5c17dcdd5c1c1bdc9d60aa1b8360068151811061097957610979612b74565b60200260200101818152505060005b8351811015610a3857600260008583815181106109a7576109a7612b74565b60200260200101518152602001908152602001600020548382815181106109d0576109d0612b74565b602002602001018181525050600360008583815181106109f2576109f2612b74565b6020026020010151815260200190815260200160002054828281518110610a1b57610a1b612b74565b602090810291909101015280610a3081612ba0565b915050610988565b50909192565b610a466124c7565b610a4e6124f1565b80601e1480610a5d575080605a145b80610a6957508061016d145b610aad5760405162461bcd60e51b815260206004820152601060248201526f24b73b30b634b210323ab930ba34b7b760811b60448201526064015b60405180910390fd5b600082815260036020526040902054610b135760405162461bcd60e51b815260206004820152602260248201527f46656174757265206e6f7420617661696c61626c6520666f7220707572636861604482015261736560f01b6064820152608401610aa4565b60008281526003602052604081205490601e839003610b33575080610b89565b82605a03610b64576064610b48836003612bb9565b610b5390605a612bb9565b610b5d9190612bd0565b9050610b89565b6064610b7183600c612bb9565b610b7c906050612bb9565b610b869190612bd0565b90505b6040516323b872dd60e01b81523360048201523060248201526044810182905273a0b86a33e6441b8db72c5ab9cbf4428c7bb060b6906323b872dd906064016020604051808303816000875af1158015610be7573d6000803e3d6000fd5b505050506040513d601f19601f82011682018060405250810190610c0b9190612bf2565b506000610c1b8462015180612bb9565b90506000610c298242612c14565b3360009081526006602090815260408083208a8452909152902054909150421015610c7757336000908152600660209081526040808320898452909152902054610c74908390612c14565b90505b3360009081526006602090815260408083208984529091528120829055600b8054859290610ca6908490612c14565b90915550610cb4905061251c565b6040805184815260208101879052879133917facd689fe0bc9dbefee6159adbd0c9ef0f46be29f83a058385005d45881388bcf910160405180910390a3604080518481523360208201527f49e0259d970ee909725cdedb7db23d64059624e6181575b9dd0fc7092f4aafcc910160405180910390a150505050610d376001600055565b5050565b610d436124c7565b610d4b6124f1565b604051633a30f92560e11b8152336004820152602481018290523090637461f24a90604401602060405180830381865afa158015610d8d573d6000803e3d6000fd5b505050506040513d601f19601f82011682018060405250810190610db19190612bf2565b610e095760405162461bcd60e51b8152602060048201526024808201527f496e73756666696369656e7420534f4c41522062616c616e6365206f722061636044820152636365737360e01b6064820152608401610aa4565b6000818152600960205260408120805491610e2383612ba0565b9091555050336000908152600a602090815260408083208484529091528120805491610e4e83612ba0565b9091555050604051819033907f99eb89a418a1671959263204b23efbfd9f0213f778a5138d4de28592e6371bd790600090a3610e8a6001600055565b50565b610e9561249a565b6001600160a01b038116610edd5760405162461bcd60e51b815260206004820152600f60248201526e496e76616c6964206164647265737360881b6044820152606401610aa4565b600d80546001600160a01b0319166001600160a01b03831690811790915560408051818152600691810191909152656d6f7270686f60d01b606082015260208101919091527f165ece555b5310854c532cd54f93d107cca5f267c89f0ff0edf559cbec150b3c906080015b60405180910390a150565b610f5b61249a565b610f6361279f565b565b6000806276a700600c54610f799190612c14565b9050804210610f8a57600091505090565b610f944282612c27565b91505090565b60006276a700600c54610fad9190612c14565b4210158015610fbe57506000600b54115b905090565b610fcb61249a565b610f6360006127f4565b6001600160a01b038216600090815260046020908152604080832084845290915281205460ff161561100957506001611103565b6001600160a01b038316600090815260056020908152604080832085845290915290205442101561103c57506001611103565b6001600160a01b038316600090815260066020908152604080832085845290915290205442101561106f57506001611103565b6040516370a0823160e01b81526001600160a01b038416600482015260009073746042147240304098c837563aaec0f671881b07906370a0823190602401602060405180830381865afa1580156110ca573d6000803e3d6000fd5b505050506040513d601f19601f820116820180604052508101906110ee9190612c3a565b60008481526002602052604090205411159150505b92915050565b61111161249a565b6001600160a01b0381166111595760405162461bcd60e51b815260206004820152600f60248201526e496e76616c6964206164647265737360881b6044820152606401610aa4565b600e80546001600160a01b0319166001600160a01b0383169081179091556040805181815260079181019190915266636f6d70616e7960c81b606082015260208101919091527f165ece555b5310854c532cd54f93d107cca5f267c89f0ff0edf559cbec150b3c90608001610f48565b6111d161249a565b610f63612846565b6111e161249a565b6040516323b872dd60e01b815233600482015261dead60248201526044810183905273746042147240304098c837563aaec0f671881b07906323b872dd906064016020604051808303816000875af1158015611241573d6000803e3d6000fd5b505050506040513d601f19601f820116820180604052508101906112659190612bf2565b5081600760008282546112789190612c14565b90915550506008805490600061128d83612ba0565b91905055507fd92408cbc24732a9457f996472dcdfd7723e5b548a1f0c6991845f2609a719db8282336040516112c593929190612c53565b60405180910390a15050565b6112d961249a565b73746042147240304098c837563aaec0f671881b06196001600160a01b0383160161133e5760405162461bcd60e51b815260206004820152601560248201527421b0b73737ba103bb4ba34323930bb9029a7a620a960591b6044820152606401610aa4565b60405163a9059cbb60e01b8152336004820152602481018290526001600160a01b0383169063a9059cbb906044016020604051808303816000875af115801561138b573d6000803e3d6000fd5b505050506040513d601f19601f820116820180604052508101906113af9190612bf2565b505050565b6113bc61249a565b6001600160a01b0382166000818152600460209081526040808320858452909152808220805460ff19166001179055518392917f722462de87a2f02b3af39c8fb4889409a7978b8bdeaec9f052fdc434ea996f9b91a35050565b6001600160a01b0382166000908152600460209081526040808320848452909152812054606090829060ff16156114745750506040805180820190915260098152681c195c9b585b995b9d60ba1b6020820152600191506000611653565b6001600160a01b03851660009081526005602090815260408083208784529091529020544210156114f0575050506001600160a01b0382166000908152600560209081526040808320848452825291829020548251808401909352600983526874656d706f7261727960b81b9183019190915260019190611653565b6001600160a01b0385166000908152600660209081526040808320878452909152902054421015611567575050506001600160a01b038216600090815260066020908152604080832084845282529182902054825180840190935260048352631c185a5960e21b9183019190915260019190611653565b6040516370a0823160e01b81526001600160a01b038616600482015260009073746042147240304098c837563aaec0f671881b07906370a0823190602401602060405180830381865afa1580156115c2573d6000803e3d6000fd5b505050506040513d601f19601f820116820180604052508101906115e69190612c3a565b60008681526002602052604090205490915080821061162c57505060408051808201909152600581526439b7b630b960d91b602082015260019350915060009050611653565b50506040805180820190915260048152636e6f6e6560e01b60208201526000935091508290505b9250925092565b61166261249a565b611388811115610e8a5760405162461bcd60e51b815260206004820152601160248201527043616e6e6f74206578636565642035302560781b6044820152606401610aa4565b600754600854600b54600c546c01431e0fae6d7217caa0000000939291906000908190819081906116dd906276a70090612c14565b6040516370a0823160e01b815230600482015290945073a0b86a33e6441b8db72c5ab9cbf4428c7bb060b6906370a0823190602401602060405180830381865afa15801561172f573d6000803e3d6000fd5b505050506040513d601f19601f820116820180604052508101906117539190612c3a565b9250600f54915060105490509091929394959697565b61177161249a565b6040516370a0823160e01b815230600482015260009073a0b86a33e6441b8db72c5ab9cbf4428c7bb060b6906370a0823190602401602060405180830381865afa1580156117c3573d6000803e3d6000fd5b505050506040513d601f19601f820116820180604052508101906117e79190612c3a565b90506000811161182e5760405162461bcd60e51b8152602060048201526012602482015271139bc81554d110c81d1bc819195c1bdcda5d60721b6044820152606401610aa4565b600061183b600283612bd0565b905060006118498284612c27565b600d549091506001600160a01b0316158015906118665750600082115b156119e057600d5460405163a9059cbb60e01b81526001600160a01b0390911660048201526024810183905273a0b86a33e6441b8db72c5ab9cbf4428c7bb060b69063a9059cbb906044016020604051808303816000875af11580156118d0573d6000803e3d6000fd5b505050506040513d601f19601f820116820180604052508101906118f49190612bf2565b5081600f60008282546119079190612c14565b9091555050600d54604051602481018490526000916001600160a01b03169060440160408051601f198184030181529181526020820180516001600160e01b03166363ec512d60e01b1790525161195e9190612c84565b6000604051808303816000865af19150503d806000811461199b576040519150601f19603f3d011682016040523d82523d6000602084013e6119a0565b606091505b5050905080156119de576040518381527f136bf5f01d0758622ba886621b1834c6204220ad7fd36f888398706b63b7e2809060200160405180910390a15b505b600e546001600160a01b0316158015906119fa5750600081115b156113af57600e5460405163a9059cbb60e01b81526001600160a01b0390911660048201526024810182905273a0b86a33e6441b8db72c5ab9cbf4428c7bb060b69063a9059cbb906044015b6020604051808303816000875af1158015611a65573d6000803e3d6000fd5b505050506040513d601f19601f82011682018060405250810190611a899190612bf2565b508060106000828254611a9c9190612c14565b90915550506040518181527f6a66e2462c075f6b19f38132b632996aa9e7fef5d6d7c8f06908b05f8a1e26339060200160405180910390a1505050565b611ae16124c7565b6276a700600c54611af29190612c14565b421015611b415760405162461bcd60e51b815260206004820152601c60248201527f546f6f206561726c7920666f7220717561727465726c79206275726e000000006044820152606401610aa4565b6000600b5411611b885760405162461bcd60e51b81526020600482015260126024820152712737903932bb32b73ab2903a3790313ab93760711b6044820152606401610aa4565b6000611b926123fe565b905060008111611be45760405162461bcd60e51b815260206004820152601b60248201527f4e6f20534f4c415220617661696c61626c6520666f72206275726e00000000006044820152606401610aa4565b6040516370a0823160e01b8152306004820152819073746042147240304098c837563aaec0f671881b07906370a0823190602401602060405180830381865afa158015611c35573d6000803e3d6000fd5b505050506040513d601f19601f82011682018060405250810190611c599190612c3a565b10611ce25760405163a9059cbb60e01b815261dead60048201526024810182905273746042147240304098c837563aaec0f671881b079063a9059cbb906044016020604051808303816000875af1158015611cb8573d6000803e3d6000fd5b505050506040513d601f19601f82011682018060405250810190611cdc9190612bf2565b50611d89565b73746042147240304098c837563aaec0f671881b076323b872dd611d0e6001546001600160a01b031690565b6040516001600160e01b031960e084901b1681526001600160a01b03909116600482015261dead6024820152604481018490526064016020604051808303816000875af1158015611d63573d6000803e3d6000fd5b505050506040513d601f19601f82011682018060405250810190611d879190612bf2565b505b8060076000828254611d9b9190612c14565b909155505060088054906000611db083612ba0565b909155505042600c556000600b55604080518281526060602082018190526016908201527528bab0b93a32b9363c903932bb32b73ab290313ab93760511b6080820152338183015290517fd92408cbc24732a9457f996472dcdfd7723e5b548a1f0c6991845f2609a719db9181900360a00190a150610f636001600055565b611e3761249a565b611e418142612c14565b6001600160a01b0384166000818152600560209081526040808320878452825291829020939093555183815284927f4bf5367b54d86733931cbf6be0f2420776f4a453be9bd79ed2e9e849627dbd2a910160405180910390a3505050565b6000818152600360208190526040822054919081908390606490611ec4908390612bb9565b611ecf90605a612bb9565b611ed99190612bd0565b92506064611ee882600c612bb9565b611ef3906050612bb9565b611efd9190612bd0565b93959294505050565b600b54600f546010546040516370a0823160e01b815230600482015260009073a0b86a33e6441b8db72c5ab9cbf4428c7bb060b6906370a0823190602401602060405180830381865afa158015611f61573d6000803e3d6000fd5b505050506040513d601f19601f82011682018060405250810190611f859190612c3a565b905090919293565b611f9561249a565b600082815260036020526040908190208290555182907f4edf5db7303532cd43bd000861f04e61164ccf2ad63f5ee1ddf79f3defbba47d906107b59084815260200190565b6040516370a0823160e01b81526001600160a01b038216600482015260009060609073746042147240304098c837563aaec0f671881b07906370a0823190602401602060405180830381865afa158015612038573d6000803e3d6000fd5b505050506040513d601f19601f8201168201806040525081019061205c9190612c3a565b6040805160078082526101008201909252919350600091906020820160e080368337019050509050707072656d69756d5f616e616c797469637360781b816000815181106120ac576120ac612b74565b60200260200101818152505070637573746f6d5f6d696c6573746f6e657360781b816001815181106120e0576120e0612b74565b6020026020010181815250506f1c1c9a5bdc9a5d1e57dcdd5c1c1bdc9d60821b8160028151811061211357612113612b74565b6020026020010181815250506f616476616e6365645f6a6f75726e657960801b8160038151811061214657612146612b74565b602002602001018181525050696170695f61636365737360b01b8160048151811061217357612173612b74565b6020026020010181815250506b6561726c795f61636365737360a01b816005815181106121a2576121a2612b74565b6020026020010181815250506a1d9a5c17dcdd5c1c1bdc9d60aa1b816006815181106121d0576121d0612b74565b6020026020010181815250506000805b82518110156122aa57306001600160a01b0316637461f24a8785848151811061220b5761220b612b74565b60200260200101516040518363ffffffff1660e01b81526004016122449291906001600160a01b03929092168252602082015260400190565b602060405180830381865afa158015612261573d6000803e3d6000fd5b505050506040513d601f19601f820116820180604052508101906122859190612bf2565b15612298578161229481612ba0565b9250505b806122a281612ba0565b9150506121e0565b508067ffffffffffffffff8111156122c4576122c46129d4565b6040519080825280602002602001820160405280156122ed578160200160208202803683370190505b5092506000805b83518110156123f557306001600160a01b0316637461f24a8886848151811061231f5761231f612b74565b60200260200101516040518363ffffffff1660e01b81526004016123589291906001600160a01b03929092168252602082015260400190565b602060405180830381865afa158015612375573d6000803e3d6000fd5b505050506040513d601f19601f820116820180604052508101906123999190612bf2565b156123e3578381815181106123b0576123b0612b74565b60200260200101518583815181106123ca576123ca612b74565b6020908102919091010152816123df81612ba0565b9250505b806123ed81612ba0565b9150506122f4565b50505050915091565b6000600b546000036124105750600090565b600069d3c21bcecceda1000000905060006127106109c4600b546124349190612bb9565b61243e9190612bd0565b9050620f424061244e8383612bb9565b6124589190612bd0565b9250505090565b61246761249a565b6001600160a01b03811661249157604051631e4fbdf760e01b815260006004820152602401610aa4565b610e8a816127f4565b6001546001600160a01b03163314610f635760405163118cdaa760e01b8152336004820152602401610aa4565b6002600054036124ea57604051633ee5aeb560e01b815260040160405180910390fd5b6002600055565b600154600160a01b900460ff1615610f635760405163d93c066560e01b815260040160405180910390fd5b6040516370a0823160e01b815230600482015260009073a0b86a33e6441b8db72c5ab9cbf4428c7bb060b6906370a0823190602401602060405180830381865afa15801561256e573d6000803e3d6000fd5b505050506040513d601f19601f820116820180604052508101906125929190612c3a565b9050633b9aca008110610e8a5760006125ac600283612bd0565b905060006125ba8284612c27565b600d549091506001600160a01b03161561274357600d5460405163a9059cbb60e01b81526001600160a01b0390911660048201526024810183905273a0b86a33e6441b8db72c5ab9cbf4428c7bb060b69063a9059cbb906044016020604051808303816000875af1158015612633573d6000803e3d6000fd5b505050506040513d601f19601f820116820180604052508101906126579190612bf2565b5081600f600082825461266a9190612c14565b9091555050600d54604051602481018490526000916001600160a01b03169060440160408051601f198184030181529181526020820180516001600160e01b03166363ec512d60e01b179052516126c19190612c84565b6000604051808303816000865af19150503d80600081146126fe576040519150601f19603f3d011682016040523d82523d6000602084013e612703565b606091505b505090508015612741576040518381527f136bf5f01d0758622ba886621b1834c6204220ad7fd36f888398706b63b7e2809060200160405180910390a15b505b600e546001600160a01b0316156113af57600e5460405163a9059cbb60e01b81526001600160a01b0390911660048201526024810182905273a0b86a33e6441b8db72c5ab9cbf4428c7bb060b69063a9059cbb90604401611a46565b6127a7612889565b6001805460ff60a01b191690557f5db9ee0a495bf2e6ff9c91a7834c1ba4fdd244a5e8aa4e537bd38aeae4b073aa335b6040516001600160a01b03909116815260200160405180910390a1565b600180546001600160a01b038381166001600160a01b0319831681179093556040519116919082907f8be0079c531659141344cd1fd0a4f28419497f9722a3daafe3b4186f6b6457e090600090a35050565b61284e6124f1565b6001805460ff60a01b1916600160a01b1790557f62e78cea01bee320cd4e420270b5ea74000d11b0c9f74754ebdbfc544b05a2586127d73390565b600154600160a01b900460ff16610f6357604051638dfc202b60e01b815260040160405180910390fd5b600080604083850312156128c657600080fd5b50508035926020909101359150565b600081518084526020808501945080840160005b83811015612905578151875295820195908201906001016128e9565b509495945050505050565b60608152600061292360608301866128d5565b828103602084015261293581866128d5565b9050828103604084015261294981856128d5565b9695505050505050565b80356001600160a01b038116811461296a57600080fd5b919050565b6000806040838503121561298257600080fd5b61298b83612953565b946020939093013593505050565b6000602082840312156129ab57600080fd5b5035919050565b6000602082840312156129c457600080fd5b6129cd82612953565b9392505050565b634e487b7160e01b600052604160045260246000fd5b600080604083850312156129fd57600080fd5b82359150602083013567ffffffffffffffff80821115612a1c57600080fd5b818501915085601f830112612a3057600080fd5b813581811115612a4257612a426129d4565b604051601f8201601f19908116603f01168101908382118183101715612a6a57612a6a6129d4565b81604052828152886020848701011115612a8357600080fd5b8260208601602083013760006020848301015280955050505050509250929050565b60005b83811015612ac0578181015183820152602001612aa8565b50506000910152565b60008151808452612ae1816020860160208601612aa5565b601f01601f19169290920160200192915050565b8315158152606060208201526000612b106060830185612ac9565b9050826040830152949350505050565b600080600060608486031215612b3557600080fd5b612b3e84612953565b95602085013595506040909401359392505050565b828152604060208201526000612b6c60408301846128d5565b949350505050565b634e487b7160e01b600052603260045260246000fd5b634e487b7160e01b600052601160045260246000fd5b600060018201612bb257612bb2612b8a565b5060010190565b808202811582820484141761110357611103612b8a565b600082612bed57634e487b7160e01b600052601260045260246000fd5b500490565b600060208284031215612c0457600080fd5b815180151581146129cd57600080fd5b8082018082111561110357611103612b8a565b8181038181111561110357611103612b8a565b600060208284031215612c4c57600080fd5b5051919050565b838152606060208201526000612c6c6060830185612ac9565b905060018060a01b0383166040830152949350505050565b60008251612c96818460208701612aa5565b919091019291505056fea2646970667358221220c222e237edcccb0c384f6662ae1ffdbba0995b1a7a015608aa164781aa018ef264736f6c63430008140033",
  "linkReferences": {},
  "deployedLinkReferences": {}
}