{
  "_format": "hh-sol-artifact-1",
  "contractName": "MorphoTreasury",
  "sourceName": "contracts/deployment/MorphoTreasury.sol",
  "abi": [
    {
      "inputs": [
        {
          "internalType": "address",
          "name": "_stakingContract",
          "type": "address"
        },
        {
          "internalType": "address",
          "name": "_burnContract",
          "type": "address"
        },
        {
          "internalType": "address",
          "name": "_airdropContract",
          "type": "address"
        },
        {
          "internalType": "address",
          "name": "_developmentContract",
          "type": "address"
        }
      ],
      "stateMutability": "nonpayable",
      "type": "constructor"
    },
    {
      "inputs": [],
      "name": "EnforcedPause",
      "type": "error"
    },
    {
      "inputs": [],
      "name": "ExpectedPause",
      "type": "error"
    },
    {
      "inputs": [
        {
          "internalType": "address",
          "name": "owner",
          "type": "address"
        }
      ],
      "name": "OwnableInvalidOwner",
      "type": "error"
    },
    {
      "inputs": [
        {
          "internalType": "address",
          "name": "account",
          "type": "address"
        }
      ],
      "name": "OwnableUnauthorizedAccount",
      "type": "error"
    },
    {
      "inputs": [],
      "name": "ReentrancyGuardReentrantCall",
      "type": "error"
    },
    {
      "anonymous": false,
      "inputs": [
        {
          "indexed": false,
          "internalType": "string",
          "name": "contractType",
          "type": "string"
        },
        {
          "indexed": false,
          "internalType": "address",
          "name": "newAddress",
          "type": "address"
        }
      ],
      "name": "ContractUpdated",
      "type": "event"
    },
    {
      "anonymous": false,
      "inputs": [
        {
          "indexed": true,
          "internalType": "address",
          "name": "previousOwner",
          "type": "address"
        },
        {
          "indexed": true,
          "internalType": "address",
          "name": "newOwner",
          "type": "address"
        }
      ],
      "name": "OwnershipTransferred",
      "type": "event"
    },
    {
      "anonymous": false,
      "inputs": [
        {
          "indexed": false,
          "internalType": "address",
          "name": "account",
          "type": "address"
        }
      ],
      "name": "Paused",
      "type": "event"
    },
    {
      "anonymous": false,
      "inputs": [
        {
          "indexed": false,
          "internalType": "uint256",
          "name": "amount",
          "type": "uint256"
        },
        {
          "indexed": false,
          "internalType": "uint256",
          "name": "morphoShares",
          "type": "uint256"
        }
      ],
      "name": "USDCDeposited",
      "type": "event"
    },
    {
      "anonymous": false,
      "inputs": [
        {
          "indexed": false,
          "internalType": "uint256",
          "name": "amount",
          "type": "uint256"
        },
        {
          "indexed": false,
          "internalType": "address",
          "name": "recipient",
          "type": "address"
        }
      ],
      "name": "USDCWithdrawn",
      "type": "event"
    },
    {
      "anonymous": false,
      "inputs": [
        {
          "indexed": false,
          "internalType": "address",
          "name": "account",
          "type": "address"
        }
      ],
      "name": "Unpaused",
      "type": "event"
    },
    {
      "anonymous": false,
      "inputs": [
        {
          "indexed": true,
          "internalType": "address",
          "name": "recipient",
          "type": "address"
        },
        {
          "indexed": false,
          "internalType": "uint256",
          "name": "amount",
          "type": "uint256"
        }
      ],
      "name": "YieldClaimed",
      "type": "event"
    },
    {
      "anonymous": false,
      "inputs": [
        {
          "indexed": false,
          "internalType": "uint256",
          "name": "totalYield",
          "type": "uint256"
        },
        {
          "indexed": false,
          "internalType": "uint256",
          "name": "stakingShare",
          "type": "uint256"
        },
        {
          "indexed": false,
          "internalType": "uint256",
          "name": "burnShare",
          "type": "uint256"
        },
        {
          "indexed": false,
          "internalType": "uint256",
          "name": "airdropShare",
          "type": "uint256"
        },
        {
          "indexed": false,
          "internalType": "uint256",
          "name": "developmentShare",
          "type": "uint256"
        }
      ],
      "name": "YieldDistributed",
      "type": "event"
    },
    {
      "inputs": [],
      "name": "AIRDROP_YIELD_SHARE",
      "outputs": [
        {
          "internalType": "uint256",
          "name": "",
          "type": "uint256"
        }
      ],
      "stateMutability": "view",
      "type": "function"
    },
    {
      "inputs": [],
      "name": "BURN_YIELD_SHARE",
      "outputs": [
        {
          "internalType": "uint256",
          "name": "",
          "type": "uint256"
        }
      ],
      "stateMutability": "view",
      "type": "function"
    },
    {
      "inputs": [],
      "name": "DEVELOPMENT_YIELD_SHARE",
      "outputs": [
        {
          "internalType": "uint256",
          "name": "",
          "type": "uint256"
        }
      ],
      "stateMutability": "view",
      "type": "function"
    },
    {
      "inputs": [],
      "name": "MORPHO",
      "outputs": [
        {
          "internalType": "contract IMorpho",
          "name": "",
          "type": "address"
        }
      ],
      "stateMutability": "view",
      "type": "function"
    },
    {
      "inputs": [],
      "name": "STAKING_YIELD_SHARE",
      "outputs": [
        {
          "internalType": "uint256",
          "name": "",
          "type": "uint256"
        }
      ],
      "stateMutability": "view",
      "type": "function"
    },
    {
      "inputs": [],
      "name": "USDC",
      "outputs": [
        {
          "internalType": "contract IERC20",
          "name": "",
          "type": "address"
        }
      ],
      "stateMutability": "view",
      "type": "function"
    },
    {
      "inputs": [],
      "name": "USDC_MARKET",
      "outputs": [
        {
          "internalType": "address",
          "name": "",
          "type": "address"
        }
      ],
      "stateMutability": "view",
      "type": "function"
    },
    {
      "inputs": [],
      "name": "accumulatedYield",
      "outputs": [
        {
          "internalType": "uint256",
          "name": "",
          "type": "uint256"
        }
      ],
      "stateMutability": "view",
      "type": "function"
    },
    {
      "inputs": [
        {
          "internalType": "uint256",
          "name": "amount",
          "type": "uint256"
        }
      ],
      "name": "addRevenue",
      "outputs": [],
      "stateMutability": "nonpayable",
      "type": "function"
    },
    {
      "inputs": [],
      "name": "airdropContract",
      "outputs": [
        {
          "internalType": "address",
          "name": "",
          "type": "address"
        }
      ],
      "stateMutability": "view",
      "type": "function"
    },
    {
      "inputs": [],
      "name": "burnContract",
      "outputs": [
        {
          "internalType": "address",
          "name": "",
          "type": "address"
        }
      ],
      "stateMutability": "view",
      "type": "function"
    },
    {
      "inputs": [
        {
          "internalType": "uint256",
          "name": "amount",
          "type": "uint256"
        }
      ],
      "name": "claimYield",
      "outputs": [],
      "stateMutability": "nonpayable",
      "type": "function"
    },
    {
      "inputs": [
        {
          "internalType": "uint256",
          "name": "amount",
          "type": "uint256"
        }
      ],
      "name": "depositToMorpho",
      "outputs": [],
      "stateMutability": "nonpayable",
      "type": "function"
    },
    {
      "inputs": [],
      "name": "developmentContract",
      "outputs": [
        {
          "internalType": "address",
          "name": "",
          "type": "address"
        }
      ],
      "stateMutability": "view",
      "type": "function"
    },
    {
      "inputs": [
        {
          "internalType": "address",
          "name": "token",
          "type": "address"
        },
        {
          "internalType": "uint256",
          "name": "amount",
          "type": "uint256"
        }
      ],
      "name": "emergencyWithdraw",
      "outputs": [],
      "stateMutability": "nonpayable",
      "type": "function"
    },
    {
      "inputs": [],
      "name": "estimateCurrentYield",
      "outputs": [
        {
          "internalType": "uint256",
          "name": "estimatedYield",
          "type": "uint256"
        }
      ],
      "stateMutability": "view",
      "type": "function"
    },
    {
      "inputs": [],
      "name": "forceYieldUpdate",
      "outputs": [],
      "stateMutability": "nonpayable",
      "type": "function"
    },
    {
      "inputs": [
        {
          "internalType": "address",
          "name": "user",
          "type": "address"
        }
      ],
      "name": "getAvailableYield",
      "outputs": [
        {
          "internalType": "uint256",
          "name": "available",
          "type": "uint256"
        }
      ],
      "stateMutability": "view",
      "type": "function"
    },
    {
      "inputs": [],
      "name": "getCurrentBalance",
      "outputs": [
        {
          "internalType": "uint256",
          "name": "balance",
          "type": "uint256"
        }
      ],
      "stateMutability": "view",
      "type": "function"
    },
    {
      "inputs": [],
      "name": "getEstimatedAPY",
      "outputs": [
        {
          "internalType": "uint256",
          "name": "apy",
          "type": "uint256"
        }
      ],
      "stateMutability": "view",
      "type": "function"
    },
    {
      "inputs": [],
      "name": "getMorphoBalance",
      "outputs": [
        {
          "internalType": "uint256",
          "name": "morphoBalance",
          "type": "uint256"
        }
      ],
      "stateMutability": "view",
      "type": "function"
    },
    {
      "inputs": [],
      "name": "getTreasuryStats",
      "outputs": [
        {
          "internalType": "uint256",
          "name": "totalBalance",
          "type": "uint256"
        },
        {
          "internalType": "uint256",
          "name": "deposited",
          "type": "uint256"
        },
        {
          "internalType": "uint256",
          "name": "withdrawn",
          "type": "uint256"
        },
        {
          "internalType": "uint256",
          "name": "totalYield",
          "type": "uint256"
        },
        {
          "internalType": "uint256",
          "name": "lastUpdate",
          "type": "uint256"
        }
      ],
      "stateMutability": "view",
      "type": "function"
    },
    {
      "inputs": [],
      "name": "lastYieldUpdate",
      "outputs": [
        {
          "internalType": "uint256",
          "name": "",
          "type": "uint256"
        }
      ],
      "stateMutability": "view",
      "type": "function"
    },
    {
      "inputs": [],
      "name": "needsYieldUpdate",
      "outputs": [
        {
          "internalType": "bool",
          "name": "needed",
          "type": "bool"
        }
      ],
      "stateMutability": "view",
      "type": "function"
    },
    {
      "inputs": [],
      "name": "owner",
      "outputs": [
        {
          "internalType": "address",
          "name": "",
          "type": "address"
        }
      ],
      "stateMutability": "view",
      "type": "function"
    },
    {
      "inputs": [],
      "name": "pause",
      "outputs": [],
      "stateMutability": "nonpayable",
      "type": "function"
    },
    {
      "inputs": [],
      "name": "paused",
      "outputs": [
        {
          "internalType": "bool",
          "name": "",
          "type": "bool"
        }
      ],
      "stateMutability": "view",
      "type": "function"
    },
    {
      "inputs": [],
      "name": "renounceOwnership",
      "outputs": [],
      "stateMutability": "nonpayable",
      "type": "function"
    },
    {
      "inputs": [
        {
          "internalType": "address",
          "name": "newAirdropContract",
          "type": "address"
        }
      ],
      "name": "setAirdropContract",
      "outputs": [],
      "stateMutability": "nonpayable",
      "type": "function"
    },
    {
      "inputs": [
        {
          "internalType": "address",
          "name": "newBurnContract",
          "type": "address"
        }
      ],
      "name": "setBurnContract",
      "outputs": [],
      "stateMutability": "nonpayable",
      "type": "function"
    },
    {
      "inputs": [
        {
          "internalType": "address",
          "name": "newDevelopmentContract",
          "type": "address"
        }
      ],
      "name": "setDevelopmentContract",
      "outputs": [],
      "stateMutability": "nonpayable",
      "type": "function"
    },
    {
      "inputs": [
        {
          "internalType": "address",
          "name": "newStakingContract",
          "type": "address"
        }
      ],
      "name": "setStakingContract",
      "outputs": [],
      "stateMutability": "nonpayable",
      "type": "function"
    },
    {
      "inputs": [],
      "name": "stakingContract",
      "outputs": [
        {
          "internalType": "address",
          "name": "",
          "type": "address"
        }
      ],
      "stateMutability": "view",
      "type": "function"
    },
    {
      "inputs": [],
      "name": "totalDeposited",
      "outputs": [
        {
          "internalType": "uint256",
          "name": "",
          "type": "uint256"
        }
      ],
      "stateMutability": "view",
      "type": "function"
    },
    {
      "inputs": [],
      "name": "totalWithdrawn",
      "outputs": [
        {
          "internalType": "uint256",
          "name": "",
          "type": "uint256"
        }
      ],
      "stateMutability": "view",
      "type": "function"
    },
    {
      "inputs": [
        {
          "internalType": "address",
          "name": "newOwner",
          "type": "address"
        }
      ],
      "name": "transferOwnership",
      "outputs": [],
      "stateMutability": "nonpayable",
      "type": "function"
    },
    {
      "inputs": [],
      "name": "unpause",
      "outputs": [],
      "stateMutability": "nonpayable",
      "type": "function"
    },
    {
      "inputs": [],
      "name": "updateYield",
      "outputs": [],
      "stateMutability": "nonpayable",
      "type": "function"
    },
    {
      "inputs": [
        {
          "internalType": "uint256",
          "name": "amount",
          "type": "uint256"
        },
        {
          "internalType": "address",
          "name": "recipient",
          "type": "address"
        }
      ],
      "name": "withdrawFromMorpho",
      "outputs": [],
      "stateMutability": "nonpayable",
      "type": "function"
    },
    {
      "inputs": [
        {
          "internalType": "address",
          "name": "",
          "type": "address"
        }
      ],
      "name": "yieldAllocated",
      "outputs": [
        {
          "internalType": "uint256",
          "name": "",
          "type": "uint256"
        }
      ],
      "stateMutability": "view",
      "type": "function"
    },
    {
      "inputs": [
        {
          "internalType": "address",
          "name": "",
          "type": "address"
        }
      ],
      "name": "yieldClaimed",
      "outputs": [
        {
          "internalType": "uint256",
          "name": "",
          "type": "uint256"
        }
      ],
      "stateMutability": "view",
      "type": "function"
    }
  ],
  "bytecode": "0x60806040523480156200001157600080fd5b5060405162001f6338038062001f63833981016040819052620000349162000133565b600160005533806200006057604051631e4fbdf760e01b81526000600482015260240160405180910390fd5b6200006b81620000c4565b50600680546001600160a01b039586166001600160a01b03199182161790915560078054948616948216949094179093556008805492851692841692909217909155600980549190931691161790554260045562000190565b600180546001600160a01b038381166001600160a01b0319831681179093556040519116919082907f8be0079c531659141344cd1fd0a4f28419497f9722a3daafe3b4186f6b6457e090600090a35050565b80516001600160a01b03811681146200012e57600080fd5b919050565b600080600080608085870312156200014a57600080fd5b620001558562000116565b9350620001656020860162000116565b9250620001756040860162000116565b9150620001856060860162000116565b905092959194509250565b611dc380620001a06000396000f3fe608060405234801561001057600080fd5b50600436106102535760003560e01c80638f8c8aee11610146578063bf640de7116100c3578063f22645a811610087578063f22645a8146104db578063f2fde38b146104ee578063f78fae4614610501578063fcdfd5c514610509578063fe24881514610512578063ff50abdc1461051b57600080fd5b8063bf640de71461046a578063c8692e3f1461047d578063ccaad55d146104ad578063d224ff73146104b5578063ee99205c146104c857600080fd5b8063a481293f1161010a578063a481293f1461042c578063a574971014610434578063ab2be7261461043c578063b23258761461044f578063bb21a9971461046257600080fd5b80638f8c8aee146103d9578063932b334e146103e257806395ccea67146103eb5780639dd373b9146103fe578063a13c58471461041157600080fd5b80634b319713116101d4578063715018a611610198578063715018a61461039a5780638456cb59146103a257806389a30271146103aa5780638da5cb5b146103bf5780638dac0157146103d057600080fd5b80634b3197131461032d5780634c859eaf146103365780635c975abb1461035657806363ec512d146103745780636f0115381461038757600080fd5b80633bdcfc1f1161021b5780633bdcfc1f146102d75780633f4ba83a146102ea57806340bd2e23146102f257806342879af11461030557806345bba6971461030d57600080fd5b80630e085281146102585780630efb03d3146102735780631c0973a41461027c57806337beafe0146102a75780633acb5624146102bc575b600080fd5b610260610524565b6040519081526020015b60405180910390f35b610260610fa081565b60075461028f906001600160a01b031681565b6040516001600160a01b03909116815260200161026a565b6102ba6102b5366004611b6c565b6105bb565b005b61028f73bbbbbbbbbb9cc5e90e3b3af64bdaf62c37eeffcb81565b6102ba6102e5366004611b87565b610654565b6102ba6109a2565b6102ba610300366004611b87565b6109b4565b610260610c9a565b61026061031b366004611b6c565b600b6020526000908152604090205481565b61026060035481565b610260610344366004611b6c565b600a6020526000908152604090205481565b600154600160a01b900460ff165b604051901515815260200161026a565b6102ba610382366004611b87565b610cef565b6102ba610395366004611b6c565b610d81565b6102ba610e0d565b6102ba610e1f565b61028f600080516020611d6e83398151915281565b6001546001600160a01b031661028f565b610260610bb881565b61026060045481565b6102606107d081565b6102ba6103f9366004611ba0565b610e2f565b6102ba61040c366004611b6c565b610ead565b61028f73111111111111111111111111111111111111111181565b610364610f39565b610260610f54565b60085461028f906001600160a01b031681565b61026061045d366004611b6c565b611061565b6102ba611095565b6102ba610478366004611bca565b6112cb565b6104856116a3565b604080519586526020860194909452928401919091526060830152608082015260a00161026a565b6102606116d0565b60095461028f906001600160a01b031681565b60065461028f906001600160a01b031681565b6102ba6104e9366004611b6c565b61174e565b6102ba6104fc366004611b6c565b6117de565b6102ba611819565b61026060055481565b6102606103e881565b61026060025481565b604051633de222bb60e21b8152306004820152731111111111111111111111111111111111111111602482015260009073bbbbbbbbbb9cc5e90e3b3af64bdaf62c37eeffcb9063f7888aec90604401602060405180830381865afa9250505080156105ac575060408051601f3d908101601f191682019092526105a991810190611bf6565b60015b6105b65750600090565b905090565b6105c3611821565b6001600160a01b0381166105f25760405162461bcd60e51b81526004016105e990611c0f565b60405180910390fd5b600780546001600160a01b0319166001600160a01b0383169081179091556040805181815260049181019190915263313ab93760e11b60608201526020810191909152600080516020611d4e833981519152906080015b60405180910390a150565b61065c611821565b61066461184e565b61066c611878565b600081116106bc5760405162461bcd60e51b815260206004820152601d60248201527f416d6f756e74206d7573742062652067726561746572207468616e203000000060448201526064016105e9565b6040516370a0823160e01b81523360048201528190600080516020611d6e833981519152906370a0823190602401602060405180830381865afa158015610707573d6000803e3d6000fd5b505050506040513d601f19601f8201168201806040525081019061072b9190611bf6565b10156107795760405162461bcd60e51b815260206004820152601960248201527f496e73756666696369656e7420555344432062616c616e63650000000000000060448201526064016105e9565b6040516323b872dd60e01b815233600482015230602482015260448101829052600080516020611d6e833981519152906323b872dd906064016020604051808303816000875af11580156107d1573d6000803e3d6000fd5b505050506040513d601f19601f820116820180604052508101906107f59190611c38565b5060405163095ea7b360e01b815273bbbbbbbbbb9cc5e90e3b3af64bdaf62c37eeffcb600482015260248101829052600080516020611d6e8339815191529063095ea7b3906044016020604051808303816000875af115801561085c573d6000803e3d6000fd5b505050506040513d601f19601f820116820180604052508101906108809190611c38565b506040516330df733960e21b815273bbbbbbbbbb9cc5e90e3b3af64bdaf62c37eeffcb9063c37dcce4906108d3907311111111111111111111111111111111111111119085906000903090600401611c5a565b60408051808303816000875af192505050801561090d575060408051601f3d908101601f1916820190925261090a91810190611c94565b60015b6109545780600260008282546109239190611cce565b90915550506040805182815260006020820152600080516020611d2e833981519152910160405180910390a1610995565b81600260008282546109669190611cce565b90915550506040805183815260208101839052600080516020611d2e833981519152910160405180910390a150505b61099f6001600055565b50565b6109aa611821565b6109b26118a3565b565b6109bc61184e565b6109c4611095565b336000908152600b6020908152604080832054600a9092528220546109e99190611ce1565b905060008111610a305760405162461bcd60e51b81526020600482015260126024820152714e6f207969656c6420617661696c61626c6560701b60448201526064016105e9565b60008215610a3e5782610a40565b815b905081811115610a925760405162461bcd60e51b815260206004820152601a60248201527f496e73756666696369656e74207969656c642062616c616e636500000000000060448201526064016105e9565b336000908152600b602052604081208054839290610ab1908490611cce565b90915550506040516370a0823160e01b8152306004820152600090600080516020611d6e833981519152906370a0823190602401602060405180830381865afa158015610b02573d6000803e3d6000fd5b505050506040513d601f19601f82011682018060405250810190610b269190611bf6565b905081811015610bda5760405163f99d990160e01b8152731111111111111111111111111111111111111111600482015260248101839052600060448201523060648201819052608482015273bbbbbbbbbb9cc5e90e3b3af64bdaf62c37eeffcb9063f99d99019060a40160408051808303816000875af1925050508015610bcb575060408051601f3d908101601f19168201909252610bc891810190611c94565b60015b610bd757809150610bda565b50505b8115610c8d5760405163a9059cbb60e01b815233600482015260248101839052600080516020611d6e8339815191529063a9059cbb906044016020604051808303816000875af1158015610c32573d6000803e3d6000fd5b505050506040513d601f19601f82011682018060405250810190610c569190611c38565b5060405182815233907fc04825ba3f383b602255d2a13065a68e325c65c9e0ed5d031ea2b06f641873af9060200160405180910390a25b50505061099f6001600055565b600080610ca5610f54565b90506000600354600254610cb99190611ce1565b905060055481610cc99190611cce565b821115610cea57600554610cdd8284611ce1565b610ce79190611ce1565b92505b505090565b6040516370a0823160e01b8152306004820152600090600080516020611d6e833981519152906370a0823190602401602060405180830381865afa158015610d3b573d6000803e3d6000fd5b505050506040513d601f19601f82011682018060405250810190610d5f9190611bf6565b90506305f5e1008110610d7557610d75816118f8565b610d7d611095565b5050565b610d89611821565b6001600160a01b038116610daf5760405162461bcd60e51b81526004016105e990611c0f565b600880546001600160a01b0319166001600160a01b0383169081179091556040805181815260079181019190915266061697264726f760cc1b60608201526020810191909152600080516020611d4e83398151915290608001610649565b610e15611821565b6109b26000611a91565b610e27611821565b6109b2611ae3565b610e37611821565b60405163a9059cbb60e01b8152336004820152602481018290526001600160a01b0383169063a9059cbb906044016020604051808303816000875af1158015610e84573d6000803e3d6000fd5b505050506040513d601f19601f82011682018060405250810190610ea89190611c38565b505050565b610eb5611821565b6001600160a01b038116610edb5760405162461bcd60e51b81526004016105e990611c0f565b600680546001600160a01b0319166001600160a01b03831690811790915560408051818152600791810191909152667374616b696e6760c81b60608201526020810191909152600080516020611d4e83398151915290608001610649565b600060045462015180610f4c9190611cce565b421015905090565b6040516370a0823160e01b81523060048201526000908190600080516020611d6e833981519152906370a0823190602401602060405180830381865afa158015610fa2573d6000803e3d6000fd5b505050506040513d601f19601f82011682018060405250810190610fc69190611bf6565b604051633de222bb60e21b8152306004820152731111111111111111111111111111111111111111602482015290915073bbbbbbbbbb9cc5e90e3b3af64bdaf62c37eeffcb9063f7888aec90604401602060405180830381865afa92505050801561104e575060408051601f3d908101601f1916820190925261104b91810190611bf6565b60015b61105757919050565b610ce78183611cce565b6001600160a01b0381166000908152600b6020908152604080832054600a90925282205461108f9190611ce1565b92915050565b600061109f610f54565b905060006003546002546110b39190611ce1565b905080821115610d7d576005546000906110cd8385611ce1565b6110d79190611ce1565b90508015610ea85760006127106110f0610fa084611cf4565b6110fa9190611d0b565b9050600061271061110d610bb885611cf4565b6111179190611d0b565b9050600061271061112a6107d086611cf4565b6111349190611d0b565b905060006127106111476103e887611cf4565b6111519190611d0b565b6006549091506001600160a01b031615611195576006546001600160a01b03166000908152600a60205260408120805486929061118f908490611cce565b90915550505b6007546001600160a01b0316156111d6576007546001600160a01b03166000908152600a6020526040812080548592906111d0908490611cce565b90915550505b6008546001600160a01b031615611217576008546001600160a01b03166000908152600a602052604081208054849290611211908490611cce565b90915550505b6009546001600160a01b031615611258576009546001600160a01b03166000908152600a602052604081208054839290611252908490611cce565b90915550505b846005600082825461126a9190611cce565b909155505042600455604080518681526020810186905290810184905260608101839052608081018290527f5dc1ebb0e1fb519730f90700983931f4bde943ccb491773f30bc8b1417feaf6d9060a00160405180910390a150505050505050565b6112d3611821565b6112db61184e565b6000821161132b5760405162461bcd60e51b815260206004820152601d60248201527f416d6f756e74206d7573742062652067726561746572207468616e203000000060448201526064016105e9565b6001600160a01b0381166113755760405162461bcd60e51b8152602060048201526011602482015270125b9d985b1a59081c9958da5c1a595b9d607a1b60448201526064016105e9565b61137d611095565b6040516370a0823160e01b8152306004820152600090600080516020611d6e833981519152906370a0823190602401602060405180830381865afa1580156113c9573d6000803e3d6000fd5b505050506040513d601f19601f820116820180604052508101906113ed9190611bf6565b905082811061147b5760405163a9059cbb60e01b81526001600160a01b038316600482015260248101849052600080516020611d6e8339815191529063a9059cbb906044016020604051808303816000875af1158015611451573d6000803e3d6000fd5b505050506040513d601f19601f820116820180604052508101906114759190611c38565b50611657565b60405163f99d990160e01b8152731111111111111111111111111111111111111111600482015260248101849052600060448201523060648201819052608482015273bbbbbbbbbb9cc5e90e3b3af64bdaf62c37eeffcb9063f99d99019060a40160408051808303816000875af1925050508015611516575060408051601f3d908101601f1916820190925261151391810190611c94565b60015b6115bd5780156115b85760405163a9059cbb60e01b81526001600160a01b038316600482015260248101829052600080516020611d6e8339815191529063a9059cbb906044016020604051808303816000875af115801561157b573d6000803e3d6000fd5b505050506040513d601f19601f8201168201806040525081019061159f9190611c38565b5080600360008282546115b29190611cce565b90915550505b611657565b60405163a9059cbb60e01b81526001600160a01b038516600482015260248101839052600080516020611d6e8339815191529063a9059cbb906044016020604051808303816000875af1158015611618573d6000803e3d6000fd5b505050506040513d601f19601f8201168201806040525081019061163c9190611c38565b50816003600082825461164f9190611cce565b909155505050505b604080518481526001600160a01b03841660208201527fa59a09dbed02191f26ab21e73b64160fde703647e4dbf06378d43a0e271d0bfa910160405180910390a150610d7d6001600055565b60008060008060006116b3610f54565b945060025493506003549250600554915060045490509091929394565b6000600254600014806116e35750600554155b156116ee5750600090565b6000600454426116fe9190611ce1565b90508060000361171057600091505090565b6000816002546117209190611cf4565b600554611731906301e13380611cf4565b61173d90612710611cf4565b6117479190611d0b565b9392505050565b611756611821565b6001600160a01b03811661177c5760405162461bcd60e51b81526004016105e990611c0f565b600980546001600160a01b0319166001600160a01b03831690811790915560408051818152600b918101919091526a19195d995b1bdc1b595b9d60aa1b60608201526020810191909152600080516020611d4e83398151915290608001610649565b6117e6611821565b6001600160a01b03811661181057604051631e4fbdf760e01b8152600060048201526024016105e9565b61099f81611a91565b6109b2611095565b6001546001600160a01b031633146109b25760405163118cdaa760e01b81523360048201526024016105e9565b60026000540361187157604051633ee5aeb560e01b815260040160405180910390fd5b6002600055565b600154600160a01b900460ff16156109b25760405163d93c066560e01b815260040160405180910390fd5b6118ab611b26565b6001805460ff60a01b191690557f5db9ee0a495bf2e6ff9c91a7834c1ba4fdd244a5e8aa4e537bd38aeae4b073aa335b6040516001600160a01b03909116815260200160405180910390a1565b60405163095ea7b360e01b815273bbbbbbbbbb9cc5e90e3b3af64bdaf62c37eeffcb600482015260248101829052600080516020611d6e8339815191529063095ea7b3906044016020604051808303816000875af115801561195e573d6000803e3d6000fd5b505050506040513d601f19601f820116820180604052508101906119829190611c38565b506040516330df733960e21b815273bbbbbbbbbb9cc5e90e3b3af64bdaf62c37eeffcb9063c37dcce4906119d5907311111111111111111111111111111111111111119085906000903090600401611c5a565b60408051808303816000875af1925050508015611a0f575060408051601f3d908101601f19168201909252611a0c91810190611c94565b60015b611a4e578060026000828254611a259190611cce565b90915550506040805182815260006020820152600080516020611d2e8339815191529101610649565b8160026000828254611a609190611cce565b90915550506040805183815260208101839052600080516020611d2e833981519152910160405180910390a1505050565b600180546001600160a01b038381166001600160a01b0319831681179093556040519116919082907f8be0079c531659141344cd1fd0a4f28419497f9722a3daafe3b4186f6b6457e090600090a35050565b611aeb611878565b6001805460ff60a01b1916600160a01b1790557f62e78cea01bee320cd4e420270b5ea74000d11b0c9f74754ebdbfc544b05a2586118db3390565b600154600160a01b900460ff166109b257604051638dfc202b60e01b815260040160405180910390fd5b80356001600160a01b0381168114611b6757600080fd5b919050565b600060208284031215611b7e57600080fd5b61174782611b50565b600060208284031215611b9957600080fd5b5035919050565b60008060408385031215611bb357600080fd5b611bbc83611b50565b946020939093013593505050565b60008060408385031215611bdd57600080fd5b82359150611bed60208401611b50565b90509250929050565b600060208284031215611c0857600080fd5b5051919050565b6020808252600f908201526e496e76616c6964206164647265737360881b604082015260600190565b600060208284031215611c4a57600080fd5b8151801515811461174757600080fd5b6001600160a01b03948516815260208101939093526040830191909152909116606082015260a06080820181905260009082015260c00190565b60008060408385031215611ca757600080fd5b505080516020909101519092909150565b634e487b7160e01b600052601160045260246000fd5b8082018082111561108f5761108f611cb8565b8181038181111561108f5761108f611cb8565b808202811582820484141761108f5761108f611cb8565b600082611d2857634e487b7160e01b600052601260045260246000fd5b50049056feb0fe666fb738ff18b00250d08c3491e5ab1d17285008f46d46512a4518863362f611fec7babefd259c57ea5b6006acff8140ab17bb816c65ba0aa7e36c09caa8000000000000000000000000a0b86a33e6441b8db72c5ab9cbf4428c7bb060b6a264697066735822122032040946063110b1c5658cd8d3b8b0a320ef1db51f44c5752f49abfc41930d2864736f6c63430008140033",
  "linkReferences": {},
  "deployedLinkReferences": {}
}