{
  "_format": "hh-sol-artifact-1",
  "contractName": "MorphoTreasury",
  "sourceName": "contracts/deployment/MorphoTreasury.sol",
  "abi": [
    {
      "inputs": [
        {
          "internalType": "address",
          "name": "_utilityContract",
          "type": "address"
        },
        {
          "internalType": "address",
          "name": "_buybackContract",
          "type": "address"
        }
      ],
      "stateMutability": "nonpayable",
      "type": "constructor"
    },
    {
      "inputs": [],
      "name": "EnforcedPause",
      "type": "error"
    },
    {
      "inputs": [],
      "name": "ExpectedPause",
      "type": "error"
    },
    {
      "inputs": [
        {
          "internalType": "address",
          "name": "owner",
          "type": "address"
        }
      ],
      "name": "OwnableInvalidOwner",
      "type": "error"
    },
    {
      "inputs": [
        {
          "internalType": "address",
          "name": "account",
          "type": "address"
        }
      ],
      "name": "OwnableUnauthorizedAccount",
      "type": "error"
    },
    {
      "inputs": [],
      "name": "ReentrancyGuardReentrantCall",
      "type": "error"
    },
    {
      "anonymous": false,
      "inputs": [
        {
          "indexed": false,
          "internalType": "string",
          "name": "contractType",
          "type": "string"
        },
        {
          "indexed": false,
          "internalType": "address",
          "name": "newAddress",
          "type": "address"
        }
      ],
      "name": "ContractUpdated",
      "type": "event"
    },
    {
      "anonymous": false,
      "inputs": [
        {
          "indexed": true,
          "internalType": "address",
          "name": "previousOwner",
          "type": "address"
        },
        {
          "indexed": true,
          "internalType": "address",
          "name": "newOwner",
          "type": "address"
        }
      ],
      "name": "OwnershipTransferred",
      "type": "event"
    },
    {
      "anonymous": false,
      "inputs": [
        {
          "indexed": false,
          "internalType": "address",
          "name": "account",
          "type": "address"
        }
      ],
      "name": "Paused",
      "type": "event"
    },
    {
      "anonymous": false,
      "inputs": [
        {
          "indexed": false,
          "internalType": "uint256",
          "name": "amount",
          "type": "uint256"
        },
        {
          "indexed": false,
          "internalType": "uint256",
          "name": "morphoShares",
          "type": "uint256"
        }
      ],
      "name": "USDCDeposited",
      "type": "event"
    },
    {
      "anonymous": false,
      "inputs": [
        {
          "indexed": false,
          "internalType": "uint256",
          "name": "amount",
          "type": "uint256"
        },
        {
          "indexed": false,
          "internalType": "address",
          "name": "recipient",
          "type": "address"
        }
      ],
      "name": "USDCWithdrawn",
      "type": "event"
    },
    {
      "anonymous": false,
      "inputs": [
        {
          "indexed": false,
          "internalType": "address",
          "name": "account",
          "type": "address"
        }
      ],
      "name": "Unpaused",
      "type": "event"
    },
    {
      "anonymous": false,
      "inputs": [
        {
          "indexed": true,
          "internalType": "address",
          "name": "recipient",
          "type": "address"
        },
        {
          "indexed": false,
          "internalType": "uint256",
          "name": "amount",
          "type": "uint256"
        }
      ],
      "name": "YieldClaimed",
      "type": "event"
    },
    {
      "anonymous": false,
      "inputs": [
        {
          "indexed": false,
          "internalType": "uint256",
          "name": "totalYield",
          "type": "uint256"
        },
        {
          "indexed": false,
          "internalType": "uint256",
          "name": "ownerShare",
          "type": "uint256"
        },
        {
          "indexed": false,
          "internalType": "uint256",
          "name": "utilityShare",
          "type": "uint256"
        },
        {
          "indexed": false,
          "internalType": "uint256",
          "name": "buybackShare",
          "type": "uint256"
        }
      ],
      "name": "YieldDistributed",
      "type": "event"
    },
    {
      "inputs": [],
      "name": "BUYBACK_YIELD_SHARE",
      "outputs": [
        {
          "internalType": "uint256",
          "name": "",
          "type": "uint256"
        }
      ],
      "stateMutability": "view",
      "type": "function"
    },
    {
      "inputs": [],
      "name": "MORPHO",
      "outputs": [
        {
          "internalType": "contract IMorpho",
          "name": "",
          "type": "address"
        }
      ],
      "stateMutability": "view",
      "type": "function"
    },
    {
      "inputs": [],
      "name": "OWNER_YIELD_SHARE",
      "outputs": [
        {
          "internalType": "uint256",
          "name": "",
          "type": "uint256"
        }
      ],
      "stateMutability": "view",
      "type": "function"
    },
    {
      "inputs": [],
      "name": "USDC",
      "outputs": [
        {
          "internalType": "contract IERC20",
          "name": "",
          "type": "address"
        }
      ],
      "stateMutability": "view",
      "type": "function"
    },
    {
      "inputs": [],
      "name": "USDC_MARKET",
      "outputs": [
        {
          "internalType": "address",
          "name": "",
          "type": "address"
        }
      ],
      "stateMutability": "view",
      "type": "function"
    },
    {
      "inputs": [],
      "name": "UTILITY_YIELD_SHARE",
      "outputs": [
        {
          "internalType": "uint256",
          "name": "",
          "type": "uint256"
        }
      ],
      "stateMutability": "view",
      "type": "function"
    },
    {
      "inputs": [],
      "name": "accumulatedYield",
      "outputs": [
        {
          "internalType": "uint256",
          "name": "",
          "type": "uint256"
        }
      ],
      "stateMutability": "view",
      "type": "function"
    },
    {
      "inputs": [],
      "name": "buybackContract",
      "outputs": [
        {
          "internalType": "address",
          "name": "",
          "type": "address"
        }
      ],
      "stateMutability": "view",
      "type": "function"
    },
    {
      "inputs": [
        {
          "internalType": "uint256",
          "name": "amount",
          "type": "uint256"
        }
      ],
      "name": "claimYield",
      "outputs": [],
      "stateMutability": "nonpayable",
      "type": "function"
    },
    {
      "inputs": [
        {
          "internalType": "uint256",
          "name": "amount",
          "type": "uint256"
        }
      ],
      "name": "depositToMorpho",
      "outputs": [],
      "stateMutability": "nonpayable",
      "type": "function"
    },
    {
      "inputs": [
        {
          "internalType": "address",
          "name": "token",
          "type": "address"
        },
        {
          "internalType": "uint256",
          "name": "amount",
          "type": "uint256"
        }
      ],
      "name": "emergencyWithdraw",
      "outputs": [],
      "stateMutability": "nonpayable",
      "type": "function"
    },
    {
      "inputs": [],
      "name": "estimateCurrentYield",
      "outputs": [
        {
          "internalType": "uint256",
          "name": "estimatedYield",
          "type": "uint256"
        }
      ],
      "stateMutability": "view",
      "type": "function"
    },
    {
      "inputs": [],
      "name": "forceYieldUpdate",
      "outputs": [],
      "stateMutability": "nonpayable",
      "type": "function"
    },
    {
      "inputs": [
        {
          "internalType": "address",
          "name": "user",
          "type": "address"
        }
      ],
      "name": "getAvailableYield",
      "outputs": [
        {
          "internalType": "uint256",
          "name": "available",
          "type": "uint256"
        }
      ],
      "stateMutability": "view",
      "type": "function"
    },
    {
      "inputs": [],
      "name": "getCurrentBalance",
      "outputs": [
        {
          "internalType": "uint256",
          "name": "balance",
          "type": "uint256"
        }
      ],
      "stateMutability": "view",
      "type": "function"
    },
    {
      "inputs": [],
      "name": "getEstimatedAPY",
      "outputs": [
        {
          "internalType": "uint256",
          "name": "apy",
          "type": "uint256"
        }
      ],
      "stateMutability": "view",
      "type": "function"
    },
    {
      "inputs": [],
      "name": "getMorphoBalance",
      "outputs": [
        {
          "internalType": "uint256",
          "name": "morphoBalance",
          "type": "uint256"
        }
      ],
      "stateMutability": "view",
      "type": "function"
    },
    {
      "inputs": [],
      "name": "getTreasuryStats",
      "outputs": [
        {
          "internalType": "uint256",
          "name": "totalBalance",
          "type": "uint256"
        },
        {
          "internalType": "uint256",
          "name": "deposited",
          "type": "uint256"
        },
        {
          "internalType": "uint256",
          "name": "withdrawn",
          "type": "uint256"
        },
        {
          "internalType": "uint256",
          "name": "totalYield",
          "type": "uint256"
        },
        {
          "internalType": "uint256",
          "name": "lastUpdate",
          "type": "uint256"
        }
      ],
      "stateMutability": "view",
      "type": "function"
    },
    {
      "inputs": [],
      "name": "lastYieldUpdate",
      "outputs": [
        {
          "internalType": "uint256",
          "name": "",
          "type": "uint256"
        }
      ],
      "stateMutability": "view",
      "type": "function"
    },
    {
      "inputs": [],
      "name": "needsYieldUpdate",
      "outputs": [
        {
          "internalType": "bool",
          "name": "needed",
          "type": "bool"
        }
      ],
      "stateMutability": "view",
      "type": "function"
    },
    {
      "inputs": [],
      "name": "owner",
      "outputs": [
        {
          "internalType": "address",
          "name": "",
          "type": "address"
        }
      ],
      "stateMutability": "view",
      "type": "function"
    },
    {
      "inputs": [],
      "name": "pause",
      "outputs": [],
      "stateMutability": "nonpayable",
      "type": "function"
    },
    {
      "inputs": [],
      "name": "paused",
      "outputs": [
        {
          "internalType": "bool",
          "name": "",
          "type": "bool"
        }
      ],
      "stateMutability": "view",
      "type": "function"
    },
    {
      "inputs": [],
      "name": "renounceOwnership",
      "outputs": [],
      "stateMutability": "nonpayable",
      "type": "function"
    },
    {
      "inputs": [
        {
          "internalType": "address",
          "name": "newBuybackContract",
          "type": "address"
        }
      ],
      "name": "setBuybackContract",
      "outputs": [],
      "stateMutability": "nonpayable",
      "type": "function"
    },
    {
      "inputs": [
        {
          "internalType": "address",
          "name": "newUtilityContract",
          "type": "address"
        }
      ],
      "name": "setUtilityContract",
      "outputs": [],
      "stateMutability": "nonpayable",
      "type": "function"
    },
    {
      "inputs": [],
      "name": "totalDeposited",
      "outputs": [
        {
          "internalType": "uint256",
          "name": "",
          "type": "uint256"
        }
      ],
      "stateMutability": "view",
      "type": "function"
    },
    {
      "inputs": [],
      "name": "totalWithdrawn",
      "outputs": [
        {
          "internalType": "uint256",
          "name": "",
          "type": "uint256"
        }
      ],
      "stateMutability": "view",
      "type": "function"
    },
    {
      "inputs": [
        {
          "internalType": "address",
          "name": "newOwner",
          "type": "address"
        }
      ],
      "name": "transferOwnership",
      "outputs": [],
      "stateMutability": "nonpayable",
      "type": "function"
    },
    {
      "inputs": [],
      "name": "unpause",
      "outputs": [],
      "stateMutability": "nonpayable",
      "type": "function"
    },
    {
      "inputs": [],
      "name": "updateYield",
      "outputs": [],
      "stateMutability": "nonpayable",
      "type": "function"
    },
    {
      "inputs": [],
      "name": "utilityContract",
      "outputs": [
        {
          "internalType": "address",
          "name": "",
          "type": "address"
        }
      ],
      "stateMutability": "view",
      "type": "function"
    },
    {
      "inputs": [
        {
          "internalType": "uint256",
          "name": "amount",
          "type": "uint256"
        },
        {
          "internalType": "address",
          "name": "recipient",
          "type": "address"
        }
      ],
      "name": "withdrawFromMorpho",
      "outputs": [],
      "stateMutability": "nonpayable",
      "type": "function"
    },
    {
      "inputs": [
        {
          "internalType": "address",
          "name": "",
          "type": "address"
        }
      ],
      "name": "yieldAllocated",
      "outputs": [
        {
          "internalType": "uint256",
          "name": "",
          "type": "uint256"
        }
      ],
      "stateMutability": "view",
      "type": "function"
    },
    {
      "inputs": [
        {
          "internalType": "address",
          "name": "",
          "type": "address"
        }
      ],
      "name": "yieldClaimed",
      "outputs": [
        {
          "internalType": "uint256",
          "name": "",
          "type": "uint256"
        }
      ],
      "stateMutability": "view",
      "type": "function"
    }
  ],
  "bytecode": "0x60806040523480156200001157600080fd5b5060405162001ac738038062001ac7833981016040819052620000349162000111565b600160005533806200006057604051631e4fbdf760e01b81526000600482015260240160405180910390fd5b6200006b81620000a2565b50600680546001600160a01b039384166001600160a01b031991821617909155600780549290931691161790554260045562000149565b600180546001600160a01b038381166001600160a01b0319831681179093556040519116919082907f8be0079c531659141344cd1fd0a4f28419497f9722a3daafe3b4186f6b6457e090600090a35050565b80516001600160a01b03811681146200010c57600080fd5b919050565b600080604083850312156200012557600080fd5b6200013083620000f4565b91506200014060208401620000f4565b90509250929050565b61196e80620001596000396000f3fe608060405234801561001057600080fd5b50600436106102115760003560e01c80638f8c8aee11610125578063bb21a997116100ad578063f2fde38b1161007c578063f2fde38b14610440578063f5a1561e14610453578063f78fae4614610466578063fcdfd5c51461046e578063ff50abdc1461047757600080fd5b8063bb21a997146103ed578063bf640de7146103f5578063c8692e3f14610408578063ccaad55d1461043857600080fd5b80639a7f8c54116100f45780639a7f8c541461039c578063a13c5847146103af578063a481293f146103ca578063a5749710146103d2578063b2325876146103da57600080fd5b80638f8c8aee1461036457806395ccea671461036d57806398d4b8a4146103805780639a3036841461038957600080fd5b806345bba697116101a8578063715018a611610177578063715018a6146103155780638456cb591461031d5780638542b3361461032557806389a30271146103385780638da5cb5b1461035357600080fd5b806345bba697146102ae5780634b319713146102ce5780634c859eaf146102d75780635c975abb146102f757600080fd5b80633d4c145f116101e45780633d4c145f146102825780633f4ba83a1461028b57806340bd2e231461029357806342879af1146102a657600080fd5b80630e085281146102165780633790762a146102315780633acb56241461023a5780633bdcfc1f1461026d575b600080fd5b61021e610480565b6040519081526020015b60405180910390f35b61021e6107d081565b61025573bbbbbbbbbb9cc5e90e3b3af64bdaf62c37eeffcb81565b6040516001600160a01b039091168152602001610228565b61028061027b3660046117be565b610517565b005b61021e6103e881565b6102806108b6565b6102806102a13660046117be565b6108c8565b61021e610bba565b61021e6102bc3660046117f3565b60096020526000908152604090205481565b61021e60035481565b61021e6102e53660046117f3565b60086020526000908152604090205481565b600154600160a01b900460ff165b6040519015158152602001610228565b610280610c0f565b610280610c21565b600754610255906001600160a01b031681565b61025573a0b86a33e6441b8db72c5ab9cbf4428c7bb060b681565b6001546001600160a01b0316610255565b61021e60045481565b61028061037b36600461180e565b610c31565b61021e611b5881565b6102806103973660046117f3565b610caf565b6102806103aa3660046117f3565b610d70565b61025573111111111111111111111111111111111111111181565b610305610e30565b61021e610e4b565b61021e6103e83660046117f3565b610f5e565b610280610f92565b610280610403366004611838565b61114a565b61041061153a565b604080519586526020860194909452928401919091526060830152608082015260a001610228565b61021e611567565b61028061044e3660046117f3565b6115e5565b600654610255906001600160a01b031681565b610280611620565b61021e60055481565b61021e60025481565b604051633de222bb60e21b8152306004820152731111111111111111111111111111111111111111602482015260009073bbbbbbbbbb9cc5e90e3b3af64bdaf62c37eeffcb9063f7888aec90604401602060405180830381865afa925050508015610508575060408051601f3d908101601f1916820190925261050591810190611864565b60015b6105125750600090565b905090565b61051f611628565b610527611655565b61052f61167f565b600081116105845760405162461bcd60e51b815260206004820152601d60248201527f416d6f756e74206d7573742062652067726561746572207468616e203000000060448201526064015b60405180910390fd5b6040516370a0823160e01b8152336004820152819073a0b86a33e6441b8db72c5ab9cbf4428c7bb060b6906370a0823190602401602060405180830381865afa1580156105d5573d6000803e3d6000fd5b505050506040513d601f19601f820116820180604052508101906105f99190611864565b10156106475760405162461bcd60e51b815260206004820152601960248201527f496e73756666696369656e7420555344432062616c616e636500000000000000604482015260640161057b565b6040516323b872dd60e01b81523360048201523060248201526044810182905273a0b86a33e6441b8db72c5ab9cbf4428c7bb060b6906323b872dd906064016020604051808303816000875af11580156106a5573d6000803e3d6000fd5b505050506040513d601f19601f820116820180604052508101906106c9919061187d565b5060405163095ea7b360e01b815273bbbbbbbbbb9cc5e90e3b3af64bdaf62c37eeffcb60048201526024810182905273a0b86a33e6441b8db72c5ab9cbf4428c7bb060b69063095ea7b3906044016020604051808303816000875af1158015610736573d6000803e3d6000fd5b505050506040513d601f19601f8201168201806040525081019061075a919061187d565b506040516330df733960e21b815273111111111111111111111111111111111111111160048201526024810182905260006044820181905230606483015260a0608483015260a482015273bbbbbbbbbb9cc5e90e3b3af64bdaf62c37eeffcb9063c37dcce49060c40160408051808303816000875af19250505080156107fd575060408051601f3d908101601f191682019092526107fa9181019061189f565b60015b61085657806002600082825461081391906118d9565b909155505060408051828152600060208201527fb0fe666fb738ff18b00250d08c3491e5ab1d17285008f46d46512a4518863362910160405180910390a16108a9565b816002600082825461086891906118d9565b909155505060408051838152602081018390527fb0fe666fb738ff18b00250d08c3491e5ab1d17285008f46d46512a4518863362910160405180910390a150505b6108b36001600055565b50565b6108be611628565b6108c66116aa565b565b6108d0611655565b6108d8610f92565b3360009081526009602090815260408083205460089092528220546108fd91906118ec565b9050600081116109445760405162461bcd60e51b81526020600482015260126024820152714e6f207969656c6420617661696c61626c6560701b604482015260640161057b565b600082156109525782610954565b815b9050818111156109a65760405162461bcd60e51b815260206004820152601a60248201527f496e73756666696369656e74207969656c642062616c616e6365000000000000604482015260640161057b565b33600090815260096020526040812080548392906109c59084906118d9565b90915550506040516370a0823160e01b815230600482015260009073a0b86a33e6441b8db72c5ab9cbf4428c7bb060b6906370a0823190602401602060405180830381865afa158015610a1c573d6000803e3d6000fd5b505050506040513d601f19601f82011682018060405250810190610a409190611864565b905081811015610af45760405163f99d990160e01b8152731111111111111111111111111111111111111111600482015260248101839052600060448201523060648201819052608482015273bbbbbbbbbb9cc5e90e3b3af64bdaf62c37eeffcb9063f99d99019060a40160408051808303816000875af1925050508015610ae5575060408051601f3d908101601f19168201909252610ae29181019061189f565b60015b610af157809150610af4565b50505b8115610bad5760405163a9059cbb60e01b81523360048201526024810183905273a0b86a33e6441b8db72c5ab9cbf4428c7bb060b69063a9059cbb906044016020604051808303816000875af1158015610b52573d6000803e3d6000fd5b505050506040513d601f19601f82011682018060405250810190610b76919061187d565b5060405182815233907fc04825ba3f383b602255d2a13065a68e325c65c9e0ed5d031ea2b06f641873af9060200160405180910390a25b5050506108b36001600055565b600080610bc5610e4b565b90506000600354600254610bd991906118ec565b905060055481610be991906118d9565b821115610c0a57600554610bfd82846118ec565b610c0791906118ec565b92505b505090565b610c17611628565b6108c660006116ff565b610c29611628565b6108c6611751565b610c39611628565b60405163a9059cbb60e01b8152336004820152602481018290526001600160a01b0383169063a9059cbb906044016020604051808303816000875af1158015610c86573d6000803e3d6000fd5b505050506040513d601f19601f82011682018060405250810190610caa919061187d565b505050565b610cb7611628565b6001600160a01b038116610cff5760405162461bcd60e51b815260206004820152600f60248201526e496e76616c6964206164647265737360881b604482015260640161057b565b600780546001600160a01b0319166001600160a01b03831690811782556040805181815290810192909252666275796261636b60c81b606083015260208201527ff611fec7babefd259c57ea5b6006acff8140ab17bb816c65ba0aa7e36c09caa8906080015b60405180910390a150565b610d78611628565b6001600160a01b038116610dc05760405162461bcd60e51b815260206004820152600f60248201526e496e76616c6964206164647265737360881b604482015260640161057b565b600680546001600160a01b0319166001600160a01b03831690811790915560408051818152600791810191909152667574696c69747960c81b606082015260208101919091527ff611fec7babefd259c57ea5b6006acff8140ab17bb816c65ba0aa7e36c09caa890608001610d65565b600060045462015180610e4391906118d9565b421015905090565b6040516370a0823160e01b8152306004820152600090819073a0b86a33e6441b8db72c5ab9cbf4428c7bb060b6906370a0823190602401602060405180830381865afa158015610e9f573d6000803e3d6000fd5b505050506040513d601f19601f82011682018060405250810190610ec39190611864565b604051633de222bb60e21b8152306004820152731111111111111111111111111111111111111111602482015290915073bbbbbbbbbb9cc5e90e3b3af64bdaf62c37eeffcb9063f7888aec90604401602060405180830381865afa925050508015610f4b575060408051601f3d908101601f19168201909252610f4891810190611864565b60015b610f5457919050565b610c0781836118d9565b6001600160a01b0381166000908152600960209081526040808320546008909252822054610f8c91906118ec565b92915050565b6000610f9c610e4b565b90506000600354600254610fb091906118ec565b90508082111561114657600554600090610fca83856118ec565b610fd491906118ec565b90508015610caa576000612710610fed611b58846118ff565b610ff79190611916565b9050600061271061100a6107d0856118ff565b6110149190611916565b905060006127106110276103e8866118ff565b6110319190611916565b9050826008600061104a6001546001600160a01b031690565b6001600160a01b03166001600160a01b03168152602001908152602001600020600082825461107991906118d9565b90915550506006546001600160a01b0316600090815260086020526040812080548492906110a89084906118d9565b90915550506007546001600160a01b0316600090815260086020526040812080548392906110d79084906118d9565b9250508190555083600560008282546110f091906118d9565b9091555050426004556040805185815260208101859052908101839052606081018290527fc39bd4b19f4d9308b07f50c64b0e693c21f81328f10f571b7f9433525808ea169060800160405180910390a1505050505b5050565b611152611628565b61115a611655565b600082116111aa5760405162461bcd60e51b815260206004820152601d60248201527f416d6f756e74206d7573742062652067726561746572207468616e2030000000604482015260640161057b565b6001600160a01b0381166111f45760405162461bcd60e51b8152602060048201526011602482015270125b9d985b1a59081c9958da5c1a595b9d607a1b604482015260640161057b565b6111fc610f92565b6040516370a0823160e01b815230600482015260009073a0b86a33e6441b8db72c5ab9cbf4428c7bb060b6906370a0823190602401602060405180830381865afa15801561124e573d6000803e3d6000fd5b505050506040513d601f19601f820116820180604052508101906112729190611864565b90508281106113065760405163a9059cbb60e01b81526001600160a01b03831660048201526024810184905273a0b86a33e6441b8db72c5ab9cbf4428c7bb060b69063a9059cbb906044016020604051808303816000875af11580156112dc573d6000803e3d6000fd5b505050506040513d601f19601f82011682018060405250810190611300919061187d565b506114ee565b60405163f99d990160e01b8152731111111111111111111111111111111111111111600482015260248101849052600060448201523060648201819052608482015273bbbbbbbbbb9cc5e90e3b3af64bdaf62c37eeffcb9063f99d99019060a40160408051808303816000875af19250505080156113a1575060408051601f3d908101601f1916820190925261139e9181019061189f565b60015b61144e5780156114495760405163a9059cbb60e01b81526001600160a01b03831660048201526024810182905273a0b86a33e6441b8db72c5ab9cbf4428c7bb060b69063a9059cbb906044016020604051808303816000875af115801561140c573d6000803e3d6000fd5b505050506040513d601f19601f82011682018060405250810190611430919061187d565b50806003600082825461144391906118d9565b90915550505b6114ee565b60405163a9059cbb60e01b81526001600160a01b03851660048201526024810183905273a0b86a33e6441b8db72c5ab9cbf4428c7bb060b69063a9059cbb906044016020604051808303816000875af11580156114af573d6000803e3d6000fd5b505050506040513d601f19601f820116820180604052508101906114d3919061187d565b5081600360008282546114e691906118d9565b909155505050505b604080518481526001600160a01b03841660208201527fa59a09dbed02191f26ab21e73b64160fde703647e4dbf06378d43a0e271d0bfa910160405180910390a1506111466001600055565b600080600080600061154a610e4b565b945060025493506003549250600554915060045490509091929394565b60006002546000148061157a5750600554155b156115855750600090565b60006004544261159591906118ec565b9050806000036115a757600091505090565b6000816002546115b791906118ff565b6005546115c8906301e133806118ff565b6115d4906127106118ff565b6115de9190611916565b9392505050565b6115ed611628565b6001600160a01b03811661161757604051631e4fbdf760e01b81526000600482015260240161057b565b6108b3816116ff565b6108c6610f92565b6001546001600160a01b031633146108c65760405163118cdaa760e01b815233600482015260240161057b565b60026000540361167857604051633ee5aeb560e01b815260040160405180910390fd5b6002600055565b600154600160a01b900460ff16156108c65760405163d93c066560e01b815260040160405180910390fd5b6116b2611794565b6001805460ff60a01b191690557f5db9ee0a495bf2e6ff9c91a7834c1ba4fdd244a5e8aa4e537bd38aeae4b073aa335b6040516001600160a01b03909116815260200160405180910390a1565b600180546001600160a01b038381166001600160a01b0319831681179093556040519116919082907f8be0079c531659141344cd1fd0a4f28419497f9722a3daafe3b4186f6b6457e090600090a35050565b61175961167f565b6001805460ff60a01b1916600160a01b1790557f62e78cea01bee320cd4e420270b5ea74000d11b0c9f74754ebdbfc544b05a2586116e23390565b600154600160a01b900460ff166108c657604051638dfc202b60e01b815260040160405180910390fd5b6000602082840312156117d057600080fd5b5035919050565b80356001600160a01b03811681146117ee57600080fd5b919050565b60006020828403121561180557600080fd5b6115de826117d7565b6000806040838503121561182157600080fd5b61182a836117d7565b946020939093013593505050565b6000806040838503121561184b57600080fd5b8235915061185b602084016117d7565b90509250929050565b60006020828403121561187657600080fd5b5051919050565b60006020828403121561188f57600080fd5b815180151581146115de57600080fd5b600080604083850312156118b257600080fd5b505080516020909101519092909150565b634e487b7160e01b600052601160045260246000fd5b80820180821115610f8c57610f8c6118c3565b81810381811115610f8c57610f8c6118c3565b8082028115828204841417610f8c57610f8c6118c3565b60008261193357634e487b7160e01b600052601260045260246000fd5b50049056fea2646970667358221220644a52b201a040c3335402efb0dd79c3f6fd7ff533f46275f7cf0e2b3185c0e664736f6c63430008140033",
  "linkReferences": {},
  "deployedLinkReferences": {}
}