{"contracts/SolarPledgeV3.sol":{"SolarPledgeV3":{"abi":[{"inputs":[{"internalType":"address","name":"_morphoTreasuryContract","type":"address"},{"internalType":"address","name":"_solarUtilityContract","type":"address"},{"internalType":"address","name":"_dexRouter","type":"address"}],"stateMutability":"nonpayable","type":"constructor"},{"inputs":[],"name":"EnforcedPause","type":"error"},{"inputs":[],"name":"ExpectedPause","type":"error"},{"inputs":[{"internalType":"address","name":"owner","type":"address"}],"name":"OwnableInvalidOwner","type":"error"},{"inputs":[{"internalType":"address","name":"account","type":"address"}],"name":"OwnableUnauthorizedAccount","type":"error"},{"inputs":[],"name":"ReentrancyGuardReentrantCall","type":"error"},{"anonymous":false,"inputs":[{"indexed":true,"internalType":"address","name":"user","type":"address"},{"indexed":false,"internalType":"uint96","name":"birthTimestamp","type":"uint96"}],"name":"BirthDateSet","type":"event"},{"anonymous":false,"inputs":[{"indexed":true,"internalType":"uint256","name":"periodId","type":"uint256"},{"indexed":false,"internalType":"uint96","name":"startTime","type":"uint96"},{"indexed":false,"internalType":"uint96","name":"endTime","type":"uint96"}],"name":"ConvergencePeriodSet","type":"event"},{"anonymous":false,"inputs":[{"indexed":false,"internalType":"uint256","name":"amount","type":"uint256"}],"name":"MorphoTreasuryDeposit","type":"event"},{"anonymous":false,"inputs":[{"indexed":true,"internalType":"address","name":"previousOwner","type":"address"},{"indexed":true,"internalType":"address","name":"newOwner","type":"address"}],"name":"OwnershipTransferred","type":"event"},{"anonymous":false,"inputs":[{"indexed":false,"internalType":"address","name":"account","type":"address"}],"name":"Paused","type":"event"},{"anonymous":false,"inputs":[{"indexed":true,"internalType":"address","name":"pledger","type":"address"},{"indexed":false,"internalType":"uint256","name":"pledgeNumber","type":"uint256"},{"indexed":false,"internalType":"uint128","name":"usdcPaid","type":"uint128"},{"indexed":false,"internalType":"uint64","name":"solarAge","type":"uint64"},{"indexed":false,"internalType":"string","name":"commitment","type":"string"},{"indexed":false,"internalType":"bytes32","name":"farcasterHandle","type":"bytes32"}],"name":"PledgeCreated","type":"event"},{"anonymous":false,"inputs":[{"indexed":true,"internalType":"address","name":"user","type":"address"},{"indexed":false,"internalType":"uint256","name":"pledgeAmount","type":"uint256"}],"name":"PremiumFeatureUnlocked","type":"event"},{"anonymous":false,"inputs":[{"indexed":false,"internalType":"uint256","name":"morphoShare","type":"uint256"},{"indexed":false,"internalType":"uint256","name":"utilityShare","type":"uint256"}],"name":"RevenueAllocated","type":"event"},{"anonymous":false,"inputs":[{"indexed":false,"internalType":"uint256","name":"solarAmount","type":"uint256"},{"indexed":false,"internalType":"uint256","name":"usdcUsed","type":"uint256"},{"indexed":false,"internalType":"string","name":"reason","type":"string"}],"name":"SolarBurned","type":"event"},{"anonymous":false,"inputs":[{"indexed":false,"internalType":"address","name":"account","type":"address"}],"name":"Unpaused","type":"event"},{"anonymous":false,"inputs":[{"indexed":false,"internalType":"uint256","name":"usdcIn","type":"uint256"},{"indexed":false,"internalType":"uint256","name":"solarOut","type":"uint256"},{"indexed":false,"internalType":"uint256","name":"slippage","type":"uint256"}],"name":"UsdcToSolarSwap","type":"event"},{"inputs":[],"name":"BURN_ADDRESS","outputs":[{"internalType":"address","name":"","type":"address"}],"stateMutability":"view","type":"function"},{"inputs":[],"name":"MORPHO_TREASURY_SHARE","outputs":[{"internalType":"uint256","name":"","type":"uint256"}],"stateMutability":"view","type":"function"},{"inputs":[],"name":"PLEDGE_BURN_PERCENTAGE","outputs":[{"internalType":"uint256","name":"","type":"uint256"}],"stateMutability":"view","type":"function"},{"inputs":[],"name":"PREMIUM_FEATURE_THRESHOLD","outputs":[{"internalType":"uint256","name":"","type":"uint256"}],"stateMutability":"view","type":"function"},{"inputs":[],"name":"SOLAR_TOKEN","outputs":[{"internalType":"contract IERC20","name":"","type":"address"}],"stateMutability":"view","type":"function"},{"inputs":[],"name":"USDC","outputs":[{"internalType":"contract IERC20","name":"","type":"address"}],"stateMutability":"view","type":"function"},{"inputs":[],"name":"WETH","outputs":[{"internalType":"address","name":"","type":"address"}],"stateMutability":"view","type":"function"},{"inputs":[{"internalType":"uint256","name":"_usdcAmount","type":"uint256"}],"name":"_performSwapAndBurn","outputs":[],"stateMutability":"nonpayable","type":"function"},{"inputs":[{"internalType":"uint256","name":"","type":"uint256"}],"name":"convergencePeriods","outputs":[{"internalType":"uint96","name":"startTime","type":"uint96"},{"internalType":"uint96","name":"endTime","type":"uint96"},{"internalType":"uint96","name":"periodTotalPledges","type":"uint96"},{"internalType":"uint256","name":"totalVolume","type":"uint256"},{"internalType":"bool","name":"isActive","type":"bool"}],"stateMutability":"view","type":"function"},{"inputs":[{"internalType":"string","name":"_commitment","type":"string"},{"internalType":"bytes32","name":"_farcasterHandle","type":"bytes32"},{"internalType":"uint128","name":"_pledgeAmount","type":"uint128"}],"name":"createPledge","outputs":[],"stateMutability":"nonpayable","type":"function"},{"inputs":[],"name":"currentConvergencePeriodIndex","outputs":[{"internalType":"uint256","name":"","type":"uint256"}],"stateMutability":"view","type":"function"},{"inputs":[],"name":"dexRouter","outputs":[{"internalType":"address","name":"","type":"address"}],"stateMutability":"view","type":"function"},{"inputs":[{"internalType":"address","name":"_token","type":"address"},{"internalType":"uint256","name":"_amount","type":"uint256"},{"internalType":"address","name":"_to","type":"address"}],"name":"emergencyWithdraw","outputs":[],"stateMutability":"nonpayable","type":"function"},{"inputs":[{"internalType":"uint256","name":"_periodIndex","type":"uint256"}],"name":"getConvergencePeriod","outputs":[{"components":[{"internalType":"uint96","name":"startTime","type":"uint96"},{"internalType":"uint96","name":"endTime","type":"uint96"},{"internalType":"uint96","name":"periodTotalPledges","type":"uint96"},{"internalType":"uint256","name":"totalVolume","type":"uint256"},{"internalType":"bool","name":"isActive","type":"bool"}],"internalType":"struct SolarPledgeV3.ConvergencePeriod","name":"","type":"tuple"}],"stateMutability":"view","type":"function"},{"inputs":[],"name":"getCurrentConvergencePeriodIndex","outputs":[{"internalType":"uint256","name":"","type":"uint256"}],"stateMutability":"view","type":"function"},{"inputs":[{"internalType":"address","name":"_pledger","type":"address"}],"name":"getPledge","outputs":[{"components":[{"internalType":"address","name":"pledger","type":"address"},{"internalType":"uint96","name":"pledgeNumber","type":"uint96"},{"internalType":"uint96","name":"pledgeTimestamp","type":"uint96"},{"internalType":"uint128","name":"usdcPaid","type":"uint128"},{"internalType":"uint128","name":"surplusAmount","type":"uint128"},{"internalType":"uint64","name":"solarAge","type":"uint64"},{"internalType":"bytes32","name":"commitmentHash","type":"bytes32"},{"internalType":"bytes32","name":"farcasterHandle","type":"bytes32"},{"internalType":"string","name":"commitmentText","type":"string"},{"internalType":"bool","name":"isActive","type":"bool"}],"internalType":"struct SolarPledgeV3.Pledge","name":"pledge","type":"tuple"}],"stateMutability":"view","type":"function"},{"inputs":[],"name":"getRenaissanceStats","outputs":[{"internalType":"uint256","name":"totalPledgeVolume","type":"uint256"},{"internalType":"uint256","name":"totalSolarBurned","type":"uint256"},{"internalType":"uint256","name":"morphoRevenue","type":"uint256"},{"internalType":"uint256","name":"activePledgers","type":"uint256"},{"internalType":"uint256","name":"currentPeriodVolume","type":"uint256"},{"internalType":"uint256","name":"usdcUsedForBurns","type":"uint256"}],"stateMutability":"view","type":"function"},{"inputs":[{"internalType":"address","name":"_user","type":"address"}],"name":"hasPledge","outputs":[{"internalType":"bool","name":"","type":"bool"}],"stateMutability":"view","type":"function"},{"inputs":[{"internalType":"address","name":"","type":"address"}],"name":"hasPledged","outputs":[{"internalType":"bool","name":"","type":"bool"}],"stateMutability":"view","type":"function"},{"inputs":[{"internalType":"uint256","name":"_usdcAmount","type":"uint256"}],"name":"manualBurn","outputs":[],"stateMutability":"nonpayable","type":"function"},{"inputs":[],"name":"maxSlippage","outputs":[{"internalType":"uint256","name":"","type":"uint256"}],"stateMutability":"view","type":"function"},{"inputs":[],"name":"minBurnThreshold","outputs":[{"internalType":"uint256","name":"","type":"uint256"}],"stateMutability":"view","type":"function"},{"inputs":[],"name":"morphoAllocatedRevenue","outputs":[{"internalType":"uint256","name":"","type":"uint256"}],"stateMutability":"view","type":"function"},{"inputs":[],"name":"morphoTreasuryContract","outputs":[{"internalType":"address","name":"","type":"address"}],"stateMutability":"view","type":"function"},{"inputs":[],"name":"owner","outputs":[{"internalType":"address","name":"","type":"address"}],"stateMutability":"view","type":"function"},{"inputs":[],"name":"pause","outputs":[],"stateMutability":"nonpayable","type":"function"},{"inputs":[],"name":"paused","outputs":[{"internalType":"bool","name":"","type":"bool"}],"stateMutability":"view","type":"function"},{"inputs":[{"internalType":"address","name":"","type":"address"}],"name":"pledges","outputs":[{"internalType":"address","name":"pledger","type":"address"},{"internalType":"uint96","name":"pledgeNumber","type":"uint96"},{"internalType":"uint96","name":"pledgeTimestamp","type":"uint96"},{"internalType":"uint128","name":"usdcPaid","type":"uint128"},{"internalType":"uint128","name":"surplusAmount","type":"uint128"},{"internalType":"uint64","name":"solarAge","type":"uint64"},{"internalType":"bytes32","name":"commitmentHash","type":"bytes32"},{"internalType":"bytes32","name":"farcasterHandle","type":"bytes32"},{"internalType":"string","name":"commitmentText","type":"string"},{"internalType":"bool","name":"isActive","type":"bool"}],"stateMutability":"view","type":"function"},{"inputs":[],"name":"poolFee","outputs":[{"internalType":"uint24","name":"","type":"uint24"}],"stateMutability":"view","type":"function"},{"inputs":[],"name":"renounceOwnership","outputs":[],"stateMutability":"nonpayable","type":"function"},{"inputs":[{"internalType":"uint96","name":"_birthTimestamp","type":"uint96"}],"name":"setBirthDate","outputs":[],"stateMutability":"nonpayable","type":"function"},{"inputs":[],"name":"solarUtilityContract","outputs":[{"internalType":"address","name":"","type":"address"}],"stateMutability":"view","type":"function"},{"inputs":[],"name":"totalBurned","outputs":[{"internalType":"uint256","name":"","type":"uint256"}],"stateMutability":"view","type":"function"},{"inputs":[],"name":"totalPledges","outputs":[{"internalType":"uint256","name":"","type":"uint256"}],"stateMutability":"view","type":"function"},{"inputs":[],"name":"totalRevenue","outputs":[{"internalType":"uint256","name":"","type":"uint256"}],"stateMutability":"view","type":"function"},{"inputs":[],"name":"totalUsdcForBurns","outputs":[{"internalType":"uint256","name":"","type":"uint256"}],"stateMutability":"view","type":"function"},{"inputs":[],"name":"totalVolume","outputs":[{"internalType":"uint256","name":"","type":"uint256"}],"stateMutability":"view","type":"function"},{"inputs":[{"internalType":"address","name":"newOwner","type":"address"}],"name":"transferOwnership","outputs":[],"stateMutability":"nonpayable","type":"function"},{"inputs":[],"name":"unpause","outputs":[],"stateMutability":"nonpayable","type":"function"},{"inputs":[{"internalType":"uint256","name":"_minBurnThreshold","type":"uint256"},{"internalType":"uint256","name":"_maxSlippage","type":"uint256"},{"internalType":"uint24","name":"_poolFee","type":"uint24"}],"name":"updateBurnSettings","outputs":[],"stateMutability":"nonpayable","type":"function"},{"inputs":[{"internalType":"address","name":"_newRouter","type":"address"}],"name":"updateDexRouter","outputs":[],"stateMutability":"nonpayable","type":"function"},{"inputs":[{"internalType":"address","name":"_morphoTreasury","type":"address"},{"internalType":"address","name":"_solarUtility","type":"address"}],"name":"updateRenaissanceContracts","outputs":[],"stateMutability":"nonpayable","type":"function"},{"inputs":[{"internalType":"address","name":"","type":"address"}],"name":"userBirthTimestamp","outputs":[{"internalType":"uint96","name":"","type":"uint96"}],"stateMutability":"view","type":"function"}],"evm":{"bytecode":{"linkReferences":{},"object":"60806040526002805462ffffff60a01b191661017760a31b179055629896806010556101f46011553480156200003457600080fd5b50604051620029833803806200298383398101604081905262000057916200027d565b600160005533806200008357604051631e4fbdf760e01b81526000600482015260240160405180910390fd5b6200008e816200020e565b50600380546001600160a01b038086166001600160a01b031992831617909255600480548584169083161790556002805492841692909116919091179055426000620000de8262278d00620002c7565b6040805160a0810182526001600160601b0394851681529184166020808401918252600092840183815260608501848152600160808701908152858052600890935294517f5eff886ea0ce6ca488a3d6e336d6c0f75f46d19b42c06ce5ee98e42c96d256c7805494519189166001600160c01b0319909516949094176c01000000000000000000000000918916919091021790925590517f5eff886ea0ce6ca488a3d6e336d6c0f75f46d19b42c06ce5ee98e42c96d256c880546001600160601b031916919096161790945590517f5eff886ea0ce6ca488a3d6e336d6c0f75f46d19b42c06ce5ee98e42c96d256c95591517f5eff886ea0ce6ca488a3d6e336d6c0f75f46d19b42c06ce5ee98e42c96d256ca805460ff19169115159190911790555060095550620002fd915050565b600180546001600160a01b038381166001600160a01b0319831681179093556040519116919082907f8be0079c531659141344cd1fd0a4f28419497f9722a3daafe3b4186f6b6457e090600090a35050565b80516001600160a01b03811681146200027857600080fd5b919050565b6000806000606084860312156200029357600080fd5b6200029e8462000260565b9250620002ae6020850162000260565b9150620002be6040850162000260565b90509250925092565b6001600160601b03818116838216019080821115620002f657634e487b7160e01b600052601160045260246000fd5b5092915050565b612676806200030d6000396000f3fe608060405234801561001057600080fd5b50600436106102695760003560e01c8063714f75e011610151578063b1a4b609116100c3578063d89135cd11610087578063d89135cd146106e5578063e0dd4fda146106ee578063e4fa4f30146106f7578063f2fde38b1461070a578063f5cc46511461071d578063fccc28131461073057600080fd5b8063b1a4b60914610670578063bda064eb146106a5578063bf2d9e0b146106c0578063cb4299f3146106c9578063d1c1003f146106dc57600080fd5b80638ab8cf5f116101155780638ab8cf5f146106165780638c04166f1461061f5780638da5cb5b1461062857806390769e0e146106395780639f3d391e14610659578063ad5c46481461066257600080fd5b8063714f75e0146105ac578063715018a6146105bf578063783f1615146105c75780638456cb59146105f357806389a30271146105fb57600080fd5b8063343576f5116101ea5780635b0f74dd116101ae5780635b0f74dd1461054f5780635c975abb146105625780635ce20ca2146105745780635f81a57c14610587578063682917b614610590578063685789cc146105a357600080fd5b8063343576f5146104f05780633463be3a146105195780633f4ba83a1461052c57806352c8dfd614610534578063551512de1461053c57600080fd5b806323b635851161023157806323b63585146103d657806324c8435f146103eb57806326c1246f146104735780632b7a8feb146104b457806333467351146104e757600080fd5b806304d377a31461026e5780630614990f1461035f5780630758d92414610376578063089fe6aa146103a15780631619004d146103cb575b600080fd5b61030e61027c366004611fca565b6040805160a08101825260008082526020820181905291810182905260608101829052608081019190915250600090815260086020908152604091829020825160a08101845281546001600160601b038082168352600160601b9091048116938201939093526001820154909216928201929092526002820154606082015260039091015460ff161515608082015290565b6040805182516001600160601b0390811682526020808501518216908301528383015116918101919091526060808301519082015260809182015115159181019190915260a0015b60405180910390f35b610368600d5481565b604051908152602001610356565b600254610389906001600160a01b031681565b6040516001600160a01b039091168152602001610356565b6002546103b790600160a01b900462ffffff1681565b60405162ffffff9091168152602001610356565b6103686302faf08081565b6103e96103e4366004611fca565b610739565b005b61043a6103f9366004611fca565b60086020526000908152604090208054600182015460028301546003909301546001600160601b0380841694600160601b9094048116939216919060ff1685565b604080516001600160601b039687168152948616602086015292909416918301919091526060820152901515608082015260a001610356565b61049c610481366004611fff565b6007602052600090815260409020546001600160601b031681565b6040516001600160601b039091168152602001610356565b6104d76104c2366004611fff565b60066020526000908152604090205460ff1681565b6040519015158152602001610356565b61036860105481565b6105036104fe366004611fff565b610814565b6040516103569a9998979695949392919061206a565b600454610389906001600160a01b031681565b6103e9610925565b600954610368565b6103e961054a3660046120f7565b610937565b6103e961055d366004612133565b6109b8565b600154600160a01b900460ff166104d7565b6103e9610582366004611fca565b6109ee565b610368600b5481565b6103e961059e366004612166565b610dd3565b610368600f5481565b6103e96105ba366004611fff565b610f55565b6103e9610f7f565b6104d76105d5366004611fff565b6001600160a01b031660009081526006602052604090205460ff1690565b6103e9610f91565b61038973833589fcd6edb6e08f4c7c32d4f71b54bda0291381565b61036860095481565b61036860115481565b6001546001600160a01b0316610389565b61064c610647366004611fff565b610fa1565b604051610356919061218f565b610368600a5481565b6103896006602160991b0181565b61067861119d565b604080519687526020870195909552938501929092526060840152608083015260a082015260c001610356565b61038973746042147240304098c837563aaec0f671881b0781565b610368600e5481565b6103e96106d7366004612291565b6111ec565b6103686103e881565b610368600c5481565b61036861138881565b6103e9610705366004612353565b61183c565b6103e9610718366004611fff565b611871565b600354610389906001600160a01b031681565b61038961dead81565b6107416118ac565b6040516370a0823160e01b815230600482015273833589fcd6edb6e08f4c7c32d4f71b54bda02913906370a0823190602401602060405180830381865afa158015610790573d6000803e3d6000fd5b505050506040513d601f19601f820116820180604052508101906107b49190612394565b8111156108085760405162461bcd60e51b815260206004820152601960248201527f496e73756666696369656e7420555344432062616c616e63650000000000000060448201526064015b60405180910390fd5b610811816118d9565b50565b60056020819052600091825260409091208054600182015460028301546003840154600485015495850180546001600160a01b03861697600160a01b9096046001600160601b039081169790861696600160601b9096046001600160801b039081169690861695600160801b900467ffffffffffffffff1694939092610899906123ad565b80601f01602080910402602001604051908101604052809291908181526020018280546108c5906123ad565b80156109125780601f106108e757610100808354040283529160200191610912565b820191906000526020600020905b8154815290600101906020018083116108f557829003601f168201915b5050506006909301549192505060ff168a565b61092d6118ac565b6109356119df565b565b61093f6118ac565b60405163a9059cbb60e01b81526001600160a01b0382811660048301526024820184905284169063a9059cbb906044016020604051808303816000875af115801561098e573d6000803e3d6000fd5b505050506040513d601f19601f820116820180604052508101906109b291906123e7565b50505050565b6109c06118ac565b600380546001600160a01b039384166001600160a01b03199182161790915560048054929093169116179055565b333014610a365760405162461bcd60e51b815260206004820152601660248201527513db9b1e481cd95b198b58d85b1b08185b1b1bddd95960521b60448201526064016107ff565b60025460405163095ea7b360e01b81526001600160a01b0390911660048201526024810182905273833589fcd6edb6e08f4c7c32d4f71b54bda029139063095ea7b3906044016020604051808303816000875af1158015610a9b573d6000803e3d6000fd5b505050506040513d601f19601f82011682018060405250810190610abf91906123e7565b506000610acb82611a34565b604080516101008101825273833589fcd6edb6e08f4c7c32d4f71b54bda02913815273746042147240304098c837563aaec0f671881b076020820152600254600160a01b900462ffffff169181019190915230606082015290915060009060808101610b394261012c61241f565b81526020808201869052604080830186905260006060938401819052600254825163414bf38960e01b815286516001600160a01b03908116600483015294870151851660248201529286015162ffffff16604484015293850151831660648301526080850151608483015260a085015160a483015260c085015160c483015260e0850151831660e483015293945091169063414bf38990610104016020604051808303816000875af1158015610bf3573d6000803e3d6000fd5b505050506040513d601f19601f82011682018060405250810190610c179190612394565b60405163a9059cbb60e01b815261dead60048201526024810182905290915073746042147240304098c837563aaec0f671881b079063a9059cbb906044016020604051808303816000875af1158015610c74573d6000803e3d6000fd5b505050506040513d601f19601f82011682018060405250810190610c9891906123e7565b5080600c6000828254610cab919061241f565b9091555060009050620f4240610cc18682612438565b610cd390670de0b6b3a7640000612438565b610cdd919061244f565b90506000828211610cef576000610d10565b81610cfa8482612471565b610d0690612710612438565b610d10919061244f565b60408051888152602081018690529081018290529091507f99f0ac37f25d867556b47547ba1c9c7526459a9ba8f1c3430739128132d13ddf9060600160405180910390a17f05da04f344a3825b746c0ef82b89ccb522cde42d6572fc258247f35c9d67e7228387604051610dc392919091825260208201526060604082018190526018908201527f5265616c204445582070757263686173652026206275726e0000000000000000608082015260a00190565b60405180910390a1505050505050565b6000816001600160601b031611610e2c5760405162461bcd60e51b815260206004820152601760248201527f496e76616c69642062697274682074696d657374616d7000000000000000000060448201526064016107ff565b42816001600160601b031610610e8f5760405162461bcd60e51b815260206004820152602260248201527f426972746820646174652063616e6e6f7420626520696e207468652066757475604482015261726560f01b60648201526084016107ff565b336000908152600760205260409020546001600160601b031615610eee5760405162461bcd60e51b8152602060048201526016602482015275109a5c9d1a0819185d1948185b1c9958591e481cd95d60521b60448201526064016107ff565b3360008181526007602090815260409182902080546bffffffffffffffffffffffff19166001600160601b03861690811790915591519182527fd68bf84faa2c0e9cea685e60bcc07d0de06274c2a2f43cd53ffabcf2f065b735910160405180910390a250565b610f5d6118ac565b600280546001600160a01b0319166001600160a01b0392909216919091179055565b610f876118ac565b6109356000611a91565b610f996118ac565b610935611ae3565b60408051610140810182526000808252602080830182905282840182905260608084018390526080840183905260a0840183905260c0840183905260e0840183905261010084015261012083018290526001600160a01b038516825260069052919091205460ff1661104c5760405162461bcd60e51b8152602060048201526014602482015273155cd95c881a185cc81b9bdd081c1b195919d95960621b60448201526064016107ff565b6001600160a01b0382811660009081526005602081815260409283902083516101408101855281549586168152600160a01b9095046001600160601b0390811692860192909252600181015491821693850193909352600160601b90046001600160801b03908116606085015260028301549081166080850152600160801b900467ffffffffffffffff1660a0840152600382015460c0840152600482015460e08401528101805461010084019190611104906123ad565b80601f0160208091040260200160405190810160405280929190818152602001828054611130906123ad565b801561117d5780601f106111525761010080835404028352916020019161117d565b820191906000526020600020905b81548152906001019060200180831161116057829003601f168201915b50505091835250506006919091015460ff16151560209091015292915050565b600b54600c54600f54600a54600d5460095460009081526008602052604081206003015490919060ff16156111e45760095460009081526008602052604090206002015491505b909192939495565b6111f4611b26565b6111fc611b50565b3360009081526006602052604090205460ff161561125c5760405162461bcd60e51b815260206004820152601860248201527f557365722068617320616c726561647920706c6564676564000000000000000060448201526064016107ff565b6000816001600160801b0316116112c15760405162461bcd60e51b8152602060048201526024808201527f506c6564676520616d6f756e74206d75737420626520677265617465722074686044820152630616e20360e41b60648201526084016107ff565b60008351116113125760405162461bcd60e51b815260206004820152601a60248201527f436f6d6d69746d656e742063616e6e6f7420626520656d70747900000000000060448201526064016107ff565b336000908152600760205260409020546001600160601b03166113775760405162461bcd60e51b815260206004820152601c60248201527f42697274682064617465206d757374206265207365742066697273740000000060448201526064016107ff565b600061138233611b7b565b905060008167ffffffffffffffff16116113d25760405162461bcd60e51b8152602060048201526011602482015270496e76616c696420736f6c61722061676560781b60448201526064016107ff565b6040516323b872dd60e01b81523360048201523060248201526001600160801b038316604482015273833589fcd6edb6e08f4c7c32d4f71b54bda02913906323b872dd906064016020604051808303816000875af1158015611438573d6000803e3d6000fd5b505050506040513d601f19601f8201168201806040525081019061145c91906123e7565b506000600a54600161146e919061241f565b90506000856040516020016114839190612484565b604051602081830303815290604052805190602001209050604051806101400160405280336001600160a01b03168152602001836001600160601b03168152602001426001600160601b03168152602001856001600160801b0316815260200160006001600160801b031681526020018467ffffffffffffffff1681526020018281526020018681526020018781526020016001151581525060056000336001600160a01b03166001600160a01b0316815260200190815260200160002060008201518160000160006101000a8154816001600160a01b0302191690836001600160a01b0316021790555060208201518160000160146101000a8154816001600160601b0302191690836001600160601b0316021790555060408201518160010160006101000a8154816001600160601b0302191690836001600160601b03160217905550606082015181600101600c6101000a8154816001600160801b0302191690836001600160801b0316021790555060808201518160020160006101000a8154816001600160801b0302191690836001600160801b0316021790555060a08201518160020160106101000a81548167ffffffffffffffff021916908367ffffffffffffffff16021790555060c0820151816003015560e0820151816004015561010082015181600501908161167b91906124ee565b5061012091909101516006918201805491151560ff199283161790553360009081526020929092526040822080549091166001179055600a8054916116bf836125ae565b9190505550836001600160801b0316600b60008282546116df919061241f565b92505081905550836001600160801b0316600e6000828254611701919061241f565b909155505060095460009081526008602052604090206003015460ff16156117a857600954600090815260086020526040812060010180546001600160601b03169161174c836125c7565b91906101000a8154816001600160601b0302191690836001600160601b0316021790555050836001600160801b031660086000600954815260200190815260200160002060020160008282546117a2919061241f565b90915550505b6117ba846001600160801b0316611bd9565b6302faf080846001600160801b0316106117e1576117e133856001600160801b0316611e1f565b336001600160a01b03167f060b3fc0357206539645f77bd7e33892ce5525d2a1600c9814d44041e3215ae88386868a8a6040516118229594939291906125ed565b60405180910390a25050506118376001600055565b505050565b6118446118ac565b6010929092556011556002805462ffffff909216600160a01b0262ffffff60a01b19909216919091179055565b6118796118ac565b6001600160a01b0381166118a357604051631e4fbdf760e01b8152600060048201526024016107ff565b61081181611a91565b6001546001600160a01b031633146109355760405163118cdaa760e01b81523360048201526024016107ff565b6002546001600160a01b03166118ec5750565b604051632e71065160e11b8152600481018290523090635ce20ca290602401600060405180830381600087803b15801561192557600080fd5b505af1925050508015611936575060015b6119c5577f05da04f344a3825b746c0ef82b89ccb522cde42d6572fc258247f35c9d67e7226000826040516119ba92919091825260208201526060604082018190526027908201527f53776170206661696c6564202d20555344432068656c6420666f72206d616e7560808201526630b610313ab93760c91b60a082015260c00190565b60405180910390a150565b80600d60008282546119d7919061241f565b909155505050565b6119e7611fa0565b6001805460ff60a01b191690557f5db9ee0a495bf2e6ff9c91a7834c1ba4fdd244a5e8aa4e537bd38aeae4b073aa335b6040516001600160a01b03909116815260200160405180910390a1565b600080620f4240611a458482612438565b611a5790670de0b6b3a7640000612438565b611a61919061244f565b9050612710601154612710611a769190612471565b611a809083612438565b611a8a919061244f565b9392505050565b600180546001600160a01b038381166001600160a01b0319831681179093556040519116919082907f8be0079c531659141344cd1fd0a4f28419497f9722a3daafe3b4186f6b6457e090600090a35050565b611aeb611b50565b6001805460ff60a01b1916600160a01b1790557f62e78cea01bee320cd4e420270b5ea74000d11b0c9f74754ebdbfc544b05a258611a173390565b600260005403611b4957604051633ee5aeb560e01b815260040160405180910390fd5b6002600055565b600154600160a01b900460ff16156109355760405163d93c066560e01b815260040160405180910390fd5b6001600160a01b0381166000908152600760205260408120546001600160601b0316808203611bad5750600092915050565b6000611bc26001600160601b03831642612471565b9050611bd1620151808261244f565b949350505050565b6000612710611bea61138884612438565b611bf4919061244f565b90506000612710611c076103e885612438565b611c11919061244f565b9050600081611c208486612471565b611c2a9190612471565b9050600083118015611c4657506003546001600160a01b031615155b15611dc05760035460405163a9059cbb60e01b81526001600160a01b0390911660048201526024810184905273833589fcd6edb6e08f4c7c32d4f71b54bda029139063a9059cbb906044016020604051808303816000875af1158015611cb0573d6000803e3d6000fd5b505050506040513d601f19601f82011682018060405250810190611cd491906123e7565b5082600f6000828254611ce7919061241f565b9091555050600354604051602481018590526000916001600160a01b03169060440160408051601f198184030181529181526020820180516001600160e01b03166363ec512d60e01b17905251611d3e9190612484565b6000604051808303816000865af19150503d8060008114611d7b576040519150601f19603f3d011682016040523d82523d6000602084013e611d80565b606091505b505090508015611dbe576040518481527f136bf5f01d0758622ba886621b1834c6204220ad7fd36f888398706b63b7e2809060200160405180910390a15b505b600082118015611dd257506010548210155b15611de057611de0826118d9565b60408051848152602081018390527fcc20df2e6115f65d438c80b313a169bcb1838118c200233b3f7c86762a6968a8910160405180910390a150505050565b6004546001600160a01b031615611f9c5760006301e133806305f5e1008310611e58576a1d9a5c17dcdd5c1c1bdc9d60aa1b9150611ea1565b63047868c08310611e7e576f616476616e6365645f6a6f75726e657960801b9150611ea1565b6302faf0808310611ea157707072656d69756d5f616e616c797469637360781b91505b81156109b2576004546040516001600160a01b0386811660248301526044820185905260648201849052600092169060840160408051601f198184030181529181526020820180516001600160e01b0316637000dfdf60e11b17905251611f089190612484565b6000604051808303816000865af19150503d8060008114611f45576040519150601f19603f3d011682016040523d82523d6000602084013e611f4a565b606091505b505090508015611f9857846001600160a01b03167fe906d728a410a21cda518f10133a43d00f3a5a74f855b97e2e2cda4b451525dc85604051611f8f91815260200190565b60405180910390a25b5050505b5050565b600154600160a01b900460ff1661093557604051638dfc202b60e01b815260040160405180910390fd5b600060208284031215611fdc57600080fd5b5035919050565b80356001600160a01b0381168114611ffa57600080fd5b919050565b60006020828403121561201157600080fd5b611a8a82611fe3565b60005b8381101561203557818101518382015260200161201d565b50506000910152565b6000815180845261205681602086016020860161201a565b601f01601f19169290920160200192915050565b6001600160a01b038b1681526001600160601b038a81166020830152891660408201526001600160801b0388811660608301528716608082015267ffffffffffffffff861660a082015260c0810185905260e0810184905261014061010082018190526000906120dc8382018661203e565b9150508215156101208301529b9a5050505050505050505050565b60008060006060848603121561210c57600080fd5b61211584611fe3565b92506020840135915061212a60408501611fe3565b90509250925092565b6000806040838503121561214657600080fd5b61214f83611fe3565b915061215d60208401611fe3565b90509250929050565b60006020828403121561217857600080fd5b81356001600160601b0381168114611a8a57600080fd5b602081526121a96020820183516001600160a01b03169052565b600060208301516121c560408401826001600160601b03169052565b5060408301516001600160601b03811660608401525060608301516001600160801b03811660808401525060808301516001600160801b03811660a08401525060a083015167ffffffffffffffff811660c08401525060c083015160e083015260e0830151610100818185015280850151915050610140610120818186015261225261016086018461203e565b95015115159301929092525090919050565b634e487b7160e01b600052604160045260246000fd5b80356001600160801b0381168114611ffa57600080fd5b6000806000606084860312156122a657600080fd5b833567ffffffffffffffff808211156122be57600080fd5b818601915086601f8301126122d257600080fd5b8135818111156122e4576122e4612264565b604051601f8201601f19908116603f0116810190838211818310171561230c5761230c612264565b8160405282815289602084870101111561232557600080fd5b8260208601602083013760006020848301015280975050505050506020840135915061212a6040850161227a565b60008060006060848603121561236857600080fd5b8335925060208401359150604084013562ffffff8116811461238957600080fd5b809150509250925092565b6000602082840312156123a657600080fd5b5051919050565b600181811c908216806123c157607f821691505b6020821081036123e157634e487b7160e01b600052602260045260246000fd5b50919050565b6000602082840312156123f957600080fd5b81518015158114611a8a57600080fd5b634e487b7160e01b600052601160045260246000fd5b8082018082111561243257612432612409565b92915050565b808202811582820484141761243257612432612409565b60008261246c57634e487b7160e01b600052601260045260246000fd5b500490565b8181038181111561243257612432612409565b6000825161249681846020870161201a565b9190910192915050565b601f82111561183757600081815260208120601f850160051c810160208610156124c75750805b601f850160051c820191505b818110156124e6578281556001016124d3565b505050505050565b815167ffffffffffffffff81111561250857612508612264565b61251c8161251684546123ad565b846124a0565b602080601f83116001811461255157600084156125395750858301515b600019600386901b1c1916600185901b1785556124e6565b600085815260208120601f198616915b8281101561258057888601518255948401946001909101908401612561565b508582101561259e5787850151600019600388901b60f8161c191681555b5050505050600190811b01905550565b6000600182016125c0576125c0612409565b5060010190565b60006001600160601b038083168181036125e3576125e3612409565b6001019392505050565b6001600160601b03861681526001600160801b038516602082015267ffffffffffffffff8416604082015260a06060820152600061262e60a083018561203e565b9050826080830152969550505050505056fea2646970667358221220e5feb0b200fd0a3e77d4024d4b726adedffba669fb59e144a96527a5aca3f81564736f6c63430008140033","opcodes":"PUSH1 0x80 PUSH1 0x40 MSTORE PUSH1 0x2 DUP1 SLOAD PUSH3 0xFFFFFF PUSH1 0xA0 SHL NOT AND PUSH2 0x177 PUSH1 0xA3 SHL OR SWAP1 SSTORE PUSH3 0x989680 PUSH1 0x10 SSTORE PUSH2 0x1F4 PUSH1 0x11 SSTORE CALLVALUE DUP1 ISZERO PUSH3 0x34 JUMPI PUSH1 0x0 DUP1 REVERT JUMPDEST POP PUSH1 0x40 MLOAD PUSH3 0x2983 CODESIZE SUB DUP1 PUSH3 0x2983 DUP4 CODECOPY DUP2 ADD PUSH1 0x40 DUP2 SWAP1 MSTORE PUSH3 0x57 SWAP2 PUSH3 0x27D JUMP JUMPDEST PUSH1 0x1 PUSH1 0x0 SSTORE CALLER DUP1 PUSH3 0x83 JUMPI PUSH1 0x40 MLOAD PUSH4 0x1E4FBDF7 PUSH1 0xE0 SHL DUP2 MSTORE PUSH1 0x0 PUSH1 0x4 DUP3 ADD MSTORE PUSH1 0x24 ADD PUSH1 0x40 MLOAD DUP1 SWAP2 SUB SWAP1 REVERT JUMPDEST PUSH3 0x8E DUP2 PUSH3 0x20E JUMP JUMPDEST POP PUSH1 0x3 DUP1 SLOAD PUSH1 0x1 PUSH1 0x1 PUSH1 0xA0 SHL SUB DUP1 DUP7 AND PUSH1 0x1 PUSH1 0x1 PUSH1 0xA0 SHL SUB NOT SWAP3 DUP4 AND OR SWAP1 SWAP3 SSTORE PUSH1 0x4 DUP1 SLOAD DUP6 DUP5 AND SWAP1 DUP4 AND OR SWAP1 SSTORE PUSH1 0x2 DUP1 SLOAD SWAP3 DUP5 AND SWAP3 SWAP1 SWAP2 AND SWAP2 SWAP1 SWAP2 OR SWAP1 SSTORE TIMESTAMP PUSH1 0x0 PUSH3 0xDE DUP3 PUSH3 0x278D00 PUSH3 0x2C7 JUMP JUMPDEST PUSH1 0x40 DUP1 MLOAD PUSH1 0xA0 DUP2 ADD DUP3 MSTORE PUSH1 0x1 PUSH1 0x1 PUSH1 0x60 SHL SUB SWAP5 DUP6 AND DUP2 MSTORE SWAP2 DUP5 AND PUSH1 0x20 DUP1 DUP5 ADD SWAP2 DUP3 MSTORE PUSH1 0x0 SWAP3 DUP5 ADD DUP4 DUP2 MSTORE PUSH1 0x60 DUP6 ADD DUP5 DUP2 MSTORE PUSH1 0x1 PUSH1 0x80 DUP8 ADD SWAP1 DUP2 MSTORE DUP6 DUP1 MSTORE PUSH1 0x8 SWAP1 SWAP4 MSTORE SWAP5 MLOAD PUSH32 0x5EFF886EA0CE6CA488A3D6E336D6C0F75F46D19B42C06CE5EE98E42C96D256C7 DUP1 SLOAD SWAP5 MLOAD SWAP2 DUP10 AND PUSH1 0x1 PUSH1 0x1 PUSH1 0xC0 SHL SUB NOT SWAP1 SWAP6 AND SWAP5 SWAP1 SWAP5 OR PUSH13 0x1000000000000000000000000 SWAP2 DUP10 AND SWAP2 SWAP1 SWAP2 MUL OR SWAP1 SWAP3 SSTORE SWAP1 MLOAD PUSH32 0x5EFF886EA0CE6CA488A3D6E336D6C0F75F46D19B42C06CE5EE98E42C96D256C8 DUP1 SLOAD PUSH1 0x1 PUSH1 0x1 PUSH1 0x60 SHL SUB NOT AND SWAP2 SWAP1 SWAP7 AND OR SWAP1 SWAP5 SSTORE SWAP1 MLOAD PUSH32 0x5EFF886EA0CE6CA488A3D6E336D6C0F75F46D19B42C06CE5EE98E42C96D256C9 SSTORE SWAP2 MLOAD PUSH32 0x5EFF886EA0CE6CA488A3D6E336D6C0F75F46D19B42C06CE5EE98E42C96D256CA DUP1 SLOAD PUSH1 0xFF NOT AND SWAP2 ISZERO ISZERO SWAP2 SWAP1 SWAP2 OR SWAP1 SSTORE POP PUSH1 0x9 SSTORE POP PUSH3 0x2FD SWAP2 POP POP JUMP JUMPDEST PUSH1 0x1 DUP1 SLOAD PUSH1 0x1 PUSH1 0x1 PUSH1 0xA0 SHL SUB DUP4 DUP2 AND PUSH1 0x1 PUSH1 0x1 PUSH1 0xA0 SHL SUB NOT DUP4 AND DUP2 OR SWAP1 SWAP4 SSTORE PUSH1 0x40 MLOAD SWAP2 AND SWAP2 SWAP1 DUP3 SWAP1 PUSH32 0x8BE0079C531659141344CD1FD0A4F28419497F9722A3DAAFE3B4186F6B6457E0 SWAP1 PUSH1 0x0 SWAP1 LOG3 POP POP JUMP JUMPDEST DUP1 MLOAD PUSH1 0x1 PUSH1 0x1 PUSH1 0xA0 SHL SUB DUP2 AND DUP2 EQ PUSH3 0x278 JUMPI PUSH1 0x0 DUP1 REVERT JUMPDEST SWAP2 SWAP1 POP JUMP JUMPDEST PUSH1 0x0 DUP1 PUSH1 0x0 PUSH1 0x60 DUP5 DUP7 SUB SLT ISZERO PUSH3 0x293 JUMPI PUSH1 0x0 DUP1 REVERT JUMPDEST PUSH3 0x29E DUP5 PUSH3 0x260 JUMP JUMPDEST SWAP3 POP PUSH3 0x2AE PUSH1 0x20 DUP6 ADD PUSH3 0x260 JUMP JUMPDEST SWAP2 POP PUSH3 0x2BE PUSH1 0x40 DUP6 ADD PUSH3 0x260 JUMP JUMPDEST SWAP1 POP SWAP3 POP SWAP3 POP SWAP3 JUMP JUMPDEST PUSH1 0x1 PUSH1 0x1 PUSH1 0x60 SHL SUB DUP2 DUP2 AND DUP4 DUP3 AND ADD SWAP1 DUP1 DUP3 GT ISZERO PUSH3 0x2F6 JUMPI PUSH4 0x4E487B71 PUSH1 0xE0 SHL PUSH1 0x0 MSTORE PUSH1 0x11 PUSH1 0x4 MSTORE PUSH1 0x24 PUSH1 0x0 REVERT JUMPDEST POP SWAP3 SWAP2 POP POP JUMP JUMPDEST PUSH2 0x2676 DUP1 PUSH3 0x30D PUSH1 0x0 CODECOPY PUSH1 0x0 RETURN INVALID PUSH1 0x80 PUSH1 0x40 MSTORE CALLVALUE DUP1 ISZERO PUSH2 0x10 JUMPI PUSH1 0x0 DUP1 REVERT JUMPDEST POP PUSH1 0x4 CALLDATASIZE LT PUSH2 0x269 JUMPI PUSH1 0x0 CALLDATALOAD PUSH1 0xE0 SHR DUP1 PUSH4 0x714F75E0 GT PUSH2 0x151 JUMPI DUP1 PUSH4 0xB1A4B609 GT PUSH2 0xC3 JUMPI DUP1 PUSH4 0xD89135CD GT PUSH2 0x87 JUMPI DUP1 PUSH4 0xD89135CD EQ PUSH2 0x6E5 JUMPI DUP1 PUSH4 0xE0DD4FDA EQ PUSH2 0x6EE JUMPI DUP1 PUSH4 0xE4FA4F30 EQ PUSH2 0x6F7 JUMPI DUP1 PUSH4 0xF2FDE38B EQ PUSH2 0x70A JUMPI DUP1 PUSH4 0xF5CC4651 EQ PUSH2 0x71D JUMPI DUP1 PUSH4 0xFCCC2813 EQ PUSH2 0x730 JUMPI PUSH1 0x0 DUP1 REVERT JUMPDEST DUP1 PUSH4 0xB1A4B609 EQ PUSH2 0x670 JUMPI DUP1 PUSH4 0xBDA064EB EQ PUSH2 0x6A5 JUMPI DUP1 PUSH4 0xBF2D9E0B EQ PUSH2 0x6C0 JUMPI DUP1 PUSH4 0xCB4299F3 EQ PUSH2 0x6C9 JUMPI DUP1 PUSH4 0xD1C1003F EQ PUSH2 0x6DC JUMPI PUSH1 0x0 DUP1 REVERT JUMPDEST DUP1 PUSH4 0x8AB8CF5F GT PUSH2 0x115 JUMPI DUP1 PUSH4 0x8AB8CF5F EQ PUSH2 0x616 JUMPI DUP1 PUSH4 0x8C04166F EQ PUSH2 0x61F JUMPI DUP1 PUSH4 0x8DA5CB5B EQ PUSH2 0x628 JUMPI DUP1 PUSH4 0x90769E0E EQ PUSH2 0x639 JUMPI DUP1 PUSH4 0x9F3D391E EQ PUSH2 0x659 JUMPI DUP1 PUSH4 0xAD5C4648 EQ PUSH2 0x662 JUMPI PUSH1 0x0 DUP1 REVERT JUMPDEST DUP1 PUSH4 0x714F75E0 EQ PUSH2 0x5AC JUMPI DUP1 PUSH4 0x715018A6 EQ PUSH2 0x5BF JUMPI DUP1 PUSH4 0x783F1615 EQ PUSH2 0x5C7 JUMPI DUP1 PUSH4 0x8456CB59 EQ PUSH2 0x5F3 JUMPI DUP1 PUSH4 0x89A30271 EQ PUSH2 0x5FB JUMPI PUSH1 0x0 DUP1 REVERT JUMPDEST DUP1 PUSH4 0x343576F5 GT PUSH2 0x1EA JUMPI DUP1 PUSH4 0x5B0F74DD GT PUSH2 0x1AE JUMPI DUP1 PUSH4 0x5B0F74DD EQ PUSH2 0x54F JUMPI DUP1 PUSH4 0x5C975ABB EQ PUSH2 0x562 JUMPI DUP1 PUSH4 0x5CE20CA2 EQ PUSH2 0x574 JUMPI DUP1 PUSH4 0x5F81A57C EQ PUSH2 0x587 JUMPI DUP1 PUSH4 0x682917B6 EQ PUSH2 0x590 JUMPI DUP1 PUSH4 0x685789CC EQ PUSH2 0x5A3 JUMPI PUSH1 0x0 DUP1 REVERT JUMPDEST DUP1 PUSH4 0x343576F5 EQ PUSH2 0x4F0 JUMPI DUP1 PUSH4 0x3463BE3A EQ PUSH2 0x519 JUMPI DUP1 PUSH4 0x3F4BA83A EQ PUSH2 0x52C JUMPI DUP1 PUSH4 0x52C8DFD6 EQ PUSH2 0x534 JUMPI DUP1 PUSH4 0x551512DE EQ PUSH2 0x53C JUMPI PUSH1 0x0 DUP1 REVERT JUMPDEST DUP1 PUSH4 0x23B63585 GT PUSH2 0x231 JUMPI DUP1 PUSH4 0x23B63585 EQ PUSH2 0x3D6 JUMPI DUP1 PUSH4 0x24C8435F EQ PUSH2 0x3EB JUMPI DUP1 PUSH4 0x26C1246F EQ PUSH2 0x473 JUMPI DUP1 PUSH4 0x2B7A8FEB EQ PUSH2 0x4B4 JUMPI DUP1 PUSH4 0x33467351 EQ PUSH2 0x4E7 JUMPI PUSH1 0x0 DUP1 REVERT JUMPDEST DUP1 PUSH4 0x4D377A3 EQ PUSH2 0x26E JUMPI DUP1 PUSH4 0x614990F EQ PUSH2 0x35F JUMPI DUP1 PUSH4 0x758D924 EQ PUSH2 0x376 JUMPI DUP1 PUSH4 0x89FE6AA EQ PUSH2 0x3A1 JUMPI DUP1 PUSH4 0x1619004D EQ PUSH2 0x3CB JUMPI JUMPDEST PUSH1 0x0 DUP1 REVERT JUMPDEST PUSH2 0x30E PUSH2 0x27C CALLDATASIZE PUSH1 0x4 PUSH2 0x1FCA JUMP JUMPDEST PUSH1 0x40 DUP1 MLOAD PUSH1 0xA0 DUP2 ADD DUP3 MSTORE PUSH1 0x0 DUP1 DUP3 MSTORE PUSH1 0x20 DUP3 ADD DUP2 SWAP1 MSTORE SWAP2 DUP2 ADD DUP3 SWAP1 MSTORE PUSH1 0x60 DUP2 ADD DUP3 SWAP1 MSTORE PUSH1 0x80 DUP2 ADD SWAP2 SWAP1 SWAP2 MSTORE POP PUSH1 0x0 SWAP1 DUP2 MSTORE PUSH1 0x8 PUSH1 0x20 SWAP1 DUP2 MSTORE PUSH1 0x40 SWAP2 DUP3 SWAP1 KECCAK256 DUP3 MLOAD PUSH1 0xA0 DUP2 ADD DUP5 MSTORE DUP2 SLOAD PUSH1 0x1 PUSH1 0x1 PUSH1 0x60 SHL SUB DUP1 DUP3 AND DUP4 MSTORE PUSH1 0x1 PUSH1 0x60 SHL SWAP1 SWAP2 DIV DUP2 AND SWAP4 DUP3 ADD SWAP4 SWAP1 SWAP4 MSTORE PUSH1 0x1 DUP3 ADD SLOAD SWAP1 SWAP3 AND SWAP3 DUP3 ADD SWAP3 SWAP1 SWAP3 MSTORE PUSH1 0x2 DUP3 ADD SLOAD PUSH1 0x60 DUP3 ADD MSTORE PUSH1 0x3 SWAP1 SWAP2 ADD SLOAD PUSH1 0xFF AND ISZERO ISZERO PUSH1 0x80 DUP3 ADD MSTORE SWAP1 JUMP JUMPDEST PUSH1 0x40 DUP1 MLOAD DUP3 MLOAD PUSH1 0x1 PUSH1 0x1 PUSH1 0x60 SHL SUB SWAP1 DUP2 AND DUP3 MSTORE PUSH1 0x20 DUP1 DUP6 ADD MLOAD DUP3 AND SWAP1 DUP4 ADD MSTORE DUP4 DUP4 ADD MLOAD AND SWAP2 DUP2 ADD SWAP2 SWAP1 SWAP2 MSTORE PUSH1 0x60 DUP1 DUP4 ADD MLOAD SWAP1 DUP3 ADD MSTORE PUSH1 0x80 SWAP2 DUP3 ADD MLOAD ISZERO ISZERO SWAP2 DUP2 ADD SWAP2 SWAP1 SWAP2 MSTORE PUSH1 0xA0 ADD JUMPDEST PUSH1 0x40 MLOAD DUP1 SWAP2 SUB SWAP1 RETURN JUMPDEST PUSH2 0x368 PUSH1 0xD SLOAD DUP2 JUMP JUMPDEST PUSH1 0x40 MLOAD SWAP1 DUP2 MSTORE PUSH1 0x20 ADD PUSH2 0x356 JUMP JUMPDEST PUSH1 0x2 SLOAD PUSH2 0x389 SWAP1 PUSH1 0x1 PUSH1 0x1 PUSH1 0xA0 SHL SUB AND DUP2 JUMP JUMPDEST PUSH1 0x40 MLOAD PUSH1 0x1 PUSH1 0x1 PUSH1 0xA0 SHL SUB SWAP1 SWAP2 AND DUP2 MSTORE PUSH1 0x20 ADD PUSH2 0x356 JUMP JUMPDEST PUSH1 0x2 SLOAD PUSH2 0x3B7 SWAP1 PUSH1 0x1 PUSH1 0xA0 SHL SWAP1 DIV PUSH3 0xFFFFFF AND DUP2 JUMP JUMPDEST PUSH1 0x40 MLOAD PUSH3 0xFFFFFF SWAP1 SWAP2 AND DUP2 MSTORE PUSH1 0x20 ADD PUSH2 0x356 JUMP JUMPDEST PUSH2 0x368 PUSH4 0x2FAF080 DUP2 JUMP JUMPDEST PUSH2 0x3E9 PUSH2 0x3E4 CALLDATASIZE PUSH1 0x4 PUSH2 0x1FCA JUMP JUMPDEST PUSH2 0x739 JUMP JUMPDEST STOP JUMPDEST PUSH2 0x43A PUSH2 0x3F9 CALLDATASIZE PUSH1 0x4 PUSH2 0x1FCA JUMP JUMPDEST PUSH1 0x8 PUSH1 0x20 MSTORE PUSH1 0x0 SWAP1 DUP2 MSTORE PUSH1 0x40 SWAP1 KECCAK256 DUP1 SLOAD PUSH1 0x1 DUP3 ADD SLOAD PUSH1 0x2 DUP4 ADD SLOAD PUSH1 0x3 SWAP1 SWAP4 ADD SLOAD PUSH1 0x1 PUSH1 0x1 PUSH1 0x60 SHL SUB DUP1 DUP5 AND SWAP5 PUSH1 0x1 PUSH1 0x60 SHL SWAP1 SWAP5 DIV DUP2 AND SWAP4 SWAP3 AND SWAP2 SWAP1 PUSH1 0xFF AND DUP6 JUMP JUMPDEST PUSH1 0x40 DUP1 MLOAD PUSH1 0x1 PUSH1 0x1 PUSH1 0x60 SHL SUB SWAP7 DUP8 AND DUP2 MSTORE SWAP5 DUP7 AND PUSH1 0x20 DUP7 ADD MSTORE SWAP3 SWAP1 SWAP5 AND SWAP2 DUP4 ADD SWAP2 SWAP1 SWAP2 MSTORE PUSH1 0x60 DUP3 ADD MSTORE SWAP1 ISZERO ISZERO PUSH1 0x80 DUP3 ADD MSTORE PUSH1 0xA0 ADD PUSH2 0x356 JUMP JUMPDEST PUSH2 0x49C PUSH2 0x481 CALLDATASIZE PUSH1 0x4 PUSH2 0x1FFF JUMP JUMPDEST PUSH1 0x7 PUSH1 0x20 MSTORE PUSH1 0x0 SWAP1 DUP2 MSTORE PUSH1 0x40 SWAP1 KECCAK256 SLOAD PUSH1 0x1 PUSH1 0x1 PUSH1 0x60 SHL SUB AND DUP2 JUMP JUMPDEST PUSH1 0x40 MLOAD PUSH1 0x1 PUSH1 0x1 PUSH1 0x60 SHL SUB SWAP1 SWAP2 AND DUP2 MSTORE PUSH1 0x20 ADD PUSH2 0x356 JUMP JUMPDEST PUSH2 0x4D7 PUSH2 0x4C2 CALLDATASIZE PUSH1 0x4 PUSH2 0x1FFF JUMP JUMPDEST PUSH1 0x6 PUSH1 0x20 MSTORE PUSH1 0x0 SWAP1 DUP2 MSTORE PUSH1 0x40 SWAP1 KECCAK256 SLOAD PUSH1 0xFF AND DUP2 JUMP JUMPDEST PUSH1 0x40 MLOAD SWAP1 ISZERO ISZERO DUP2 MSTORE PUSH1 0x20 ADD PUSH2 0x356 JUMP JUMPDEST PUSH2 0x368 PUSH1 0x10 SLOAD DUP2 JUMP JUMPDEST PUSH2 0x503 PUSH2 0x4FE CALLDATASIZE PUSH1 0x4 PUSH2 0x1FFF JUMP JUMPDEST PUSH2 0x814 JUMP JUMPDEST PUSH1 0x40 MLOAD PUSH2 0x356 SWAP11 SWAP10 SWAP9 SWAP8 SWAP7 SWAP6 SWAP5 SWAP4 SWAP3 SWAP2 SWAP1 PUSH2 0x206A JUMP JUMPDEST PUSH1 0x4 SLOAD PUSH2 0x389 SWAP1 PUSH1 0x1 PUSH1 0x1 PUSH1 0xA0 SHL SUB AND DUP2 JUMP JUMPDEST PUSH2 0x3E9 PUSH2 0x925 JUMP JUMPDEST PUSH1 0x9 SLOAD PUSH2 0x368 JUMP JUMPDEST PUSH2 0x3E9 PUSH2 0x54A CALLDATASIZE PUSH1 0x4 PUSH2 0x20F7 JUMP JUMPDEST PUSH2 0x937 JUMP JUMPDEST PUSH2 0x3E9 PUSH2 0x55D CALLDATASIZE PUSH1 0x4 PUSH2 0x2133 JUMP JUMPDEST PUSH2 0x9B8 JUMP JUMPDEST PUSH1 0x1 SLOAD PUSH1 0x1 PUSH1 0xA0 SHL SWAP1 DIV PUSH1 0xFF AND PUSH2 0x4D7 JUMP JUMPDEST PUSH2 0x3E9 PUSH2 0x582 CALLDATASIZE PUSH1 0x4 PUSH2 0x1FCA JUMP JUMPDEST PUSH2 0x9EE JUMP JUMPDEST PUSH2 0x368 PUSH1 0xB SLOAD DUP2 JUMP JUMPDEST PUSH2 0x3E9 PUSH2 0x59E CALLDATASIZE PUSH1 0x4 PUSH2 0x2166 JUMP JUMPDEST PUSH2 0xDD3 JUMP JUMPDEST PUSH2 0x368 PUSH1 0xF SLOAD DUP2 JUMP JUMPDEST PUSH2 0x3E9 PUSH2 0x5BA CALLDATASIZE PUSH1 0x4 PUSH2 0x1FFF JUMP JUMPDEST PUSH2 0xF55 JUMP JUMPDEST PUSH2 0x3E9 PUSH2 0xF7F JUMP JUMPDEST PUSH2 0x4D7 PUSH2 0x5D5 CALLDATASIZE PUSH1 0x4 PUSH2 0x1FFF JUMP JUMPDEST PUSH1 0x1 PUSH1 0x1 PUSH1 0xA0 SHL SUB AND PUSH1 0x0 SWAP1 DUP2 MSTORE PUSH1 0x6 PUSH1 0x20 MSTORE PUSH1 0x40 SWAP1 KECCAK256 SLOAD PUSH1 0xFF AND SWAP1 JUMP JUMPDEST PUSH2 0x3E9 PUSH2 0xF91 JUMP JUMPDEST PUSH2 0x389 PUSH20 0x833589FCD6EDB6E08F4C7C32D4F71B54BDA02913 DUP2 JUMP JUMPDEST PUSH2 0x368 PUSH1 0x9 SLOAD DUP2 JUMP JUMPDEST PUSH2 0x368 PUSH1 0x11 SLOAD DUP2 JUMP JUMPDEST PUSH1 0x1 SLOAD PUSH1 0x1 PUSH1 0x1 PUSH1 0xA0 SHL SUB AND PUSH2 0x389 JUMP JUMPDEST PUSH2 0x64C PUSH2 0x647 CALLDATASIZE PUSH1 0x4 PUSH2 0x1FFF JUMP JUMPDEST PUSH2 0xFA1 JUMP JUMPDEST PUSH1 0x40 MLOAD PUSH2 0x356 SWAP2 SWAP1 PUSH2 0x218F JUMP JUMPDEST PUSH2 0x368 PUSH1 0xA SLOAD DUP2 JUMP JUMPDEST PUSH2 0x389 PUSH1 0x6 PUSH1 0x21 PUSH1 0x99 SHL ADD DUP2 JUMP JUMPDEST PUSH2 0x678 PUSH2 0x119D JUMP JUMPDEST PUSH1 0x40 DUP1 MLOAD SWAP7 DUP8 MSTORE PUSH1 0x20 DUP8 ADD SWAP6 SWAP1 SWAP6 MSTORE SWAP4 DUP6 ADD SWAP3 SWAP1 SWAP3 MSTORE PUSH1 0x60 DUP5 ADD MSTORE PUSH1 0x80 DUP4 ADD MSTORE PUSH1 0xA0 DUP3 ADD MSTORE PUSH1 0xC0 ADD PUSH2 0x356 JUMP JUMPDEST PUSH2 0x389 PUSH20 0x746042147240304098C837563AAEC0F671881B07 DUP2 JUMP JUMPDEST PUSH2 0x368 PUSH1 0xE SLOAD DUP2 JUMP JUMPDEST PUSH2 0x3E9 PUSH2 0x6D7 CALLDATASIZE PUSH1 0x4 PUSH2 0x2291 JUMP JUMPDEST PUSH2 0x11EC JUMP JUMPDEST PUSH2 0x368 PUSH2 0x3E8 DUP2 JUMP JUMPDEST PUSH2 0x368 PUSH1 0xC SLOAD DUP2 JUMP JUMPDEST PUSH2 0x368 PUSH2 0x1388 DUP2 JUMP JUMPDEST PUSH2 0x3E9 PUSH2 0x705 CALLDATASIZE PUSH1 0x4 PUSH2 0x2353 JUMP JUMPDEST PUSH2 0x183C JUMP JUMPDEST PUSH2 0x3E9 PUSH2 0x718 CALLDATASIZE PUSH1 0x4 PUSH2 0x1FFF JUMP JUMPDEST PUSH2 0x1871 JUMP JUMPDEST PUSH1 0x3 SLOAD PUSH2 0x389 SWAP1 PUSH1 0x1 PUSH1 0x1 PUSH1 0xA0 SHL SUB AND DUP2 JUMP JUMPDEST PUSH2 0x389 PUSH2 0xDEAD DUP2 JUMP JUMPDEST PUSH2 0x741 PUSH2 0x18AC JUMP JUMPDEST PUSH1 0x40 MLOAD PUSH4 0x70A08231 PUSH1 0xE0 SHL DUP2 MSTORE ADDRESS PUSH1 0x4 DUP3 ADD MSTORE PUSH20 0x833589FCD6EDB6E08F4C7C32D4F71B54BDA02913 SWAP1 PUSH4 0x70A08231 SWAP1 PUSH1 0x24 ADD PUSH1 0x20 PUSH1 0x40 MLOAD DUP1 DUP4 SUB DUP2 DUP7 GAS STATICCALL ISZERO DUP1 ISZERO PUSH2 0x790 JUMPI RETURNDATASIZE PUSH1 0x0 DUP1 RETURNDATACOPY RETURNDATASIZE PUSH1 0x0 REVERT JUMPDEST POP POP POP POP PUSH1 0x40 MLOAD RETURNDATASIZE PUSH1 0x1F NOT PUSH1 0x1F DUP3 ADD AND DUP3 ADD DUP1 PUSH1 0x40 MSTORE POP DUP2 ADD SWAP1 PUSH2 0x7B4 SWAP2 SWAP1 PUSH2 0x2394 JUMP JUMPDEST DUP2 GT ISZERO PUSH2 0x808 JUMPI PUSH1 0x40 MLOAD PUSH3 0x461BCD PUSH1 0xE5 SHL DUP2 MSTORE PUSH1 0x20 PUSH1 0x4 DUP3 ADD MSTORE PUSH1 0x19 PUSH1 0x24 DUP3 ADD MSTORE PUSH32 0x496E73756666696369656E7420555344432062616C616E636500000000000000 PUSH1 0x44 DUP3 ADD MSTORE PUSH1 0x64 ADD JUMPDEST PUSH1 0x40 MLOAD DUP1 SWAP2 SUB SWAP1 REVERT JUMPDEST PUSH2 0x811 DUP2 PUSH2 0x18D9 JUMP JUMPDEST POP JUMP JUMPDEST PUSH1 0x5 PUSH1 0x20 DUP2 SWAP1 MSTORE PUSH1 0x0 SWAP2 DUP3 MSTORE PUSH1 0x40 SWAP1 SWAP2 KECCAK256 DUP1 SLOAD PUSH1 0x1 DUP3 ADD SLOAD PUSH1 0x2 DUP4 ADD SLOAD PUSH1 0x3 DUP5 ADD SLOAD PUSH1 0x4 DUP6 ADD SLOAD SWAP6 DUP6 ADD DUP1 SLOAD PUSH1 0x1 PUSH1 0x1 PUSH1 0xA0 SHL SUB DUP7 AND SWAP8 PUSH1 0x1 PUSH1 0xA0 SHL SWAP1 SWAP7 DIV PUSH1 0x1 PUSH1 0x1 PUSH1 0x60 SHL SUB SWAP1 DUP2 AND SWAP8 SWAP1 DUP7 AND SWAP7 PUSH1 0x1 PUSH1 0x60 SHL SWAP1 SWAP7 DIV PUSH1 0x1 PUSH1 0x1 PUSH1 0x80 SHL SUB SWAP1 DUP2 AND SWAP7 SWAP1 DUP7 AND SWAP6 PUSH1 0x1 PUSH1 0x80 SHL SWAP1 DIV PUSH8 0xFFFFFFFFFFFFFFFF AND SWAP5 SWAP4 SWAP1 SWAP3 PUSH2 0x899 SWAP1 PUSH2 0x23AD JUMP JUMPDEST DUP1 PUSH1 0x1F ADD PUSH1 0x20 DUP1 SWAP2 DIV MUL PUSH1 0x20 ADD PUSH1 0x40 MLOAD SWAP1 DUP2 ADD PUSH1 0x40 MSTORE DUP1 SWAP3 SWAP2 SWAP1 DUP2 DUP2 MSTORE PUSH1 0x20 ADD DUP3 DUP1 SLOAD PUSH2 0x8C5 SWAP1 PUSH2 0x23AD JUMP JUMPDEST DUP1 ISZERO PUSH2 0x912 JUMPI DUP1 PUSH1 0x1F LT PUSH2 0x8E7 JUMPI PUSH2 0x100 DUP1 DUP4 SLOAD DIV MUL DUP4 MSTORE SWAP2 PUSH1 0x20 ADD SWAP2 PUSH2 0x912 JUMP JUMPDEST DUP3 ADD SWAP2 SWAP1 PUSH1 0x0 MSTORE PUSH1 0x20 PUSH1 0x0 KECCAK256 SWAP1 JUMPDEST DUP2 SLOAD DUP2 MSTORE SWAP1 PUSH1 0x1 ADD SWAP1 PUSH1 0x20 ADD DUP1 DUP4 GT PUSH2 0x8F5 JUMPI DUP3 SWAP1 SUB PUSH1 0x1F AND DUP3 ADD SWAP2 JUMPDEST POP POP POP PUSH1 0x6 SWAP1 SWAP4 ADD SLOAD SWAP2 SWAP3 POP POP PUSH1 0xFF AND DUP11 JUMP JUMPDEST PUSH2 0x92D PUSH2 0x18AC JUMP JUMPDEST PUSH2 0x935 PUSH2 0x19DF JUMP JUMPDEST JUMP JUMPDEST PUSH2 0x93F PUSH2 0x18AC JUMP JUMPDEST PUSH1 0x40 MLOAD PUSH4 0xA9059CBB PUSH1 0xE0 SHL DUP2 MSTORE PUSH1 0x1 PUSH1 0x1 PUSH1 0xA0 SHL SUB DUP3 DUP2 AND PUSH1 0x4 DUP4 ADD MSTORE PUSH1 0x24 DUP3 ADD DUP5 SWAP1 MSTORE DUP5 AND SWAP1 PUSH4 0xA9059CBB SWAP1 PUSH1 0x44 ADD PUSH1 0x20 PUSH1 0x40 MLOAD DUP1 DUP4 SUB DUP2 PUSH1 0x0 DUP8 GAS CALL ISZERO DUP1 ISZERO PUSH2 0x98E JUMPI RETURNDATASIZE PUSH1 0x0 DUP1 RETURNDATACOPY RETURNDATASIZE PUSH1 0x0 REVERT JUMPDEST POP POP POP POP PUSH1 0x40 MLOAD RETURNDATASIZE PUSH1 0x1F NOT PUSH1 0x1F DUP3 ADD AND DUP3 ADD DUP1 PUSH1 0x40 MSTORE POP DUP2 ADD SWAP1 PUSH2 0x9B2 SWAP2 SWAP1 PUSH2 0x23E7 JUMP JUMPDEST POP POP POP POP JUMP JUMPDEST PUSH2 0x9C0 PUSH2 0x18AC JUMP JUMPDEST PUSH1 0x3 DUP1 SLOAD PUSH1 0x1 PUSH1 0x1 PUSH1 0xA0 SHL SUB SWAP4 DUP5 AND PUSH1 0x1 PUSH1 0x1 PUSH1 0xA0 SHL SUB NOT SWAP2 DUP3 AND OR SWAP1 SWAP2 SSTORE PUSH1 0x4 DUP1 SLOAD SWAP3 SWAP1 SWAP4 AND SWAP2 AND OR SWAP1 SSTORE JUMP JUMPDEST CALLER ADDRESS EQ PUSH2 0xA36 JUMPI PUSH1 0x40 MLOAD PUSH3 0x461BCD PUSH1 0xE5 SHL DUP2 MSTORE PUSH1 0x20 PUSH1 0x4 DUP3 ADD MSTORE PUSH1 0x16 PUSH1 0x24 DUP3 ADD MSTORE PUSH22 0x13DB9B1E481CD95B198B58D85B1B08185B1B1BDDD959 PUSH1 0x52 SHL PUSH1 0x44 DUP3 ADD MSTORE PUSH1 0x64 ADD PUSH2 0x7FF JUMP JUMPDEST PUSH1 0x2 SLOAD PUSH1 0x40 MLOAD PUSH4 0x95EA7B3 PUSH1 0xE0 SHL DUP2 MSTORE PUSH1 0x1 PUSH1 0x1 PUSH1 0xA0 SHL SUB SWAP1 SWAP2 AND PUSH1 0x4 DUP3 ADD MSTORE PUSH1 0x24 DUP2 ADD DUP3 SWAP1 MSTORE PUSH20 0x833589FCD6EDB6E08F4C7C32D4F71B54BDA02913 SWAP1 PUSH4 0x95EA7B3 SWAP1 PUSH1 0x44 ADD PUSH1 0x20 PUSH1 0x40 MLOAD DUP1 DUP4 SUB DUP2 PUSH1 0x0 DUP8 GAS CALL ISZERO DUP1 ISZERO PUSH2 0xA9B JUMPI RETURNDATASIZE PUSH1 0x0 DUP1 RETURNDATACOPY RETURNDATASIZE PUSH1 0x0 REVERT JUMPDEST POP POP POP POP PUSH1 0x40 MLOAD RETURNDATASIZE PUSH1 0x1F NOT PUSH1 0x1F DUP3 ADD AND DUP3 ADD DUP1 PUSH1 0x40 MSTORE POP DUP2 ADD SWAP1 PUSH2 0xABF SWAP2 SWAP1 PUSH2 0x23E7 JUMP JUMPDEST POP PUSH1 0x0 PUSH2 0xACB DUP3 PUSH2 0x1A34 JUMP JUMPDEST PUSH1 0x40 DUP1 MLOAD PUSH2 0x100 DUP2 ADD DUP3 MSTORE PUSH20 0x833589FCD6EDB6E08F4C7C32D4F71B54BDA02913 DUP2 MSTORE PUSH20 0x746042147240304098C837563AAEC0F671881B07 PUSH1 0x20 DUP3 ADD MSTORE PUSH1 0x2 SLOAD PUSH1 0x1 PUSH1 0xA0 SHL SWAP1 DIV PUSH3 0xFFFFFF AND SWAP2 DUP2 ADD SWAP2 SWAP1 SWAP2 MSTORE ADDRESS PUSH1 0x60 DUP3 ADD MSTORE SWAP1 SWAP2 POP PUSH1 0x0 SWAP1 PUSH1 0x80 DUP2 ADD PUSH2 0xB39 TIMESTAMP PUSH2 0x12C PUSH2 0x241F JUMP JUMPDEST DUP2 MSTORE PUSH1 0x20 DUP1 DUP3 ADD DUP7 SWAP1 MSTORE PUSH1 0x40 DUP1 DUP4 ADD DUP7 SWAP1 MSTORE PUSH1 0x0 PUSH1 0x60 SWAP4 DUP5 ADD DUP2 SWAP1 MSTORE PUSH1 0x2 SLOAD DUP3 MLOAD PUSH4 0x414BF389 PUSH1 0xE0 SHL DUP2 MSTORE DUP7 MLOAD PUSH1 0x1 PUSH1 0x1 PUSH1 0xA0 SHL SUB SWAP1 DUP2 AND PUSH1 0x4 DUP4 ADD MSTORE SWAP5 DUP8 ADD MLOAD DUP6 AND PUSH1 0x24 DUP3 ADD MSTORE SWAP3 DUP7 ADD MLOAD PUSH3 0xFFFFFF AND PUSH1 0x44 DUP5 ADD MSTORE SWAP4 DUP6 ADD MLOAD DUP4 AND PUSH1 0x64 DUP4 ADD MSTORE PUSH1 0x80 DUP6 ADD MLOAD PUSH1 0x84 DUP4 ADD MSTORE PUSH1 0xA0 DUP6 ADD MLOAD PUSH1 0xA4 DUP4 ADD MSTORE PUSH1 0xC0 DUP6 ADD MLOAD PUSH1 0xC4 DUP4 ADD MSTORE PUSH1 0xE0 DUP6 ADD MLOAD DUP4 AND PUSH1 0xE4 DUP4 ADD MSTORE SWAP4 SWAP5 POP SWAP2 AND SWAP1 PUSH4 0x414BF389 SWAP1 PUSH2 0x104 ADD PUSH1 0x20 PUSH1 0x40 MLOAD DUP1 DUP4 SUB DUP2 PUSH1 0x0 DUP8 GAS CALL ISZERO DUP1 ISZERO PUSH2 0xBF3 JUMPI RETURNDATASIZE PUSH1 0x0 DUP1 RETURNDATACOPY RETURNDATASIZE PUSH1 0x0 REVERT JUMPDEST POP POP POP POP PUSH1 0x40 MLOAD RETURNDATASIZE PUSH1 0x1F NOT PUSH1 0x1F DUP3 ADD AND DUP3 ADD DUP1 PUSH1 0x40 MSTORE POP DUP2 ADD SWAP1 PUSH2 0xC17 SWAP2 SWAP1 PUSH2 0x2394 JUMP JUMPDEST PUSH1 0x40 MLOAD PUSH4 0xA9059CBB PUSH1 0xE0 SHL DUP2 MSTORE PUSH2 0xDEAD PUSH1 0x4 DUP3 ADD MSTORE PUSH1 0x24 DUP2 ADD DUP3 SWAP1 MSTORE SWAP1 SWAP2 POP PUSH20 0x746042147240304098C837563AAEC0F671881B07 SWAP1 PUSH4 0xA9059CBB SWAP1 PUSH1 0x44 ADD PUSH1 0x20 PUSH1 0x40 MLOAD DUP1 DUP4 SUB DUP2 PUSH1 0x0 DUP8 GAS CALL ISZERO DUP1 ISZERO PUSH2 0xC74 JUMPI RETURNDATASIZE PUSH1 0x0 DUP1 RETURNDATACOPY RETURNDATASIZE PUSH1 0x0 REVERT JUMPDEST POP POP POP POP PUSH1 0x40 MLOAD RETURNDATASIZE PUSH1 0x1F NOT PUSH1 0x1F DUP3 ADD AND DUP3 ADD DUP1 PUSH1 0x40 MSTORE POP DUP2 ADD SWAP1 PUSH2 0xC98 SWAP2 SWAP1 PUSH2 0x23E7 JUMP JUMPDEST POP DUP1 PUSH1 0xC PUSH1 0x0 DUP3 DUP3 SLOAD PUSH2 0xCAB SWAP2 SWAP1 PUSH2 0x241F JUMP JUMPDEST SWAP1 SWAP2 SSTORE POP PUSH1 0x0 SWAP1 POP PUSH3 0xF4240 PUSH2 0xCC1 DUP7 DUP3 PUSH2 0x2438 JUMP JUMPDEST PUSH2 0xCD3 SWAP1 PUSH8 0xDE0B6B3A7640000 PUSH2 0x2438 JUMP JUMPDEST PUSH2 0xCDD SWAP2 SWAP1 PUSH2 0x244F JUMP JUMPDEST SWAP1 POP PUSH1 0x0 DUP3 DUP3 GT PUSH2 0xCEF JUMPI PUSH1 0x0 PUSH2 0xD10 JUMP JUMPDEST DUP2 PUSH2 0xCFA DUP5 DUP3 PUSH2 0x2471 JUMP JUMPDEST PUSH2 0xD06 SWAP1 PUSH2 0x2710 PUSH2 0x2438 JUMP JUMPDEST PUSH2 0xD10 SWAP2 SWAP1 PUSH2 0x244F JUMP JUMPDEST PUSH1 0x40 DUP1 MLOAD DUP9 DUP2 MSTORE PUSH1 0x20 DUP2 ADD DUP7 SWAP1 MSTORE SWAP1 DUP2 ADD DUP3 SWAP1 MSTORE SWAP1 SWAP2 POP PUSH32 0x99F0AC37F25D867556B47547BA1C9C7526459A9BA8F1C3430739128132D13DDF SWAP1 PUSH1 0x60 ADD PUSH1 0x40 MLOAD DUP1 SWAP2 SUB SWAP1 LOG1 PUSH32 0x5DA04F344A3825B746C0EF82B89CCB522CDE42D6572FC258247F35C9D67E722 DUP4 DUP8 PUSH1 0x40 MLOAD PUSH2 0xDC3 SWAP3 SWAP2 SWAP1 SWAP2 DUP3 MSTORE PUSH1 0x20 DUP3 ADD MSTORE PUSH1 0x60 PUSH1 0x40 DUP3 ADD DUP2 SWAP1 MSTORE PUSH1 0x18 SWAP1 DUP3 ADD MSTORE PUSH32 0x5265616C204445582070757263686173652026206275726E0000000000000000 PUSH1 0x80 DUP3 ADD MSTORE PUSH1 0xA0 ADD SWAP1 JUMP JUMPDEST PUSH1 0x40 MLOAD DUP1 SWAP2 SUB SWAP1 LOG1 POP POP POP POP POP POP JUMP JUMPDEST PUSH1 0x0 DUP2 PUSH1 0x1 PUSH1 0x1 PUSH1 0x60 SHL SUB AND GT PUSH2 0xE2C JUMPI PUSH1 0x40 MLOAD PUSH3 0x461BCD PUSH1 0xE5 SHL DUP2 MSTORE PUSH1 0x20 PUSH1 0x4 DUP3 ADD MSTORE PUSH1 0x17 PUSH1 0x24 DUP3 ADD MSTORE PUSH32 0x496E76616C69642062697274682074696D657374616D70000000000000000000 PUSH1 0x44 DUP3 ADD MSTORE PUSH1 0x64 ADD PUSH2 0x7FF JUMP JUMPDEST TIMESTAMP DUP2 PUSH1 0x1 PUSH1 0x1 PUSH1 0x60 SHL SUB AND LT PUSH2 0xE8F JUMPI PUSH1 0x40 MLOAD PUSH3 0x461BCD PUSH1 0xE5 SHL DUP2 MSTORE PUSH1 0x20 PUSH1 0x4 DUP3 ADD MSTORE PUSH1 0x22 PUSH1 0x24 DUP3 ADD MSTORE PUSH32 0x426972746820646174652063616E6E6F7420626520696E207468652066757475 PUSH1 0x44 DUP3 ADD MSTORE PUSH2 0x7265 PUSH1 0xF0 SHL PUSH1 0x64 DUP3 ADD MSTORE PUSH1 0x84 ADD PUSH2 0x7FF JUMP JUMPDEST CALLER PUSH1 0x0 SWAP1 DUP2 MSTORE PUSH1 0x7 PUSH1 0x20 MSTORE PUSH1 0x40 SWAP1 KECCAK256 SLOAD PUSH1 0x1 PUSH1 0x1 PUSH1 0x60 SHL SUB AND ISZERO PUSH2 0xEEE JUMPI PUSH1 0x40 MLOAD PUSH3 0x461BCD PUSH1 0xE5 SHL DUP2 MSTORE PUSH1 0x20 PUSH1 0x4 DUP3 ADD MSTORE PUSH1 0x16 PUSH1 0x24 DUP3 ADD MSTORE PUSH22 0x109A5C9D1A0819185D1948185B1C9958591E481CD95D PUSH1 0x52 SHL PUSH1 0x44 DUP3 ADD MSTORE PUSH1 0x64 ADD PUSH2 0x7FF JUMP JUMPDEST CALLER PUSH1 0x0 DUP2 DUP2 MSTORE PUSH1 0x7 PUSH1 0x20 SWAP1 DUP2 MSTORE PUSH1 0x40 SWAP2 DUP3 SWAP1 KECCAK256 DUP1 SLOAD PUSH12 0xFFFFFFFFFFFFFFFFFFFFFFFF NOT AND PUSH1 0x1 PUSH1 0x1 PUSH1 0x60 SHL SUB DUP7 AND SWAP1 DUP2 OR SWAP1 SWAP2 SSTORE SWAP2 MLOAD SWAP2 DUP3 MSTORE PUSH32 0xD68BF84FAA2C0E9CEA685E60BCC07D0DE06274C2A2F43CD53FFABCF2F065B735 SWAP2 ADD PUSH1 0x40 MLOAD DUP1 SWAP2 SUB SWAP1 LOG2 POP JUMP JUMPDEST PUSH2 0xF5D PUSH2 0x18AC JUMP JUMPDEST PUSH1 0x2 DUP1 SLOAD PUSH1 0x1 PUSH1 0x1 PUSH1 0xA0 SHL SUB NOT AND PUSH1 0x1 PUSH1 0x1 PUSH1 0xA0 SHL SUB SWAP3 SWAP1 SWAP3 AND SWAP2 SWAP1 SWAP2 OR SWAP1 SSTORE JUMP JUMPDEST PUSH2 0xF87 PUSH2 0x18AC JUMP JUMPDEST PUSH2 0x935 PUSH1 0x0 PUSH2 0x1A91 JUMP JUMPDEST PUSH2 0xF99 PUSH2 0x18AC JUMP JUMPDEST PUSH2 0x935 PUSH2 0x1AE3 JUMP JUMPDEST PUSH1 0x40 DUP1 MLOAD PUSH2 0x140 DUP2 ADD DUP3 MSTORE PUSH1 0x0 DUP1 DUP3 MSTORE PUSH1 0x20 DUP1 DUP4 ADD DUP3 SWAP1 MSTORE DUP3 DUP5 ADD DUP3 SWAP1 MSTORE PUSH1 0x60 DUP1 DUP5 ADD DUP4 SWAP1 MSTORE PUSH1 0x80 DUP5 ADD DUP4 SWAP1 MSTORE PUSH1 0xA0 DUP5 ADD DUP4 SWAP1 MSTORE PUSH1 0xC0 DUP5 ADD DUP4 SWAP1 MSTORE PUSH1 0xE0 DUP5 ADD DUP4 SWAP1 MSTORE PUSH2 0x100 DUP5 ADD MSTORE PUSH2 0x120 DUP4 ADD DUP3 SWAP1 MSTORE PUSH1 0x1 PUSH1 0x1 PUSH1 0xA0 SHL SUB DUP6 AND DUP3 MSTORE PUSH1 0x6 SWAP1 MSTORE SWAP2 SWAP1 SWAP2 KECCAK256 SLOAD PUSH1 0xFF AND PUSH2 0x104C JUMPI PUSH1 0x40 MLOAD PUSH3 0x461BCD PUSH1 0xE5 SHL DUP2 MSTORE PUSH1 0x20 PUSH1 0x4 DUP3 ADD MSTORE PUSH1 0x14 PUSH1 0x24 DUP3 ADD MSTORE PUSH20 0x155CD95C881A185CC81B9BDD081C1B195919D959 PUSH1 0x62 SHL PUSH1 0x44 DUP3 ADD MSTORE PUSH1 0x64 ADD PUSH2 0x7FF JUMP JUMPDEST PUSH1 0x1 PUSH1 0x1 PUSH1 0xA0 SHL SUB DUP3 DUP2 AND PUSH1 0x0 SWAP1 DUP2 MSTORE PUSH1 0x5 PUSH1 0x20 DUP2 DUP2 MSTORE PUSH1 0x40 SWAP3 DUP4 SWAP1 KECCAK256 DUP4 MLOAD PUSH2 0x140 DUP2 ADD DUP6 MSTORE DUP2 SLOAD SWAP6 DUP7 AND DUP2 MSTORE PUSH1 0x1 PUSH1 0xA0 SHL SWAP1 SWAP6 DIV PUSH1 0x1 PUSH1 0x1 PUSH1 0x60 SHL SUB SWAP1 DUP2 AND SWAP3 DUP7 ADD SWAP3 SWAP1 SWAP3 MSTORE PUSH1 0x1 DUP2 ADD SLOAD SWAP2 DUP3 AND SWAP4 DUP6 ADD SWAP4 SWAP1 SWAP4 MSTORE PUSH1 0x1 PUSH1 0x60 SHL SWAP1 DIV PUSH1 0x1 PUSH1 0x1 PUSH1 0x80 SHL SUB SWAP1 DUP2 AND PUSH1 0x60 DUP6 ADD MSTORE PUSH1 0x2 DUP4 ADD SLOAD SWAP1 DUP2 AND PUSH1 0x80 DUP6 ADD MSTORE PUSH1 0x1 PUSH1 0x80 SHL SWAP1 DIV PUSH8 0xFFFFFFFFFFFFFFFF AND PUSH1 0xA0 DUP5 ADD MSTORE PUSH1 0x3 DUP3 ADD SLOAD PUSH1 0xC0 DUP5 ADD MSTORE PUSH1 0x4 DUP3 ADD SLOAD PUSH1 0xE0 DUP5 ADD MSTORE DUP2 ADD DUP1 SLOAD PUSH2 0x100 DUP5 ADD SWAP2 SWAP1 PUSH2 0x1104 SWAP1 PUSH2 0x23AD JUMP JUMPDEST DUP1 PUSH1 0x1F ADD PUSH1 0x20 DUP1 SWAP2 DIV MUL PUSH1 0x20 ADD PUSH1 0x40 MLOAD SWAP1 DUP2 ADD PUSH1 0x40 MSTORE DUP1 SWAP3 SWAP2 SWAP1 DUP2 DUP2 MSTORE PUSH1 0x20 ADD DUP3 DUP1 SLOAD PUSH2 0x1130 SWAP1 PUSH2 0x23AD JUMP JUMPDEST DUP1 ISZERO PUSH2 0x117D JUMPI DUP1 PUSH1 0x1F LT PUSH2 0x1152 JUMPI PUSH2 0x100 DUP1 DUP4 SLOAD DIV MUL DUP4 MSTORE SWAP2 PUSH1 0x20 ADD SWAP2 PUSH2 0x117D JUMP JUMPDEST DUP3 ADD SWAP2 SWAP1 PUSH1 0x0 MSTORE PUSH1 0x20 PUSH1 0x0 KECCAK256 SWAP1 JUMPDEST DUP2 SLOAD DUP2 MSTORE SWAP1 PUSH1 0x1 ADD SWAP1 PUSH1 0x20 ADD DUP1 DUP4 GT PUSH2 0x1160 JUMPI DUP3 SWAP1 SUB PUSH1 0x1F AND DUP3 ADD SWAP2 JUMPDEST POP POP POP SWAP2 DUP4 MSTORE POP POP PUSH1 0x6 SWAP2 SWAP1 SWAP2 ADD SLOAD PUSH1 0xFF AND ISZERO ISZERO PUSH1 0x20 SWAP1 SWAP2 ADD MSTORE SWAP3 SWAP2 POP POP JUMP JUMPDEST PUSH1 0xB SLOAD PUSH1 0xC SLOAD PUSH1 0xF SLOAD PUSH1 0xA SLOAD PUSH1 0xD SLOAD PUSH1 0x9 SLOAD PUSH1 0x0 SWAP1 DUP2 MSTORE PUSH1 0x8 PUSH1 0x20 MSTORE PUSH1 0x40 DUP2 KECCAK256 PUSH1 0x3 ADD SLOAD SWAP1 SWAP2 SWAP1 PUSH1 0xFF AND ISZERO PUSH2 0x11E4 JUMPI PUSH1 0x9 SLOAD PUSH1 0x0 SWAP1 DUP2 MSTORE PUSH1 0x8 PUSH1 0x20 MSTORE PUSH1 0x40 SWAP1 KECCAK256 PUSH1 0x2 ADD SLOAD SWAP2 POP JUMPDEST SWAP1 SWAP2 SWAP3 SWAP4 SWAP5 SWAP6 JUMP JUMPDEST PUSH2 0x11F4 PUSH2 0x1B26 JUMP JUMPDEST PUSH2 0x11FC PUSH2 0x1B50 JUMP JUMPDEST CALLER PUSH1 0x0 SWAP1 DUP2 MSTORE PUSH1 0x6 PUSH1 0x20 MSTORE PUSH1 0x40 SWAP1 KECCAK256 SLOAD PUSH1 0xFF AND ISZERO PUSH2 0x125C JUMPI PUSH1 0x40 MLOAD PUSH3 0x461BCD PUSH1 0xE5 SHL DUP2 MSTORE PUSH1 0x20 PUSH1 0x4 DUP3 ADD MSTORE PUSH1 0x18 PUSH1 0x24 DUP3 ADD MSTORE PUSH32 0x557365722068617320616C726561647920706C65646765640000000000000000 PUSH1 0x44 DUP3 ADD MSTORE PUSH1 0x64 ADD PUSH2 0x7FF JUMP JUMPDEST PUSH1 0x0 DUP2 PUSH1 0x1 PUSH1 0x1 PUSH1 0x80 SHL SUB AND GT PUSH2 0x12C1 JUMPI PUSH1 0x40 MLOAD PUSH3 0x461BCD PUSH1 0xE5 SHL DUP2 MSTORE PUSH1 0x20 PUSH1 0x4 DUP3 ADD MSTORE PUSH1 0x24 DUP1 DUP3 ADD MSTORE PUSH32 0x506C6564676520616D6F756E74206D7573742062652067726561746572207468 PUSH1 0x44 DUP3 ADD MSTORE PUSH4 0x616E203 PUSH1 0xE4 SHL PUSH1 0x64 DUP3 ADD MSTORE PUSH1 0x84 ADD PUSH2 0x7FF JUMP JUMPDEST PUSH1 0x0 DUP4 MLOAD GT PUSH2 0x1312 JUMPI PUSH1 0x40 MLOAD PUSH3 0x461BCD PUSH1 0xE5 SHL DUP2 MSTORE PUSH1 0x20 PUSH1 0x4 DUP3 ADD MSTORE PUSH1 0x1A PUSH1 0x24 DUP3 ADD MSTORE PUSH32 0x436F6D6D69746D656E742063616E6E6F7420626520656D707479000000000000 PUSH1 0x44 DUP3 ADD MSTORE PUSH1 0x64 ADD PUSH2 0x7FF JUMP JUMPDEST CALLER PUSH1 0x0 SWAP1 DUP2 MSTORE PUSH1 0x7 PUSH1 0x20 MSTORE PUSH1 0x40 SWAP1 KECCAK256 SLOAD PUSH1 0x1 PUSH1 0x1 PUSH1 0x60 SHL SUB AND PUSH2 0x1377 JUMPI PUSH1 0x40 MLOAD PUSH3 0x461BCD PUSH1 0xE5 SHL DUP2 MSTORE PUSH1 0x20 PUSH1 0x4 DUP3 ADD MSTORE PUSH1 0x1C PUSH1 0x24 DUP3 ADD MSTORE PUSH32 0x42697274682064617465206D7573742062652073657420666972737400000000 PUSH1 0x44 DUP3 ADD MSTORE PUSH1 0x64 ADD PUSH2 0x7FF JUMP JUMPDEST PUSH1 0x0 PUSH2 0x1382 CALLER PUSH2 0x1B7B JUMP JUMPDEST SWAP1 POP PUSH1 0x0 DUP2 PUSH8 0xFFFFFFFFFFFFFFFF AND GT PUSH2 0x13D2 JUMPI PUSH1 0x40 MLOAD PUSH3 0x461BCD PUSH1 0xE5 SHL DUP2 MSTORE PUSH1 0x20 PUSH1 0x4 DUP3 ADD MSTORE PUSH1 0x11 PUSH1 0x24 DUP3 ADD MSTORE PUSH17 0x496E76616C696420736F6C617220616765 PUSH1 0x78 SHL PUSH1 0x44 DUP3 ADD MSTORE PUSH1 0x64 ADD PUSH2 0x7FF JUMP JUMPDEST PUSH1 0x40 MLOAD PUSH4 0x23B872DD PUSH1 0xE0 SHL DUP2 MSTORE CALLER PUSH1 0x4 DUP3 ADD MSTORE ADDRESS PUSH1 0x24 DUP3 ADD MSTORE PUSH1 0x1 PUSH1 0x1 PUSH1 0x80 SHL SUB DUP4 AND PUSH1 0x44 DUP3 ADD MSTORE PUSH20 0x833589FCD6EDB6E08F4C7C32D4F71B54BDA02913 SWAP1 PUSH4 0x23B872DD SWAP1 PUSH1 0x64 ADD PUSH1 0x20 PUSH1 0x40 MLOAD DUP1 DUP4 SUB DUP2 PUSH1 0x0 DUP8 GAS CALL ISZERO DUP1 ISZERO PUSH2 0x1438 JUMPI RETURNDATASIZE PUSH1 0x0 DUP1 RETURNDATACOPY RETURNDATASIZE PUSH1 0x0 REVERT JUMPDEST POP POP POP POP PUSH1 0x40 MLOAD RETURNDATASIZE PUSH1 0x1F NOT PUSH1 0x1F DUP3 ADD AND DUP3 ADD DUP1 PUSH1 0x40 MSTORE POP DUP2 ADD SWAP1 PUSH2 0x145C SWAP2 SWAP1 PUSH2 0x23E7 JUMP JUMPDEST POP PUSH1 0x0 PUSH1 0xA SLOAD PUSH1 0x1 PUSH2 0x146E SWAP2 SWAP1 PUSH2 0x241F JUMP JUMPDEST SWAP1 POP PUSH1 0x0 DUP6 PUSH1 0x40 MLOAD PUSH1 0x20 ADD PUSH2 0x1483 SWAP2 SWAP1 PUSH2 0x2484 JUMP JUMPDEST PUSH1 0x40 MLOAD PUSH1 0x20 DUP2 DUP4 SUB SUB DUP2 MSTORE SWAP1 PUSH1 0x40 MSTORE DUP1 MLOAD SWAP1 PUSH1 0x20 ADD KECCAK256 SWAP1 POP PUSH1 0x40 MLOAD DUP1 PUSH2 0x140 ADD PUSH1 0x40 MSTORE DUP1 CALLER PUSH1 0x1 PUSH1 0x1 PUSH1 0xA0 SHL SUB AND DUP2 MSTORE PUSH1 0x20 ADD DUP4 PUSH1 0x1 PUSH1 0x1 PUSH1 0x60 SHL SUB AND DUP2 MSTORE PUSH1 0x20 ADD TIMESTAMP PUSH1 0x1 PUSH1 0x1 PUSH1 0x60 SHL SUB AND DUP2 MSTORE PUSH1 0x20 ADD DUP6 PUSH1 0x1 PUSH1 0x1 PUSH1 0x80 SHL SUB AND DUP2 MSTORE PUSH1 0x20 ADD PUSH1 0x0 PUSH1 0x1 PUSH1 0x1 PUSH1 0x80 SHL SUB AND DUP2 MSTORE PUSH1 0x20 ADD DUP5 PUSH8 0xFFFFFFFFFFFFFFFF AND DUP2 MSTORE PUSH1 0x20 ADD DUP3 DUP2 MSTORE PUSH1 0x20 ADD DUP7 DUP2 MSTORE PUSH1 0x20 ADD DUP8 DUP2 MSTORE PUSH1 0x20 ADD PUSH1 0x1 ISZERO ISZERO DUP2 MSTORE POP PUSH1 0x5 PUSH1 0x0 CALLER PUSH1 0x1 PUSH1 0x1 PUSH1 0xA0 SHL SUB AND PUSH1 0x1 PUSH1 0x1 PUSH1 0xA0 SHL SUB AND DUP2 MSTORE PUSH1 0x20 ADD SWAP1 DUP2 MSTORE PUSH1 0x20 ADD PUSH1 0x0 KECCAK256 PUSH1 0x0 DUP3 ADD MLOAD DUP2 PUSH1 0x0 ADD PUSH1 0x0 PUSH2 0x100 EXP DUP2 SLOAD DUP2 PUSH1 0x1 PUSH1 0x1 PUSH1 0xA0 SHL SUB MUL NOT AND SWAP1 DUP4 PUSH1 0x1 PUSH1 0x1 PUSH1 0xA0 SHL SUB AND MUL OR SWAP1 SSTORE POP PUSH1 0x20 DUP3 ADD MLOAD DUP2 PUSH1 0x0 ADD PUSH1 0x14 PUSH2 0x100 EXP DUP2 SLOAD DUP2 PUSH1 0x1 PUSH1 0x1 PUSH1 0x60 SHL SUB MUL NOT AND SWAP1 DUP4 PUSH1 0x1 PUSH1 0x1 PUSH1 0x60 SHL SUB AND MUL OR SWAP1 SSTORE POP PUSH1 0x40 DUP3 ADD MLOAD DUP2 PUSH1 0x1 ADD PUSH1 0x0 PUSH2 0x100 EXP DUP2 SLOAD DUP2 PUSH1 0x1 PUSH1 0x1 PUSH1 0x60 SHL SUB MUL NOT AND SWAP1 DUP4 PUSH1 0x1 PUSH1 0x1 PUSH1 0x60 SHL SUB AND MUL OR SWAP1 SSTORE POP PUSH1 0x60 DUP3 ADD MLOAD DUP2 PUSH1 0x1 ADD PUSH1 0xC PUSH2 0x100 EXP DUP2 SLOAD DUP2 PUSH1 0x1 PUSH1 0x1 PUSH1 0x80 SHL SUB MUL NOT AND SWAP1 DUP4 PUSH1 0x1 PUSH1 0x1 PUSH1 0x80 SHL SUB AND MUL OR SWAP1 SSTORE POP PUSH1 0x80 DUP3 ADD MLOAD DUP2 PUSH1 0x2 ADD PUSH1 0x0 PUSH2 0x100 EXP DUP2 SLOAD DUP2 PUSH1 0x1 PUSH1 0x1 PUSH1 0x80 SHL SUB MUL NOT AND SWAP1 DUP4 PUSH1 0x1 PUSH1 0x1 PUSH1 0x80 SHL SUB AND MUL OR SWAP1 SSTORE POP PUSH1 0xA0 DUP3 ADD MLOAD DUP2 PUSH1 0x2 ADD PUSH1 0x10 PUSH2 0x100 EXP DUP2 SLOAD DUP2 PUSH8 0xFFFFFFFFFFFFFFFF MUL NOT AND SWAP1 DUP4 PUSH8 0xFFFFFFFFFFFFFFFF AND MUL OR SWAP1 SSTORE POP PUSH1 0xC0 DUP3 ADD MLOAD DUP2 PUSH1 0x3 ADD SSTORE PUSH1 0xE0 DUP3 ADD MLOAD DUP2 PUSH1 0x4 ADD SSTORE PUSH2 0x100 DUP3 ADD MLOAD DUP2 PUSH1 0x5 ADD SWAP1 DUP2 PUSH2 0x167B SWAP2 SWAP1 PUSH2 0x24EE JUMP JUMPDEST POP PUSH2 0x120 SWAP2 SWAP1 SWAP2 ADD MLOAD PUSH1 0x6 SWAP2 DUP3 ADD DUP1 SLOAD SWAP2 ISZERO ISZERO PUSH1 0xFF NOT SWAP3 DUP4 AND OR SWAP1 SSTORE CALLER PUSH1 0x0 SWAP1 DUP2 MSTORE PUSH1 0x20 SWAP3 SWAP1 SWAP3 MSTORE PUSH1 0x40 DUP3 KECCAK256 DUP1 SLOAD SWAP1 SWAP2 AND PUSH1 0x1 OR SWAP1 SSTORE PUSH1 0xA DUP1 SLOAD SWAP2 PUSH2 0x16BF DUP4 PUSH2 0x25AE JUMP JUMPDEST SWAP2 SWAP1 POP SSTORE POP DUP4 PUSH1 0x1 PUSH1 0x1 PUSH1 0x80 SHL SUB AND PUSH1 0xB PUSH1 0x0 DUP3 DUP3 SLOAD PUSH2 0x16DF SWAP2 SWAP1 PUSH2 0x241F JUMP JUMPDEST SWAP3 POP POP DUP2 SWAP1 SSTORE POP DUP4 PUSH1 0x1 PUSH1 0x1 PUSH1 0x80 SHL SUB AND PUSH1 0xE PUSH1 0x0 DUP3 DUP3 SLOAD PUSH2 0x1701 SWAP2 SWAP1 PUSH2 0x241F JUMP JUMPDEST SWAP1 SWAP2 SSTORE POP POP PUSH1 0x9 SLOAD PUSH1 0x0 SWAP1 DUP2 MSTORE PUSH1 0x8 PUSH1 0x20 MSTORE PUSH1 0x40 SWAP1 KECCAK256 PUSH1 0x3 ADD SLOAD PUSH1 0xFF AND ISZERO PUSH2 0x17A8 JUMPI PUSH1 0x9 SLOAD PUSH1 0x0 SWAP1 DUP2 MSTORE PUSH1 0x8 PUSH1 0x20 MSTORE PUSH1 0x40 DUP2 KECCAK256 PUSH1 0x1 ADD DUP1 SLOAD PUSH1 0x1 PUSH1 0x1 PUSH1 0x60 SHL SUB AND SWAP2 PUSH2 0x174C DUP4 PUSH2 0x25C7 JUMP JUMPDEST SWAP2 SWAP1 PUSH2 0x100 EXP DUP2 SLOAD DUP2 PUSH1 0x1 PUSH1 0x1 PUSH1 0x60 SHL SUB MUL NOT AND SWAP1 DUP4 PUSH1 0x1 PUSH1 0x1 PUSH1 0x60 SHL SUB AND MUL OR SWAP1 SSTORE POP POP DUP4 PUSH1 0x1 PUSH1 0x1 PUSH1 0x80 SHL SUB AND PUSH1 0x8 PUSH1 0x0 PUSH1 0x9 SLOAD DUP2 MSTORE PUSH1 0x20 ADD SWAP1 DUP2 MSTORE PUSH1 0x20 ADD PUSH1 0x0 KECCAK256 PUSH1 0x2 ADD PUSH1 0x0 DUP3 DUP3 SLOAD PUSH2 0x17A2 SWAP2 SWAP1 PUSH2 0x241F JUMP JUMPDEST SWAP1 SWAP2 SSTORE POP POP JUMPDEST PUSH2 0x17BA DUP5 PUSH1 0x1 PUSH1 0x1 PUSH1 0x80 SHL SUB AND PUSH2 0x1BD9 JUMP JUMPDEST PUSH4 0x2FAF080 DUP5 PUSH1 0x1 PUSH1 0x1 PUSH1 0x80 SHL SUB AND LT PUSH2 0x17E1 JUMPI PUSH2 0x17E1 CALLER DUP6 PUSH1 0x1 PUSH1 0x1 PUSH1 0x80 SHL SUB AND PUSH2 0x1E1F JUMP JUMPDEST CALLER PUSH1 0x1 PUSH1 0x1 PUSH1 0xA0 SHL SUB AND PUSH32 0x60B3FC0357206539645F77BD7E33892CE5525D2A1600C9814D44041E3215AE8 DUP4 DUP7 DUP7 DUP11 DUP11 PUSH1 0x40 MLOAD PUSH2 0x1822 SWAP6 SWAP5 SWAP4 SWAP3 SWAP2 SWAP1 PUSH2 0x25ED JUMP JUMPDEST PUSH1 0x40 MLOAD DUP1 SWAP2 SUB SWAP1 LOG2 POP POP POP PUSH2 0x1837 PUSH1 0x1 PUSH1 0x0 SSTORE JUMP JUMPDEST POP POP POP JUMP JUMPDEST PUSH2 0x1844 PUSH2 0x18AC JUMP JUMPDEST PUSH1 0x10 SWAP3 SWAP1 SWAP3 SSTORE PUSH1 0x11 SSTORE PUSH1 0x2 DUP1 SLOAD PUSH3 0xFFFFFF SWAP1 SWAP3 AND PUSH1 0x1 PUSH1 0xA0 SHL MUL PUSH3 0xFFFFFF PUSH1 0xA0 SHL NOT SWAP1 SWAP3 AND SWAP2 SWAP1 SWAP2 OR SWAP1 SSTORE JUMP JUMPDEST PUSH2 0x1879 PUSH2 0x18AC JUMP JUMPDEST PUSH1 0x1 PUSH1 0x1 PUSH1 0xA0 SHL SUB DUP2 AND PUSH2 0x18A3 JUMPI PUSH1 0x40 MLOAD PUSH4 0x1E4FBDF7 PUSH1 0xE0 SHL DUP2 MSTORE PUSH1 0x0 PUSH1 0x4 DUP3 ADD MSTORE PUSH1 0x24 ADD PUSH2 0x7FF JUMP JUMPDEST PUSH2 0x811 DUP2 PUSH2 0x1A91 JUMP JUMPDEST PUSH1 0x1 SLOAD PUSH1 0x1 PUSH1 0x1 PUSH1 0xA0 SHL SUB AND CALLER EQ PUSH2 0x935 JUMPI PUSH1 0x40 MLOAD PUSH4 0x118CDAA7 PUSH1 0xE0 SHL DUP2 MSTORE CALLER PUSH1 0x4 DUP3 ADD MSTORE PUSH1 0x24 ADD PUSH2 0x7FF JUMP JUMPDEST PUSH1 0x2 SLOAD PUSH1 0x1 PUSH1 0x1 PUSH1 0xA0 SHL SUB AND PUSH2 0x18EC JUMPI POP JUMP JUMPDEST PUSH1 0x40 MLOAD PUSH4 0x2E710651 PUSH1 0xE1 SHL DUP2 MSTORE PUSH1 0x4 DUP2 ADD DUP3 SWAP1 MSTORE ADDRESS SWAP1 PUSH4 0x5CE20CA2 SWAP1 PUSH1 0x24 ADD PUSH1 0x0 PUSH1 0x40 MLOAD DUP1 DUP4 SUB DUP2 PUSH1 0x0 DUP8 DUP1 EXTCODESIZE ISZERO DUP1 ISZERO PUSH2 0x1925 JUMPI PUSH1 0x0 DUP1 REVERT JUMPDEST POP GAS CALL SWAP3 POP POP POP DUP1 ISZERO PUSH2 0x1936 JUMPI POP PUSH1 0x1 JUMPDEST PUSH2 0x19C5 JUMPI PUSH32 0x5DA04F344A3825B746C0EF82B89CCB522CDE42D6572FC258247F35C9D67E722 PUSH1 0x0 DUP3 PUSH1 0x40 MLOAD PUSH2 0x19BA SWAP3 SWAP2 SWAP1 SWAP2 DUP3 MSTORE PUSH1 0x20 DUP3 ADD MSTORE PUSH1 0x60 PUSH1 0x40 DUP3 ADD DUP2 SWAP1 MSTORE PUSH1 0x27 SWAP1 DUP3 ADD MSTORE PUSH32 0x53776170206661696C6564202D20555344432068656C6420666F72206D616E75 PUSH1 0x80 DUP3 ADD MSTORE PUSH7 0x30B610313AB937 PUSH1 0xC9 SHL PUSH1 0xA0 DUP3 ADD MSTORE PUSH1 0xC0 ADD SWAP1 JUMP JUMPDEST PUSH1 0x40 MLOAD DUP1 SWAP2 SUB SWAP1 LOG1 POP JUMP JUMPDEST DUP1 PUSH1 0xD PUSH1 0x0 DUP3 DUP3 SLOAD PUSH2 0x19D7 SWAP2 SWAP1 PUSH2 0x241F JUMP JUMPDEST SWAP1 SWAP2 SSTORE POP POP POP JUMP JUMPDEST PUSH2 0x19E7 PUSH2 0x1FA0 JUMP JUMPDEST PUSH1 0x1 DUP1 SLOAD PUSH1 0xFF PUSH1 0xA0 SHL NOT AND SWAP1 SSTORE PUSH32 0x5DB9EE0A495BF2E6FF9C91A7834C1BA4FDD244A5E8AA4E537BD38AEAE4B073AA CALLER JUMPDEST PUSH1 0x40 MLOAD PUSH1 0x1 PUSH1 0x1 PUSH1 0xA0 SHL SUB SWAP1 SWAP2 AND DUP2 MSTORE PUSH1 0x20 ADD PUSH1 0x40 MLOAD DUP1 SWAP2 SUB SWAP1 LOG1 JUMP JUMPDEST PUSH1 0x0 DUP1 PUSH3 0xF4240 PUSH2 0x1A45 DUP5 DUP3 PUSH2 0x2438 JUMP JUMPDEST PUSH2 0x1A57 SWAP1 PUSH8 0xDE0B6B3A7640000 PUSH2 0x2438 JUMP JUMPDEST PUSH2 0x1A61 SWAP2 SWAP1 PUSH2 0x244F JUMP JUMPDEST SWAP1 POP PUSH2 0x2710 PUSH1 0x11 SLOAD PUSH2 0x2710 PUSH2 0x1A76 SWAP2 SWAP1 PUSH2 0x2471 JUMP JUMPDEST PUSH2 0x1A80 SWAP1 DUP4 PUSH2 0x2438 JUMP JUMPDEST PUSH2 0x1A8A SWAP2 SWAP1 PUSH2 0x244F JUMP JUMPDEST SWAP4 SWAP3 POP POP POP JUMP JUMPDEST PUSH1 0x1 DUP1 SLOAD PUSH1 0x1 PUSH1 0x1 PUSH1 0xA0 SHL SUB DUP4 DUP2 AND PUSH1 0x1 PUSH1 0x1 PUSH1 0xA0 SHL SUB NOT DUP4 AND DUP2 OR SWAP1 SWAP4 SSTORE PUSH1 0x40 MLOAD SWAP2 AND SWAP2 SWAP1 DUP3 SWAP1 PUSH32 0x8BE0079C531659141344CD1FD0A4F28419497F9722A3DAAFE3B4186F6B6457E0 SWAP1 PUSH1 0x0 SWAP1 LOG3 POP POP JUMP JUMPDEST PUSH2 0x1AEB PUSH2 0x1B50 JUMP JUMPDEST PUSH1 0x1 DUP1 SLOAD PUSH1 0xFF PUSH1 0xA0 SHL NOT AND PUSH1 0x1 PUSH1 0xA0 SHL OR SWAP1 SSTORE PUSH32 0x62E78CEA01BEE320CD4E420270B5EA74000D11B0C9F74754EBDBFC544B05A258 PUSH2 0x1A17 CALLER SWAP1 JUMP JUMPDEST PUSH1 0x2 PUSH1 0x0 SLOAD SUB PUSH2 0x1B49 JUMPI PUSH1 0x40 MLOAD PUSH4 0x3EE5AEB5 PUSH1 0xE0 SHL DUP2 MSTORE PUSH1 0x4 ADD PUSH1 0x40 MLOAD DUP1 SWAP2 SUB SWAP1 REVERT JUMPDEST PUSH1 0x2 PUSH1 0x0 SSTORE JUMP JUMPDEST PUSH1 0x1 SLOAD PUSH1 0x1 PUSH1 0xA0 SHL SWAP1 DIV PUSH1 0xFF AND ISZERO PUSH2 0x935 JUMPI PUSH1 0x40 MLOAD PUSH4 0xD93C0665 PUSH1 0xE0 SHL DUP2 MSTORE PUSH1 0x4 ADD PUSH1 0x40 MLOAD DUP1 SWAP2 SUB SWAP1 REVERT JUMPDEST PUSH1 0x1 PUSH1 0x1 PUSH1 0xA0 SHL SUB DUP2 AND PUSH1 0x0 SWAP1 DUP2 MSTORE PUSH1 0x7 PUSH1 0x20 MSTORE PUSH1 0x40 DUP2 KECCAK256 SLOAD PUSH1 0x1 PUSH1 0x1 PUSH1 0x60 SHL SUB AND DUP1 DUP3 SUB PUSH2 0x1BAD JUMPI POP PUSH1 0x0 SWAP3 SWAP2 POP POP JUMP JUMPDEST PUSH1 0x0 PUSH2 0x1BC2 PUSH1 0x1 PUSH1 0x1 PUSH1 0x60 SHL SUB DUP4 AND TIMESTAMP PUSH2 0x2471 JUMP JUMPDEST SWAP1 POP PUSH2 0x1BD1 PUSH3 0x15180 DUP3 PUSH2 0x244F JUMP JUMPDEST SWAP5 SWAP4 POP POP POP POP JUMP JUMPDEST PUSH1 0x0 PUSH2 0x2710 PUSH2 0x1BEA PUSH2 0x1388 DUP5 PUSH2 0x2438 JUMP JUMPDEST PUSH2 0x1BF4 SWAP2 SWAP1 PUSH2 0x244F JUMP JUMPDEST SWAP1 POP PUSH1 0x0 PUSH2 0x2710 PUSH2 0x1C07 PUSH2 0x3E8 DUP6 PUSH2 0x2438 JUMP JUMPDEST PUSH2 0x1C11 SWAP2 SWAP1 PUSH2 0x244F JUMP JUMPDEST SWAP1 POP PUSH1 0x0 DUP2 PUSH2 0x1C20 DUP5 DUP7 PUSH2 0x2471 JUMP JUMPDEST PUSH2 0x1C2A SWAP2 SWAP1 PUSH2 0x2471 JUMP JUMPDEST SWAP1 POP PUSH1 0x0 DUP4 GT DUP1 ISZERO PUSH2 0x1C46 JUMPI POP PUSH1 0x3 SLOAD PUSH1 0x1 PUSH1 0x1 PUSH1 0xA0 SHL SUB AND ISZERO ISZERO JUMPDEST ISZERO PUSH2 0x1DC0 JUMPI PUSH1 0x3 SLOAD PUSH1 0x40 MLOAD PUSH4 0xA9059CBB PUSH1 0xE0 SHL DUP2 MSTORE PUSH1 0x1 PUSH1 0x1 PUSH1 0xA0 SHL SUB SWAP1 SWAP2 AND PUSH1 0x4 DUP3 ADD MSTORE PUSH1 0x24 DUP2 ADD DUP5 SWAP1 MSTORE PUSH20 0x833589FCD6EDB6E08F4C7C32D4F71B54BDA02913 SWAP1 PUSH4 0xA9059CBB SWAP1 PUSH1 0x44 ADD PUSH1 0x20 PUSH1 0x40 MLOAD DUP1 DUP4 SUB DUP2 PUSH1 0x0 DUP8 GAS CALL ISZERO DUP1 ISZERO PUSH2 0x1CB0 JUMPI RETURNDATASIZE PUSH1 0x0 DUP1 RETURNDATACOPY RETURNDATASIZE PUSH1 0x0 REVERT JUMPDEST POP POP POP POP PUSH1 0x40 MLOAD RETURNDATASIZE PUSH1 0x1F NOT PUSH1 0x1F DUP3 ADD AND DUP3 ADD DUP1 PUSH1 0x40 MSTORE POP DUP2 ADD SWAP1 PUSH2 0x1CD4 SWAP2 SWAP1 PUSH2 0x23E7 JUMP JUMPDEST POP DUP3 PUSH1 0xF PUSH1 0x0 DUP3 DUP3 SLOAD PUSH2 0x1CE7 SWAP2 SWAP1 PUSH2 0x241F JUMP JUMPDEST SWAP1 SWAP2 SSTORE POP POP PUSH1 0x3 SLOAD PUSH1 0x40 MLOAD PUSH1 0x24 DUP2 ADD DUP6 SWAP1 MSTORE PUSH1 0x0 SWAP2 PUSH1 0x1 PUSH1 0x1 PUSH1 0xA0 SHL SUB AND SWAP1 PUSH1 0x44 ADD PUSH1 0x40 DUP1 MLOAD PUSH1 0x1F NOT DUP2 DUP5 SUB ADD DUP2 MSTORE SWAP2 DUP2 MSTORE PUSH1 0x20 DUP3 ADD DUP1 MLOAD PUSH1 0x1 PUSH1 0x1 PUSH1 0xE0 SHL SUB AND PUSH4 0x63EC512D PUSH1 0xE0 SHL OR SWAP1 MSTORE MLOAD PUSH2 0x1D3E SWAP2 SWAP1 PUSH2 0x2484 JUMP JUMPDEST PUSH1 0x0 PUSH1 0x40 MLOAD DUP1 DUP4 SUB DUP2 PUSH1 0x0 DUP7 GAS CALL SWAP2 POP POP RETURNDATASIZE DUP1 PUSH1 0x0 DUP2 EQ PUSH2 0x1D7B JUMPI PUSH1 0x40 MLOAD SWAP2 POP PUSH1 0x1F NOT PUSH1 0x3F RETURNDATASIZE ADD AND DUP3 ADD PUSH1 0x40 MSTORE RETURNDATASIZE DUP3 MSTORE RETURNDATASIZE PUSH1 0x0 PUSH1 0x20 DUP5 ADD RETURNDATACOPY PUSH2 0x1D80 JUMP JUMPDEST PUSH1 0x60 SWAP2 POP JUMPDEST POP POP SWAP1 POP DUP1 ISZERO PUSH2 0x1DBE JUMPI PUSH1 0x40 MLOAD DUP5 DUP2 MSTORE PUSH32 0x136BF5F01D0758622BA886621B1834C6204220AD7FD36F888398706B63B7E280 SWAP1 PUSH1 0x20 ADD PUSH1 0x40 MLOAD DUP1 SWAP2 SUB SWAP1 LOG1 JUMPDEST POP JUMPDEST PUSH1 0x0 DUP3 GT DUP1 ISZERO PUSH2 0x1DD2 JUMPI POP PUSH1 0x10 SLOAD DUP3 LT ISZERO JUMPDEST ISZERO PUSH2 0x1DE0 JUMPI PUSH2 0x1DE0 DUP3 PUSH2 0x18D9 JUMP JUMPDEST PUSH1 0x40 DUP1 MLOAD DUP5 DUP2 MSTORE PUSH1 0x20 DUP2 ADD DUP4 SWAP1 MSTORE PUSH32 0xCC20DF2E6115F65D438C80B313A169BCB1838118C200233B3F7C86762A6968A8 SWAP2 ADD PUSH1 0x40 MLOAD DUP1 SWAP2 SUB SWAP1 LOG1 POP POP POP POP JUMP JUMPDEST PUSH1 0x4 SLOAD PUSH1 0x1 PUSH1 0x1 PUSH1 0xA0 SHL SUB AND ISZERO PUSH2 0x1F9C JUMPI PUSH1 0x0 PUSH4 0x1E13380 PUSH4 0x5F5E100 DUP4 LT PUSH2 0x1E58 JUMPI PUSH11 0x1D9A5C17DCDD5C1C1BDC9D PUSH1 0xAA SHL SWAP2 POP PUSH2 0x1EA1 JUMP JUMPDEST PUSH4 0x47868C0 DUP4 LT PUSH2 0x1E7E JUMPI PUSH16 0x616476616E6365645F6A6F75726E6579 PUSH1 0x80 SHL SWAP2 POP PUSH2 0x1EA1 JUMP JUMPDEST PUSH4 0x2FAF080 DUP4 LT PUSH2 0x1EA1 JUMPI PUSH17 0x7072656D69756D5F616E616C7974696373 PUSH1 0x78 SHL SWAP2 POP JUMPDEST DUP2 ISZERO PUSH2 0x9B2 JUMPI PUSH1 0x4 SLOAD PUSH1 0x40 MLOAD PUSH1 0x1 PUSH1 0x1 PUSH1 0xA0 SHL SUB DUP7 DUP2 AND PUSH1 0x24 DUP4 ADD MSTORE PUSH1 0x44 DUP3 ADD DUP6 SWAP1 MSTORE PUSH1 0x64 DUP3 ADD DUP5 SWAP1 MSTORE PUSH1 0x0 SWAP3 AND SWAP1 PUSH1 0x84 ADD PUSH1 0x40 DUP1 MLOAD PUSH1 0x1F NOT DUP2 DUP5 SUB ADD DUP2 MSTORE SWAP2 DUP2 MSTORE PUSH1 0x20 DUP3 ADD DUP1 MLOAD PUSH1 0x1 PUSH1 0x1 PUSH1 0xE0 SHL SUB AND PUSH4 0x7000DFDF PUSH1 0xE1 SHL OR SWAP1 MSTORE MLOAD PUSH2 0x1F08 SWAP2 SWAP1 PUSH2 0x2484 JUMP JUMPDEST PUSH1 0x0 PUSH1 0x40 MLOAD DUP1 DUP4 SUB DUP2 PUSH1 0x0 DUP7 GAS CALL SWAP2 POP POP RETURNDATASIZE DUP1 PUSH1 0x0 DUP2 EQ PUSH2 0x1F45 JUMPI PUSH1 0x40 MLOAD SWAP2 POP PUSH1 0x1F NOT PUSH1 0x3F RETURNDATASIZE ADD AND DUP3 ADD PUSH1 0x40 MSTORE RETURNDATASIZE DUP3 MSTORE RETURNDATASIZE PUSH1 0x0 PUSH1 0x20 DUP5 ADD RETURNDATACOPY PUSH2 0x1F4A JUMP JUMPDEST PUSH1 0x60 SWAP2 POP JUMPDEST POP POP SWAP1 POP DUP1 ISZERO PUSH2 0x1F98 JUMPI DUP5 PUSH1 0x1 PUSH1 0x1 PUSH1 0xA0 SHL SUB AND PUSH32 0xE906D728A410A21CDA518F10133A43D00F3A5A74F855B97E2E2CDA4B451525DC DUP6 PUSH1 0x40 MLOAD PUSH2 0x1F8F SWAP2 DUP2 MSTORE PUSH1 0x20 ADD SWAP1 JUMP JUMPDEST PUSH1 0x40 MLOAD DUP1 SWAP2 SUB SWAP1 LOG2 JUMPDEST POP POP POP JUMPDEST POP POP JUMP JUMPDEST PUSH1 0x1 SLOAD PUSH1 0x1 PUSH1 0xA0 SHL SWAP1 DIV PUSH1 0xFF AND PUSH2 0x935 JUMPI PUSH1 0x40 MLOAD PUSH4 0x8DFC202B PUSH1 0xE0 SHL DUP2 MSTORE PUSH1 0x4 ADD PUSH1 0x40 MLOAD DUP1 SWAP2 SUB SWAP1 REVERT JUMPDEST PUSH1 0x0 PUSH1 0x20 DUP3 DUP5 SUB SLT ISZERO PUSH2 0x1FDC JUMPI PUSH1 0x0 DUP1 REVERT JUMPDEST POP CALLDATALOAD SWAP2 SWAP1 POP JUMP JUMPDEST DUP1 CALLDATALOAD PUSH1 0x1 PUSH1 0x1 PUSH1 0xA0 SHL SUB DUP2 AND DUP2 EQ PUSH2 0x1FFA JUMPI PUSH1 0x0 DUP1 REVERT JUMPDEST SWAP2 SWAP1 POP JUMP JUMPDEST PUSH1 0x0 PUSH1 0x20 DUP3 DUP5 SUB SLT ISZERO PUSH2 0x2011 JUMPI PUSH1 0x0 DUP1 REVERT JUMPDEST PUSH2 0x1A8A DUP3 PUSH2 0x1FE3 JUMP JUMPDEST PUSH1 0x0 JUMPDEST DUP4 DUP2 LT ISZERO PUSH2 0x2035 JUMPI DUP2 DUP2 ADD MLOAD DUP4 DUP3 ADD MSTORE PUSH1 0x20 ADD PUSH2 0x201D JUMP JUMPDEST POP POP PUSH1 0x0 SWAP2 ADD MSTORE JUMP JUMPDEST PUSH1 0x0 DUP2 MLOAD DUP1 DUP5 MSTORE PUSH2 0x2056 DUP2 PUSH1 0x20 DUP7 ADD PUSH1 0x20 DUP7 ADD PUSH2 0x201A JUMP JUMPDEST PUSH1 0x1F ADD PUSH1 0x1F NOT AND SWAP3 SWAP1 SWAP3 ADD PUSH1 0x20 ADD SWAP3 SWAP2 POP POP JUMP JUMPDEST PUSH1 0x1 PUSH1 0x1 PUSH1 0xA0 SHL SUB DUP12 AND DUP2 MSTORE PUSH1 0x1 PUSH1 0x1 PUSH1 0x60 SHL SUB DUP11 DUP2 AND PUSH1 0x20 DUP4 ADD MSTORE DUP10 AND PUSH1 0x40 DUP3 ADD MSTORE PUSH1 0x1 PUSH1 0x1 PUSH1 0x80 SHL SUB DUP9 DUP2 AND PUSH1 0x60 DUP4 ADD MSTORE DUP8 AND PUSH1 0x80 DUP3 ADD MSTORE PUSH8 0xFFFFFFFFFFFFFFFF DUP7 AND PUSH1 0xA0 DUP3 ADD MSTORE PUSH1 0xC0 DUP2 ADD DUP6 SWAP1 MSTORE PUSH1 0xE0 DUP2 ADD DUP5 SWAP1 MSTORE PUSH2 0x140 PUSH2 0x100 DUP3 ADD DUP2 SWAP1 MSTORE PUSH1 0x0 SWAP1 PUSH2 0x20DC DUP4 DUP3 ADD DUP7 PUSH2 0x203E JUMP JUMPDEST SWAP2 POP POP DUP3 ISZERO ISZERO PUSH2 0x120 DUP4 ADD MSTORE SWAP12 SWAP11 POP POP POP POP POP POP POP POP POP POP POP JUMP JUMPDEST PUSH1 0x0 DUP1 PUSH1 0x0 PUSH1 0x60 DUP5 DUP7 SUB SLT ISZERO PUSH2 0x210C JUMPI PUSH1 0x0 DUP1 REVERT JUMPDEST PUSH2 0x2115 DUP5 PUSH2 0x1FE3 JUMP JUMPDEST SWAP3 POP PUSH1 0x20 DUP5 ADD CALLDATALOAD SWAP2 POP PUSH2 0x212A PUSH1 0x40 DUP6 ADD PUSH2 0x1FE3 JUMP JUMPDEST SWAP1 POP SWAP3 POP SWAP3 POP SWAP3 JUMP JUMPDEST PUSH1 0x0 DUP1 PUSH1 0x40 DUP4 DUP6 SUB SLT ISZERO PUSH2 0x2146 JUMPI PUSH1 0x0 DUP1 REVERT JUMPDEST PUSH2 0x214F DUP4 PUSH2 0x1FE3 JUMP JUMPDEST SWAP2 POP PUSH2 0x215D PUSH1 0x20 DUP5 ADD PUSH2 0x1FE3 JUMP JUMPDEST SWAP1 POP SWAP3 POP SWAP3 SWAP1 POP JUMP JUMPDEST PUSH1 0x0 PUSH1 0x20 DUP3 DUP5 SUB SLT ISZERO PUSH2 0x2178 JUMPI PUSH1 0x0 DUP1 REVERT JUMPDEST DUP2 CALLDATALOAD PUSH1 0x1 PUSH1 0x1 PUSH1 0x60 SHL SUB DUP2 AND DUP2 EQ PUSH2 0x1A8A JUMPI PUSH1 0x0 DUP1 REVERT JUMPDEST PUSH1 0x20 DUP2 MSTORE PUSH2 0x21A9 PUSH1 0x20 DUP3 ADD DUP4 MLOAD PUSH1 0x1 PUSH1 0x1 PUSH1 0xA0 SHL SUB AND SWAP1 MSTORE JUMP JUMPDEST PUSH1 0x0 PUSH1 0x20 DUP4 ADD MLOAD PUSH2 0x21C5 PUSH1 0x40 DUP5 ADD DUP3 PUSH1 0x1 PUSH1 0x1 PUSH1 0x60 SHL SUB AND SWAP1 MSTORE JUMP JUMPDEST POP PUSH1 0x40 DUP4 ADD MLOAD PUSH1 0x1 PUSH1 0x1 PUSH1 0x60 SHL SUB DUP2 AND PUSH1 0x60 DUP5 ADD MSTORE POP PUSH1 0x60 DUP4 ADD MLOAD PUSH1 0x1 PUSH1 0x1 PUSH1 0x80 SHL SUB DUP2 AND PUSH1 0x80 DUP5 ADD MSTORE POP PUSH1 0x80 DUP4 ADD MLOAD PUSH1 0x1 PUSH1 0x1 PUSH1 0x80 SHL SUB DUP2 AND PUSH1 0xA0 DUP5 ADD MSTORE POP PUSH1 0xA0 DUP4 ADD MLOAD PUSH8 0xFFFFFFFFFFFFFFFF DUP2 AND PUSH1 0xC0 DUP5 ADD MSTORE POP PUSH1 0xC0 DUP4 ADD MLOAD PUSH1 0xE0 DUP4 ADD MSTORE PUSH1 0xE0 DUP4 ADD MLOAD PUSH2 0x100 DUP2 DUP2 DUP6 ADD MSTORE DUP1 DUP6 ADD MLOAD SWAP2 POP POP PUSH2 0x140 PUSH2 0x120 DUP2 DUP2 DUP7 ADD MSTORE PUSH2 0x2252 PUSH2 0x160 DUP7 ADD DUP5 PUSH2 0x203E JUMP JUMPDEST SWAP6 ADD MLOAD ISZERO ISZERO SWAP4 ADD SWAP3 SWAP1 SWAP3 MSTORE POP SWAP1 SWAP2 SWAP1 POP JUMP JUMPDEST PUSH4 0x4E487B71 PUSH1 0xE0 SHL PUSH1 0x0 MSTORE PUSH1 0x41 PUSH1 0x4 MSTORE PUSH1 0x24 PUSH1 0x0 REVERT JUMPDEST DUP1 CALLDATALOAD PUSH1 0x1 PUSH1 0x1 PUSH1 0x80 SHL SUB DUP2 AND DUP2 EQ PUSH2 0x1FFA JUMPI PUSH1 0x0 DUP1 REVERT JUMPDEST PUSH1 0x0 DUP1 PUSH1 0x0 PUSH1 0x60 DUP5 DUP7 SUB SLT ISZERO PUSH2 0x22A6 JUMPI PUSH1 0x0 DUP1 REVERT JUMPDEST DUP4 CALLDATALOAD PUSH8 0xFFFFFFFFFFFFFFFF DUP1 DUP3 GT ISZERO PUSH2 0x22BE JUMPI PUSH1 0x0 DUP1 REVERT JUMPDEST DUP2 DUP7 ADD SWAP2 POP DUP7 PUSH1 0x1F DUP4 ADD SLT PUSH2 0x22D2 JUMPI PUSH1 0x0 DUP1 REVERT JUMPDEST DUP2 CALLDATALOAD DUP2 DUP2 GT ISZERO PUSH2 0x22E4 JUMPI PUSH2 0x22E4 PUSH2 0x2264 JUMP JUMPDEST PUSH1 0x40 MLOAD PUSH1 0x1F DUP3 ADD PUSH1 0x1F NOT SWAP1 DUP2 AND PUSH1 0x3F ADD AND DUP2 ADD SWAP1 DUP4 DUP3 GT DUP2 DUP4 LT OR ISZERO PUSH2 0x230C JUMPI PUSH2 0x230C PUSH2 0x2264 JUMP JUMPDEST DUP2 PUSH1 0x40 MSTORE DUP3 DUP2 MSTORE DUP10 PUSH1 0x20 DUP5 DUP8 ADD ADD GT ISZERO PUSH2 0x2325 JUMPI PUSH1 0x0 DUP1 REVERT JUMPDEST DUP3 PUSH1 0x20 DUP7 ADD PUSH1 0x20 DUP4 ADD CALLDATACOPY PUSH1 0x0 PUSH1 0x20 DUP5 DUP4 ADD ADD MSTORE DUP1 SWAP8 POP POP POP POP POP POP PUSH1 0x20 DUP5 ADD CALLDATALOAD SWAP2 POP PUSH2 0x212A PUSH1 0x40 DUP6 ADD PUSH2 0x227A JUMP JUMPDEST PUSH1 0x0 DUP1 PUSH1 0x0 PUSH1 0x60 DUP5 DUP7 SUB SLT ISZERO PUSH2 0x2368 JUMPI PUSH1 0x0 DUP1 REVERT JUMPDEST DUP4 CALLDATALOAD SWAP3 POP PUSH1 0x20 DUP5 ADD CALLDATALOAD SWAP2 POP PUSH1 0x40 DUP5 ADD CALLDATALOAD PUSH3 0xFFFFFF DUP2 AND DUP2 EQ PUSH2 0x2389 JUMPI PUSH1 0x0 DUP1 REVERT JUMPDEST DUP1 SWAP2 POP POP SWAP3 POP SWAP3 POP SWAP3 JUMP JUMPDEST PUSH1 0x0 PUSH1 0x20 DUP3 DUP5 SUB SLT ISZERO PUSH2 0x23A6 JUMPI PUSH1 0x0 DUP1 REVERT JUMPDEST POP MLOAD SWAP2 SWAP1 POP JUMP JUMPDEST PUSH1 0x1 DUP2 DUP2 SHR SWAP1 DUP3 AND DUP1 PUSH2 0x23C1 JUMPI PUSH1 0x7F DUP3 AND SWAP2 POP JUMPDEST PUSH1 0x20 DUP3 LT DUP2 SUB PUSH2 0x23E1 JUMPI PUSH4 0x4E487B71 PUSH1 0xE0 SHL PUSH1 0x0 MSTORE PUSH1 0x22 PUSH1 0x4 MSTORE PUSH1 0x24 PUSH1 0x0 REVERT JUMPDEST POP SWAP2 SWAP1 POP JUMP JUMPDEST PUSH1 0x0 PUSH1 0x20 DUP3 DUP5 SUB SLT ISZERO PUSH2 0x23F9 JUMPI PUSH1 0x0 DUP1 REVERT JUMPDEST DUP2 MLOAD DUP1 ISZERO ISZERO DUP2 EQ PUSH2 0x1A8A JUMPI PUSH1 0x0 DUP1 REVERT JUMPDEST PUSH4 0x4E487B71 PUSH1 0xE0 SHL PUSH1 0x0 MSTORE PUSH1 0x11 PUSH1 0x4 MSTORE PUSH1 0x24 PUSH1 0x0 REVERT JUMPDEST DUP1 DUP3 ADD DUP1 DUP3 GT ISZERO PUSH2 0x2432 JUMPI PUSH2 0x2432 PUSH2 0x2409 JUMP JUMPDEST SWAP3 SWAP2 POP POP JUMP JUMPDEST DUP1 DUP3 MUL DUP2 ISZERO DUP3 DUP3 DIV DUP5 EQ OR PUSH2 0x2432 JUMPI PUSH2 0x2432 PUSH2 0x2409 JUMP JUMPDEST PUSH1 0x0 DUP3 PUSH2 0x246C JUMPI PUSH4 0x4E487B71 PUSH1 0xE0 SHL PUSH1 0x0 MSTORE PUSH1 0x12 PUSH1 0x4 MSTORE PUSH1 0x24 PUSH1 0x0 REVERT JUMPDEST POP DIV SWAP1 JUMP JUMPDEST DUP2 DUP2 SUB DUP2 DUP2 GT ISZERO PUSH2 0x2432 JUMPI PUSH2 0x2432 PUSH2 0x2409 JUMP JUMPDEST PUSH1 0x0 DUP3 MLOAD PUSH2 0x2496 DUP2 DUP5 PUSH1 0x20 DUP8 ADD PUSH2 0x201A JUMP JUMPDEST SWAP2 SWAP1 SWAP2 ADD SWAP3 SWAP2 POP POP JUMP JUMPDEST PUSH1 0x1F DUP3 GT ISZERO PUSH2 0x1837 JUMPI PUSH1 0x0 DUP2 DUP2 MSTORE PUSH1 0x20 DUP2 KECCAK256 PUSH1 0x1F DUP6 ADD PUSH1 0x5 SHR DUP2 ADD PUSH1 0x20 DUP7 LT ISZERO PUSH2 0x24C7 JUMPI POP DUP1 JUMPDEST PUSH1 0x1F DUP6 ADD PUSH1 0x5 SHR DUP3 ADD SWAP2 POP JUMPDEST DUP2 DUP2 LT ISZERO PUSH2 0x24E6 JUMPI DUP3 DUP2 SSTORE PUSH1 0x1 ADD PUSH2 0x24D3 JUMP JUMPDEST POP POP POP POP POP POP JUMP JUMPDEST DUP2 MLOAD PUSH8 0xFFFFFFFFFFFFFFFF DUP2 GT ISZERO PUSH2 0x2508 JUMPI PUSH2 0x2508 PUSH2 0x2264 JUMP JUMPDEST PUSH2 0x251C DUP2 PUSH2 0x2516 DUP5 SLOAD PUSH2 0x23AD JUMP JUMPDEST DUP5 PUSH2 0x24A0 JUMP JUMPDEST PUSH1 0x20 DUP1 PUSH1 0x1F DUP4 GT PUSH1 0x1 DUP2 EQ PUSH2 0x2551 JUMPI PUSH1 0x0 DUP5 ISZERO PUSH2 0x2539 JUMPI POP DUP6 DUP4 ADD MLOAD JUMPDEST PUSH1 0x0 NOT PUSH1 0x3 DUP7 SWAP1 SHL SHR NOT AND PUSH1 0x1 DUP6 SWAP1 SHL OR DUP6 SSTORE PUSH2 0x24E6 JUMP JUMPDEST PUSH1 0x0 DUP6 DUP2 MSTORE PUSH1 0x20 DUP2 KECCAK256 PUSH1 0x1F NOT DUP7 AND SWAP2 JUMPDEST DUP3 DUP2 LT ISZERO PUSH2 0x2580 JUMPI DUP9 DUP7 ADD MLOAD DUP3 SSTORE SWAP5 DUP5 ADD SWAP5 PUSH1 0x1 SWAP1 SWAP2 ADD SWAP1 DUP5 ADD PUSH2 0x2561 JUMP JUMPDEST POP DUP6 DUP3 LT ISZERO PUSH2 0x259E JUMPI DUP8 DUP6 ADD MLOAD PUSH1 0x0 NOT PUSH1 0x3 DUP9 SWAP1 SHL PUSH1 0xF8 AND SHR NOT AND DUP2 SSTORE JUMPDEST POP POP POP POP POP PUSH1 0x1 SWAP1 DUP2 SHL ADD SWAP1 SSTORE POP JUMP JUMPDEST PUSH1 0x0 PUSH1 0x1 DUP3 ADD PUSH2 0x25C0 JUMPI PUSH2 0x25C0 PUSH2 0x2409 JUMP JUMPDEST POP PUSH1 0x1 ADD SWAP1 JUMP JUMPDEST PUSH1 0x0 PUSH1 0x1 PUSH1 0x1 PUSH1 0x60 SHL SUB DUP1 DUP4 AND DUP2 DUP2 SUB PUSH2 0x25E3 JUMPI PUSH2 0x25E3 PUSH2 0x2409 JUMP JUMPDEST PUSH1 0x1 ADD SWAP4 SWAP3 POP POP POP JUMP JUMPDEST PUSH1 0x1 PUSH1 0x1 PUSH1 0x60 SHL SUB DUP7 AND DUP2 MSTORE PUSH1 0x1 PUSH1 0x1 PUSH1 0x80 SHL SUB DUP6 AND PUSH1 0x20 DUP3 ADD MSTORE PUSH8 0xFFFFFFFFFFFFFFFF DUP5 AND PUSH1 0x40 DUP3 ADD MSTORE PUSH1 0xA0 PUSH1 0x60 DUP3 ADD MSTORE PUSH1 0x0 PUSH2 0x262E PUSH1 0xA0 DUP4 ADD DUP6 PUSH2 0x203E JUMP JUMPDEST SWAP1 POP DUP3 PUSH1 0x80 DUP4 ADD MSTORE SWAP7 SWAP6 POP POP POP POP POP POP JUMP INVALID LOG2 PUSH5 0x6970667358 0x22 SLT KECCAK256 0xE5 INVALID 0xB0 0xB2 STOP REVERT EXP RETURNDATACOPY PUSH24 0xD4024D4B726ADEDFFBA669FB59E144A96527A5ACA3F81564 PUSH20 0x6F6C634300081400330000000000000000000000 "},"methodIdentifiers":{"BURN_ADDRESS()":"fccc2813","MORPHO_TREASURY_SHARE()":"e0dd4fda","PLEDGE_BURN_PERCENTAGE()":"d1c1003f","PREMIUM_FEATURE_THRESHOLD()":"1619004d","SOLAR_TOKEN()":"bda064eb","USDC()":"89a30271","WETH()":"ad5c4648","_performSwapAndBurn(uint256)":"5ce20ca2","convergencePeriods(uint256)":"24c8435f","createPledge(string,bytes32,uint128)":"cb4299f3","currentConvergencePeriodIndex()":"8ab8cf5f","dexRouter()":"0758d924","emergencyWithdraw(address,uint256,address)":"551512de","getConvergencePeriod(uint256)":"04d377a3","getCurrentConvergencePeriodIndex()":"52c8dfd6","getPledge(address)":"90769e0e","getRenaissanceStats()":"b1a4b609","hasPledge(address)":"783f1615","hasPledged(address)":"2b7a8feb","manualBurn(uint256)":"23b63585","maxSlippage()":"8c04166f","minBurnThreshold()":"33467351","morphoAllocatedRevenue()":"685789cc","morphoTreasuryContract()":"f5cc4651","owner()":"8da5cb5b","pause()":"8456cb59","paused()":"5c975abb","pledges(address)":"343576f5","poolFee()":"089fe6aa","renounceOwnership()":"715018a6","setBirthDate(uint96)":"682917b6","solarUtilityContract()":"3463be3a","totalBurned()":"d89135cd","totalPledges()":"9f3d391e","totalRevenue()":"bf2d9e0b","totalUsdcForBurns()":"0614990f","totalVolume()":"5f81a57c","transferOwnership(address)":"f2fde38b","unpause()":"3f4ba83a","updateBurnSettings(uint256,uint256,uint24)":"e4fa4f30","updateDexRouter(address)":"714f75e0","updateRenaissanceContracts(address,address)":"5b0f74dd","userBirthTimestamp(address)":"26c1246f"}}}}}