{
  "_format": "hh-sol-artifact-1",
  "contractName": "USDCPurchaser",
  "sourceName": "contracts/USDCPurchaser.sol",
  "abi": [
    {
      "inputs": [
        {
          "internalType": "address",
          "name": "_usdc",
          "type": "address"
        },
        {
          "internalType": "address",
          "name": "_solar",
          "type": "address"
        },
        {
          "internalType": "address",
          "name": "_treasury",
          "type": "address"
        }
      ],
      "stateMutability": "nonpayable",
      "type": "constructor"
    },
    {
      "anonymous": false,
      "inputs": [
        {
          "indexed": true,
          "internalType": "address",
          "name": "user",
          "type": "address"
        },
        {
          "indexed": true,
          "internalType": "address",
          "name": "token",
          "type": "address"
        },
        {
          "indexed": false,
          "internalType": "uint256",
          "name": "amount",
          "type": "uint256"
        },
        {
          "indexed": false,
          "internalType": "uint256",
          "name": "rolls",
          "type": "uint256"
        },
        {
          "indexed": false,
          "internalType": "string",
          "name": "packageId",
          "type": "string"
        }
      ],
      "name": "RollsPurchased",
      "type": "event"
    },
    {
      "inputs": [],
      "name": "owner",
      "outputs": [
        {
          "internalType": "address",
          "name": "",
          "type": "address"
        }
      ],
      "stateMutability": "view",
      "type": "function"
    },
    {
      "inputs": [
        {
          "internalType": "uint256",
          "name": "solarAmount",
          "type": "uint256"
        },
        {
          "internalType": "uint256",
          "name": "rolls",
          "type": "uint256"
        },
        {
          "internalType": "string",
          "name": "packageId",
          "type": "string"
        }
      ],
      "name": "purchaseRollsWithSOLAR",
      "outputs": [],
      "stateMutability": "nonpayable",
      "type": "function"
    },
    {
      "inputs": [
        {
          "internalType": "uint256",
          "name": "usdcAmount",
          "type": "uint256"
        },
        {
          "internalType": "uint256",
          "name": "rolls",
          "type": "uint256"
        },
        {
          "internalType": "string",
          "name": "packageId",
          "type": "string"
        }
      ],
      "name": "purchaseRollsWithUSDC",
      "outputs": [],
      "stateMutability": "nonpayable",
      "type": "function"
    },
    {
      "inputs": [
        {
          "internalType": "address",
          "name": "_treasury",
          "type": "address"
        }
      ],
      "name": "setTreasury",
      "outputs": [],
      "stateMutability": "nonpayable",
      "type": "function"
    },
    {
      "inputs": [],
      "name": "solar",
      "outputs": [
        {
          "internalType": "contract IERC20",
          "name": "",
          "type": "address"
        }
      ],
      "stateMutability": "view",
      "type": "function"
    },
    {
      "inputs": [],
      "name": "treasury",
      "outputs": [
        {
          "internalType": "address",
          "name": "",
          "type": "address"
        }
      ],
      "stateMutability": "view",
      "type": "function"
    },
    {
      "inputs": [],
      "name": "usdc",
      "outputs": [
        {
          "internalType": "contract IERC20",
          "name": "",
          "type": "address"
        }
      ],
      "stateMutability": "view",
      "type": "function"
    },
    {
      "inputs": [
        {
          "internalType": "address",
          "name": "",
          "type": "address"
        }
      ],
      "name": "userRolls",
      "outputs": [
        {
          "internalType": "uint256",
          "name": "",
          "type": "uint256"
        }
      ],
      "stateMutability": "view",
      "type": "function"
    }
  ],
  "bytecode": "0x608060405234801561001057600080fd5b5060405161072538038061072583398101604081905261002f91610098565b600080546001600160a01b03199081163317909155600280546001600160a01b039586169083161790556003805493851693821693909317909255600180549190931691161790556100db565b80516001600160a01b038116811461009357600080fd5b919050565b6000806000606084860312156100ad57600080fd5b6100b68461007c565b92506100c46020850161007c565b91506100d26040850161007c565b90509250925092565b61063b806100ea6000396000f3fe608060405234801561001057600080fd5b50600436106100885760003560e01c80638da5cb5b1161005b5780638da5cb5b14610113578063e3e32cd114610126578063e6fa6d6d14610139578063f0f442601461014c57600080fd5b80633e413bee1461008d57806361d027b3146100bd57806373b27e57146100d05780638791bfbf146100fe575b600080fd5b6002546100a0906001600160a01b031681565b6040516001600160a01b0390911681526020015b60405180910390f35b6001546100a0906001600160a01b031681565b6100f06100de3660046104cf565b60046020526000908152604090205481565b6040519081526020016100b4565b61011161010c3660046104ff565b61015f565b005b6000546100a0906001600160a01b031681565b6101116101343660046104ff565b6102ed565b6003546100a0906001600160a01b031681565b61011161015a3660046104cf565b610467565b60008411801561016f5750600083115b6101b15760405162461bcd60e51b815260206004820152600e60248201526d496e76616c696420706172616d7360901b60448201526064015b60405180910390fd5b6003546001546040516323b872dd60e01b81523360048201526001600160a01b039182166024820152604481018790529116906323b872dd906064016020604051808303816000875af115801561020c573d6000803e3d6000fd5b505050506040513d601f19601f82011682018060405250810190610230919061057f565b6102745760405162461bcd60e51b815260206004820152601560248201527414d3d31054881d1c985b9cd9995c8819985a5b1959605a1b60448201526064016101a8565b33600090815260046020526040812080548592906102939084906105a1565b90915550506003546040516001600160a01b039091169033907f930b09ffe00d34eed9060d13dbc68059329c218befc6c88e28ed552906ed61e7906102df9088908890889088906105c8565b60405180910390a350505050565b6000841180156102fd5750600083115b61033a5760405162461bcd60e51b815260206004820152600e60248201526d496e76616c696420706172616d7360901b60448201526064016101a8565b6002546001546040516323b872dd60e01b81523360048201526001600160a01b039182166024820152604481018790529116906323b872dd906064016020604051808303816000875af1158015610395573d6000803e3d6000fd5b505050506040513d601f19601f820116820180604052508101906103b9919061057f565b6103fc5760405162461bcd60e51b81526020600482015260146024820152731554d110c81d1c985b9cd9995c8819985a5b195960621b60448201526064016101a8565b336000908152600460205260408120805485929061041b9084906105a1565b90915550506002546040516001600160a01b039091169033907f930b09ffe00d34eed9060d13dbc68059329c218befc6c88e28ed552906ed61e7906102df9088908890889088906105c8565b6000546001600160a01b031633146104ad5760405162461bcd60e51b81526020600482015260096024820152682737ba1037bbb732b960b91b60448201526064016101a8565b600180546001600160a01b0319166001600160a01b0392909216919091179055565b6000602082840312156104e157600080fd5b81356001600160a01b03811681146104f857600080fd5b9392505050565b6000806000806060858703121561051557600080fd5b8435935060208501359250604085013567ffffffffffffffff8082111561053b57600080fd5b818701915087601f83011261054f57600080fd5b81358181111561055e57600080fd5b88602082850101111561057057600080fd5b95989497505060200194505050565b60006020828403121561059157600080fd5b815180151581146104f857600080fd5b808201808211156105c257634e487b7160e01b600052601160045260246000fd5b92915050565b84815283602082015260606040820152816060820152818360808301376000818301608090810191909152601f909201601f19160101939250505056fea2646970667358221220eacc84fb9469766d5806cd18726e19172ee3bbdd9948124dc5101412d7ef693664736f6c63430008130033",
  "linkReferences": {},
  "deployedLinkReferences": {}
}